:020000040800F2
:1000000000070020F1010008012A00089D290008CE
:10001000DD2900089D290008BD290008F30100081A
:10002000F3010008F3010008F30100081D3E000879
:10003000F3010008F3010008F3010008F3010008D0
:10004000F3010008F3010008F3010008F3010008C0
:10005000F3010008F3010008C54C0008ED4C00084E
:10006000154D00083D4D0008654D0008F3010008DE
:10007000F3010008F3010008F3010008F301000890
:10008000F3010008F3010008F30100081929000832
:100090004529000871290008F30100088D4D00086A
:1000A000F3010008F3010008F3010008F301000860
:1000B000894E0008F3010008F3010008F30100086D
:1000C000F3010008F3010008F3010008F301000840
:1000D000F3010008F3010008F3010008F301000830
:1000E000014E0008F3010008F3010008F3010008C5
:1000F000F3010008F3010008F3010008F301000810
:10010000F3010008F3010008F3010008F3010008FF
:10011000F3010008F3010008F3010008F3010008EF
:10012000F3010008F3010008F3010008F3010008DF
:10013000F3010008F3010008F3010008F3010008CF
:10014000F3010008F3010008F3010008F3010008BF
:10015000F3010008F3010008F3010008F3010008AF
:10016000F3010008F3010008F3010008F30100089F
:10017000F3010008F3010008F3010008F30100088F
:10018000F3010008F3010008F3010008F30100087F
:10019000F3010008F3010008F3010008F30100086F
:1001A000F3010008F3010008F3010008F30100085F
:1001B000F3010008F3010008F3010008F30100084F
:1001C000F3010008F3010008F3010008F30100083F
:1001D000F3010008F3010008F3010008F30100082F
:1001E00009120008000000000000000000000000EC
:1001F00002E000F000F8FEE772B6374880F30888A6
:10020000364880F3098836483649086040F20000D5
:10021000CCF200004EF63471CEF200010860BFF35C
:100220004F8FBFF36F8F40F20000C0F2F0004EF628
:100230008851CEF200010860BFF34F8FBFF36F8F7C
:100240004FF00000E1EE100A4EF63C71CEF20001D4
:100250000860062080F31488BFF36F8F04F022FB40
:1002600004F00CFC4FF055301F491B4A91423CBF33
:1002700041F8040BFAE71D49184A91423CBF41F886
:10028000040BFAE71A491B4A1B4B9A423EBF51F82E
:10029000040B42F8040BF8E700201849184A914271
:1002A0003CBF41F8040BFAE704F000FB04F0ECFB60
:1002B000144C154DAC4203DA54F8041B8847F9E797
:1002C00000F042F8114C124DAC4203DA54F8041B12
:1002D0008847F9E704F0E8BA00070020002300206F
:1002E0000000000808ED00E00001002000070020E9
:1002F00010520008002300208023002080230020CB
:10030000684D0020E0010008E4010008E401000855
:10031000E40100082DE9F04F2DED108AC1F80CD052
:10032000C3689D46BDEC108ABDE8F08F002383F3BF
:1003300011882846A047002003F0DAFEFEE703F00C
:100340005FFE00DFFEE70000F8B500F065FF04F097
:100350003DFA064604F092FA0746A8B92C4B9E4295
:100360002BD001339E422BD026F0FF02294B9A421C
:1003700003D0054641F2883408E0F0B200F046FEB2
:100380003D4642F2107401E00546002400F044FEB0
:1003900008B10024254601F03FFBA0B941F28833A3
:1003A0009C4216D017B11C4B9E4216D1002004F07F
:1003B00019FABDB900F0ACFE26E005460024E5E7D9
:1003C00000240125E2E7032000F030F80024254650
:1003D000E8E74FF47A740125E4E704F047FA0024D3
:1003E0002546E3E700F040F8E4E700F0E3FE4FF4D1
:1003F0007A7003F085FE002CF7D002F009FB401B59
:10040000A042F2D900F030F802F002FB0546F2E714
:10041000010007B0000008B0263A09B0302383F38A
:100420001188854680F308880847704708B50C4B4B
:100430001870032806D8DFE800F00A06020E022032
:1004400000F056FF08BD022000F048FFFAE7054B18
:1004500000225A60F6E7034B00225A60F2E700BF21
:10046000802300208423002008B501F0D5FA03463C
:1004700068B9072B0FD89A0002F1006202F58032AA
:100480001268B2F1FF3F05D00133DBB2F1E7032080
:10049000FFF7CCFF08BD174B5A68013B9A42F9D9C8
:1004A000154B9B6803F1006303F580339A42F1D248
:1004B00004F0AEF904F0C0F9002000F0C9FE0220FB
:1004C000FFF7B4FF0D4B1A6C00221A64196E1A66FE
:1004D000196E596C5A64596E5A665B6E72B6054B4A
:1004E0004FF0E022C2F8083D59681868FFF796FF00
:1004F000D0E700BF000001080023002000380240C0
:10050000094A136899B21B0C49F2690000FB0133D8
:100510001360064B186882B2000C44F2506101FB74
:100520000200186080B270471823002014230020B6
:1005300010B50446FFF7E4FFB0FBF4F304FB13002F
:1005400080B210BD10B40346002202604260826097
:10055000C260044C07CC186059609A605DF8044B87
:10056000704700BF107AFF1F70B50E4614461D4637
:1005700002F05AFF60B9022D33D1012C01D00020C6
:1005800030E019A3D3E90023C6E90023012029E0C4
:10059000282C1FD00CD8012C15D0052C06D114A363
:1005A000D3E90023C6E9002301201BE0002019E065
:1005B000302C06D110A3D3E90023C6E90023012083
:1005C00010E000200EE00EA3D3E90023C6E90023CB
:1005D000012007E00CA3D3E90023C6E90023012092
:1005E00000E0002070BD00BF401DA12026812A0B25
:1005F000F017304A39059E5678F6339F93CACD8D51
:100600009E6AC421818A46EE26417272DF25D7B7E1
:1006100070B58AB006460D4602F0FAF904464FF46A
:10062000C870FFF785FF044404F51674184B1C606E
:10063000EB7E23B9174B00221A700AB070BD05A9D2
:10064000284600F0A3FF0028F7D101A8FFF77AFFA2
:100650009DF81640224601A90DF1170004F07AFC1E
:1006600048B90F2C0BD80B4B1C70094A1368A3F523
:1006700016731360E1E7074B00221A70DDE79DF85F
:1006800014100029D9D0304602F0C6FED5E700BFCD
:10069000A03300209D3300202DE9F041ADF5507DC1
:1006A00007460E460EAC4FF4C4720021204600F0FF
:1006B0003DFE02F0ADF9304BA3FB00239B092F4A0E
:1006C000136007CA84E80700022323744FF0000870
:1006D00084F811800DF15A00FFF734FF042384F8E9
:1006E00020306E2384F821300DF1180C244D0FCDED
:1006F000ACE80F0095E80F00ACE80700ACF800305C
:100700001D2384F832310DF1180CBCE80F00CDF830
:100710006B01CDF86F11CDF87321CDF87731BCE8BE
:100720000700CDF87B01CDF87F11CDF883219CF82F
:1007300000308DF8873171AD01222946204600F046
:1007400049FE80B205900495CDF80C80B37E0293EB
:1007500006F1190301930123009305A3D3E90023B4
:10076000F17E384602F016FF0DF5507DBDE8F081B0
:100770009E6AC421818A46EED34D62108C230020EC
:10078000B84F0008F0B5FDB006460D462B4B1C7A5D
:100790006CBB07A9284600F04BFF002845D19DF807
:1007A0001D70C82F41D84FF4A6620021234800F0E5
:1007B000BDFD032C0AD82202204B4FF48A7101FBA5
:1007C0000433C3F8E4200134E4B2F2E71B4C3A46A8
:1007D0000DF11E0104F1090000F094FDE21900235F
:1007E00053729DF81C3023720BB9EA7E227281226B
:1007F00000213AA800F09AFD5BAC012221463AA8FC
:1008000000F066FF80B20590049400230393AB7E52
:10081000029305F1190301932823009305A3D3E95B
:100820000023E97E304602F0B5FE7DB0F0BD00BF8A
:10083000AFF3008026417272DF25D7B7D433002092
:10084000134BB3F82C35834200D9704710B50446DA
:10085000002100F027FD01340D4BA3F82C450C4B73
:10086000B3F82C0500F002FD88B1094BB3F82C0554
:1008700000F00EFD58B9064C0021B4F82C0500F02C
:1008800011FDB4F82C350133A4F82C35E7E710BD81
:10089000D43300202DE9F041F0B00646274C94F8FF
:1008A000D8304FF48A7505FB004585F8DC30002709
:1008B00085F8E870D82239463AA800F037FD04F1EF
:1008C0000908404600F028FDC2B28DF8F020D5F8A6
:1008D000E4303A933B9741460DF1F10000F012FDF0
:1008E00006AD012229463AA800F02AFF80B2059001
:1008F0000495012303930823029304F1D803019381
:10090000302300930BA3D3E90023217A0C4802F093
:1009100041FEB84203DC002070B0BDE8F08102F077
:1009200077F84FF48A7202FB0646C6F8E000012011
:10093000F2E700BF78F6339F93CACD8DD433002001
:10094000A433002038B502F063F80546002408E01F
:100950000532B3EB420F02D3FFF79CFFF8B101342D
:10096000E4B2032C1BD80E4B93F8D900204400F0BE
:1009700003004FF48A7202FB003393F8E830002B37
:10098000EDD1074B02FB0033D3F8E030002BE3D06E
:10099000EB1A034A1268F92ADAD8FA22D8E738BDE6
:1009A000D4330020F0B58FB000230A938DF8343093
:1009B0008DF835300B930C9300242746002C46D13C
:1009C00001238DF80C3000238DF80D3041F2E80240
:1009D00004FB02F220495518525896680020002165
:1009E000CDE900010DF10D0203A92846B0479DF89D
:1009F0000C604EB3194A536983F48053536100234A
:100A0000069307930893099341F2E80304FB03F369
:100A1000114AD3585F690DF10E0304AA0AA92846AA
:100A2000B84707AB0BAA92E8030083E803009DF8E0
:100A300034308DF824300A9B0693DDE9042306A99F
:100A4000074802F0AFFF37460134E4B2B6E7002FA3
:100A5000B2D10FB0F0BD00BF103900200008024035
:100A6000A433002010B586B0BDF828400494099C3A
:100A700003949DF8204002940193009202460B4695
:100A8000024802F027FD06B010BD00BFA4330020CD
:100A900010B58AB0244802F0C7FC08B10AB010BDF6
:100AA00001F0B6FF214B1B689842F7D301F0B0FF6D
:100AB00004464FF4C870FFF73BFD044404F5167478
:100AC0001A4B1C6000238DF82030194B1B7813B98A
:100AD00001238DF8203004A8FFF734FD144B19785A
:100AE000C1F11004E4B2062C00D90624224604AB5E
:100AF00019440DF1210000F005FC0134029408AB0B
:100B00000193182300930B4B012205A1D1E90001A9
:100B1000FFF7A8FF064B00221A70BFE7AFF3008073
:100B2000401DA12026812A0BA4330020A0330020E1
:100B30009D3300209C33002010B586B001F068FF83
:100B40000F4BA3FB00239B090E48036004AC01225A
:100B5000214600F0F3FC80B2029001941823009328
:100B6000094B40F2551204A1D1E90001FFF77AFFC9
:100B700006B010BDAFF30080F1C6A7C1D068080F62
:100B8000D34D62108C2300200839002010B5024696
:100B90000B46094C204602F035FD204602F044FC8D
:100BA00038B1064B1B7A2BB10322054B5A71FFF764
:100BB000C3FF10BD0222F8E7A4330020D433002085
:100BC0008C230020012800D0704738B54FF6FF7302
:100BD000994200D038BD0025084C002D07DB204687
:100BE00001F034FA04F587540834013DF5E7044A6E
:100BF0000449002004F08AF9ECE700BF1039002016
:100C0000304A0020090C000838B50F4C0F4B9C42AD
:100C100019D0A4F58753A3F108040D4A43F8082C12
:100C200041F26C03E21812793AB9E5582DB1284621
:100C300000F000FF284601F059F804F58250183002
:100C400000F0F8FEE2E738BDF84900201039002036
:100C500018500008F0B587B0254802F0C7FC0028FE
:100C600039D00446002302938DF814308DF81530E6
:100C700003930493027B8DF8142003AA4068A168B3
:100C800003C2226842F0004202921D461C46D5B9BA
:100C900041F2E80305FB03F3164A9E189B581F69AF
:100CA00001F0BAFE144A82184FF00003009341F19C
:100CB000000302A93046B8470028C8BF44F0010429
:100CC0000135EDB2E3E744B90C4B1B78072B0BD889
:100CD00001330A4A137007B0F0BD054802F08AFCE0
:100CE000064B00221A70B7E7014802F083FCF2E7D6
:100CF000A43300201039002040420F0009390020A1
:100D0000CA7EA04B1B7A9A4240F03B812DE9F04706
:100D100000AF08460024032C0CD89A4B4FF48A727B
:100D200002FB043393F8DC20437E9A4211D0013455
:100D3000E4B2F0E7002373B9924B1B68FA3340F634
:100D4000B832934200D913468E4A1360BD46BDE8BF
:100D5000F0870123EFE74FF48A7104FB01F1E031E2
:100D6000884B19440A3100F021FD0028EED1854B53
:100D70004FF48A7202FB0434012384F8E83001F056
:100D800047FED4F8E030C31A192B05D940F6B83223
:100D9000934202D9134600E019237A4AD2ED007A31
:100DA000F8EE677A9FED787A27EE877A07EE903A29
:100DB000F8EE677ADFED756A67EEA67A77EE277A46
:100DC000FCEEE77AC2ED007A3CE013464FF48A72FB
:100DD00002FB0535002385F8E830C5F8E030C5464C
:100DE000684B5B689B0A0133694A1381AEE70020B8
:100DF00042F8040B013B002BF9DA2246304600F0A2
:100E000081FA604B5B68002B4BD05E4B93F8D200AD
:100E100000F02CFA8246002847D05A4BD3F8D43041
:100E2000002B4ED0574BD3F8D430234453454ED8E3
:100E30005FFA89F23146534B586800F081FA002876
:100E40004CD1C5464F4B93F8D9504FF48A7202FBF0
:100E5000053393F8E830002BC2D0E846494A4FF4F6
:100E60008A7303FB0523D3F8E41053689942ACD18D
:100E700044494FF48A7305FB03F3CA18B2F8EC40F7
:100E8000E21C4FEA9209E03319440E314A4609F157
:100E9000FF3392000732D208A8EBC20295466E4695
:100EA000A9E7012000F0D4F9AFE70024354B1C720C
:100EB00000F002FA204600F0CBF9354B0B221A81E4
:100EC0008DE7304B93F8D200FFF7BAFCAAE72D4B21
:100ED00093F8D2000130FFF7B3FCA9E7294B5A6819
:100EE00022445A60D3F8D4602644C3F8D46093F8FF
:100EF000D20000F0BBF986420BD3224B93F8D220EC
:100F0000013283F8D220D3F8D420A2EB0A02C3F82E
:100F1000D420FF2C23D91B4C4FF48A7303FB0545C7
:100F2000002385F8E830C5F8E030D5F8E43003F563
:100F30008063C5F8E43094F8D900FFF7ABFCFFF705
:100F400089FE94F8D93001335A4203F0030302F0CA
:100F5000030258BF534284F8D930C54672E70024D3
:100F6000084B1C7200F0A8F9204600F071F900F05F
:100F700053FD074A108108B1C546E7E6FFF774FA4A
:100F8000FAE77047D43300206666663FCDCCCC3D8F
:100F90008C23002038B505460C4602F045FA50B1C6
:100FA000E38A282B1CD014D8012B0FD121462846C8
:100FB000FFF772FB0CE0237E022B09D1E38A012BA1
:100FC00006D121462846FFF723FB01E0052B0CD074
:100FD00038BD302BFCD121462846FFF791FEF7E7BC
:100FE00021462846FFF7CEFBF2E7BFF34F8F0549B6
:100FF000CA6802F4E062044B1343CB60BFF34F8F27
:1010000000BFFDE700ED00E00400FA05014B187099
:10101000704700BF9823002030B585B04FF00053D3
:101020001A68334B9A4203D14FF00053587D88B968
:1010300003F02EFC044650B12E4A136C43F00073AB
:1010400013642D4B9A6D2D4B9A4227D000242046D5
:1010500005B030BDFFF7DAFF4FF000531A7D284B83
:101060001A720023032B0AD81902254A4FF48A70FA
:1010700000FB0322C2F8E4100133DBB2F2E74FF0C9
:101080000054C92204F116011E4800F03BF9E02289
:101090000021204600F04AF90124D8E7164B1B6EC8
:1010A00023B37F2B01D90024D1E7174A01AB106885
:1010B0005168926807C3032101A800F0DDFB0E4BC5
:1010C0005B6D984201D00024C1E70B4B1B6D994228
:1010D00001D00024BBE7084D0023AB6595F8600004
:1010E000FFF794FFEA6D094B1A60B0E70024AEE702
:1010F0009AAD44C500380240006600405041A0B09F
:10110000D4330020DD330020586600401023002037
:1011100030B583B000F080FC1D4B188102225A715B
:10112000002474B941F2E80304FB03F319481A5888
:1011300055680122184909681844A8470134E4B2E7
:10114000EFE700230193154B0093154B4FF48052AA
:101150001449154802F044F9144B197899B901F073
:1011600057FC04464FF4C870FFF7E2F9044404F555
:1011700016740F4B1C6003F081FB10B1044B0F225F
:101180001A8103B030BD084802F046F9E7E700BF16
:101190008C2300201039002010230020690500084E
:1011A000950F00089C230020A433002098230020E2
:1011B000A033002008B50CE0114B186001F02CFCA6
:1011C000FFF7E4FC13E0C82002F09AFF0D4B1B7AF6
:1011D000A3B1FFF73FFDFFF7E5FBFFF759FC01F077
:1011E00017FC074B1B68C31AB3F57A7FE4D2054B93
:1011F0001B7A002BE7D0FFF7A5FBE4E708BD00BF93
:1012000004390020D433002008B54FF6FF710120C7
:10121000FFF7D8FC08BD00BF10B503F0A3F90A4BD7
:101220001880002406E003F073F90444074A1368A9
:1012300001331360B4F5803F05D2034B1B88034A8A
:1012400010688342EFD810BD244A0020F8490020DE
:1012500008B503F0E1F908BD08B5920000F100609F
:1012600000F5803003F0D4F908BD00BF08B5064B87
:101270001B88064A12689B1A834201D8002008BDC9
:10128000104403F045F9FAE7244A0020F849002009
:1012900008B5034B1B68184403F066F908BD00BF8E
:1012A000F849002008B5034B1B68184403F074F993
:1012B00008BD00BFF849002008B5074B93F824305B
:1012C0000BB9012008BD0449002381F8243008220D
:1012D000086AFFF7C1FFF5E7FC490020022800D0AB
:1012E0007047024B4FF080529A61F9E700080240C4
:1012F000022800D07047024B4FF480529A61F9E700
:1013000000080240002304E011F803C000F803C005
:1013100001339342F8D370470346002000E00130C8
:1013200013F9012B002AFAD1704700BF034602E0EF
:1013300003F8011B624602F1FF3C002AF8D1704716
:101340002DE9F843814688461546214B93F8243011
:1013500033B31F4A126A02EB8303834220D0FFF7A4
:10136000ABFF0346E0B930E0194E96F82400C0F117
:101370000804AC4228BF2C46E4B2A7003A464146D6
:1013800006EB8000FFF7BEFFB944B8442D1BEDB259
:1013900096F824301C44E4B286F82440082C0DD082
:1013A00095B10B4B93F82430002BDDD10848C0F8E1
:1013B00020902022FF21FFF7B9FFD5E7FFF77CFF40
:1013C00003460028ECD100E001231846BDE8F8836D
:1013D000FC4900202DE9F04383B007460E469146B4
:1013E00040F2791200213046FFF7A0FF3B46202251
:1013F0000021304602F052FA3B1D022220213046E5
:1014000002F04CFA7B1D03222221304602F046FAFC
:10141000BB1D03222521304602F040FA07F10803E4
:1014200010222821304602F039FA07F11003082271
:101430003821304602F032FA07F111030822402128
:10144000304602F02BFA07F11203082248213046F9
:1014500002F024FA07F1140320225021304602F052
:101460001DFA07F1180340227021304602F016FAE7
:1014700007F1200843460822B021304602F00EFA58
:1014800007F121030822B821304602F007FAC025EF
:10149000002409E008EB0403023308222946304601
:1014A00002F0FCF9083501340F2CF3D998F812300A
:1014B0008DF807300DF1070308222946304602F067
:1014C000EDF905F1080400259DF807309D420BD287
:1014D00005F110034344033308222146304602F04D
:1014E000DDF908340135EFE797F83231502B28BF8A
:1014F00050238DF80730B9F1000F10D000259DF86A
:1015000007309D4214D205F598733B4403330822FB
:101510002146304602F0C2F908340135EFE70DF1FB
:10152000070307222146304602F0B8F90734E5E701
:10153000E01DC00803B0BDE8F08300BF38B5054624
:101540000C4600212160C4F80310034620222046E7
:1015500002F0A4F92B1D02222021204602F09EF960
:101560006B1D03222221204602F098F9AB1D0322B5
:101570002521204602F092F905F1080310222821C6
:10158000204602F08BF9072038BD00BFF0B583B0CC
:1015900007460D46047F14B1838A122B3CD8009570
:1015A000002307221946384602F076F86B1C009398
:1015B000002301220721384602F06EF854B1BB8A9D
:1015C000DB00083BDB08AB700826AB78102B26D875
:1015D000002414E0AB1C00930023052208213846A8
:1015E00002F05AF80D26F0E72B190333009300237D
:1015F00008223146384602F04FF808360134AB78FD
:101600009C42F1D300243CB90736F6083B7F43B136
:10161000BC8AA41B18BF0124204603B0F0BD0124DE
:10162000F1E7BC8AB4422CBF00240124F4E700BFD8
:101630002DE9F04182B006468846047F14B1838AC2
:10164000CA2B38D8CDF8008000230822194630462E
:1016500002F022F808F1010764B1B38ADB00083B0D
:10166000DB0888F80130082598F80130C82B26D807
:10167000002413E00097002308221146304602F0B0
:101680000BF81025F0E73B190133009300230822E3
:101690002946304602F000F8083501343B789C4278
:1016A000F1D300243CB90735ED08337F4BB1B48A40
:1016B000641B18BF0124204602B0BDE8F08101245C
:1016C000F0E7B48AAC422CBF00240124F3E700BF4A
:1016D000F0B583B006460F461446812200213846F5
:1016E000FFF724FE334608220021384602F0D6F8E0
:1016F000737896F90120002A05DB8DF8073024B1B4
:101700000825002413E07F23F7E70DF107030722E4
:101710000821384602F0C2F80F25F2E733190233E8
:1017200008222946384602F0B9F8083501349DF8F8
:1017300007209442F2D3E81DC00803B0F0BD00BFFB
:10174000F0B583B004460E461546CE220021304641
:10175000FFF7ECFD234628220021304602F09EF8D8
:1017600004F10807237AC82B28BFC8238DF8073057
:1017700015B12825002411E00DF1070308222821C6
:10178000304602F08BF83025F4E73B19013308228C
:101790002946304602F082F8083501349DF80730BA
:1017A0009C42F2D3E81DC00803B0F0BDF0B583B091
:1017B00007460E46047F1CB1838AB3F5827F35D875
:1017C0000096012310220021384601F065FF5CB12C
:1017D000BB8ADB00103BDB08738010257388B3F5F0
:1017E000807F26D8002414E0B31C00930023092234
:1017F0001021384601F050FF1925EFE73319043363
:101800000093002308222946384601F045FF083599
:10181000013473889C42F1D300243CB90735ED08AC
:101820003B7F43B1BC8A641B18BF0124204603B030
:10183000F0BD0124F1E7BC8AAC422CBF0024012496
:10184000F4E700BF00B58E460AE040F3000C0949FA
:101850000CEA010181EA50000133DBB2072BF4D915
:101860001346013A23B11EF8013B58400023F5E727
:101870005DF804FB2083B8ED30B583B004460B4619
:101880004FF0FF30014620E0001849410133DBB240
:10189000072B0BD80029F7DA10EB000C41EB010203
:1018A00010488CEA000010495140EFE70EF1010E9C
:1018B0005FFA8EFEBEF1030F06D801AB13F80E30AF
:1018C00081EA03610023E3E72B465D1EADB22BB135
:1018D00054F8043B01934FF0000EEBE7C043C943BB
:1018E00003B030BD9336EAA9EBE1F042F0B583B026
:1018F0001F4B6A4693E8030082E8030008231D4952
:101900001D4803F037FB30B304460369B3F5702F6D
:1019100023D8418B40F26E42914220D100F118074A
:10192000164A024402F110018B421BD39B1AA3F109
:10193000100511490020FFF785FF06462A46394663
:101940000020FFF77FFFA368B3420DD1E368834215
:101950000CD1002004E00A2002E00B2000E00C2063
:1019600003B0F0BD1020FBE70D20F9E70D20F7E7ED
:10197000D84F0008DCFF0E00000001080800FFF748
:10198000F0B583B0204B6A4693E8030082E8030079
:1019900008231E491E4803F0EDFA38B304460369D4
:1019A000B3F5702F24D8B0F8661040F26E42914221
:1019B00020D100F16407174A024402F15C018B4216
:1019C0001BD39B1AA3F15C0511490020FFF73AFFD6
:1019D00006462A4639460020FFF734FFA368B34283
:1019E0000DD1E36883420CD1002004E00A2002E01C
:1019F0000B2000E00C2003B0F0BD1020FBE70D2011
:101A0000F9E70D20F7E700BFE44F000890FF0E0054
:101A1000000001080800FFF710B5FFF767FF044654
:101A200008B9204610BDFFF7ABFF0028F9D10446E6
:101A3000F7E700BF10B50446037C0BB1204610BD8C
:101A4000006803F07FFAF9E7BFF35B8FC368BFF369
:101A50005B8FBFF35B8F8268BFF35B8F9A4208D9BD
:101A60004268BFF35B8F8068BFF35B8F101A184426
:101A70007047BFF35B8F8068BFF35B8F181A7047A6
:101A8000BFF35B8F0023C360BFF35B8FBFF35B8F3C
:101A90008360BFF35B8F70470346406800B97047AF
:101AA000BFF35B8F9A68BFF35B8FBFF35B8FD9681F
:101AB000BFF35B8F914209D35868BFF35B8FDB683C
:101AC000BFF35B8FD21A013A1044E8E70020F4E735
:101AD00038B505460C46FFF7B7FFA04201D20020FB
:101AE00038BDBFF35B8FA968BFF35B8F0C44696897
:101AF000B4FBF1F301FB1344BFF35B8FAC60BFF3A6
:101B00005B8F0120ECE700BF70B504460E4615461A
:101B1000FFF7C2FFA84200D3284608B9002070BDD5
:101B20002368BFF35B8FE268BFF35B8F13443360BE
:101B30006268BFF35B8FE368BFF35B8FD11A8842A3
:101B400007D971602168B1609B1A1844F0600220C7
:101B5000E5E770600120E2E738B505460C46FFF77F
:101B60009BFFA04201D2002038BDBFF35B8FE96824
:101B7000BFF35B8F0C446968B4FBF1F301FB1344C2
:101B8000BFF35B8FEC60BFF35B8F0120ECE700BF1E
:101B90002DE9F04385B0814688466946FFF7B4FFDA
:101BA0000746002425460EE004AB03EBC40656F8B6
:101BB0000C2C08EB050156F8100CFFF7A3FB56F8A8
:101BC0000C3C1D440134A742EEDC29464846FFF791
:101BD000C3FF284605B0BDE8F08300BFBFF35B8FAD
:101BE000C368BFF35B8FBFF35B8F8268BFF35B8F0C
:101BF0009A4210D94368BFF35B8F8268BFF35B8F53
:101C00009B1A0B6073B10368BFF35B8F8068BFF3EF
:101C10005B8F18447047BFF35B8F8268BFF35B8FA5
:101C20009B1AEEE700207047F0B583B007460E46DA
:101C30001546FFF709FF04460190A84200D32C4641
:101C400014B9002003B0F0BD01A93846FFF7C6FF64
:101C5000019B6BB1A34200D9019430600198706080
:101C6000A0420DD23B68B360241AF4600220E9E779
:101C70003B68336074600023B360F3600120E1E7E8
:101C80000120DFE72DE9F04184B088466946FFF77F
:101C9000CBFF0746002425460EE004AB03EBC40649
:101CA00056F80C2C56F8101C08EB0500FFF72AFB21
:101CB00056F80C3C1D440134A742EEDC284604B023
:101CC000BDE8F08138B50546FFF7DCFF0446014664
:101CD0002846FFF7FDFE204638BD00BF08B500B915
:101CE0000120012103F018F908BD00BF18B108B5A3
:101CF00003F028F908BD704710B5026854681A4609
:101D0000A04710BD0020704700207047704700BFFB
:101D1000002070470E20704700F5805090F8D800E2
:101D2000C0F34000704700BF00F5805090F9E0001C
:101D3000704700BF00F58050C0F8DC1001207047EC
:101D4000F0B583B0BDF820500C6814F0005F40F08F
:101D500089800C7B082C00F28880302484F3118861
:101D6000446AA66816F0806F0ED1A66816F0006F60
:101D70006BD1A66816F0805F02D04FF0020E05E02E
:101D8000002080F311885EE04FF0000EF4460E68EC
:101D9000002E5DDB76050EF1180E4FEA0E1E44F89C
:101DA0000E600E6816F0804F06D00CF11806360152
:101DB000A75947F00207A7510F7B0CF118064FEA0D
:101DC000061E04EB061677608E6804EB0C17C7F846
:101DD0008C614E68C7F8886154F80E6046F00106C1
:101DE00044F80E6041F2780E0EEB4C14044400EB04
:101DF0004C1CE644CEF80020CEF80430D1F800E0C8
:101E00004F688E68C4F808E0E76026618E89A68274
:101E10000CF5845C9CF8144065F300048CF81440C5
:101E2000C5F34006E4B266F341048CF81440E4B212
:101E30006FF3C3048CF81440002484F311880095D8
:101E400000F05AFE012003B0F0BD4FF0010E9DE7F7
:101E5000F60046F004060EF1180E4FEA0E1E44F886
:101E60000E609EE74FF0FF30EDE74FF0FF30EAE7FE
:101E700008B5302383F3118800F58050C06EFFF75A
:101E8000FFFD002383F3118808BD00BF70B5044631
:101E90000D4641F26C068059FFF7FEFD1F2801D860
:101EA000002070BD20222946A059FFF771FE20288E
:101EB00014BF00200120F4E72DE9F04188B0064668
:101EC0000D4617469846302383F3118800220023DD
:101ED000CDE900230024ADF8084003948DF81840A4
:101EE0008DF819400494059441F26C040059FFF7F1
:101EF000ABFD1F2806D8002070B980F3118808B008
:101F0000BDE8F081202269463059FFF7DBFE20282A
:101F100014BF00200120EFE703AB07CB2860696006
:101F2000AA601B88AB81DDE90023C7E90023BDF867
:101F30000830A8F80030002383F3118843463A465E
:101F40002946304600F076FDD9E700BF10B50246BD
:101F50003A4B42F8043B0023436053609360D360E4
:101F6000136153610246364C42F8284B8362137367
:101F70005373C36203639FED2F7B80ED0E7BA0F84C
:101F80004030436480F8503080F851308364C3643B
:101F900000F1580423464FF07F0C0DE09FED257BA8
:101FA00083ED007B00221A81DA601A765A761A6174
:101FB0005A6120330CF1FF3CBCF1000FEEDA00F562
:101FC0008252183200F580539C654FF48054DC65D2
:101FD00000241C665C664FF0010C83F868C0DA666A
:101FE00083F870C000F5835318334FF0020EBEF132
:101FF000000F11DB9C469FED0F7BACEC027B0022B7
:102000009A608CF80C208CF80D20DA601A619A61C5
:1020100020330EF1FF3EEAE700F5805383F8E0102D
:1020200011B9084B436210BD074800F0EBFC00BF3C
:10203000AFF30080000000000000000064500008C2
:102040001850000800640040F04F000810B5044626
:10205000034B19784A1C1A70FFF778FF204610BD11
:102060002C4A0020002977D070B582B00C46424B34
:10207000994211D90A234149B1FBF4FC013BDBB27F
:102080009E46581CBCFBF0F100FB11C131B1022B84
:1020900064D9013BDBB2F3E71123ECE7BCFBF0F0C2
:1020A000411EB1F5806F5CD2C3EBC30E1EF103017C
:1020B0004DD4C1F3C70C8DF800C0A3EB0C05EDB2F5
:1020C0008DF801500CF101064FF47A710CFB0111EF
:1020D000354491FBF5F189B2ADF80210B1F5617F9D
:1020E00018D9BEF1010E34D4CEF3C70E8DF804E03A
:1020F000A3EB0E03DBB28DF805300EF101054FF4B2
:102100007A710EFB01112B4491FBF3F3ADF806300D
:10211000019B00939DF800104B1C9DF80160334417
:1021200000FB03F3154DB5FBF3F3A3421BD10139BB
:10213000C9B20F2919D8D6B1082E1AD80138108083
:1021400000239370D170013E1671012007E0073122
:10215000AFE70EF1070EC7E700207047002002B07E
:1021600070BD0020FBE70020F9E70020F7E7002022
:10217000F5E70020F3E700BF3F420F0080DE80025A
:1021800070B506460D460024B4F57A7F0BD2736A0B
:102190005B6803F00103AB4207D04FF47A7001F0A3
:1021A000AFFF0134F0E7002000E0012070BD00BF68
:1021B000032968D870B588B004460D46164600F568
:1021C000805393F8D830C3F3800113F0040F00D18B
:1021D000114604F5805393F8D82061F3820283F806
:1021E000D82041F2780303EB451304EB030C04EB16
:1021F000451303F5845310331B7913F0010F09D0F5
:1022000046B104EB451303F5845310331B7913F0E7
:10221000080F12D07EB104EB451303F5845310333D
:102220001B7913F0080F06D104EB451404F5845410
:1022300043F00803237508B070BD00220023CDE9E8
:1022400000230023ADF8083003938DF818308DF883
:1022500019300493059303ABDCF80800DCF80C108C
:10226000DCF8102007C3BCF814201A80DDE90C2329
:10227000CDE900230123ADF8083023681B6C6946C3
:1022800020469847C6E77047426A936913F0700F7B
:1022900025D00023936100E00133022B1FDC00EB0B
:1022A000431202F584521032127912F0040FF3D067
:1022B00000EB431202F584521032127912F0020F31
:1022C000EAD0426A064951F82310916000EB4312AC
:1022D00002F58452117D41F004011175DCE770476D
:1022E0000450000870B582B0044616461D46436A85
:1022F0009A6812F0010F16D1636A9A6812F4807F0F
:102300001CD1636A9A6812F4803F24D104F580538B
:10231000D3F8DC0010B103681B6998472046FFF72B
:10232000B3FF02B070BD9A680121996000960195D3
:10233000C2F340020021FFF73BFFDDE79A684FF44C
:102340008071996000960195C2F3402201212046D8
:10235000FFF72EFFD5E79A684FF480319960009619
:102360000195C2F3404202212046FFF721FFCDE74D
:1023700038B50446084600297CD1616A01F10C0C8D
:10238000DCF8001011F0030F73D0DCF80010616A64
:1023900000F11B052D014D5915F0040F6ED100F110
:1023A0001B052D014D596D0DA56200F11B052D0179
:1023B0004D5915F0020F03D0A56A45F08045A5627E
:1023C00000F11B0501EB05156D6805F00F0E84F893
:1023D00034E001EB0011D1F8B80184F82C00D1F8F9
:1023E000B801000A84F82D00D1F8B801000C84F877
:1023F0002E00D1F8B801000E84F82F00D1F8BC01EE
:1024000084F83000D1F8BC01000A84F83100D1F81A
:10241000BC01000C84F83200D1F8BC11090E84F81C
:1024200033103821CCF80010A56AE06A216B65648E
:10243000A064E164A18EA4F85010A263E3630023BA
:10244000A4F8403023681B6C04F1380120469847FB
:1024500004F5805393F8D82042F0040283F8D82082
:10246000D3F8DC0010B103681B6998472046FFF7DA
:102470000BFF38BD616A01F1100C81E700F11B050B
:102480002D014D59ED08A56245F00045A5628CE788
:10249000302181F311880021022938DC30B502E0B7
:1024A000013102292FDC00EB411C0CF5845C0CF19E
:1024B000100C9CF804C01CF0040FF1D100EB411C7F
:1024C0000CF5845C0CF1100C9CF804C01CF0100F8F
:1024D000E6D000EB411E41F2780C0EEB0C045EF8E6
:1024E0000C50646895429C41DAD2446A0A4D55F812
:1024F0002150A5600EF5845C9CF814E04EF0040EAB
:102500008CF814E0CCE7002383F3118830BD00235E
:1025100083F31188704700BF0450000808B53023CA
:1025200083F31188FFF7B0FE002383F3118808BD01
:10253000436A9B6803F0E053B3F1E05F2CD070B5C1
:1025400005460E4653B3302383F31188002400E080
:102550000134022C1BDC05EB441303F584531033C8
:102560001B7913F0080FF3D105EB441303F58453E3
:1025700010331B7913F0040FEAD104F1840105EB49
:102580004111304600F00AFB0028E1D100E00120B3
:10259000002383F3118870BD012070470020FAE703
:1025A00008B5302383F3118800F58050C06EFFF723
:1025B0004BFA002383F311881F288CBF00200120D1
:1025C00008BD00BFF8B507460E4614461D46002359
:1025D0001370FFF7E5FF80F00103337025B1294642
:1025E0003846FFF7A5FF2070F8BD00BFF8B50446D8
:1025F0000D4616461F4600F00FFA02460B46297894
:1026000009B9307860B12046FFF742FF2046FFF756
:1026100085FF3B46324629462046FFF7D3FF01207F
:10262000F8BD00BF302383F311881B4B1A6C42F0B6
:1026300000721A641A6A42F000721A621A6A22F070
:1026400000721A62002383F3118800F5805393F817
:10265000D83013F0010F1ED110B5044601B910BDDA
:10266000302383F311880321132001F037FC032169
:10267000142001F033FC0321152001F02FFC04F598
:10268000805494F8D83043F0010384F8D830002304
:1026900083F31188E3E770470038024000F5805368
:1026A00093F8E030012B00F232812DE9F0418AB03D
:1026B00004460E461746974A52F82320002A37D080
:1026C000E66184F82070934B1B68002B34D004F52E
:1026D000805393F8E030012B06D18E4B18680368C5
:1026E0001B6B9847002836D001212046FFF79AFF40
:1026F000302383F31188626A136823F002031360A6
:10270000626A136843F001031360626A0023536135
:1027100083F3118801212046FFF732FD034648BBB1
:10272000626A4FF40041116018460AB0BDE8F081BA
:10273000784A42F82300C3E741F2E800FFF7CEFAF7
:10274000054610B10021FFF701FC724B1D60002D02
:10275000BDD10023E8E76F4D00212868FFF762FF35
:10276000286803685B683A46314698470346002864
:10277000BAD1D9E704F58053D86EFFF781F94FF04D
:1027800000082BE0202200216846FEF7CFFD002341
:1027900002938DF814308DF815300393049306934B
:1027A00041F2780505EB481504EB050EEC46BCE854
:1027B0000F006051CEF80410CEF80820CEF80C308F
:1027C000BCE80700CEF81000CEF81410CEF81820A0
:1027D0009CF800308EF81C3008F10108B8F1020FA7
:1027E000D0D904F5805393F8D8206FF3820283F890
:1027F000D8200023ADF820308DF822308DF823301A
:102800008DF8243008AA31462046FFF72BFC0346FA
:1028100000286FD0636A61221A609DF822301B067F
:1028200003F040739DF82320120402F47022134336
:102830009DF82420120502F4E0021343BDF8202085
:10284000C2F309021343022F59D00021626A0B43DD
:10285000D361636A13225A61626A136823F0010329
:10286000136000212046FFF78BFC0346002849D067
:1028700004F5805292F8E0209ABB616AD1F80022F8
:1028800042F00102C1F80022616AD1F8002222F46C
:102890007C5222F00E02C1F80022616AD1F80022B7
:1028A00042F46062C1F80022616A0022C1F8142279
:1028B000616AC1F80422616A41F6FF70C1F80C0236
:1028C000616AC1F84022616AC1F84422626A01214A
:1028D000C2F81C12616AD1F8002222F00102C1F88C
:1028E000002204F5805494F8D82042F0020284F8C3
:1028F000D82019E7626A4FF40041116014E74FF0E5
:102900000041A3E7626A4FF4004111600CE7002325
:1029100018467047284A002008B500F07DF80246A6
:102920000B4652EA030102D0013A43F1FF33044956
:10293000086808B1FFF7D6FC01F0A4FA08BD00BF93
:10294000284A002008B500F067F802460B4652EA14
:10295000030102D0013A43F1FF330449086810B182
:102960000021FFF705FD01F08DFA08BD284A00207F
:1029700008B500F051F802460B4652EA030102D0B6
:10298000013A43F1FF330449086810B10121FFF710
:10299000EFFC01F077FA08BD284A002000B59BB093
:1029A000EFF3098168226846FEF7ACFCEFF305837C
:1029B000014B9B6BFEE700BF00ED00E000B59BB054
:1029C000EFF3098168226846FEF79CFCEFF305836C
:1029D000014B9B6BFEE700BF00ED00E000B59BB034
:1029E000EFF3098168226846FEF78CFCEFF305835C
:1029F000014B5B6BFEE700BF00ED00E0FEE700BFB0
:102A0000FEE700BF0FB408B5029801F02BFBFEE70C
:102A100008B501F073FE08BD08B501F049FE08BD18
:102A20000020704701207047002070470020704749
:102A3000704700BF1B8813F0040F20D1F0B583B09E
:102A400005460E46041D00F11C0709E02B68DB6BF0
:102A50002846984763683246C1B2206898470834D0
:102A6000BC4209D00023009301932368002BEDD1D1
:102A70006368002BEAD1F2E7012003B0F0BD01202A
:102A8000704700BF84B0EC468CE80600002201E0ED
:102A90000132D2B2022A18D800210291039100EB30
:102AA000C20149680029F3D100EBC20189680029FD
:102AB000EED100EBC20000F1040C694603C98CE8BA
:102AC000030001321A70012000E0002004B07047BA
:102AD0000139C9B202290DD882B0002300930193B5
:102AE00000EBC100031D02AA12E9030083E8030002
:102AF00002B07047704700BF2DE9F0438BB0054628
:102B00000E46BDF84880041D00F11C074FF0000977
:102B100006E0636863B902E0B9F1000F15D008342C
:102B2000BC4236D00023089309932368002BF0D0D1
:102B300018F0040FF0D12B68DB6B284698476368C8
:102B40003246C1B220689847E9E700220023CDE968
:102B500000230023ADF8083003938DF818308DF86A
:102B600019300493059303AB30687168B26807C3EA
:102B7000B2891A80FFF750FFCDE900010423ADF8B8
:102B800008302B681B6C6946284698474FF00109AE
:102B9000C5E701200BB0BDE8F08300BF036823F058
:102BA000604C0A6822F06041D00FB0EBD37F0FD0A9
:102BB000002B08DB002A09DB8C4513D08C452CBF89
:102BC0000020012070474FEA9C4CF3E7890CF3E7A3
:102BD000C3F38073C2F380708C4504D08C452CBF46
:102BE0000020012070478342FCD1F7E70846704778
:102BF000084670470846704708467047401A83B237
:102C0000002800DB704703F1200000B2FAE700BFA4
:102C100003780133DBB203701F2B01D9002303704B
:102C2000704700BF082818D909280BD00A280BD0F4
:102C30000B280BD00C280BD00D280BD00E280BD056
:102C4000402070470C2070471020704714207047B8
:102C5000182070472020704730207047082818D966
:102C60000C280BD910280BD914280BD918280BD9EC
:102C700020280BD930280BD90F2070470920704726
:102C80000A2070470B2070470C2070470D207047BA
:102C90000E207047034621F0604C20F06042C00FC8
:102CA000B0EBD17F0FD0002908DB002B09DB944566
:102CB00013D094452CBF0020012070474FEA9C4C54
:102CC000F3E7920CF3E7C1F38071C3F3807094458E
:102CD00004D094452CBF0020012070478142FCD1D4
:102CE000F7E700BF2DE9F04107460D46D0F82480F4
:102CF000B8F1000F0CD046464446A4B1696860683C
:102D0000FFF7C8FF30B9236826465BB11C46F4E7DD
:102D1000796208E0A04502D035602C6003E02C60A9
:102D20007D6200E02560BDE8F08100BFC37DC3F394
:102D30008402013262F38603C375C38A6FF3090309
:102D4000C382C37D6FF3C713C375704738B504469C
:102D50000D46006A04E0016804F10C00FFF74AFF29
:102D600010B10369AB42F6D138BD00BF2DE9F04385
:102D7000079CCE0803EBD40501F0070304F0070419
:102D80001A442AE003F0070804F00707C646B845CE
:102D900038BFBE46CEF1080ED11A8E4528BF8E46EA
:102DA0004FF47F4C2CFA0EFC5FFA8CFC4CFA07FCBB
:102DB000D90800EB060919F8011001FA08F1F940E9
:102DC000C9B24FEAD40815F8087079400CEA01013D
:102DD0004F4005F80870734474449342D2D1BDE863
:102DE000F08300BF2DE9F04F87B004900E460592A6
:102DF0000393838AB1EBC30F80F084801146DA001D
:102E000031448A4204D2D2B2F3B2D21AD3B2059379
:102E1000049BDB683BB3272E36D8C6F12803059AFE
:102E20009A422ED35FFA86FBCBF1280B5FFA8BFB1D
:102E300000230093039B5A46314604988068FFF7AD
:102E400095FF5E44059BA3EB0B04E4B2049B9F8AB1
:102E500007F10057053FFF00D3F80C9028214B469F
:102E6000B9461F4627E0049B1B69002BD3D10023E2
:102E70000093039B059A314604988068FFF776FF1C
:102E800033E0DDF814B0D3E7059C4FF0000BDDE72D
:102E90002546CDF800B0039B2A46711A381DFFF76E
:102EA00065FF2E44AB445FFA8BFB641BE4B2A9EBD5
:102EB0000A093F684146A7B19CB1CA46B9F1E00F83
:102EC00028BF4FF0E00A0AEB01084645EFD2A8EB15
:102ED00006039C42DCD35FFA88F5F3B2ED1AEDB23B
:102EE000D7E7049B186900B124B9BDF9140007B0F5
:102EF000BDE8F08FCDF800B0039B2246711AFFF7B2
:102F000035FFF2E70020F2E7002070470139002387
:102F100007E0C25C10F801C000F803C0425401335E
:102F200001398B42F5D3704780EA0120002303E08A
:102F3000400080B20133DBB2072B09D810F4004FF8
:102F4000F6D0400080B280F4815080F00100F1E7BB
:102F5000704700BF70B516461D46002411E0C4F14D
:102F60002003A4F1200C26FA04F105FA03F3194317
:102F700025FA0CFC41EA0C01C9B2FFF7D5FF083471
:102F8000A4B23F2CEBD970BD38B50C4604E014F860
:102F9000011BFFF7C9FF2A46551E002AF7D138BD8D
:102FA00038B5058C072D0BD90446D0E902234FF61E
:102FB000FF70FFF7CFFF2A46E169FFF7E5FF38BD55
:102FC0004FF6FF70FBE700BF10B4016100F1040C85
:102FD000002305E001EB4314CCF80040A446013384
:102FE0009A42F7D80023CCF80030028143818381D4
:102FF00003605DF8044B70470346406848B10268BF
:103000005A605A89013292B25A8199898A4200D90A
:103010009A81704708B5FFF7EFFF08B100230360FE
:1030200008BD00BF2DE9F84F8246894616461F4667
:10303000CB8AC3F30903052B34D018460024042B94
:103040000BD8BAB2A24208D9315D09EB0302D1769E
:1030500001339BB20134A4B2F1E7BBB2A34218D949
:10306000B9F816B0CBF3090BABF1050293083E4952
:10307000A1FB0313C3EBC303A2EB83031FFA83F883
:10308000D9F8041081B15046FFF7B0FD0546012381
:103090001CE00344B9F8162063F30902A9F81620CE
:1030A000012055E00024DBE75046FFF7B3FF05465B
:1030B00001465046FFF79CFDC9F80400002D49D099
:1030C0004FF000082CE001339BB215462A68002A15
:1030D000F9D107EB0B02053A92082349A1FB021232
:1030E00092B2013292B293421AD2B8F1000F17D1C4
:1030F0005046FFF78FFF286078B3054610E0325D39
:1031000005EB0C031A710CF1010C1FFA8CFC013455
:10311000A4B2BCF11B0F01D8A142F0D8A14204D83F
:10312000B9B2A1420AD9C446F3E75046FFF772FF8D
:103130002860A8B105464FF00008F1E7B9F816304D
:10314000C3F30902114461F30903A9F81630012001
:10315000BDE8F88F6FF00200FAE76FF00200F7E7C2
:103160006FF00200F4E700BF2549922443680B602A
:1031700041604389013B4381704700BFF8B5064673
:103180000D460EE006F10C042046FFF72FFD014628
:1031900007682046FFF7EAFF39462046FFF728FD7B
:1031A000686069680029EDD1EB8A6FF30903EB824F
:1031B00000200021F8BD00BF08B5FFF71DFF034642
:1031C00028B10022026042608260C260026118463B
:1031D00008BD00BF2DE9F04F83B001921D465B6929
:1031E000002B00F09C8081468B462B8C1BB1EA693A
:1031F000002A00F09780072B18D902339BB20633C0
:103200004E4A82FB03121344C3F38F03B9F8142010
:10321000B9F81610521A92B2934200F289804FF018
:10322000800A4FF000084446474656E009F10C007A
:10323000FFF7C2FF0446002877D02A8CE9690830DE
:10324000FEF760F8288C013080B2FFF707FDFFF72A
:10325000E9FC431E9BB22B84013323746B691B78FA
:1032600003F01F032A8C43F0C003224413724BF077
:103270000043636021464846FFF734FD0127384686
:1032800003B0BDE8F08F002037E02B8CA34243D081
:10329000013080B2FFF7E2FCFFF7C4FC013880B2D6
:1032A0004FEA4813DBB243EA0A0A6B691B7803F062
:1032B0001F034AEA030A331883F808A04BF00043BF
:1032C00073600130307431464846FFF70BFD01371B
:1032D0003FB288F001084FF0000A2B8CA342CED0F9
:1032E00009F10C00FFF768FF064620B3002CCAD195
:1032F000019B03721B0A4372022003460628C4D8AE
:103300002A8CA242C1D9EA69125D33441A72013093
:1033100080B20134A4B2F0E74FF0400AB8E76FF092
:103320000107ACE76FF00107A9E76FF00207A6E716
:103330006FF00207A3E76FF00207A0E7932449921A
:1033400030B589B004460D46202200216846FDF7BD
:10335000EDFF04952046FFF74FFE8646A0B1EC46F0
:10336000BCE80F00CEF80000CEF80410CEF808201C
:10337000CEF80C30BCE80F00CEF81000CEF81410D8
:10338000CEF81820CEF81C30704609B030BD00BF12
:1033900070B5044600F10C063046FFF7D1FF054634
:1033A00028B1216A3046FFF727FC286025622846AD
:1033B00070BD00BF38B504460D46036A1BB1FFF768
:1033C000C5FC38B138BD0C30FFF7BAFF0028F9D082
:1033D0002062F7E729462046FFF7DAFFF2E700BF51
:1033E000F8B504460E4615461F4630220021FDF76B
:1033F0009DFFA760069B6360079BA3626A09B5F502
:10340000001F01D34FF6FF7292B2314604F10C0057
:10341000FFF7DAFDF8BD00BF037823B919B111F049
:10342000800F00D101707047007870472DE9F84394
:1034300005460C46D1F81C90B9F1000F23D094F842
:103440001880B8F11F0F3BD82846FFF7EDFF06465E
:10345000F8B9228C072A36D8278A37F0030335D1EA
:1034600049464FF6FF70FFF78FFD47F6FE730340A6
:103470005B0243EA08633F0207F440773B431E4385
:103480004FF6FF720EE00B8C002BD8D06FF00105C9
:103490000FE0238A1B0243EA08631E432046FFF71E
:1034A0007FFD0246234631462846FFF793FE051E60
:1034B00002DC2846BDE8F8836069FFF7A9FBF8E75E
:1034C0006FF00105F5E76FF00305F2E76FF0010516
:1034D000EFE700BF70B58AB0044616461D462822A5
:1034E00000216846FDF722FF02960395BDF83830AB
:1034F000ADF810300F9B05939DF840308DF81830D3
:10350000119B0793BDF84830ADF82030694620463E
:10351000FFF78CFF0AB070BD2DE9F04106460F465B
:103520001546D3692BB395F81880B8F11F0F2AD828
:103530003046FFF779FF48B32C8A240444EA086434
:103540002B7844EAC33444EA0724044344F080045B
:103550002846FFF725FD02462B4621463046FFF759
:1035600039FE041E02DD2B78012B08D02046BDE871
:10357000F081138C002BD6D06FF00104F6E7686958
:10358000FFF746FBF2E76FF00104EFE76FF003048B
:10359000ECE700BFF0B58BB004460D4617461E465B
:1035A000282200216846FDF7C1FE9DF84C30012B12
:1035B00014BF002301238DF80030029703969DF875
:1035C0004030ADF81030119B05939DF848308DF8D0
:1035D0001830149B0793BDF85430ADF820306A467C
:1035E00029462046FFF798FF0BB0F0BD406A00B1B6
:1035F0000430704708B5416A0B6843620C30FFF72E
:10360000B5FD08BD2DE9F041054616469846076A06
:103610003C4619E021462846FFF7B0FD05F10C07AE
:103620002B6A19683846FFF7E5FA286221463846C2
:10363000FFF79CFD2C6A274606E0216805F10C0087
:10364000FFF7D8FA274604460CB3A168E368711A5D
:1036500068EB03030F4A8A424FF0000272EB030348
:10366000EBD22B6AA342D5D021462846FFF786FD30
:1036700023683B6005F10C0321461C461846FFF702
:1036800075FD39682046FFF7B5FA0446DCE7BDE86A
:10369000F08100BF80841E002DE9F04182B0089EB9
:1036A000002800F0E28014461D460746002E00F078
:1036B000DF80531EDBB23F2B00F2DD80012A02D1F6
:1036C000002D40F0DB800023009301936B462246DF
:1036D0003846FFF787FB071E3BDD14F0070F0AD0C3
:1036E00002AB03EBD40111F8083C624202F007027E
:1036F000134101F8083C012C0BD0082C2DD9102CBB
:103700002ED9202C2FD9402C00F2BB804FF0080876
:1037100000E0A046FFF7F8FB40BB9DB1B4EBC80F3B
:1037200010D0082C27D89DF80020631E22FA03F33E
:1037300013F0010F06D00123A3405B42DBB2134319
:103740008DF80030002D72D0082C5ED89DF9003025
:103750003370384602B0BDE8F0814FF00108D9E778
:103760004FF00208D6E74FF00408D3E74146684619
:10377000FFF7CCFBD1E7102C0FD8BDF80020631E5B
:1037800022FA03F313F0010FDCD00123A3405B42C4
:103790009BB21343ADF80030D4E7202C0CD8009A2C
:1037A000631E22FA03F313F0010FCBD00123A340D1
:1037B0005B421A430092C5E73F2C65D8DDF800C094
:1037C000019A631EC4F12100A4F121012CFA03F334
:1037D00002FA00F0034322FA01F10B4313F0010F48
:1037E000B0D00123A4F12001C4F1200003FA01F1BB
:1037F00023FA00F00143A3405B4261EB41014CEA34
:1038000003030A43009301929CE7102C03D8BDF9EF
:10381000003033809DE7202C02D8009B336098E76E
:10382000402C34D8DDE90023C6E9002391E7012CC0
:1038300005D0082C07D89DF80030337089E79DF833
:103840000030337085E7102C03D8BDF8003033808A
:103850007FE7202C02D8009B33607AE7402C19D8F0
:10386000DDE90023C6E9002373E76FF0010770E785
:103870006FF001076DE76FF001076AE76FF001076E
:1038800067E76FF0080764E76FF0080761E76FF01C
:1038900008075EE76FF008075BE700BFF0B585B08B
:1038A00005460E46402A03D8144612B9012400E00A
:1038B0004024002202920392012C06D0082C22D828
:1038C0001B788DF80830012703E01B788DF808304D
:1038D0002746FFF719FB68BB14F0070F0AD004ABAB
:1038E00003EBD40111F8083C624202F00702934056
:1038F00001F8083C00962B462246002102A8FFF75B
:1039000035FA05B0F0BD102C04D81B88ADF808308E
:103910000227DEE7202C03D81B6802930427D8E790
:10392000402C05D8D3E90023CDE902230827D0E7AE
:103930000027CEE7394602A8FFF7E8FACCE700BF38
:1039400070B506460C4605E00D6806F10C00FFF761
:103950000DFCE560E1680029F6D10023E360A36077
:103960002361A38270BD00BF10F0800F04D010F45B
:10397000004F03D00120704702207047002070479D
:1039800010B50446FFF7F0FF022802D0C4F3074049
:1039900010BDC4F30F2014F07F0FF9D100F0030025
:1039A000F6E700BF2DE9F04F99B006460D460392A9
:1039B0000493D1F800904846FFF7D6FF0746022847
:1039C00000F08980C9F30628B9F1000F80F2068261
:1039D00019F0C04F40F005822C7B002C00F00482CF
:1039E000022F05D03046FFF71FFD404540F0FF8114
:1039F000C9F30463099309F07F0A4846FFF7C0FF43
:103A00000A9040EA074949EA8A4949EA4869013C7B
:103A10002C4494F8048000220023CDE916235FEAA9
:103A2000D81302935AD07468CDF800A03B460246E2
:103A300016A93046A047002800F0DC8149463046F0
:103A4000FFF7B8FC0446002800F0D781A368E168BE
:103A5000039A0593D01A0790049B069163EB010328
:103A6000089395F80DC0CDF82CC094F81AC0CDF885
:103A700030C094F81790C9F3840908F01F0B594619
:103A80004846FFF7BBF80D9049465846FFF7B6F891
:103A90006368059A069952EA010C35D09F4A079946
:103AA0008A424FF00002089972EB010CC0F081804D
:103AB0000B9A0C998A421BD0994B079A93424FF06C
:103AC0000003089A934176D2029B002B75D00F28F1
:103AD00075DD002319E04FF0000875E749463046D0
:103AE000FFF734F904460028B0D16FF00C0088E1EC
:103AF000029A002AE0D00D9A012A01DD012304E098
:103B0000002BD9D0012300E00123002B59D16A7B7F
:103B1000A37E9A4240F07481029B13B118F0400FCB
:103B20006AD1C8F34013E27DB3EBD21F40F06C8141
:103B3000C2F384039B4540F06A81029B002B00F096
:103B4000948018F0400F40F090802B7B032B40F2C4
:103B50006181039BA360049BE360E38A6FF3090325
:103B6000E382AF1D2B7B033BDBB23A46214606F1D5
:103B70000C00FFF757FA00286DDB2B796A7943EACE
:103B800002232383DDE916234FF6FF70FFF7E2F9E6
:103B9000A0822A7B033AD2B23946FFF7F5F9A08218
:103BA000E37DDA43C2F3C01262F3C713E37500206A
:103BB00027E10123A9E70023A7E70023A5E70123C5
:103BC000A3E7E37D68F38603E375DBB26FF3C71306
:103BD000E37521463046FFF7D1FA6B7BA376029B53
:103BE000002B94D1E37DC3F38402013262F3860398
:103BF000E3756FF00C0004E1039BA360049AE2609C
:103C0000202200210EA8FDF791FB039B0E93049A3E
:103C10000F922B1D10932B7B013BDBB2ADF84C3088
:103C20000A9BADF84E308DF850708DF851B0099B5D
:103C30008DF852308DF853A096F82C3083F00103A4
:103C40008DF85430B3680EA9304698472046FFF7E8
:103C50006DF80020D5E021463046FFF78FFA204668
:103C6000FFF764F86FF00200CBE0029B13B918F085
:103C7000400F1ED095F80C9009F1FF395FFA89F9D1
:103C8000B4F81680C8F30908B8F1040F30D84346D9
:103C90004FF00008042B53D8C84551D205EB080259
:103CA0001179E218D176013308F101085FFA88F83A
:103CB000F0E72F1D2B7B013BDBB23A46214606F194
:103CC0000C00FFF7AFF9002808DB2A7B013AD2B2DB
:103CD0003946A08AFFF758F9A08261E721463046AD
:103CE000FFF74CFA2046FFF721F86FF0020088E05A
:103CF000616806F10C00FEF779FF024608B1052362
:103D000004E04FF000081BE01C330A46116800294C
:103D1000FAD1A8EB03034FF000080DE080841E00E9
:103D200040420F0005EB08010879D11808710133F2
:103D300008F101085FFA88F81B2B01D8C845F1D3B8
:103D4000039B0E93049B0F9304F11B031093616874
:103D500006F10C00FEF74AFF1190C84535D2A84481
:103D600008F104031293E38AC3F309039944ADF8FD
:103D70004C900A9BADF84E308DF850708DF851B0D4
:103D8000099B8DF852308DF853A096F82C3083F0B3
:103D900001038DF85430002363602A7B013A291D0A
:103DA000A08AFFF7F1F8A082238B98420FD00EA9CA
:103DB0003046FFF7C5FD2046FEF7B8FFA28A238BE9
:103DC0009A4209D06FF010001BE00023CAE7B368E5
:103DD0000EA930469847EAE7002012E06FF009008C
:103DE0000FE06FF009000CE06FF0090009E06FF0E0
:103DF0000A0006E06FF00B0003E06FF0020000E045
:103E0000002019B0BDE8F08F6FF00D00F9E76FF0FA
:103E10000E00F6E76FF00F00F3E700BFEFF3098342
:103E2000683305494A6B22F001024A6383F309882B
:103E3000002383F31188704700EF00E0302080F307
:103E4000118862B60C4BD96821F4E0610904090CB1
:103E50000A4A0A43DA60D3F8FC2042F08072C3F8C1
:103E6000FC2007490A6842F001020A602022DA7742
:103E700083F82200704700BF00ED00E00003FA0560
:103E8000001000E0302383F31188104B5B6813F4BB
:103E9000006F03D1002383F31188704710B5F1EE52
:103EA000103AEFF30984683C4FF08073E361084BEC
:103EB000DB6B236684F3098800F096F810B1054B9C
:103EC000A36110BD044BA361FBE700BF00ED00E060
:103ED00000EF00E03F030008420300080901C9B2F7
:103EE000074A131883F8001300F01F01400901234B
:103EF0008B4000F1600142F8213042F820307047D9
:103F000000E100E00023037503691B68996882687B
:103F10009142FAD203605A6842601060586070475C
:103F200008B50846302383F311880B7D032B0ED090
:103F3000042B10D043B14FF0FF338361FFF7E2FF52
:103F4000002383F3118808BD83F31188FBE78B6995
:103F500000221A60EFE74A680B6813604A685A60EB
:103F6000E9E700BF0023037503691B68996882684D
:103F70009142FAD803605A684260106058607047F6
:103F800008B5FFF7BFFF08BD08B5064BD96808752F
:103F9000186802681A60536001220275D860FCF745
:103FA000B9F908BD384A002030B587B004460C4B3B
:103FB000DD68B1F1FF3F0FD02B460A4A684600F09A
:103FC0001BF92046FFF7E0FF009B13B1684600F0A5
:103FD00021F9A86907B030BDFFF7D6FFF9E700BFA8
:103FE000384A0020213F0008044BDA681B689868B3
:103FF0009368984294BF002001207047384A0020FF
:1040000010B5084BD8681C6822681A6053600122FA
:104010002275DC60FFF7A6FF01462046FCF77AF91F
:1040200010BD00BF384A002008B50B4B01221A70A2
:10403000002353B109490A4800F06EFC064B0222E6
:104040001A70002383F3118808BD034A02EB830230
:10405000002151600133ECE7A04C0020AC50000877
:10406000384A002008B572B6044B186500F0EEFA25
:1040700000F0CCFB024B03221A70FEE7384A002006
:10408000A04C002008B500F0FFF808BD8B600223AB
:104090000B7500234B7508610846704708B58168A9
:1040A000A1F1840341F8143C026941F8442C4269AF
:1040B00041F8402C044A41F8242CC3680268203996
:1040C0000248FFF7E3FF08BD2D030008384A00202F
:1040D00008B5FFF7E3FFFFF753FF08BD08B5034B33
:1040E000DB6898610F20FFF74FFF08BD384A0020BA
:1040F00008B5302383F31188FFF7F0FF08BD00BF38
:1041000008B50146302383F311880820FFF74CFFE0
:10411000002383F3118808BDF8B515461C46C2601C
:104120008B60486003680B6059600160092C00D8FF
:104130000A24C068204400F0DBFB0A2700F0D4FB0F
:104140000646431B9C4202D90A2F07D8F8BD7C1CA7
:10415000281900F0DBFB27463546EFE7012000F089
:104160001BFCF3E770B504460D46092900D80A2563
:104170000A26601900F0CAFB00F0B6FB041BA5423A
:1041800002D90A2E04D870BD013635460446F0E740
:10419000012000F001FCF6E7F8B505460E4617468B
:1041A00000F0A2FB2B689D4209D0EC68041B3C196F
:1041B00000D33C469B68A34208D82B680CE03B46E2
:1041C000024631462846FFF7A7FF14E03946FFF7BD
:1041D000C9FFF2E7A41A1B689A689442FAD8B4603F
:1041E00033605A68726016605E609A68121B9A604B
:1041F0004FF0FF33AB60F8BD08B50361C260002328
:1042000043610A4601460248FFF7C6FF08BD00BFEA
:10421000484A002008B51B4B1B69984210D04268E1
:104220000368136042685A600268816893680B44AF
:10423000936000230360134B4FF0FF329A6108BD77
:104240001968104A134643F8101F4B6000210160A3
:1042500012699A4212D0816893680B44936000F00F
:1042600043FB084AD369A0EB030C126991686145CE
:10427000E5D91B1A1944FFF775FFE0E700F040FB92
:10428000DDE700BF384A0020F8B50BE0002383F3D8
:104290001188E368216920469847302383F3118809
:1042A0006369CBB92C4D2C6900F01EFBEB69C21A77
:1042B000A568954242D81D44274BDD61616822689C
:1042C0000A60616851600022226053F8102F9A4200
:1042D000DCD100F015FBD9E700F006FB0746461BD2
:1042E0006269B2420CD32B1A13441B4A52F8101FB6
:1042F00091420AD09E1900D23346174A12690CE047
:10430000022000F049FB0023EFE73A46214613481C
:10431000FFF702FF1FE05B1A126891688B42FAD820
:10432000A3602260516861600C6054609168CB1A90
:104330009360094B4FF0FF329A61B3E7064A52F897
:10434000101F914207D0044AD0611B1AA16819447A
:10435000A160FFF707FFF8BD384A0020484A002057
:1043600038B500F0C1FA054AD2E90845031B18190F
:1043700045F10001C2E9080138BD00BF384A0020FC
:1043800000207047FEE700BF704700BF4FF0FF30CE
:10439000704700BFBFF34F8F024BDB6813F4803FC1
:1043A000FAD17047003C0240014BF322DA607047BB
:1043B000003C024008B50B4B1B7803B108BDFFF76A
:1043C000E9FF094B1B69002B05DB074A136823F43F
:1043D00080631360F2E7044B044A5A6002F18832AA
:1043E0005A60F2E7A84C0020003C024023016745D8
:1043F00008B50C4B1B7803B108BDFFF7CBFF0A4B88
:104400001A6942F000421A611A6842F480521A6036
:104410001A6822F480521A601A6842F480621A60A4
:10442000EAE700BFA84C0020003C024012F0010F58
:1044300065D1F8B504460E4615461318B3F1016F61
:104440005FD8314B1B6813F0010F01D1002059E0F8
:10445000FFF7B0FFFFF7A8FFFFF79CFF032D29D957
:1044600014F0030F26D1294A136923F44073136112
:10447000136943F4007343F0010313613768276045
:10448000BFF34F8FFFF786FF23689F4203D1043DA0
:1044900004360434E2E71D4A136923F00103136173
:1044A00004E01A4A136923F001031361FFF7A0FF28
:1044B000002027E0012D19D9144A136923F4407311
:1044C0001361136943F4807343F00103136133886C
:1044D0002380BFF34F8FFFF75DFF23889BB23288A5
:1044E0009A42DED1023D02360234E3E7074A1369FD
:1044F00023F001031361FFF77BFF012002E000209E
:1045000070470020F8BD00BF00380240003C024068
:10451000014B53F820007047B85000080B281AD8F8
:1045200070B506460D4B1B788BB900244FF0006523
:1045300008E00B4B43F824502046FFF7E9FF054401
:104540000134E4B20B2CF4D9044B01221A70044B51
:1045500053F8260070BD0020704700BFDC4C0020DF
:10456000AC4C00200C2070470B2801D9002070476C
:1045700038B50546FFF7D2FF04462846FFF7C8FFC7
:1045800030B12368B3F1FF3F04D104380434F7E7B6
:10459000012038BD0020FCE70B2801D9002070471E
:1045A00038B50446FFF7F6FEFFF704FFFFF7FCFE01
:1045B000154BA3FB0423DB081A4603EB4303A4EBD0
:1045C0008303DB00DBB2D201D2B2134343F40073A6
:1045D00043F002030D4A1361136943F480331361FE
:1045E000FFF7D8FE2046FFF799FF05462046FFF764
:1045F0008FFF0146284600F005F9FFF7F9FE204637
:10460000FFF7B2FF38BD00BFABAAAAAA003C024028
:1046100008B5FFF70BFF08BD08B5034610B10A4AFD
:10462000127822B113B9084B1B7833B908BDFFF7D4
:10463000C1FE054B01221A70F8E7034B00221A70E5
:10464000FFF7D6FEF2E700BFA84C002010B500240B
:104650000BE0074804EB44039A00134603445968EF
:10466000805800F0D1F80134E4B2012CF1D910BD2A
:10467000E850000808B50846114600F04DFC08BD9A
:1046800008B5084600F05EFC08BD00BF302383F388
:1046900011887047002383F311887047302383F318
:1046A00011887047002383F311887047FFF758BEC5
:1046B000EFF3118303BB00B583B0EFF30583C3F3BE
:1046C000080363B9FFF7E2FFFFF7F0FFCDE9001041
:1046D000FFF7E0FFDDE9001003B05DF804FBFFF732
:1046E000DDFFFFF7E3FFCDE90010FFF7DBFFDDE9BA
:1046F000001003B05DF804FBFFF7D8BF38B5FFF733
:10470000D7FF114C114AC00840EA4170A0FB025E7D
:10471000C908A0FB040C1CEB050CA1FB04404FF0E6
:1047200000035B41A1FB02121CEB040C43EB0000F5
:1047300011EB0E0142F10002411842F1000009099B
:1047400041EA007038BD00BFCFF753E3A59BC420FA
:1047500009E000F1010C064A52F8202041F8042B30
:104760001A465FFA8CF0531EDBB2002AF1D1704773
:104770005028004010B4124B1B6F13F4004F08D1A7
:104780000F4B1C6F44F400741C671C6F44F400440E
:104790001C670C4C236843F48073236009E000F12C
:1047A000010C51F8044B084A42F820401A465FFABF
:1047B0008CF0531EDBB2002AF1D15DF8044B704738
:1047C00000380240007000405028004000B583B01F
:1047D000012201A90020FFF7BBFF019803B05DF89B
:1047E00004FB00BF10B582B00446FFF7EFFFA04204
:1047F00001D102B010BD0194012201A90020FFF7F0
:10480000B9FFF6E7704700BF704700BF704700BFB1
:10481000074B45F255521A6003225A6040F2FF726C
:104820009A604CF6CC421A60024B01221A70704713
:1048300000300040E44C0020034B1B781BB1034BBD
:104840004AF6AA221A607047E44C0020003000406B
:10485000044B1B6823B9044BD3F87428014B1A602E
:10486000704700BFE04C002000300240024B4FF088
:104870008072C3F8742870470030024008B5FFF713
:10488000E7FF024B1868C0F3407008BDE04C002001
:1048900008B5FFF7DDFF024B1868C0F3007008BDD4
:1048A000E04C0020704700BFFEE700BF084B0949FD
:1048B00003E051F8042B43F8042B074A9342F8D342
:1048C00002E0002243F8042B044A9342F9D37047D4
:1048D000684D002090520008684D0020684D00206F
:1048E00008B500F0DBF808BD4FF08043586A704708
:1048F0004FF08043586300221A610222DA60704749
:104900004FF080430022DA60704700BF4FF08043D1
:1049100058637047FEE700BF70B586B004460E4688
:10492000194B5860002585620163FFF787FA246000
:104930006460A560E56204F11003236163614FF0D8
:10494000FF33A361E561FFF7CFFF02462B46C4E9C1
:104950000823256580230D4A04F134012046FFF722
:1049600095FBE06001230375094A00927268019289
:10497000B26802920393074B049305956846FFF7CC
:10498000A7FB06B070BD00BFA04C0020005100087E
:104990000851000815490008024AD36A0343D3624C
:1049A000704700BF384A00204B6843608B688360C3
:1049B000CB68C3600B6943614B6903628B694362D7
:1049C0000B680360704700BF10B5214B1A6940F2B5
:1049D000FF110A431A611A6922F4FF7222F00102E0
:1049E0001A611A691A6B0A431A631A6D0A431A6527
:1049F0001B6D184C21461848FFF7D6FF04F11C0127
:104A00001648FFF7D1FF04F138011548FFF7CCFF36
:104A100004F154011348FFF7C7FF04F17001124875
:104A2000FFF7C2FF04F18C011048FFF7BDFF04F14E
:104A3000A8010F48FFF7B8FF04F1C4010D48FFF7C4
:104A4000B3FF04F1E0010C48FFF7AEFF10BD00BF5B
:104A500000380240105100080000024000040240EB
:104A600000080240000C0240001002400014024006
:104A700000180240001C02400020024008B5FFF769
:104A8000A3FF00F095F808BD08B500F025FAFFF780
:104A9000CBFAFFF7DDFE08BD704700BF0F4B1A6C65
:104AA00042F001021A641A6E42F001021A661B6E8D
:104AB0000B4A936843F0010393604FF08043532205
:104AC0009A624FF0FF32DA6200229A615A63DA602A
:104AD0005A6001225A611A60704700BF00380240D4
:104AE000002004E008B54FF080421369D168C9B2D4
:104AF0000B40D943116113F0020F00D108BD3023E0
:104B000083F31188FFF7BEFA002383F31188F5E7DA
:104B10000B4A136843F4807313600A4B1B6F03F452
:104B20004073B3F5007F05D0064B4FF480321A670F
:104B300000221A67024A536823F4007353607047D7
:104B4000007000400038024008B5184B1A696FEA3F
:104B5000C2526FEAD2521A611A69C2F308021A618C
:104B60001A695A694FF0FF3058615A69002159613A
:104B70005A691A6A62F080521A621A6A02F0805206
:104B80001A621A6A5A6A58625A6A59625A6A1A6CDE
:104B900042F080521A641A6E42F080521A661B6EFE
:104BA000FFF7B6FF00F076F908BD00BF00380240FD
:104BB0003B4B4FF080521A643A4A4FF44041116027
:104BC0001A6842F001021A60354B1B6813F0020F9D
:104BD000FAD0334A936823F003039360304B9B6809
:104BE00013F00C0FFAD12E4B1A6802F0F9021A607A
:104BF00000229A601A6842F480321A60284B1B68BF
:104C000013F4003FFAD0264A536F43F00103536771
:104C1000234B5B6F13F0020FFAD0214B224A5A60EC
:104C20001A6842F080721A601E4B5B6813F4804F62
:104C3000FAD01B4B1B6813F0007FFAD0184B1B4AAD
:104C40009A601B4B1A681B4B9A421FD01A4B40F2BA
:104C500005721A60184B1B6803F00F03052BF9D17E
:104C60000F4A936843F0020393600D4B9B6803F077
:104C70000C03082BF9D10A4B5A6C42F480425A6457
:104C80005A6E42F480425A665B6E70470B4B1A684C
:104C90000B4B9A42DAD1084B40F205121A60D9E761
:104CA00000380240007000400854400700948838E3
:104CB000002004E011640020003C024000ED00E010
:104CC00041C20F4108B5074A536903F0010353611C
:104CD0002BB1054B1B6813B1034A50689847FFF787
:104CE000D1F808BD003C0140E84C002008B5074A57
:104CF000536903F0020353612BB1054B9B6813B159
:104D0000034AD0689847FFF7BDF808BD003C014052
:104D1000E84C002008B5074A536903F004035361C7
:104D20002BB1054B1B6913B1034A50699847FFF734
:104D3000A9F808BD003C0140E84C002008B5074A2E
:104D4000536903F0080353612BB1054B9B6913B101
:104D5000034AD0699847FFF795F808BD003C014029
:104D6000E84C002008B5074A536903F0100353616B
:104D70002BB1054B1B6A13B1034A506A9847FFF7E2
:104D800081F808BD003C0140E84C002010B51A4BEA
:104D90005C6904F478725A6114F0200F05D0174B47
:104DA0009B6A13B1154AD06A984714F0400F05D09A
:104DB000124B1B6B13B1114A506B984714F0800FC4
:104DC00005D00E4B9B6B13B10C4AD06B984714F473
:104DD000807F05D0094B1B6C13B1084A506C984773
:104DE00014F4007F05D0054B9B6C13B1034AD06CC3
:104DF0009847FFF747F810BD003C0140E84C002001
:104E000010B51F4B5C6904F47C425A6114F4806F46
:104E100005D01C4B1B6D13B11A4A506D984714F402
:104E2000006F05D0174B9B6D13B1164AD06D984794
:104E300014F4805F05D0134B1B6E13B1114A506EF2
:104E4000984714F4005F05D00E4B9B6E13B10D4ACA
:104E5000D06E984714F4804F05D00A4B1B6F13B1E6
:104E6000084A506F984714F4004F05D0054B9B6FCC
:104E700013B1044AD06F9847FFF704F810BD00BF84
:104E8000003C0140E84C002008B5FFF72BFEFEF780
:104E9000F9FF08BD08B506210846FFF71FF80621EF
:104EA0000720FFF71BF806210820FFF717F8062157
:104EB0000920FFF713F806210A20FFF70FF8062153
:104EC0001720FFF70BF806212820FFF707F8072126
:104ED0001C20FFF703F808BD08B5FFF735FE00F00A
:104EE00005F8FFF7D9FDFFF7FBFC08BD002307E03D
:104EF000054A002142F8331002EBC302516001332E
:104F00000F2BF5D9704700BFE84C00200B46014637
:104F1000184600F009B80000024B0A46014618681E
:104F2000FFF7A8BB1C23002010B5054C13462CB17D
:104F30000A4601460220AFF3008010BD2046FCE780
:104F400000000000024B01461868FFF799BB00BF44
:104F50001C23002010B501390244904201D10020E9
:104F600005E0037811F8014FA34201D0181B10BDD2
:104F70000130F2E72DE9F041A3B1C91A17780144D5
:104F8000044603F1FF3C8C42204601D9002009E091
:104F90000578BD4204F10104F5D10CEB0405D618E7
:104FA000A54201D1BDE8F08115F8018D16F801ED9B
:104FB000F045F5D0E7E700006F72672E6172647507
:104FC00070696C6F742E41522D46343037536D61C9
:104FD000727442617400000040A2E4F164689106BA
:104FE0000000000041A3E5F265699207000000009F
:104FF0004261642043414E496661636520696E6485
:1050000065782E0080000000008000000000800015
:105010000000000000000000F91C00089D260008A8
:10502000ED250008351D0008411D0008B91E0008C7
:10503000051D0008151D0008091D0008111D0008A8
:105040000D1D0008711E0008191D0008852A0008A2
:10505000D12A0008291D00088D1E0008000000004C
:1050600000000000F91C0008FD290008212A0008A2
:10507000252A0008F92A0008352A0008051D00081D
:10508000292A0008091D00082D2A00080D1D000806
:10509000312A0008FD290008852A0008D12A0008C5
:1050A000FD290008FD29000863300000A850000811
:1050B000904A0020A04C002000400000004000006A
:1050C000004000000040000000000100000002005D
:1050D00000000200000002000000020000000200C8
:1050E00000000200000002000001002000FF01009B
:1050F0000100000000000220000002000200000089
:105100006D61696E0000000069646C65000000005C
:105110000000802A00000000AAAAAAAA0000002419
:10512000FFFF0000000000000090090000000000E8
:1051300000000000AAAAAAAA00000000FFFF0000C9
:10514000000000000000000000000005000000005A
:10515000AAAAAAA600000000FFEF000000000000BD
:10516000000000000000000000000000AAAAAAAA97
:1051700000000000FFFF0000000000000000000031
:105180000000000000000000AAAAAAAA0000000077
:10519000FFFF000000000000000000000000000011
:1051A00000000000AAAAAAAA00000000FFFF000059
:1051B00000000000000000000000000000000000EF
:1051C000AAAAAAAA00000000FFFF00000000000039
:1051D0000000000000000000000000000A000000C5
:1051E00000000000030000000000000000000000BC
:1051F00000000000000000000000000000000000AF
:10520000000000000000000000000000000000009E
:105210006E0400000000000000000F00000000000D
:1052200040420F00FE2A0100D2040000202300208B
:10523000000000000000000000000000000000006E
:10524000000000000000000000000000000000005E
:10525000000000000000000000000000000000004E
:10526000000000000000000000000000000000003E
:10527000000000000000000000000000000000002E
:10528000000000000000000000000000000000001E
:00000001FF
