:020000040800F2
:1000000000060120010200080302000803020008A4
:1000100003020008030200080302000803020008AC
:1000200003020008030200080302000899310008D7
:10003000030200080302000803020008030200088C
:10004000030200080302000803020008030200087C
:100050000302000803020008413400086934000864
:1000600091340008B9340008E134000803020008A4
:10007000030200080302000803020008030200084C
:10008000030200080302000803020008030200083C
:1000900003020008030200080302000809350008F3
:1000A000030200080302000803020008030200081C
:1000B000DD350008030200080302000803020008FF
:1000C00003020008030200080302000803020008FC
:1000D00003020008030200080302000803020008EC
:1000E0006D3500080302000803020008030200083F
:1000F00003020008030200080302000803020008CC
:1001000003020008030200080302000803020008BB
:1001100003020008030200080302000803020008AB
:10012000030200080302000803020008030200089B
:10013000030200080302000803020008030200088B
:100140000302000803020008030200080D2900084A
:10015000030200080302000803020008030200086B
:10016000030200080302000803020008030200085B
:10017000030200080302000803020008030200084B
:10018000030200080302000803020008030200083B
:10019000030200080302000803020008030200082B
:1001A000030200080302000803020008030200081B
:1001B000030200080302000803020008030200080B
:1001C00003020008030200080302000803020008FB
:1001D00003020008030200080302000803020008EB
:1001E00003020008030200080302000803020008DB
:1001F00003020008030200080302000803020008CB
:1002000002E000F000F8FEE772B6374880F3088895
:10021000364880F3098836483649086040F20000C5
:10022000CCF200004EF63471CEF200010860BFF34C
:100230004F8FBFF36F8F40F20000C0F2F0004EF618
:100240008851CEF200010860BFF34F8FBFF36F8F6C
:100250004FF00000E1EE100A4EF63C71CEF20001C4
:100260000860062080F31488BFF36F8F01F0A8FFA9
:1002700002F024FF4FF055301F491B4A91423CBF0A
:1002800041F8040BFAE71D49184A91423CBF41F876
:10029000040BFAE71A491B4A1B4B9A423EBF51F81E
:1002A000040B42F8040BF8E700201849184A914261
:1002B0003CBF41F8040BFAE701F0C0FF02F05EFF1B
:1002C000144C154DAC4203DA54F8041B8847F9E787
:1002D00000F042F8114C124DAC4203DA54F8041B02
:1002E0008847F9E701F0A8BF00060120002201209D
:1002F0000000000808ED00E00000012000060120D9
:1003000098390008002201205C220120602201208F
:10031000882E0120000200080002000800020008E8
:10032000000200082DE9F04F2DED108AC1F80CD025
:10033000D0F80CD0BDEC108ABDE8F08F002383F319
:1003400011882846A047002001F0E4FAFEE701F0FA
:100350006DFA00DFFEE7000038B500F011FC01F097
:10036000EFFE054601F022FF0446C8B90E4B9D4240
:1003700018D001339D4218BF044641F2883504BFAE
:1003800001240025002001F0E5FE0CB100F076F814
:1003900000F05EFD284600F0FDF800F06FF8F9E788
:1003A0000025EFE70546EDE7010007B008B500F0CE
:1003B000B9FBA0F120035842584108BD07B541F2EE
:1003C0001203022101A8ADF8043000F0C9FB03B00C
:1003D0005DF804FB38B572B6302383F3118862B63A
:1003E000174803680BB101F063FB164A1448002359
:1003F0004FF47A7101F052FB002383F31188124C01
:10040000236813B12368013B2360636813B16368F9
:10041000013B63600D4D2B7833B963687BB90220D3
:1004200000F080FC322363602B78032B07D16368D4
:100430002BB9022000F076FC4FF47A73636038BD6C
:1004400060220120D50300088023012078220120AA
:10045000084B187003280CD8DFE800F008050208E4
:10046000022000F055BC022000F048BC024B0022E4
:100470005A6070477822012080230120F8B5404B54
:10048000404A1C461968013179D004339342F9D1AE
:100490006268A24273D33C4B9B6803F1006303F58F
:1004A000C0339A426BD2002000F084FB0220FFF799
:1004B000CFFF364B00211A6C19641A6E19661A6E3A
:1004C0005A6C59645A6E59665A6E5A6942F08002E3
:1004D0005A615A6922F080025A615A691A6942F0D7
:1004E00000521A611A6922F000521A611B6972B631
:1004F0004FF0E023C3F8084DD4E90004BFF34F8F59
:10050000BFF36F8F224AC2F88410BFF34F8F536935
:1005100023F480335361BFF34F8FD2F88030C3F39D
:10052000C905C3F34E335B0143F6E07603EA060CDC
:1005300029464CEA81770139C2F87472F9D2203B1E
:1005400013F1200FF2D1BFF34F8FBFF36F8FBFF3C3
:100550004F8FBFF36F8F536923F400335361002330
:10056000C2F85032BFF34F8FBFF36F8F72B6302394
:1005700083F3118862B6854680F308882047F8BD6A
:10058000008001082080010800220120003802407C
:1005900000ED00E02DE9F04F93B0B64B0090202223
:1005A000FF210AA89D6800F0FDFBB34A1378B3B998
:1005B000B24801211170036072B6302383F31188B1
:1005C00062B603680BB101F073FAAD4AAB48002381
:1005D0004FF47A7101F062FA002383F31188009BD3
:1005E00013B1A84B009A1A60A74A009C1378032BFA
:1005F0001EBF00231370A34A4FF0000A18BF5360B8
:10060000D3465646D146012000F082FB24B19D4BD3
:100610001B68002B00F02782002000F083FA039073
:10062000039B002BF2DB012000F068FB039B213BC6
:100630001F2BE8D801A252F823F000BFBD06000826
:10064000E506000879070008070600080706000805
:10065000070600080B080008DB090008F508000879
:10066000570900087F090008A509000807060008C7
:10067000B709000807060008290A00085D070008F6
:10068000070600086D0A0008C90600085D07000893
:1006900007060008570900080706000807060008B3
:1006A00007060008070600080706000807060008F6
:1006B0000706000807060008790700080220FFF770
:1006C00075FE002840F0F981009B0221BAF1000F6D
:1006D00008BF1C4605A841F21233ADF8143000F0F3
:1006E0003FFA90E74FF47A7000F01CFA071EEBDB3C
:1006F0000220FFF75BFE0028E6D0013F052F00F245
:10070000DE81DFE807F0030A0D1013360523059399
:10071000042105A800F024FA17E056480421F9E75F
:100720005A480421F6E75A480421F3E74FF01C0821
:10073000404600F041FA08F104080590042105A89C
:1007400000F00EFAB8F12C0FF2D1012000FA07F7F1
:1007500047EA0B0B5FFA8BFB4FF0000900F06EFBD2
:1007600026B10BF00B030B2B08BF0024FFF726FE6E
:1007700049E748480421CDE7002EA5D00BF00B0334
:100780000B2BA1D10220FFF711FE074600289BD0BA
:10079000012000F00FFA0220FFF75AFE00261FFA90
:1007A00086F8404600F016FA0446B0B10399A1F16C
:1007B000400251425141404600F01CFA01360028E7
:1007C000EDD1BA46044641F21213022105A8ADF854
:1007D00014303E4600F0C4F915E70120FFF738FE5B
:1007E0002546244B9B68AB4207D9284600F0E4F924
:1007F000013040F067810435F3E7234B00251D707D
:10080000204BBA465D603E46A8E7002E3FF45CAF41
:100810000BF00B030B2B7FF457AF0220FFF718FEF2
:10082000322000F07FF9B0F10008FFF64DAF18F06C
:1008300003077FF449AF0F4A926808EB0503934220
:100840003FF642AFB8F5807F3FF73EAF124B0193C2
:10085000B84523DD4FF47A7000F064F90390039AF1
:10086000002AFFF631AF019B039A03F8012B0137F1
:10087000EDE700BF002201207C230120602201203F
:10088000D5030008802301207822012004220120C2
:10089000082201200C2201207C220120C820FFF721
:1008A00085FD074600283FF40FAF1F2D11D8C5F175
:1008B000200242450AAB25F0030028BF4246834987
:1008C0000192184400F048FA019A8048FF2100F094
:1008D00069FA4FEAA8037D490193C8F387022846C5
:1008E00000F068FA064600283FF46DAF019B05EB67
:1008F000830533E70220FFF759FD00283FF4E4AEFB
:1009000000F0A4F900283FF4DFAE0027B846704B92
:100910009B68BB4218D91F2F11D80A9B01330ED0F8
:1009200027F0030312AA134453F8203C05934046D2
:10093000042205A900F0B6FA04378046E7E73846F6
:1009400000F03AF90590F2E7CDF81480042105A8EB
:1009500000F006F902E70023642104A8049300F0E4
:10096000F5F800287FF4B0AE0220FFF71FFD002845
:100970003FF4AAAE049800F051F90590E6E7002391
:10098000642104A8049300F0E1F800287FF49CAEF1
:100990000220FFF70BFD00283FF496AE049800F00C
:1009A0004DF9EAE70220FFF701FD00283FF48CAE85
:1009B00000F05CF9E1E70220FFF7F8FC00283FF4C3
:1009C00083AE05A9142000F057F9042107460490CE
:1009D00004A800F0C5F83946B9E7322000F0A2F8C3
:1009E000071EFFF671AEBB077FF46EAE384A926801
:1009F00007EB090393423FF667AE0220FFF7D6FCF0
:100A000000283FF461AE27F003074F44B9453FF497
:100A1000A5AE484600F0D0F80421059005A800F0E6
:100A20009FF809F10409F1E74FF47A70FFF7BEFC73
:100A300000283FF449AE00F009F9002844D00A9B91
:100A400001330BD008220AA9002000F0B3F90028D6
:100A50003AD02022FF210AA800F0A4F9FFF7AEFC4B
:100A60001C4800F05FFF13B0BDE8F08F002E3FF48C
:100A70002BAE0BF00B030B2B7FF426AE002364216F
:100A800005A8059300F062F8074600287FF41CAE25
:100A90000220FFF78BFC804600283FF415AEFFF7DD
:100AA0008DFC41F2883000F03DFF059800F0F8F928
:100AB000464600F0C3F93C46A5E506464EE64FF033
:100AC000000901E6BA467EE637467CE67C22012034
:100AD00000220120A086010070B50F4B1B78013366
:100AE000DBB2012B0C4611D80C4D29684FF47A73F8
:100AF0000E6AA2FB0332014622462846B0478442D2
:100B000004D1074B00221A70012070BD4FF4FA7017
:100B100000F008FF0020F8E710220120282601201D
:100B2000B423012007B50023024601210DF107007F
:100B30008DF80730FFF7D0FF20B19DF8070003B014
:100B40005DF804FB4FF0FF30F9E700000A4608B5F6
:100B50000421FFF7C1FF80F00100C0B2404208BD90
:100B600030B4054C2368DD69044B0A46AC460146A7
:100B7000204630BC604700BF28260120A086010027
:100B800070B501F0E3F9094E094D30800024286862
:100B90003388834208D901F0D3F92B680444013328
:100BA000B4F5C03F2B60F2D370BD00BFB623012067
:100BB0008823012001F078BA00F1006000F5C03010
:100BC0000068704700F10060920000F5C03001F04D
:100BD00003BA0000054B1A68054B1B889B1A834219
:100BE00002D9104401F0ACB90020704788230120DD
:100BF000B623012038B5084D044629B128682044A1
:100C0000BDE8384001F0BCB92868204401F0A0F9E3
:100C10000028F3D038BD00BF8823012010F0030363
:100C200009D1B0F5846F04D200F10050A0F5712015
:100C30000368184670470023FBE7000000F10050EE
:100C4000A0F57120D0F8200470470000064991F803
:100C5000243033B10023086A81F824300822FFF7DA
:100C6000B1BF0120704700BF8C230120014B1868E1
:100C7000704700BF002004E0F0B51E4B1D6801382E
:100C80002E0C0A181C48C5F30B04032335460788AD
:100C9000A7420BD144680B46013C934218461BD235
:100CA00014F9010F48B103F8010BF6E7013B00F11D
:100CB0000800ECD191420ED20B4618462C24B6F512
:100CC000805F00F8014B0AD1824202D94122981C70
:100CD0005A70401AF0BD0846B6F5805FF9D041F26F
:100CE00001039D42F5D18242F3D95A2300F8013B1A
:100CF000EFE700BF002004E014220120022802BF19
:100D0000024B4FF000729A61704700BF000802402A
:100D1000022802BF024B4FF400729A61704700BF75
:100D200000080240022801BF024A536983F400739D
:100D3000536170470008024070B504464FF47A765C
:100D40004CB1412C254628BF412506FB05F000F09B
:100D5000E9FD641BF4E770BD10B50023934203D096
:100D6000CC5CC4540133F9E710BD000010B5013864
:100D700010F9013F3BB191F900409C4203D11AB1F7
:100D80000131013AF4E71AB191F90020981A10BD27
:100D90001046FCE703460246D01A12F9011B00294F
:100DA000FAD1704702440346934202D003F8011B74
:100DB000FAE770472DE9F8431F4D144695F82420B3
:100DC0000746884652BBDFF870909CB395F82430F4
:100DD0002BB92022FF2148462F62FFF7E3FF95F849
:100DE0002400C0F10802A24228BF2246D6B24146E2
:100DF000920005EB8000FFF7AFFF95F82430A41BAD
:100E00001E44F6B2082E17449044E4B285F82460DC
:100E1000DBD1FFF71BFF0028D7D108E02B6A03EBDB
:100E200082038342CFD0FFF711FF0028CBD10020EF
:100E3000BDE8F8830120FBE78C230120024B1A78E0
:100E4000024B1A70704700BFB4230120102201200A
:100E500010B5104C104800F0BBF821460E4800F0C9
:100E6000E3F82468E26ED2F8043843F00203C2F8D3
:100E700004384FF47A70FFF75FFF0849204600F00E
:100E8000E1F9E26ED2F8043823F00203C2F8043824
:100E900010BD00BF58370008282601206037000821
:100EA0007047000030B5094D0A4491420DD011F849
:100EB000013B5840082340F30004013B2C4013F051
:100EC000FF0384EA5000F6D1EFE730BD2083B8ED90
:100ED00072B6302383F3118862B6704702684368A4
:100EE0001143016003B118477047000013B5446B0C
:100EF000D4F894341A681178042915D1217C022978
:100F000012D11979128901238B4013420CD101A906
:100F100004F14C0001F090FFD4F89444019B217936
:100F20000246206800F0DAF902B010BD143001F07A
:100F300015BF00004FF0FF33143001F00FBF000069
:100F40004C3001F0E5BF00004FF0FF334C3001F0B2
:100F5000DFBF0000143001F0E5BE00004FF0FF31AC
:100F6000143001F0DFBE00004C3001F0B1BF0000D2
:100F70004FF0FF324C3001F0ABBF00000020704753
:100F800010B5D0F894341A6811780429044617D1A2
:100F9000017C022914D15979528901238B401342D3
:100FA0000ED1143001F078FE024648B1D4F89444D2
:100FB0004FF4807361792068BDE8104000F07CB97F
:100FC00010BD0000406BFFF7DBBF00007047000062
:100FD0007FB5124B036000234360C0E90233012553
:100FE00002260F4B057404460290019300F184021F
:100FF000294600964FF48073143001F029FE094B06
:101000000294CDE9006304F523724FF480732946FE
:1010100004F14C0001F0ECFE04B070BDAC360008E9
:10102000C50F0008ED0E000808B50A68FFF750FF6D
:101030000B7902EB830318624B790D3342F82300DE
:101040008B7913B102EB830210620223C0F894146F
:101050000374002080F3118808BD000038B5037FB9
:10106000044613B190F85430ABB9201D012502217C
:10107000FFF734FF04F1140025776FF0010100F051
:1010800079FC84F8545004F14C006FF00101BDE884
:10109000384000F06FBC38BD10B501210446043063
:1010A000FFF71CFF0023237784F8543010BD0000A5
:1010B00038B504460025143001F0E2FD04F14C007F
:1010C000257701F0ADFE201D84F854500121FFF773
:1010D00005FF2046BDE83840FFF752BF90F85C306E
:1010E00003F06003202B07D190F85D20212A4FF0F8
:1010F000000303D81F2A06D800207047222AFBD1FC
:10110000C0E9143303E0034A0265072242658365A0
:10111000012070472C22012037B5D0F894341A688A
:101120001178042904461AD1017C022917D11979B2
:10113000128901238B40134211D100F14C0528463E
:1011400001F02CFF58B101A9284601F075FED4F832
:101150009444019B21790246206800F0BFF803B057
:1011600030BD0000F0B500EB810385B01E6A044677
:101170000D46F6B104EB8507301D0821FFF7A8FEE8
:10118000FFF7ACFEFB685B691B6806F14C001BB106
:10119000019001F05FFE019803A901F04DFE0246A7
:1011A00048B1039B2946204600F098F8002383F3BA
:1011B000118805B0F0BDFB685A691268002AF5D0A5
:1011C0001B8A013B1340F1D104F15C02EAE7000005
:1011D0000D3138B550F82140D4B1FFF779FED4F87D
:1011E00094241368527903EB8203DB689B695D6882
:1011F00045B104216018FFF771FE294604F114007F
:1012000001F054FD2046FFF7BBFE002383F3118855
:1012100038BD00007047000072B6302383F3118898
:1012200062B6704701F08EB810B50123044628223B
:1012300000F8243B0021FFF7B5FD0023C4E901338A
:1012400010BD000038B50025FFF7E6FF0446C0E9F1
:101250000355C0E90555C0E90755416001F082F822
:101260000223237085F31188284638BD70B500EB42
:10127000810305465069DA600E46144618B1102203
:101280000021FFF78FFDA06918B110220021FFF7A0
:1012900089FD31462846BDE8704001F02DB90000B7
:1012A000826802F0011282600022C0E90422C0E9D3
:1012B0000622026201F0ACB9F0B400EB8104478968
:1012C000E4680125A4698D403D43458123600023E6
:1012D000A2606360F0BC01F0C7B90000F0B400EB9D
:1012E00081040789E468012564698D403D430581D7
:1012F00023600023A2606360F0BC01F043BA0000E9
:1013000070B50223002504460370C0E90255C0E908
:101310000455C0E906554566056280F84C5001F059
:1013200087F863681B6823B129462046BDE87040F2
:10133000184770BD0378052B10B504460AD080F815
:1013400068300523037043681B680BB1042198477C
:101350000023A36010BD00000178052906D190F894
:101360006820436802701B6803B11847704700008B
:1013700070B590F84C30044613B1002380F84C301F
:1013800004F15C02204601F065F963689B68B3B91B
:1013900094F85C3013F0600533D00021204601F052
:1013A0001DFC0021204601F00FFC63681B6813B18F
:1013B000062120469847062384F84C3070BD20460D
:1013C00098470028E4D0B4F86230626D9A4288BF32
:1013D000636594F95C30656D002B80F20281002D0D
:1013E00000F0F180092384F84C30FFF715FF00214D
:1013F000D4E914232046FFF771FF002383F31188FB
:10140000DCE794F85D2003F07F0343EA022340F217
:101410000232934200F0C48021D8B3F5807F48D0D7
:101420000DD8012B3FD0022B00F09280002BB4D1BD
:1014300004F16402226502226265A365C3E7B3F585
:10144000817F00F09A80B3F5407FA6D194F85E309A
:10145000012BA2D1B4F8643043F0020332E0B3F5BB
:10146000006F4DD017D8B3F5A06F31D0A3F5C0638E
:10147000012B92D8636894F85E205E6894F85F1040
:10148000B4F860302046B047002886D04368236512
:10149000036863651AE0B3F5106F36D040F6024278
:1014A00093427FF47AAF5B4B23650223636500238D
:1014B000C3E794F85E30012B7FF46FAFB4F864306B
:1014C00023F00203C4E91455A4F86430A5657AE753
:1014D000B4F85C30B3F5A06F0ED194F85E3084F8A8
:1014E0006630204600F0FCFF63681B6813B10121E1
:1014F00020469847032323700023C4E914339CE754
:1015000004F1670323650123C3E72378042B0FD17C
:101510002046FFF781FEFFF7C3FE85F31188032104
:10152000636884F8675021701B680BB120469847A8
:1015300094F85E30002BDFD084F8673004232370EA
:1015400063681B68002BD7D0022120469847D3E759
:1015500094F860301D0603F00F0120460AD501F013
:101560006BF8012804D002287FF417AF2A4B9BE7C1
:101570002A4B99E701F052F8F3E794F85E30002B1C
:101580007FF40BAF94F8603013F00F01B4D01A065B
:10159000204602D501F036FBAEE701F029FBABE7B0
:1015A00094F85E30002B7FF4F8AE94F8603013F0BE
:1015B0000F01A1D01B06204602D501F00FFB9BE7CF
:1015C00001F002FB98E7142384F84C30FFF724FE67
:1015D0002A462B4629462046FFF76EFE85F31188E2
:1015E000ECE65DB1152384F84C30FFF715FE0021C1
:1015F000D4E914232046FFF75FFEFEE60B2384F8B0
:101600004C30FFF709FE2A462B4629462046FFF7B5
:1016100065FEE3E7DC360008D4360008D83600085B
:1016200038B590F84C300446002B3CD0063BDAB27B
:101630000F2A32D80F2B30D8DFE803F0352F2F08D0
:1016400021302F2F2F2F2F2F2F2F3535456DB0F80D
:1016500062309D4213D2C3681B8AB5FBF3F203FBD1
:10166000125565B9FFF7D8FD2A462B462946FFF7E4
:1016700035FE85F311880A2384F84C300DE01423DD
:1016800084F84C30FFF7C8FD00231A46194620465F
:10169000FFF712FE002383F3118838BD836D03B179
:1016A00098470023E8E70021204601F097FA00213F
:1016B000204601F089FA63681B6813B106212046B1
:1016C00098470623D8E7000010B590F84C30142B4B
:1016D000044628D017D8062B05D001D81BB110BD61
:1016E000093B022BFBD80021204601F077FA0021AC
:1016F000204601F069FA63681B6813B10621204691
:101700009847062318E0152BE9D10B2380F84C30BD
:10171000FFF782FD00231A461946FFF7DFFD00237D
:1017200083F31188DBE7C3689B695B68002BD6D124
:10173000836D03B19847002384F84C30CFE7000055
:1017400000230375826803691B6899689142FBD284
:101750005A68036042601060586070470023037548
:10176000826803691B6899689142FBD85A680360D4
:10177000426010605860704708B5084672B6302362
:1017800083F3118862B60B7D032B05D0042B0DD09B
:101790002BB983F3118808BD8B6900221A604FF0C2
:1017A000FF338361FFF7CCFF0023F2E7D1E900327A
:1017B00013605A60F3E70000FFF7C2BF054BD9681A
:1017C0000875186802681A60536001220275D860B3
:1017D000FEF7A8BDB823012030B50C4BDD684B1CCB
:1017E00087B004460FD02B46094A684600F056F9E8
:1017F0002046FFF7E3FF009B13B1684600F058F95D
:10180000A86907B030BDFFF7D9FFF9E7B823012079
:1018100079170008044B1A68DB6890689B68984247
:1018200094BF002001207047B8230120084B10B559
:101830001C68D86822681A60536001222275DC6037
:10184000FFF78CFF01462046BDE81040FEF76ABD59
:10185000B823012038B5074C074908480123002563
:101860002370656001F0D2FB0223237085F3118899
:1018700038BD00BF20260120E4360008B82301202F
:1018800000F04CB9034A516853685B1A9842FBD880
:10189000704700BF001000E072B6302383F3118858
:1018A00062B670478B60022308618B8208467047DE
:1018B0008368A3F1840243F8142C026943F8442C92
:1018C000426943F8402C094A43F8242CC26843F883
:1018D000182C022203F80C2C002203F80B2C044ACB
:1018E00043F8102CA3F12000704700BF3D0300080F
:1018F000B823012008B5FFF7DBFFBDE80840FFF77C
:101900005BBF0000024BDB6898610F20FFF756BFFA
:10191000B823012008B5FFF7BFFFBDE80840FFF777
:10192000F1BF000008B501460820FFF7B5FFFFF73B
:1019300053FF002383F3118808BD0000064BDB68CA
:1019400039B1426818605A60136043600420FFF7A1
:1019500043BF4FF0FF307047B8230120036898421F
:1019600006D01A680260506099611846FFF724BFDC
:101970007047000038B504460D462068844200D107
:1019800038BD036823605C608561FFF715FFF4E7ED
:1019900010B503689C68A2420CD85C688A600B6032
:1019A0004C602160596099688A1A9A604FF0FF3341
:1019B000836010BD1B68121BECE700000A2938BFCA
:1019C0000A2170B504460D460A26601901F018FB7D
:1019D00001F004FB041BA54203D8751C2E460446E7
:1019E000F3E70A2E04D9BDE87040012001F04EBB98
:1019F00070BD0000F8B5144B0D46D96103F110011C
:101A000041600A2A1969826038BF0A220160486071
:101A10001861A818144601F0E5FA0A2701F0DEFA69
:101A2000431BA342064606D37C1C281901F0E8FAA2
:101A300027463546F2E70A2F04D9BDE8F8400120D1
:101A400001F024BBF8BD00BFB8230120F8B506465D
:101A50000D4601F0C3FA0F4A134653F8107F9F4218
:101A600006D12A4601463046BDE8F840FFF7C2BF1E
:101A7000D169BB68441A2C1928BF2C46A34202D94D
:101A80002946FFF79BFF224631460348BDE8F84050
:101A9000FFF77EBFB8230120C823012010B4C0E99E
:101AA000032300235DF8044B4361FFF7CFBF000021
:101AB00010B5194C236998420DD0D0E900328168E5
:101AC00013605A609A680A449A60002303604FF0DA
:101AD000FF33A36110BD2346026843F8102F536003
:101AE0000022026022699A4203D1BDE8104001F051
:101AF00081BA936881680B44936001F06FFA2269A0
:101B0000E1699268441AA242E4D91144BDE8104048
:101B1000091AFFF753BF00BFB82301202DE9F04792
:101B2000DFF8C08008F110072D4ED8F8105001F0F2
:101B300055FAD8F81C40AA68031B9A4240D81444AE
:101B4000D5E900324FF00009C8F81C4013605A6014
:101B5000C5F80090D8F81030B34201D101F04AFA2C
:101B600089F31188D5E903312846984772B63023A6
:101B700083F3118862B66B69002BD6D001F02EFA80
:101B80006A69A0EB04094A4582460DD2022001F0A1
:101B90007DFA0022D8F81030B34208D151462846C9
:101BA000BDE8F047FFF726BF121A2244F2E712EB16
:101BB000090938BF4A4629463846FFF7E9FEB3E728
:101BC000D8F81030B34208D01444211AC8F81C00C9
:101BD000A960BDE8F047FFF7F1BEBDE8F08700BFA0
:101BE000C8230120B823012000207047FEE7000031
:101BF000704700004FF0FF307047000072B630238E
:101C000083F3118862B6704702290CD0032904D0EF
:101C10000129074818BF00207047032A05D8054846
:101C200000EBC2007047044870470020704700BFB7
:101C3000BC3700083C2201207037000870B59AB00C
:101C40000546084601A9144600F0BEF801A8FFF7B2
:101C5000A1F8431C5B00C5E9003400222370032374
:101C60006370C6B201AB02341046D1B28E4204F1A9
:101C7000020401D81AB070BD13F8011B04F8021C4D
:101C800004F8010C0132F0E708B50448FFF7B6FF8D
:101C9000FFF742FA002383F3118808BD28260120AC
:101CA00090F85C3003F01F02012A07D190F85D2004
:101CB0000B2A03D10023C0E9143315E003F06003BD
:101CC000202B08D1B0F860302BB990F85D20212A84
:101CD00003D81F2A04D8FFF701BA222AEBD0FAE76B
:101CE000034A02650722426583650120704700BFF1
:101CF0003322012007B5052916D8DFE801F01815B1
:101D00000318181E104A0121FFF778FF0190FFF712
:101D1000ADFA01980D4A0221FFF7A8FA0C48FFF727
:101D2000C7F9002383F3118803B05DF804FB08486A
:101D3000FFF764FFFFF792F9F3E70548FFF75EFF4F
:101D4000FFF7AAF9EDE700BF1037000834370008A5
:101D50002826012038B50C4D0C4C0D492A4604F1BB
:101D60000800FFF76BFF05F1CA0204F110000949F2
:101D7000FFF764FF05F5CA7204F118000649BDE8D3
:101D80003840FFF75BBF00BFF02A01203C22012052
:101D9000F0360008FA3600080537000870B504462A
:101DA00008460D46FEF7F6FFC6B22046013403781A
:101DB0000BB9184670BD32462946FEF7D7FF0028FA
:101DC000F3D10120F6E700002DE9F04705460C4667
:101DD000FEF7E0FF2B49C6B22846FFF7DFFF08B148
:101DE0000636F6B228492846FFF7D8FF08B1103664
:101DF000F6B2632E0BD8DFF88C80DFF88C90234F7F
:101E0000DFF894A02E7846B92670BDE8F087294601
:101E10002046BDE8F04701F02BBC252E2ED107222D
:101E200041462846FEF7A2FF70B9194B224603F13E
:101E30000C0153F8040B42F8040B8B42F9D11B78C8
:101E4000137007350D34DDE7082249462846FEF7B2
:101E50008DFF98B90F4BA21C197809090232C95D90
:101E600002F8041C13F8011B01F00F015345C95D72
:101E700002F8031CF0D118340835C3E704F8016BED
:101E80000135BFE7DC37000805370008F2370008E6
:101E9000E437000820F4F01F2CF4F01FBFF34F8F3D
:101EA000024AD368DB03FCD4704700BF003C024009
:101EB00008B5074B1B7853B9FFF7F0FF054B1A69BC
:101EC000002ABFBF044A5A6002F188325A6008BD36
:101ED0004E2D0120003C02402301674508B5054B0B
:101EE0001B7833B9FFF7DAFF034A136943F0004365
:101EF000136108BD4E2D0120003C02400728F0B5BB
:101F000016D80C4C0C4923787BB90C4D0E4608238F
:101F10004FF0006255F8047B46F8042B013B13F0A8
:101F2000FF033A44F6D10123237051F82000F0BD9D
:101F30000020FCE7702D0120502D012004380008FE
:101F4000014B53F820007047043800080820704700
:101F5000072810B5044601D9002010BDFFF7CEFFB9
:101F6000064B53F824301844C21A0BB90120F4E789
:101F700012680132F0D1043BF6E700BF04380008D4
:101F8000072810B5044621D8FFF788FFFFF790FF18
:101F90000F4AF323D360C300DBB243F4007343F072
:101FA00002031361136943F480331361FFF776FF73
:101FB000FFF7A4FF074B53F8241000F0D9F8FFF700
:101FC0008DFF2046BDE81040FFF7C2BF002010BDC6
:101FD000003C024004380008F8B512F00103144632
:101FE00042D18218B2F1016F57D82D4B1B6813F004
:101FF000010352D02B4DFFF75BFFF323EB60FFF79C
:102000004DFF40F20127032C15D824F00104661877
:10201000244C401A40F20117B142236900EB01053C
:1020200024D123F001032361FFF758FF0120F8BDFD
:10203000043C0430E7E78307E7D12B6923F44073BE
:102040002B612B693B432B6151F8046B0660BFF396
:102050004F8FFFF723FF03689E42E9D02B6923F0DF
:1020600001032B61FFF73AFF0020E0E723F4407300
:10207000236123693B4323610B882B80BFF34F8F80
:10208000FFF70CFF2D8831F8023BADB2AB42C3D055
:10209000236923F001032361E4E71846C7E700BF83
:1020A00000380240003C0240084908B50B7828B1CE
:1020B0001BB9FFF7FDFE01230B7008BD002BFCD000
:1020C000BDE808400870FFF709BF00BF4E2D012092
:1020D00010B50244064BD2B2904200D110BD441C50
:1020E00000B253F8200041F8040BE0B2F4E700BF5F
:1020F000502800400F4B30B51C6F240407D41C6FD0
:1021000044F400741C671C6F44F400441C670A4CC0
:10211000236843F4807323600244084BD2B2904298
:1021200000D130BD441C00B251F8045B43F820508C
:10213000E0B2F4E700380240007000405028004050
:1021400007B5012201A90020FFF7C2FF019803B0E3
:102150005DF804FB13B50446FFF7F2FFA04205D07B
:10216000012201A900200194FFF7C4FF02B010BDB5
:102170000144BFF34F8F064B884204D3BFF34F8F08
:10218000BFF36F8F7047C3F85C022030F4E700BFE5
:1021900000ED00E0034B1A681AB9034AD2F874281C
:1021A0001A607047742D01200030024008B5FFF717
:1021B000F1FF024B1868C0F3407008BD742D012078
:1021C00070B5BFF34F8FBFF36F8F1A4A0021C2F86B
:1021D0005012BFF34F8FBFF36F8F536943F4003337
:1021E0005361BFF34F8FBFF36F8FC2F88410BFF3FB
:1021F0004F8FD2F88030C3F3C900C3F34E335B0175
:1022000043F6E07403EA0406014646EA81750139A3
:10221000C2F86052F9D2203B13F1200FF2D1BFF384
:102220004F8F536943F480335361BFF34F8FBFF334
:102230006F8F70BD00ED00E0FEE7000070B5214B30
:102240002148224A904237D3214BDA1C121AC11E70
:1022500022F003028B4238BF00220021FEF7A2FDCC
:102260001C4A0023C2F88430BFF34F8FD2F880306D
:10227000C3F3C900C3F34E335B0143F6E07403EAD2
:102280000406014646EA81750139C2F86C52F9D25A
:10229000203B13F1200FF2D1BFF34F8FBFF36F8FAD
:1022A000BFF34F8FBFF36F8F0023C2F85032BFF3DD
:1022B0004F8FBFF36F8F70BD53F8041B40F8041BA2
:1022C000C0E700BFF4390008882E0120882E0120C5
:1022D000882E012000ED00E070B5D0E91B439E6818
:1022E00000224FF0FF3504EB42135101D3F80009EF
:1022F0000028BEBFD3F8000940F08040C3F80009B1
:10230000D3F8000B0028BEBFD3F8000B40F080408C
:10231000C3F8000B013263189642C3F80859C3F89A
:10232000085BE0D24FF00113C4F81C3870BD000008
:10233000890141F02001016103699B06FCD4122050
:10234000FFF7A0BA10B5054C2046FEF76DFF4FF021
:10235000A043E366024B236710BD00BF782D012028
:102360004838000870B50378012B054650D12A4B38
:10237000C46E98421BD1294B5A6B42F080025A63BB
:102380005A6D42F080025A655A6D5A6942F08002D5
:102390005A615A6922F080025A610E2143205B691A
:1023A00000F03AFC1E4BE3601E4BC4F800380023DB
:1023B000C4F8003EC0232360EE6E4FF40413A36301
:1023C0003369002BFCDA012333610C20FFF75AFA42
:1023D0003369DB07FCD41220FFF754FA3369002B72
:1023E000FCDA0026A6602846FFF776FF6B68C4F883
:1023F0001068DB68C4F81468C4F81C684BB90A4B51
:10240000A3614FF0FF336361A36843F00103A3604E
:1024100070BD064BF4E700BF782D01200038024064
:102420004014004003002002003C30C0083C30C093
:10243000F8B5C46E054600212046FFF779FF296FE5
:1024400000234FF001128F68C4F834384FF0006653
:10245000C4F81C284FF0FF3004EB431201339F42B5
:10246000C2F80069C2F8006BC2F80809C2F8080B8C
:10247000F2D20B68EA6E6B67636210231361166910
:1024800016F01006FBD11220FFF7FCF9D4F8003843
:1024900023F4FE63C4F80038A36943F4402343F0F7
:1024A0001003A3610923C4F81038C4F814380A4B88
:1024B000EB604FF0C043C4F8103B084BC4F8003B3E
:1024C000C4F81069C4F800396B6F03F1100243F4CB
:1024D00080136A67A362F8BD2438000840800010AA
:1024E000C26E90F86610D2F8003823F4FE6343EA17
:1024F0000113C2F8003870472DE9F84300EB81035F
:10250000C56EDA68166806F00306731E022B05EB2B
:1025100041130C4680460FFA81F94FEA41104FF003
:102520000001C3F8101B4FF0010104F1100398BF24
:10253000B60401FA03F391698EBF334E06F180565B
:1025400006F5004600293AD0578A04F1580149019E
:1025500037436F50D5F81C180B43C5F81C382B189F
:102560000021C3F8101953690127611EA7409BB3CE
:10257000138A928B9B08012A88BF5343D8F8742092
:10258000981842EA034301F1400205EB8202C8F8C1
:102590007400214653602846FFF7CAFE08EB890005
:1025A000C3681B8A43EA8453483464011E432E5196
:1025B000D5F81C381F43C5F81C78BDE8F88305EB37
:1025C0004917D7F8001B21F40041C7F8001BD5F8C4
:1025D0001C1821EA0303C0E704F13F0305EB830362
:1025E0000A4A5A6028462146FFF7A2FE05EB491029
:1025F000D0F8003923F40043C0F80039D5F81C386E
:1026000023EA0707D7E700BF00800010000400029C
:10261000026F12684267FFF75FBE00005831C36E59
:1026200049015B5813F4004004D013F4001F0CBFA1
:1026300002200120704700004831C36E49015B58F9
:1026400013F4004004D013F4001F0CBF022001203B
:102650007047000000EB8101CB68196A0B681360BA
:102660004B6853607047000000EB810330B5DD68B4
:10267000AA691368D36019B9402B84BF4023136043
:102680006B8A1468C26E1C44013CB4FBF3F46343D0
:10269000033323F0030302EB411043EAC44343F046
:1026A000C043C0F8103B2B6803F00303012B09B2B1
:1026B0000ED1D2F8083802EB411013F4807FD0F825
:1026C000003B14BF43F0805343F00053C0F8003B7D
:1026D00002EB4112D2F8003B43F00443C2F8003B46
:1026E00030BD00002DE9F041254DEE6E06EB4013A4
:1026F0000446D3F8087BC3F8087B38070AD5D6F818
:102700001438190706D505EB84032146DB682846F3
:102710005B689847FA0721D5D6F81438DB071DD532
:1027200005EB8403D968DCB98B69488A5A68B2FB27
:10273000F0F600FB16229AB91868DA6890420FD2B8
:10274000121AC3E9002472B6302383F3118862B6EB
:102750000B482146FFF788FF84F31188BDE8F0811C
:10276000012303FA04F26B8923EA02036B81CB682D
:10277000002BF3D021460248BDE8F041184700BFC6
:10278000782D012000EB810370B5DD68C36E6C69A4
:102790002668E6604A0156BB1A444FF40020C2F88E
:1027A00010092A6802F00302012A0AB20ED1D3F8F6
:1027B000080803EB421410F4807FD4F8000914BF1A
:1027C00040F0805040F00050C4F8000903EB421282
:1027D000D2F8000940F00440C2F80009D3F83408E8
:1027E000012202FA01F10143C3F8341870BD19B98E
:1027F000402E84BF4020206020682E8A8419013C2E
:10280000B4FBF6F440EAC44040F000501A44C6E776
:102810002DE9F8433C4DEE6E06EB40130446D3F829
:102820000889C3F8088918F0010F4FEA40171CD037
:10283000D6F81038DB0718D505EB8003D9684B694B
:102840001868DA68904232D2121A4FF000091A6002
:10285000C3F8049072B6302383F3118862B6214620
:102860002846FFF78FFF89F3118818F0800F1CD0DE
:10287000D6F834380126A640334216D005EB84033F
:10288000ED6ED3F80CC0DCF814200134E4B2D2F8B9
:1028900000E005EB04342F445168714515D3D5F899
:1028A000343823EA0606C5F83468BDE8F883012306
:1028B00003FA04F22B8923EA02032B818B68002B95
:1028C000D3D0214628469847CFE7BCF81000AEEB9E
:1028D0000103834228BF0346D7F8180980B2B3EB3F
:1028E000800FE2D89068A0F1040959F8048FC4F869
:1028F0000080A0EB09089844B8F1040FF5D81844FB
:102900000B4490605360C7E7782D01202DE9F74F05
:10291000AC4CE56E6E69AB691E4016F480586E6172
:1029200007D02046FEF7ECFC03B0BDE8F04F00F006
:102930006BBC002E12DAD5F8003EA2489B071EBFE2
:10294000D5F8003E23F00303C5F8003ED5F804385F
:1029500023F00103C5F80438FEF7FEFC370505D562
:102960009848FFF7B9FC9748FEF7E4FCB0040CD593
:10297000D5F8083813F0060FEB6823F470530CBF3A
:1029800043F4105343F4A053EB6031071BD5636845
:10299000DB681BB9AB6923F00803AB612378052B17
:1029A0000CD1D5F8003E87489A071EBFD5F8003EE7
:1029B00023F00303C5F8003EFEF7CEFC6368DB6836
:1029C0000BB180489847F30200F18980B70227D500
:1029D000D4F86C90DFF8ECB100274FF0010A09EB56
:1029E0004712D2F8003B03F44023B3F5802F11D1F6
:1029F000D2F8003B002B0DDA62890AFA07F322EACB
:102A00000303638104EB8703DB68DB6813B139469A
:102A100058469847236F01379B68FFB29F42DED923
:102A2000F00617D5E76E3A6AC2F30A1002F00F03F8
:102A300002F4F012B2F5802F00F09980B2F5402F29
:102A400008D104EB83030022DB681B6A07F580577B
:102A500090427ED13303D5F818481DD5E70302D53F
:102A60000020FFF73FFEA50302D50120FFF73AFE45
:102A7000600302D50220FFF735FE210302D50320B3
:102A8000FFF730FEE20202D50420FFF72BFEA3027F
:102A900002D50520FFF726FE77037FF545AFE60751
:102AA00002D50020FFF7B4FEA50702D50120FFF7ED
:102AB000AFFE600702D50220FFF7AAFE210702D56C
:102AC0000320FFF7A5FEE20602D50420FFF7A0FED3
:102AD000A3067FF529AF0520FFF79AFE24E7E36EF2
:102AE000DFF8E0A0019300274FF00109236F9B68F6
:102AF0005FFA87FB9B453FF669AF019B03EB4B13E6
:102B0000D3F8001901F44021B1F5802F1FD1D3F87B
:102B1000001900291BDAD3F8001941F09041C3F8DD
:102B20000019D3F800190029FBDB5946E06EFFF7C6
:102B3000FFFB218909FA0BF321EA0303238104EB4C
:102B40008B03DB689B6813B15946504698470137A1
:102B5000CCE7910708BFD7F80080072A98BF03F891
:102B6000018B02F1010298BF4FEA182870E7023387
:102B700004EB830207F580575268D2F818C0DCF8DE
:102B80000820DCE9001CA1EB0C0C002188420AD1D2
:102B900004EB830463689B699A6802449A605A68EC
:102BA00002445A6056E711F0030F08BFD7F80080BF
:102BB0008C4588BF02F8018B01F1010188BF4FEA03
:102BC0001828E3E7782D0120C36E03EB4111D1F8FB
:102BD000003B43F40013C1F8003B7047C36E03EBA6
:102BE0004111D1F8003943F40013C1F8003970479E
:102BF000C36E03EB4111D1F8003B23F40013C1F87D
:102C0000003B7047C36E03EB4111D1F8003923F448
:102C10000013C1F80039704700F1604303F56143C8
:102C20000901C9B283F80013012200F01F039A4082
:102C300043099B0003F1604303F56143C3F880211E
:102C40001A60704772B6302383F3118862B67047FA
:102C500030B5039C0172043304FB0325C0E906531D
:102C6000049B03630021059BC160C0E90000C0E92B
:102C70000422C0E90842C0E90A11436330BD0000E4
:102C8000416A0022C0E90411C0E90A22C2606FF063
:102C90000101FEF76FBE0000D0E90432934201D17A
:102CA000C2680AB9181D704700207047036919608F
:102CB000C2680132C260C2691344826903619342EF
:102CC00024BF436A03610021FEF748BE38B50446BD
:102CD0000D46E3683BB16269131D1268A362134499
:102CE000E362002007E0237A33B929462046FEF745
:102CF00025FE0028EDDA38BD6FF00100FBE700008B
:102D0000C368C269013BC36043691344826943617C
:102D1000934224BF436A436100238362036B03B180
:102D20001847704770B5FFF78DFF866A04463EB9B5
:102D3000FFF7CCFF054618B186F31188284670BD11
:102D4000A36AE26A13F8015BA362934202D32046AE
:102D5000FFF7D6FF002383F31188EFE72DE9F04753
:102D60009846FFF76FFF002504460E461746A94612
:102D7000D4F828A0BAF1000F09D141462046FFF748
:102D8000A5FF20B18AF311882846BDE8F087D4E971
:102D90000A12A7EB050A521A924528BF9246BAF1C9
:102DA000400F1BD9334601F1400251F8040B43F8A0
:102DB000040B9142F9D1A36A40334036A3624035F7
:102DC000D4E90A239A4202D32046FFF799FF89F3F8
:102DD0001188BD42D8D2FFF735FFC9E730465246C9
:102DE000FDF7BAFFA36A53445644A3625544E7E78C
:102DF00010B5029C0172043303FB0421C0E90613E1
:102E00000023C0E90A33039B0363049BC460C0E949
:102E10000000C0E90422C0E90842436310BD00007D
:102E2000026AC260426AC0E904220022C0E90A22A2
:102E30006FF00101FEF79EBDD0E904239A4201D153
:102E4000C26822B9184650F8043B0B607047002353
:102E50001846FAE7C368C2690133C3604369134483
:102E600082694361934224BF436A43610021FEF7B4
:102E700075BD000038B504460D46E3683BB12369D3
:102E80001A1DA262E2691344E362002007E0237A7C
:102E900033B929462046FEF751FD0028EDDA38BD4A
:102EA0006FF00100FBE7000003691960C268013A96
:102EB000C260C269134482690361934224BF436ABA
:102EC000036100238362036B03B11847704700005E
:102ED00070B5FFF7B7FE866A0D46044611462EB957
:102EE000FFF7C8FF10B186F3118870BDA36A1D708B
:102EF000A36AE26A01339342A36204D3E1692046E4
:102F00000439FFF7D1FF002080F31188EDE70000BE
:102F10002DE9F0479946FFF795FE002604460D4639
:102F20009046B246A76A4FB949462046FFF7A2FF2E
:102F300020B187F311883046BDE8F087D4E90A074D
:102F40003A1AA8EB0607974228BF1746402F1BD90D
:102F500005F1400355F8042B40F8042B9D42F9D1AC
:102F6000A36A4033A3624036D4E90A239A4204D3C9
:102F7000E16920460439FFF797FF8AF31188464537
:102F8000D9D2FFF75FFECDE729463A46FDF7E4FECA
:102F9000A36A3B443D44A3623E44E5E7D0E90423F1
:102FA0009A4217D1C3689BB1836A8BB1043B9B1AC9
:102FB0000ED01360C368013BC360C3691A448369C0
:102FC00002619A4224BF436A0361002383620123A2
:102FD000184670470023FBE700F042B94FF08043EA
:102FE000586A70474FF08043002258631A610222EA
:102FF000DA6070474FF080430022DA6070470000CB
:103000004FF0804358637047FEE7000070B51B4BDC
:1030100001630025044686B0586085620E4600F0C4
:10302000CBF804F11003C4E904334FF0FF33C4E9D3
:103030000635C4E90044A560E562FFF7CFFF2B46E3
:103040000246C4E9082304F134010D4A25658023B2
:103050002046FEF727FC0123E0600A4A0375009230
:1030600072680192B268CDE90223074B6846CDE948
:103070000435FEF73FFC06B070BD00BF20260120DE
:10308000543800085938000809300008024AD36A49
:103090001843D062704700BFB82301204B684360DB
:1030A0008B688360CB68C3600B6943614B690362C3
:1030B0008B6943620B6803607047000008B52C4BB6
:1030C0002C481A6940F2FF710A431A611A6922F406
:1030D000FF6222F007021A611A691A6B0A431A6327
:1030E0001A6D0A431A65244A1B6D1146FFF7D6FF75
:1030F00002F11C0100F58060FFF7D0FF02F13801FA
:1031000000F58060FFF7CAFF02F1540100F580600E
:10311000FFF7C4FF02F1700100F58060FFF7BEFF0A
:1031200002F18C0100F58060FFF7B8FF02F1A80101
:1031300000F58060FFF7B2FF02F1C40100F5806086
:10314000FFF7ACFF02F1E00100F58060FFF7A6FF9A
:1031500002F1FC0100F58060FFF7A0FF02F58C7121
:1031600000F58060FFF79AFFBDE8084000F0EEB878
:1031700000380240000002406038000808B500F046
:1031800059FAFEF767FBFFF705F8BDE80840FEF7C0
:10319000E1BD000070470000EFF3098305494A6B69
:1031A00022F001024A63683383F30988002383F322
:1031B0001188704700EF00E0302080F3118862B67C
:1031C0000D4B0E4AD96821F4E0610904090C0A4349
:1031D000DA60D3F8FC200A4942F08072C3F8FC2080
:1031E000084AC2F8B01F116841F0010111602022A5
:1031F000DA7783F82200704700ED00E00003FA055B
:1032000055CEACC5001000E010B572B6302383F384
:10321000118862B60E4B5B6813F4006314D0F1EEB4
:10322000103AEFF30984683C4FF08073E361094B77
:10323000DB6B236684F30988FEF7ECFA10B1064BCA
:10324000A36110BD054BFBE783F31188F9E700BFCD
:1032500000ED00E000EF00E04F030008520300081B
:103260000F4B1A6C42F001021A641A6E42F001020E
:103270001A660C4A1B6E936843F0010393604FF08B
:1032800080436B229A624FF0FF32DA6200229A6129
:103290005A63DA605A6001225A611A60704700BFAF
:1032A00000380240002004E04FF0804208B5116968
:1032B000D3680B40D9B2C9439B07116109D572B6D7
:1032C000302383F3118862B6FEF7DAFA002383F322
:1032D000118808BD1B4B1A696FEA42526FEA5252BD
:1032E0001A611A69C2F30A021A614FF0FF301A69B3
:1032F0005A69586100215A6959615A691A6A62F01B
:1033000080521A621A6A02F080521A621A6A5A6A63
:1033100058625A6A59625A6A0B4A106840F48070BF
:103320001060186F00F44070B0F5007F1EBF4FF4BE
:10333000803018671967536823F40073536000F0F6
:1033400055B900BF0038024000700040374B4FF0C5
:1033500080521A64364A4FF4404111601A6842F0B4
:1033600001021A601A689207FCD59A6822F00302DB
:103370009A602E4B9A6812F00C02FBD1196801F08A
:10338000F90119609A601A6842F480321A601A686A
:103390009003FCD55A6F42F001025A67234B5A6FD3
:1033A0009107FCD5234A5A601A6842F080721A606D
:1033B0001F4B5A685204FCD51A6842F480321A60D6
:1033C0005A68D003FCD51A6842F400321A60184AD1
:1033D00053689903FCD5154B1A689201FCD5164A1F
:1033E0009A6040F20112C3F88C200022C3F89020AA
:1033F000124A40F207331360136803F00F03072BE0
:10340000FAD10A4B9A6842F002029A609A6802F076
:103410000C02082AFAD15A6C42F480425A645A6E5D
:1034200042F480425A665B6E704700BF003802402B
:1034300000700040086C400900948838003C02404D
:10344000074A08B5536903F00103536123B1054AE4
:1034500013680BB150689847BDE80840FFF7D4BE29
:10346000003C0140082E0120074A08B5536903F0CB
:103470000203536123B1054A93680BB1D0689847A2
:10348000BDE80840FFF7C0BE003C0140082E012007
:10349000074A08B5536903F00403536123B1054A91
:1034A00013690BB150699847BDE80840FFF7ACBEFF
:1034B000003C0140082E0120074A08B5536903F07B
:1034C0000803536123B1054A93690BB1D06998474A
:1034D000BDE80840FFF798BE003C0140082E0120DF
:1034E000074A08B5536903F01003536123B1054A35
:1034F000136A0BB1506A9847BDE80840FFF784BED5
:10350000003C0140082E0120164B10B55C6904F404
:1035100078725A61A30604D5134A936A0BB1D06A34
:103520009847600604D5104A136B0BB1506B98474F
:10353000210604D50C4A936B0BB1D06B9847E2057A
:1035400004D5094A136C0BB1506C9847A30504D5F8
:10355000054A936C0BB1D06C9847BDE81040FFF75B
:1035600053BE00BF003C0140082E0120194B10B58E
:103570005C6904F47C425A61620504D5164A136DF5
:103580000BB1506D9847230504D5134A936D0BB1C9
:10359000D06D9847E00404D50F4A136E0BB1506EFE
:1035A0009847A10404D50C4A936E0BB1D06E98478E
:1035B000620404D5084A136F0BB1506F9847230477
:1035C00004D5054A936F0BB1D06F9847BDE8104002
:1035D000FFF71ABE003C0140082E012008B5FFF796
:1035E00063FEBDE80840FFF70FBE0000062108B5E6
:1035F0000846FFF711FB06210720FFF70DFB062108
:103600000820FFF709FB06210920FFF705FB06212B
:103610000A20FFF701FB06211720FFF7FDFA06211C
:103620002820FFF7F9FABDE8084007211C20FFF722
:10363000F3BA000008B5FFF74DFE00F00BF8FDF7F8
:10364000F1FDFDF7C3FCFFF7A5FDBDE80840FFF75E
:10365000C3BC00000023054A19460133102BC2E900
:10366000001102F10802F8D1704700BF082E0120B6
:10367000034611F8012B03F8012B002AF9D17047FA
:1036800053544D3332463F3F3F3F3F3F0053544D2D
:10369000333246375B347C355D780053544D3332DA
:1036A00046375B367C375D78000000000000000084
:1036B000490F0008350F0008710F00085D0F000862
:1036C000690F0008550F0008410F00082D0F000872
:1036D0007D0F000800000000010000000000000055
:1036E00063300000E036000810240120202601206D
:1036F0004172647550696C6F740025424F415244A9
:10370000252D424C002553455249414C25000000CF
:10371000020000000000000065110008D11100083F
:1037200040004000C02A0120D02A012002000000F1
:103730000000000003000000000000001512000857
:103740000000000010000000E02A0120000000003E
:103750000100000000000000782D0120010102009E
:10376000F51C0008091C0008A11C0008891C0008A1
:10377000430000007837000809024300020100C03E
:1037800032090400000102020100052400100105B5
:103790002401000104240202052406000107058219
:1037A000030800FF09040100020A000000070501E8
:1037B00002400000070581024000000012000000E6
:1037C000C4370008120110010200004009124157DD
:1037D00000020102030100000403090425424F41D5
:1037E00052442500426C69747A463734354D696E0F
:1037F0006900303132333435363738394142434449
:1038000045460000008000000080000000800000AD
:10381000008000000000020000000400000004001E
:1038200000000400000000007113000821160008C9
:10383000C916000840004000F02D0120F02D0120A5
:1038400001000000002E0120800000004001000067
:10385000050000006D61696E0069646C6500000020
:103860000001806A00000000AAAAAAAA0001006460
:10387000FFFF00000000000000A00A0000000000A0
:1038800000000000AAAAAAAA00000000FFFF000092
:103890000000000000000000000004000000000024
:1038A000AAAAAAAA00000000FFFD00000000000074
:1038B000000000000000000000000000AAAAAAAA60
:1038C00000000000FFFF00000000000000000000FA
:1038D0000001000000000000AAAAAAAA000100003E
:1038E000FFFF0000000000000000000000000000DA
:1038F00000000000AAAAAAAA00000000FFFF000022
:1039000000000000000000000000000000000000B7
:10391000AAAAAAAA00000000FFFF00000000000001
:103920000000000000000000000000000A0000008D
:103930000000000003000000000000000000000084
:103940000000000000000000000000000000000077
:103950000000000000000000000000000000000067
:103960000000000000000000000000000000000057
:103970000000000000000000000000000000000047
:103980000000000000000000000000000000000037
:1039900000000000000000008B0400000000000098
:1039A00000800E0000000000FF000000000000008A
:1039B00080360008490400008D36000851040000DC
:1039C0009B360008009600000000080096000000EA
:1039D0000008000004000000D837000800000000C4
:1039E00000000000000000000000000000000000D7
:0439F00000000000D3
:00000001FF
