:020000040800F2
:1000000000070020F102000855CB00080DCB0008C6
:1000100035CB00080DCB00082DCB0008F3020008FB
:10002000F3020008F3020008F302000891F7000849
:10003000F3020008F3020008F3020008F3020008CC
:10004000F3020008F3020008F3020008F3020008BC
:10005000F3020008F30200082D3F0108593F010890
:10006000853F0108B13F0108DD3F010809FD000897
:1000700031FD00085DFD000889FD0008B5FD0008A0
:10008000DDFD000809FE0008F3020008F1C90008C0
:10009000F302000801CA0008F30200080940010841
:1000A000F3020008F3020008F3020008F30200085C
:1000B000F3020008F3020008F3020008F30200084C
:1000C000F3020008F3020008F3020008F30200083C
:1000D000F3020008F3020008F3020008F30200082C
:1000E0006D400108F3020008F3020008F302000863
:1000F000F3020008F3020008F302000835FE0008CE
:10010000F3020008F3020008F5400108F3020008BA
:10011000F3020008F3020008F3020008F3020008EB
:1001200061FE000889FE0008B5FE0008E1FE000837
:100130000DFF0008E9010108F3020008F3020008BE
:10014000F3020008F3020008F3020008F3020008BB
:1001500035FF000861FF00088DFF0008F30200086A
:10016000F3020008F3020008F3020008F30200089B
:10017000F302000875330108F3020008F3020008D7
:10018000F3020008F3020008E1400108F30200084E
:10019000F3020008F3020008F3020008F30200086B
:1001A000F3020008F3020008F3020008F30200085B
:1001B000F3020008F3020008F3020008F30200084B
:1001C000F3020008F3020008F3020008F30200083B
:1001D000F302000861330108F3020008F30200088B
:1001E000F3020008F3020008F3020008F30200081B
:1001F000F3020008F3020008F3020008F30200080B
:10020000F3020008F3020008F3020008F3020008FA
:10021000F3020008F3020008F3020008F3020008EA
:10022000F3020008F3020008F3020008F3020008DA
:10023000F3020008F3020008F3020008F3020008CA
:10024000F3020008F3020008F3020008F3020008BA
:10025000F3020008F3020008F3020008F3020008AA
:10026000F3020008F3020008F3020008F30200089A
:10027000F3020008F3020008F3020008F30200088A
:10028000F3020008F3020008F3020008F30200087A
:10029000F3020008F3020008F3020008F30200086A
:1002A000F3020008F3020008F3020008F30200085A
:1002B000F3020008F3020008F3020008F30200084A
:1002C000F3020008F3020008F3020008F30200083A
:1002D000F3020008F3020008F3020008F30200082A
:1002E000D5050008C918000855B90008000000002D
:1002F00002E000F000F8FEE772B6374880F30888A5
:10030000364880F3098836483649086040F20000D4
:10031000CCF200004EF63471CEF200010860BFF35B
:100320004F8FBFF36F8F40F20000C0F2F0004EF627
:100330008851CEF200010860BFF34F8FBFF36F8F7B
:100340004FF00000E1EE100A4EF63C71CEF20001D3
:100350000860062080F31488BFF36F8F12F080FAD4
:1003600013F0B0FB4FF055301F491B4A91423CBF80
:1003700041F8040BFAE71D49184A91423CBF41F885
:10038000040BFAE71A491B4A1B4B9A423EBF51F82D
:10039000040B42F8040BF8E700201849184A914270
:1003A0003CBF41F8040BFAE712F098FA13F010FC86
:1003B000144C154DAC4203DA54F8041B8847F9E796
:1003C00000F094F8114C124DAC4203DA54F8041BBF
:1003D0008847F9E712F080BA0007002000230020C8
:1003E0000000000808ED00E00001002000070020E8
:1003F000B88A010800230020F0230020F023002009
:1004000028800020E0020008EC020008EC0200084E
:10041000EC0200082DE9F04F2DED108AC1F80CD048
:10042000D0F80CD0BDEC108ABDE8F08F002383F328
:1004300011882846A047002011F0C4FBFEE711F008
:100440008DFA00DFFEE7000001F0FF01102A2BDB30
:1004500010F0070F08D010F8013B013A8B422DD065
:1004600010F0070F42B3F6D1F0B441EA012141EA9E
:10047000014122F007047FF000070023F0E8025654
:10048000083C85EA010586EA010685FA47F5A3FAE4
:1004900087F586FA47F6A5FA87F68EB9EED1F0BC55
:1004A00001F0FF0102F0070232B110F8013B013AFE
:1004B00083EA010313B1F8D1002070470138704777
:1004C000002D06BF35460338073815F0010F07D158
:1004D000013015F4807F02BF013015F4C03F0130B8
:1004E000F0BC0138704700BF704700002DE9F341B0
:1004F00001F074FE02F032F8304801F053FC12F0C3
:100500000BF9074612F0A2F9054600283ED12C4B04
:100510009F423BD001339F423BD027F0FF02294B43
:100520009A4239D12E4642F21074F8B200F0D0FF50
:1005300000F0D4FF08B10024264602F007FB8046F5
:1005400070B30024032000F0ADF8424626461E4951
:100550001A4801F037FC35B11C4B9F4203D00024F0
:1005600012F06CF92646002012F0E0F80EB100F00F
:10057000AFF801F091FF00F0E5FF104801F0ECFB4F
:10058000204600F057F900F0A3F8F9E72E460024C2
:10059000CEE704460126CBE7064641F28834C7E79A
:1005A00002F052FB0028D6D04169437E027E0091C2
:1005B0000248074901F006FCCDE700BFF023002008
:1005C000010007B0000008B094530108263A09B0B2
:1005D000A853010810B5084C04F108000CF07CFA8F
:1005E00004F134000CF078FA2046044A0449BDE8CE
:1005F000104013F0D3BD00BFF02300200C5A0020A0
:10060000E904000808B501F0B5FDA0F12003584247
:10061000584108BD07B541F21203022101A8ADF807
:10062000043001F0C5FD03B05DF804FB38B530239C
:1006300083F31188174803680BB111F08FFB002377
:10064000154A4FF47A71134811F07EFB002383F3AF
:100650001188124C236813B12368013B236063683F
:1006600013B16368013B63600D4D2B7833B9636848
:100670007BB9022001F066FE322363602B78032BE6
:1006800007D163682BB9022001F05CFE4FF47A7346
:10069000636038BD3C2500202D0600085C26002044
:1006A00054250020084B187003280CD8DFE800F010
:1006B00008050208022001F043BE022001F03EBE00
:1006C000024B00225A607047542500205C2600200F
:1006D000F8B502F03BFA30B14D4B03221A700022FC
:1006E0004C4B5A60F8BD4C4B4C4A1C4619680131C2
:1006F000F8D004339342F9D16268494B9A42F1D958
:10070000484B9B6803F1006303F580239A42E9D2CA
:1007100012F068F812F07AF8002001F085FD02204E
:10072000FFF7C0FF404B00219A6C99641A6F19675C
:100730001A6FDA6CD9645A6F59675A6F1A6D196556
:100740009A6F99679B6F394BD3F8802042F0006213
:10075000C3F88020D3F8802022F00062C3F8802004
:10076000D3F88020D3F8802042F00072C3F88020B4
:10077000D3F8802022F00072C3F88020D3F88030B4
:1007800072B64FF0E023C3F8084DD4E90004BFF37C
:100790004F8FBFF36F8F264AC2F88410BFF34F8F7D
:1007A000536923F480335361BFF34F8FD2F8803005
:1007B00043F6E076C3F3C905C3F34E335B0103EAA6
:1007C000060C29464CEA81770139C2F87472F9D2D5
:1007D000203B13F1200FF2D1BFF34F8FBFF36F8F88
:1007E000BFF34F8FBFF36F8F536923F4003353610F
:1007F0000023C2F85032BFF34F8FBFF36F8F302307
:1008000083F31188854680F3088820476AE700BF94
:10081000542500205C260020000004082000040865
:10082000FFFF03080023002000450258004402583F
:1008300000ED00E02DE9F04F93B0B74B2022FF21EF
:1008400000900AA89D6801F0D1FDB44A1378A3B9BD
:100850000121B34811700360302383F311880368CA
:100860000BB111F07BFA0023AE4A4FF47A71AC4819
:1008700011F06AFA002383F31188009B13B1AA4B8D
:10088000009A1A60A94A1378032B03D0002313702F
:10089000A54A53604FF0000A009CD3465646D14605
:1008A000012001F04DFD24B19F4B1B68002B00F08F
:1008B0002C82002001F05EFC0390039B002B01DAE8
:1008C00000F088FE039B002BEDDB012001F036FDDC
:1008D000039B213B1F2BE3D801A252F823F000BF5A
:1008E00061090008890900081D0A0008A10800081C
:1008F000A1080008A1080008AF0A00087F0C000842
:10090000990B0008FB0B0008230C0008490C000899
:10091000A10800085B0C0008A1080008CD0C000825
:10092000010A0008A1080008110D00086D0900085F
:10093000010A0008A1080008FB0B0008A108000834
:10094000A1080008A1080008A1080008A1080008E3
:10095000A1080008A1080008A10800081D0A000855
:100960000220FFF74FFE002840F0F981009B022192
:1009700005A8BAF1000F08BF1C4641F21233ADF8CA
:10098000143001F015FC8BE74FF47A7001F0F2FBA4
:10099000071EEBDB0220FFF735FE0028E6D0013F03
:1009A000052F00F2DE81DFE807F0030A0D10133691
:1009B0000523042105A8059301F0FAFB17E00421A3
:1009C0005548F9E704215A48F6E704215948F3E766
:1009D0004FF01C08404608F1040801F027FC0421F0
:1009E000059005A801F0E4FBB8F12C0FF2D101202D
:1009F0004FF0000900FA07F747EA0B0B5FFA8BFB91
:100A000001F040FD26B10BF00B030B2B08BF0024B7
:100A1000FFF700FE44E704214748CDE7002EA5D0AC
:100A20000BF00B030B2BA1D10220FFF7EBFD0746C8
:100A300000289BD00120002601F0F6FB0220FFF7E2
:100A400031FE1FFA86F8404601F0FEFB0446B0B1C5
:100A5000039940460136A1F140025142514101F053
:100A60000BFC0028EDD1BA46044641F212130221D4
:100A700005A83E46ADF8143001F09AFB10E7254674
:100A80000120FFF70FFE244B9B68AB4207D9284695
:100A900001F0CCFB013040F067810435F3E700251D
:100AA000224BBA463E461D701F4B5D60A8E7002EE4
:100AB0003FF45CAF0BF00B030B2B7FF457AF02201E
:100AC000FFF7F0FD322001F055FBB0F10008FFF612
:100AD0004DAF18F003077FF449AF0F4A08EB050349
:100AE000926893423FF642AFB8F5807F3FF73EAF42
:100AF000124BB845019323DD4FF47A7001F03AFBB5
:100B00000390039A002AFFF631AF039A0137019B45
:100B100003F8012BEDE700BF00230020582600203A
:100B20003C2500202D0600085C26002054250020CE
:100B300004230020082300200C2300205825002037
:100B4000C820FFF75FFD074600283FF40FAF1F2DB9
:100B500011D8C5F120020AAB25F0030084494245B3
:100B6000184428BF4246019201F00EFC019AFF2171
:100B70007F4801F03BFC4FEAA803C8F387027C4999
:100B80002846019301F03AFC064600283FF46DAF79
:100B9000019B05EB830533E70220FFF733FD0028B7
:100BA0003FF4E4AE01F07AFB00283FF4DFAE00270B
:100BB000B846704B9B68BB4218D91F2F11D80A9BAF
:100BC00001330ED027F0030312AA134453F8203C3C
:100BD00005934046042205A9043701F08DFF8046A5
:100BE000E7E7384601F022FB0590F2E7CDF81480E4
:100BF000042105A801F0DCFA02E70023642104A81F
:100C0000049301F0CBFA00287FF4B0AE0220FFF786
:100C1000F9FC00283FF4AAAE049801F035FB0590DA
:100C2000E6E70023642104A8049301F0B7FA002842
:100C30007FF49CAE0220FFF7E5FC00283FF496AE5F
:100C4000049801F023FBEAE70220FFF7DBFC002811
:100C50003FF48CAE01F032FBE1E70220FFF7D2FC5B
:100C600000283FF483AE05A9142001F02DFB0746B0
:100C70000421049004A801F09BFA3946B9E7322018
:100C800001F078FA071EFFF671AEBB077FF46EAE77
:100C9000384A07EB0903926893423FF667AE022099
:100CA000FFF7B0FC00283FF461AE27F003074F4484
:100CB000B9453FF4A5AE484609F1040901F0B6FA7A
:100CC0000421059005A801F073FAF1E74FF47A705A
:100CD000FFF798FC00283FF449AE01F0DFFA002846
:100CE00044D00A9B01330BD008220AA9002001F04E
:100CF00085FB00283AD02022FF210AA801F076FBCC
:100D0000FFF788FC1C4810F063FF13B0BDE8F08FBC
:100D1000002E3FF42BAE0BF00B030B2B7FF426AE13
:100D20000023642105A8059301F038FA074600283E
:100D30007FF41CAE0220FFF765FC804600283FF4DC
:100D400015AEFFF767FC41F2883010F041FF0598BF
:100D500001F0E2FB46463C4601F094FBA0E5064666
:100D60004EE64FF0000901E6BA467EE637467CE6DD
:100D70005825002000230020A0860100094A49F2DE
:100D80006900136899B21B0C00FB013344F25061F7
:100D90001360054B186882B2000C01FB020018605A
:100DA00080B27047142300201023002070470000F9
:100DB0000021102210B5044601F018FB034B03CBB1
:100DC000206061601868A06010BD00BF00E8F11FDE
:100DD000F0B5ADF54F7D4FF4C47207460D466CACCF
:100DE0000021204601F002FB0BF0C2FE4FF47A72A4
:100DF000254BB0FBF2F0186093E80700022384E86B
:100E000007000DF5E9702382FFF7D2FF43F2047368
:100E10001E4906A8238413F05DFA1A230DF2E3227B
:100E20000DF1300C84F8323106AB1E46083203CE89
:100E3000664542F8080C42F8041C3346F5D1338865
:100E40000DAE204631461380012201F0E7FB00235E
:100E500080B2E97E0393AB7E029305F119030193FF
:100E60000123009306A3D3E90023CDE904603846AB
:100E70000EF05EF80DF54F7DF0BD00BFAFF30080C2
:100E80009E6AC421818A46EE64260020C45301086C
:100E90002DE9F0412C4CDAB080460D46237A5BBB3D
:100EA00027A9284601F032FD0746002842D19DF8C7
:100EB0009D60C82E3ED801464FF4A662204601F040
:100EC00095FA4FF4807332460DF19E01C4F8F83163
:100ED0004FF4007304F109002644C4F80C334FF4B6
:100EE0004073C4F8203401F04FFA9DF89C307772BB
:100EF00023720BB9EB7E237206AC8122002127A856
:100F000001F074FA0122214627A801F045FD0023D3
:100F100080B2E97E0393AB7E029305F1190301933E
:100F20002823CDE904400093404605A3D3E90023DC
:100F30000DF0FEFF5AB0BDE8F08100BFAFF30080B6
:100F400026417272DF25D7B7C4360020F0B5254E92
:100F50004FF48A75F1B0002405FB006596F8D8308F
:100F6000D822214685F8DC303AA885F8E84006AF5B
:100F700001F03CFA06F1090001F030FAD5F8E4304E
:100F8000C2B206F109018DF8F0000DF1F100CDE9D2
:100F90003A3401F0F9F9394601223AA801F032FD5C
:100FA000082380B2317ACDE9047001270E48CDE9DB
:100FB000023706F1D80301933023009307A3D3E946
:100FC00000230DF0B5FFA04206DD0BF0D1FDC5F802
:100FD000E000384671B0F0BD2046FBE778F6339F5D
:100FE00093CACD8DC43600207C3600202DE9F04117
:100FF0001D4D86B01D4E1E4F28460DF0C5FF034601
:1010000058B30024DFF86C80ADF814400294CDE9A9
:101010000344027B8DF8142003AA9968406803C238
:101020001B6843F0004302930BF0A4FD8219009467
:10103000384641F1000302A90AF044FDA04205DD53
:1010400028460DF0A5FF88F80040D5E798F8003055
:10105000072B05D8013388F8003006B0BDE8F081D1
:1010600001480DF095FFF8E77C36002040420F0064
:10107000003C0020FA3B002070B50D4614461E4689
:101080000DF0B2FE50B9022E10D1012C0ED112A3D8
:10109000D3E900230120C5E9002307E0282C10D064
:1010A00005D8012C09D0052C0FD0002070BD302CA4
:1010B000FBD10BA3D3E90023ECE70BA3D3E9002377
:1010C000E8E70BA3D3E90023E4E70BA3D3E900236C
:1010D000E0E700BFAFF30080401DA12026812A0B6E
:1010E00078F6339F93CACD8D9E6AC421818A46EEDD
:1010F00026417272DF25D7B7F017304A39059E5660
:1011000038B505460E4C0021013501F0B5F8A4F8BC
:101110002C55B4F82C0501F097F878B1B4F82C05EB
:1011200001F0A2F8014648B9B4F82C0501F0A4F882
:10113000B4F82C350133A4F82C35EAE738BD00BFEC
:10114000C4360020F0B589B005460C4616460D4958
:101150004FF4227207A81F4601F08CFDBDF83C3009
:101160002A46009604930E9B074803931823CDE963
:10117000017323460DF07EFE07A801F085FD09B03E
:10118000F0BD00BFAC3600207C3600200A4B0B4A75
:1011900010B51A6003F5805393F858203AB95C6D86
:1011A0002CB1204601F08AFD20460AF047FC044895
:1011B000BDE8104001F082BD003C0020D87B010852
:1011C000404C00202DE9F04F8FB005460C4600AF93
:1011D0000DF00AFE00284BD1237E022B1BD1E38A9F
:1011E000012B18D10BF0C4FC0646FFF7C7FD0346E0
:1011F0004FF4C87006F51676DFF8D082B3FBF0F234
:1012000002FB103316FA83F3C8F80030E37E33B9DB
:10121000A74B00221A703C37BD46BDE8F08F07F19E
:101220002401204601F026FB0028F4D107F1140028
:10123000FFF7BEFD97F8264007F1140107F12700DC
:10124000224612F0C9FF0028E2D10F2C08D8984B93
:101250001C70D8F80030A3F51673C8F80030DAE730
:1012600097F824100029D6D028460DF0B5FDD2E716
:10127000E38A282B33D010D8012B2BD0052BCAD1D1
:10128000BFF34F8F8B498C4BCA6802F4E062134363
:10129000CB60BFF34F8F00BFFDE7302BBBD1874E34
:1012A000E17E327A9142B6D1607E3146002291F8D9
:1012B000DC50854200F0AD80013201F58A71042ACC
:1012C000F5D1326840F6B831FA328A4294BF3260C2
:1012D0003160A0E721462846FFF77AFD9BE72146CB
:1012E0002846FFF7D5FD96E7B2F8EC507B6005F194
:1012F00003094FEA99094FEA8902D11DC908A8EBF1
:10130000C10300219D46EB46584601F06FF804F1F9
:10131000EE012A465846314401F036F87B6813B98D
:10132000012000F081FF96F8D20000F08DFF044606
:1013300030B9307200F0B2FF204600F075FFB0E027
:10134000D6F8D4203AB996F8D200B6F82C258242C5
:1013500001D8FFF7D5FED6F8D4202A44944208D20B
:1013600096F8D200B6F82C250130824201D8FFF75A
:10137000C7FE5FFA89F25946706801F03FF808B974
:10138000C54679E0726896F8D2002A447260D6F8B1
:10139000D42005EB0209C6F8D49000F055FF814532
:1013A00009D396F8D220D6F8D4000132001B86F873
:1013B000D220C6F8D400FF2D0FD80024347200F0DC
:1013C0006DFF204600F030FF01F0C0FB3C4B188160
:1013D00008B9FFF77DF9C5461DE7BB6896F8D90047
:1013E0000AFB0362FB68D2F8E41082F8E83001F5EA
:1013F0008061C2F8E030C2F8E410FFF7A7FDFFF704
:10140000F5FD96F8D920013202F0030286F8D920C2
:10141000B6E74FF48A7A20460AFB02F505F1EA01A5
:10142000314401F023FBF86000287FF4F4AE012280
:10143000354485F8E8200BF09BFBD5F8E020D6ED8D
:10144000007A801A40F6B832B8EE677ADFED1D6A8E
:10145000192838BF1920904228BF104607EE900A7D
:10146000F8EEE77A67EEA67ADFED176AE7EE267AFE
:10147000FCEEE77AC6ED007A96F8D93071680AFB7F
:1014800003F4BB60321992F8E8505DB1D2F8E43051
:10149000E8468B423FF428AF002182F8E810C2F8FA
:1014A000E010C5467368064A9B0A01331381B2E611
:1014B0007536002000ED00E00400FA05C436002077
:1014C00064260020CDCCCC3D6666663F7836002091
:1014D000014B1870704700BF7026002038B54FF0E0
:1014E0000054144B22689A4222D1607DF8B1124B0D
:1014F0000025C922114918701148237D0930C0F810
:10150000DB5000F8013C4FF48073C0F8EF314FF42A
:101510000073C0F803334FF44073C0F8173400F081
:1015200033FFE0222946204600F060FF012038BD4D
:101530000020FCE79AAD44C570260020160000206C
:10154000C436002037B501F001FB194D02230022FB
:10155000184928816B71012317480AF043FE0023C4
:1015600016494FF480520193154B16480093164BC1
:101570000DF00AFC154B197811B112480DF02CFC36
:101580000BF0F6FA0446FFF7F9FB4FF4C873B0FB13
:10159000F3F202FB130304F5167010FA83F00C4B00
:1015A000186011F053F908B10F232B8103B030BD3F
:1015B0006426002040420F00003C002074260020DA
:1015C000791000087C360020C51100087026002024
:1015D000783600202DE9F04F884D2DED028B81A744
:1015E000D7E9006791B00FF20429D9E900899FED8E
:1015F000818BFFF7FBFC09AC0023DFF814B20893E2
:10160000ADF82C300993636000234FF0010A0DF10F
:10161000150205A958468DF815308DF814A08DEDEA
:10162000008B0BF089F99DF814200023002A40F06C
:10163000A58028460DF0D8FB0446002843D1DFF8EA
:10164000D4B10BF095FADBF8003098423BD30BF0A5
:101650008FFA0390FFF792FB4FF4C873039AB0FB25
:10166000F3F101FB130302F5167010FA83F0CBF8C7
:1016700000000CA8DFF8A0B19BF80010002914BFEF
:101680002346534603918DF82030FFF791FB0399D1
:101690000CAB0DF12100C1F110021944D2B2062A9F
:1016A00028BF0622039200F06FFE039A08AB304673
:1016B000394601320093524BD2B201925246FFF7A3
:1016C00041FD8BF800400BF053FA4E4A4E4C136824
:1016D000C31AB3F57A7F2DD310600BF04BFA024694
:1016E0000B4628460DF05EFC28460DF07DFB08B346
:1016F000237A0DF1300BDFF824A1002B14BF032354
:1017000002238AF805300BF033FA4FF47A73012282
:101710005946B0FBF3F0CAF80000504601F02EF82D
:101720003A4B80B240F255124946CDE900B04046EE
:10173000FFF708FD237AABB10BF01AFA4FF0000A5D
:1017400083464FF48A7294F8D900504400F00300A5
:1017500002FB004393F8E81071B30AF1010ABAF1F1
:10176000040FF0D1C82010F033FA237A002B7FF455
:101770003EAF11B0BDEC028BBDE8F08F19461022D0
:101780000CA800F033FE0DF1160306AA08A958466E
:101790000AF0BAFB0DAB94E8030083E803009DF860
:1017A0002C300CA928468DF83C30089B0C93DDE9C1
:1017B00006230DF0CBFD27E7D3F8E01049B12368ED
:1017C000ABEB0101FA2B38BFFA230533B1EB430F22
:1017D000C3D3FFF7BBFB4FF48A720028BDD1C1E72A
:1017E000AFF30080401DA12026812A0BF1C6A7C1BE
:1017F000D068080F00000000000000007C360020C8
:1018000074360020F43B0020C4360020F93B002051
:10181000003C002078360020753600206426002029
:1018200010B5C2B004467C22039123A8002100F029
:10183000DDFD039B22465A210DF1AE0004AC0BF0F6
:1018400063F95A2821464FF0010228BF5A208DF82B
:10185000AD0023A800F0BAFF094B80B243F6FF7237
:10186000CDE9004004A1D1E90001FFF76BFC42B0D3
:1018700010BD00BFAFF30080759D040C8EA454D63C
:10188000F83B00200FB407B504A951F8040B0191EF
:10189000FFF7C6FF03B05DF804EB04B0704700002B
:1018A0000EB403B503A951F8040B0191FFF7B8FF7B
:1018B00002B05DF804EB03B07047000010B50446B9
:1018C0000AF0BCF8204610BD10B50948094C0AF0D2
:1018D000C1FB094A0020094912F060FC20460BF0C8
:1018E000FBF82046044A0649BDE8104012F056BCF9
:1018F000003C0020AC3600200C5A00208D1100085E
:10190000AD0D000870470000064A00230261064A38
:101910000362426140F2DC520285044A02631846C7
:10192000704700BFED89000861190008062A6D7331
:101930001FB50368186801F0CBFE1022694601F05C
:101940002FFC01460448FFF79DFF0121034801F0E9
:1019500039FD05B05DF804FBE0530108D0500020CC
:101960001FB50C464CF2503201A90A480FF018F886
:1019700068B934B1628901A861680EF091FE2468EB
:10198000F7E701A80EF0E2FD204604B010BD6FF0AD
:101990000200FAE7B05A002030B585B00D460022AB
:1019A0000E4801A90FF014F8A8B94FF4C172BDF8A0
:1019B000081002F079F90446286034B1628901A860
:1019C00061680EF083FE2468F7E701A80EF00EFEB2
:1019D000012005B030BD0020FBE700BFB05A002059
:1019E00000212DE9F04104469EB0084609F072FD41
:1019F000642000F0A9FC21684F482A3101F0AAFCBC
:101A0000606A48BB4D4801F0DBFB01F061FE0790C6
:101A10004B4801F0D5FB01F05BFE0890494801F00E
:101A2000CFFB01F055FE099023680AA946482A33E6
:101A30000A930EF0A7FF454B09AA07A92068029355
:101A4000434B01930023009308AB08F085FA02464C
:101A500070B140480BF080F801F03AFE0790E06A60
:101A600001F036FE0990A06A01F032FE0890DBE733
:101A700039490590206808F091FA059A374920689D
:101A800008F08CFA364916A82F4E09F097FF16A8D1
:101A900009F09CFF4FF0FF3301220CA91CA8314F25
:101AA0000FF0A4FD022311A92F481A46DFF8C480C5
:101AB0000FF09CFD03200FF0ADFD4FF0FF300FF055
:101AC000E1FDC207054611D530460EF099FF2168A9
:101AD00091F83130C3F38003984207D030B32348E4
:101AE00009F0B6FC2146224809F0B2FCAB07E4D568
:101AF00040F606050BA92068FFF74EFF0028DCD052
:101B00000B9B002BF6D05B68988901F0DDFDB0F5EA
:101B1000006F01D0A84205D121680B98CB68984787
:101B20000028E7D00B9802F05DF8E3E7384609F0AB
:101B30008FFC21464046D7E7E8530108FA530108D5
:101B40000854010814540108B05A002035B40008A4
:101B5000091900082254010885370008CD3900080A
:101B6000404B4C00513A0008C85A0020113A000876
:101B7000311900080519000808B5FFF731FF00000A
:101B80002DE9F74F8046009100F028FC00F58060B9
:101B900010F0C8FC054600284AD00446C14699F911
:101BA00000B0BBF1000F41D0A9EB0803009A9342AB
:101BB0003CD2BBF17B0F09F1010703D004F801BB54
:101BC000B946ECE77D21384612F076FB0646002840
:101BD000F4D0A0EB09024FF0030BDFF85C9002F1A8
:101BE000FF3AD9F800301846019300F0F7FB504552
:101BF000019B11D152463946184600F0CFFB58B927
:101C0000D9F804702046394612F064FB384600F0DB
:101C1000E5FB771C0444D3E7BBF1010B09F108098C
:101C2000DFD14FF07B0304F8013BC9E700232370A9
:101C3000284603B0BDE8F08F18230020F7B54FF415
:101C400080600E460E4F10F06DFC0446054664237E
:101C500001220DF10701304601F000FA01280CD1F4
:101C60009DF8073005F8013B2B1B032BEFDD3946B0
:101C7000281F00F0A7FB0028E9D1204603B0F0BDE3
:101C8000475501082DE9FF410446202009F0D0FE08
:101C9000054610B1002101F061F95022274928467C
:101CA000274FDFF8A88001F03DFB1421284601F002
:101CB0002DFA1421284601F035FA94F83030064602
:101CC0007BB1002384F83030BFF34F8F1D491E4B8A
:101CD000CA6802F4E0621343CB60BFF34F8F00BFCA
:101CE000FDE794F831203AB14FF47A7084F831303E
:101CF00000F02AFBFEF7ECFC002EDAD0082009F0F9
:101D000097FE3C2241463B46C0E90046009040F623
:101D1000F81010F04BFC40F2552204F1080103A822
:101D200000F0A8FF206A20B1C36B23620FF008FF08
:101D3000F8E703A800F0A8FFBBE700BF4054010884
:101D4000CD20000800ED00E00400FA054854010829
:101D500008B5FFF797FF000013B5044601F04EFCED
:101D60000EF0FAFD3C2009F063FE0A4B20603C2295
:101D7000094940F6F810009410F018FC074B3C227B
:101D80000749606040F6F810009410F00FFC02B0B4
:101D900010BD00BF791B000854540108511D0008F4
:101DA0005C5401084FF00053054A1968914206D16E
:101DB0005A6822B142629A68C262DB6883627047E5
:101DC0009AAD44C50EB477B5044607AD00F13401B1
:101DD0004FF4227255F8046B4C34684600F04AFF09
:101DE0002B4632464FF48071204601950AF08CFE56
:101DF00021460548FFF746FD684600F045FF03B061
:101E0000BDE8704003B07047E35301082DE9F04F7F
:101E10000746ADF5037D884614460025642301225C
:101E200002A9404601F01AF9012840F0A8809DF966
:101E30000830013C0D2B04D1022D0CBF03250125D8
:101E4000ECE70A2BE9D105F0FD06012EE5D10135BD
:101E5000EDB2042DE2D14E493846FFF7B3FF3046CC
:101E6000002600F0E1F9304600F0EEF990B10021D3
:101E7000304600F001FA68B101360A2000F064FA39
:101E8000304610F0D9F90546002010F0D5F9281A8F
:101E9000A042E8D324F003044FF000094FF0640B94
:101EA000DFF8FCA0B4F5001F4E4628BF4FF4001425
:101EB000A6423ED2A21B42F2107302A94046B2F5DE
:101EC000007F28BF4FF40072019201F0C7F8051E91
:101ED0002FDD15F003010ED0019A95420BD2C1F10E
:101EE000040202A942F210734046294401F0B6F8F8
:101EF0000028C8BF2D1830462E44C5F3870202A91A
:101F00000BFB06F500F07AFA0A22B5FBF4F5EDB208
:101F1000B5FBF2F302FB1353DBB23BB9A94506D084
:101F20002A4651463846FFF74DFF00E04D46A94688
:101F3000BEE716F01F040DD04FF40072FF2102A877
:101F400000F054FAC4F1200202A93046C2F387021D
:101F500000F054FA00F0A2F9002000F065F900F05A
:101F6000F5FD024678B901230A49384687F8313031
:101F7000FFF728FF66220849404601F027F80DF5D3
:101F8000037DBDE8F08F05493846FFF71BFFF6E7F4
:101F9000685401088254010891540108F85401085A
:101FA00074540108F0B50C4685B00646FFF746FEAE
:101FB00005463F223D49204601F008F807223C49EA
:101FC000284600F0EBF9F8B93A49284612F09EF994
:101FD00020B93949284612F099F9A8B1113012F008
:101FE000E3F8214602463046FFF710FF284609F085
:101FF00025FD002C49D0204600F0C4FF204605B046
:10200000BDE8F04009F01ABD1B222C49284600F01B
:10201000C5F9A8B94FF4017206F1340103A800F024
:1020200029FE06F14C010846019100F0D7F901990B
:102030000246204600F0CAFF03A800F025FED5E7BF
:102040000B221F49284600F0A9F910B9012386F890
:102050003030002303A91B48039309F0DDFC96F8F8
:10206000303007469BB148221749204600F0AEFFAA
:10207000284609F0E3FC2CB1204600F083FF2046FF
:1020800009F0DCFC384609F0D1FC05B0F0BD03993D
:10209000FFF776FD064600F0A1F9024631462046DC
:1020A00000F094FF304609F0C9FCE1E70C55010847
:1020B0004C5501085455010866550108785501082A
:1020C00094550108A0550108AB55010873B50446A5
:1020D000D0E90001FFF766FF25680A4B2046DE685D
:1020E00009F0ACFC40F22E2205F1080101A800F035
:1020F000C1FD2B6A01A8F3632E6200F0C5FD02B09A
:1021000070BD00BF505F00202DE9F84F4FF47A7387
:1021100006460D46002402FB03F7DFF85080DFF887
:10212000509098F900305FFA84FA5A1C01D0A3420B
:1021300012D159F824002A4631460368D3F820B05A
:102140003B46D847854207D1074B012083F800A0C2
:10215000BDE8F88F0124E4E7002CFBD04FF4FA70BF
:102160000FF036FD0020F3E71C5100203023002043
:1021700034230020002307B5024601210DF107009A
:102180008DF80730FFF7C0FF20B19DF8070003B0BE
:102190005DF804FB4FF0FF30F9E700000A46042128
:1021A00008B5FFF7B1FF80F00100C0B2404208BDA2
:1021B000074B0A4630B41978064B53F821400146C4
:1021C00023682046DD69044BAC4630BC604700BF45
:1021D0001C51002034230020A086010070B5104C53
:1021E0000025104E10F034F8208030682388834298
:1021F0000CD800252088013810F026F823880544E3
:10220000013BB5F5802F2380F4D370BD10F01CF88E
:10221000336805440133B5F5802F3360E5D3E8E733
:102220001E510020D850002010F0E0B800F10060EE
:1022300000F580200068704700F10060920000F512
:10224000802010F061B80000054B1A68054B1B8810
:102250009B1A834202D910440FF0F6BF002070474A
:10226000D85000201E510020024B1B6818440FF06C
:10227000F1BF00BFD8500020024B1B6818440FF07C
:10228000FBBF00BFD85000200020704700F1FF5076
:1022900000F58F10D0F8000870470000064991F84B
:1022A000243033B100230822086A81F82430FFF774
:1022B000C3BF0120704700BFDC500020014B1868ED
:1022C000704700BF0010005C194B0138032208441E
:1022D00070B51D68174BC5F30B042D0C1E88A64264
:1022E0000BD15C680A46013C824213460FD214F9B6
:1022F000016F4EB102F8016BF6E7013A03F10803F2
:10230000ECD181420B4602D22C2203F8012B04248B
:10231000094A1688AE4204D1984284BF967803F8E1
:10232000016B013C02F10402F3D1581A70BD00BFE9
:102330000010005C3C2300204C5601087047000050
:10234000704700007047000070B504464FF47A767D
:102350004CB1412C254628BF412506FB05F0641BE6
:102360000FF036FCF4E770BD70B5044641F6641614
:1023700044B1B442254628BF35462846641B0FF0B9
:1023800027FCF5E770BD0000002310B5934203D091
:10239000CC5CC4540133F9E710BD0000013810B51E
:1023A00010F9013F3BB191F900409C4203D11AB1B1
:1023B0000131013AF4E71AB191F90020981A10BDE1
:1023C0001046FCE70138013910F9013F11F9012FDE
:1023D0000BB19342F8D0981A7047000003460246AA
:1023E000D01A12F9011B0029FAD1704702440346A2
:1023F000934202D003F8011BFAE770472DE9F84336
:102400001F4D14460746884695F8242052BBDFF836
:1024100070909CB395F824302BB92022FF214846B8
:102420002F62FFF7E3FF95F824004146C0F1080250
:1024300005EB8000A24228BF2246D6B29200FFF7E9
:10244000A3FF95F82430A41B17441E449044E4B223
:10245000F6B2082E85F82460DBD1FFF71FFF0028B5
:10246000D7D108E02B6A03EB82038342CFD0FFF77A
:1024700015FF0028CBD10020BDE8F8830120FBE741
:10248000DC500020024B1A78024B1A70704700BFD4
:102490001C5100203023002038B51A4C1A4D20461C
:1024A0000EF0E0FC294620460EF008FD2D684FF4A2
:1024B0007A70D5F89020D2F8043843F00203C2F8BD
:1024C0000438FFF741FF114928460EF005FED5F804
:1024D00090200F4DD2F80438286823F002030D49EC
:1024E000A042C2F804384FF4E1330B6001D00EF083
:1024F0001FFC6868A04204D00649BDE838400EF0D1
:1025000017BC38BD10620020C8850108D0850108BD
:1025100034230020045100200C4B70B50C4D0446B0
:102520001E780C4B55F826209A420DD00A4B0021FC
:1025300018221846FFF75AFF0460014655F8260096
:10254000BDE870400EF0F4BB70BD00BF1C51002010
:10255000342300201062002004510020F8B571B629
:10256000002301201A4619460DF0AEFD04468020D6
:102570000FF0DCFF002849D00025254A80274FF4C2
:10258000D06C3D26136913F0C06F26D1D2F81031FC
:1025900013F0C06F21D1236805F1006199602368B1
:1025A000D86023685F602368C3F800C021680B68A7
:1025B00043F001030B6021680B6823F01E030B60DE
:1025C00021680B68DB07FCD4237B8035616806FA41
:1025D00003F3B5F5001F0B60D4D120460DF0AAFD22
:1025E000B5F5001F11D000240A4E0B4D01200FF04D
:1025F000FDFE3388A34205D92868204401340FF03A
:102600003BFEF6E700200FF0F1FE61B6F8BD00BF1B
:10261000002000521E510020D85000202DE9F34721
:102620000D46044600219046284640F27912FFF7F5
:10263000DDFE234620220021284604F122070CF06B
:1026400027FE231D022220212846C0260CF020FE52
:10265000631D0322222128460CF01AFEA31D03222B
:10266000252128460CF014FE04F10803102228212D
:1026700028460CF00DFE04F11003082238212846EC
:102680000CF006FE04F111030822402128460CF04C
:10269000FFFD04F112030822482128460CF0F8FD42
:1026A00004F114032022502128460CF0F1FD04F11E
:1026B00018034022702128460CF0EAFD04F12003A3
:1026C0000822B02128460CF0E3FD04F12103082282
:1026D000B82128460CF0DCFD314608363B4608227E
:1026E000284601370CF0D4FDB6F5A07FF4D194F85C
:1026F0003230314604F1330A00268DF807300822C3
:102700000DF1070328460CF0C3FD9DF807304FEA92
:10271000C6099E4209F5A47720D394F83231502B94
:1027200028BF50238DF80730B8F1000F08D1394683
:1027300009F24F170DF10703072228460CF0A8FDF8
:10274000002604F233149DF8073007EBC6019E42C1
:102750000DD30731C80802B0BDE8F0870AEB0603C5
:1027600008223946284601360CF092FDCDE7A31920
:102770000822284601360CF08BFDE4E713B5044629
:10278000084600212022234601900160C0F8031072
:102790000CF07EFD231D0198022220210CF078FD13
:1027A000631D0198032222210CF072FDA31D0198E4
:1027B000032225210CF06CFD019804F1080310227E
:1027C00028210CF065FD072002B010BD2DE9F34172
:1027D0000D4604460021164628467B22FFF706FEDA
:1027E00023460322002128460CF052FD637805227F
:1027F00003211F2B284628BF1F238DF806300DF11B
:1028000006030CF045FD0123DF0003F101089DF8EC
:102810000620013B9A421CD894F821305A2B28BF3D
:102820005A238DF807303EB9394607370DF10703B3
:10283000072228460CF02CFD002622349DF8073094
:1028400007EBC6019E420DD30731C80802B0BDE8B0
:10285000F08104EB08030822394628460CF018FDE5
:102860004346D1E7A3190822284601360CF010FD93
:10287000E4E70000F7B5047F05460E462CB1838AD5
:10288000122B02D9012003B0F0BD002307222846F5
:10289000009619460CF0C0FB731C0122072100931F
:1028A000284600230CF0B8FBD4B9B31C052208213C
:1028B0002846009323460D240CF0AEFBB378102B72
:1028C000E0D83746BB1BB278934210D307342B7F36
:1028D000A88AE408B3B9844294BF00200120D2E75B
:1028E000AB8A0824DB00083BDB08B370E6E7FB1C7F
:1028F00021460822284600930023083401370CF0B3
:102900008BFBDFE7201A18BF0120BCE7F7B5047F77
:1029100005460E462CB1838ACA2B02D9012003B08A
:10292000F0BD002308222846009619460CF074FBDF
:10293000731CD4B90822009323461024114628465C
:102940000CF06AFB7378C82BE8D801235F1C7278FF
:10295000013B934210D307342B7FA88AE408B3B914
:10296000844294BF00200120D9E7AB8A0824DB0011
:10297000083BDB087370E5E7F31921460822284677
:10298000009300230CF048FB08343B46DEE7201A96
:1029900018BF0120C3E70000F7B50D46044600212B
:1029A000164628468122FFF721FD234608220021F2
:1029B00028460CF06DFC94F901206378002AB8BF1A
:1029C0007F238DF807309EB90F270DF107030722EB
:1029D000082128460CF05CFC002602349DF80730E4
:1029E00007EBC6019E4205D30731C80803B0F0BD0E
:1029F0000827F1E7A3190822284601360CF048FC05
:102A0000ECE70000F7B50E460546002114463046B7
:102A1000CE22FFF7EBFC2B462822002130460CF09B
:102A200037FC2B7AC82B28BFC8238DF807308CB908
:102A300030240DF107030822282130460CF028FC31
:102A40002F467B1B9DF80720934205D3E01DC0084D
:102A500003B0F0BD2824F3E707F10903214608225B
:102A60003046083401370CF013FCEAE7F7B5047F71
:102A700005460E4634B1838AB3F5827F02D9012020
:102A800003B0F0BD012310220021284600960CF06F
:102A9000C3FADCB9B31C092210212846009323464F
:102AA00019240CF0B9FA7388B3F5807FE7D837465C
:102AB000BB1B7288934210D307342B7FA88AE4088B
:102AC000B3B9844294BF00200120D9E7AB8A102417
:102AD000DB00103BDB087380E5E73B1D2146082245
:102AE000284600930023083401370CF095FADFE7FD
:102AF000201A18BF0120C3E730B50A44084D91429F
:102B00000DD011F8013B5840082340F30004013B6D
:102B10002C4013F0FF0384EA5000F6D1EFE730BDFC
:102B20002083B8ED10B50144074C884209D010F855
:102B3000013B83EA122334F8133083EA022292B273
:102B4000F3E7104610BD00BF5C560108F7B5384AE0
:102B50006B46106851686A4603C3082335493648F6
:102B600011F04AFB0446002833D10A25334A6B464C
:102B7000106851686A4603C3082331492E4811F092
:102B80003BFB0446002849D00369B3F5E01F45D854
:102B9000B0F8661040F2374291423FD1294A0244D0
:102BA00002F15C018B4239D35C3B234900209E1A21
:102BB000FFF7A2FF04F16401074632460020FFF749
:102BC0009BFFA3689F4229D1E368984208BF002574
:102BD00024E00369B3F5E01F27D8418B40F2374268
:102BE000914220D1174A024402F110018B4218D3BE
:102BF000103B114900209D1AFFF77EFF04F11801D8
:102C000006462A460020FFF777FFA3689E4202D1BE
:102C1000E368984201D00D25A8E70025284603B0B7
:102C2000F0BD1025A2E70C25A0E70B259EE700BF0D
:102C30005C580108DCFF1B0000000408655801080F
:102C400090FF1B000800FCF707B5074A6B461068A9
:102C500051686A4603C308230449054811F0CCFAB9
:102C600003B05DF804FB00BF5C580108DCFF1B00EB
:102C70000000040810B50B68044608469B682160F4
:102C80009847204610BD000010B504460068036850
:102C9000DB689847204610BD70B5002604460D46F7
:102CA000C0E9026601200FF079FCB04220602046A6
:102CB00008BF35462674656070BD000010B5037C02
:102CC000044613B900680FF06DFC204610BD0000EB
:102CD0000023BFF35B8FC360BFF35B8FBFF35B8FDA
:102CE0008360BFF35B8F7047BFF35B8F0068BFF3F8
:102CF0005B8F704770B505460C30FFF7F5FF044653
:102D000005F108063046FFF7EFFFA04206D96D68CF
:102D10003046FFF7E9FF2544281A70BD3046FFF71B
:102D2000E3FF201AF9E7000070B505464068A0B13E
:102D300005F10C0605F10800FFF7D6FF0446304602
:102D4000FFF7D2FF844204F1FF34304694BF6D6830
:102D50000025FFF7C9FF2C44201A70BD38B50C467A
:102D60000546FFF7C7FFA04210D305F10800FFF7A3
:102D7000BBFF04446868BFF35B8FB4FBF0F100FB5A
:102D800011440120AC60BFF35B8F38BD0020FCE72D
:102D90002DE9F041144607460D46FFF7C5FF844272
:102DA00028BF0446D4B1B84658F80C6B4046FFF72C
:102DB0009BFF3044286040467E68FFF795FF331A3A
:102DC0009C4203D801206C60BDE8F081A41B6B60BD
:102DD0003B682044AB60E8600220F5E72046F3E75B
:102DE00038B50C460546FFF79FFFA04210D305F10A
:102DF0000C00FFF779FF04446868BFF35B8FB4FBF6
:102E0000F0F100FB11440120EC60BFF35B8F38BD93
:102E10000020FCE72DE9FF418846694607466C46DD
:102E2000FFF7B6FF002506B204EBC606B4420AD08F
:102E3000626808EB050120680834FFF7A5FA54F82A
:102E4000043C1D44F2E729463846FFF7C9FF2846EF
:102E500004B0BDE8F0810000F8B505460C300F461F
:102E6000FFF742FF05F1080604463046FFF73CFF36
:102E7000A042304688BF6C68FFF736FF201A3860E2
:102E800020B12C683046FFF72FFF2044F8BD00002A
:102E900073B5144606460D46FFF72CFF8442019099
:102EA00028BF0446DCB101A93046FFF7D5FF019BDE
:102EB00033B93268C5E90233C5E9002401200CE0CA
:102EC0009C42286038BF0194019884426860F5D91B
:102ED0003368241A0220AB60EC6002B070BD20465B
:102EE000FBE700002DE9FF410F4669466C46FFF7FE
:102EF000CFFF00B2002604EBC005AC4209D0D4F8E5
:102F00000480B81954F8081B42464644FFF73CFABF
:102F1000F3E7304604B0BDE8F081000038B505465F
:102F2000FFF7E0FF044601462846FFF717FF20465B
:102F300038BD00001FB504464FF0FF331046217026
:102F40006261A36139B9042301220621009303AB16
:102F5000039207F0D3FF204604B010BD38B50D1E14
:102F600004464FF000024FF0020014BF022101217D
:102F700007F028FE294602462046FFF7DBFF2046E1
:102F800038BD000010B504464069421C01D007F06E
:102F90003DFCA069431C01D007F038FC204610BD61
:102FA0001FB54069431C0ED00123042240F6FF7177
:102FB000039303AB009207F0A1FF013018BF01207B
:102FC00005B05DF804FB0020FAE700004069431CEF
:102FD00002D0202307F0B8BD704700001FB540693C
:102FE000411C09D00123202240F6FF7103930423E2
:102FF000009303AB07F082FF05B05DF804FB00000F
:1030000010B5846988B00023621CCDE9023302D177
:103010004469621C20D008AA630904F01F0002EB77
:1030200083030122824043F8182C4FF47A72002364
:10303000B1FBF2F002FB1011514304AACDE90403E5
:103040000691601C009202A91A4607F0F5FD431E86
:103050005842584108B010BD1846FBE72DE9F04131
:103060000F468CB0194604469046FFF7C9FF30B9A9
:1030700011F0ACF80B2303604FF0FF3542E0A56977
:10308000102304AE102202936B1C4FF00001304657
:1030900008BF6569FFF7AAF902AB424628463946E0
:1030A000CDE90063082307F079FC051E24DD221D0D
:1030B00008AF3346083203CBBB4242F8080C42F853
:1030C000041C1E46F5D1A36901331BD0102303AAAB
:1030D00039466069039307F00DFF0028CCD163687F
:1030E00023F0FF02089B23F0FF039A420AD1A26853
:1030F000099B9A4206D1BFE723781BB9237F0BB106
:1031000005B9257728460CB0BDE8F08108B54069BF
:10311000431C05D007F018FCB0FA80F0400908BD48
:103120000020FCE77FB543690446013303D1002446
:10313000204604B070BDFFF763FF0028F7D01023CE
:1031400002AA211D6069029307F078FA431C054624
:10315000EDD0202008F06CFC04460028E8D00023C5
:1031600001264561062103704FF0FF333246039676
:10317000836104232846009303AB07F0BFFE20467B
:103180002677FFF70DFFD3E708B5486800F0A0FAEF
:1031900000F10050B0F1805F2CBF0020012008BD7D
:1031A00013B50C460092019000F092FA009B224663
:1031B00001A90190022008F085F802B010BD0000BE
:1031C000002307B5014601AA0220019308F096F8F2
:1031D000019800F07DFA03B05DF804FB70B5164667
:1031E000184610220D4600211C46FFF7FFF8304616
:1031F00000F06AFA0223608028466370FFF7E0FF60
:1032000000F066FA606070BD2DE9F04143698EB050
:103210000446013304D1002528460EB0BDE8F081F4
:10322000012306AD03932B46FFF7D8FF2378002B2D
:1032300040D029462046FFF7A7FF80B30221002295
:10324000084607F0BFFC431C0746A061E3D00AAE66
:103250004FF0000895E80F0086E80F00042203AB4A
:1032600040F6FF7138460092CDE9048807F046FE2B
:1032700010223146A06907F08FFA013049D0079B30
:103280004046049300F024FA0823059003224146A7
:10329000009304ABA06907F031FE013039D02378E8
:1032A00043B1079B013305D12046FFF797FE204627
:1032B000FFF776FE10222946606907F005FB0646F7
:1032C0000028A8D10123257823774DB3079B01332C
:1032D000A2D110270AA960690DEB0702049707F035
:1032E00009FE02213246084607F06CFC0346A06145
:1032F00001330ED0042203AB40F6FF71009207F0B9
:10330000FDFD3A460AA9A0690B9607F045FA01307F
:1033100082D1A06907F07AFA4FF0FF33A3617AE710
:103320001D4679E71FB54369044601330FD06B464C
:10333000FFF754FF2046FFF733FE1022694660690D
:1033400007F02AFAB0FA80F0400904B010BD00205E
:10335000FBE7000070B586B005460C46FFF73EF867
:103360001128024621D1294601A810F0BBFF651E95
:10337000002305340E4E6A460D4901A88DF815301C
:10338000009311F001F880B11022002111F0FEF835
:10339000FF280AD805F8010F6A463146002010F0D0
:1033A000F3FFAC42EFD1012000E0002006B070BD79
:1033B0006455010808B50B460146014809F0CCFBED
:1033C0007058010807B5064B3C2201710549009071
:1033D00042F2F8100FF0EAF803B05DF804FB00BF0A
:1033E000F53500088058010870B5064694B01546BA
:1033F00031BB026822B35B0722D44A2201A8FEF740
:10340000F5FF42F63413287BADF804302B68CDF875
:103410000A3009F075FC04460246291D0DF10E0024
:10342000FEF7B2FF4FF6FF72A11D02A8FFF77AFB6D
:1034300004F10A02ADF8060001A93068FFF7C6FDE5
:1034400014B070BDFFF7D0BF2DE9F04105469CB028
:103450005F490620FEF724FA2B79DB0768D5202088
:1034600008F0E6FA044610B10121FFF777FD2C6061
:10347000002C5DD1224657490320FEF711FA564F22
:103480006420FEF771FF28680028F9D000234A2243
:1034900009A9FFF7E3FDA0F10B0306463F2B26D851
:1034A000BDF8242042F634139A42E9D1011F4FF6A9
:1034B000FF720AA8FFF736FBBDF826308342DFD142
:1034C000A6F10A030022DDF82A1005A8DBB200925B
:1034D0000DF12E0209F0F4FB26683046FFF724FCBC
:1034E0000F2804D9102205A93046FFF793FC0023CA
:1034F0000593ADF82030CDE90633D4F800801022D2
:1035000005A94046FFF7EEFC10280646B8D109F0A1
:1035100031FB042310F5FA623846009341F10003B1
:1035200005A909F075FB31464046FFF717FCE4E7B3
:103530002A4A09AB1068516803C3906818600023D9
:1035400009A88DF81430FEF749FF1CAB4EF2841227
:1035500009A91844302300F84D3C2868FFF754FEB1
:10356000024670B91E490320FEF79AF92C682CB167
:103570002046FFF707FD204608F060FA00242C6083
:103580007DE7184B2946174A049305AB124803956B
:1035900009F020FB024608B91349E4E7134A082062
:1035A000936843F01003936008F042FA044660B158
:1035B000142008F03DFA064618B14FF4A871FFF741
:1035C0006BFB00232660237159E702460849CAE7CE
:1035D0008C580108A0580108003C0020345901080B
:1035E000C758010845340008E85801080080024027
:1035F0000A59010808B5FFF727FF0000F8B50120B8
:10360000002301334000DBB20E2BFAD10EF0C2FFD3
:1036100000284CD0264A0623C2F89830254BC2F821
:103620009C00C2F8A0300523C2F89430536A43F4DA
:10363000803353620023C2F88430BFF34F8FD2F837
:10364000803043F6E075C3F3C904C3F34E335B0126
:1036500003EA0507214647EA81760139C2F8746218
:10366000F9D2203B13F1200FF2D1BFF34F8FBFF3FC
:103670006F8F114B00F140021860104B1A6000F17F
:1036800060020F4B1A6000F254625A6000F6484222
:103690009A6000F591521C32DA6000F5C15300F5D2
:1036A000F150084A10330430136050600120F8BD17
:1036B00000ED00E01B000C03305100203C510020C5
:1036C000205100203451002040BA80B270470000E1
:1036D00000BA70476FF00B007047000010B5044649
:1036E00028B90F4A40F299310E48FFF763FE94F86B
:1036F000313003F00502052A10D1226872B11A0791
:1037000003D52146204605F01FF894F831309B067A
:1037100004D52046BDE8104005F092BB10BD00BFA7
:10372000405901086459010873B5044616460D4610
:1037300029B9114A4FF4EE711048FFF73BFE236898
:103740002A689A4201D1002014E0336001A9304672
:10375000019201F04FF901A9304604F021FE2B68D7
:10376000012120462360FFF7B9FFA3690BB1204672
:103770009847012002B070BD4059010888590108DE
:103780007047000010B5044607F0A2FF014B1C6013
:1037900010BD00BF4451002010B5044607F098FF4B
:1037A00054B1064B186830B190F834300133DBB2B5
:1037B000A34218BF002010BD2046FCE74451002062
:1037C00010B5044607F084FF0CB9002010BDA01C02
:1037D00010F0EAFC10F0FF0303D194F90220302A24
:1037E000F3D10A4A10680028EFD090F834209A42AA
:1037F000EBD194F9002090F932309A42E5D194F956
:10380000012090F933309A42DFD1DFE744510020A4
:103810000C4B2DE9F0410E4617461C68054628B9A9
:10382000094A40F247710948FFF7C4FD0CB9BDE8E9
:10383000F081D4E900383A46314628464446984754
:10384000F4E700BF40510020405901089859010891
:103850002DE9F04387B099460E469046054607F09D
:1038600037FF2C4B002E08BF1E46B8F1000F08BFD3
:103870009846B9F1000F08BF99463368002B45D12F
:1038800002AF314628463A46FFF74EFF044688B35A
:103890000397102401276A68D8F8003093421EBFAE
:1038A000009244F040046B60AA68D9F8003018BF59
:1038B000CDF810D093421FD0AB6001AB44F0200490
:1038C000019205935FB90DF108083146284642463A
:1038D000FFF72AFFA8B144F01004CDF80C8044F0A3
:1038E000800487B103AA21462846FFF791FF07B05D
:1038F000BDE8F0830127CEE7002FE4D0002CF6D0FE
:10390000EDE7002CEBD144F48064EBE700273C4664
:10391000C1E700BFA87001082DE9F843DDF8249045
:10392000984604460E46174607F0D2FE224B1D6805
:103930004DB10025214A40F22D112148FFF73AFDF3
:103940002846BDE8F883002CFAD0B9F1000FF7D073
:103950001C4B20461C492361089B002F14BF3A468C
:103960000A46A56023620A9B2585E360B8F1000F33
:1039700014BF43460B4684F83150002E18BF314621
:103980006562A56384F83450C4E90055C4E906555E
:10399000FFF75EFF2046C8470028D1D194F83130A8
:1039A0009B0602D5204605F09BFA00220121204605
:1039B0002546FFF72DFFC3E7445100204059010879
:1039C000B0590108D5360008A87001081FB5044693
:1039D00007F07EFED4B194F83130DA0716D443F004
:1039E000010384F83130A3690BB1204698470123C5
:1039F000204601AA08218DF80430FFF709FF0321B2
:103A0000204604B0BDE81040FFF768BE04B010BD0A
:103A10001FB5044607F05CFEBCB194F831305A077C
:103A200013D443F004030321204684F83130FFF718
:103A300055FEE3690BB120469847012301AA0421F2
:103A400020468DF80430FFF7E3FE04B010BD0000FF
:103A50001FB5044607F03CFE9CB194F831305A077C
:103A60000FD523F0040384F83130E3690BB120460D
:103A70009847002301AA042120468DF80430FFF75F
:103A8000C7FE04B010BD000008B507F055FF084B95
:103A900000221A7007F058FF064B186800B908BDDD
:103AA000436F1BB1BDE8084000F06ABEC068F5E78F
:103AB000485100204C51002038B560B9144A4FF4E9
:103AC000F1711448FFF776FC01201FE0002AFBD0BB
:103AD0004268511A14E0B1F5803FF5D2A9B10389CB
:103AE0008CB213FA81F39BB29C42EDD890F90C5042
:103AF000002DEBDA4268511A00F110029142E3D333
:103B000042894160144403814481002038BD00BFD4
:103B1000CC590108AE5A010822F04003012B70B5C0
:103B200006460D46144605D0094A4FF4A5710948CA
:103B3000FFF740FC0D2009F08DFA40B1002305810C
:103B4000458143730473C0E900360123C38170BD0E
:103B5000CC590108F0590108033020F0030070B57A
:103B60000E18BDF81450049CAE420DD804B10444A4
:103B700018460023C0E900340223018141814373C8
:103B800001230273C38170BD0020FCE70022FFF710
:103B900093BF000010B538B90C4A40F24E210C48D2
:103BA000FFF708FC012010E0B1F5803FFAD259B1CF
:103BB0008AB243899A42F5D89B1A446843812144CA
:103BC000038941609B1A0381002010BDCC59010874
:103BD000AE5A01080B1E02DA5942FFF7DBBF012281
:103BE000FFF76ABF2DE9F047044648B92546294A40
:103BF00040F2DE212848FFF7DDFB2846BDE8F087CC
:103C00000025244FDFF89880DFF8989007F094FEA5
:103C1000A37B82462BB93A4640F2F3214046FFF798
:103C2000C9FBA67B5046013EF6B2A67307F08CFE98
:103C3000002EE2D1637B26689B0710D523692BB940
:103C40003A4640F201311548FFF7B4FB236920469C
:103C500098470135EDB2002ECFD03446D6E7237B0E
:103C600003F00F03022B04D121460E2009F0FEF9C8
:103C7000EFE7012B02D121460D20F7E71BB92046C3
:103C800009F094F9E5E73A4640F211314846FFF76A
:103C900091FBDEE7CC590108AE5A01081A5A010817
:103CA000045A01083B5A0108B2F5C17F2DE9F84FCB
:103CB00004460F4613D008D822F04003012B07D149
:103CC0000020BDE8F84FFFF727BFB2F5207F5BD09B
:103CD0003B4A40F227113B48FFF76CFB21E00026EE
:103CE00084B2DFF8DC903546DFF8ECA00E20B34656
:103CF00009F0B0F90646D0B9334C07F01DFE012398
:103D000027782370FFB207F01FFE4FB931462F48C6
:103D100007F09EFB20B107F00FFE267007F014FE9F
:103D20000DB900252BE02846FFF75CFFF9E7E31CFF
:103D300004440021264A23F0030313340160C3F531
:103D4000807824F0030407811FFA88F84460C26079
:103D5000B84528BFB846B3F5807FA0F80A8005D1E2
:103D60004A464FF481715046FFF724FB55B1CBF81A
:103D70000060A7EB08070024BFB2002FB6D1284689
:103D8000BDE8F88F3546F4E7CB1C033023F003037E
:103D900020F00300184410308342C2D809F0ECF838
:103DA00005460028EBD00444002307811334036048
:103DB000084B24F003044781C3604460DFE700BF81
:103DC000CC590108845A010848510020893A00085A
:103DD0008200010080000100505A01082DE9F041E5
:103DE0000D46044628B9234A4FF4CC712248FFF708
:103DF000E1FA2389AB423BD9EE1A1E4FDFF88480EB
:103E00006389AB421BD3227B120729D1AB4227D057
:103E1000637B9B0724D461682046091B294409F071
:103E2000A9F8D8B9134A40F2BD111448FFF7C2FAF5
:103E3000104A40F2BF111248FFF7BCFA10E0ED1A29
:103E400023893344ADB223812468002CD8D13A466B
:103E500040F2AF114046FFF7ADFAD1E78442E7D117
:103E600020686581258108B1FFF7BCFE002323602F
:103E7000BDE8F081CC590108A05A0108D05A0108C8
:103E8000EC5A0108B85A0108F8B50D460446002658
:103E900085B17CB16189A94208D827686D1A20468E
:103EA0002660ADB23C46FFF79DFEF1E7294620466D
:103EB000FFF770FE2046F8BD0346002290B20132A3
:103EC00003B970471B68F9E710B5044680B107F0E5
:103ED00033FDA37B0133A37307F036FDA37B3BB90E
:103EE000044A4FF451710448BDE81040FFF762BA2C
:103EF00010BD00BFCC590108085B010838B50D465C
:103F0000044600B121B938BD29890B4423811446E8
:103F100022682389002AF7D162899A420DD00A4A81
:103F20004FF459710948FFF745FA23682BB1064A47
:103F300040F265310648FFF73DFA2A89238925605A
:103F400013442381DFE700BFCC5901081C5B010843
:103F5000495B010810B50C46FFF7D0FF2046BDE8CD
:103F60001040FFF7B1BF00002DE9F84F0546164697
:103F70001F460C46002947D00B89934244D30028A2
:103F800042D00289BB199A423EDB4FF00008DFF8AD
:103F9000C090DFF8C0A0B5F80AB06289ABEB070BA0
:103FA0006868A2EB0802616838449345414428BF21
:103FB0009346B34528BFB3465A465F44FEF7E4F93B
:103FC0006B89A6EB0B06D844BB42B6B205D24A4673
:103FD00040F2F7311D48FFF7EDF96389434505D2FB
:103FE0004A464FF47E715046FFF7E4F96389434532
:103FF00004D8246804B93EB94FF000086B89BB426D
:1040000020D12D68EDB9C6B16FF00F0010E0374632
:10401000628923899A4201D123685BB92DB16A89EB
:104020002B899A4201D12B6823B9002EB3D1304697
:10403000BDE8F88F6FF00500FAE7002CE7D12046C5
:10404000F6E70027002CE3D1E9E700BF5C5B01083D
:10405000CC590108735B010819B100230A89FFF7E5
:1040600083BF6FF00F0070472DE9F0410F46904677
:10407000054618B321B30026B8F1000F00D015B9DA
:104080003046BDE8F0816C892BB1A34203D31B1BE2
:104090009BB22D68F0E7E41A6968B819A4B2194414
:1040A000444528BF444622462644A8EB0404FEF7B4
:1040B0006BF9B6B200231FFA84F8EAE70646DFE799
:1040C0000E46DDE738B515460A462989FFF7ECFDAF
:1040D000044648B12946FFF7BFFF28B1034A40F222
:1040E00043510348FFF766F9204638BDCC59010813
:1040F000905B0108F0B5124C4FF480404FF6FF760C
:10410000238801330F4D04229BB2B34208BF4FF402
:10411000404355F8041B096831B9013A12F0FF0217
:10412000F7D11846238007E0CF8A9F4205D1013896
:1041300080B20028E5D12380F0BDC968ECE700BF5C
:1041400058230020B460010808B507F089FA6FEA27
:104150008040024B6FEA9040188008BD5823002031
:1041600010B5037D0446012B04D1054AD42105482E
:10417000FFF720F921460120BDE8104008F076BF86
:10418000A45B0108C65B010810B5044628B90F4AB4
:104190004FF494710E48FFF70DF907F099FA638B0D
:1041A0009B0511D4E36F7BB15A7F01325A77E36FDD
:1041B0005B7F2BB9054A40F22D110648FFF7FAF84C
:1041C000638B43F40073638310BD00BFA45B0108DD
:1041D000D85B0108E45B010810B5044628B90F4A12
:1041E00040F23F110E48FFF7E5F807F071FA638BD4
:1041F0009B0511D5E36F7BB15B7F2BB9074A40F27A
:1042000043110848FFF7D6F8E26F537F013B53771D
:10421000638B23F40073638310BD00BFA45B0108AC
:10422000D85B0108E45B010810B5044628B9174AB9
:104230004FF4CE711648FFF7BDF8237D042B11D043
:10424000072B1BD0032B0BD1204603F0FBF870B9D2
:104250002046FFF7C1FF05232046237503F038FAF7
:10426000002010BD204603F0EDF80028F3D0431CD9
:10427000F7D1638B43F008036383F1E7204603F033
:10428000E1F80028F3D10923E6E700BFA45B0108A9
:10429000D85B0108F8B50E460546144607F018FA33
:1042A0001B4B002E08BF1E4645B32B7D4BBB34B9BC
:1042B000FFF720FF044650B96FF0010012E01549E6
:1042C00051F8042B126872B90133042BF8D133680A
:1042D00003B12B60104BEC821A681D60EA6003F09A
:1042E000C1FC0020F8BDD08AA04205D117685FB19B
:1042F000306848B1874207D0D268E4E76FF00F001A
:10430000F0E76FF00500EDE76FF00700EAE700BFA8
:10431000A8700108B46001085451002038B50C465B
:10432000054607F0D5F91CB194F834400134E4B2E5
:104330002C7238BDF8B505460E46174607F0C8F989
:10434000002D4CD02B7D002B4DD1022008F082FE99
:10435000044600284BD02B690361EB8AC3820123FA
:1043600003756B7D43756B7A43722B7A0372EB7A1C
:10437000C372AB7A83722B680360EB8A3BB11D4A30
:104380001368AB4223D1EB6813600023EB6028462F
:10439000FFF7E6FE184BA36100236377237D012B13
:1043A00005D0164A4FF465711548FFF703F8154B11
:1043B000012E1A6838BF01261C602677E26003F0E0
:1043C00051FC002307B13B702046F8BD1346002B7B
:1043D000DBD0DA68AA42F9D1EA68DA60D5E72C4680
:1043E0006FF00F03EEE76FF00E030024EAE74FF0E3
:1043F000FF33E7E75451002099490008A45B010806
:10440000FC5B010858510020F8B5044628B9134A4E
:1044100040F2AA311248FEF7CDFF228D41F27076AC
:10442000E36A678E656AD01AB742284494BFC11BFD
:10443000811B002901DB6285F8BD5D1B02D50020D0
:104440006085F9E7B5F5803F05D3044A40F2BA31FB
:104450000448FEF7AFFF00206585EDE7A45B010887
:104460002C5C0108505C010838B505460C4607F085
:104470002FF92DB32B7D012B05D1124A40F2D631F5
:104480001148FEF797FF2A8D42F6E063111989B2B1
:10449000994213D88A4288BF194628462985FFF7D2
:1044A000B3FF40F6B73398420AD96B8B284643F0E6
:1044B00002036B83BDE8384003F00AB91946ECE704
:1044C00038BD00BFA45B01086C5C010810B5044650
:1044D00048B1406808B1FFF785FB21460320BDE8DD
:1044E000104008F0C3BD10BD10B500B910BD046880
:1044F000FFF7ECFF2046F8E738B5044628B90D4A27
:1045000040F286610C48FEF755FF032008F0A2FD3B
:10451000054660B12346024604F1100153F8040B2E
:104520008B4242F8040BF9D16868FFF7CDFC2846AE
:1045300038BD00BFA45B0108945C010838B504468F
:104540000D4607F0C5F804B1256138BD38B50446FD
:104550000D4607F0BDF854B1237D012B05D1044A67
:104560004FF4FD610348FEF725FFC4F8845038BDC1
:10457000A45B0108B05C010838B504460D4607F09D
:10458000A7F854B1237D012B05D1044A40F2FC71F8
:104590000348FEF70FFFC4F8805038BDA45B010844
:1045A000D85C010838B504460D4607F091F854B1BF
:1045B000237D012B05D1044A40F616010348FEF77E
:1045C000F9FEC4F8905038BDA45B0108005D0108F5
:1045D00038B504460D4607F07BF81CB1237D012B4E
:1045E00008BFA56138BD000070B504460E461546EB
:1045F00007F06EF85CB1237D012B05D1044A40F62B
:1046000048010448FEF7D6FEC4F88C60657770BD9B
:10461000A45B0108285D010808B528B9064A40F6E0
:10462000B9010648FEF7C6FE054B064A186812682F
:104630001044186008BD00BFA45B0108485D010874
:10464000542300205C51002038B504460D462AB999
:10465000094A40F6CF010948FEF7ACFE4DB12B8D5B
:104660003BB1282B8ABF283B00239BB29C4228BF2A
:104670001C46204638BD00BFA45B0108645D0108EC
:10468000F8B504460D4616461F4607F021F8002CE3
:1046900065D0002D63D0237D002B63D12B68207A59
:1046A0006360268380B3FFF777F8054600285CD067
:1046B00023680BB903682360E68A4EB32046FFF7F0
:1046C000ABFF00232A4A294620650138E362606473
:1046D000C4E90932C4E9160042F6E0634FF40670FB
:1046E000221DA4F860306086FFF7AEFF01236086CC
:1046F00002212046A4F84830C4F8887002F016FE63
:10470000054668B12846F8BD201D04F043FDCCE7FE
:10471000FFF7F0FCE0820028D0D16FF00105F1E74F
:10472000022323752EB1134A1368A3420FD1E36805
:104730001360114B1A681C60E26003F093FA0F4B90
:10474000012220461A7002F0C3FFDBE71346002B5C
:10475000EFD0DA68A242F9D1E268DA60E9E76FF0F7
:104760000F05CFE76FF00905CCE76FF00305C9E748
:10477000E02EE02E545100204C51002050510020DA
:1047800010B50446406F18B1FFF7AEFE0023636713
:1047900010BD000010B50446F8B1037D012B1CD9F3
:1047A0000A2B1AD0FFF718FDA06F18B1FFF71AFAFD
:1047B0000023A367636F13B12046FFF7E1FF4FF6B5
:1047C000FF73E06E2386FFF78FFE206FFFF78CFEEE
:1047D0000023C4E91B33A4F8683010BD38B5054682
:1047E0000C4629B9274A40F68D012748FEF7E2FD1D
:1047F0002DB9244A40F68E012448FEF7DBFD2B68D4
:10480000A3421DD1E3682B6000232046E360FFF73D
:10481000C1FF237D0A2B1BD1E36E5BBB236F2BB142
:10482000184A40F69E011A48FEF7C4FD636FEBB1CB
:10483000144A4FF40A611748FEF7BCFD16E0134610
:10484000002BE1D0DA68A242F9D1E268DA60DBE756
:10485000012B0BD0638BDA07DED543F00203204631
:10486000638302F035FF237D012BD5D1002323750F
:10487000E38238BD034A40F69D010748FEF79AFDE2
:10488000CCE700BFA45B01088C5D0108A85D0108AE
:10489000E05D0108F95D0108C85D01082DE9FF47E9
:1048A00004460E4606F014FF002C61D0237D012B38
:1048B00005D1314A4FF410713048FEF77BFD237D5E
:1048C0000A2B09D121462E48FFF788FF204604B065
:1048D000BDE8F047FFF744BCD4F85090D4F824A0CA
:1048E000D4F89070D4F81080E58A9BB93DB1254A80
:1048F0001368A34206D1E36813600025E5602E46E5
:104900000FE01346002BF8D0DA68A242F9D1E26832
:10491000DA60F2E721461C48FFF760FF1B4B0122DB
:104920001A70206F08B1FFF7DFFDE06E08B1FFF7E6
:10493000DBFD606F08B1FFF7D7FD2046FFF74CFCA9
:1049400056B1238B524649462046CDE90153231DDB
:104950000093234602F050FE2046FFF701FC3FB1D2
:104960006FF00C0140463B4604B0BDE8F0471847E5
:1049700004B0BDE8F08700BFA45B0108105E010829
:1049800064510020545100204C510020505100200F
:104990000121FFF783BF000010B50C4629B9064A74
:1049A0004FF444710548FEF705FD2046FFF7F0FF80
:1049B0006FF00C0010BD00BFA45B0108445E01084D
:1049C00070B50C46054628B9084A40F60A11084851
:1049D000FEF7F0FC04B970BD22682B68E6689A42C5
:1049E00002D12046FFF7D4FF3446F3E7A45B010869
:1049F000645E010838B50D46044680B1036873B1A2
:104A00000B4B1968FFF7DCFF0A4B20461968FFF7CC
:104A1000D7FF25B12B6813B1074B1B6803B938BD0D
:104A200019682268914204BF2A681A60DB68F5E7BA
:104A30004C51002054510020585100200C4B0022B2
:104A400030B4196804460B4B10461D6819B968B19B
:104A500030BCFFF723BF0B7DA34205D10B6AEB1AD5
:104A6000934224BF1A460846C968EFE730BC704736
:104A70004C5100205C510020F8B5044606F028FE99
:104A8000012008F0E7FA0346002836D13F4E30688F
:104A9000002857D13E4B01463E4D1B682F68002B26
:104AA0005BD108B1FFF774FF012008F0D3FA034689
:104AB00018BB0920FFF7C2FF012008F0CBFA03461C
:104AC000D8B90820FFF7BAFF012008F0C3FA03465F
:104AD00098B9220649D45CB12146013932680020D8
:104AE0002E68C9B2002A42D113B11846FFF750FF11
:104AF000012008F0AFFA034610B39C2218460021AB
:104B0000FDF774FC42F6E06203464475A0F86420A9
:104B1000214A8262FF22C2720622A0F84020C28788
:104B20001E4A02631B4A126802621D4A127882778B
:104B30001C4A82641C4AC0F884201C4AC0F8942095
:104B40001846F8BD438BC568190704D523F0080340
:104B50004383FFF769FB28469AE71A6ABA1A8A4222
:104B600024BF18461146DB6899E77F21B5E7577DDA
:104B70008F4204D307D1156A751B854203D3106A8F
:104B800039461346301AD268ACE700BF4C510020BA
:104B9000645100205C510020E02EE02EFFFF18023F
:104BA000615100200100E02E414D000800DD6D0044
:104BB0004020FFF761BF000030B50D4685B00446C8
:104BC00028B94A4A4FF4AF714948FEF7F3FB237DF9
:104BD000002D3FD0042B01D0072B3BD1A26F22B96F
:104BE000218D42F6E062914234D0638BDB0605D41E
:104BF0003E4A4FF4B2713F48FEF7DCFB238B204660
:104C00000293E38A0193231D00932346626A216D78
:104C100002F0F2FC2046FFF7BDFD374A1368A342BD
:104C200010D1E368136000230122E360334B1A7054
:104C3000334B1B68A3421DD101F060FE002005B07C
:104C400030BD1346002BEED0DA68A242F9D1E268FB
:104C5000DA60E8E7012B1AD0022B38D0002B3ED1C6
:104C6000E38A3BB1274A1368A34208D1E368136083
:104C70000023E3602046FFF773FADFE71346002BBB
:104C8000F6D0DA68A242F9D1E268DA60F0E71E49AC
:104C9000002051F8232012689AB90133042BF8D16F
:104CA00021461A48FFF79AFD237D012B04D10F4AB4
:104CB000DF211748FEF77EFB2146022008F0D6F9D7
:104CC000BCE7D56FAC4208BFD067D268E4E72146A5
:104CD0000948FFF783FD094B01221A70CAE72046F5
:104CE00005B0BDE83040FFF79FBA00BFA45B0108E4
:104CF000985E0108B85E01084C5100205051002018
:104D00009051002054510020B460010858510020F7
:104D1000D15E010810B5044606F0DAFC64B1237DCB
:104D200020460121012B1EBF638B43F010036383D8
:104D3000BDE81040FFF740BF6FF00F0010BD00004E
:104D400010B50846144669B13AB11189FFF78CFBDA
:104D50002046FEF747FF002010BD33B9BDE81040E4
:104D6000FFF7D8BF6FF00F00F6E71046F4E700003A
:104D7000F8B5044680B3866F0023D0F88450777B63
:104D80008367E5B1014632460069A8470546E8B9A0
:104D9000BB0612D5238D42F6E062D4F884609342BC
:104DA0001CBF0133238546B10023214620691A46E2
:104DB000B0470D3001D16FF00C052846F8BD014613
:104DC0002B4632462846FFF7BBFFDFE70D35F2D012
:104DD0006FF00405A667F0E76FF00F05EDE7000040
:104DE0002DE9F8431B4D1C4F2B781C4E01332B70C3
:104DF0003C684FF000080CB9BDE8F8832B78A27F1F
:104E00009A4224D0A377638BD90709D543F00203D4
:104E10002046638302F05CFC638B23F0030363830F
:104E2000638B1A0705D523F0080320466383FFF739
:104E3000FBF9A36FD4F80C903BB1204686F80080B4
:104E4000FFF796FF3378002BD2D14C46D3E7D4F846
:104E50000C90FAE7615100204C5100205051002085
:104E600070B505460E46144606F032FC1DB32B7D88
:104E7000012B19D096B16B8B43F010036B832CB1CF
:104E800001212846BDE87040FFF796BEA86F08B91B
:104E9000002070BDFEF7A6FEAC67F9E7002CF7D046
:104EA000042B04D8022B04D86FF00A00F1E7072B7B
:104EB000FAD10021E5E76FF00F00EAE72DE9F04FA6
:104EC0009E4D87B0DFF89C922B68DFF89C820133FF
:104ED0009B4E2B6099F80030013389F80030D8F8E8
:104EE00000B00027BBF1000F0CD1964E944F3468F0
:104EF000DFF87882DFF87892002C40F0DE8107B08E
:104F0000BDE8F08F9BF814202AB9324640F2C24126
:104F10008D48FEF74FFA9BF81420012A05D132463E
:104F200040F2C3418948FEF745FA9BF814200A2A4B
:104F300005D1324640F2C4418548FEF73BFA99F864
:104F400000209BF81E10914204D1DBF80C405F4614
:104F5000A346C7E79BF814108BF81E2002299BF884
:104F6000422040F09D80032A40F29C804FF0010ACD
:104F70009BF814C0BCF1060F0DD1BBF81A20D30664
:104F800009D52A68DBF82010521A282A84BF0AF1B2
:104F9000010A5FFA8AFA9BF8094014F008041CD051
:104FA000BCF1040F03D0BCF1070F40F04981DBF8DE
:104FB00020204FF4FA742868801ADBF8942002F558
:104FC000242101F6B841B1FBF4F1884240F2268178
:104FD0000AF1010A01245FFA8AFADBF874206AB147
:104FE0002A68DBF82010511ABBF9402002EB42027C
:104FF000B1EB420F02D35846FFF7C2FB9BF81420D7
:10500000032A40F01F812A68DBF82010521A282A50
:1050100003D8BAF1000F00F02B815846DBF890A0BE
:10502000FFF7B8FBD8F80020002F00F014815A4594
:1050300005D1324640F271514648FEF7BBF9DBF824
:105040000C20FA6084B1BBF818205B4658460292E7
:10505000BBF8162001920BF104020092DBF8242029
:10506000DBF8501002F0C8FADBF810205846DBF8E5
:105070000C400592FFF774F8DFF8F8B000218BF8C8
:105080000010BAF1000F09D0059A6FF00C0110461C
:10509000D0479BF80030002B7FF421AFBB4656E78A
:1050A0000B2A61E79BF899A0BAF1000F64D0DBF8F6
:1050B00070202AB132464FF49B612748FEF77AF9F7
:1050C000DBF86C202AB9324640F2D9412348FEF77A
:1050D00071F99BF89A200B2A3FF648AF9BF899107C
:1050E0001F4A0A4412F8011C9BF898208A420BD3ED
:1050F000BBF8601089B1584602F052F890B9584692
:1051000002F0E6FA30B10DE00132D2B28A428BF8F9
:105110009820EDD24FF0000A2AE7584602F0DCFC56
:105120000028F7D19BF899204FF0000A062A8BF847
:1051300098A0EFD801328BF8992019E75C51002034
:10514000A45B010864510020EC5E0108155F0108B2
:105150003E5F0108D15F01086A5F01089C5F01089A
:10516000C4600108615100204C51002026600108F4
:105170007C60010850510020BBF8302047F6FE71DA
:105180008A429CBF0132ABF83020BBF94020BBF90A
:1051900030109142BEDB584602F082F938B1DBF89C
:1051A0007020002AB6D1DBF86C20002AB2D09BF820
:1051B0001420022A14D0BBF93C10BBF93E205A48F7
:1051C00002EBE1029BF842100C2928BF0C21415C44
:1051D0008A4047F6FF718A42A8BF0A46ABF84020D2
:1051E000BBF860100024BBF84820BBF832C09142E5
:1051F000ABF83040ABF848C028BF11464FEA4C022C
:10520000ABF86A4092B24808B2EB510F98BF024621
:105210005846ABF84A2002F007FCA9E69BF89B1021
:10522000424B03FB0122B2FBF4F2904208D95846EC
:1052300002F02CFC20B99BF89B2001328BF89B20BC
:105240000024CAE6092A7FF4E4AE2A68DBF82010BD
:10525000521AF02ADCE65A4505D0324640F2755122
:105260003348FEF7A7F8DBF80C20C8F80020E9E681
:105270009BF81C209BF81D100132DBF80C40D2B2C9
:1052800091428BF81C203FF662AE2A4FDBF88C204F
:105290008BF81CA087F800A01AB9584602F018FA3B
:1052A00055E65946DBF8100090473A78002A7FF41B
:1052B00016AE00287FF44BAEEFE7227D0A2A05D018
:1052C0003A4640F2A5514046FEF774F82A68216A32
:1052D000521AF02A11D92046FFF75CFABBF1000FF1
:1052E0000ED13268A24205D03A4640F2B751484644
:1052F000FEF760F8E26832600EE0A346E468FBE582
:105300003268A24205D13A4640F2B3510A48FEF74C
:1053100051F8E268CBF80C20D4F80CA02046FEF738
:105320001FFF5446E8E500BFA4600108F82401000F
:10533000FC5F0108505100205560010808B5FFF7D7
:105340004FFD064A13780133DBB21370DB0703D538
:10535000BDE80840FFF7B2BD08BD00BF60510020A6
:10536000094A1388591C1180084A12681AB1084961
:1053700009888B4204D2074A12681344187D70478B
:105380005B1ADBB2D05C704794510020A051002022
:105390009C51002098510020F8B50C46054628B9CC
:1053A0001D4A40F22C411D48FEF704F8EB6898892D
:1053B000FEF78AF9C20714D4194EE76830682B89C2
:1053C0007968228903440A449A1A002A0FDACB1A10
:1053D000002B0ADA091A686889B22981FEF7FEFCF7
:1053E00003E020460024FFF77FF82C60F8BDB88961
:1053F000FEF76AF9C30707D5EB6801209F89FEF71E
:1054000063F9EB683843988127682046FFF75EF818
:105410003C46002FD1D1E8E7CC600108F1600108DB
:105420008C510020F8B5064628B91C4A40F2837119
:105430001B48FDF7BFFF1B4B1F8867B11A4D0023A8
:105440002B802B88BB4206D2FFF78AFF0128F8D0B9
:10545000022801D0C8B9F8BDFFF782FF0428FAD1AD
:105460002B880133BB42F6DAFFF77AFF0402FFF71D
:1054700077FFA4B244EA00039BB25A1EB2F5806FD4
:1054800028BF4FF480637386DBE7FFF769FF0128CD
:10549000E1D92B88023B18442880D2E7CC60010870
:1054A00018610108A45100209451002010B5044651
:1054B00028B90F4A40F25A210E48FDF77BFF0E4BE8
:1054C000187810F0100011D0638BDB0606D4D4F8E6
:1054D00090301BB16FF00E012069984721460748B4
:1054E000FFF77CF92046FEF73BFE012010BD00BF10
:1054F000CC60010834610108885100204C51002023
:105500002DE9F84F064617460C46DFF8A490DFF861
:10551000A8A0002C3AD0244B1D68E3685868FEF719
:10552000D7F8E268B4F8088083469089FEF7CCF893
:10553000A5EB080310F00300A3EB0B0518BF012037
:105540002D1A002D23DBD4E900B0FEF7B5FCB6F828
:1055500066300546834205D24A4640F264415046D1
:10556000FDF728FFB6F86600104A451B2046118853
:10557000A6F8665023890B441380FEF7A7FFB6F800
:10558000663073B1BBF1000F0BD11FB10024204670
:10559000BDE8F88F064A40F26E410648FDF70AFF63
:1055A000F4E75C46B5E700BF685100208051002059
:1055B000CC600108846101085C6101082DE9F84FA5
:1055C000044628B9374A40F287413748FDF7F2FED2
:1055D000237D032B05D8334A4FF491613348FDF7FF
:1055E000E9FE334B334E1B78334F13F0100F00F0AE
:1055F00095803268314DB4F860102B68D4E9150EEF
:10560000A0EB020CBCF1000F0CDB904203D1AEEB1F
:105610000300002806DB9E4513D129480068C08995
:1056200088420ED92648B4F862800068C0891FFA03
:1056300080FCA4F86000E045C4E9152338BFA4F855
:105640006200626CD01A0028C0F269813888002894
:1056500039D1B4F860C07144A06D6044884232D141
:10566000B4F9301000292EDB9A422CD194F8433043
:10567000FF2B1CBF013384F8433094F84330032BD5
:1056800020D9B4F848204FF6FF71638E13449BB2C3
:105690009A4288BF0B46A4F84830204601F07CFFB0
:1056A00011E000BFCC600108A4610108BD610108E0
:1056B0006C5100208C510020A65100206851002020
:1056C00098510020E9D0616B41B3A36B2A689B1A03
:1056D000002B23DAB34B89B2B3F800C0B4F93C30E5
:1056E000ACEB0102C3F3CF00121A15B213FA82F227
:1056F000B4F93E30002D12B2A3EBA303B8BFA1EB67
:105700000C01A287BCBF09180DB22B449BB2E387E2
:1057100003EBE203A4F84030002363633888336866
:10572000626A002800F04483217D062900F240834C
:10573000D51A012D00F19A81591E0144891A0029B8
:10574000C0F29481DFF87092D9F80480B8F1000FAC
:1057500005D1954A40F29A519448FDF72BFE4FF639
:10576000FE739D4205D9904A40F29B519048FDF747
:1057700021FED9F80430ADB21B89AB4205D28A4A6A
:1057800040F29D518B48FDF715FEB9F80830002115
:105790005B1BA9F80830D9F804301B895B1B9BB24E
:1057A000B8F80A20AA42C0F0588129464046FEF7C0
:1057B000F1F9636AD9F80C20336053603368626A88
:1057C000991A0029C0F224826FEA030C208D02EBA3
:1057D0000C01C84200F11C82934240F01382764DC6
:1057E000EB68B5F808809889FDF76EFF10F00300AC
:1057F000238D18BF0120404480B28342388040D2BC
:10580000EB689889FDF760FFC20710D5EB68B3F825
:105810000C80404628F47C58FDF756FF00F03E000F
:10582000FDF752FFEB6848EA0008A3F80C80238DCF
:105830002B81EB689889FDF747FF8307686842BFB3
:105840002B8903F1FF332B812989FEF7C7FAEB6817
:10585000B5F808809889FDF737FF10F0030033682A
:1058600018BF0120626A404480B238801844238DFA
:105870001344984205D04C4A40F2D1514F48FDF7AD
:1058800099FD636F002B00F00081EB689889FDF7AC
:105890001BFFC00700F1F680D4F8748030683B88A5
:1058A0000344B8F1000F37D0D8F80CC0B8F808108E
:1058B000DCF804201144591A002980F21281D31A0D
:1058C000002B29DAEB68121A2A819889FDF7FCFE71
:1058D0008307686842BF2B8903F1FF332B81298935
:1058E000FEF77CFAEB68B5F808909889FDF7ECFEB6
:1058F00010F00300336818BF0120484480B238809C
:105900001844D8F80C305B68984205D0264A40F21B
:1059100002612B48FDF74EFDC4F87480B5E0D14319
:10592000D94200F19680216DC91A0029C0F29180F8
:10593000618B480709D521F004016183B4F84A104E
:10594000A4F848100021A4F86A10B4F93C00E18FD3
:10595000636401EBE001A4F840100021A4F84210B8
:10596000217D032938D99B1AB4F84A10B4F848208D
:105970009BB2914226D9618B11F4006F618E14BFE6
:105980000120022011FB00F189B2994294BF501806
:10599000D01883B29A4201D94FF6FF73A4F8483069
:1059A0001AE000BF5C510020CC600108D6610108FC
:1059B000E6610108F56101087051002005620108E7
:1059C0003B620108B4F86A100B449BB299422CD890
:1059D0009A422CD9A4F86A302046D4E91B21FFF75B
:1059E0008FFDE16E024620672046FFF789FD226F9A
:1059F000E066B2FA82F35B095B42238600232377D9
:105A000008B9A4F868009A49B4F8643009880B44CE
:105A1000A4F86430638B19057FF555AEBAB968B93F
:105A2000638B23F4006363834DE64FF6FF739B1A89
:105A3000A4F86A30638E13449BB2ABE7C36858681E
:105A4000FDF746FEE36CC01A0028E9DA3BE6D368AE
:105A5000F5E7204601F00CFE35E6AD1AA8F808304F
:105A6000A8F80A10ADB2D8F8008099E69B1A002B6E
:105A7000BEBF638B43F0020363839FE603686367E3
:105A8000FEF724FD606F0028F8D13A88336813448C
:105A90006362238D934205D2764A40F20D617648C7
:105AA000FDF788FC238D20463A889B1A2385FEF754
:105AB000ABFC6B681A891AB1704A136000236B60E3
:105AC000EB689889FDF700FEC50704D56C4A13788A
:105AD00043F020031370DFF89C81DFF8AC91674F2F
:105AE0007AE0BCF80C00FDF7EFFDC1071BD5EB68B1
:105AF0009889FDF7E9FD820715D4EB680120B3F81A
:105B00000C90FDF7E1FDEB6849EA0000B5F808905C
:105B10009881EB689889FDF7D7FD10F0030018BF56
:105B2000012048443880D8F800904046FEF7CEFC6B
:105B3000C846B3E633609089B5F808A0FDF7C4FD08
:105B4000636A10F003009A4418BF01205044B4F86F
:105B500028A06062EB68B5F808B09889FDF7B4FD3D
:105B600010F0030018BF01205844824505D2424678
:105B700040F231614846FDF71DFCEB68B5F808A01E
:105B80009889FDF7A1FD10F00300238D18BF0120B7
:105B90005044181A20852046FEF736FC69680B89A8
:105BA0002BB1386838B3FEF7A9F900236B60EB68B6
:105BB0009889FDF789FDC00709D5314A137843F06C
:105BC00020031370237D042B04BF072323752B6848
:105BD00028466367FEF77AFC656F25B1EA68616A5B
:105BE00053688B42A6D0638BD90706D523F00103F7
:105BF00043F0020303E03960D7E743F00103638316
:105C0000BDE8F88F656F45B91E48FEF775FC606703
:105C10002046BDE8F84F01F02BBD4FF0000803F11E
:105C2000FF3EE8684268934215D116482B890289E5
:105C30009A42EDD9FEF760FC0028E9D0B8F1000FD8
:105C400007D0C8F800002946FFF7A6FBE0E70D469D
:105C5000E7E76067F7E7B8F1000F17D1991A002955
:105C60003BDA0848FEF748FC0028D1D06067EAE735
:105C700080510020CC600108756201088451002029
:105C8000885100207051002093620108D8F80C1050
:105C90004968AEEB010100291FDB12EB0C0F1CD48D
:105CA0004948FEF729FC07460028B1D0D8F80C3047
:105CB00031685A68B8F808301344CB1A002B07DA59
:105CC000891AD8F8040089B2A8F80810FEF786F8F7
:105CD00029463846C8F80070B6E72968A846002962
:105CE000B5D1D31A002B93DA8089FDF7EDFCC207FA
:105CF0008ED43548FEF700FC2860002888D0EB6879
:105D000031685A682B891344CB1A002B05DA891A9B
:105D1000686889B22981FEF761F83B8832681A44C5
:105D2000636A9B1A228DD3427FF572AF2B68DB68C2
:105D30009889FDF7C9FCC30712D52B68DB68B3F857
:105D40000C80404628F47C58FDF7BEFC00F03E0075
:105D5000FDF7BAFC2B6848EA0008DB68A3F80C8062
:105D60003168238D2A685B1A616A0B4413812B68A2
:105D700019895868FEF732F82B681D89DB68988905
:105D8000FDF7A2FC10F00300336818BF0120626A1F
:105D9000284480B238801844238D134498423FF43D
:105DA00037AF0A4A40F2FE610948FDF703FB2FE7CF
:105DB000991A002905DBDB431344228DD3427FF57A
:105DC0001FAF638B14E700BF70510020CC60010847
:105DD000056201082DE9F04F054687B005F078FC13
:105DE00025B9674A83216748FDF7E4FA6B68664E78
:105DF00033606B89132B40F2BC80DFF8B481D8F894
:105E00000010D8F8140003F0B1FB002840F0B18076
:105E1000D8F8143003F0F003E02B00F0AA8008F16A
:105E2000140306212846009308F110032A8906F07E
:105E3000F5FF0446002840F09C8033689889FDF700
:105E400043FC810A01F0FC01132940F292802B8966
:105E50008AB28B42C0F08D80A2F114036889DFF80A
:105E600054919BB2494F9042DFF84CA1A9F8003001
:105E70003C6040D32846AAF80030FDF78BFE34681A
:105E8000DFF838B12088FDF71FFC20803468404FD0
:105E90006088FDF719FC608034686068FDF718FCC5
:105EA00060603468CBF80000A068FDF711FCA060CA
:105EB00034683860E089FDF707FC3368E081988931
:105EC000FDF702FC334A00F03F03137083072A8971
:105ED00049D1314B1A80314B4FF00009284A1C68D8
:105EE000DFF8DCA0002C6FD12D4BDFF894A01C68EC
:105EF000DFF8D0905AE12B6823B9214AC221294802
:105F0000FDF758FA14212846FDF744FE6C89B9F8CC
:105F1000009028462146AAF80040FDF73BFEA9EB79
:105F2000040A28681FFA8AFA4389534521D3436833
:105F300051463B60FDF72EFE2B891C446B89A4EB78
:105F400009042C8123B10E4ADF211748FDF732FAEC
:105F50002B682A891B899A4291D0094AE02113486B
:105F6000FDF728FA8BE7531C0B499BB29A420B8032
:105F7000B1D9284607B0BDE8F04FFDF733BE00BFEA
:105F8000CC600108B862010898510020A05100209F
:105F9000685100206C510020A65100204C51002077
:105FA00064510020D0620108E0620108EC6201083F
:105FB000105A0020A45100209C5100208C51002038
:105FC00032630108D8630108237D23B9FB21A5486A
:105FD000FDF7F0F9A44A237D0A2B04D1FC21504699
:105FE000FDF7E8F9A04A237D012B04D1FD219F484C
:105FF000FDF7E0F99C4A217A39B1D8F8043093F8DA
:1060000034300133DBB2994274D13368208B198864
:1060100088426FD1E18A5B8899426BD16168D8F878
:106020001030994266D12168D8F81430994261D174
:10603000E368A34240F054848B4A40F20D118C482F
:10604000FDF7B8F9B9F1000F06D0E368C9F80C30D4
:10605000884B1A681C60E260E368A34205D1824A5B
:1060600040F215118448FDF7A5F9DFF82C920023C2
:106070002A89DFF828A2A9F808203268DFF82082F0
:10608000C9F80C207D4AC9F80030CAF8003088F8F9
:10609000003013807A4BC9F804501B781B0703D5D6
:1060A0006B7B43F001036B73A36F002B00F05781F0
:1060B0002046FEF75DFE0D3008D0A36F002B00F0E8
:1060C0004E81704B1B88002B00F04981638D13B902
:1060D000204601F0CDFA00246B4BD9F804001C6077
:1060E000CAF8004018B1FDF77DFDC9F8044007B0BB
:1060F000BDE8F08FA146E468F4E6237D0A2B05D0C5
:10610000524640F21F114846FDF754F9227A3AB13F
:10611000D8F8043093F834300133DBB29A4244D1DA
:106120003368208B1A8890423FD15B88E18A99427C
:106130003BD16268D8F810309A4236D12268D8F83C
:1061400014309A4231D14E4B1B785E073FF511AFA8
:106150004C4A16889A0718D5DBF80020636AA2EB30
:10616000030CBCF1000F15DBB4F828C09B1A1CEB24
:10617000030F0FD4454B324400930433CDE9011093
:106180002046396801F038FAF3E6DF0742BF404B9A
:106190001B682362002E3FF4ECAE638B204643F075
:1061A0000203638301F094FAE3E6E468002CA4D1CF
:1061B000384BD8F804001A683168D8F814E09146D2
:1061C000B9F1000F16D18889FDF77EFA42073FF535
:1061D000D0AE33682B4A1888118802905B88DBF8B0
:1061E00000200193294B0A44009304333968D8F8FE
:1061F000040071E399F808C0BCF1000F05D090F8D5
:1062000034300133DBB29C450CD1B9F816C04B8851
:106210009C4507D1D9F80030734500F03E83002B30
:1062200000F03B834C46D9F80C90C9E798077FF5FE
:10623000A0AE99F81D2099F81C309A42BFF499AE8F
:1062400099F81500FEF718FC074658BBD9F8183026
:10625000002B3FF48EAE01464FF0FF32D9F810000C
:10626000984786E60B630108CC6001085C6301086F
:10627000836301084C510020AE6301088051002067
:106280006C510020A651002090510020205A00207F
:106290005C51002058510020705100208451002092
:1062A0008851002099F81D30013389F81D30438B47
:1062B00043F400734383D8F814300360D8F81030E7
:1062C0004360B9F81630C38233681B880383032305
:1062D0000375DBF8003001334362C362FEF79CF9BB
:1062E000DBF80030B865013B38657864F8657B659C
:1062F000D9F81030C7F87C903B6199F8093003F069
:106300000C037B7299F808303B72A24B1A681F602D
:10631000FA6001F0A7FCA04B012238461A70FFF783
:1063200081F833683A1D7E8EDB8910460592A7F806
:106330006030A7F8623002F02DFF059A0146304622
:10634000FEF782F912217886384600F0EFFF20B17F
:1063500021463846FEF7A2FA0BE6384622E78F4B75
:106360001C608F4B1A7851073BD5217D022921D122
:10637000226D3B689A4209D198F8003043F0080337
:1063800088F80030638B23F00103638398F80030B2
:10639000180740F10382D4F890301BB16FF00D0163
:1063A0002069984721467B48FEF718FA2046FDF7FA
:1063B000D7FE90E6636ADBF80020934208D0D11A3A
:1063C0000029E3DB9B1A228DD342DFD4638B0FE0DD
:1063D0000029D1D1734A40F23B317348FCF7EAFF00
:1063E000CAE79207638B06D5227D023A012A02D9B9
:1063F00043F00203C9E7DD0620465EBF6B4B1B6816
:1064000023620023A4F89A30FFF70CF8644B1B7842
:1064100013F0020103D0227D023A012AB6D8227D70
:10642000023A072AB2D8DFE812F0080095001B01F3
:106430001F0168011B018201A10103F01202122A4F
:1064400069D1626C396801328A4264D1DBF800306C
:106450006264591C3268013B658E6162E162D289D7
:1064600063650423A4F86020A4F86220E218237571
:106470001046059202F08EFE059A01462846FEF768
:10648000E3F841F21C134200608681009A421546EF
:1064900038BF1D46B5EB800F31D98BB2A4F8483018
:1064A000B4F866302BB93F4A40F277314048FCF7E8
:1064B00081FFB4F86630256F013BA4F8663015BB48
:1064C000E56E2DB9374A40F27F313A48FCF772FF4A
:1064D0002B68E3662846FDF7F9FF236FB3B94FF643
:1064E000FF732386D4F88830002B3FF46FAF00226F
:1064F0002146206998470D307FF468AFEBE59A425A
:1065000088BF93B2CAE72B682367E3E7002323869B
:1065100084F84230E6E7D8067FF538AF3368264A7C
:1065200018881188029020465B88DBF800200193D0
:10653000224B0A4400930433396801F05DF894F863
:106540004230032B3FF622AF00232046238601F082
:1065500085FA1BE751B1636ADBF80020013B9342E7
:106560007FF414AF204600F0DBFF0FE7D9067FF57C
:106570000DAF636C3968DB43CB4260D4236D5B1A8B
:10658000002B5CDB04232375E36FCBB92046FEF7B9
:10659000FFF9A0E54C5100205051002090510020FF
:1065A0006C510020CC600108056401085C5100209A
:1065B000256401083B640108A6510020205A0020F0
:1065C0009B692BB9A04A4FF46E71A048FCF7F2FE0C
:1065D0002046FDF701FEE36F9B69002BD6D0002219
:1065E00021462069984718B10D303FF474ADCDE7CE
:1065F0002046FEF7E3FF964A13880BB1013B138058
:10660000618E41F21C134A0088009A42154638BF39
:106610001D46B5EB810F0ED983B2A4F8483098F827
:1066200000309A067FF5B2AE638B43F002036383BA
:1066300007232375AAE69A4288BF93B2EDE7336831
:10664000844A1D88108802955B88DBF8002001933E
:10665000814B024420460093043300F0CDFF95E6C1
:106660002046FEF7ABFFDAE72046FEF7A7FF98F8D3
:10667000003013F0200F794B1B7830D013F0100F3F
:10668000638B27D0216D3A68914223D1E26E0ABB19
:1066900043F0020320466383FEF77CF8704A1368D8
:1066A0009C4209D1E368136008E0DA68944202D1A1
:1066B000E268DA6002E01346002BF6D1694B012252
:1066C0001A700A232375684B1A681C60E26001F097
:1066D000C9FA5BE643F0020363830823A9E7DB06FC
:1066E0007FF554AE226D3B689A427FF44FAEE36E65
:1066F000002B7FF44BAE06239BE72046FEF75EFFA0
:1067000098F800309F067FF541AE638B204643F03A
:1067100002036383FEF73EF8514A13689C42C1D0DE
:10672000002BCBD0DA689442C2D01346F8E720465B
:10673000FEF744FF494B1B78DE067FF527AE226D3E
:106740003B689A427FF422AEE36E002B7FF41EAECC
:106750002046FEF71FF8424A13689C42A2D0002B45
:10676000ACD0DA689442A3D01346F8E72046FEF78F
:1067700025FF3A4B1B78DD067FF508AE226D3B689E
:106780009A427FF403AEE36E002B7FF4FFAD98F8DE
:10679000003043F0100388F80030F7E52C4B1A88DE
:1067A0002AB1D4F88030EBB90023294A138020465F
:1067B000FEF77CFE00287FF48EACDAF800302BB3B5
:1067C000A36F2BB1204A4FF4F3712848FCF7F2FD78
:1067D000638BDAF8002013F0100309D01046FDF7A0
:1067E00001FAD3E62146206998470D30DCD172E4E6
:1067F000D4F884500DB321462069A84710F10D0F3D
:106800003FF469AC10B1DAF80030A36798F80030B3
:10681000990605D5A36F6BB35A7B42F020025A73D9
:10682000134B002220461A60FEF740FE00287FF43A
:1068300052AC204600F04CFF4DE42B462146284642
:10684000FEF77EFADAE700BFCC6001084E6401086B
:1068500080510020A6510020205A00206C510020B9
:106860004C51002050510020645100206C640108FC
:1068700090510020238D42F6E062D4F88450934278
:106880001CBF01332385002DCAD000232146206977
:106890001A46A8470D30C3D11DE43CB1D9F80C30DD
:1068A000E360124BC9F80C20C3F80090104B1B7822
:1068B0005C073FF55EAB13F010043FF4B7AC0D4B33
:1068C000DBF800201C880B88224402934B8801933C
:1068D000094B00930433396800F0AAFEFFF749BB67
:1068E000B9F1000F7FF4B1ABFFF7BFBB58510020E7
:1068F0006C510020A6510020205A0020024A137833
:1069000043F01003137070478851002010B50446FF
:1069100028B9064A40F29E510548FCF74BFD6368D2
:10692000987B013818BF012010BD00BF88640108A2
:10693000AE6401082DE9F843089D80460C461746D1
:106940001E469DF8289025B91B4AEC211B48FCF7F0
:1069500031FDBC422DD29DF824309A0709D46B8BAF
:106960005B0626D4B9F1000F03D0EB6E0BB92B6F89
:10697000FBB104F2034525F00301B9420A4628BFE2
:106980003A4691B24FF420724046FDF78DF9054624
:1069900060B103682BB1084A4FF487710848FCF7CF
:1069A00009FD6B891B1B33802C816C812846BDE857
:1069B000F8832146E6E700BF88640108D464010833
:1069C000F36401082DE9F0470E46904699469DF87C
:1069D00020A0074620B92D4AA6212D48FCF7EAFC45
:1069E00026B92A4AA7212B48FCF7E4FC4FEA8A057E
:1069F000032006F02FFB044605F0040528B93046B5
:106A0000FDF7F0F82046BDE8F087002380F80AA0E3
:106A10001FFA85FAC0E900363389AB4204D21B4A1B
:106A2000B3211D48FCF7C6FC338930461421A3EB83
:106A30000A032381FDF7AAF8064620B12046002468
:106A4000FDF744FDDEE76368AD02D3F804A005F569
:106A5000A045C4F80CA0F88AFCF736FEAAF800009E
:106A6000D4F80CA0388BFCF72FFEAAF80200E768D8
:106A70004846FCF72DFE786045EA0800E768FCF719
:106A800023FEB881E3689E74DE74BBE78864010866
:106A90000865010828650108496501082DE9F043EA
:106AA00085B004460D461646DDF830801F46B8F125
:106AB000000F05D1134A40F2A1711348FCF77AFC8C
:106AC000D5F8049033462A8906212846009706F017
:106AD000A5F9A9F810009CB1E37AA47A0622314600
:106AE0002846CDF80880CDE900423A4602F01AFD6A
:106AF00004462846FDF776F8204605B0BDE8F08349
:106B0000FF23EBE7886401086065010814312DE973
:106B1000F04189B20646174624204FF42072984669
:106B2000FDF7C2F8054640B34389132B05D8144A34
:106B300040F227711348FCF73DFC6C684046FCF7B7
:106B4000C3FD2080BDF81800FCF7BEFD67606080C3
:106B50003046FCF7BDFDA0609DF81C0040F4A0404D
:106B6000FCF7B2FDA081BDF82000FCF7ADFD0023CD
:106B7000E08123746374A374E3742846BDE8F08154
:106B800088640108946501087FB50D4616460446E1
:106B900028B90C4A40F246710B48FCF70BFC638D98
:106BA00032462946029310230193238B0093E38AF4
:106BB000606AFFF7ABFF18B1628D636A1344E3624A
:106BC00004B070BD88640108C465010828B9034A8F
:106BD00040F25A710248FCF7EDBB70478864010827
:106BE000EC6501087FB505460C461E462AB9134AD6
:106BF00040F2C4711248FCF7DDFB2EB90F4A40F297
:106C0000C5711048FCF7D6FB2846FCF761FD14233C
:106C10004EF22E0102462046CDE90131BDF8243066
:106C200000210093BDF82030FFF770FF044608B143
:106C3000FFF7CCFF204604B070BD00BF8864010898
:106C4000146601082E660108F7B5044617461E466D
:106C50000D4629B90F4A40F28A710F48FCF7AAFB8A
:106C60005CB1207A48B1FCF797FD50B92846FCF793
:106C7000B9FF6FF0030003B0F0BD304602F08AFAAE
:106C8000F3E7009033463A4629462046FFF706FFD1
:106C9000F1E700BF886401084C6601082DE9F04F58
:106CA0002DED028B8FB004460893002307910492C8
:106CB000ADF8363030B96FF00F000FB0BDEC028B7D
:106CC000BDE8F08FB0F86230428E5B08934228BF77
:106CD0001346002B08BF1346069304F0F9FC079BEC
:106CE000002BE8D0237D072B03D0023B022B00F2C0
:106CF0004A82049BD3B1B4F86430049A934206D21A
:106D0000638B43F0800363834FF0FF30D5E7B4F823
:106D100066202D2AF4D8236FF2B13BB9E36E2BB96C
:106D2000AB4A4FF4AC71AB48FCF744FBB4F86630A7
:106D3000E66E0593D6B9B4F86870002F00F0AE8106
:106D4000A34A40F24D21A448B046B246B14635466A
:106D50003746FCF72FFB86E013B9E36E002BE5D036
:106D60009B4A40F25B119D48DEE75646D6F800A0EC
:106D7000B046BAF1000FF8D1B57A3389AD00069A62
:106D800005F004052B449A4205DA914A40F2E911D4
:106D90009348FCF70FFB3789069BDF1B7F1BB4F87A
:106DA0006850BFB2ADF83650002D65D0BD4205D950
:106DB000874A40F2FB118B48FCF7FCFABDF83630ED
:106DC000049A9A4228BF1A46BA42154628BF3D4641
:106DD0005B1B7F1B9BB2BFB2ADF836304BB1049B3F
:106DE000AB4200F060817A4A40F203217E48FCF712
:106DF000E1FA049B9D4280F05681002F00F04B8108
:106E0000B8F80890B9F1000F00F04681A3EB05092E
:106E1000089BB945A8BFB946DB071FFA89F62DD5EF
:106E200001233A46314600200293089BCDE90043F6
:106E30000DF13603FFF77EFD8346002800F0A081A8
:106E4000079B324640685919FBF79EFA5846FDF7F2
:106E500033F8059B4FF0000903449BB20593AF192B
:106E6000DA464646BFB2089B4FF0000B03F0010321
:106E7000CDF824B00A93DEE02E46BAE7D8F804B085
:106E80005A46DBF800B0BBF1000FF9D1137B13F0C9
:106E9000C00F0ED151895368079A0B449A4208D10A
:106EA0002DB14B4A4FF40D715048FCF783FAB146AF
:106EB000D5E7012231460020FCF7F6FE8346002884
:106EC00000F05E81079B2B444360C0E7049B069A59
:106ED000DB1B9BB2934228BF13469BB208EE103ACD
:106EE0000A9B6BB3BBFA8BF318EE101A38205B09C0
:106EF0000293089BCDE900430DF13603FFF71AFD1D
:106F0000064600283CD0438918EE102A934205D249
:106F10002F4A40F269213648FCF74CFA079B18EEDD
:106F2000102A7068D919FBF72FFA3046FCF7C4FF16
:106F3000059B03449BB22E2B05935FD930461DE081
:106F4000BDF836302BB1224A4FF41D712948FCF7A9
:106F500031FA012218EE101A3820FCF7A5FE78B19C
:106F6000079A00210B903A4442604FF42072382077
:106F7000FCF79AFE0B9B064630BB1846FCF732FE28
:106F8000638B43F080036383BAF1000F02D0504655
:106F9000FCF728FEBBF1000F02D05846FDF7A4FA1B
:106FA000B4F86630002B3FF4AFAE236F002B7FF4B4
:106FB000ABAEE36E002B7FF4A7AE054A40F22A3158
:106FC0000D48FCF7F7F99FE61946FCF797FFACE789
:106FD000886401087866010862670108B2660108E2
:106FE000E4660108FB6601081B67010839670108B0
:106FF00091670108CF6701085B680108E36D002213
:10700000314620463B440092FFF7DCFC0646002850
:10701000B6D0BBF1000F3CD0099B2BB95B4A40F2C4
:10702000AE215B48FCF7C6F9099B1E6018EE103ACA
:1070300009961F44BFB2049B9F42FFF447AF5746D7
:10704000DA464DB1D8F804B0BBF1000F2ED1B8F834
:1070500008301D44A8F80850BDF83630A4F8683050
:10706000002F3CD0B8F1000F05D1484A40F2E3218F
:107070004848FCF79FF93946D8F80400FCF73EFF72
:10708000B8F808303A891344A8F80830C8F800A0C6
:107090004CE08346CAE7B9462F46E4E6B9463D468A
:1070A000B846BA46DFE60027B946CAE7BBF808305B
:1070B0002B44ABF80830DBF800306BB9DBF8043058
:1070C0002A46BBF80A0007991844FBF75DF9BBF89C
:1070D0000A302B44ABF80A30DBF800B0B4E7B9F162
:1070E000000F1ED0B8F1000F02D0D8F804302BB931
:1070F000264A40F2E9212848FCF75CF9D8F8043028
:107100001A8919684A4492B21A8141B95A894A4483
:107110005A81B8F808309944A8F80890B6E70B46A9
:10712000EEE7B8F1000FB1D1C4F86CA0E36D049A9A
:107130001344B4F86420E365049BD21A059BA4F8B9
:107140006420A4F866304BB1236F3BB9E36E2BB9D2
:107150000E4A40F215311148FCF72CF976B1F0686F
:1071600000283FF4AAAD089B13F0020406D18589DC
:107170000820FCF7A9FAF3682843988100209CE5D1
:107180004FF0000BFCE66FF00A0096E588640108FA
:10719000DD670108EE670108266801085B680108E1
:1071A0002DE9F74F0D46064628B95B4A40F24E31AD
:1071B0005A48FCF7FFF8F46E14B94FF0FF3008E0BE
:1071C00055B9574840F25631534AFCF7F3F86FF07F
:1071D000050003B0BDE8F08F2389AB4201D8002041
:1071E000F7E7738EAB420DD24B4A40F25E314D4809
:1071F000FCF7E0F823892BB9474A40F25F314A484F
:10720000FCF7D8F894F80AB04FF42072B4F808A04C
:1072100038204FEA8B07AAEB050107F004071FFA95
:1072200081F817FA81F189B2FCF73EFD814600280A
:10723000C3D0606822890389D9F804109B1A42469A
:1072400039442B449BB2FCF70FFF404560D1E36803
:107250009889FCF739FA10F00808C7B216BF4FF04A
:10726000080807F03F0707F03707FB07E36848BF48
:1072700048F00108586848BF07F0FE07FCF728FAF5
:1072800042462B1849463046CDF800B0FFF79AFB2E
:107290008046002891D06068A5EB0A05FCF70CFE3B
:1072A000B6F866301FFA85F9181AA6F86600606805
:1072B000018911FA85F189B2FCF790FD23893846DE
:1072C0009944E368A4F808909D89FCF7FDF9E36808
:1072D000284398816068FCF7EFFDB6F866301844E3
:1072E000A6F86600D8F80400FCF7E6FDB6F86630AC
:1072F0001844A6F866002368C8F80030C4F8008077
:10730000D8F8000000287FF46AAFA6F8680060E7AC
:107310004846FCF767FC50E7886401087C68010870
:107320009E680108C0680108CD6801082DE9F7438F
:1073300011F0030804460E4605D13B4A40F21341C2
:107340003A48FCF737F82CB9374A40F2154138482B
:10735000FCF730F8C6F340074FF4207238204FEAAC
:1073600087094946FCF7A0FC054640B9638B4FF0FE
:10737000FF3043F08003638303B0BDE8F0834389AB
:107380004B4505D2284A40F23D412A48FCF712F805
:10739000294600973246E36D2046FFF713FB05466A
:1073A0000028E3D0C3689A0705D01F4A40F246413F
:1073B0002148FBF7FFFF2B892BB11B4A40F24741C5
:1073C0001E48FBF7F7FFE36E3BBBE5660023A4F81E
:1073D0006830B8F1000F02D0E36D0133E365F307C5
:1073E00042BF638B43F0200363836868FCF764FD4E
:1073F000B4F86630184480B2A4F866000028BBD008
:10740000206F40B9E46E002CB6D1074A40F26941C2
:107410000B48FBF7CFFF0020AEE71A461B68002B96
:10742000FBD11560D2E700BF88640108DC68010861
:10743000316901085069010889690108A1690108D9
:10744000CB690108F8B5044628B9134A40F2EF3178
:107450001248FBF7AFFFE56E4DB12F462D68002DAA
:10746000FBD1FB689889FCF72FF9430705D020462C
:107470000121BDE8F840FFF759BFFB6801209E8954
:10748000FCF722F9FB68304398812846638B43F070
:1074900020036383F8BD00BF88640108F469010814
:1074A0002DE9F041044628B91B4A40F267611B48A8
:1074B000FBF780FF256F45B96FF00500BDE8F0814F
:1074C000FFF724FA0028F7D12D682B682846002BF7
:1074D000F6D1FFF71BFA06460028EDD1E36E2B60CC
:1074E000236FC4E91B30638B43F400636383EB6851
:1074F0005868FCF7EDF8EB680746B5F808809889FE
:10750000FCF7E2F810F003034744304618BF0123AC
:1075100066633B44E364D1E788640108106A0108AC
:10752000F8B5044628B91A4A40F2C5611948FBF774
:1075300041FF256F15B96FF00500F8BD2846FFF72C
:10754000E5F90028F7D12B6804F16C06236733684E
:1075500083B933682B6035602B680BB9A4F86830A9
:1075600094F842300020FF2B60631CBF013384F885
:107570004230E2E7DB685868FCF7AAF8EB68074698
:107580005868FCF7A5F8381A0028E2DA3668DEE712
:1075900088640108346A010838B5044628B9144AD9
:1075A00040F2FD611348FBF705FF236FFBB1638BCE
:1075B0005B071CD42046FFF7B3FFC0B9B4F86010D6
:1075C000B4F848302086994228BF1946638E5D0082
:1075D0004A10B5EB510F2B4488BF2A461344A4F838
:1075E0004A20A4F84830638B43F00403638338BD1A
:1075F000886401084C6A01087FB5BDF82450044630
:10760000BDF82860084611461A46089BCDE9005689
:10761000CDE90223FFF7E6FA014638B12046DDE95D
:10762000022304B0BDE87040FFF70EBB04B070BD8C
:10763000F0B585B00D4604461146BDF82C601A46DB
:10764000BDF830700A9B88B12846CDE90067CDE9C6
:107650000223FFF7C7FA014640B100200A94DDE992
:10766000022305B0BDE8F040FFF718BA05B0F0BD41
:1076700038B5044628B9144A40F62D011348FBF7E3
:1076800099FE206DFCF724F8002102462046FFF702
:107690007BFA054630B9638B6FF0010043F00303BA
:1076A000638338BDFFF792FA231D22462946204600
:1076B000FFF7CAFA638B18B143F003036383F0E763
:1076C00023F00303FAE700BF886401086C6A01082D
:1076D0002DE9F04F044687B003F0FAFF2CB9904A29
:1076E00040F2E5418F48FBF765FE237D012B05D174
:1076F0008B4A40F2E7418C48FBF75CFE8B4B1B68E2
:10770000A34200F07281E56E4DB9638B990740F199
:107710006881204607B0BDE8F04FFFF7A9BF207A87
:1077200004F10409B4F84880B4F8606040B3FCF791
:1077300033F80746002800F0718123680BB903680D
:107740002360EB68B045586828BFB046FBF7C0FF20
:107750002B89626C9B1A1844404515D9B4F86030E7
:107760004345D2D1236F002BCFD194F89930002B11
:10777000CBD14FF4807284F89A30A4F89820C4E7F3
:10778000484601F007FDD4E70023266F84F89930BE
:1077900026B133463668002EFBD11E46DFF880A1A5
:1077A000E2E0237D022B09D0EB681020B3F80CB087
:1077B000FBF78AFFEB684BEA000098812846FFF749
:1077C000A5F8002877D1D5F80CB0606AFBF780FFE8
:1077D000CBF80800D5F80CB0608DFBF775FFABF85F
:1077E0000E00628D636A1344E362AB7AD5F80CB085
:1077F000DB0751D40BF1140BB4F93030002BBCBFB4
:1078000000232386636B3BB9494B1B686363EB68BA
:107810005868FBF75DFFA0636968EB684A689B1ACC
:107820004A899BB2D21A4A8169680A89D31A0B81A4
:107830006A68EB68536000221A745A74AB7AEA687B
:107840009B0003F00403143313449B4505D05246B8
:107850004FF4C4613748FBF7ADFD68682346D5F89F
:107860000CB006210289CDF8009005F0D7FA062366
:10787000ABF810004A4601932146A37A0297009381
:10788000E37A686801F04EFEA8B1638B43F0800391
:10789000638307B0BDE8F08F4A4639464FF48060F5
:1078A0000BF1180BFCF7D0FE40F00170FBF710FF56
:1078B0004BF8040CA0E72B68E366237D022B1EBF68
:1078C000638B23F003036383EB685868FBF700FFC7
:1078D0002A89EB68834605929889FBF7F5FE059A9D
:1078E00010F003035A4418BF01231344226DD21A27
:1078F000002AB8BF2365EB68B5F808B09889FBF794
:10790000E3FE10F0030018BF012010EB0B0F00F096
:10791000818000232B60236F73B925672E4620E0FA
:10792000886401088C6A0108A46A0108905100204B
:107930005C510020E16A0108EB685868FBF7C8FE5B
:10794000F36883465868FBF7C3FEABEB00000028E2
:107950005EDA04F170031A68002A48D11A682A60B6
:107960001D60E56E002D39D0EB685868FBF7B0FE5E
:10797000636CC01A2B89184440452DD8EB68988950
:10798000FBF7A2FE420705D5524640F23A51254880
:10799000FBF710FD236F002B3FF403AF628B12F057
:1079A000440F7FF4FEAEE36E43B1196800297FF403
:1079B000F8AE1989638E9942BFF4F3AEB4F864301F
:1079C000002B3FF4EEAEB4F866302D2B3FF6E9AE57
:1079D00012F0A00F7FF4E5AEE36E13B90023A4F814
:1079E0006830638B23F080036383002051E7D26803
:1079F00005935068FBF76CFEEA6883465068FBF716
:107A000067FEABEB0000059B0028A7DA1B68A2E726
:107A1000356083E72846FCF759FDA2E76FF00300C5
:107A200037E700BFCA6A010810B5044628B9094AF9
:107A300040F29C610848FBF7BDFC94F842302046B8
:107A4000FF2B1CBF013384F84230BDE81040FFF724
:107A50003FBE00BF88640108F46A010810B50446FF
:107A600028B9084A40F2B1610748FBF7A3FC204659
:107A7000FFF716FD20B92046BDE81040FFF7D4BF40
:107A800010BD00BF88640108186B010870B504467A
:107A900028B90F4A40F667010E48FBF78BFC206DB2
:107AA0000138FBF715FE002102462046FFF76CF86F
:107AB000054648B1FFF78AF8231D2246294620468D
:107AC000BDE87040FFF7C0B84FF0FF3070BD00BF99
:107AD00088640108346B01082DE9F041064628B995
:107AE0002B4A40F692012B48FBF764FCF56E002D03
:107AF00048D096F89A30FF2B1CBF013386F89A3095
:107B0000EB689889FBF7E0FD10F00104EB68304664
:107B100018BF2C895A681CBFB4FA84F4640984F035
:107B20000101FFF731F8074678B3D0F80480F4B1CB
:107B3000B8F90C401120FBF7C7FD24F47C54204316
:107B4000A8F80C00EB685868FBF7C2FD336D0130F4
:107B50001B1A002BB8BF30653846FFF737F8331DC6
:107B6000324639463046BDE8F041FFF76DB86868E7
:107B700008F114012A8903899B1A01229BB2FCF7A0
:107B800073FADFE72846BDE8F0814FF0FF30FAE7EF
:107B900088640108506B010870B504460C200E463D
:107BA000154605F057FA30B9104ABE211048BDE815
:107BB0007040FBF7FFBB00230E4A4460036013686C
:107BC000C0E902650BB9106070BD5968611A0029DF
:107BD00001DA0360F7E719461B681BB15A68A21A5D
:107BE000002AF8DA03600860EEE700BF746B010852
:107BF0009B6B0108AC51002038B543680446984798
:107C000003F094FE074B25681B6807492B441A1A9A
:107C1000002A2246B4BF40191846BDE83840FFF795
:107C2000BBBF00BFA8510020F97B000870B5044617
:107C30000D46164603F04CFDB4F1804F05D3074ABC
:107C400040F229110648FBF7B5FB03F06FFE324600
:107C500029462044BDE87040FFF79EBF746B0108C1
:107C6000D86B010808B503F033FD094B1A6872B9E7
:107C7000084A126812B9084A126842B1012207493B
:107C8000FA201A600022BDE80840FFF7CFBF08BD08
:107C9000B05100204C51002064510020A17C00080C
:107CA00008B5FDF74BFB084B1B6813B9074B1B6866
:107CB00033B100220649FA20BDE80840FFF7B6BFFD
:107CC000044A136008BD00BF4C51002064510020DD
:107CD000A17C0008B051002010B50B4C4FF47A7015
:107CE0000A4904F10802FFF7A1FF04F11002074955
:107CF0004FF47A70FFF79AFF04F1180203496420E9
:107D0000BDE81040FFF792BF106C0108F97B000836
:107D10002DE9F04103F0DCFC0D4E03F007FEDFF827
:107D200034800446316889B14B68E21A002A0DDBC1
:107D30000A680C20C8F800303260D1E9025705F01B
:107D400095F9002DEED03846A847EBE7BDE8F08165
:107D5000AC510020A851002010B5084C03F0B8FC2D
:107D600023683BB103F0E2FD23685B68181A48BF43
:107D7000002010BD4FF0FF30FBE700BFAC510020EA
:107D800008B503F06DFC6FEA8040024B6FEA90404B
:107D9000188008BD5A2300202DE9F04F044685B015
:107DA000884603F095FC24B9704ACF217048FBF750
:107DB00001FBB8F1000F04D16C4AD0216D48FBF7EC
:107DC000F9FA6389072B05D8204605B0BDE8F04FC6
:107DD000FBF708BF684F0026D4F804A03968B34603
:107DE000786901F0C3FB8146BAF80000FBF76CFC30
:107DF0000290BAF80200FBF767FC604B03901D6825
:107E00005F485DBB26B9D8F800207B699A42DBD178
:107E1000BB685B7A882B77D1BAF80400FBF754FC77
:107E2000072802D80028CFD12089564B88212289E3
:107E30000193043B00930346204605F059F80028BF
:107E4000C2D108212046FBF7A5FE002869D0474A89
:107E50004FF4B8714C48FBF7ADFAB5E76A8A03995D
:107E60008A424CD1B8F1000F05D1404A8821FBF776
:107E7000A1FA424B4248297A31B17A6892F834200B
:107E80000132D2B291423AD12A68B9F1000F31D011
:107E900052B17969B1F1FF3F06D082EA010CD8F8FE
:107EA00004101CEA010F2AD1297C49070ED44EB3D5
:107EB000B9F1000F0AD07969013107D1D8F800C0B3
:107EC0003168614502D0944508BF2E46AA8A0299BE
:107ED0008A4214D1696811B13A6991420FD1BBF15C
:107EE000000F05D0EA68CBF80C201A681D60EA6024
:107EF0002E468DE7002AD7D079698A42D4D0AB4686
:107F0000ED687EE72E46E1E7BAF80630002B98D000
:107F10001C4B1121228920460093043B04F07EFF74
:107F20008DE76EB1756A002D3FF44EAF029B22467D
:107F300031460093154BB06AA84705B0BDE8F08FF5
:107F4000B9F1000F7FF440AF7B6903F0F003E02B41
:107F50003FF43AAFB9892046083109B2FBF73AFE3F
:107F60000321204600F0DEFE2EE700BF306C010842
:107F7000526C01086A6C0108105A0020B4510020AC
:107F8000836C0108245A0020A86C0108205A0020A4
:107F90002DE9F04188460746164603F099FB284B29
:107FA000B8F1000F08BF9846002F44D025490B6850
:107FB0001D46D5B9002E3BD123484FF480444FF6DF
:107FC000FF7C068866451A4616BF01364FF44046C8
:107FD000B6B282B90680D8F800307E823B6015B90F
:107FE0000B680F60FB60002027E0BD4201D0ED6808
:107FF000DFE70125DEE7B2F812E0B64507D1013C24
:10800000A4B2002CDED106806FF0070015E0D26824
:10801000DFE7BB420BD05A8AB24208D1D8F8000041
:108020001A688242F0D00028EED0002AECD0DB683B
:10803000002BEED1CFE76FF00F00BDE8F08100BF5D
:10804000A8700108B45100205A2300202DE9F04FF8
:10805000054685B00F4690469A46DDE90EB903F015
:1080600037FB002D00F0AB80002F00F0A880B8F1A6
:10807000000F00F0A480B9F1000F00F0A080BBF168
:10808000000F00F09C806A8A3AB13A894FF6F77384
:108090009A420DD94FF0FF3606E029462846FFF7F1
:1080A00077FF06460028F0D0304605B0BDE8F08FD7
:1080B00008213846FBF76AFD002860D04FF4207293
:1080C00008212420FBF7F0FD04460028E2D03B897C
:1080D00013B13946FBF73EFF6389072B05D8394AB0
:1080E00040F20D313848FBF765F96668688AFBF79E
:1080F000EBFA30805046FBF7E7FA00237080B3714B
:10810000F3712B7C190709D5D8F8003003F0F00380
:10811000E02B02BF637B43F0040363732B7CB4F852
:1081200008A09A0734D5288C07282AD9504528D882
:108130008246FBF7C9FA5346B0808821228920463F
:10814000CDE9009804F0D4FEE8B1F0808822D8F898
:1081500000304946204603F0F003CDE9012BE02B27
:10816000AA7A0CBF6B7FEB7A0092424601F0ECF9E1
:10817000BC42064698D02046FBF734FD94E73C46C7
:10818000AAE70020D5E74FF0FF33B371F371DDE7C5
:108190005046FBF799FAB0802B7CDB070DD422897F
:1081A0004B4611212046CDF8008004F037FE4FF6F3
:1081B000FF73002818BF0346F3801122C7E76FF052
:1081C0000F0671E7306C0108C46C010873B5069C9A
:1081D000A0B199B192B18CB105681DB105F0F0065E
:1081E000E02E06D12546CDE90045FFF72FFF02B06E
:1081F00070BD2668B54204D10546F4E76FF00F0064
:10820000F5E76FF00300F2E7F7B50D4617461E4697
:10821000044668B361B35AB3007A28B1FBF7BCFADD
:1082200088B96FF0030015E0136803F0F003E02B4A
:1082300003D0384600F0AEFFF2E7207F60B1FBF7D5
:10824000ABFA0028F5D0009033463A46294620463E
:10825000FFF7BCFF03B0F0BDA369002BE9D0064ACD
:1082600012689342E5D004F1180000F093FFE8E7AC
:108270006FF00F00EEE700BFAC700108024620B1BE
:1082800019B1838A0432FFF7BFBF6FF00F00704748
:1082900038B50C46054603F01BFA1CB194F834407F
:1082A0000134E4B22C7238BD70B504460D46164652
:1082B00003F00EFADCB1D5B1628A6AB12B680E4ABE
:1082C00063601168237C0846A68243F0040323748C
:1082D00048B9E160146005E021462046FFF758FEEA
:1082E0000028EBD070BDA04204D0C068F0E76FF06A
:1082F0000F00F7E70020F5E7B451002010B5044661
:1083000003F0E6F93CB100236360A3822372237C6F
:1083100023F00403237410BD70B504460E461546C1
:1083200003F0D6F90CB1C4E9096570BD10B5044677
:1083300003F0CEF9B4B10C4A1368A34208D1E36844
:10834000136021460020BDE8104004F08FBE1346A4
:10835000002BF6D0DA68002AF3D0A242F7D1E26807
:10836000DA60EEE710BD00BFB451002010B503F095
:10837000AFF9002004F06EFE044630B12C2200213B
:10838000FAF734F8FF23E3726377204610BD00004C
:1083900008B503F09DF9BDE80840FFF7E7BF00000E
:1083A00010B538B103682BB121B10B6813B1064B7E
:1083B0001B6803B910BD1C680268944204BF0A68B8
:1083C0001A60DB68F5E700BFB45100202DE9F843DF
:1083D0001823124D06464343EC58C4B1DFF84080E1
:1083E000DFF84090274624687B6823B942469B21EA
:1083F0004846FAF7DFFF7868FBF7F4FB39460A20B6
:1084000004F034FE002CEDD118237343EC501820F7
:10841000002300FB06552B75BDE8F883B8510020FA
:10842000F46C01081E6D01082DE9F347DDF82CA05E
:10843000884691461E46074628B92C4A40F26941B3
:108440002B48FAF7B7FF4FF420721C211020FBF7DE
:108450002BFC0546002845D043891B2B05D8234A11
:1084600040F274412348FAF7A5FF6C68BDF8340068
:10847000FBF72AF9E08097F83030062B05D01B4A2D
:1084800040F27B411C48FAF795FF33684246294683
:108490003846A360B3880026A381DAF80030C4F818
:1084A0001230BAF80430E3820A9B1B68C4F80E301D
:1084B0000C9B1B682670A3610123E6706370082380
:1084C000A370062323710423637140F6060300930F
:1084D0004B4603F08BF82846FBF784FB304602B08E
:1084E000BDE8F0874FF0FF30F9E700BFF46C0108FA
:1084F0002C6D01083A6D01086B6D01082DE9F74FED
:1085000000234FF00A0C3C4A80466546E6469A46F0
:10851000994664461646019100930A2C18B292F8C7
:1085200014B017D1BBF1000F57D0B8F1000F04D031
:10853000D8F8007051688F4242D0BBF1010F578AC2
:1085400046D1116800293ED000998F4205D3844658
:10855000009702E0BBF1000FE7D1013318320A2B7C
:10856000DBD1019B012B40D10A2C0FD10A2D36D033
:1085700018236B43F3582BB1204A4FF4B7712048AE
:10858000FAF718FF2C462846FFF720FF182303FBB5
:1085900004631B7D2BB1194A40F285111948FAF783
:1085A00009FFB8F1000F05D01823D8F8002003FB0D
:1085B00004635A601823204603FB04660023738279
:1085C00003B0BDE8F08F4F45C7D3B9468646C4E730
:1085D0005745C2D3BA460546BFE70446BDE7BEF1DC
:1085E0000A0F05D1BCF10A0F04D14FF0FF30E7E7C5
:1085F0007546C7E76546C5E7B8510020F46C010829
:10860000AC6D0108C36D01082DE9F04F0C4687B031
:10861000804603F05DF8002C4AD0D8F804502B882F
:10862000B3F5807F08D12B79062B05D16B79042B0C
:1086300002D16B88082B05D0404607B0BDE8F04F4B
:10864000FBF7D0BAD5F80E3005F1080AAF692668F5
:10865000049305977EB3F21BF11A574257414E42DD
:10866000C7F102094E415FFA89F994F83030062BC0
:1086700005D0324A4FF4D5713148FAF79BFE049881
:10868000E8B9EB88B3F5807F0FD177B16EB90222DC
:1086900004F12A032046039204AA1946CDE901A257
:1086A00005AA00925246FFF7BFFE4046FBF79AFA32
:1086B00007B0BDE8F08F37464FF00209D5E72146F5
:1086C00000F054FF83460028DBD1049B03F0F00345
:1086D000E02BD6D0494604A8FFF710FF031ED0DBDD
:1086E000184A1820022100FB032989F814100C21D4
:1086F000C9F8084013FB0013A868D118D050BAF885
:1087000004308B80A9F812B0D9F800100029B8D035
:108710000B680A20C9F80030D1F804B004F0A6FCB8
:108720004FF4006304F12A02594620460093534651
:1087300002F05CFF5846FBF755FAE5E7F46C0108D8
:108740000C6E0108B85100201FB5012400F12A0366
:10875000054ACDE902140549CDE900011946FFF7A4
:1087600063FE04B010BD00BF107501081875010844
:10877000F8B5134C002502260427227D6AB1638ACE
:1087800001339BB2B3F5967F638203D2012A09D1EC
:10879000042B0FD92846FFF719FE013518340A2D8E
:1087A000EBD1F8BD032A01D12775F6E7042AF4D1ED
:1087B0002675F2E7211DA068FFF7C6FFEDE700BFB1
:1087C000B85100202DE9FF47234F1823064688465D
:1087D00003FB027314461B7D012B05D81F4A4FF47F
:1087E0003E711F48FAF7E6FD182204EB440506F136
:1087F0002A0902FB0474ED00237D05F10C0A022B0B
:10880000BA440BD1638AB3F58E7F13D90435304651
:108810007919FFF799FF08B9032323754FF4006313
:108820004A46414630460093534602F0DFFE04B00C
:10883000BDE8F087B3F5877FF0D3012304355246B6
:1088400049463D440393074B30460295CDE900630A
:108850004B46FFF7E9FDDEE7B8510020F46C010854
:10886000306E0108187501082DE9F74389468046E6
:1088700001461546D9F8000000F078FE002840F0C7
:108880008980D9F8003003F0F002E02A00F08280FD
:10889000002B7FD001214846FFF730FE071E03DA88
:1088A00078B203B0BDE8F0837E2F05DD4A4A40F27E
:1088B000CB314A48FAF77EFDFFB2494E182303FB3D
:1088C00007631A7D002A40F081800124C3F80880E4
:1088D0001C7549464046FFF737FF38B9182303FB9C
:1088E00007631A7D012A01D104B95882002DD8D01E
:1088F000182303FB0762127D012A10D9394A03FBB2
:1089000007632946404617704FF400620C3300920B
:1089100008F12A0202F06AFEC3E72C46D9E7C0D16B
:108920002C46DFF8B480DFF8C090628923899A4230
:1089300007D123682BB1424640F203414846FAF77B
:1089400039FD237B5B0628D42468002CEDD1284612
:10895000FBF7BAFA2AE0013223461C68002CFAD150
:10896000022A186003D820469BE70122F5E7182366
:108970005F43F5592B68F3516868FBF733F92946D3
:108980000A2004F073FBEEE72846FBF72BF94FF0C3
:10899000FF3086E76FF00F0083E72A464FF420711F
:1089A0001020FBF78FFB05460028F0D00A2004F0CA
:1089B00051FB0028E8D0182200237A43C0E9003593
:1089C000B358002BD1D1B05018466AE7002DA4D07F
:1089D0004FF0FF308CE700BFF46C0108606E0108B7
:1089E000B8510020A85200206E6E0108F0B5044670
:1089F00085B00E46154602F06BFE2CB93F4A4FF487
:108A00004A713F48FAF7D6FC2EB93C4A40F2293168
:108A10003C48FAF7CFFC2DB9384A40F22A313A489F
:108A2000FAF7C8FC2146286800F0A0FD002860D1B4
:108A30002B6803F0F002E02A1ED101238DF8090013
:108A40008DF808305E238DF80A306B7803F07F03D1
:108A50008DF80B30AB788DF80C30EB788DF80D304D
:108A600002AB4FF4006231462046009204F12A0224
:108A700002F0BCFD05B0F0BD226861685A400A42B0
:108A800008D09BB24FF6A962934203D0A36893B378
:108A900004F10805DFF87CC018211C4B9CF800206D
:108AA00001FB0233197D01290AD929685B689942C3
:108AB00006D13146204605B0BDE8F040FFF782BE42
:108AC000124900230F7DDAB2012F06D948682F68BA
:108AD000874202D18CF80020EBE7013318310A2BD2
:108AE000F0D132462946204605B0BDE8F040FFF7F8
:108AF000BBBE074BB5E76FF00300BBE7F46C0108A2
:108B00002C6D0108C65A0108EC6D0108B85100200F
:108B100010750108A85200202DE9F047B0F8088030
:108B200086B007468946B8F11C0F16464FF0240060
:108B30004FF4207228BF4FF01C0808F10804A4B2BB
:108B40002146FBF7B1F80546A8B34389A34205D2F5
:108B50001A4A40F26D111A48FAF72CFC6C68394633
:108B6000D7F804A00823667000264246284684F8F9
:108B7000009026716671A671E671FBF7F5F9DAF8D7
:108B80000C3005A8059300F005FB074680B1A670E0
:108B90002046E670698904F0ADF90123608005AADA
:108BA000314628460297CDE90063FF2300F0BAFC66
:108BB0002846FBF717F806B0BDE8F087886E010875
:108BC000B06E01082DE9F047DFF8549186B00446F5
:108BD0000F46D9F808A09AF8005005F00F05AD002F
:108BE000132D18D94389032B15D943681B78082BFB
:108BF00011D1D9F8140000F0F003E02B0BD0D9F814
:108C0000001000F0B3FC30B92389072B03D92046AC
:108C100004F076F928B1204606B0BDE8F047FAF72F
:108C2000E1BF05F1100120461FFA85F80591FAF71A
:108C3000ADFF059900285FD0238903EB080189B2B5
:108C40008B42E8D84FF420721020FBF72DF806462F
:108C50000028E0D0428905F108039A4203D2304649
:108C6000FAF7C0FFD7E751462A464068F9F78CFB70
:108C700029463046FAF78EFF28B1254AB621254805
:108C8000FAF798FBEBE721463046FBF7E5F90028B9
:108C9000E5D120463446FAF7A5FF29462046666806
:108CA000FAF774FF0028B6D165684FF6F772D9F865
:108CB00014304146EB60D9F810304FF0FF092B61BA
:108CC00073883070284693428CBF093308339BB2B7
:108CD0007380002685F80890AE72EE7204F00AF9EF
:108CE0000123688132460C4920460297CDE9006392
:108CF0004B4600F017FC8EE72046FAF74BFF0028A2
:108D0000CBD0034AC7210548FAF754FB83E700BFDD
:108D1000886E0108DC6E0108245A0020106F0108DB
:108D2000105A00200A460321FFF7F6BE0A460B211F
:108D3000FFF7F2BE284B2DE9F0431B6889B00746C8
:108D40000E46904608214FF4207238200693FAF719
:108D5000ABFF054600283CD043894468072B05D863
:108D60001E4A40F202311E48FAF724FB3B68B8F174
:108D7000160F4FF008012046069308BF06F10409BC
:108D8000736813BFDFF85C9063600123636008BF02
:108D90003372002684F800806670A670E67004F0D6
:108DA000A9F840F2944360804A46ADF81C30042391
:108DB00006A92846049307ABADF81E60CDE90273FF
:108DC0000223CDE90063012300F092FB2846FAF765
:108DD00009FF09B0BDE8F083A8700108446F0108DD
:108DE0006C6F0108AC52002038B5437A04460D463A
:108DF000022B05D0012B09D143890BB18B4205D938
:108E0000022D04D8012363810123637238BD02F06F
:108E100027FCB0FBF5F101FB15056581002DF1D0B4
:108E2000F2E70000034B044A1A6002F18072034B20
:108E30001A607047B0520020E0000001AC520020E0
:108E400010B5436A0BB11C6804B910BD204605215A
:108E5000FFF7CAFF2468F7E7406A00B97047426825
:108E60000B689A42FAD00068F7E70000F8B50646AA
:108E70000D46FFF7F1FF0446D0B90B20776A04F0E6
:108E8000E9F80446A0B10023A5B12A682373C4E918
:108E900001230F4B2A681B6877B99A4205D00D4A07
:108EA0004FF486710C48FAF785FA00232360746248
:108EB0002046F8BD2A46E9E79A4205D1054A4FF413
:108EC00089710648FAF776FA3B6823603C60EFE761
:108ED000B0520020446F0108A86F0108DA6F010842
:108EE00010B50B490446FFF7C1FF60B1022343727E
:108EF000037B01330373A36B43B101220449204672
:108F00009847002010BD4FF0FF30FBE71846F9E707
:108F1000B0520020F7B50E4641890546174607298D
:108F200005D8284603B0BDE8F040FAF75BBE4468B8
:108F3000204603F0DFFF0028F3D139463046FFF723
:108F40008BFF0028EDD02378112B08D0162BE8D109
:108F5000437A012B04BF4FF400738360E1E7124AA8
:108F600039681268636891421BD17BB963780BB989
:108F70000A236370736A002BD3D01E68002ED0D0F2
:108F800030466178FFF730FF3668F7E701A93046D1
:108F90000193FFF761FF0028C3D06178FFF724FF3A
:108FA000BFE7002BBDD0F8E7B052002037B505462B
:108FB000019102F08DFB01990B6803F0F002E02AA9
:108FC0002ED11A4A126893422AD095F831309B0666
:108FD00026D52846FFF74AFF044620B3437ACBB98B
:108FE000037B2BB9AB6B1BB1012201992846984733
:108FF000162221462846FFF79DFE02F031FB05238D
:109000000122B0FBF3F303EB83036272C01A08BFC3
:1090100010466081237B00200133237303B030BDF1
:109020006FF00500FAE74FF0FF30F7E7B05200208D
:1090300038B50C46054602F04BFB236803F0F002FE
:10904000E02A15D10C4A1268934211D00B4B1868D4
:1090500070B190F831309B060AD525B12B6813B159
:109060000268934204D12146BDE83840FFF79EBF15
:109070006FF0050038BD00BFB05200204451002001
:1090800070B50E46054602F023FB336803F0F0028C
:10909000E02A2FD1194A126893422BD095F831302B
:1090A0009B0627D531462846FFF7D6FE044608B36F
:1090B000037B012B1BD86B6A23B11A68944214D12D
:1090C00022681A60237A23B1172221462846FFF727
:1090D00031FEAB6B1BB10022314628469847214632
:1090E0000B2003F0C3FF002070BD1346E4E7013BF3
:1090F0000373F8E76FF00500F6E700BFB0520020F9
:1091000038B50C46054602F0E3FA236803F0F00296
:10911000E02A15D10C4A1268934211D00B4B186803
:1091200070B190F831309B060AD525B12B6813B188
:109130000268934204D12146BDE83840FFF7A0BF42
:109140006FF0050038BD00BFB05200204451002030
:10915000F8B50E4B1D681DB16C6A02270C4E04B9A0
:10916000F8BD638983B1013B9BB2638163B9637AC4
:10917000012B09D1626833689A4205D01622214634
:1091800028466772FFF7D6FD2468E8E744510020BF
:10919000B05200200A4A0346106878B190F8312096
:1091A00002F00502052A06D1026832B11B787F2B36
:1091B00008BF00207047002070471046704700BF6E
:1091C000445100202DE9F84304460E4602F080FA8F
:1091D00067683D782B09042B05D02046FAF702FD7D
:1091E0000020BDE8F883788805F00F05FAF76CFADF
:1091F00023894FEA8509804683424D4603D90146BB
:109200002046FAF7EBFD6389AB42E6D32389434559
:10921000E3D3132DE1D92946384603F06BFE00282D
:10922000DBD13869474D00F0F0026861E02AFB6845
:109230002B6196F8313055D19A0644D44FF000088E
:109240003146286900F092F90028C6D12B6903F055
:10925000F003E02BC1D0B8F1000FBED0FB8823F0A3
:10926000C00333B1204600F097FB04460028B7D076
:109270004768AF6049462046C5E900863B7803F061
:109280000F039B00AB81FAF785FC7B7A062B48D055
:1092900037D8012B4AD0022B4DD04146686900F0E7
:1092A00065F960B96B6903F0F003E02B07D049461C
:1092B0002046FAF78FFC02212046FFF733FD2046B7
:1092C000FAF790FC25E005F114013046FFF7C4FDE4
:1092D0000028B3D06A691C4B9A4201D12B6973B143
:1092E000B046ADE7DB07A9D53368002BA6D098427E
:1092F000F6D0314600F03AF900289FD0F0E7B046AA
:10930000ACE7112B01D0882BC7D131462046FEF7A0
:1093100043FD0023C5E90033AB60AB81C5E90433ED
:109320005EE731462046FCF755FDF2E73146204620
:10933000FFF748FCEDE7054A31462046FFF7EAFD16
:10934000E7E700BF105A0020E0000001245A002087
:109350002DE9F04F87B004469B4690469DF840307B
:109360009DF844900293DDF848A0BDF8505001915B
:1093700002F0AEF9A37B012B05D0584A40F27631BA
:109380005748FAF717F8B8F1000F00F09380002D56
:1093900000F08C80282D00F29E80EE1C204626F0E6
:1093A0000306B6B206F114073146BFB2FAF7EEFB78
:1093B00020B16FF0010007B0BDE8F08F03902A469E
:1093C00013996068F8F7E0FFB542039B05D2606827
:1093D000721B19462844F9F709F8002361687608DA
:1093E0001D4631F8132001339E421544F9DC142147
:1093F0002046FAF7CBFB0028DBD163896668132B84
:1094000005D8364A40F2AA313648F9F7D3FF86F834
:10941000099049EA0B2986F808B0C7F38707D8F8FE
:1094200000204FEA292347F0400743EA092332612D
:109430004FEA1249377019FA82F212FA83F31D4487
:10944000029B43EA0727737020893B1243EA0723F4
:10945000254F15FA83F5FAF737F900237080054494
:109460003888B371F371FAF72FF93A884319B0804D
:1094700001323A80019ADAB91C4A126813FA82F36F
:10948000F26003EB12439AB202EB134303EB134374
:10949000DB437381BAF82830B3B122899A4213D9D9
:1094A00042465146204600F04DFC84E714279EE7D3
:1094B000019AE2E76389132B7FF67BAF63680DF1B6
:1094C00014081B690593E5E7DAF810304246214697
:1094D000504698476FE76FF005006CE71C70010875
:1094E000437001084F700108B4520020A8700108B1
:1094F000F0B59C469DF814509DF81860BDF824E026
:10950000DDE907471AB109B10B6803B92146059592
:109510006346CDE9087ECDE90664BDE8F040FFF77B
:1095200017BF000010B5002486B0CDE903440A9CA3
:1095300002949DF8244001949DF820400094FFF788
:10954000D7FF06B010BD000010B5002486B0CDE9ED
:1095500003440A9C02949DF8244001949DF8204005
:109560000094FFF7F5FE06B010BD0000431E024652
:10957000033312D891F8313013F0020010D00B6889
:1095800093420CD048685340034208D1C34322EAB7
:109590000000C31A5842584170470120704700200C
:1095A000704700002DE9F04385B00D4690F900208A
:1095B00004236E46DFF838C13746D1B211F80C10DB
:1095C00011F0040100F08B80302A27D190F901209E
:1095D00022F0200158290DBF90F9022001304FF0F0
:1095E000080E023008BF4FF0100E01300024D1B237
:1095F00000F1FF381CF8011011F0040F11D0BEF17A
:10960000080F04D1A2F13009B9F1070F1AD804FBF1
:109610000E24303C90F900200130E8E74FF00A0EAC
:10962000E3E7BEF1100F0DD111F0440F0AD001F0A5
:1096300003010A3202290CBF61214121521A42EA78
:109640000414E7E72E2A08D1013B48D008F10100B5
:1096500098F9012046F8044BAFE712B111F0080069
:109660003ED0F01B80100130042832D8DFE800F033
:10967000380B03122000B4F1807F30D2009BFF2B07
:109680002DD844EA03641DB12046FAF721F828607A
:10969000012025E0B4F5803F21D2009AFF2A1ED890
:1096A000019BFF2B1BD81B0443EA02631C43EAE720
:1096B000FF2C14D80099FF2911D8019BFF2B0ED83D
:1096C000029AFF2A0BD81B0443EA016343EA0223F0
:1096D000ECE7054AFB210548F9F76CFED3E70020CB
:1096E00005B0BDE8F08300BF7C70010877810108F8
:1096F000558801082DE9F74F0D4603680DF1040C5C
:10970000042000264FF00A0E4FF02E0801931CF89B
:10971000014B0027A2460DF1080BB4FBFEF30EFB34
:109720001349DCB23B46BAF1090F07F1010709F111
:1097300030099B44FFB20BF8089CEBD80CF8014CA5
:1097400037462C46FF2B06F101060DD1974218DA59
:109750000138254610F0FF0005F8018BD7D12070A5
:10976000084603B0BDE8F08F5D1E9742EDB208DAFF
:1097700002AF3B44374613F8083C04F8013B2B4644
:10978000E0E70020EDE7000038B50C4B04460D463D
:109790001A68824207D102681A6021460420BDE897
:1097A000384003F063BC29B9054A40F24511054829
:1097B000F9F700FE23682B60EFE700BFB8520020E6
:1097C000B0700108DC70010881422DE9F0470446C1
:1097D0000E4604D12C4AAB212C48F9F7EBFD3EB1E3
:1097E0003368A34204D0284AAD212948F9F7E2FDA5
:1097F00067687B689A8882BB1B6804F11C01636000
:1098000004F108037A6853F8040B8B4242F8040B06
:10981000F9D101213846FFF789FA3846FAF74CFBAF
:1098200005463846FAF7DEF96768DFF85C80DFF84E
:109830006C90A7B92046174C3146FFF7A5FF238847
:10984000AB4204D2104AD2211348F9F7B3FD238862
:1098500028465B1B2380BDE8F0870025E4E77B6892
:109860003846D3F800A0FAF727FB0544B5F5803F4A
:1098700004DB4246CC214846F9F79CFD3846ADB2A0
:109880005746FAF7AFF9D4E7B0700108F87001084D
:1098900004710108B65200203371010816710108E5
:1098A0002DE9F04105460F460026DFF868800024C8
:1098B000D8F800302146A446204653B910B1FFF72E
:1098C00083FF0644BE4201DA012CF0DC3046BDE8DD
:1098D000F081D5F80CE05A69724509D1D5F810E04D
:1098E0009A69724504D1B3F80CE0AA88964508D06D
:1098F000013460B1C27F93F81FE096459CBF61467A
:1099000018461A68002A18BF9C461346D5E76146D8
:109910001846F6E7B852002010B5044628B9064AA2
:109920004FF431710548F9F745FD21460520BDE8A2
:10993000104003F09BBB00BFB0700108AE5A010895
:1099400010B5044628B9074A40F2CE210648F9F777
:1099500031FD606908B1FAF745F92046BDE81040CD
:10996000FFF7DABFB07001085871010838B5094B2C
:109970000024186800B938BDC37F056823B1013BD6
:10998000C37704462846F5E72146FFF71DFF20462A
:10999000F7E700BFB85200202DE9F74F4568804631
:1099A0002B7803F00F03052B40F09F80E888F9F730
:1099B0008BFE07466888F9F787FE2A7802F00F02C7
:1099C000B0EB820F4FEA8203C0F08F80C31AB74C0E
:1099D00040469BB20193FAF76FFA2388814603440D
:1099E0003C2B78DCB24E3468002C40F0838004209D
:1099F00003F030FB044658B949462846FFF750FFAC
:109A0000814572DC042003F025FB044600286CD05D
:109A10001C220021201DF8F7E9FC0F2304F10802A5
:109A200005F11401E3773368346023602B4653F863
:109A3000040B8B4242F8040BF9D1B5F806A0C7F32A
:109A40000C071AF0200A4FEAC7070AD1019BFB183E
:109A50009BB29F4200F23A814FF6EB72934200F2C2
:109A60003581D8F804506888F9F72EFE2B7803F07A
:109A70000F03B0EB830F4FEA8302C0F02781801AF7
:109A80001FFA80FBE888F9F71FFEC0F30C00D8F836
:109A900004600025C30035700BEB03027570B570D0
:109AA00090B2F570B3808342F28000F20F81D4F857
:109AB00004C04FF0010B614659BB002D40F0B1804E
:109AC000BCF1000F00F09D807A4A4FF4DF717A48B4
:109AD000F9F770FC95E001462846FFF7E1FE20B15A
:109AE00023884B443C2B7FF77DAF4046FAF77AF84A
:109AF00000277FE0EB6862699A4208D12B69A2696E
:109B00009A4204D1A289AB889A4200F0F28024687C
:109B10006AE74A68B2F804E0734575D23160002DF7
:109B20006CD0E9888B42C0F0D18093888342C0F02A
:109B3000CD80C5F80080B3888B4240F0F680BAF142
:109B4000000F04D0A37F13F0010300F09E80BBF14F
:109B5000000F75D14FF0000B544E30888144A6F8A9
:109B60000090BAF1000F06D1019B1F44A37F43F080
:109B70000103A783A377BBF1010FB9D1636804F197
:109B80001C01A08B5F6804F1080314303D683A465D
:109B900080B253F804CB8B4242F804CBF9D1F9F7E9
:109BA00093FD0023788014213846BB71FB71BB7292
:109BB000FB7203F09FF978816768002D67D13C4BF9
:109BC0001B68A34202D01D46002B6DD120462946BA
:109BD000FFF7DAFD3846FAF76FF933880446834217
:109BE00005D2344A40F29B213448F9F7E3FB308830
:109BF000041B3480384603B0BDE8F08F938883425D
:109C000064D3C4F804809AE760D0D18899425DD8C3
:109C100025B1E988714518BF4FF0000B1168154652
:109C20004AE7EA889A4205D9224A4FF4DB71244870
:109C3000F9F7C0FBEA88C5F80080B3889A427CE750
:109C40006368002B86D059688B88002B82D13368DB
:109C500093B9B14205D1174A4FF4F0711948F9F799
:109C6000A9FB3368002B3FF477AF124A4FF4F17130
:109C70001548F9F79FFB6FE75A68F0889388984278
:109C80007FF468AF13681646E2E79B4664E7D5F8B1
:109C9000048014212846F9F77DFF29463846FAF753
:109CA0002DF9D8F8005088E72B688AE7B6520020D3
:109CB000B8520020B070010882710108E8710108F3
:109CC00064710108B9710108C67101086368002B4D
:109CD0007FF40BAF184B1B68A34205D0174A40F224
:109CE000AB211748F9F766FB00212046FFF74CFD32
:109CF000FBE6E888F9F7E8FCC0F30C0000287FF4E5
:109D00009CAEE089F9F7E0FCC0F30C0000283FF4BA
:109D100094AE2B4604F1080205F1140153F8040B2C
:109D20008B4242F8040BF9D187E6BAF1000F3FF4F9
:109D300011AF4FF0000B05E7B8520020B0700108DA
:109D4000037201082DE9F04F2DED028B0B8D08EE0B
:109D5000102A8BB00546B3F114028A4648BFA3F11E
:109D60000D02C2F3CF030593436802931B7803F0FF
:109D70000F03052B4FEA830740F0BE804389132B66
:109D800040F2BA80029B0026D888F9F79DFCC0F308
:109D90000C032C89039300F40053143C0793059B98
:109DA000A4B2DB009BB206932CB920460BB0BDECED
:109DB000028BBDE8F08F069B4FF420721421102017
:109DC000A34228BF23460493F9F76EFF8046A0B351
:109DD0004389132B05D84A4A4FF449714948F9F78A
:109DE000E9FA029BD8F804201946143153F8040B01
:109DF0008B4242F8040BF9D1D8F804B0DDF810908A
:109E0000B9F1000F40D06B89DE1BBB42B6B205D260
:109E10003B4A40F22D313C48F9F7CCFA4E4528BF79
:109E20004E4616B92D680027EAE7052003F012F91F
:109E3000034628B94046F9F7D5FE4FF0FF30B5E7A5
:109E4000019631466A68089000203A440092412207
:109E5000F9F782FE089B18B91846FFF75DFDE9E7A0
:109E6000CDE90803A9EB06092846FAF72DF8099B66
:109E7000264A1FFA89F9089940465D611A61FAF786
:109E80003DF8B9F1000FCDD1039B3744C3F30C006B
:109E9000BAF82830BFB2133BA34201DD079B0BB1D8
:109EA00040F40050F9F710FC049BABF8060003F1F6
:109EB000140080B2F9F708FC00231421ABF802006B
:109EC0008BF80A3058468BF80B3003F013F818EE75
:109ED000102AABF80A004146DAF81030504698478D
:109EE0004046F9F77FFE049B059AE41A039B13444E
:109EF000A4B29BB2039357E76FF0050056E700BF8B
:109F0000B0700108247201084472010841990008E8
:109F10001FB5C36902938369019343690093D0E934
:109F20000323D0E90101F9F7F7FC00280CBF6FF01B
:109F30000B00002005B05DF804FB000010B5C468FC
:109F4000034640681CB12346BDE8104018479B6893
:109F50009847204610BD000030B50E4C89B000294E
:109F600014BF0D462546002A14BF11462146002B7A
:109F700018BF1C460C9B05930D9BCDE9031406935B
:109F800069460E9BCDE901050348079301F094FA59
:109F900009B030BDA8700108119F000800B589B054
:109FA000CDE9010169460348039201F085FA09B041
:109FB0005DF804FB3D9F00082DE9F04707460E467B
:109FC0000025DFF868802C0101F0B6FC54F808A0E9
:109FD000BAF1000F1ED108EB040948F8047001F033
:109FE000B3FC99F80E30C9F804A02BB10D4A40F229
:109FF00035210D48F9F7DEF94444002222813B78EF
:10A00000A28103F0F003102B18BF012666812846B9
:10A01000BDE8F087013501F097FC402DD3D14FF01A
:10A02000FF35F4E75472010879720108C055002029
:10A030002DE9F04F00248BB083460F469046994699
:10A04000504E25464FF0010ACDE90444CDE90644BF
:10A05000CDE908445D4510DBDDE90401149B83E88C
:10A060000300DDE90601159B83E803000AAB13E951
:10A070000300169B83E8030080E047B16A0905F0FE
:10A080001F0357F822200AFA03F3134217D1B8F13D
:10A09000000F08D06A0905F01F0358F822200AFAB9
:10A0A00003F313420BD1B9F1000F60D06A0905F038
:10A0B0001F0359F822200AFA03F3134257D001F084
:10A0C0003BFC3F2D56D873897168B6F9082001937F
:10A0D000B38903910093029201F036FC019BCFB14A
:10A0E0004FEA551E05F01F0C57F82E000AFA0CFC1B
:10A0F0001CEA000F0ED0DDE9022109B9002A09DDB2
:10A100000AAA013402EB8E0151F8182C42EA0C0223
:10A1100041F8182CB8F1000F12D0680905F01F01A2
:10A1200058F820200AFA01F1114209D043B10AABD4
:10A13000013403EB800252F8103C0B4342F8103C10
:10A14000B9F1000F13D06B0905F01F0159F8232056
:10A150000AFA01F111420AD0009A42B10AAA013466
:10A1600002EB830252F8083C0B4342F8083C0135ED
:10A1700010366FE74FF0FF3401F0E6FB20460BB0DE
:10A18000BDE8F08FC05500202DE9F04F002A85B0C2
:10A1900098460746ACBF16466FF00046019128B9B5
:10A1A000484A4FF471714848F9F704F93B681B7845
:10A1B00003F0F003102B05D0424A40F2C53143486A
:10A1C000F9F7F8F818F0080F4FF00005DFF8F490F1
:10A1D0000CBF08220C22DFF8FCA0DFF8FCB07B6883
:10A1E000002B3DD0039303986FF00043019904893D
:10A1F0002944B442A8BFB4B21B1BAB424FF00003CA
:10A20000BCBFEC43A4B222462544F9F72DFFB4426B
:10A2100005DD4A4640F203415846F9F7CBF818F0FD
:10A22000010F4AD1039B1B89A34205D24A4640F243
:10A2300009412748F9F7BEF8039803891B1B002B37
:10A2400036DD2146F9F720FE7860361B1C22002EF1
:10A25000C5DC002D33D02946386803F005F809E045
:10A2600003A9386803F0BCF90446B0B135B118F061
:10A27000010FF0D0284605B0BDE8F08F04F09EFA3B
:10A2800030B109F0A3FF0546204604F097FA286094
:10A290000F3418BF01246542ECE7039B2BB94A46F3
:10A2A00040F2EB315046F9F785F8039B7B609AE763
:10A2B00000237B60F9F796FCC7E7002DDAD1002573
:10A2C000D8E700BF5472010898720108A87201080B
:10A2D000EF720108AE5A0108CA7201083F2808B59A
:10A2E00005D8064B020103EB00109B5823B909F077
:10A2F0006DFF09230360002008BD00BFC05500208A
:10A3000070B588B00E4615460193FFF7E7FF019B35
:10A3100018B94FF0FF3008B070BD0DF10A0203A963
:10A32000006802F035FF044658B104F047FA0028EF
:10A33000EFD009F04BFF0546204604F03FFA2860B5
:10A34000E7E74FF40473BDF80A00ADF81030F9F7F1
:10A35000BBF9039B04A9ADF8120030460794CDE980
:10A3600005342B68102B84BF10232B602A68F8F764
:10A370000BF80020CFE700002DE9F0470F46054617
:10A38000002843D08469002C0FDA01F0D5FAAC69BB
:10A390000346002C07DA0FB9013CAC611846BDE852
:10A3A000F04701F0D1BA01F0CFFA2046FFF796FF4F
:10A3B000054658B301F0C0FA0646042F3AD8DFE844
:10A3C00007F003272C3336002B8901331BB2012BF6
:10A3D0002B81CCBF00230123AA7B002A56D0002B5F
:10A3E00054D03046B5F90870B5F80A806609B5F85A
:10A3F0000C9004F01F0401F0A7FA4FF0010A01F0DD
:10A4000067F9234B0AFA04F41D68DDB9BDE8F0874B
:10A410002B89013B2B810023DEE76B890122B3FAF4
:10A4200083F36A815B09D7E700236B81D4E70123BB
:10A43000AB81D1E7174A40F61D211748F8F7BAFF5C
:10A440000123C9E76B69FBB9002F05DDAB681BB1C0
:10A4500053F826301C4211D1B8F1000F05D0EB683B
:10A460001BB153F826301C4208D1B9F1000F0BD0B4
:10A470002B694BB153F826301C4205D005F118006A
:10A48000C5F814A001F038FA2D68BEE7304686E71B
:10A49000BC5200205472010800730108082808B556
:10A4A0000AD0202808D0042806D0044840F6663197
:10A4B000034AF8F77FFF002008BD00BF10730108B2
:10A4C00054720108F0B5064685B00F461C46154685
:10A4D0002AB9134A40F22E411248F8F76BFF2CB903
:10A4E0000F4A40F22F411048F8F764FF4FF404730D
:10A4F0003846ADF80030F9F7E7F833686946ADF84B
:10A500000200284601930023CDE902332368102B73
:10A5100084BF102323602268F7F736FF05B0F0BD33
:10A520005472010828730108357301082DE9F74FAB
:10A530009846936807460E46144613B9D368002B15
:10A5400056DC16F0080F7B6814BF0422002201932A
:10A550007BB901A9386802F0E5FF00284AD1019BC8
:10A560002BB9264A40F284412548F8F723FF019B86
:10A570007B60019B4FF000091B68CB46B3F808A035
:10A58000E368994501DADA4519D822683AB1636877
:10A590002BB10198231D81890830FFF793FF002319
:10A5A0002269A36102B1636116F0010603D101982B
:10A5B0007E6004F011F90020A8F800A01AE0A1685C
:10A5C000AAEB0B054FEAC90001EBC90309F1010928
:10A5D000ADB209585B680198AB42006898BF9DB264
:10A5E0005B462A465D44F9F73FFD1FFA85FBC7E746
:10A5F0006FF00F0003B0BDE8F08F00BF5472010888
:10A6000048730108F8B504460E4601F095F9002399
:10A61000656827686360236001F096F91DB12846DC
:10A620003EB1F9F7DFFA3FB13846BDE8F84002F035
:10A63000A1BD04F0D1F8F6E7F8BD0000F0B50023A5
:10A6400089B00F461646ADF80630FFF747FE0546BF
:10A6500020B94FF0FF34204609B0F0BD02A90068D0
:10A6600002F09EFE0446E8B12B681B7803F0F0036D
:10A67000102B04D009F0AAFD5F230360E9E710F175
:10A680000F0F03D109F0A2FD1623F6E704F096F8A8
:10A690000028DED009F09AFD0546204604F08EF829
:10A6A0002860D6E7029B2BB9374A40F2B2213748DF
:10A6B000F8F780FE01210298FFF77EFC431C044658
:10A6C00007D1029802F056FD09F080FD17230360C0
:10A6D000C1E73F2805D92C4A40F2BB212C48F8F7A6
:10A6E00069FE01F029F9029B9D699C6101F02CF93A
:10A6F000029B1B6B3BB1ED432DB200F0D9FF002D47
:10A7000021DC00F0DDFF002FA5D0002EA3D0002318
:10A710000DF1060203A9029802F03AFD0546C8B100
:10A720001C48012100EB0410FFF76CFF284604F0E1
:10A7300045F800288DD009F049FD0446284604F06C
:10A740003DF8206085E702980022013D036B114629
:10A750009847D4E74FF40473BDF80600ADF8103005
:10A76000F8F7B2FF039B04A9ADF81200384607952D
:10A77000CDE905353368102B84BF10233360326870
:10A78000F7F702FE67E700BF54720108547301082F
:10A7900064730108C055002073B50C461646FFF7D8
:10A7A0009DFD054618B94FF0FF3002B070BD102E68
:10A7B00004D16378022B01D1A3070ED06FF00F00F4
:10A7C00003F0FCFF0028EED009F000FD04466FF016
:10A7D0000F0003F0F3FF2060E5E7636860880193F2
:10A7E000F8F772FF01A90246286802F0E7FC044668
:10A7F0000028DAD003F0E2FF0028D4D009F0E6FC0C
:10A800000546204603F0DAFF2860CCE72DE9F74340
:10A810000546FFF763FD064620B94FF0FF3003B051
:10A82000BDE8F0830468002C37D0247804F0F004ED
:10A83000A4F110035C425C412846FFF74FFD074638
:10A84000D0B11E4D4FF040084FF000092B689F42D9
:10A850000DD1AB6801AAC5F80890694600936B68F2
:10A8600001930123C5E90099386802F0C5FEB8F1EB
:10A87000010805F10C05E9D1306802F06BFC0546D2
:10A88000B0B103F09BFF0028C7D009F09FFC04463D
:10A89000284603F093FF2060BFE7436833B1084ABE
:10A8A00040F23A310748F8F785FDC5E71C46C3E793
:10A8B00030462146FFF7A6FE2846B0E7C0520020EA
:10A8C000547201087C73010873B50C461646FFF7F5
:10A8D00005FD054618B94FF0FF3002B070BD637832
:10A8E0008BB9006802F09EFC04460028F5D003F006
:10A8F00065FF0028EFD009F069FC0546204603F00B
:10A900005DFF2860E7E7102E03D1022B01D1A307DA
:10A910000ED06FF00F0003F051FF0028DBD009F0DC
:10A9200055FC04466FF00F0003F048FF2060D2E7AB
:10A93000636860880193F8F7C7FE01A9024628689A
:10A9400002F056FCD0E7000038B50C46FFF7C6FC15
:10A95000054610B94FF0FF3038BD84F30801006898
:10A96000C9B202F06FFC04460028F5D02B681B78B2
:10A9700003F0F003102B04D009F028FC5F230360E0
:10A98000E8E703F01BFF0028E4D009F01FFC0546B0
:10A99000204603F013FF2860DCE700002DE9F041BA
:10A9A0008CB00C4617460193DDE91285FFF796FC43
:10A9B0000646002844D0036801991B7803F0F00391
:10A9C000102B1AD10B463A462146FFF7DDFB044611
:10A9D000B8F1000F0DD065B1002303AA05A93068B6
:10A9E00002F0D6FB2B464246BDF80C1005A8FFF737
:10A9F00069FD20460CB0BDE8F0810023CDF814803D
:10AA0000ADF80A300B93CDE9093303AB079301236B
:10AA1000CDE903470893B5B12B68069305AA0DF15C
:10AA20000A033046FFF782FD044670B103F0C6FE0C
:10AA300030B109F0CBFB0546204603F0BFFE28608D
:10AA40004FF0FF34D5E72B46E7E7BDF80A40BC429C
:10AA500028BF3C46002DCCD0069B2B60C9E70000E8
:10AA60002DE9F04186B00746154601910093DDE9D6
:10AA70000C48FFF733FC0646DDE9003120B94FF002
:10AA8000FF3006B0BDE8F0810268127802F0F002F3
:10AA9000102A06D12A46384606B0BDE8F04100F03B
:10AAA00053B8B5F5803F04D309F090FB7A230360D7
:10AAB000E5E7AAB284BBB8F1000F35D10023CDE998
:10AAC00002333CB3636860880493CDE90021F8F752
:10AAD000FBFD0446DDE9002102A8ADF8144003F0B7
:10AAE00099FE044620B902A9306802F0D3FB04465F
:10AAF00002A803F083FE204603F060FE30B109F0A7
:10AB000065FB0646204603F059FE3060002CB6D1A6
:10AB10002846B6E70494DFE7B8F1100F04D1637854
:10AB2000022B01D1A307C9D06FF00F0003F046FE3E
:10AB30000028A4D009F04AFB04466FF00F0003F090
:10AB40003DFE20609BE7000030B587B005461C46FF
:10AB5000CDE90221FFF7C2FBDDE9022118B94FF070
:10AB6000FF3007B030BD03681B7803F0F003102BF3
:10AB700007D000232846CDE900332346FFF770FFB6
:10AB8000EFE714F0100F4FF000054FEA640414BF14
:10AB900003230123059504F0040405AD2343009528
:10ABA000006802F0E1FB044603F008FE30B109F052
:10ABB0000DFB0546204603F001FE2860002CCED197
:10ABC0000598CEE7022938B5134612D0032905D0DF
:10ABD000012916D1174A0021102002E0154AD9B2E6
:10ABE000402002F06BFA044698B909F0EFFA6923A5
:10ABF0000AE0882A4FF000010E4A0CBF21202020D5
:10AC0000EFE709F0E3FA16234FF0FF35036028461B
:10AC100038BD0021FFF7D0F9431C054607D1204677
:10AC200002F0A8FA09F0D2FA17230360EFE7A06157
:10AC3000EDE700BF79A300082DE9F04F402895B05B
:10AC40008A46914698461E9E049009D909F0BEFA9C
:10AC5000162303604FF0FF34204615B0BDE8F08F97
:10AC60000BAC029409AC019407AC0094FFF7E0F937
:10AC7000051E03DA09F0AAFA0923EAE740F02C815D
:10AC80003EB1D6E90023134303D1B468002C00F091
:10AC9000BE800DAC00211C222046F7F7A7FB002147
:10ACA00013A8CDF84480CDE90FA900F0FFFD18B13D
:10ACB00009F08CFA0C23CCE700F0FAFC874A136801
:10ACC0000D9303B15C60DFF818B22F46146000F0FA
:10ACD000F7FC5C460121049B9F4212D10BAB4A4614
:10ACE00051463846029309AB019307AB00934346A4
:10ACF000FFF79EF9041E45DA09F068FA092303609C
:10AD000038E0BAF1000F08D0780907F01F035AF8AD
:10AD1000200001FA03F3034217D1B9F1000F08D064
:10AD2000780907F01F0359F8200001FA03F30342E2
:10AD30000BD1B8F1000F22D0780907F01F0358F8A3
:10AD4000200001FA03F3034219D000F0F5FDA37BC4
:10AD50000133DBB2A3737BB90593FF22604B03EB96
:10AD60000714A2734FF0FF3400F0EEFD09F02EFA45
:10AD70001022026000261AE000F0E6FD01210137F2
:10AD80001034A8E7F6D1002E5AD0B1684FF47A7388
:10AD9000326801F5FA7191FBF3F103FB021101290D
:10ADA000B8BF012113A800F095FD049F0646BD42DF
:10ADB00048D100F07DFC0D9B0BB10E9A5A60474DB7
:10ADC0000DAA0E9B296891427BD12BB1454A40F2D6
:10ADD00033714548F8F7EEFA0D9B2B6000F070FCDC
:10ADE00013A800F08DFD002CFFF634AF01360ED015
:10ADF0000BAB4A4651460498029309AB019307AB4B
:10AE000000934346FFF714F9041EFFF633AFBAF17F
:10AE1000000F03D0DDE907018AE80300B9F1000F54
:10AE200004D009AB93E8030089E80300B8F1000FF0
:10AE30003FF412AF0BAB93E8030088E803000BE785
:10AE40002146AFE7BAF1000F08D06A0905F01F01EB
:10AE500001235AF822208B40134217D1B9F1000F79
:10AE600008D06A0905F01F01012359F822208B4000
:10AE700013420BD1B8F1000F1FD06A0905F01F0172
:10AE8000012358F822208B40134216D000F054FDC5
:10AE90009BF80E2003463AB9059040F66501114A29
:10AEA0001248F8F787FA059B9BF80E2012B1013A79
:10AEB0008BF80E20184600F047FD01350BF1100B02
:10AEC00075E72BB9074A40F236710948F8F772FA6C
:10AED000DDE90D231A6081E72C4698E7BC5200207B
:10AEE000C055002054720108AD7301089473010825
:10AEF000C57301080123FFF703BA00002DE9F347EA
:10AF00000A9F82460C4616461D46FFF7E7F920B118
:10AF100035B909F05BF90E2303604FF0FF3472E09E
:10AF200000F0C6FBBAF13F0F06D9092400F0C8FBB8
:10AF300009F04CF90460F0E7DFF884934FEA0A184F
:10AF400059F80830002BF0D0882C00F08D8109DCF6
:10AF5000002C00F0B180062C00F061816D2400F01F
:10AF6000AFFBE5E740F6FF729442F7D141F20B02E6
:10AF70009642F3DC41F20102964211DC082E06D023
:10AF8000202EEBD11B7803F0F003202BE6D13046C6
:10AF9000FFF784FA032F1FD8162400F091FBC7E7B0
:10AFA000A6F58056023E092ED8D801A252F826F006
:10AFB0002BB000085DAF00085DAF00085DAF000872
:10AFC0000FB000085DAF00085DAF00085DAF00087E
:10AFD00035B000086DB0000859F80830002BDBD000
:10AFE0005B68002BD8D02C6840B293F909202CB1B3
:10AFF00010435872002400F063FB04E022EA0000D2
:10B00000587200F05DFB204602B0BDE8F0870F2FBC
:10B01000C2D94FF47A71AA68286892FBF1F201FB59
:10B020000022002AB8DBDA61E4E7032FB4D92A68EA
:10B030001A62DFE7032FAFD95A68002AACD01B7819
:10B0400003F0F003202B89D1137C13F0020603D008
:10B050006A2400F035FB6BE72C681CB143F0010358
:10B060001374C7E723F001031374CAE7052F93D9BC
:10B0700095F9001041B12846F8F7A2FB014618B92E
:10B08000132400F01DFB53E759F80820137803F050
:10B09000F003102B08D0202B0AD0864A40F6AA5184
:10B0A0008548F8F787F9A5E75068F9F737F9A1E778
:10B0B0005068FDF7EDF89DE7721E062A3FF64EAF89
:10B0C000DFE802F00E044E4E18283800032F7FF6FA
:10B0D00063AF5B68002B3FF45FAF2A68DA7290E7DA
:10B0E000032F7FF659AF5B68002B3FF455AF2A68FA
:10B0F0009A7286E7002F3FF44FAF5A68002A3FF458
:10B100004BAF1B7803F0F003202B7FF427AF2B7895
:10B11000537776E7032F7FF63FAF5A68002A3FF454
:10B120003BAF1B7803F0F003202B7FF417AF2B68A5
:10B13000936166E7002F3FF42FAF5A68002A3FF46F
:10B140002BAF1B7803F0F003202B7FF407AF297897
:10B15000137C11B143F0080386E723F0080383E76B
:10B16000072F58D95A68002A55D01B7803F0F003EE
:10B17000202B52D16B68032E00932B68019323D1AF
:10B180005046FFF7ABF8E8B100234C4A0C2505FB0D
:10B1900003F18E589EB953185050009A01A9684681
:10B1A0005A60019A9A60FDF743FF0546002D18BFCB
:10B1B0007D2400F085FA002C3FF425AFB8E601337A
:10B1C000402BE4D10C24F4E701A96846FDF798FF71
:10B1D00005465046FFF782F80028E7D0374A00239B
:10B1E000DDE900679446116888420FD15168B14289
:10B1F0000CD19168B94209D10C22534300220CEBC7
:10B2000003004CF80320C0E90122CFE701330C32E0
:10B21000402BE8D1CAE71624CBE76D24C9E7032FFA
:10B220007FF6BAAE5A68002A3FF4B6AE1B7803F038
:10B23000F003102B7FF492AE137D012B3FF4ACAEE4
:10B24000012E06D0022E7FF489AE2B68C2F894300E
:10B25000D0E62C68538B1CB143F040035383C9E6FE
:10B2600023F040035383CCE6032F7FF695AE5A6854
:10B27000002A3FF491AE1B78212B7FF46FAE012E94
:10B280000DD0022E7FF46AAE2B6833B1A3F1080013
:10B290004FF6F771884288BF0823D383AAE62B684C
:10B2A00033B1A3F108004FF6F771884288BF082335
:10B2B00013849FE654720108E0730108C052002015
:10B2C000C055002010B50446084611461A1E05DA7E
:10B2D00008F07CFF1C230024036009E0022C09D144
:10B2E000FEF708FA044618B908F070FF1C23036043
:10B2F000204610BD08F06AFF6A23ECE708B5034654
:10B3000008461146022B03D1BDE80840FEF74AB9B2
:10B3100008F05CFF6A2303604FF0FF3008BD0000B7
:10B3200007B500F0D3F900F0C3F9284B1B6813B13F
:10B33000274A10689847274D00F0CAF9FCF70CFD22
:10B34000431C044610D100F0BBF9002201A9284695
:10B3500000F05CFA00F0ACF9019CB4B91E4A9121EE
:10B360001E48F8F727F8E7E710B9FCF7D1FCE3E748
:10B3700000F0A6F9224601A9284600F047FA044643
:10B3800000F096F90134F0D0E6E72378012B0FD0D6
:10B39000022B13D0B3B96068D4E90213984710B1F7
:10B3A0006068F8F71FFC2146092001F05FFEC3E743
:10B3B000D4E90130984721460820F6E7D4E9013066
:10B3C0009847B9E7044AD421CAE700BFC45900200E
:10B3D000C8590020CC5900200C7401082F740108B2
:10B3E000F8B5114B07460E4615461B682BB90F4A98
:10B3F00040F201110E48F7F7DDFF092001F02AFEA7
:10B40000044668B100230146C5600370C0E90176B7
:10B41000054800F093F928B12146092001F026FEE5
:10B420004FF0FF30F8BD00BFCC5900200C7401086C
:10B430005074010891F8313013F0180F14BF024A0C
:10B44000024AFFF7CDBF00BF49B50008C59100080B
:10B45000104B70B51B6806460D462BB90E4A4FF4CB
:10B46000B1710E48F7F7A6FF082001F0F3FD04467E
:10B4700060B1012301460370C0E90165054800F091
:10B480005DF928B12146082001F0F0FD4FF0FF30B2
:10B4900070BD00BFCC5900200C7401085074010825
:10B4A00013B50446019100F003F90198A04700F09C
:10B4B00007F9002002B010BD13B50446019100F059
:10B4C000F7F80198A047019000F0FAF8019802B04F
:10B4D00010BD000037B505460C4601F033FD114B99
:10B4E000002111481D60114B1C6000F0F3F828B1D9
:10B4F0000F4A40F291210F48F7F75CFF0E4800F029
:10B5000005FA28B10A4A40F295210C48F7F752FF94
:10B5100001230B490B48009300231A4600F0A2F8C0
:10B5200003B030BDC4590020CC590020C8590020B8
:10B530000C74010860740108C0590020837401086C
:10B5400021B30008A474010870B504460D4600F04C
:10B55000BFF863890E2B1AD96068E37B86891BB913
:10B5600095F834300133E3730378D9070AD5012BFA
:10B5700011D1437833B983785E2B03D1637B43F0D9
:10B5800010036373082E10D0B6F5C16F1DD020468E
:10B59000F8F728FB17E00622134908F01DFE0028E3
:10B5A000F0D1637B43F00803EBE795F831301A07DD
:10B5B000EDD50E212046F8F7EDFA0028E7D129460F
:10B5C0002046FDF7FFFD002070BD95F831301B07C8
:10B5D000DDD50E212046F8F7DDFA0028D7D129461F
:10B5E0002046FDF711F8EEE7107501082DE9F0414E
:10B5F0000D460446BDF8180016461F46F8F764F8D5
:10B600000E2180462846F8F7C1FAE8B900F060F844
:10B610006968A1F80C803B680B60BB888B8033683D
:10B62000C1F80630B3884B8194F83030062B05D032
:10B63000074A4FF49D710748F7F7BCFE6369294636
:10B640002046BDE8F04118476FF00100BDE8F081E9
:10B65000B4740108DC740108036800211B681847F2
:10B6600008F0ECBD2DE9F341054608208846174651
:10B670001E4600F0DDF9044608B1C0E900876368A2
:10B68000B6F5006F30464FF03C02B8BF4FF4006093
:10B6900000932946236806F089FF18B92946034814
:10B6A00001F05AFA204602B0BDE8F0812075010889
:10B6B000024808B5FFF7D0FF08BD00BFD0590020F1
:10B6C000014801F0ABB900BFD0590020704700001D
:10B6D00070470000F8B506464FF4157000F0A8F961
:10B6E0000446D0B1002104F50E7700F50270002564
:10B6F00001F0FEF9002104F5087001F0F9F90021CC
:10B70000384601F0F5F93846C4E9005501F0A4F9CE
:10B710002846C4F850523460F8BD4FF0FF30FBE7C4
:10B7200010B550B1046844B104F50E7001F08CF905
:10B730002046BDE8104000F081B910BD70B50E463E
:10B74000044608B1036823B9174A96211748F7F74A
:10B7500031FE246804F50E75284601F075F9D4E928
:10B76000000300F17E029A4205DA284601F074F9DE
:10B770004FF0FF3070BD594203F07F0201F07F01AE
:10B7800058BF4A42984202F1020244F8226003F193
:10B790000102626003D104F5027001F05DF92846F0
:10B7A00001F05AF90020E5E74075010879750108B4
:10B7B00070B504680D4604F50E76304601F044F984
:10B7C000D4E90032934205D1304601F045F94FF0FB
:10B7D000FF3070BD55B15A4203F07F0302F07F0283
:10B7E00058BF5342023354F823302B60236801338F
:10B7F0002360D4F850321BB104F5087001F02CF925
:10B80000304601F029F90020E3E700002DE9F84374
:10B810000E461746044608B1036823B9214AFD21A4
:10B820002148F7F7C7FD24684FF47A7804F50E75C0
:10B8300008FB07F804F50279284601F005F9D4E978
:10B840000032934213D1284601F006F947B1414630
:10B85000484601F017F930B94FF0FF30BDE8F883E2
:10B86000484601F0F1F8284601F0EEF8E7E756B156
:10B870005A4203F07F0302F07F0258BF5342023363
:10B8800054F823303360236801332360D4F85032F6
:10B890001BB104F5087001F0DFF8284601F0DCF870
:10B8A0000020DBE7407501087975010870B5054691
:10B8B00018200E4600F0BCF8044620B1311E18BF17
:10B8C000012101F015F9B4FA84F02C6040094042DE
:10B8D00070BD000008B50068036831B95B6898471F
:10B8E00080F00100C0B2404208BD4FF47A721B687C
:10B8F00051439847F4E7000000680368DB68184785
:10B90000006810B103689B691847704738B5054651
:10B91000182000F08DF8044608B101F0DDF8B4FA03
:10B9200084F02C604009404238BD000001F020B98D
:10B9300001F018B970470000024808B5FFF78CFE07
:10B94000002008BDE8590020014801F067B800BF99
:10B95000E859002010B50A4C204601F0BDF82046F9
:10B96000084C094A094908F019FC204601F0B4F8CE
:10B970002046054A0549BDE8104008F00FBC00BF4D
:10B98000E8590020D05900200C5A0020AD0D0008C5
:10B9900010B530230C4683F31188002104F1180000
:10B9A00005F05CFE2346044A2046E16906F0CCF926
:10B9B000002383F3118810BD91B9000800F118032A
:10B9C000C1618361002303607047000013B5302319
:10B9D0000446C16983F3118803681BB1019106F025
:10B9E000BDF901992346044A204606F0ADF900232B
:10B9F00083F3118802B010BD91B90008044908B55D
:10BA0000F6F7E0FC0028034818BF002008BD00BF7F
:10BA1000A0550108847B010810B50C46FFF7EEFF26
:10BA200010B183682360006910BD000070470000FA
:10BA30000121884238BF084606F0B0BD08B106F0C3
:10BA4000B1BD70477047000010B413460268146817
:10BA50000022A4465DF8044B6047000000F58050CA
:10BA600090F869047047000000F5805090F8620477
:10BA70007047000000F5805090F96804704700009E
:10BA80004E207047302383F3118800F58052D2F89E
:10BA9000AC34D2F8A8041844D2F8A4341844D2F82C
:10BAA0008C341844D2F89C341844D2F89834184492
:10BAB000002383F31188704700F58050C0F86414A8
:10BAC000012070472DE9FF470C4600F580510546DF
:10BAD000BDF8308091F8620498B1D1F88804013043
:10BAE000C1F888042068860006D4207B08280BD97A
:10BAF000667B0EB10F2807D9D1F88C340133C1F819
:10BB00008C344FF0FF30A9E0302080F31188E86BCF
:10BB1000D0F8C47017F4001713D0D1F89004013096
:10BB2000C1F89004D1F89414002940F09A8021467D
:10BB30002846CDF8008001F06BF8002383F31188CC
:10BB40008CE0D0F8C4604FF04809686BC6F3044637
:10BB500019FB060920684FEA461A0028B4BF40F0D6
:10BB6000804C4FEA804CC9F800C02068400044BFB8
:10BB70004CF00050C9F80000300694F80CC040EAC0
:10BB80000C40C9F8040094F80DC0BCF1000F26D099
:10BB900040F44010C9F80400D1F8C0040130C1F8E5
:10BBA000C00405EB0A0101F58351087F40F0200035
:10BBB0000877207BCDE9022301F0A2F80330DDE90C
:10BBC00002238010F9B20137814210DA04EB810CB4
:10BBD00009EB8101DCF804C0C1F808C0F2E705EB0D
:10BBE0000A0101F58351087F6CF34510E0E701205D
:10BBF000E96B04F10C07B040C1F8D00006F18301F5
:10BC0000204605EB4111C1E9002305EB461101F582
:10BC10008351083150F804CBB84241F804CBF9D134
:10BC20000088AA44088041F278014AF801600AF5C8
:10BC3000805A08F003019AF87C0041F0100120F0CE
:10BC40001F0001438AF87C10002181F311882146EE
:10BC50002846CDF8008000F0DBFF012004B0BDE8ED
:10BC6000F087002069E700002DE9F04700F58056D5
:10BC7000044696F86254002D40F0048190F820307C
:10BC8000032B40F0948028462B462F465FFA80FC19
:10BC9000944510DA01EBCC0E51F83CC0BCF1000F1A
:10BCA00004DBDEF804C0BCF1000F02DB0137013019
:10BCB000ECE70133FBE7302080F31188E06BF3B948
:10BCC000D0F8803043F00203C0F880304E23E06BA0
:10BCD000002F6FD1D0F8803043F00103C0F88030DE
:10BCE000694B6A4A1B6803F1805303F52C539B0090
:10BCF0009342A36340F2B080654800F02DFF4D2BC6
:10BD000042D8DFF884814FEA034EDFF88891D8F8F3
:10BD100000C04EEA8C0EC0F884E00CF1805000F5B3
:10BD20002C508000606203EB0C00D4F83CC0C3F1DF
:10BD30004E03C8F80000DCF8800040F03000CCF87A
:10BD400080004FF0000CD4F82480E6465FFA8CF0B7
:10BD50008242BCDD01EBC00A51F83000002810DB44
:10BD6000DAF804A0BAF1000F0BDA09EA00400AF091
:10BD70007F0A40EA0A0040F0084048F82E000EF121
:10BD8000010E0CF1010CE1E7836923F001038361EB
:10BD900000F0EEFE0646E36B9B69D90704D500F080
:10BDA000E7FE831BFA2BF6D9002383F3118828467C
:10BDB000BDE8F087B7EB530F3DD2DFF8CCE04FEA98
:10BDC000074CDEF800304CEA830CC0F888C003F161
:10BDD000805003EB4703002700F52C50CEF80030CD
:10BDE000BC468000A062E06BD0F8803043F00C03CA
:10BDF000C0F88030D4F828E0FBB29A427FF770AFE9
:10BE000051F8330001EBC3080028D8F8043001DBF7
:10BE1000002B0EDB20F0604023F0604340F0005028
:10BE200043F000434EF83C000EEBCC000CF1010C4B
:10BE300043600137E0E7836923F00103836100F089
:10BE400097FE0646E36B9B69DA07ADD500F090FEDE
:10BE5000831BFA2BF6D9A7E7E26B936923F0010362
:10BE6000936100F085FE0746E36B9B69DB0705D510
:10BE700000F07EFEC31BFA2BF6D995E7012586F864
:10BE8000625491E7002592E7085A0020FCB5004073
:10BE9000987B01080000FF0713B500F5805401915D
:10BEA000606DF6F741FF1F280AD920220199606DC5
:10BEB000F6F7B0FFA0F120035842584102B010BD80
:10BEC0000020FBE708B5302383F3118800F580508C
:10BED000406DF6F7FDFE002383F3118808BD0000D6
:10BEE000002202608281426082607047002200234B
:10BEF00010B5C0E90023002304460C3020F8043CB0
:10BF0000FFF7EEFF204610BD2DE9F0479A4688B0B6
:10BF1000074688469146302383F3118807F58054FD
:10BF20006846FFF7E3FF606DF6F7E4FE1F282ED9A1
:10BF300020226946606DF6F7F1FF202827D194F89A
:10BF4000623423B303AD444605AB2E46083403CE1A
:10BF50009E4244F8080C44F8041C3546F5D130687C
:10BF60002060B388A380DDE90023C9E90023BDF880
:10BF70000830AAF80030002383F3118853464A465C
:10BF80004146384608B0BDE8F04700F0FFBD00204C
:10BF900080F3118808B0BDE8F08700002DE9F84F64
:10BFA000064688461822002104303546F6F71EFA68
:10BFB000254B06F5825745F8403B2C462046203459
:10BFC000FFF794FFA742F9D106F580544FF4805350
:10BFD00006F5A4594FF0000A2564002567654FF067
:10BFE000000B06F58457E564C4E91135012384F894
:10BFF000503084F85830A7F11800203747E910ABCB
:10C00000FFF76EFF47F8285C4F45F4D184F8688449
:10C01000A4F86A54A4F86C54A4F86E5484F87054CC
:10C02000A4F87254A4F87454A4F8765484F878549C
:10C03000B8F1000F02D0054800F08EFD044B3046E9
:10C04000F363BDE8F88F00BFD87B0108BC7B010813
:10C0500000A00040044B10B5197804464A1C1A7021
:10C06000FFF79CFF204610BD055A00202DE9F04344
:10C0700000295AD02E4E2F48B6FBF1F481428CBFD6
:10C080000A201120431EB4FBF0F700FB1740DDB27D
:10C0900020B1022B1846F5D8002032E07B1EB3F504
:10C0A000806F2ED2C5EBC5084FF47A7308F10304F4
:10C0B0004FEAE40EC4F3C7040EF10109281B0EFB7E
:10C0C000033E5FFA80FC59FA80F0BEFBF0F0B0F559
:10C0D000617F18DC83B2601C5CFA80F07843B6FBA9
:10C0E000F0F08142D8D1611E0F29D5D80CF1FF3173
:10C0F0000729D1D80120138057801071547182F81C
:10C1000006C0BDE8F08308F1FF34E010C4F3C704B3
:10C1100000F1010E2D1B00FB03335FFA85FC5EFA74
:10C1200085F5B3FBF5F39BB2D5E70846E9E700BF19
:10C1300000B4C4043F420F0030B50D4B05200D4D37
:10C140001C786C438C420ED159780120518099782B
:10C150005171D9789171197911715B7903EB83036E
:10C160005B00138030BD013803F10603E8D1F9E725
:10C170001C7C010840420F0038B540F27772C36B57
:10C18000154CC3F8BC200722C36BC3F8C820226833
:10C19000C16B930043F4C023C1F8A03002F1805377
:10C1A00002F16C01C56B03F52C53EA3289009B0048
:10C1B000226041F0E061094AC362C5F8C01003F58E
:10C1C000D87103F56A7341639342836302D90448CB
:10C1D00000F0C2FC38BD00BF085A0020FCB500408A
:10C1E000987B01082DE9F04700F580551F4688B07F
:10C1F000044695F8683489469046012B04D90026F8
:10C20000304608B0BDE8F0879F4A52F8231009B9BC
:10C2100042F823009D48C4F81C90017884F82070EF
:10C22000C9B9302383F31188994BD3F8EC2042F439
:10C230008072C3F8EC20D3F8942042F48072C3F8E3
:10C240009420D3F8942022F48072C3F89420012320
:10C25000037081F3118895F861647EB9302383F30C
:10C2600011880321132004F04BFB0321152004F057
:10C2700047FB012385F8613486F31188302383F36B
:10C280001188E26B936923F01003936100F070FC56
:10C290008246E36B9E6916F0080609D000F068FC40
:10C2A000A0EB0A03FA2BF4D9002686F31188A7E73E
:10C2B0009A6942F001029A6100F05AFC8246E36BEF
:10C2C0009A69D00706D400F053FCA0EB0A03FA2BBE
:10C2D000F5D9E9E79A694FF0000A42F002029A6143
:10C2E000E36BC3F854A08AF31188686DF6F7F0FC8D
:10C2F000202200216846F6F779F802A8FFF7F0FD42
:10C3000004F583536A460DF1180E3344CDF818A096
:10C3100094460833BCE80300F44543F8080C43F89E
:10C32000041C6246F4D1DCF8000020361860B6F533
:10C33000806F9CF804201A71DAD1002304F5A3520F
:10C34000494620460A3285F8603485F86334FFF7A1
:10C350008DFE064690B9E26B936923F00103936169
:10C3600000F006FC0546E36B9B69D9077FF547AFF4
:10C3700000F0FEFB431BFA2BF5D940E795F86E342D
:10C38000C5F87C94591E95F86F34E26B013B1B0293
:10C3900043EA416395F8701401390B43B5F86C1406
:10C3A000013943EA0143D361B8F1000F36D004F5F7
:10C3B000A352414620461232FFF7BEFE90B9E26B0F
:10C3C000936923F00103936100F0D2FB0546E36B10
:10C3D0009B69DA077FF513AF00F0CAFB431BFA2B0A
:10C3E000F5D90CE795F87724C5F88084511E95F8A7
:10C3F0007824E36B013A120142EA012295F876149F
:10C4000001390A43B5F87414013942EA014242F491
:10C410000002DA604FF42062E36B9A64E36B4FF042
:10C4200000082046C3F8BC80FFF7A6FE85F86984A3
:10C430006FF04042E36B1A65164AE36B5A654FF0A2
:10C440000222E36B9A654FF0FF32E36BC3F8E02002
:10C450000322E36B9742DA653FF4D2AEE26B936955
:10C4600023F00103936100F083FB0746E36B9B69B4
:10C47000DB0705D500F07CFBC31BFA2BF6D9BEE623
:10C48000012385F86234BBE6005A0020045A0020DC
:10C4900000440258550200022DE9F04F00F5A5575F
:10C4A0008BB00546904699464FF0000B41F2780A52
:10C4B0001037EB6BD3F8D83023FA0BF3DC0753D5E6
:10C4C00005EB4B114FEA4B1251440B7918074BD433
:10C4D00005F58056D6F894340133C6F89434C7E98C
:10C4E00000890B79990605EB020148BFD6F8C434E0
:10C4F000514444BF0133C6F8C4340B7943F00803F8
:10C500000B71DB0725D596F8633413B305F5835417
:10C5100002A80192FFF7EAFC0834019A05AB144423
:10C5200004F1080C2068083454F8041C1A466445C9
:10C5300003C21346F6D1206802A910602846A288DB
:10C540009A800123ADF810302B68CDE902891B6C6D
:10C550009847D6F8B834D6F864040133C6F8B8342E
:10C5600010B103681B6998470BF1010BBBF1200F59
:10C570009FD10BB0BDE8F08F2DE9F04F0F468DB085
:10C58000044600F0F7FA82468946002F5BD1E36B40
:10C59000D3F8A02012F4FE0F03D100200DB0BDE8A7
:10C5A000F08FD3F8A420920141BF04F58051D1F857
:10C5B000A8240132C1F8A824D3F8A4205606ECD050
:10C5C000D3F8A450E66AC5F305254823E8464FF0A2
:10C5D000000B03FB05664046FFF782FC3268510002
:10C5E0004ABF22F06043C2F38A4343F00043920003
:10C5F00048BF43F080430093736813F400131BBFDC
:10C60000012304F580528DF80D308DF80D301EBFDA
:10C61000D2F8C8340133C2F8C834F38803F00F03EA
:10C620008DF80C309DF80C0000F06AFB5FFA8BF37C
:10C63000984225D9F2180CA90BF1010B127A0B4480
:10C6400003F82C2CEEE7012FA7D1E36BD3F8B02031
:10C6500012F4FE0FA1D0D3F8B420950141BF04F528
:10C660008051D1F8A8240132C1F8A824D3F8B4200D
:10C67000500692D0D3F8B450266BC5F30525A4E735
:10C68000EFB9E36BC3F8A85004A807ADFFF72EFC81
:10C6900098E80F0007C52B800023204604A9ADF8B9
:10C6A0001830236804F580541B6CCDE904A9984721
:10C6B00058B1D4F8A0340133C4F8A0346EE7012F88
:10C6C000E2D1E36BC3F8B850DEE7D4F8A43401201C
:10C6D0000133C4F8A43461E72DE9F04105460F4663
:10C6E00000F58054012639462846FFF745FF10B172
:10C6F00084F86364F7E7D4F8B834D4F864040133F9
:10C70000C4F8B83420B10368BDE8F0411B6918478C
:10C71000BDE8F081C36BF0B51A6C12F47F0F2BD01B
:10C720001B6C00F5805441F278054FF0010CC4F801
:10C73000BC340023471900EB43125E012A441179EF
:10C7400011F0020F15D0490713D4B959C66B0CFA72
:10C7500001F1D6F8CCE011EA0E0F0AD0C6F8D410D9
:10C76000117941F004011171D4F89C240132C4F80C
:10C770009C240133202BDED1F0BD000010B5264CE7
:10C78000264B22680AB340B31A6D92050FD54FF4B9
:10C7900000721A6500F0EEF950EA01020B4602D071
:10C7A000013861F1000302462068FFF775FE1B4A5D
:10C7B000136D9B012AD523684FF0007103F5805358
:10C7C0001165012283F8692420E001221A651022F4
:10C7D0001A654FF480521A6510BD196DC80702D44E
:10C7E000196D490705D50521104619650021FFF788
:10C7F00073FF0A4B1A6DD00602D41A6D510605D587
:10C80000502201211A652068FFF766FF2068BDE805
:10C810001040FFF77FBF00BF005A002000A000407B
:10C8200008B5302383F31188FFF774FF002383F3E7
:10C83000118808BDC36BD3F8C00010F07C5005D040
:10C84000D3F8C40080F40010C0F3405070470000DB
:10C8500008B5302383F3118800F58050406DF6F75A
:10C8600049FA002383F3118843090CBF01200020FB
:10C8700008BD000000F5805393F8692462B1C16BD4
:10C880008A6922F001028A61D3F8AC240132C3F82C
:10C89000AC24002283F86924704700002DE9F74397
:10C8A000302181F31188002500F5835141F2780E83
:10C8B0004FF0010800F5805C00EB451474442679C4
:10C8C00077071CD4F6061AD58E69D0F83C9008FA82
:10C8D00006F6D9F8CC703E4211D04F6801970F6828
:10C8E0009742019F9F410AD2C9F8D460267946F049
:10C8F00004062671DCF898440134CCF898440135DC
:10C900002031202DD8D1002383F3118803B0BDE856
:10C91000F0830000F8B51E4600230F46054613704D
:10C920001446FFF795FF80F0010038701EB12846CD
:10C93000FFF780FF2070F8BD2DE9F04F85B09946D4
:10C940000D468046164691F800B0DDE90EA302932D
:10C950001378019300F00EF92B7804460F4613B9B3
:10C960003378002B41D022463B464046FFF796FFE6
:10C97000FFF756FFFFF77EFF4B4632462946FFF78B
:10C98000C9FF2B7833B1BBF1000F03D0012005B0F4
:10C99000BDE8F08F337813B1019B002BF6D108F579
:10C9A000805303935445029B77EB03031DD2039BF3
:10C9B000D3F86404C8B10368AAEB04011B68984764
:10C9C0004B46324629464046FFF7A4FF2B7813B169
:10C9D000BBF1000FDAD1337813B1019B002BD5D115
:10C9E00000F0C8F804460F46DCE70020CFE700005F
:10C9F00008B50020FFF7C2FEBDE8084002F000BF06
:10CA000008B50120FFF7BAFEBDE8084002F0F8BE05
:10CA1000036800211B68184770470000043008B500
:10CA200004F0BAFE012008BD10B521B10368BDE8CD
:10CA300010405B681847043004F082FE012010BDEE
:10CA4000043004F09FBE000008B5043004F0C4FFB9
:10CA5000B0FA80F0400908BD08B5302383F311888F
:10CA6000C368002B02DC043004F0E8FF04F08CFF04
:10CA7000002383F3118808BD10B50446FEF7DEFFDE
:10CA8000204610BDF8B5051D0C4671B14EF6602765
:10CA9000BC422646284628BF3E46314604F0C4FF25
:10CAA00050B1A41BF4D1204605E0284604F0BCFF99
:10CAB000B0FA80F04009F8BD0120FCE708B530234A
:10CAC00083F31188C368002B02DC043004F0B6FF46
:10CAD000002383F3118808BD044B10B5044640F8C9
:10CAE000043B04F0EBFD204610BD00BF687C01084C
:10CAF000044B10B5044640F8043B04F051FF2046B7
:10CB000010BD00BF447C010803F086B800B59BB09F
:10CB1000EFF3098168226846F5F736FCEFF30583E9
:10CB2000014B9B6BFEE700BF00ED00E008B5FFF78F
:10CB3000EDFF000000B59BB0EFF309816822684665
:10CB4000F5F722FCEFF30583014B5B6BFEE700BFBB
:10CB500000ED00E0FEE700000FB408B5029804F015
:10CB600097FFFEE7014B586A704700BF000C00407A
:10CB700005F074BD05F056BD0139C9B202299EBF4A
:10CB800000EBC1000023C0E9013370472DE9F843F1
:10CB90001E461B88054688465B0718D4044600F1EC
:10CBA00018094C4513D063686BB12B682846DB6BC2
:10CBB00098473388C1B2A76843F0040342466068CF
:10CBC000B8470834EDE7A368002BEED1F9E7012060
:10CBD000BDE8F88373B56C4684E806000146002280
:10CBE0004E68D5B26EB98E685EB900EBC2000135F1
:10CBF000021D94E8030082E8030001201D7002B0CA
:10CC000070BD01320831032AEAD10020F7E70000A5
:10CC10002DE9F04F2DED028B89B004468B46054679
:10CC2000BDF8508000F11809002708F0040A9FEDB4
:10CC3000228BA94537D06B680BB9AB6863B1BAF1E9
:10CC4000000F0BD123682046DB6B98474346C1B2E7
:10CC50005A46D5E90106B0470835EAE7002FFBD16F
:10CC60005B4603AA0BF1080CADF808708DED008B44
:10CC70001868083353F8041C1746634503C73A463F
:10CC8000F6D1186838609B88BB800127FFF772FFD8
:10CC90000423ADF808302368CDE900011B6C694618
:10CCA00020469847D8E7012009B0BDEC028BBDE8CB
:10CCB000F08F00BFAFF30080000000000000000014
:10CCC00038B51D469DF81030016004464373114687
:10CCD000043012B16B1E072B05D900232373636048
:10CCE0004360204638BD2A46F5F74EFB281DC5F1A6
:10CCF000080200212044F5F779FB2573F1E70000D5
:10CD0000082817D909280CD00A280CD00B280CD0D9
:10CD10000C280CD00D280CD00E2814BF4020302039
:10CD200070470C207047102070471420704718205F
:10CD3000704720207047000013B5002310F0010455
:10CD4000ADF8063007D09942C2BF10F8013B01F19F
:10CD5000FF318DF807300022012915DC04BF03786C
:10CD60008DF80630BDF80630134498B200EB13433B
:10CD700098B200EB134024B10302C0F307209BB22A
:10CD8000184380B202B010BD30F8023B02391A4499
:10CD9000E2E700002DE9F0411C680746069B884643
:10CDA00016461D682B0C13FA85F3002513FA84F33D
:10CDB00003EB14439CB204EB13439CB204EB134407
:10CDC000C7B925B12302C4F307249BB21C434046D4
:10CDD000F6F77AFC05463046F6F776FC284404441C
:10CDE000A0B200EB1444A0B200EB1440C04380B2E8
:10CDF000BDE8F08179897868FFF79EFF7B89204440
:10CE0000DB0784B204EB104406D52302C4F30724E5
:10CE100085F001059BB21C433F68D1E7FFF7BABF1D
:10CE20002DE9F74F16460D9A99460C9B1568074653
:10CE30001B6888462C0CDFF8B0A0DFF8B0B014FAFD
:10CE400085F4002514FA83F404EB1344A3B203EB36
:10CE50001444A3B203EB1444AFB9002D3DD14046B6
:10CE6000F6F732FC05463046F6F72EFC284404441B
:10CE7000A0B200EB1444A0B200EB1440C04380B257
:10CE800003B0BDE8F08FB9F1000FE6D0798978687A
:10CE9000494528BF49460191FFF74EFF019947F6E2
:10CEA000FE730444A9EB01091FFA89F9994505D9D4
:10CEB00052464FF4D0715846F6F77CFAA3B203EB12
:10CEC00014447B89DB0706D52302C4F3072485F0CD
:10CED00001059BB21C433F68BEE72302C4F307244D
:10CEE0009BB21C43BBE700BF807C0108AA7C010801
:10CEF000FFF796BF08B5FFF71FFFC04380B208BD1C
:10CF000070B500260546344645B926B12302C4F360
:10CF100007249BB21C43E04380B270BD69896868F6
:10CF2000FFF70AFF6B890444DB07A0B200EB14444F
:10CF300006D52302C4F3072486F001069BB21C43E6
:10CF40002D68E1E708B5FEF7F5FC00F011F800F0F8
:10CF50007FF8F6F715FCFAF713FFF7F7F5F8FBF78C
:10CF600061FF01F077FCBDE80840FAF7B5BE0000AC
:10CF7000704700007047000010B505F0D3FA044672
:10CF800028B9FEF7D9FCFEF7DFFC204610BDC31C14
:10CF900023F003039842F8D0024AD5210248F6F75D
:10CFA00009FAF2E7B47C0108D67C010810B5044602
:10CFB00048B9094AE6210948F6F7FCF92046BDE8D8
:10CFC000104005F0EFBAC31C23F003039842F5D0DC
:10CFD000014AE7210248EFE7B47C0108FC7C010824
:10CFE000097D0108830710B5044605D0074A4FF4B0
:10CFF000B6710748F6F7DEF9FEF79EFCFEF7A4FCD3
:10D000002046BDE81040FFF7D1BF00BF247D0108D6
:10D01000477D0108033038B520F00300FFF7ACFF6F
:10D020000446FEF789FC054644B1A30705D0054A2E
:10D030004FF48C710448F6F7BDF92846FEF784FCDE
:10D04000204638BD247D0108687D01087047000036
:10D05000704700000E2805D8034B53F8203018887D
:10D06000FFF7D8BF00207047C87D01080E2803D8FD
:10D0700011B10846FFF7B6BF704700000A6810B547
:10D080000C320C46FEF70CFA08B994F9040010BDF6
:10D0900000B589B060B1292300908DF80810694669
:10D0A00005488DF80930FFF7E9FF09B05DF804FB8A
:10D0B0006FF00F00F9E700BFDDE6000870B50D4620
:10D0C00088B0114600F07AFF0446002832D0009064
:10D0D00069461A488DF80850FFF7D0FF50B36368CF
:10D0E00023B1174AA3211748F6F764F9236904F11D
:10D0F000100523B9124AA4211348F6F75BF96369B6
:10D1000023B10F4AA6211148F6F754F9E36804F158
:10D110000C0623B90A4AA9210D48F6F74BF9304607
:10D12000FEF7EEFB2846FEF7FBFA21460024072017
:10D13000FFF79CFF204608B070BD00BF49DF000824
:10D14000047E0108297E01084A7E01085F7E0108ED
:10D15000807E010800B589B038B129230090694666
:10D1600003488DF80930FFF789FF09B05DF804FB2B
:10D170001DE2000838B5054640B1FFF7EBFF044655
:10D1800010B9284600F05EFF204638BD0446FBE794
:10D1900000B589B068B161B15AB1009006488DF808
:10D1A0001030CDE902126946FFF768FF09B05DF85B
:10D1B00004FB6FF00F00F9E769E6000800B589B0DD
:10D1C00070B1094B0090002908BF19460748ADF817
:10D1D0000C2002916946FFF751FF09B05DF804FB8E
:10D1E0006FF00F00F9E700BFA870010819E300080D
:10D1F00000B589B070B1094B0090002908BF1946ED
:10D200000748ADF80C2002916946FFF737FF09B0D7
:10D210005DF804FB6FF00F00F9E700BFA87001088C
:10D220004DE3000800B589B038B100906946044864
:10D23000FFF724FF09B05DF804FB6FF00F00F9E77A
:10D2400029E4000800B589B048B100908DF80810B5
:10D2500069460448FFF712FF09B05DF804FB6FF060
:10D260000F00F9E749E4000800B589B068B1037818
:10D2700003F0F003102B08D1009002916946044896
:10D28000FFF7FCFE09B05DF804FB6FF00F00F9E753
:10D2900059E5000800B589B040B100900291694697
:10D2A0000448FFF7EBFE09B05DF804FB6FF00F00D8
:10D2B000F9E700BF1DE50008F0B589B09E460E9F56
:10D2C000002845D0047804F0F004102C43D190F8E5
:10D2D000285003F0040405F00205254302D0002F76
:10D2E00039D00125002401F1040C264604E05CF845
:10D2F00034309E192FD20134A242F8DC002E03D123
:10D300000024204609B0F0BD02DA27B36FF00046D2
:10D31000ADF80C2000220090029169460F4804925B
:10D320008DF81CE0CDE90562FFF7A8FE0446002851
:10D33000E7D10FB1069B3B60002DE1D1069BB342C4
:10D34000DED0074A4FF486610648F6F733F8D8E78F
:10D350006FF00F04D5E76FF00504D2E7ADE50008E4
:10D36000047E01089C7E01081FB5CDE90212069AD1
:10D3700002A900920122FFF79FFF05B05DF804FBB0
:10D3800038B5044648B1FEF7D7FA002394F908509F
:10D390002372FEF7D9FA284638BD0546FBE70000A0
:10D3A00070B505468AB00E4621B96FF00F042046CD
:10D3B0000AB070BD00230B600028F6D0FFF7E0FF35
:10D3C00004468DF803000028F1D16B6905F11400C3
:10D3D00013B96FF00E04EAE795F82830DA07F8D4AD
:10D3E0009B070FD501A9FEF7E3F9013022D02B6B83
:10D3F0008BB90DF10301019800F080FD80B19DF91A
:10D400000340D4E7EA6901A9FEF700FA0130EED142
:10D410006FF00204CBE70022012128469847E8E795
:10D42000019D002DD5D002A904480295FFF726FEE4
:10D430003560BCE76FF00604B9E700BF91E500086E
:10D44000002373B504460D46019319B96FF00F0020
:10D4500002B070BD0B600028F8D0036900F110061F
:10D4600033B9FFF78DFF0028F2D16FF00A00EFE724
:10D4700090F8283002F0040203F00303134302D1B2
:10D4800090F908301BB301A93046FEF791F901303D
:10D4900011D02378019803F0F003102B34D10DF153
:10D4A000030100F02BFDE0B19DF9030010F10F0F17
:10D4B00008BF0020CCE72046FFF762FF0028C7D155
:10D4C00094F82830DB07D0D46FF00600C0E7C269BB
:10D4D00001A93046FEF79AF90130DAD16FF0020067
:10D4E000B6E7019B1E89FEF727FA636A9B1B6362FE
:10D4F000FEF72AFA236B1BB13246012120469847DA
:10D50000019B00202B60A3E728B9044A40F2912137
:10D510000348F5F74FFF019B1B68E3E7047E010812
:10D520004873010830B1037803F0F003102B01D0E9
:10D53000FFF786BF6FF00F0070470000F0B503697A
:10D5400089B004460F461646002B44D090F9285067
:10D5500090F82830002D13DA03F07F0380F828308C
:10D56000236B1BB1002201212046984763685BBBF7
:10D570002046FFF705FF051E08BF6FF00D051EE0F2
:10D58000FFF75EFF0546D0B932073F680CD4CFB134
:10D590003A89237803F0F003102B05D169460F4830
:10D5A00000940292FFF76AFD4FB9F306D8D594F8BC
:10D5B00028306FF0060563F07F0384F82830284692
:10D5C00009B0F0BD0122E4E7012120466FF00E050D
:10D5D000FFF75EFDF3E76FF00A05F0E759E5000895
:10D5E00030B1037803F0F003102B01D1FFF7A6BF91
:10D5F0006FF00F007047000010B588B088B10A4C7A
:10D600000090002908BF2146002A08BF224607488B
:10D610008DF81130CDE902126946FFF72FFD08B0F1
:10D6200010BD6FF00F00FAE7A870010889E7000845
:10D630002DE9F041044616461F46BDF818800D46F8
:10D6400021B9294AE6212948F5F7B4FECCB9264A82
:10D65000E7212748F5F7AEFE3046BDE8F041F6F782
:10D66000C1BAFEF769F9636A3B446362FEF76CF97D
:10D67000236B002B35D03A4631462046BDE8F041B9
:10D6800018476368AB4204D0174AEF211948F5F7F1
:10D6900091FEFEF751F9656AFEF756F92369002BF2
:10D6A000DAD03389226A2B449342D5DC0620FFF777
:10D6B000D1FC05460028CFD0C0E9006607B13F681D
:10D6C000AF602946A5F80C8004F110003789FEF7F9
:10D6D00035F806460028C4D02846BDE8F04101F0E0
:10D6E0007BB8BDE8F08100BFC07E0108E57E01087F
:10D6F000077F0108267F010807B5014640680190B1
:10D70000F6F71CFF01980949F6F720FF0198084930
:10D71000F6F732FF019802220649F6F765FF06493F
:10D72000019803B05DF804EBF6F73CBF15DD000887
:10D73000A9DC000831DC0008D9DD000870B5154609
:10D740000446002844D04378032B05D0224A40F2F7
:10D7500027512248F5F72EFEE36A4BB994F828309A
:10D760005B0705D41C4A4FF4A5611D48F5F722FE5E
:10D77000E66A1EB13571E36A1E680C36237803F041
:10D78000F003102B03D115B92046FFF7B5FF94F82D
:10D79000280020F0040310F0040584F8283007D195
:10D7A00046B90D4A40F234510E48F5F703FE01E048
:10D7B000002EF6D10022236BE262627013B10221C7
:10D7C0002046984715B93046FEF796F8002001E04C
:10D7D0006FF0050070BD00BFC07E0108447F0108E6
:10D7E000637F0108A07F01082DE9F84F0F4604462A
:10D7F00028B9914A40F277619048F5F7DBFD6378EC
:10D80000012B05D08C4A4FF4CF618D48F5F7D2FD3E
:10D81000E36A2BB9884A40F279618A48F5F7CAFD74
:10D8200063682BB9844A40F27A618748F5F7C2FDF4
:10D83000E36AD3E905329A4205D37F4A40F27B611D
:10D840008248F5F7B7FDE36A9B892BB97A4A40F223
:10D850007D617F48F5F7AEFDE36A94F8285093F8B0
:10D860001CA005F00205DFF8ECB10AF00402154334
:10D87000D4F82CE0DEF80800DEF8102043680168D8
:10D88000A3EB0208606801EB0209B8F5803FB0F82D
:10D8900064602ABF4FF6FF711FFA88F14AF0020A4E
:10D8A000B14240F28780002D3FD0002E3FD1DEF8FC
:10D8B0001830002B0CBF6FF006094FF00009E36A27
:10D8C000D3E905329A4280F08380236B1BB100229A
:10D8D00003212046984794F8283043F0100384F839
:10D8E0002830B9F1000F40F08A80E36AD3E90532AD
:10D8F0009A4200F08280003D18BF01256068F9F768
:10D90000E7FE043040F08F806FF00309E36A0025E2
:10D91000186883F80490E5626570002F00F0898034
:10D920000C30FDF7E9FF284675E04AF0020A324460
:10D93000934205D2404A40F2A7615846F5F73AFDB6
:10D940004FF6FF739E4202D1B8F5803F07D21FFA0F
:10D9500088F8B04530D1E26A9289012A2CD94AF080
:10D96000020A4FF001084946534632466068F9F70B
:10D9700095F9814618BBE16A8A6932448A61E16A95
:10D980000A6932440A61E26A91681069496888420A
:10D990000BD1918901399181E26A918929B191680C
:10D9A00008319160E26AC2F81090B8F1000F7FF47C
:10D9B0005FAF0AE00E46BAE74FF00008D3E7431C1A
:10D9C000DBB2012BA2D84FF0FF39002D7FF477AFE7
:10D9D000636841F27072B3F86410914204D9B3F8ED
:10D9E0006630162B7FF67DAF236B002B3FF479AFAB
:10D9F000002203212046984773E701257EE7B9F10D
:10DA0000FF3F83D16068F9F763FE04303FF47CAFD9
:10DA10001DB94FF0FF30BDE8F88FE36A9B692BB169
:10DA20004FF0000972E7002DFAD1F2E76FF0060916
:10DA30006CE73846EFE700BFC07E01085773010866
:10DA4000C07F0108DD7F0108F77F01080D80010814
:10DA50004C800108748001082DE9F84F894604467E
:10DA600028B9694A40F2A6316848F5F7A3FC237843
:10DA700003F0F003102B05D0634A40F2A73164484D
:10DA8000F5F798FC6378042B05D05F4A4FF46A7170
:10DA90006048F5F78FFC63682BB95B4A40F2A93107
:10DAA0005D48F5F787FCE36A2BB9574A40F2AA3183
:10DAB0005A48F5F77FFCE36A65681B7A032B03F08D
:10DAC000010A03F002080FD0BAF1000F05D02B7D38
:10DAD0005A1F012A08D9082B06D0B8F1000F16D01A
:10DAE0006F8B17F0100704D0012700212846F6F7A6
:10DAF00025FD2B7D012B0CD100212846F6F768FD72
:10DB000027BB424651462846F7F7AAF921E0474687
:10DB1000EFE7BAF1000F07D000212846F6F716FD0F
:10DB200000212846F6F754FDB8F1000F03D000217C
:10DB30002846F6F721FD002FE3D0002228461146A3
:10DB4000F6F752FD00212846F6F72CFD2846F7F798
:10DB5000E1F8064660B1431C0AD1E36A93F809B0C4
:10DB6000BBF1000F30D11FB15E462846F6F710FF1B
:10DB7000E36A1D681E710023E3626370CEB937B19A
:10DB8000236B66601BB13246042120469847BAF1E8
:10DB9000000F05D0236B1BB1002220461146984789
:10DBA000B8F1000F05D0236B1BB1002202212046E3
:10DBB0009847B9F1000F25D0002605F10C00FDF7BC
:10DBC0009BFE3046BDE8F88F2B7D012B05D10E4A18
:10DBD00040F245411248F5F7EDFBB8F1000F03D0D4
:10DBE00010492846F6F7C8FC012228460E49F6F7E8
:10DBF000FBFC28460D49F6F7D5FC21462846F6F7EA
:10DC00009DFCDEE74E46DCE7C07E0108A0800108EF
:10DC1000AD800108CB800108EF800108DD7F01089D
:10DC200002810108A9DC000831DC0008D9DD000808
:10DC300010B5044628B91A4A40F26D111948F5F793
:10DC4000B9FB617801291ED12046FFF7CDFD94F87C
:10DC50002830DA0615D562689AB1B2F8640041F24C
:10DC6000707188420DD9B2F86620162A09D823F0BF
:10DC7000100384F82830236B1BB1002202212046B8
:10DC80009847002010BD0429E1D1E26A1AB1537A05
:10DC90000BB1013B537201212046FFF7DDFED6E7B1
:10DCA000C07E01085773010838B51546044668B9A7
:10DCB000164A4FF4CB711648F5F77CFB002038BDAF
:10DCC000042908D10121FFF7C7FE04E041780129AA
:10DCD000F6D1FFF789FD6368002BEFD0B3F864102D
:10DCE00041F270729142E9D9B3F86630162BE5D84B
:10DCF00094F8283023F0100384F82830236B002B8D
:10DD0000DCD02A46022120469847D7E7C07E01088A
:10DD100057730108F8B5054616461C460F4629B943
:10DD2000274A40F22F112748F5F744FB6DBB244AE0
:10DD30004FF498712448F5F73DFB3CBB6FF00504A8
:10DD40002046F8BD38463189F6F78EFB3046F5F7A8
:10DD500049FFF5E79EB137893146FDF7EFFC0446F0
:10DD600080B9FDF7E9FD6B6A3B446B62FDF7ECFDA2
:10DD70002B6B1BB33A46214628469847E0E7134EE3
:10DD80000027E9E74FF0FF34DAE73CB10C4A40F2F4
:10DD900031110F48F5F70EFB002DCFD06B68BB4259
:10DDA00005D0074A4FF49C710A48F5F703FB2C692C
:10DDB00005F11000002CCDD1002EC3D10024BFE707
:10DDC000C07E0108288101084A81010858830108A2
:10DDD0006981010881810108F8B50D46044628B91A
:10DDE0003F4A40F2BB113F48F5F7E4FAFDF7A4FDC6
:10DDF00094F828300026677843F0010325726660A6
:10DE000084F828306670FDF79FFD236B1BB1324606
:10DE1000042120469847236B1BB10022204611465F
:10DE20009847236B1BB1002202212046984705F139
:10DE30000F03DBB2022B3ED82B4A52F82360236932
:10DE400023B1314604F11000FDF778FC636923B17A
:10DE5000314604F11400FDF771FC012F02D0FB1EC6
:10DE6000012B32D894F8283023F004025B0784F8A1
:10DE7000282034D4E36A2BB9194A40F2E9111B482F
:10DE8000F5F798FA042FE36A0ABF00221D711A7190
:10DE9000E36A1B6803F10C05DB682BB9104A4FF4E9
:10DEA000F9711348F5F786FA00232846E362BDE8C6
:10DEB000F840FDF721BD35B1094A7D210D48002606
:10DEC000F5F778FABBE72E46B9E7E36A3BB1044AB7
:10DED0004FF4FD710848BDE8F840F5F76BBAF8BD9E
:10DEE000C07E01085773010848830108DD7F0108DF
:10DEF000B0810108A0810108C981010838B5054633
:10DF00000C4621B90B4A85210B48F5F753FA0B4B08
:10DF10009D4203D1F3230120237038BD084B9D425D
:10DF200001D1F223F7E7074B9D4201D1F123F2E73C
:10DF30000020F2E7C07E0108E48101085483010853
:10DF40005C8301085883010838B50023056804463E
:10DF50000371686800282ED12B7803F0F003102B92
:10DF60001DD0202B25D1FAF713FA68602268536878
:10DF70009BB112781049212A04BF02221A74236827
:10DF80001A78222A02BF01225B681A74226850683C
:10DF9000FAF7C2F923685B686BB9FF230AE0F6F76A
:10DFA00007FE686020684368002BF6D0FFF7A4FBEB
:10DFB000F0E7FA23237138BD31D6000870B5054665
:10DFC00007200E46FFF746F80446A8B3057005F093
:10DFD000F0050023102D037243600DD0202D0BD0CF
:10DFE000164A40F2EB211648F5F7E4F921460720DE
:10DFF0000024FFF73BF81FE004F11005002128463C
:10E00000FDF768FB01460028F0D104F10C00FDF794
:10E010004DFC18B12846FDF783FBE7E74FF0FF33CF
:10E0200060616070A3616FF00043E06184F82800D4
:10E03000C4E90B06C4E90830204670BDC07E010863
:10E04000F081010810B5436804462BB1104A4FF423
:10E0500048711048F5F7AEF923692BB10C4A40F22C
:10E0600027310D48F5F7A6F963692BB1084A40F24C
:10E070002A310A48F5F79EF904F10C00FDF740FC3F
:10E08000002321460720E360BDE81040FEF7EEBF05
:10E09000C07E0108188201084682010880820108BA
:10E0A000F7B50369044663B100F1100501A92846DC
:10E0B000FDF77EFB013015D12846FDF731FB00232B
:10E0C0002361636963B104F1140701A93846FDF7C0
:10E0D0006FFB013019D13846FDF722FB0023636145
:10E0E00003B0F0BD2378019803F0F003102B09D1A1
:10E0F0000DF10301FFF702FF0028D7D10198F5F7D2
:10E1000071FDD3E700F068FBD0E70DF10301019842
:10E11000FFF7F4FE06460028D7D1019D2846FFF7F9
:10E12000BFFF686810B1F6F733FC6E602846FFF752
:10E1300089FFCAE7F7B50D46044620B96FF005051B
:10E14000284603B0F0BD436900F11407002BF5D059
:10E1500069B92F493846FDF7F1FA02460028EDD19A
:10E16000236B002BEAD0014620469847E6E72AB108
:10E17000284A40F22D212848F5F71CF9216B207818
:10E18000FFF71CFF064668B921493846FDF7D6FA65
:10E19000024620B9236B13B10146204698474FF041
:10E1A000FF35CDE74560FFF7A7FA2846F5F7ECFF06
:10E1B00031463846FDF7C2FA054600B370680021C3
:10E1C00000240190F6F7BAF901980021F6F7BEF99C
:10E1D00001980021F6F7D0F9002201981146F6F7D0
:10E1E00003FA00210198F6F7DDF906F110007460DA
:10E1F000FDF796FA30463461FFF724FFCFE7236B33
:10E20000002B9DD0024601462046984798E700BF64
:10E2100054830108C07E0108BC82010870B5036800
:10E2200004465D7865B11B7803F0F003102B05D030
:10E23000354A40F262413548F5F7BCF8022D24D149
:10E24000002520682571FFF72BFF2268516871B106
:10E25000137803F0F003102B21D0202B04D18D6212
:10E2600023685868FAF762F8236800225A60206829
:10E27000036B13B10022114698472068036B6BB102
:10E2800000220221BDE870401847032D04D1236805
:10E2900093F828305B07D3D4FB23237170BDD36A76
:10E2A0002BB1194A4FF493611948F5F783F82368A5
:10E2B000042200215A70032323722368DC62206841
:10E2C000FFF7CAFB0028E9D023685B78042B05D050
:10E2D0000D4A40F29E410F48F5F76CF8FDF7F0F952
:10E2E000206800210C30FDF7F5FAFDF7E1F923680D
:10E2F0005B78002BD2D0044A40F2A2410548BDE829
:10E300007040F5F757B800BFC07E0108E4820108ED
:10E31000F88201081383010810B5036804465868A1
:10E3200088B11B7803F0F003102B07D0202B0AD103
:10E33000A289A168F9F72CFE207110BDA289A168FD
:10E34000F5F7A8FFF8E76FF00500F5E710B50368EB
:10E3500004465868002854D01A7802F0F002102AB7
:10E3600007D0202A50D1A289A168F9F79DFF20711A
:10E3700010BD5A78032A4AD0002A4BD11846FFF71D
:10E38000BBF92068254BA289A1684068F6F778F9A7
:10E390000028ECD12368032193F82820597012F04B
:10E3A000020F236893F8282006D042F004026FF091
:10E3B000040083F82820DAE722F0040283F82820FA
:10E3C0002368DC6223685B78032B05D0144A40F293
:10E3D00074511448F4F7EEFFFDF772F9206800213C
:10E3E0000C30FDF777FAFDF763F923685B78032BB0
:10E3F000BED10B4A4FF4AF610A48BDE81040F4F7B4
:10E40000D9BF6FF00E00B2E76FF00500AFE76FF015
:10E410000800ACE76FF00900A9E700BF3DD700088E
:10E42000C07E01081383010810B502680446137802
:10E4300003F0F003202B05D15068F9F75FFF0023AC
:10E44000237110BDFA23FBE773B5036804465868CF
:10E45000002859D01A7802F0F002102A56D15B78C1
:10E46000002B3BD1067D1EB1FA238DF8073022E048
:10E470000DF10702217AF5F75DFF0546D8B1206856
:10E48000036923B11030FDF74BF923681E61206842
:10E49000002346698DF8073096B1236802225A702E
:10E4A00023685D6021684868F6F748F823681849D2
:10E4B0005868F6F78DF89DF80730237102B070BDEB
:10E4C00014210844FDF706F98DF807000028E4D070
:10E4D0002846F6F71FFC23685E60ECE7022B13D199
:10E4E00000238DF80730037D012B05D0094A40F247
:10E4F000EA510948F4F75EFF23685A68237A012B32
:10E5000038BF01231377D6E7F523AEE7F023ACE756
:10E5100035E10008C07E0108FC5B010810B5044627
:10E520000068FEF72DFF68B92368586888B11B782A
:10E5300003F0F003202B0CD1A268936811681BB97B
:10E54000F9F79CFE207110BD93890832F9F75CFE43
:10E55000F8E76FF00A00F5E7F8B500230446037109
:10E5600003685A6892B11B7803F0F003102B0DD1A9
:10E5700085684FF6FF77BD422E46236828BF3E468A
:10E580005868B1B2F5F770FFAD1BF4D1F8BD0000CB
:10E59000002303710368586830B11B7803F0F0035F
:10E5A000102B01D1F5F718BE7047000010B50446D6
:10E5B0000068FEF7E5FE002846D123681A7802F0CD
:10E5C000F002102A3ED15A78002A3FD15A68002A18
:10E5D0003FD001225A702368DB6A2BB11E4A40F2F9
:10E5E00027711E48F4F7E6FE63692BB91A4A4FF407
:10E5F000E5611B48F4F7DEFE23680021DC62206839
:10E60000FFF7F2F808B323685B78012B05D0124AB4
:10E6100040F22C711348F4F7CDFEFDF751F8206855
:10E6200000210C30FDF756F9FDF742F823685B78BE
:10E63000012B0AD1084A4FF4E6610A48BDE81040B0
:10E64000F4F7B8BE6FF00500207110BD6FF0040044
:10E65000FAE76FF00A00F7E7C07E0108F8820108C8
:10E660001C8301081383010803685B68D3B1017C34
:10E67000826891B11B6813600023026803711378EC
:10E6800003F0F003102B13D0202B1CD15368027C15
:10E690002AB1C2685B8A138070475B68EBE71A7C1B
:10E6A000520702D4F52303717047C2689B8AF2E7D0
:10E6B0005368027C22B91A7D012AF3D91B8B00E032
:10E6C000DB8AC268E7E7034A40F281710248F4F747
:10E6D00071BE00BFC07E01083083010810B504463A
:10E6E0000068436863B1037803F0F003102B07D18F
:10E6F000227A4378032A01D0022B01D0032B02D1C6
:10E70000F523237110BD012B01D1FB23F9E7D307BA
:10E7100001D5FFF7C5FC2368DB6A2BB1174A40F22D
:10E72000C1711748F4F746FE2368042200215A708D
:10E730002368DC622068FFF78FF90028E2D02368A5
:10E740005B78042B05D00D4A40F2C6710D48F4F7F2
:10E7500031FEFCF7B5FF206800210C30FDF7BAF858
:10E76000FCF7A6FF23685B78002BCBD0034A40F26E
:10E77000CA710448BDE81040F4F71CBEC07E010811
:10E78000F882010813830108F52310B503710446CC
:10E7900003685A685AB11B7803F0F003202B0AD1A2
:10E7A000637CD0E902101BB9FAF742FC207110BD5E
:10E7B000FAF7A6FCFAE7FA230371F8E700F1100371
:10E7C000DBB2102B9DBF4042024B53F820000520C6
:10E7D000704700BF6083010810B5044660B100684F
:10E7E00020B1F5F7FFF90023C4E9003321460620E4
:10E7F000BDE81040FEF73ABC10BD000010B504465D
:10E8000030B1006808B1F5F7EDF90023C4E9003331
:10E8100010BD000070B50E4615460446B8B100683C
:10E8200008B1F5F7DFF9412200213820F5F73CFA6D
:10E83000206018B960604FF0FF3070BD4660002066
:10E8400023681D8123685D8123686360F5E76FF0AD
:10E850000F00F2E708B50548FEF7F8FB0448FEF79D
:10E86000F5FB00F007F8002008BD00BFA8830108F1
:10E87000A483010808B5FDF75BF8024A1368184441
:10E88000106008BD285A00202DE9F041456A15B9ED
:10E890004162BDE8F0814B68AC4623F06047C3F3AA
:10E8A0008A464FEAD37EC3F3807816EA230638BF40
:10E8B0003E462B465A68BEEBD27F22F060440AD017
:10E8C000002A18DAA40CB44217D19D420FD10D6072
:10E8D000DEE71346EEE7A74207D102F08044C2F319
:10E8E000807242450BD054B1EFE708D2EDE7CCF887
:10E8F00000100B60CDE7B44201D0B442E5D81A68ED
:10E900009C46002AE5D11960C3E700002DE9F047D5
:10E91000089D01F0070400EBD1004FF47F494FEA56
:10E92000D508224405F00705944201D1BDE8F087DF
:10E9300004F0070705F0070A111B08EBD50E574531
:10E940003E4613F80EC038BF5646C6F108068E4242
:10E9500028BF0E46E108415C34443544B94029FAE9
:10E9600006F721FA0AF1FFB28CEA010147FA0AF729
:10E9700039408CEA010C03F80EC0D5E780EA01208B
:10E98000082341F2210201B2013B4000002980B27C
:10E99000B8BF504013F0FF03F5D1704738B50C46AF
:10E9A0008D18A54200D138BD14F8011BFFF7E6FF12
:10E9B000F7E7000042684AB11368818943604389E0
:10E9C00001339BB29942438138BF8381104670471F
:10E9D00070B588B0044620220D4668460021F3F742
:10E9E00005FD20460495FFF7E5FF024660B16B4642
:10E9F000054608AE1C46083503CCB44245F8080C61
:10EA000045F8041C2346F5D1104608B070BD00003F
:10EA1000082817D909280CD00A280CD00B280CD0AC
:10EA20000C280CD00D280CD00E2814BF402030200C
:10EA300070470C2070471020704714207047182032
:10EA40007047202070470000082817D90C280CD9DF
:10EA500010280CD914280CD918280CD920280CD926
:10EA600030288CBF0F200E207047092070470A20E5
:10EA700070470B2070470C2070470D207047000036
:10EA80002DE9F843078C0446072F1ED900254FF6C1
:10EA9000FF73D0E90298C5F12006A5F1200029FAFC
:10EAA00005F1083508FA06F628FA00F0314301436B
:10EAB0001846C9B2FFF762FF402D0346EBD13A4634
:10EAC000E169BDE8F843FFF769BF4FF6FF70BDE8A5
:10EAD000F883000010B54B6823B9CA8A63F30902B2
:10EAE000CA8210BD04691A681C600361C38A013BB5
:10EAF000C3824A60EFE700002DE9F84F1D46CB8A3C
:10EB00000F468146C3F30901924605290B4630D0D2
:10EB10000020AAB207F11A049EB21FFA80F8042E50
:10EB20000FD8904503F1010306D30A44FB8A62F330
:10EB300009030120FB821AE01AF800600130E65454
:10EB4000EAE79045F1D2A1F1050B1C237C68BBFBE1
:10EB5000F3F203FB12BB1FFA8BF6002C45D148469B
:10EB6000FFF728FF044638B978606FF00200BDE86F
:10EB7000F88F4FF00008E6E7002606607860ADB237
:10EB80004FF0000B454510D90AEB0803221D13F87E
:10EB9000011B08F101089155B1B21FFA88F81B2931
:10EBA0002BD0454506F10106F1D8FB8AC3F30902D3
:10EBB000154465F30903BCE701321C4692B2236891
:10EBC000002BF9D16B1F0B441C21B3FBF1F3013374
:10EBD0009BB29A42D3D2BBF1000FD0D14846FFF787
:10EBE000E9FE20B9C4F800B0BFE70122E7E7C0F8AA
:10EBF00000B05E4620600446C1E74545D5D9484689
:10EC0000FFF7D8FE08B92060AFE7C0F800B00026D3
:10EC100020600446B6E700002DE9F04F1C46074689
:10EC200088462DED028B83B05B690192002B00F0CA
:10EC3000A780238C2BB1E269002A00F0A180072B6A
:10EC400035D807F10C00FFF7B5FE054638B96FF06F
:10EC50000205284603B0BDEC028BBDE8F08F1422FC
:10EC60000021F3F7C3FB228CE16905F10800F3F7FB
:10EC70008BFB208C48F00041013080B2FFF7E4FEAE
:10EC8000FFF7C6FE013880B2208401302874384670
:10EC90006369228C1B782A4403F01F0363F03F034F
:10ECA000137269602946FFF7EFFD0125D1E70233B2
:10ECB0000722C18A9BB20633B3FBF2F3828A9BB26E
:10ECC000521A92B29342C2D84FF0000900F10C03DD
:10ECD0004FF0800A4E464D4608EE103A18EE100AE4
:10ECE000FFF768FE83460028B1D014220021F3F715
:10ECF0007DFB002E3AD1019B0222ABF808300BF1CC
:10ED0000080E1FFA82FC218C0CF10100BCF1060FE9
:10ED100080B201D88E422BD3FFF796FE8E4208BFF9
:10ED20004FF0400AFFF774FE62690138013512782E
:10ED30001BFA80F1013002F01F022DB242EA4912A3
:10ED400089F001094AEA020A48F0004281F808A065
:10ED500059468BF810003846CBF804204FF0000AD3
:10ED6000FFF792FD238CB342B8D172E70022C6E7C9
:10ED7000E169895D01360EF80210B6B20132C0E7D2
:10ED80006FF0010565E70000F8B515460E46302224
:10ED9000002104461F46F3F729FB069BB5F5001F2B
:10EDA000A760636004F11000079B34BF6A094FF647
:10EDB000FF72E661A362002397B29A4206D800234D
:10EDC0000360A782E3822383E360F8BD066001331A
:10EDD00030462036F1E7000003781BB94BB2002B18
:10EDE000C8BF01707047000000787047F8B50C4646
:10EDF000C969074611B9238C002B37D1257E1F2DF9
:10EE000034D8387828BB228C072A2CD8268A36F0AA
:10EE100003032BD14FF6FF70FFF7C0FD20F0010078
:10EE200031024FF6FF72400441EA0561400C41EAAD
:10EE30004025234629463846FFF7EEFE002807DD29
:10EE4000626913780133DBB21F2B88BF0023137074
:10EE5000F8BD218A2D0645EA012505432046FFF726
:10EE60000FFE0246E5E76FF00300F1E76FF00100E7
:10EE7000EEE7000070B58AB004461646002128224D
:10EE800068461D46F3F7B2FABDF8383069462046A9
:10EE9000ADF810300F9B05939DF840308DF8183079
:10EEA000119B0793BDF84830CDE90265ADF82030DD
:10EEB000FFF79CFF0AB070BD2DE9F041D36905460C
:10EEC0000C4616460BB9138C5BBB377E1F2F28D818
:10EED00095F80080B8F1000F26D03046FFF7D0FD3E
:10EEE000337821020246284641EAC331338A41EA97
:10EEF000080141EA076141EA0341334641F08001DC
:10EF0000FFF78AFE00280ADD3378012B07D17269EA
:10EF100013780133DBB21F2B88BF00231370BDE8C9
:10EF2000F0816FF00100FAE76FF00300F7E70000EF
:10EF3000F0B58BB004460D461746002128226846DE
:10EF40001E46F3F753FA9DF84C30294620465A1EC8
:10EF5000534253416A468DF800309DF84030ADF879
:10EF60001030119B05939DF848308DF81830149B94
:10EF70000793BDF85430CDE90276ADF82030FFF7A5
:10EF80009BFF0BB0F0BD0000406A00B10430704739
:10EF9000436A1A68426202691A600361C38A013BCC
:10EFA000C38270472DE9F041D0F8208014461D46F9
:10EFB000184E4146002709B9BDE8F081D1E9022386
:10EFC000A21A65EB0303964277EB03031ED2036A92
:10EFD0008B420DD1FFF77EFD036A1B680362036954
:10EFE0000B60C38A0161013B016AC3828846E2E784
:10EFF000FFF770FD0B68C8F8003003690B60C38A27
:10F000000161013BC382D8F80010D4E78846096843
:10F01000D1E700BF80841E002DE9F04F8BB00D4674
:10F0200014469B46DDF850908046002800F0188179
:10F03000B9F1000F00F01481531E3F2B00F2108134
:10F04000012A03D1BBF1000F40F00A810023CDE972
:10F050000833B8F81430B5EBC30F4FEAC30703D336
:10F0600000200BB0BDE8F08F2B199F42D8F80C3070
:10F0700036BF7F1B2746FFB21BB9D8F81030002BD4
:10F080007AD0272D4DD8C5F1280600232946B7424E
:10F09000009308ABD8F808002CBFF6B23E46A7EBA9
:10F0A000060A354432465FFA8AFAFFF72FFCB8F8B1
:10F0B0001430282103F10053053BDB000493D8F8FA
:10F0C0000C300393039B13B1BAF1000F2CD1D8F885
:10F0D000100040B1BAF1000F05D008AB5246691AD2
:10F0E0000096FFF713FC38B2002FB9D066070AD09C
:10F0F0000AAB624203EBD40102F0070211F8083CAC
:10F10000134101F8083C082C3DD9102C40F2B58081
:10F11000202C40F2B780BBF1000F00F09C80082348
:10F1200035E0BA460026C2E7049BE02B28BFE02367
:10F1300006930B44AB42059315D95A1B0398691AE1
:10F140000096924508AB00F1040034BF5246D2B29B
:10F150000792FFF7DBFB079A1644AAEB020A154455
:10F16000F6B25FFA8AFA049B069A05999B1A0493F1
:10F17000039B1B680393A5E700933A4608AB294617
:10F18000D8F80800ADE7BBF1000F13D00123B4EBB2
:10F19000C30F6BD0082C12D89DF82030621E23FAC2
:10F1A00002F2D50706D54FF0FF3202FA04F42343EA
:10F1B0008DF820309DF8203089F8003051E7102C70
:10F1C00012D8BDF82030621E23FA02F2D10706D50C
:10F1D0004FF0FF3202FA04F42343ADF82030BDF8BB
:10F1E0002030A9F800303CE7202C0FD80899631E86
:10F1F00021FA03F3DA0705D54FF0FF3202FA04F4DF
:10F200000C430894089BC9F800302AE7402C2AD008
:10F21000611EC4F12102A4F12103DDE9086526FA8B
:10F2200001F105FA02F225FA03F311431943CB0762
:10F2300011D50122A4F12003C4F1200102FA03F345
:10F2400022FA01F1A2400B43524263EB43033243E3
:10F250002B43CDE90823DDE90823C9E9002300E7B2
:10F260006FF00100FDE66FF00800FAE6082CA1D966
:10F27000102CB4D9202CEED8C4E7BBF1000FAED0CF
:10F28000022384E7BBF1000FBCD004237FE700001A
:10F29000012A30B5144638BF012485B00025402C22
:10F2A00028BF4024012ACDE9025518D81B788DF8D3
:10F2B000083063070AD004AB624203EBD40502F0C6
:10F2C000070215F8083C934005F8083C03460091F6
:10F2D0002246002102A8FFF719FB05B030BD082A1D
:10F2E000E4D9102A03D81B88ADF80830E1E7202ABA
:10F2F00095BF1B68D3E900230293CDE90223D8E729
:10F3000010B5CB681BB98B600B618B8210BD046993
:10F310001A681C600361C38A013BC382CA60F0E7BC
:10F3200003064CBFC0F3C0300220704708B5024648
:10F33000FFF7F6FF022806D15306C2F30F2001D1D2
:10F3400000F0030008BDC2F30740FBE72DE9F04FD2
:10F3500093B004460D46CDE903230A681046FFF733
:10F36000DFFF0228824614BFC2F306260026002AC9
:10F3700080F2F88112F0C04940F0F481097B002945
:10F3800000F0F081022803D02378B34240F0ED81F1
:10F39000C2F3046310462944069302F07F030593E9
:10F3A000FFF7C4FF059B002283464FEA83480023F2
:10F3B00048EA0A4848EA4668CE78CDE90823F309C6
:10F3C00048EA0008029368D0059B024608A9204637
:10F3D000009353466768B847002800F0C981276A40
:10F3E0004FB9414604F10C00FFF7F2FA074690B915
:10F3F0006FF0020055E03B6998450DD03F68002F43
:10F40000F9D1414604F10C00FFF7E2FA0746002863
:10F41000EED0236A3B60276297F817C006F01F08FA
:10F42000CCF3840CACEB0800A8EB0C031FFA80FEB5
:10F430000028B8BF0EF120001FFA83FEB8BF00B24B
:10F44000002B0793B8BF0EF12003D7E90221BCBF00
:10F450001BB2079352EA010338D0039B4FF0000C14
:10F46000DFF81CE39A1A049B63EB010196457CEBE1
:10F4700001032BD36B7B97F81AE0734519D1029BDC
:10F48000002B78D0012821DC7868F8B9DFF8ECC2CD
:10F49000944570EB010316D337E0276A27B96FF064
:10F4A0000C0013B0BDE8F08F3B699845B4D03F68BD
:10F4B000F4E7B24890427CEB010301D30020F0E76F
:10F4C000029B002BFAD0079B0F2B17DCFA7DB300B1
:10F4D0003946204602F0030203F07C031343FB7518
:10F4E000FFF7F8FA6B7BBB76029B3BB9FB7DC3F35E
:10F4F0008402013262F38603FB75D0E76A7BBB7E30
:10F500009A42DBD1029B002B35D0B309022B32D0BB
:10F51000039B142200210DA8BB60049BFB60F2F743
:10F5200065FF039B0AA920460A93049BADF83EB0F1
:10F530000B932B1D8DF840A00C932B7B8DF84180F5
:10F54000013BDBB2ADF83C30069B8DF84230059BA9
:10F550008DF8433094F82C3083F001038DF844305B
:10F56000A3689847FB7DC3F38403013303F01F03B3
:10F570009B02FB82A2E7FB7DC6F34012B2EBD31FD6
:10F5800040F0F980C3F38403434540F0FB80029AC6
:10F59000B6092B7B002A52D016F0010661D1032B4D
:10F5A00040F2F380039B394604F10C00BB60049BDE
:10F5B000FB60FB8A66F30903AE1DFB8232462B7BA0
:10F5C000033BDBB2FFF798FA00280CDA39462046F5
:10F5D000FFF780FAFB7DC3F38403013303F01F03BD
:10F5E0009B02FB8204E7AB88DDE908843B834FF68E
:10F5F000FF73C9F12000A9F1200228FA09F109F1ED
:10F60000080904FA00F024FA02F2014318461143F3
:10F61000C9B2FFF7B3F9B9F1400F0346E9D1B88297
:10F6200031462A7B033AD2B2FFF7B8F9FB7DB882A4
:10F63000DA43C2F3C01262F3C713FB753EE786B923
:10F640002E1D013B394604F10C00DBB23246FFF7B8
:10F6500053FA0028BADB2A7B3146B88A013AD2B283
:10F66000E2E7F98A013BC1F30901DAB204295BD868
:10F67000281D002307F11B069A4208D910F801CB78
:10F68000013306F801C00131DBB20529F4D1039939
:10F6900093420A9138BF043304992CBF002355FAD2
:10F6A00083F30B9107F11B010C9179680E930D9177
:10F6B000291DFB8AADF83EB0C3F309038DF840A0C5
:10F6C0008DF841801A44069B8DF84230059BADF8B9
:10F6D0003C208DF8433094F82C3083F001038DF8F2
:10F6E00044300023B88A7B602A7B013AFFF756F941
:10F6F0003B8BB882834203D1A3680AA9204698476E
:10F7000020460AA9FFF7FCFDFB7DBA8AC3F38403F8
:10F71000013303F01F039B02FB823B8B9A420CBF19
:10F7200000206FF01000BCE67B68002BAFD00520F6
:10F7300001E01C3033461E68002EFAD1091A2E1D36
:10F74000081D184401EB090C5FFA89F3BCF11B0F8B
:10F750009DD89A429BD916F8013B09F1010900F89E
:10F76000013BEFE76FF009009BE66FF00A0098E6B7
:10F770006FF00B0095E66FF00D0092E640420F002F
:10F7800080841E006FF00E008BE66FF00F0088E69D
:10F79000EFF30983054968334A6B22F001024A639B
:10F7A00083F30988002383F31188704700EF00E09A
:10F7B000302080F3118862B60D4B0E4AD96821F4CF
:10F7C000E0610904090C0A430B49DA60D3F8FC2014
:10F7D00042F08072C3F8FC20084AC2F8B01F1168DA
:10F7E00041F0010111602022DA7783F8220070478E
:10F7F00000ED00E00003FA0555CEACC5001000E0B6
:10F80000302310B583F311880E4B5B6813F400634B
:10F8100014D0F1EE103AEFF309844FF08073683C96
:10F82000E361094BDB6B236684F3098802F08AF8F5
:10F8300010B1064BA36110BD054BFBE783F31188A4
:10F84000F9E700BF00ED00E000EF00E03F04000832
:10F8500042040008F0B500F10B0423460D46B1FB4D
:10F86000F2F102FB115707F13006392EC8BF07F13C
:10F870003706954203F8016DF0D2421EE11A13F8E3
:10F88000015B9C4202F8015FF9D10844F0BD000021
:10F890002DE9F04F804687B015464FF000090C4621
:10F8A00014F8013B002B3BD0252B08D0D8F80020C2
:10F8B0001946404609F10109D268904749E14B7861
:10F8C0002D2B06BF8C1C01230023019323782B2BA7
:10F8D00006BF01340127002794F800A0BAF1300FC9
:10F8E0000CBF01344FF0200A23782A2B1CD16178F9
:10F8F000023455F804BB2E2943D1217881B12A293D
:10F9000021D0661C0020A1F130023446D2B2092A6F
:10F910001DD80A2316F8011B03FB00200029F2D191
:10F92000484607B0BDE8F08F4FF0000B14F8011BFC
:10F930000029F5D0A1F13002D2B2092ADBD80A237E
:10F9400003FB0B2BF2E76178023455F8040B01F04E
:10F95000DF024C2A17D121780029E1D0782904F15F
:10F9600001041FD8622900F2008158291AD84E29B3
:10F9700000F23081442900F09180492900F08E8006
:10F9800010E00020E3E7A1F141027829D2B209D8C2
:10F9900062290BD8582905D84E293BD8442978D05C
:10F9A000492976D02E468DF80C1056E0A1F1630659
:10F9B000152EF7D80FF2040C5CF826F04DFA00086B
:10F9C00093FA0008A5F90008A5F90008A5F90008B0
:10F9D000A5F9000893FA0008A5F90008A5F90008A0
:10F9E000A5F90008A5F90008A5F9000823FB0008FF
:10F9F00011FC0008A5F90008A5F9000863FA000841
:10FA0000A5F900080DFC0008A5F90008A5F90008F3
:10FA100011FC0008A1F14F02092AC3D801A050F837
:10FA200022F000BF23FB000811FC0008A5F9000824
:10FA3000A5F90008A5F90008A5F900080DFC0008C3
:10FA4000A5F90008A5F9000811FC00082E464FF0A2
:10FA5000200A56F8042B8DF80C2003AD0DF10D0093
:10FA60002BE02E4647F6FF726A4B56F8045B0028DF
:10FA700008BF1046002D08BF1D462A462F18104605
:10FA800012F8011B11B1B91A0029F8DA4FF0200A57
:10FA900013E02E46192A56F8041B02D82E4656F8B3
:10FAA000041B002936DA2D2249428DF80C200DF175
:10FAB0000D000A2203ADFFF7CDFE471B0199ABEB0A
:10FAC000070323EAE372002945D1002BC2F1000BA2
:10FAD0001EDD29782D2901D02B290DD1BAF1300F47
:10FAE0000AD1D8F800304046019209F10109DB68DB
:10FAF000013F98470135019AD8F8003051464046F9
:10FB00000192DB6898471BF1010B019AF4D19144F3
:10FB10003B4615E01FB12B228DF80C20C7E703A848
:10FB2000C7E708222E4603A856F8041BC2E7D8F8F8
:10FB30000020404615F8011BD26801939047019BB5
:10FB4000013BF4D5002FA8BFB9445D462DB9D94477
:10FB500035462146A3E69346DAE7D8F80030514609
:10FB60004046013DDB689847F0E7A1F16302152AA2
:10FB70003FF618AF01A353F822F000BF4DFA00087A
:10FB80009DFA0008A5F90008A5F90008A5F90008E4
:10FB9000A5F900089DFA0008A5F90008A5F90008D4
:10FBA000A5F90008A5F90008A5F9000823FB00083D
:10FBB00011FC0008A5F90008A5F9000863FA00087F
:10FBC000A5F900080DFC0008A5F90008A5F9000832
:10FBD00011FC0008A1F14F02092A3FF6E3AE01A390
:10FBE00053F822F023FB000811FC0008A5F90008D7
:10FBF000A5F90008A5F90008A5F900080DFC000802
:10FC0000A5F90008A5F9000811FC00080A2289E7F7
:10FC1000102287E7AC830108F0B5054687B0164689
:10FC20001F460C4689B14A1E0023294601A800F050
:10FC30005FF83A46314601A8FFF72AFE049BA3422B
:10FC40003CBF0022EA5407B0F0BD0A46ECE70000D2
:10FC5000D0E902239A421FBF4268D154C3680133DE
:10FC60001ABFC36000206FF001007047D0E9032382
:10FC70009A421FBF4268D25C0133036114BF104631
:10FC80006FF001007047000003692BB1013B42682F
:10FC900003610020D15470476FF0010070470000ED
:10FCA00038B504460846D4E903315B1A934228BFAD
:10FCB00013461D4663682A461944F2F765FB23691B
:10FCC00028462B44236138BD38B50446D0E90230BC
:10FCD0001B1A934228BF13461D4663682A461844E0
:10FCE000F2F752FBE36828462B44E36038BD00007E
:10FCF00010B5C0E90223034C0023C0E900410361B1
:10FD000010BD00BFB483010808B5074B074A196846
:10FD100001F03D01996053680BB190689847BDE8C8
:10FD20000840FFF76DBD00BF000002402C5A0020C4
:10FD300008B5084B1968890901F03D018A019A60EC
:10FD4000054AD3680BB110699847BDE80840FFF732
:10FD500057BD00BF000002402C5A002008B5084BD8
:10FD60001968090C01F03D010A049A60054A5369BB
:10FD70000BB190699847BDE80840FFF741BD00BF4F
:10FD8000000002402C5A002008B5084B1968890D64
:10FD900001F03D018A059A60054AD3690BB1106AEA
:10FDA0009847BDE80840FFF72BBD00BF00000240A8
:10FDB0002C5A002008B5074B074A596801F03D014D
:10FDC000D960536A0BB1906A9847BDE80840FFF7C5
:10FDD00017BD00BF000002402C5A002008B5084B98
:10FDE0005968890901F03D018A01DA60054AD36A40
:10FDF0000BB1106B9847BDE80840FFF701BD00BF8D
:10FE0000000002402C5A002008B5084B5968090C24
:10FE100001F03D010A04DA60054A536B0BB1906BA7
:10FE20009847BDE80840FFF7EBBC00BF0000024068
:10FE30002C5A002008B5084B5968890D01F03D0186
:10FE40008A05DA60054AD36B0BB1106C9847BDE8A0
:10FE50000840FFF7D5BC00BF000002402C5A00202C
:10FE600008B5074B074A196801F03D019960536CCA
:10FE70000BB1906C9847BDE80840FFF7C1BC00BFCC
:10FE8000000402402C5A002008B5084B1968890963
:10FE900001F03D018A019A60054AD36C0BB1106DE7
:10FEA0009847BDE80840FFF7ABBC00BF0004024024
:10FEB0002C5A002008B5084B1968090C01F03D01C7
:10FEC0000A049A60054A536D0BB1906D9847BDE8DE
:10FED0000840FFF795BC00BF000402402C5A0020E8
:10FEE00008B5084B1968890D01F03D018A059A6033
:10FEF000054AD36D0BB1106E9847BDE80840FFF777
:10FF00007FBC00BF000402402C5A002008B5074BFC
:10FF1000074A596801F03D01D960536E0BB1906EEC
:10FF20009847BDE80840FFF76BBC00BF00040240E3
:10FF30002C5A002008B5084B5968890901F03D0189
:10FF40008A01DA60054AD36E0BB1106F9847BDE89D
:10FF50000840FFF755BC00BF000402402C5A0020A7
:10FF600008B5084B5968090C01F03D010A04DA6034
:10FF7000054A536F0BB1906F9847BDE80840FFF7F3
:10FF80003FBC00BF000402402C5A002008B5084BBB
:10FF90005968890D01F03D018A05DA60054AD36F81
:10FFA00013B1D2F880009847BDE80840FFF728BC9D
:10FFB000000402402C5A002000230C4910B51A46B8
:10FFC0000B4C0B6054F82300026001EB4300043338
:10FFD0004260402BF6D1074A4FF0FF339360D36065
:10FFE000C2F80834C2F80C3410BD00BF2C5A0020EF
:10FFF000CC830108000002400F28F8B510D9102862
:020000040801F1
:1000000010D0112811D0122808D10F240720DFF8B2
:10001000B4E00126DEF80050A04208D9002649E0ED
:100020000446F4E70F240020F1E70724FBE706FA73
:1000300000F73D4240D1214C4FEA001C3D4304EB08
:1000400000160EEBC000CEF80050C0E90123FBB251
:100050004BB11B48836B43F001038363036E43F092
:1000600001030366036E17F47F4F09D01448836BB6
:1000700043F002038363036E43F002030366036EDF
:1000800054F80C00036823F01F030360056815F0A3
:100090000105FBD104EB0C033D2493F80CC05F6811
:1000A00004FA0CF43C6021240560446112B1987B91
:1000B00000F026FC3046F8BD0130ADE7CC830108E6
:1000C000004502582C5A002010B5302484F31188C2
:1000D000FFF792FF002383F3118810BD10B504468B
:1000E000807B00F023FC01231049627B03FA02F2BB
:1000F0000B6823EA0203DAB20B604AB90C4A916B2F
:1001000021F001019163116E21F001011166126E5F
:1001100013F47F4F09D1064B9A6B22F002029A63C7
:100120001A6E22F002021A661B6E10BD2C5A0020B5
:100130000045025808B5302383F31188FFF7CEFF3E
:10014000002383F3118808BD82880B4BC3F800237A
:100150000268C3F804230022C3F80823C3F80C2361
:10016000C3F81023C3F81423C3F81823C3F81C23BF
:100170001A615A61704700BF00800240054B9A6BBC
:1001800022F460329A631A6E22F460321A661B6E91
:10019000704700BF0045025810B5084CC4F804224F
:1001A000C36A43EA014141F4806141F00501C4F8AA
:1001B0000012D4F80032DB07FBD410BD00800240EF
:1001C000C36A43EA0141074B41F4816141F00501F3
:1001D000C3F80012D3F80022D207FBD4D3F80402EC
:1001E000704700BF0080024038B51E4BD3F8605105
:1001F00015F0410FC3F860512FD015F0010F1A4CC4
:1002000013D0302383F31188002104F1080001F09A
:1002100007FDE369012104F1180043F00103E361E4
:1002200001F01CFA002383F311886B0611D53023EB
:1002300083F3118800210D4801F0F2FCE3690221EB
:100240000B4843F00203E36101F008FA002383F353
:100250001188236A0BB104489847BDE83840FFF77E
:10026000CFBA00BF00900240B05A0020C05A002010
:10027000C85A00202DE9F3414C4F3868002800F09F
:1002800091804B4D00242868002800F08B80494E57
:10029000304600F063FB3B68474A4FF0414003F1B2
:1002A000400186F8284052F8047B103343F8107C54
:1002B00043F80C4C43F8084C43F8040C9942F2D133
:1002C0002B683E4A1C605C609C60DC601C615C6169
:1002D0009C61DC6164245368394F43F00073DFF89C
:1002E000D4805360536823F4600343F400035360E5
:1002F000344BD3F8802042F40042C3F88020D3F876
:10030000802022F40042C3F88020D3F880302E4BA6
:100310009A6B42F460329A631A6E42F460321A6643
:100320001B6E00256B0102214046F36245F4806399
:10033000C7F80032C7F80432FFF742FF07280AD097
:1003400005F58035B5F5001FECD1013CE9D120461B
:10035000FFF714FF26E003214046FFF731FF20F0AE
:100360000F004CF2F0030004000C9842E8D1114851
:100370004FF4004200210446FFF70EFF0021204603
:10038000FFF71EFF10F40041F8D10A480191FFF772
:1003900017FF019940F400620648FFF7FDFE0120B7
:1003A000FFF7ECFE02B0BDE8F08100BF3051002045
:1003B0003C510020B05A0020205100200004005879
:1003C000008002400044025800450258F8B5414EF2
:1003D0004FF04142404F0025336804460D21DA605A
:1003E000DA61DA62DA633B680563DD60DD613B4B4D
:1003F00045633D209A6B42F460329A631A6E42F470
:1004000060321A661B6E00F07BFA29462046FFF721
:10041000D7FE294620F400622046FFF7BDFE304992
:10042000304A0B6843F001030B600B6813F00103C3
:10043000FBD14FF48061116093601367C2F8903074
:1004400013656368186800B92748FFF77DFE254AE1
:100450004FF480513068136843F003031360234B5B
:10046000C2F81037A3F5F513A3F5FD53C2F80C3706
:100470001B4B59600021C3F800114FF4F041196083
:100480003968C3F814110121C3F82C11C3F81C01F9
:100490000320C3F830014FF40040C3F8600148F274
:1004A0004100C3F83401C2F8001DD2F8003DDB075B
:1004B000FBD46023C2F8303D0223C2F8003D4FF068
:1004C0000112074BC3F8042102F6E432C3F80821F5
:1004D000F8BD00BF305100203C51002000450258BB
:1004E0000090024000800240CC84010800C0200C33
:1004F00090F82830F0B513B3124B426B1C6816010C
:1005000004EB0215EB686F6803F00043002F18BF7F
:1005100043F001039BB90C4F57F822700132A751E9
:100520006C6801346C60012A94BF14461C4640F28A
:10053000F252446318460B60C1E90125F0BD4FF04B
:10054000FF30FBE73C51002034510020302383F37F
:100550001188036800228168C3F30D034A6043F0E9
:1005600000438B604FF03043CB60BFF34F8F074B9E
:10057000D96801F47041B1F5C04F02D10421C3F82C
:100580006011C3F8202182F3118870470090024067
:10059000154B70B51A684FF04145046B02EB04121D
:1005A000D368002B02DA4FF0FF301AE0D3681B0447
:1005B00018D4936813F4005314D1D668B60011D53B
:1005C000D668F6000ED5D56801340B60C5F30E056C
:1005D000032CA5F10205C1E9015294BF0463036332
:1005E000184670BDD560DBE730510020302383F31F
:1005F00011884FF041428368DA60BFF34F8F084B98
:10060000DA6802F47062B2F5806F02D18022C3F81A
:1006100060210022C3F8282182F31188704700BFAF
:100620000090024070B51D4B054601211C68FFF784
:10063000C7FD01212846FFF7C3FD002106462846D5
:10064000FFF7BEFDC1041DD506F03406242E03D0ED
:10065000002085F8280070BD05212846FFF7B0FD71
:1006600010F4607F14BF44F4804424F4804410F4F8
:10067000A07F14BF44F4005424F40054074B01201D
:100680001C60E6E77207E3D583044CBF44F4804462
:1006900024F4804410F4807FEBE700BF0080024028
:1006A00038B50546D0E900031B1A934228BF13460C
:1006B0001C4643B1AB6822461B681844F1F764FE40
:1006C0002B6823442B60204638BD000038B5054612
:1006D0000846D5E900135B1A934228BF13461C460F
:1006E00043B1AB6822461B681944F1F74DFE2B68F5
:1006F00023442B60204638BD024A136843F0C003F0
:10070000136070470078004013B50E4C204600F08F
:1007100005FB04F10C0000234FF400720A49009419
:1007200000F0CAF9094B4FF40072094904F1300096
:10073000009400F043FA074A074BC4E9152302B0BE
:1007400010BD00BFE85A00204C5B0020F9060108EC
:100750004C5D00200078004000E1F505037A30B5DB
:10076000214C002918BF0C46012B0CD11F4B98427D
:1007700009D11F4B9A6C42F080429A641A6F42F082
:1007800080421A671B6F2268836D416D03EB520331
:100790000466B3FBF2F36268150442BF23F0070559
:1007A00003F0070343EA4503CB60A36843F040032B
:1007B0004B60E36843F001038B6042F4967343F0AF
:1007C00001030B604FF0FF330B62510505D512F0AA
:1007D000102205D0B2F1805F04D080F85C3030BDCB
:1007E0007F23FAE73F23F8E7D4840108E85A002082
:1007F000004502582DE9F047466D05463768F46913
:10080000210734621AD014F0080118BF4FF4807128
:10081000E20748BF41F02001A3074FF0300348BF73
:1008200041F04001600748BF41F0800183F3118827
:10083000281D00F013FF002383F31188E2050AD579
:10084000302383F311884FF48061281D00F006FFE8
:10085000002383F311884FF030094FF0000A14F0A1
:10086000200838D13B0616D54FF0300905EB090AB0
:10087000200610D589F31188504600F0D3F90028DE
:1008800036DA0821281D00F0E9FE27F080033360E6
:10089000002383F31188790614D5620612D530231C
:1008A00083F31188D5E911239A4208D1AB6B33B198
:1008B00027F040071021281D00F0D0FE37600023EC
:1008C00083F31188E30618D52A6E1369ABB150691A
:1008D000BDE8F047184789F31188736A284695F8F0
:1008E0005C10194000F032FA8AF31188F469B6E717
:1008F000B06288F31188F469BAE7BDE8F0870000B8
:10090000090100F16043012203F56143C9B283F894
:10091000001300F01F039A4043099B0003F160435A
:1009200003F56143C3F880211A60704700F01F038C
:1009300001229A40430900F160409B0000F56140AC
:1009400003F1604303F56143C3F88020C3F88021BD
:10095000002380F800337047FFF78CBC012303703D
:10096000002343604362C0E9073300F10803C0E994
:10097000023300F11003C0E9043300F1180383616E
:100980007047000010B53023044683F3118841609E
:10099000FFF71CFD02230020237080F3118810BD97
:1009A000F8B504460D461646302383F3118800F14E
:1009B000080729462046FFF79BFD28B131463846F7
:1009C00001F012F9431CF4D1002383F31188F8BD20
:1009D000F8B504460D461646302383F3118800F11E
:1009E000100729462046FFF7D3FD28B13146384687
:1009F00001F0FAF8431CF4D1002383F31188F8BD09
:100A0000FFF710BEF8B51546826804460B46AA42A9
:100A100000D28568A1692669761AB5420BD21846BC
:100A20002A46F1F7B1FCA3692B44A3612846A368C9
:100A30005B1BA360F8BD0CD9AF1B18463246F1F71B
:100A4000A3FC3A46E1683044F1F79EFCE3683B447E
:100A5000EBE718462A46F1F797FCE368E5E7000064
:100A600083689342F7B50446154600D28568D4E9F9
:100A70000460361AB5420BD22A46F1F785FC636949
:100A80002B4463612846A3685B1BA36003B0F0BDE1
:100A90000DD93246AF1B0191F1F776FC01993A4628
:100AA000E0683144F1F770FCE3683B44E9E72A462B
:100AB000F1F76AFCE368E4E710B50A440024C36177
:100AC000029B8460C16002610362C0E90000C0E96A
:100AD000051110BD08B5D0E90532934201D18268F5
:100AE00082B98268013282605A1C42611970002109
:100AF000D0E904329A4224BFC368436101F084F80C
:100B0000002008BD4FF0FF30FBE7000070B5302338
:100B100004460E4683F31188A568A5B1A368A269AF
:100B2000013BA360531CA36115782269934224BF43
:100B3000E368A361E3690BB120469847002383F380
:100B40001188284607E03146204601F04DF800287C
:100B5000E2DA85F3118870BD2DE9F74F04460E46A1
:100B600017469846D0F81C904FF0300A8AF3118847
:100B70004FF0000B154665B12A4631462046FFF777
:100B800041FF034660B94146204601F02DF8002898
:100B9000F1D0002383F31188781B03B0BDE8F08FF8
:100BA000B9F1000F03D001902046C847019B8BF399
:100BB0001188ED1A1E448AF31188DCE7C160C36115
:100BC000009B82600362C0E905111144C0E9000086
:100BD00001617047F8B504460D461646302383F38D
:100BE0001188A768A7B1A368013BA36063695A1C79
:100BF00062611D70D4E904329A4224BFE3686361E4
:100C0000E3690BB120469847002080F3118807E084
:100C10003146204600F0E8FF0028E2DA87F3118829
:100C2000F8BD0000D0E9052310B59A4201D18268D1
:100C30007AB982680021013282605A1C82611C7874
:100C400003699A4224BFC368836100F0DDFF204638
:100C500010BD4FF0FF30FBE72DE9F74F04460E467D
:100C600017469846D0F81C904FF0300A8AF3118846
:100C70004FF0000B154665B12A4631462046FFF776
:100C8000EFFE034660B94146204600F0ADFF002864
:100C9000F1D0002383F31188781B03B0BDE8F08FF7
:100CA000B9F1000F03D001902046C847019B8BF398
:100CB0001188ED1A1E448AF31188DCE70C30FFF727
:100CC0004BBF00004FF0FF330C30FFF745BF000073
:100CD0003030FFF7C1BF00004FF0FF333030FFF777
:100CE000BBBF00000C30FFF711BF00004FF0FF3119
:100CF0000C30FFF70BBF00003030FFF76BBF000078
:100D00004FF0FF323030FFF765BF0000012914BFFC
:100D10006FF0130000207047FFF7F6BC0346034A4C
:100D200043F8042B4360012303727047EC840108ED
:100D300010B53023044683F31188FFF70FFD02231B
:100D40000020237280F3118810BD000038B543697C
:100D500004460D461BB90421084400F07FFC2946D7
:100D600004F10C00FFF7B6FE002806DA201D4FF450
:100D70000061BDE8384000F071BC38BD13B5406B70
:100D800000F58054D4F89C381A681178042914D1DD
:100D9000017A022911D11979012312898B4013425A
:100DA0000BD101A9443002F017FCD4F89C4802464C
:100DB000019B2179206800F0DFF902B010BD00002E
:100DC0000C3002F099BB00004FF0FF330C3002F002
:100DD00093BB0000443002F06BBC00004FF0FF33C7
:100DE000443002F065BC00000C3002F067BB00002C
:100DF0004FF0FF310C3002F061BB0000443002F0D4
:100E000037BC00004FF0FF32443002F031BC00002C
:100E10000020704710B500F58054D4F89C381A684B
:100E20001178042917D1017A022914D159790123A3
:100E300052898B4013420ED10C3002F0F9FA02466F
:100E400048B1D4F89C484FF4407361792068BDE8FC
:100E5000104000F07FB910BD406BFFF7DBBF000012
:100E6000704700007FB50346114A0125042643F868
:100E7000042B0446436000F17C020E4B29460572A8
:100E800002900C3001934FF44073009602F0ACFADC
:100E9000094B04F68C42294604F144000294CDE942
:100EA00000634FF4407302F073FB04B070BD00BFE9
:100EB00014850108590E01087D0D01080A683023C8
:100EC00083F311880B790B3342F823004B791333EA
:100ED00042F823008B7913B10B3342F8230000F55D
:100EE0008053C3F89C1802230372002080F31188FA
:100EF0007047000038B5037D044613B190F84C30BC
:100F0000ABB90125201D022100F0A8FB04F10C0063
:100F10006FF00101257500F083FE04F1440084F8B0
:100F20004C506FF00101BDE8384000F079BE38BD8B
:100F300010B501210446043000F090FB0023237516
:100F400084F84C3010BD000038B5044600250C3044
:100F500002F062FA04F14400257502F031FB201D15
:100F600084F84C50012100F079FB2046BDE8384060
:100F7000FFF750BF90F8803003F06003202B06D1BC
:100F800090F881200023212A03D81F2A06D80020A8
:100F90007047222AFBD1C0E91D3303E0034A4267B0
:100FA00007228267C3670120704700BF5C230020CF
:100FB00037B500F58055D5F89C381A6811780429A2
:100FC0001AD1017A022917D11979012312898B408C
:100FD000134211D100F14404204602F0B1FB58B194
:100FE00001A9204602F0F8FAD5F89C480246019B78
:100FF0002179206800F0C0F803B030BD01F10B0387
:10100000F0B550F8236085B004460D46FEB130239C
:1010100083F3118804EB8507301D082100F01EFBC7
:10102000FB6806F144005B691B681BB1019002F08C
:10103000E1FA019803A902F0CFFA024648B1039BF6
:101040002946204600F098F8002383F3118805B064
:10105000F0BDFB685A691268002AF5D01B8A013B73
:101060001340F1D104F18002EAE70000133138B5F2
:1010700050F82140ECB1302383F3118804F58053FC
:10108000D3F89C281368527903EB8203DB689B69D1
:101090005D6845B10421601800F0E0FA294604F1CA
:1010A0000C0002F0CFF92046FFF7B4FE002383F3D3
:1010B000118838BD7047000001F0A2BC0123402216
:1010C000002110B5044600F8303BF1F78FF90023FA
:1010D000C4E9013310BD000010B53023044683F38A
:1010E00011882422416000210C30F1F77FF920465D
:1010F00001F0A8FC02230020237080F3118810BDAA
:1011000070B500EB8103054650690E461446DA605F
:1011100018B110220021F1F769F9A06918B1102265
:101120000021F1F763F931462846BDE8704001F02F
:1011300089BD000083682022002103F0011310B54F
:10114000044683601030F1F751F92046BDE81040A5
:1011500001F004BEF0B4012500EB810447898D4005
:10116000E4683D43A469458123600023A260636075
:10117000F0BC01F021BE0000F0B4012500EB8104B9
:1011800007898D40E4683D4364690581236000233D
:10119000A2606360F0BC01F097BE000070B502234E
:1011A00000250446242203702946C0F888500C30DC
:1011B00040F8045CF1F71AF9204684F8705001F009
:1011C000D5FC63681B6823B129462046BDE8704002
:1011D000184770BD0378052B10B504460AD080F877
:1011E0008C300523037043681B680BB104219847BA
:1011F0000023A36010BD00000178052906D190F8F6
:101200008C20436802701B6803B1184770470000C8
:1012100070B590F87030044613B1002380F8703038
:1012200004F18002204601F0BDFD63689B68B3B9FC
:1012300094F8803013F0600535D00021204602F08C
:10124000AFF80021204602F09FF863681B6813B1D5
:10125000062120469847062384F8703070BD20464A
:1012600098470028E4D0B4F88630A26F9A4288BF2D
:10127000A36794F98030A56F002B4FF0300380F204
:101280000381002D00F0F280092284F8702083F39E
:10129000118800212046D4E91D23FFF76DFF0023AC
:1012A00083F31188DAE794F8812003F07F0343EA9F
:1012B000022340F20232934200F0C58021D8B3F5F8
:1012C000807F48D00DD8012B3FD0022B00F09380B7
:1012D000002BB2D104F1880262670222A267E367A1
:1012E000C1E7B3F5817F00F09B80B3F5407FA4D1C7
:1012F00094F88230012BA0D1B4F8883043F0020377
:1013000032E0B3F5006F4DD017D8B3F5A06F31D0F0
:10131000A3F5C063012B90D86368204694F882201F
:101320005E6894F88310B4F88430B047002884D005
:10133000436863670368A3671AE0B3F5106F36D09C
:1013400040F6024293427FF478AF5C4B636702231E
:10135000A3670023C3E794F88230012B7FF46DAFBD
:10136000B4F8883023F00203A4F88830C4E91D558E
:10137000E56778E7B4F88030B3F5A06F0ED194F844
:101380008230204684F88A3001F04EFC63681B6886
:1013900013B1012120469847032323700023C4E999
:1013A0001D339CE704F18B0363670123C3E72378B4
:1013B000042B10D1302383F311882046FFF7BAFEA7
:1013C00085F311880321636884F88B5021701B68B2
:1013D0000BB12046984794F88230002BDED084F879
:1013E0008B300423237063681B68002BD6D0022146
:1013F00020469847D2E794F8843020461D0603F033
:101400000F010AD501F0C0FC012804D002287FF4A6
:1014100014AF2B4B9AE72B4B98E701F0A7FCF3E7AF
:1014200094F88230002B7FF408AF94F8843013F0E6
:101430000F01B3D01A06204602D501F0C9FFADE76F
:1014400001F0BAFFAAE794F88230002B7FF4F5AEE2
:1014500094F8843013F00F01A0D01B06204602D56B
:1014600001F09EFF9AE701F08FFF97E7142284F8BE
:10147000702083F311882B462A4629462046FFF721
:1014800069FE85F31188E9E65DB1152284F87020C4
:1014900083F3118800212046D4E91D23FFF75AFE6B
:1014A000FDE60B2284F8702083F311882B462A4630
:1014B00029462046FFF760FEE3E700BF44850108A8
:1014C0003C8501084085010838B590F87030044625
:1014D000002B3ED0063BDAB20F2A34D80F2B32D87D
:1014E000DFE803F037313108223231313131313127
:1014F00031313737856FB0F886309D4214D2C368DA
:101500001B8AB5FBF3F203FB12556DB9302383F34D
:1015100011882B462A462946FFF72EFE85F31188AF
:101520000A2384F870300EE0142384F870303023DE
:1015300083F31188002320461A461946FFF70AFE56
:10154000002383F3118838BDC36F03B1984700238C
:10155000E7E70021204601F023FF0021204601F0AB
:1015600013FF63681B6813B10621204698470623C2
:10157000D7E7000010B590F870300446142B29D03E
:1015800017D8062B05D001D81BB110BD093B022B83
:10159000FBD80021204601F003FF0021204601F086
:1015A000F3FE63681B6813B10621204698470623A3
:1015B00019E0152BE9D10B2380F87030302383F329
:1015C000118800231A461946FFF7D6FD002383F33E
:1015D0001188DAE7C3689B695B68002BD5D1C36FBC
:1015E00003B19847002384F87030CEE730B530243B
:1015F00084F31188064C0568E4680D600160C1E958
:1016000001420022C1E9032382F3118830BD00BFEB
:10161000505F0020302383F31188044BDB681A6B82
:1016200010431863002383F311887047505F002034
:10163000036B194390F824300A2B016303D1836AAA
:10164000194205D170470B2B06D1836A8B4303D116
:101650000023836200F02AB97047000070B5064687
:101660000D460468B44200D170BDE3682B43E360CB
:1016700015B123691D4203D0D4E90101FFF7D8FF5A
:101680002468EFE738B50C4B0446DD68302383F35C
:1016900011882B6B184006D10A20AC6200F008F9C3
:1016A0002B6B04EA03002B6B23EA00032B6300235C
:1016B00083F3118838BD00BF505F00200023C0E9CC
:1016C000000083600361704770B51C4B0546846859
:1016D000DE685CB3B44213D103690133036170BDAA
:1016E000A36094F8243083B1062B15D1A06A21465B
:1016F000D4E9003213605A6000F0C8F8A36A9C680D
:10170000B368A2689A42EBD306E0D4E900322046DF
:1017100013605A6000F0CAF82846314600F0B6F867
:10172000B5620620BDE8704000F0C2B8036986606B
:1017300001330361736BC3607063D0E7505F0020B7
:1017400008B5302383F31188FFF7BEFF002383F32E
:10175000118808BD0A4B8268DB6832B19A420CD10D
:10176000036901330361012070470269836001321C
:1017700002615A6BC2605863F5E70020704700BFF2
:10178000505F002008B5302383F31188FFF7E2FF94
:10179000002383F3118808BD194BD96883688B42F5
:1017A00010B520D1302383F311880269013A026118
:1017B000B2B90468C368A0424B631ED08A6B9BB960
:1017C00001238A60036103681A68026050605A6BE3
:1017D0008360C2605863184600F068F800F0D4F8DF
:1017E000002383F3118810BD1C68A34203D0A468B2
:1017F000A24238BF2246DB68E1E78260F0E700BF23
:10180000505F00200023826880F8243083691B68C1
:1018100099689142FBD25A68036042601060586038
:10182000704700000023826880F8243083691B68B9
:1018300099689142FBD85A68036042601060586012
:101840007047000008B50846302383F3118891F8EB
:1018500024200023052A06D8DFE802F00B05050343
:10186000120E826A13604FF0FF338362FFF7CAFFE4
:10187000002383F3118808BD826A93680133936063
:10188000D0E9003213605A60EDE70000034610B55E
:101890001B68984203D09C688A689442F8D25A68C0
:1018A0000B604A601160596010BD0000FFF7AABFCD
:1018B000064BD96881F824001868026853601A60E2
:1018C0000122D86080F82420EEF7A4BD505F0020EC
:1018D0000C4B30B5DD684B1C87B004460FD02B464F
:1018E000094A684600F030FA2046FFF7E1FF009B06
:1018F00013B1684600F032FAA86A07B030BDFFF7AE
:10190000D7FFF9E7505F00204518010838B50C4DA6
:1019100004468162EB6881689A68914203D8BDE809
:101920003840FFF76FBF1846FFF77CFF01230146E1
:10193000EC60204684F82430BDE83840EEF76ABDFC
:10194000505F0020044B1A68DB6890689B689842DF
:1019500094BF002001207047505F0020094B10B554
:101960001C68D868226853601A600122DC6084F821
:101970002420FFF757FF01462046BDE81040EEF750
:1019800049BD00BF505F0020044B1A68DB689268B5
:101990009B689A4201D9FFF7E1BF7047505F002072
:1019A000C0E90000816070478368013B002B10B5DF
:1019B00083600CDA074BDC684368A06220606360D8
:1019C0001C6044600520FFF773FFA06A10BD002073
:1019D000FCE700BF505F002008B5302383F3118877
:1019E000FFF7E2FF002383F3118808BD826810B47B
:1019F000541E002C846013DA29B982604FF0FF3046
:101A00005DF8044B7047074B4268DB685DF8044B98
:101A1000986218605A60136043600520FFF758BF52
:101A20000020EDE7505F002008B5302383F31188D4
:101A3000FFF7DCFF002383F3118808BD83680133BF
:101A4000002B836008DC03681A6802605060002283
:101A500018469A62FFF72ABF7047000038B5012385
:101A6000084C00252370656001F0A6FE01F0CCFE55
:101A70000549064801F0C8FF0223237085F3118849
:101A800038BD00BF086200204C850108505F00206F
:101A900008B572B6044BD86700F0AEFD00F078FED2
:101AA000024B03221A70FEE7505F002008620020FC
:101AB00000F08AB9034A516853685B1A9842FBD810
:101AC000704700BF001000E08B608B630023CA6189
:101AD00000F1280288610A61C1E90C3302238B847A
:101AE000012381F8263001F11003C26A4A611360B4
:101AF000C36201F12C030846CB627047D0E9013183
:101B0000026841F8203CA1F1A4034039CB6003698D
:101B100041F8243C436941F8203C034B41F8043C24
:101B2000C3680248FFF7D0BF2D040008505F0020B3
:101B300008B5FFF7E3FFBDE80840FFF7B7BE0000B8
:101B4000302383F3118890F82630013B80F826304B
:101B5000436A03F0FF130F2B0FD1D0E90432136057
:101B60005A60002383F3118890F8253003F00303B3
:101B7000012B05D1006A01F0DBBE002383F311883D
:101B80007047000038B50E4BDC6804F12C05A062EC
:101B9000E06AA8420FD194F826303BB994F825307A
:101BA0009B0702BFD4E9043213605A600F20BDE8DE
:101BB0003840FFF77DBE0368E362FFF777FEE7E793
:101BC000505F0020302383F31188FFF7DBBF000054
:101BD00008B50146302383F311880820FFF778FE0B
:101BE000002383F3118808BD064BDB6839B14268D6
:101BF00018605A60136043600420FFF769BE4FF01D
