:020000040800F2
:1000000000070020F1020008BD3300087533000826
:100010009D3300087533000895330008F30200088B
:10002000F3020008F3020008F30200085D44000830
:10003000F3020008F3020008F3020008F3020008CC
:10004000F3020008F3020008F3020008F3020008BC
:10005000F3020008F3020008F17C00081D7D00088F
:10006000497D0008757D0008A17D00082145000834
:100070004945000875450008A1450008CD45000820
:10008000F545000821460008F30200085533000832
:10009000F302000865330008F3020008CD7D000874
:1000A000F3020008F3020008F3020008F30200085C
:1000B000F3020008F3020008F3020008F30200084C
:1000C000F3020008F3020008F3020008F30200083C
:1000D000F3020008F3020008F3020008F30200082C
:1000E000317E0008F3020008F3020008F302000862
:1000F000F3020008F3020008F30200084D4600086E
:10010000F3020008F3020008B97E0008F3020008B9
:10011000F3020008F3020008F3020008F3020008EB
:1001200079460008A1460008CD460008F9460008B7
:1001300025470008F3020008F3020008F302000854
:10014000F3020008F3020008F3020008F3020008BB
:100150004D47000879470008A5470008F30200084A
:10016000F3020008F3020008F3020008F30200089B
:10017000F30200081D710008F3020008F3020008F2
:10018000F3020008F3020008A57E0008F30200084D
:10019000F3020008F3020008F3020008F30200086B
:1001A000F3020008F3020008F3020008F30200085B
:1001B000F3020008F3020008F3020008F30200084B
:1001C000F3020008F3020008F3020008F30200083B
:1001D000F302000809710008F3020008F3020008A6
:1001E000F3020008F3020008F3020008F30200081B
:1001F000F3020008F3020008F3020008F30200080B
:10020000F3020008F3020008F3020008F3020008FA
:10021000F3020008F3020008F3020008F3020008EA
:10022000F3020008F3020008F3020008F3020008DA
:10023000F3020008F3020008F3020008F3020008CA
:10024000F3020008F3020008F3020008F3020008BA
:10025000F3020008F3020008F3020008F3020008AA
:10026000F3020008F3020008F3020008F30200089A
:10027000F3020008F3020008F3020008F30200088A
:10028000F3020008F3020008F3020008F30200087A
:10029000F3020008F3020008F3020008F30200086A
:1002A000F3020008F3020008F3020008F30200085A
:1002B000F3020008F3020008F3020008F30200084A
:1002C000F3020008F3020008F3020008F30200083A
:1002D000F3020008F3020008F3020008F30200082A
:1002E000CD16000800000000000000000000000023
:1002F00002E000F000F8FEE772B6374880F30888A5
:10030000364880F3098836483649086040F20000D4
:10031000CCF200004EF63471CEF200010860BFF35B
:100320004F8FBFF36F8F40F20000C0F2F0004EF627
:100330008851CEF200010860BFF34F8FBFF36F8F7B
:100340004FF00000E1EE100A4EF63C71CEF20001D3
:100350000860062080F31488BFF36F8F06F054F90D
:1003600007F092FA4FF055301F491B4A91423CBFAB
:1003700041F8040BFAE71D49184A91423CBF41F885
:10038000040BFAE71A491B4A1B4B9A423EBF51F82D
:10039000040B42F8040BF8E700201849184A914270
:1003A0003CBF41F8040BFAE706F06CF907F0F2FAEB
:1003B000144C154DAC4203DA54F8041B8847F9E796
:1003C00000F042F8114C124DAC4203DA54F8041B11
:1003D0008847F9E706F054B9000700200023002001
:1003E0000000000808ED00E00001002000070020E8
:1003F00058850008002300206C2300207023002073
:1004000078740020E0020008E4020008E40200081A
:10041000E40200082DE9F04F2DED108AC1F80CD050
:10042000D0F80CD0BDEC108ABDE8F08F002383F328
:1004300011882846A047002005F0E6FAFEE705F0FF
:1004400061FA00DFFEE70000F8B501F0BBF901F04A
:100450005DFB06F035F8074606F0CCF80546A8BB6C
:100460001F4B9F4232D001339F4232D027F0FF0210
:100470001C4B9A4230D12E4642F21074F8B200F072
:1004800075FF00F079FF08B10024264601F0CEFD8B
:1004900020B10024032000F079F8264635B1124B34
:1004A0009F4203D0002406F09DF82646002006F067
:1004B00011F80EB100F080F801F0C6FA00F090FFDC
:1004C000204600F02BF900F077F8F9E72E460024DB
:1004D000D7E704460126D4E7064641F28834D0E740
:1004E000010007B0000008B0263A09B008B501F0D5
:1004F00035F9A0F120035842584108BD07B541F233
:100500001203022101A8ADF8043001F045F903B04F
:100510005DF804FB38B5302383F31188174803686E
:100520000BB105F03DFB0023154A4FF47A711348D7
:1005300005F02CFB002383F31188124C236813B1C0
:100540002368013B2360636813B16368013B636008
:100550000D4D2B7833B963687BB9022001F0E6F9C1
:10056000322363602B78032B07D163682BB90220F9
:1005700001F0DCF94FF47A73636038BD702300201A
:10058000150500089024002088230020084B1870CF
:1005900003280CD8DFE800F008050208022001F06B
:1005A000C3B9022001F0BEB9024B00225A60704765
:1005B0008823002090240020F8B501F037FD30B1E9
:1005C0004D4B03221A7000224C4B5A60F8BD4C4B25
:1005D0004C4A1C4619680131F8D004339342F9D1D2
:1005E0006268494B9A42F1D9484B9B6803F100631A
:1005F00003F580239A42E9D205F0C8FF05F0DAFF3F
:10060000002001F005F90220FFF7C0FF404B002158
:100610009A6C99641A6F19671A6FDA6CD9645A6FF9
:1006200059675A6F1A6D19659A6F99679B6F394BA5
:10063000D3F8802042F00062C3F88020D3F88020F5
:1006400022F00062C3F88020D3F88020D3F8802005
:1006500042F00072C3F88020D3F8802022F00072AC
:10066000C3F88020D3F8803072B64FF0E023C3F88F
:10067000084DD4E90004BFF34F8FBFF36F8F264AB4
:10068000C2F88410BFF34F8F536923F48033536152
:10069000BFF34F8FD2F8803043F6E076C3F3C9053D
:1006A000C3F34E335B0103EA060C29464CEA81771B
:1006B0000139C2F87472F9D2203B13F1200FF2D144
:1006C000BFF34F8FBFF36F8FBFF34F8FBFF36F8FAA
:1006D000536923F4003353610023C2F85032BFF34F
:1006E0004F8FBFF36F8F302383F31188854680F3DC
:1006F000088820476AE700BF882300209024002054
:100700000000040820000408FFFF03080023002065
:10071000004502580044025800ED00E02DE9F04F7A
:1007200093B0B74B2022FF2100900AA89D6801F0EA
:1007300035F9B44A1378A3B90121B34811700360A5
:10074000302383F3118803680BB105F029FA0023E5
:10075000AE4A4FF47A71AC4805F018FA002383F3DF
:100760001188009B13B1AA4B009A1A60A94A13780A
:10077000032B03D000231370A54A53604FF0000AE7
:10078000009CD3465646D146012001F0CDF824B155
:100790009F4B1B68002B00F02C82002000F0DEFF36
:1007A0000390039B002B01DA00F062FE039B002BF9
:1007B000EDDB012001F0B6F8039B213B1F2BE3D8B2
:1007C00001A252F823F000BF490800087108000890
:1007D000050900088907000889070008890700083B
:1007E00097090008670B0008810A0008E30A00085F
:1007F0000B0B0008310B000889070008430B0008A9
:1008000089070008B50B0008E908000889070008F7
:10081000F90B000855080008E908000889070008D6
:10082000E30A00088907000889070008890700080B
:100830008907000889070008890700088907000858
:1008400089070008050900080220FFF74FFE00286D
:1008500040F0F981009B022105A8BAF1000F08BF02
:100860001C4641F21233ADF8143000F095FF8BE7CF
:100870004FF47A7000F072FF071EEBDB0220FFF7E7
:1008800035FE0028E6D0013F052F00F2DE81DFE8CB
:1008900007F0030A0D1013360523042105A805935C
:1008A00000F07AFF17E004215548F9E704215A487F
:1008B000F6E704215948F3E74FF01C08404608F1D9
:1008C000040800F0A7FF0421059005A800F064FFCC
:1008D000B8F12C0FF2D101204FF0000900FA07F710
:1008E00047EA0B0B5FFA8BFB01F0A4F826B10BF083
:1008F0000B030B2B08BF0024FFF700FE44E7042185
:100900004748CDE7002EA5D00BF00B030B2BA1D150
:100910000220FFF7EBFD074600289BD001200026B0
:1009200000F076FF0220FFF731FE1FFA86F84046FE
:1009300000F07EFF0446B0B1039940460136A1F1B4
:1009400040025142514100F08BFF0028EDD1BA46E0
:10095000044641F21213022105A83E46ADF81430B8
:1009600000F01AFF10E725460120FFF70FFE244B89
:100970009B68AB4207D9284600F04CFF013040F09D
:1009800067810435F3E70025224BBA463E461D70C9
:100990001F4B5D60A8E7002E3FF45CAF0BF00B032C
:1009A0000B2B7FF457AF0220FFF7F0FD322000F051
:1009B000D5FEB0F10008FFF64DAF18F003077FF445
:1009C00049AF0F4A08EB0503926893423FF642AFE6
:1009D000B8F5807F3FF73EAF124BB845019323DD5A
:1009E0004FF47A7000F0BAFE0390039A002AFFF6E3
:1009F00031AF039A0137019B03F8012BEDE700BFEC
:100A0000002300208C2400207023002015050008FE
:100A100090240020882300200423002008230020A5
:100A20000C2300208C230020C820FFF75FFD074621
:100A300000283FF40FAF1F2D11D8C5F120020AABDB
:100A400025F0030084494245184428BF42460192DC
:100A500000F07EFF019AFF217F4800F09FFF4FEAE0
:100A6000A803C8F387027C492846019300F09EFF43
:100A7000064600283FF46DAF019B05EB830533E785
:100A80000220FFF733FD00283FF4E4AE00F0FAFE49
:100A900000283FF4DFAE0027B846704B9B68BB428E
:100AA00018D91F2F11D80A9B01330ED027F003034A
:100AB00012AA134453F8203C05934046042205A98A
:100AC000043701F09DFA8046E7E7384600F0A2FEC1
:100AD0000590F2E7CDF81480042105A800F05CFE33
:100AE00002E70023642104A8049300F04BFE0028D1
:100AF0007FF4B0AE0220FFF7F9FC00283FF4AAAE65
:100B0000049800F0B5FE0590E6E70023642104A8F0
:100B1000049300F037FE00287FF49CAE0220FFF71C
:100B2000E5FC00283FF496AE049800F0A3FEEAE747
:100B30000220FFF7DBFC00283FF48CAE00F0B2FE91
:100B4000E1E70220FFF7D2FC00283FF483AE05A9BD
:100B5000142000F0ADFE07460421049004A800F024
:100B60001BFE3946B9E7322000F0F8FD071EFFF6FC
:100B700071AEBB077FF46EAE384A07EB090392688B
:100B800093423FF667AE0220FFF7B0FC00283FF427
:100B900061AE27F003074F44B9453FF4A5AE484680
:100BA00009F1040900F036FE0421059005A800F0C3
:100BB000F3FDF1E74FF47A70FFF798FC00283FF45B
:100BC00049AE00F05FFE002844D00A9B01330BD0F1
:100BD00008220AA9002000F0E9FE00283AD02022CD
:100BE000FF210AA800F0DAFEFFF788FC1C4804F099
:100BF00011FF13B0BDE8F08F002E3FF42BAE0BF0C9
:100C00000B030B2B7FF426AE0023642105A805936C
:100C100000F0B8FD074600287FF41CAE0220FFF765
:100C200065FC804600283FF415AEFFF767FC41F2F3
:100C3000883004F0EFFE059800F046FF46463C463B
:100C400000F0F8FEA0E506464EE64FF0000901E68A
:100C5000BA467EE637467CE68C230020002300203F
:100C6000A0860100094A49F26900136899B21B0C79
:100C700000FB013344F250611360054B186882B2E7
:100C8000000C01FB0200186080B2704714230020A2
:100C9000102300200021102210B5044600F07EFE33
:100CA000034B03CB206061601868A06010BD00BFDB
:100CB00000E8F11FF0B5ADF54F7D4FF4C472074663
:100CC0000D466CAC0021204600F068FE02F07EFB71
:100CD0004FF47A72254BB0FBF2F0186093E80700EE
:100CE000022384E807000DF5E9702382FFF7D2FFA5
:100CF00043F204731E4907A8238407F077F91623EB
:100D00000DF2E3220DF12C0C84F8323107AB1E46B4
:100D1000083203CE664542F8080C42F8041C3346FC
:100D2000F5D1306810602046B3880DAE938031460F
:100D3000012200F04BFF002380B2E97E0393AB7EDB
:100D4000029305F1190301930123009305A3D3E94D
:100D50000023CDE90460384602F050FF0DF54F7DC9
:100D6000F0BD00BF9E6AC421818A46EE982400200F
:100D7000FC7F00082DE9F0412C4CDAB080460D468E
:100D8000237A5BBB27A9284601F044F807460028D0
:100D900042D19DF89D60C82E3ED801464FF4A66210
:100DA000204600F0FBFD4FF4807332460DF19E01AA
:100DB000C4F8F8314FF4007304F109002644C4F874
:100DC0000C334FF44073C4F8203400F0C1FD9DF89B
:100DD0009C30777223720BB9EB7E237206AC8122B2
:100DE000002127A800F0DAFD0122214627A801F002
:100DF00057F8002380B2E97E0393AB7E029305F19E
:100E0000190301932823CDE904400093404605A32C
:100E1000D3E9002302F0F2FE5AB0BDE8F08100BF32
:100E2000AFF3008026417272DF25D7B7E03400208F
:100E3000F0B5254E4FF48A75F1B0002405FB00652E
:100E400096F8D830D822214685F8DC303AA885F8C3
:100E5000E84006AF00F0A2FD06F1090000F096FDA3
:100E6000D5F8E430C2B206F109018DF8F0000DF1B9
:100E7000F100CDE93A3400F06BFD394601223AA881
:100E800001F044F8082380B2317ACDE904700127DB
:100E90000E48CDE9023706F1D803019330230093C1
:100EA00007A3D3E9002302F0A9FEA04206DD02F069
:100EB0008DFAC5F8E000384671B0F0BD2046FBE77A
:100EC00078F6339F93CACD8DE0340020B0340020F3
:100ED0002DE9F0411D4D86B01D4E1E4F284602F0F3
:100EE000B9FE034658B30024DFF86C80ADF8144017
:100EF0000294CDE90344027B8DF8142003AA99687B
:100F0000406803C21B6843F00043029302F060FA9A
:100F100082190094384641F1000302A901F084FAD5
:100F2000A04205DD284602F099FE88F80040D5E78A
:100F300098F80030072B05D8013388F8003006B048
:100F4000BDE8F081014802F089FEF8E7B0340020E6
:100F500040420F00183A0020153A002070B50D46A7
:100F600014461E4602F0A6FD50B9022E10D1012CE7
:100F70000ED112A3D3E900230120C5E9002307E025
:100F8000282C10D005D8012C09D0052C0FD000201A
:100F900070BD302CFBD10BA3D3E90023ECE70BA3EE
:100FA000D3E90023E8E70BA3D3E90023E4E70BA38D
:100FB000D3E90023E0E700BFAFF30080401DA1208C
:100FC00026812A0B78F6339F93CACD8D9E6AC42161
:100FD000818A46EE26417272DF25D7B7F017304A74
:100FE00039059E5638B505460E4C0021013500F0F6
:100FF00037FCA4F82C55B4F82C0500F019FC78B196
:10100000B4F82C0500F024FC014648B9B4F82C05CE
:1010100000F026FCB4F82C350133A4F82C35EAE7AF
:1010200038BD00BFE03400200A4B0B4A10B51A60EF
:1010300003F5805393F858203AB95C6D2CB12046E3
:1010400001F072F8204601F0ABF90448BDE8104009
:1010500001F06AB8183A0020A4800008584A00201D
:101060002DE9F04F8FB005460C4600AF02F022FD8F
:1010700000284BD1237E022B1BD1E38A012B18D1F0
:1010800002F0A4F90646FFF7EDFD03464FF4C870E1
:1010900006F51676DFF8D082B3FBF0F202FB1033D0
:1010A00016FA83F3C8F80030E37E33B9A74B002269
:1010B0001A703C37BD46BDE8F08F07F12401204689
:1010C00000F05CFE0028F4D107F11400FFF7E2FD08
:1010D00097F8264007F1140107F12700224606F091
:1010E00053FF0028E2D10F2C08D8984B1C70D8F879
:1010F0000030A3F51673C8F80030DAE797F824102B
:101100000029D6D0284602F0CDFCD2E7E38A282B6E
:1011100033D010D8012B2BD0052BCAD1BFF34F8F62
:101120008B498C4BCA6802F4E0621343CB60BFF377
:101130004F8F00BFFDE7302BBBD1874EE17E327A67
:101140009142B6D1607E3146002291F8DC50854252
:1011500000F0AD80013201F58A71042AF5D13268C0
:1011600040F6B831FA328A4294BF32603160A0E76B
:1011700021462846FFF79EFD9BE721462846FFF7BC
:10118000F9FD96E7B2F8EC507B6005F103094FEAF0
:1011900099094FEA8902D11DC908A8EBC1030021B2
:1011A0009D46EB46584600F0F9FB04F1EE012A4655
:1011B0005846314400F0CCFB7B6813B9012000F0A5
:1011C00027FB96F8D20000F033FB044630B93072AA
:1011D00000F058FB204600F01BFBB0E0D6F8D4200E
:1011E0003AB996F8D200B6F82C25824201D8FFF71A
:1011F000F9FED6F8D4202A44944208D296F8D200B8
:10120000B6F82C250130824201D8FFF7EBFE5FFAD9
:1012100089F25946706800F0C9FB08B9C54679E003
:10122000726896F8D2002A447260D6F8D42005EB92
:101230000209C6F8D49000F0FBFA814509D396F86C
:10124000D220D6F8D4000132001B86F8D220C6F88E
:10125000D400FF2D0FD80024347200F013FB204679
:1012600000F0D6FA00F0E2FE3C4B188108B9FFF717
:10127000A3F9C5461DE7BB6896F8D9000AFB0362CF
:10128000FB68D2F8E41082F8E83001F58061C2F81A
:10129000E030C2F8E410FFF7CBFDFFF719FE96F837
:1012A000D920013202F0030286F8D920B6E74FF4C4
:1012B0008A7A20460AFB02F505F1EA01314400F082
:1012C00059FEF86000287FF4F4AE0122354485F819
:1012D000E82002F07BF8D5F8E020D6ED007A801AFD
:1012E00040F6B832B8EE677ADFED1D6A192838BFCC
:1012F0001920904228BF104607EE900AF8EEE77AD0
:1013000067EEA67ADFED176AE7EE267AFCEEE77A5B
:10131000C6ED007A96F8D93071680AFB03F4BB6019
:10132000321992F8E8505DB1D2F8E430E8468B42C9
:101330003FF428AF002182F8E810C2F8E010C5465B
:101340007368064A9B0A01331381B2E6A934002070
:1013500000ED00E00400FA05E034002098240020AD
:10136000CDCCCC3D6666663FAC340020014B187096
:10137000704700BFA424002038B54FF00054144B30
:1013800022689A4222D1607DF8B1124B0025C92211
:10139000114918701148237D0930C0F8DB5000F85E
:1013A000013C4FF48073C0F8EF314FF40073C0F884
:1013B00003334FF44073C0F8173400F0C9FAE02249
:1013C0002946204600F0EAFA012038BD0020FCE75B
:1013D0009AAD44C5A424002016000020E03400206B
:1013E00037B500F023FE194D022300221849288149
:1013F0006B710123174801F0A7FB002316494FF436
:1014000080520193154B16480093164B02F022FBB5
:10141000154B197811B1124802F044FB01F0D6FFC8
:101420000446FFF71FFC4FF4C873B0FBF3F202FB56
:10143000130304F5167010FA83F00C4B186005F0D6
:10144000D9F808B10F232B8103B030BD98240020B8
:1014500040420F00183A0020A82400205D0F000829
:10146000B034002061100008A4240020AC34002017
:101470002DE9F04F8C4C2DED028B85A7D7E9006745
:1014800095B00FF21429D9E900899FED858BFFF7FC
:101490001FFD0DAD0023DFF824B20C93ADF83C30F6
:1014A0000D936B6000234FF0010A0DF1250209A98D
:1014B00058468DF825308DF824A08DED008B01F075
:1014C000EDFE9DF824200023002A40F0AE80204647
:1014D00002F0F0FA0546002847D1DFF8E4B101F048
:1014E00075FFDBF8003098423FD301F06FFF0790A3
:1014F000FFF7B8FB4FF4C873079AB0FBF3F101FB99
:10150000130302F5167010FA83F0CBF8000010A850
:10151000DFF8B0B19BF80010002914BF2B465346EA
:1015200007918DF83030FFF7B5FB079910AB0DF13F
:101530003100C1F110021944D2B2062A28BF062296
:10154000079200F005FA079A0CAB2046039301328C
:101550001823D2B20293554B04923246CDE900A330
:101560003B4602F0EDFA8BF8005001F02FFF504A95
:10157000504D1368C31AB3F57A7F32D3106001F06F
:1015800027FF02460B46204602F072FB204602F07F
:1015900091FA30B32B7A0DF1400BDFF82CA1002B20
:1015A00014BF032302238AF8053001F00FFF4FF424
:1015B0007A7301225946B0FBF3F0CAF80000504696
:1015C00000F0B4FB182380B2424602933A4B0193D9
:1015D00040F25513CDE903B0009320464B4602F08C
:1015E000AFFA2B7AABB101F0F1FE4FF0000A83465F
:1015F0004FF48A7295F8D900504400F0030002FBC2
:10160000005393F8E81071B30AF1010ABAF1040F1C
:10161000F0D1C82004F0FEF92B7A002B7FF435AF0F
:1016200015B0BDEC028BBDE8F08F1946102210A852
:1016300000F0B4F90DF126030AAA0CA9584601F0EE
:1016400015F911AB95E8030083E803009DF83C30E1
:1016500010A920468DF84C300C9B1093DDE90A232D
:1016600002F0DAFC1EE7D3F8E01049B12B68ABEBCF
:101670000101FA2B38BFFA230533B1EB430FC3D373
:10168000FFF7D6FB4FF48A720028BDD1C1E700BF37
:10169000401DA12026812A0BF1C6A7C1D068080FE2
:1016A0000000000000000000B0340020A83400203A
:1016B000103A0020E0340020143A0020183A0020AC
:1016C000AC340020A93400209824002008B5054837
:1016D00001F072F9044A05490020BDE8084006F00F
:1016E0003FBC00BF183A00203C4F002029100008E2
:1016F0002DE9F84F4FF47A7306460D46002402FB9D
:1017000003F7DFF85080DFF8509098F900305FFA67
:1017100084FA5A1C01D0A34212D159F824002A4657
:1017200031460368D3F820B03B46D847854207D1FD
:10173000074B012083F800A0BDE8F88F0124E4E7FF
:10174000002CFBD04FF4FA7004F064F90020F3E7AA
:101750002C4F0020182300201C230020002307B555
:10176000024601210DF107008DF80730FFF7C0FF99
:1017700020B19DF8070003B05DF804FB4FF0FF3087
:10178000F9E700000A46042108B5FFF7B1FF80F031
:101790000100C0B2404208BD074B0A4630B4197878
:1017A000064B53F82140014623682046DD69044B6F
:1017B000AC4630BC604700BF2C4F00201C230020EB
:1017C000A086010070B5104C0025104E04F04CFCB2
:1017D00020803068238883420CD800252088013877
:1017E00004F03EFC23880544013BB5F5802F23809F
:1017F000F4D370BD04F034FC336805440133B5F50F
:10180000802F3360E5D3E8E72E4F0020E84E00201C
:1018100004F0F8BC00F1006000F58020006870471B
:1018200000F10060920000F5802004F079BC000017
:10183000054B1A68054B1B889B1A834202D910443A
:1018400004F00EBC00207047E84E00202E4F002010
:10185000024B1B68184404F009BC00BFE84E00208E
:10186000024B1B68184404F013BC00BFE84E002074
:101870000020704700F1FF5000F58F10D0F80008ED
:1018800070470000064991F8243033B10023082244
:10189000086A81F82430FFF7C3BF0120704700BFFA
:1018A000EC4E0020014B1868704700BF0010005C30
:1018B000194B01380322084470B51D68174BC5F356
:1018C0000B042D0C1E88A6420BD15C680A46013C15
:1018D000824213460FD214F9016F4EB102F8016B28
:1018E000F6E7013A03F10803ECD181420B4602D23C
:1018F0002C2203F8012B0424094A1688AE4204D195
:10190000984284BF967803F8016B013C02F104020F
:10191000F3D1581A70BD00BF0010005C24230020D2
:1019200040800008704700007047000070470000CA
:1019300070B504464FF47A764CB1412C254628BF49
:10194000412506FB05F0641B04F064F8F4E770BD64
:10195000002310B5934203D0CC5CC4540133F9E7A3
:1019600010BD0000013810B510F9013F3BB191F9ED
:1019700000409C4203D11AB10131013AF4E71AB197
:1019800091F90020981A10BD1046FCE70346024664
:10199000D01A12F9011B0029FAD1704702440346FC
:1019A000934202D003F8011BFAE770472DE9F84390
:1019B0001F4D14460746884695F8242052BBDFF891
:1019C00070909CB395F824302BB92022FF21484613
:1019D0002F62FFF7E3FF95F824004146C0F10802AB
:1019E00005EB8000A24228BF2246D6B29200FFF744
:1019F000AFFF95F82430A41B17441E449044E4B272
:101A0000F6B2082E85F82460DBD1FFF73BFF0028F3
:101A1000D7D108E02B6A03EB82038342CFD0FFF7D4
:101A200031FF0028CBD10020BDE8F8830120FBE77F
:101A3000EC4E0020024B1A78024B1A70704700BF20
:101A40002C4F00201823002038B51A4C1A4D204680
:101A500003F000FB2946204603F028FB2D684FF4D5
:101A60007A70D5F89020D2F8043843F00203C2F817
:101A70000438FFF75DFF1149284603F025FCD5F82F
:101A800090200F4DD2F80438286823F002030D4946
:101A9000A042C2F804384FF4E1330B6001D003F0E8
:101AA00037FA6868A04204D00649BDE8384003F020
:101AB0002FBA38BDA0560020F4820008FC8200082E
:101AC0001C230020144F00200C4B70B50C4D044615
:101AD0001E780C4B55F826209A420DD00A4B002157
:101AE00018221846FFF75AFF0460014655F82600F1
:101AF000BDE8704003F00CBA70BD00BF2C4F002051
:101B00001C230020A0560020144F0020F8B571B609
:101B1000002301201A46194602F0E2FE0446802006
:101B200004F00EFC002849D00025254A80274FF4F8
:101B3000D06C3D26136913F0C06F26D1D2F8103156
:101B400013F0C06F21D1236805F10061996023680B
:101B5000D86023685F602368C3F800C021680B6801
:101B600043F001030B6021680B6823F01E030B6038
:101B700021680B68DB07FCD4237B8035616806FA9B
:101B800003F3B5F5001F0B60D4D1204602F0DEFE52
:101B9000B5F5001F11D000240A4E0B4D012004F0B2
:101BA00031FB3388A34205D928682044013404F06E
:101BB0006FFAF6E7002004F025FB61B6F8BD00BF20
:101BC000002000522E4F0020E84E00202DE9F34760
:101BD0000D46044600219046284640F27912FFF750
:101BE000DDFE234620220021284604F1220702F0D0
:101BF000B5F9231D022220212846C02602F0AEF9A5
:101C0000631D03222221284602F0A8F9A31D032206
:101C10002521284602F0A2F904F108031022282108
:101C2000284602F09BF904F11003082238212846C7
:101C300002F094F904F1110308224021284602F031
:101C40008DF904F1120308224821284602F086F992
:101C500004F1140320225021284602F07FF904F1F8
:101C6000180340227021284602F078F904F120037D
:101C70000822B021284602F071F904F1210308225C
:101C8000B821284602F06AF9314608363B46082258
:101C90002846013702F062F9B6F5A07FF4D194F836
:101CA0003230314604F1330A00268DF8073008221D
:101CB0000DF10703284602F051F99DF807304FEA6D
:101CC000C6099E4209F5A47720D394F83231502BEF
:101CD00028BF50238DF80730B8F1000F08D13946DE
:101CE00009F24F170DF107030722284602F036F9D3
:101CF000002604F233149DF8073007EBC6019E421C
:101D00000DD30731C80802B0BDE8F0870AEB06031F
:101D1000082239462846013602F020F9CDE7A319FA
:101D200008222846013602F019F9E4E713B5044603
:101D3000084600212022234601900160C0F80310CC
:101D400002F00CF9231D01980222202102F006F96D
:101D5000631D01980322222102F000F9A31D0198BE
:101D60000322252102F0FAF8019804F10803102259
:101D7000282102F0F3F8072002B010BDF7B5047F68
:101D800005460E462CB1838A122B02D9012003B0DE
:101D9000F0BD0023072228460096194601F0A2FF55
:101DA000731C0122072100932846002301F09AFFAB
:101DB000D4B9B31C052208212846009323460D24DC
:101DC00001F090FFB378102BE0D83746BB1BB278F8
:101DD000934210D307342B7FA88AE408B3B9844216
:101DE00094BF00200120D2E7AB8A0824DB00083B27
:101DF000DB08B370E6E7FB1C214608222846009367
:101E000000230834013701F06DFFDFE7201A18BF07
:101E10000120BCE7F7B5047F05460E462CB1838A46
:101E2000CA2B02D9012003B0F0BD002308222846A6
:101E30000096194601F056FF731CD4B9082200938E
:101E4000234610241146284601F04CFF7378C82B16
:101E5000E8D801235F1C7278013B934210D307340A
:101E60002B7FA88AE408B3B9844294BF00200120E4
:101E7000D9E7AB8A0824DB00083BDB087370E5E791
:101E8000F3192146082228460093002301F02AFF77
:101E900008343B46DEE7201A18BF0120C3E70000E4
:101EA000F7B50D4604460021164628468122FFF765
:101EB00075FD234608220021284602F04FF894F9C8
:101EC00001206378002AB8BF7F238DF807309EB9C0
:101ED0000F270DF1070307220821284602F03EF8DC
:101EE000002602349DF8073007EBC6019E4205D359
:101EF0000731C80803B0F0BD0827F1E7A31908228D
:101F00002846013602F02AF8ECE70000F7B50E4645
:101F10000546002114463046CE22FFF73FFD2B46F2
:101F200028220021304602F019F82B7AC82B28BF4E
:101F3000C8238DF807308CB930240DF1070308222F
:101F40002821304602F00AF82F467B1B9DF8072017
:101F5000934205D3E01DC00803B0F0BD2824F3E789
:101F600007F109032146082230460834013701F001
:101F7000F5FFEAE7F7B5047F05460E4634B1838ADC
:101F8000B3F5827F02D9012003B0F0BD01231022F6
:101F900000212846009601F0A5FEDCB9B31C0922F9
:101FA0001021284600932346192401F09BFE7388D4
:101FB000B3F5807FE7D83746BB1B7288934210D3B6
:101FC00007342B7FA88AE408B3B9844294BF002069
:101FD0000120D9E7AB8A1024DB00103BDB087380BB
:101FE000E5E73B1D214608222846009300230834DC
:101FF000013701F077FEDFE7201A18BF0120C3E7A1
:1020000030B50A44084D91420DD011F8013B5840BB
:10201000082340F30004013B2C4013F0FF0384EA43
:102020005000F6D1EFE730BD2083B8EDF7B5384A60
:102030006B46106851686A4603C308233549364821
:1020400005F0B2FF0446002833D10A25334A6B4617
:10205000106851686A4603C3082331492E4805F0C9
:10206000A3FF0446002849D00369B3F5E01F45D813
:10207000B0F8661040F2374291423FD1294A0244FB
:1020800002F15C018B4239D35C3B234900209E1A4C
:10209000FFF7B6FF04F16401074632460020FFF760
:1020A000AFFFA3689F4229D1E368984208BF00258B
:1020B00024E00369B3F5E01F27D8418B40F2374293
:1020C000914220D1174A024402F110018B4218D3E9
:1020D000103B114900209D1AFFF792FF04F11801EF
:1020E00006462A460020FFF78BFFA3689E4202D1D6
:1020F000E368984201D00D25A8E70025284603B0E3
:10210000F0BD1025A2E70C25A0E70B259EE700BF38
:1021100050800008DCFF1B00000004085980000804
:1021200090FF1B000800FCF710B5037C044613B9B0
:10213000006804F039F9204610BD00000023BFF309
:102140005B8FC360BFF35B8FBFF35B8F8360BFF3B5
:102150005B8F7047BFF35B8F0068BFF35B8F704787
:1021600070B505460C30FFF7F5FF044605F108068B
:102170003046FFF7EFFFA04206D96D683046FFF703
:10218000E9FF2544281A70BD3046FFF7E3FF201A07
:10219000F9E7000070B505464068A0B105F10C06EE
:1021A00005F10800FFF7D6FF04463046FFF7D2FFDF
:1021B000844204F1FF34304694BF6D680025FFF778
:1021C000C9FF2C44201A70BD38B50C460546FFF7F0
:1021D000C7FFA04210D305F10800FFF7BBFF04447E
:1021E0006868BFF35B8FB4FBF0F100FB1144012082
:1021F000AC60BFF35B8F38BD0020FCE72DE9F041F8
:10220000144607460D46FFF7C5FF844228BF044623
:10221000D4B1B84658F80C6B4046FFF79BFF3044EA
:10222000286040467E68FFF795FF331A9C4203D82A
:1022300001206C60BDE8F081A41B6B603B6820440A
:10224000AB60E8600220F5E72046F3E738B50C46BE
:102250000546FFF79FFFA04210D305F10C00FFF7E2
:1022600079FF04446868BFF35B8FB4FBF0F100FBB7
:1022700011440120EC60BFF35B8F38BD0020FCE708
:102280002DE9FF418846694607466C46FFF7B6FFD1
:10229000002506B204EBC606B4420AD0626808EB19
:1022A000050120680834FFF753FB54F8043C1D4433
:1022B000F2E729463846FFF7C9FF284604B0BDE8D3
:1022C000F0810000F8B505460C300F46FFF742FFDD
:1022D00005F1080604463046FFF73CFFA0423046B1
:1022E00088BF6C68FFF736FF201A386020B12C6871
:1022F0003046FFF72FFF2044F8BD000073B51446A9
:1023000006460D46FFF72CFF8442019028BF044685
:10231000DCB101A93046FFF7D5FF019B33B9326824
:10232000C5E90233C5E9002401200CE09C42286085
:1023300038BF0194019884426860F5D93368241A43
:102340000220AB60EC6002B070BD2046FBE70000ED
:102350002DE9FF410F4669466C46FFF7CFFF00B2FB
:10236000002604EBC005AC4209D0D4F80480B819AB
:1023700054F8081B42464644FFF7EAFAF3E73046B2
:1023800004B0BDE8F081000038B50546FFF7E0FF76
:10239000044601462846FFF717FF204638BD0000D7
:1023A00008B104F001B870477047000010B413463C
:1023B000026814680022A4465DF8044B60470000E0
:1023C00000F5805090F869047047000000F58050D7
:1023D00090F862047047000000F5805090F968049E
:1023E000704700004E207047302383F3118800F5BA
:1023F0008052D2F8AC34D2F8A8041844D2F8A434ED
:102400001844D2F88C341844D2F89C341844D2F8CA
:1024100098341844002383F31188704700F58050E6
:10242000C0F86414012070472DE9FF470C4600F501
:1024300080510546BDF8308091F8620498B1D1F81A
:1024400088040130C1F888042068860006D4207B07
:1024500008280BD9667B0EB10F2807D9D1F88C3428
:102460000133C1F88C344FF0FF30A9E0302080F305
:102470001188E86BD0F8C47017F4001713D0D1F8A6
:1024800090040130C1F89004D1F89414002940F070
:102490009A8021462846CDF8008000F0E7FF00230F
:1024A00083F311888CE0D0F8C4604FF04809686B62
:1024B000C6F3044619FB060920684FEA461A0028AD
:1024C000B4BF40F0804C4FEA804CC9F800C020688F
:1024D000400044BF4CF00050C9F80000300694F8AA
:1024E0000CC040EA0C40C9F8040094F80DC0BCF1DF
:1024F000000F26D040F44010C9F80400D1F8C00401
:102500000130C1F8C00405EB0A0101F58351087FD1
:1025100040F020000877207BCDE9022300F0FEFF89
:102520000330DDE902238010F9B20137814210DA6D
:1025300004EB810C09EB8101DCF804C0C1F808C090
:10254000F2E705EB0A0101F58351087F6CF34510B2
:10255000E0E70120E96B04F10C07B040C1F8D000BE
:1025600006F18301204605EB4111C1E9002305EB8B
:10257000461101F58351083150F804CBB84241F8B7
:1025800004CBF9D10088AA44088041F278014AF8C6
:1025900001600AF5805A08F003019AF87C0041F0C6
:1025A000100120F01F0001438AF87C10002181F304
:1025B000118821462846CDF8008000F057FF012001
:1025C00004B0BDE8F087002069E700002DE9F0477E
:1025D00000F58056044696F86254002D40F00481C0
:1025E00090F82030032B40F0948028462B462F464D
:1025F0005FFA80FC944510DA01EBCC0E51F83CC038
:10260000BCF1000F04DBDEF804C0BCF1000F02DBFC
:1026100001370130ECE70133FBE7302080F311880C
:10262000E06BF3B9D0F8803043F00203C0F880309B
:102630004E23E06B002F6FD1D0F8803043F00103C0
:10264000C0F88030694B6A4A1B6803F1805303F578
:102650002C539B009342A36340F2B080654800F086
:10266000AFFE4D2B42D8DFF884814FEA034EDFF8EE
:102670008891D8F800C04EEA8C0EC0F884E00CF1C6
:10268000805000F52C508000606203EB0C00D4F801
:102690003CC0C3F14E03C8F80000DCF8800040F0F5
:1026A0003000CCF880004FF0000CD4F82480E646CF
:1026B0005FFA8CF08242BCDD01EBC00A51F83000B9
:1026C000002810DBDAF804A0BAF1000F0BDA09EAEF
:1026D00000400AF07F0A40EA0A0040F0084048F84B
:1026E0002E000EF1010E0CF1010CE1E7836923F0DD
:1026F0000103836100F06AFE0646E36B9B69D9071C
:1027000004D500F063FE831BFA2BF6D9002383F374
:1027100011882846BDE8F087B7EB530F3DD2DFF8AC
:10272000CCE04FEA074CDEF800304CEA830CC0F8EE
:1027300088C003F1805003EB4703002700F52C50BD
:10274000CEF80030BC468000A062E06BD0F880304C
:1027500043F00C03C0F88030D4F828E0FBB29A4272
:102760007FF770AF51F8330001EBC3080028D8F8A9
:10277000043001DB002B0EDB20F0604023F06043CF
:1027800040F0005043F000434EF83C000EEBCC000C
:102790000CF1010C43600137E0E7836923F001038A
:1027A000836100F013FE0646E36B9B69DA07ADD543
:1027B00000F00CFE831BFA2BF6D9A7E7E26B9369B6
:1027C00023F00103936100F001FE0746E36B9B6970
:1027D000DB0705D500F0FAFDC31BFA2BF6D995E708
:1027E000012586F8625491E7002592E7384F0020D2
:1027F000FCB50040648000080000FF0713B500F539
:1028000080540191606DFFF7C5FC1F280AD9202272
:102810000199606DFFF734FDA0F120035842584143
:1028200002B010BD0020FBE708B5302383F3118808
:1028300000F58050406DFFF781FC002383F3118881
:1028400008BD000000220260828142608260704701
:102850000022002310B5C0E90023002304460C30F9
:1028600020F8043CFFF7EEFF204610BD2DE9F047AD
:102870009A4688B0074688469146302383F31188EC
:1028800007F580546846FFF7E3FF606DFFF768FCCB
:102890001F282ED920226946606DFFF775FD20287C
:1028A00027D194F8623423B303AD444605AB2E46DA
:1028B000083403CE9E4244F8080C44F8041C354604
:1028C000F5D130682060B388A380DDE90023C9E931
:1028D0000023BDF80830AAF80030002383F31188E4
:1028E00053464A464146384608B0BDE8F04700F036
:1028F0007BBD002080F3118808B0BDE8F0870000A0
:102900002DE9F84F06468846182200210430354646
:10291000FFF744F8254B06F5825745F8403B2C4617
:1029200020462034FFF794FFA742F9D106F58054E2
:102930004FF4805306F5A4594FF0000A2564002592
:1029400067654FF0000B06F58457E564C4E911355F
:10295000012384F8503084F85830A7F1180020374C
:1029600047E910ABFFF76EFF47F8285C4F45F4D1FD
:1029700084F86884A4F86A54A4F86C54A4F86E54DB
:1029800084F87054A4F87254A4F87454A4F87654DB
:1029900084F87854B8F1000F02D0054800F010FD1B
:1029A000044B3046F363BDE8F88F00BFA4800008F5
:1029B0008880000800A00040044B10B51978044638
:1029C0004A1C1A70FFF79CFF204610BD354F0020AF
:1029D0002DE9F04300295AD02E4E2F48B6FBF1F4D2
:1029E00081428CBF0A201120431EB4FBF0F700FB8C
:1029F0001740DDB220B1022B1846F5D8002032E096
:102A00007B1EB3F5806F2ED2C5EBC5084FF47A73E9
:102A100008F103044FEAE40EC4F3C7040EF1010900
:102A2000281B0EFB033E5FFA80FC59FA80F0BEFBC8
:102A3000F0F0B0F5617F18DC83B2601C5CFA80F0C6
:102A40007843B6FBF0F08142D8D1611E0F29D5D86A
:102A50000CF1FF310729D1D8012013805780107164
:102A6000547182F806C0BDE8F08308F1FF34E0102D
:102A7000C4F3C70400F1010E2D1B00FB03335FFA02
:102A800085FC5EFA85F5B3FBF5F39BB2D5E7084606
:102A9000E9E700BF00B4C4043F420F0030B50D4B5E
:102AA00005200D4D1C786C438C420ED159780120C5
:102AB000518099785171D9789171197911715B7937
:102AC00003EB83035B00138030BD013803F1060381
:102AD000E8D1F9E7E880000840420F0038B540F23D
:102AE0007772C36B154CC3F8BC200722C36BC3F8C5
:102AF000C8202268C16B930043F4C023C1F8A03002
:102B000002F1805302F16C01C56B03F52C53EA32DC
:102B100089009B00226041F0E061094AC362C5F868
:102B2000C01003F5D87103F56A7341639342836360
:102B300002D9044800F044FC38BD00BF384F0020E3
:102B4000FCB50040648000082DE9F04700F5805591
:102B50001F4688B0044695F8683489469046012B94
:102B600004D90026304608B0BDE8F0879F4A52F8E5
:102B7000231009B942F823009D48C4F81C9001783D
:102B800084F82070C9B9302383F31188994BD3F8A6
:102B9000EC2042F48072C3F8EC20D3F8942042F485
:102BA0008072C3F89420D3F8942022F48072C3F882
:102BB00094200123037081F3118895F861647EB934
:102BC000302383F311880321132001F0D5FF032163
:102BD000152001F0D1FF012385F8613486F31188B7
:102BE000302383F31188E26B936923F01003936120
:102BF00000F0ECFB8246E36B9E6916F0080609D0F4
:102C000000F0E4FBA0EB0A03FA2BF4D9002686F3CC
:102C10001188A7E79A6942F001029A6100F0D6FB99
:102C20008246E36B9A69D00706D400F0CFFBA0EB95
:102C30000A03FA2BF5D9E9E79A694FF0000A42F046
:102C400002029A61E36BC3F854A08AF31188686D9D
:102C5000FFF774FA202200216846FEF79FFE02A8C3
:102C6000FFF7F0FD04F583536A460DF1180E334467
:102C7000CDF818A094460833BCE80300F44543F8A7
:102C8000080C43F8041C6246F4D1DCF8000020363E
:102C90001860B6F5806F9CF804201A71DAD1002311
:102CA00004F5A352494620460A3285F8603485F877
:102CB0006334FFF78DFE064690B9E26B936923F00B
:102CC0000103936100F082FB0546E36B9B69D90722
:102CD0007FF547AF00F07AFB431BFA2BF5D940E7AD
:102CE00095F86E34C5F87C94591E95F86F34E26BF4
:102CF000013B1B0243EA416395F8701401390B4311
:102D0000B5F86C14013943EA0143D361B8F1000FFF
:102D100036D004F5A352414620461232FFF7BEFEDC
:102D200090B9E26B936923F00103936100F04EFBCD
:102D30000546E36B9B69DA077FF513AF00F046FBAE
:102D4000431BFA2BF5D90CE795F87724C5F8808456
:102D5000511E95F87824E36B013A120142EA0122F0
:102D600095F8761401390A43B5F87414013942EA2A
:102D7000014242F40002DA604FF42062E36B9A648D
:102D8000E36B4FF000082046C3F8BC80FFF7A6FEB7
:102D900085F869846FF04042E36B1A65164AE36B6D
:102DA0005A654FF00222E36B9A654FF0FF32E36BF6
:102DB000C3F8E0200322E36B9742DA653FF4D2AE1A
:102DC000E26B936923F00103936100F0FFFA074679
:102DD000E36B9B69DB0705D500F0F8FAC31BFA2B00
:102DE000F6D9BEE6012385F86234BBE6304F0020F9
:102DF000344F002000440258550200022DE9F04FE4
:102E000000F5A5578BB00546904699464FF0000B4C
:102E100041F2780A1037EB6BD3F8D83023FA0BF372
:102E2000DC0753D505EB4B114FEA4B1251440B799C
:102E300018074BD405F58056D6F894340133C6F8FC
:102E40009434C7E900890B79990605EB020148BF64
:102E5000D6F8C434514444BF0133C6F8C4340B79A6
:102E600043F008030B71DB0725D596F8633413B3E1
:102E700005F5835402A80192FFF7EAFC0834019A91
:102E800005AB144404F1080C2068083454F8041C01
:102E90001A46644503C21346F6D1206802A91060A1
:102EA0002846A2889A800123ADF810302B68CDE91E
:102EB00002891B6C9847D6F8B834D6F864040133FD
:102EC000C6F8B83410B103681B6998470BF1010BC1
:102ED000BBF1200F9FD10BB0BDE8F08F2DE9F04F73
:102EE0000F468DB0044600F073FA82468946002FE3
:102EF0005BD1E36BD3F8A02012F4FE0F03D10020C6
:102F00000DB0BDE8F08FD3F8A420920141BF04F5C5
:102F10008051D1F8A8240132C1F8A824D3F8A42004
:102F20005606ECD0D3F8A450E66AC5F3052548232D
:102F3000E8464FF0000B03FB05664046FFF782FCB6
:102F4000326851004ABF22F06043C2F38A4343F023
:102F50000043920048BF43F080430093736813F42A
:102F600000131BBF012304F580528DF80D308DF83E
:102F70000D301EBFD2F8C8340133C2F8C834F3880C
:102F800003F00F038DF80C309DF80C0000F0C6FA2A
:102F90005FFA8BF3984225D9F2180CA90BF1010BBB
:102FA000127A0B4403F82C2CEEE7012FA7D1E36B28
:102FB000D3F8B02012F4FE0FA1D0D3F8B4209501BD
:102FC00041BF04F58051D1F8A8240132C1F8A824EA
:102FD000D3F8B420500692D0D3F8B450266BC5F382
:102FE0000525A4E7EFB9E36BC3F8A85004A807AD23
:102FF000FFF72EFC98E80F0007C52B800023204622
:1030000004A9ADF81830236804F580541B6CCDE991
:1030100004A9984758B1D4F8A0340133C4F8A034B7
:103020006EE7012FE2D1E36BC3F8B850DEE7D4F8C6
:10303000A43401200133C4F8A43461E72DE9F04140
:1030400005460F4600F58054012639462846FFF70D
:1030500045FF10B184F86364F7E7D4F8B834D4F8C6
:1030600064040133C4F8B83420B10368BDE8F0410A
:103070001B691847BDE8F081C36BF0B51A6C12F4F8
:103080007F0F2BD01B6C00F5805441F278054FF078
:10309000010CC4F8BC340023471900EB43125E0155
:1030A0002A44117911F0020F15D0490713D4B959E8
:1030B000C66B0CFA01F1D6F8CCE011EA0E0F0AD07B
:1030C000C6F8D410117941F004011171D4F89C2490
:1030D0000132C4F89C240133202BDED1F0BD000066
:1030E00010B5264C264B22680AB340B31A6D9205E0
:1030F0000FD54FF400721A6500F06AF950EA010228
:103100000B4602D0013861F1000302462068FFF748
:1031100075FE1B4A136D9B012AD523684FF0007181
:1031200003F580531165012283F8692420E0012210
:103130001A6510221A654FF480521A6510BD196D78
:10314000C80702D4196D490705D505211046196530
:103150000021FFF773FF0A4B1A6DD00602D41A6DD7
:10316000510605D5502201211A652068FFF766FF38
:103170002068BDE81040FFF77FBF00BF304F002040
:1031800000A0004008B5302383F31188FFF774FFD7
:10319000002383F3118808BDC36BD3F8C00010F07F
:1031A0007C5005D0D3F8C40080F40010C0F3405028
:1031B0007047000008B5302383F3118800F5805074
:1031C000406DFEF7CDFF002383F3118843090CBF48
:1031D0000120002008BD000000F5805393F8692409
:1031E00062B1C16B8A6922F001028A61D3F8AC2412
:1031F0000132C3F8AC24002283F869247047000030
:103200002DE9F743302181F31188002500F5835122
:1032100041F2780E4FF0010800F5805C00EB451498
:103220007444267977071CD4F6061AD58E69D0F82F
:103230003C9008FA06F6D9F8CC703E4211D04F689F
:1032400001970F689742019F9F410AD2C9F8D46045
:10325000267946F004062671DCF898440134CCF84F
:10326000984401352031202DD8D1002383F31188D3
:1032700003B0BDE8F0830000F8B51E4600230F46FA
:10328000054613701446FFF795FF80F00100387073
:103290001EB12846FFF780FF2070F8BD2DE9F04FE2
:1032A00085B099460D468046164691F800B0DDE996
:1032B0000EA302931378019300F08AF82B7804464A
:1032C0000F4613B93378002B41D022463B46404687
:1032D000FFF796FFFFF756FFFFF77EFF4B4632469C
:1032E0002946FFF7C9FF2B7833B1BBF1000F03D09C
:1032F000012005B0BDE8F08F337813B1019B002B9E
:10330000F6D108F5805303935445029B77EB0303F2
:103310001DD2039BD3F86404C8B10368AAEB04016F
:103320001B6898474B46324629464046FFF7A4FFA4
:103330002B7813B1BBF1000FDAD1337813B1019BB5
:10334000002BD5D100F044F804460F46DCE70020FE
:10335000CFE7000008B50020FFF7C2FEBDE8084037
:1033600001F0B4B808B50120FFF7BAFEBDE8084087
:1033700001F0ACB800B59BB0EFF309816822684654
:10338000FEF7E6FAEFF30583014B9B6BFEE700BF08
:1033900000ED00E008B5FFF7EDFF000000B59BB0C1
:1033A000EFF3098168226846FEF7D2FAEFF305834E
:1033B000014B5B6BFEE700BF00ED00E0FEE70000A5
:1033C0000FB408B5029802F0CBFAFEE703F01AB882
:1033D00002F0FCBF0139C9B202299EBF00EBC10057
:1033E0000023C0E9013370472DE9F8431E461B88CE
:1033F000054688465B0718D4044600F118094C4579
:1034000013D063686BB12B682846DB6B9847338811
:10341000C1B2A76843F0040342466068B847083465
:10342000EDE7A368002BEED1F9E70120BDE8F883B2
:1034300073B56C4684E80600014600224E68D5B29A
:103440006EB98E685EB900EBC2000135021D94E8CA
:10345000030082E8030001201D7002B070BD01323C
:103460000831032AEAD10020F7E700002DE9F04FE8
:103470002DED028B89B004468B460546BDF8508081
:1034800000F11809002708F0040A9FED228BA945D6
:1034900037D06B680BB9AB6863B1BAF1000F0BD1D1
:1034A00023682046DB6B98474346C1B25A46D5E9AC
:1034B0000106B0470835EAE7002FFBD15B4603AAB7
:1034C0000BF1080CADF808708DED008B186808330F
:1034D00053F8041C1746634503C73A46F6D11868EB
:1034E00038609B88BB800127FFF772FF0423ADF88B
:1034F00008302368CDE900011B6C694620469847D7
:10350000D8E7012009B0BDEC028BBDE8F08F00BF09
:10351000AFF300800000000000000000082817D969
:1035200009280CD00A280CD00B280CD00C280CD061
:103530000D280CD00E2814BF4020302070470C20DE
:1035400070471020704714207047182070472020C3
:10355000704700002DE9F041456A15B94162BDE8A8
:10356000F0814B68AC4623F06047C3F38A464FEACC
:10357000D37EC3F3807816EA230638BF3E462B4637
:103580005A68BEEBD27F22F060440AD0002A18DAD3
:10359000A40CB44217D19D420FD10D60DEE7134653
:1035A000EEE7A74207D102F08044C2F380724245A1
:1035B0000BD054B1EFE708D2EDE7CCF800100B6068
:1035C000CDE7B44201D0B442E5D81A689C46002A3F
:1035D000E5D11960C3E700002DE9F047089D01F02F
:1035E000070400EBD1004FF47F494FEAD50822448D
:1035F00005F00705944201D1BDE8F08704F0070704
:1036000005F0070A111B08EBD50E57453E4613F887
:103610000EC038BF5646C6F108068E4228BF0E4679
:10362000E108415C34443544B94029FA06F721FAEF
:103630000AF1FFB28CEA010147FA0AF739408CEA35
:10364000010C03F80EC0D5E780EA0120082341F2FF
:10365000210201B2013B4000002980B2B8BF5040B6
:1036600013F0FF03F5D1704738B50C468D18A5420D
:1036700000D138BD14F8011BFFF7E6FFF7E70000A3
:1036800042684AB1136881894360438901339BB220
:103690009942438138BF83811046704770B588B026
:1036A000044620220D4668460021FEF777F92046A1
:1036B0000495FFF7E5FF024660B16B46054608AE8C
:1036C0001C46083503CCB44245F8080C45F8041CE8
:1036D0002346F5D1104608B070BD0000082817D960
:1036E00009280CD00A280CD00B280CD00C280CD0A0
:1036F0000D280CD00E2814BF4020302070470C201D
:103700007047102070471420704718207047202001
:1037100070470000082817D90C280CD910280CD99C
:1037200014280CD918280CD920280CD930288CBF83
:103730000F200E207047092070470A2070470B2089
:1037400070470C2070470D20704700002DE9F843AA
:10375000078C0446072F1ED900254FF6FF73D0E9CA
:103760000298C5F12006A5F1200029FA05F10835D7
:1037700008FA06F628FA00F0314301431846C9B2A8
:10378000FFF762FF402D0346EBD13A46E169BDE801
:10379000F843FFF769BF4FF6FF70BDE8F8830000FC
:1037A00010B54B6823B9CA8A63F30902CA8210BDF7
:1037B00004691A681C600361C38A013BC3824A60C2
:1037C000EFE700002DE9F84F1D46CB8A0F468146F2
:1037D000C3F30901924605290B4630D00020AAB256
:1037E00007F11A049EB21FFA80F8042E0FD89045F4
:1037F00003F1010306D30A44FB8A62F309030120A3
:10380000FB821AE01AF800600130E654EAE79045BE
:10381000F1D2A1F1050B1C237C68BBFBF3F203FB87
:1038200012BB1FFA8BF6002C45D14846FFF728FF44
:10383000044638B978606FF00200BDE8F88F4FF0A9
:103840000008E6E7002606607860ADB24FF0000B96
:10385000454510D90AEB0803221D13F8011B08F196
:1038600001089155B1B21FFA88F81B292BD04545A4
:1038700006F10106F1D8FB8AC3F30902154465F38A
:103880000903BCE701321C4692B22368002BF9D130
:103890006B1F0B441C21B3FBF1F301339BB29A4223
:1038A000D3D2BBF1000FD0D14846FFF7E9FE20B9D3
:1038B000C4F800B0BFE70122E7E7C0F800B05E46F9
:1038C00020600446C1E74545D5D94846FFF7D8FEF4
:1038D00008B92060AFE7C0F800B0002620600446B9
:1038E000B6E700002DE9F04F1C46074688462DED4F
:1038F000028B83B05B690192002B00F0A780238CC0
:103900002BB1E269002A00F0A180072B35D807F11E
:103910000C00FFF7B5FE054638B96FF002052846E2
:1039200003B0BDEC028BBDE8F08F14220021FEF73E
:1039300035F8228CE16905F10800FEF709F8208CC2
:1039400048F00041013080B2FFF7E4FEFFF7C6FE09
:10395000013880B220840130287438466369228C93
:103960001B782A4403F01F0363F03F03137269605E
:103970002946FFF7EFFD0125D1E702330722C18A6F
:103980009BB20633B3FBF2F3828A9BB2521A92B215
:103990009342C2D84FF0000900F10C034FF0800AA7
:1039A0004E464D4608EE103A18EE100AFFF768FE34
:1039B00083460028B1D014220021FDF7EFFF002E2E
:1039C0003AD1019B0222ABF808300BF1080E1FFA26
:1039D00082FC218C0CF10100BCF1060F80B201D8F1
:1039E0008E422BD3FFF796FE8E4208BF4FF0400A5F
:1039F000FFF774FE62690138013512781BFA80F115
:103A0000013002F01F022DB242EA491289F0010989
:103A10004AEA020A48F0004281F808A059468BF8A9
:103A200010003846CBF804204FF0000AFFF792FD53
:103A3000238CB342B8D172E70022C6E7E169895D01
:103A400001360EF80210B6B20132C0E76FF0010580
:103A500065E70000F8B515460E4630220021044601
:103A60001F46FDF79BFF069BB5F5001FA76063602F
:103A700004F11000079B34BF6A094FF6FF72E6613C
:103A8000A362002397B29A4206D800230360A7825C
:103A9000E3822383E360F8BD0660013330462036BD
:103AA000F1E7000003781BB94BB2002BC8BF0170CF
:103AB0007047000000787047F8B50C46C9690746A2
:103AC00011B9238C002B37D1257E1F2D34D838789F
:103AD00028BB228C072A2CD8268A36F003032BD148
:103AE0004FF6FF70FFF7C0FD20F0010031024FF6E6
:103AF000FF72400441EA0561400C41EA402523463B
:103B000029463846FFF7EEFE002807DD6269137884
:103B10000133DBB21F2B88BF00231370F8BD218A4D
:103B20002D0645EA012505432046FFF70FFE024614
:103B3000E5E76FF00300F1E76FF00100EEE700004A
:103B400070B58AB0044616460021282268461D46F4
:103B5000FDF724FFBDF8383069462046ADF8103037
:103B60000F9B05939DF840308DF81830119B0793FB
:103B7000BDF84830CDE90265ADF82030FFF79CFF75
:103B80000AB070BD2DE9F041D36905460C461646D2
:103B90000BB9138C5BBB377E1F2F28D895F800809C
:103BA000B8F1000F26D03046FFF7D0FD3378210260
:103BB0000246284641EAC331338A41EA080141EA14
:103BC000076141EA0341334641F08001FFF78AFE75
:103BD00000280ADD3378012B07D17269137801338D
:103BE000DBB21F2B88BF00231370BDE8F0816FF09C
:103BF0000100FAE76FF00300F7E70000F0B58BB0C3
:103C000004460D4617460021282268461E46FDF749
:103C1000C5FE9DF84C30294620465A1E534253415A
:103C20006A468DF800309DF84030ADF81030119B99
:103C300005939DF848308DF81830149B0793BDF814
:103C40005430CDE90276ADF82030FFF79BFF0BB082
:103C5000F0BD0000406A00B104307047436A1A6842
:103C6000426202691A600361C38A013BC3827047E2
:103C70002DE9F041D0F8208014461D46184E4146EB
:103C8000002709B9BDE8F081D1E90223A21A65EB4A
:103C90000303964277EB03031ED2036A8B420DD1D6
:103CA000FFF77EFD036A1B68036203690B60C38A2A
:103CB0000161013B016AC3828846E2E7FFF770FDBC
:103CC0000B68C8F8003003690B60C38A0161013BCF
:103CD000C382D8F80010D4E788460968D1E700BF4E
:103CE00080841E002DE9F04F8BB00D4614469B4694
:103CF000DDF850908046002800F01881B9F1000FDF
:103D000000F01481531E3F2B00F21081012A03D1D1
:103D1000BBF1000F40F00A810023CDE90833B8F869
:103D20001430B5EBC30F4FEAC30703D300200BB029
:103D3000BDE8F08F2B199F42D8F80C3036BF7F1B9F
:103D40002746FFB21BB9D8F81030002B7AD0272DA8
:103D50004DD8C5F1280600232946B742009308AB89
:103D6000D8F808002CBFF6B23E46A7EB060A354449
:103D700032465FFA8AFAFFF72FFCB8F81430282190
:103D800003F10053053BDB000493D8F80C30039398
:103D9000039B13B1BAF1000F2CD1D8F8100040B139
:103DA000BAF1000F05D008AB5246691A0096FFF72A
:103DB00013FC38B2002FB9D066070AD00AAB6242B2
:103DC00003EBD40102F0070211F8083C134101F89B
:103DD000083C082C3DD9102C40F2B580202C40F234
:103DE000B780BBF1000F00F09C80082335E0BA4695
:103DF0000026C2E7049BE02B28BFE02306930B4478
:103E0000AB42059315D95A1B0398691A009692453F
:103E100008AB00F1040034BF5246D2B20792FFF75C
:103E2000DBFB079A1644AAEB020A1544F6B25FFAC6
:103E30008AFA049B069A05999B1A0493039B1B68B4
:103E40000393A5E700933A4608AB2946D8F8080043
:103E5000ADE7BBF1000F13D00123B4EBC30F6BD060
:103E6000082C12D89DF82030621E23FA02F2D507E2
:103E700006D54FF0FF3202FA04F423438DF82030C8
:103E80009DF8203089F8003051E7102C12D8BDF889
:103E90002030621E23FA02F2D10706D54FF0FF321E
:103EA00002FA04F42343ADF82030BDF82030A9F81D
:103EB00000303CE7202C0FD80899631E21FA03F349
:103EC000DA0705D54FF0FF3202FA04F40C430894E8
:103ED000089BC9F800302AE7402C2AD0611EC4F1A3
:103EE0002102A4F12103DDE9086526FA01F105FAB2
:103EF00002F225FA03F311431943CB0711D501222E
:103F0000A4F12003C4F1200102FA03F322FA01F123
:103F1000A2400B43524263EB430332432B43CDE9B0
:103F20000823DDE90823C9E9002300E76FF0010059
:103F3000FDE66FF00800FAE6082CA1D9102CB4D9E0
:103F4000202CEED8C4E7BBF1000FAED0022384E7EB
:103F5000BBF1000FBCD004237FE70000012A30B57D
:103F6000144638BF012485B00025402C28BF4024CA
:103F7000012ACDE9025518D81B788DF8083063075F
:103F80000AD004AB624203EBD40502F0070215F835
:103F9000083C934005F8083C034600912246002166
:103FA00002A8FFF719FB05B030BD082AE4D9102A92
:103FB00003D81B88ADF80830E1E7202A95BF1B68BD
:103FC000D3E900230293CDE90223D8E710B5CB68EB
:103FD0001BB98B600B618B8210BD04691A681C6071
:103FE0000361C38A013BC382CA60F0E703064CBF8A
:103FF000C0F3C0300220704708B50246FFF7F6FF55
:10400000022806D15306C2F30F2001D100F00300AD
:1040100008BDC2F30740FBE72DE9F04F93B004461B
:104020000D46CDE903230A681046FFF7DFFF02289B
:10403000824614BFC2F306260026002A80F2F881C9
:1040400012F0C04940F0F481097B002900F0F081B2
:10405000022803D02378B34240F0ED81C2F3046319
:1040600010462944069302F07F030593FFF7C4FF2F
:10407000059B002283464FEA8348002348EA0A480A
:1040800048EA4668CE78CDE90823F30948EA0008F3
:10409000029368D0059B024608A920460093534628
:1040A0006768B847002800F0C981276A4FB94146C0
:1040B00004F10C00FFF7F2FA074690B96FF0020026
:1040C00055E03B6998450DD03F68002FF9D1414636
:1040D00004F10C00FFF7E2FA07460028EED0236A4D
:1040E0003B60276297F817C006F01F08CCF3840CDA
:1040F000ACEB0800A8EB0C031FFA80FE0028B8BF49
:104100000EF120001FFA83FEB8BF00B2002B079308
:10411000B8BF0EF12003D7E90221BCBF1BB2079341
:1041200052EA010338D0039B4FF0000CDFF81CE388
:104130009A1A049B63EB010196457CEB01032BD398
:104140006B7B97F81AE0734519D1029B002B78D04E
:10415000012821DC7868F8B9DFF8ECC2944570EBEF
:10416000010316D337E0276A27B96FF00C0013B0AC
:10417000BDE8F08F3B699845B4D03F68F4E7B2489A
:1041800090427CEB010301D30020F0E7029B002B5F
:10419000FAD0079B0F2B17DCFA7DB3003946204677
:1041A00002F0030203F07C031343FB75FFF7F8FAF8
:1041B0006B7BBB76029B3BB9FB7DC3F38402013270
:1041C00062F38603FB75D0E76A7BBB7E9A42DBD144
:1041D000029B002B35D0B309022B32D0039B142253
:1041E00000210DA8BB60049BFB60FDF7D7FB039B80
:1041F0000AA920460A93049BADF83EB00B932B1DF1
:104200008DF840A00C932B7B8DF84180013BDBB2F5
:10421000ADF83C30069B8DF84230059B8DF843305D
:1042200094F82C3083F001038DF84430A36898474C
:10423000FB7DC3F38403013303F01F039B02FB8266
:10424000A2E7FB7DC6F34012B2EBD31F40F0F9802A
:10425000C3F38403434540F0FB80029AB6092B7BED
:10426000002A52D016F0010661D1032B40F2F380F0
:10427000039B394604F10C00BB60049BFB60FB8A86
:1042800066F30903AE1DFB8232462B7B033BDBB298
:10429000FFF798FA00280CDA39462046FFF780FA33
:1042A000FB7DC3F38403013303F01F039B02FB82F6
:1042B00004E7AB88DDE908843B834FF6FF73C9F15F
:1042C0002000A9F1200228FA09F109F1080904FAED
:1042D00000F024FA02F2014318461143C9B2FFF775
:1042E000B3F9B9F1400F0346E9D1B88231462A7BD0
:1042F000033AD2B2FFF7B8F9FB7DB882DA43C2F3D2
:10430000C01262F3C713FB753EE786B92E1D013B51
:10431000394604F10C00DBB23246FFF753FA0028AD
:10432000BADB2A7B3146B88A013AD2B2E2E7F98A8F
:10433000013BC1F30901DAB204295BD8281D00232F
:1043400007F11B069A4208D910F801CB013306F891
:1043500001C00131DBB20529F4D1039993420A91DE
:1043600038BF043304992CBF002355FA83F30B9113
:1043700007F11B010C9179680E930D91291DFB8AA1
:10438000ADF83EB0C3F309038DF840A08DF841802D
:104390001A44069B8DF84230059BADF83C208DF801
:1043A000433094F82C3083F001038DF8443000231F
:1043B000B88A7B602A7B013AFFF756F93B8BB882BB
:1043C000834203D1A3680AA92046984720460AA938
:1043D000FFF7FCFDFB7DBA8AC3F38403013303F0CE
:1043E0001F039B02FB823B8B9A420CBF00206FF0A5
:1043F0001000BCE67B68002BAFD0052001E01C302C
:1044000033461E68002EFAD1091A2E1D081D1844C5
:1044100001EB090C5FFA89F3BCF11B0F9DD89A429E
:104420009BD916F8013B09F1010900F8013BEFE7C0
:104430006FF009009BE66FF00A0098E66FF00B0042
:1044400095E66FF00D0092E640420F0080841E005A
:104450006FF00E008BE66FF00F0088E6EFF3098334
:10446000054968334A6B22F001024A6383F30988E5
:10447000002383F31188704700EF00E0302080F3C1
:10448000118862B60D4B0E4AD96821F4E061090427
:10449000090C0A430B49DA60D3F8FC2042F0807221
:1044A000C3F8FC20084AC2F8B01F116841F00101AE
:1044B00011602022DA7783F82200704700ED00E0D7
:1044C0000003FA0555CEACC5001000E0302310B54E
:1044D00083F311880E4B5B6813F4006314D0F1EE84
:1044E000103AEFF309844FF08073683CE361094BA5
:1044F000DB6B236684F3098801F0F8F910B1064BF1
:10450000A36110BD054BFBE783F31188F9E700BFFA
:1045100000ED00E000EF00E03F0400084204000866
:1045200008B5074B074A196801F03D0199605368C7
:104530000BB190689847BDE80840FFF7C7BF00BFC0
:1045400000000240404F002008B5084B1968890957
:1045500001F03D018A019A60054AD3680BB11069E8
:104560009847BDE80840FFF7B1BF00BF0000024018
:10457000404F002008B5084B1968090C01F03D01B7
:104580000A049A60054A53690BB190699847BDE8DF
:104590000840FFF79BBF00BF00000240404F0020D3
:1045A00008B5084B1968890D01F03D018A059A602C
:1045B000054AD3690BB1106A9847BDE80840FFF778
:1045C00085BF00BF00000240404F002008B5074BE8
:1045D000074A596801F03D01D960536A0BB1906AEE
:1045E0009847BDE80840FFF771BF00BF00000240D8
:1045F000404F002008B5084B5968890901F03D017A
:104600008A01DA60054AD36A0BB1106B9847BDE89E
:104610000840FFF75BBF00BF00000240404F002092
:1046200008B5084B5968090C01F03D010A04DA602D
:10463000054A536B0BB1906B9847BDE80840FFF7F4
:1046400045BF00BF00000240404F002008B5084BA6
:104650005968890D01F03D018A05DA60054AD36B7E
:104660000BB1106C9847BDE80840FFF72FBF00BFA3
:1046700000000240404F002008B5074B074A196868
:1046800001F03D019960536C0BB1906C9847BDE807
:104690000840FFF71BBF00BF00040240404F00204E
:1046A00008B5084B1968890901F03D018A019A6033
:1046B000054AD36C0BB1106D9847BDE80840FFF771
:1046C00005BF00BF00040240404F002008B5084B62
:1046D0001968090C01F03D010A049A60054A536DFE
:1046E0000BB1906D9847BDE80840FFF7EFBE00BFE3
:1046F00000040240404F002008B5084B1968890D9E
:1047000001F03D018A059A60054AD36D0BB1106E28
:104710009847BDE80840FFF7D9BE00BF000402403B
:10472000404F002008B5074B074A596801F03D018A
:10473000D960536E0BB1906E9847BDE80840FFF703
:10474000C5BE00BF00040240404F002008B5084B22
:104750005968890901F03D018A01DA60054AD36E82
:104760000BB1106F9847BDE80840FFF7AFBE00BF20
:1047700000040240404F002008B5084B5968090C5E
:1047800001F03D010A04DA60054A536F0BB1906FE6
:104790009847BDE80840FFF799BE00BF00040240FB
:1047A000404F002008B5084B5968890D01F03D01C4
:1047B0008A05DA60054AD36F13B1D2F880009847B2
:1047C000BDE80840FFF782BE00040240404F0020D1
:1047D00000230C4910B51A460B4C0B6054F823000B
:1047E000026001EB430004334260402BF6D1074ADC
:1047F0004FF0FF339360D360C2F80834C2F80C3432
:1048000010BD00BF404F002008810008000002409A
:104810000F28F8B510D9102810D0112811D012285F
:1048200008D10F240720DFF8B4E00126DEF800509D
:10483000A04208D9002649E00446F4E70F240020EE
:10484000F1E70724FBE706FA00F73D4240D1214C8F
:104850004FEA001C3D4304EB00160EEBC000CEF8FF
:104860000050C0E90123FBB24BB11B48836B43F0FE
:1048700001038363036E43F001030366036E17F4C1
:104880007F4F09D01448836B43F002038363036EA8
:1048900043F002030366036E54F80C00036823F030
:1048A0001F030360056815F00105FBD104EB0C0341
:1048B0003D2493F80CC05F6804FA0CF43C6021249A
:1048C0000560446112B1987B00F056F93046F8BD9E
:1048D0000130ADE70881000800450258404F002034
:1048E00010B5302484F31188FFF792FF002383F37F
:1048F000118810BD10B50446807B00F053F90123E8
:104900001049627B03FA02F20B6823EA0203DAB26F
:104910000B604AB90C4A916B21F001019163116E51
:1049200021F001011166126E13F47F4F09D1064B7D
:104930009A6B22F002029A631A6E22F002021A6641
:104940001B6E10BD404F00200045025808B53023B3
:1049500083F31188FFF7CEFF002383F3118808BD8E
:10496000026843681143016003B1184770470000B3
:10497000024A136843F0C003136070470078004098
:1049800013B50E4C204600F0B7FA04F114000023D2
:104990004FF400720A49009400F074F9094B4FF487
:1049A0000072094904F13800009400F0EDF9074A5B
:1049B000074BC4E9172302B010BD00BFC44F00204D
:1049C000305000207149000830520020007800402B
:1049D00000E1F505037C30B5214C002918BF0C46D9
:1049E000012B0CD11F4B984209D11F4B9A6C42F0FE
:1049F00080429A641A6F42F080421A671B6F2268E5
:104A0000036EC16D03EB52038466B3FBF2F362687D
:104A1000150442BF23F0070503F0070343EA4503EB
:104A2000CB60A36843F040034B60E36843F00103AD
:104A30008B6042F4967343F001030B604FF0FF3339
:104A40000B62510505D512F0102205D0B2F1805F3E
:104A500004D080F8643030BD7F23FAE73F23F8E7C5
:104A600008820008C44F0020004502582DE9F04795
:104A7000C66D05463768F469210734621AD014F010
:104A8000080118BF4FF48071E20748BF41F02001D0
:104A9000A3074FF0300348BF41F04001600748BF13
:104AA00041F0800183F31188281DFFF759FF00238F
:104AB00083F31188E2050AD5302383F311884FF47C
:104AC0008061281DFFF74CFF002383F311884FF00E
:104AD00030094FF0000A14F0200838D13B0616D5F3
:104AE0004FF0300905F1380A200610D589F31188F6
:104AF000504600F07DF9002836DA0821281DFFF71E
:104B00002FFF27F080033360002383F31188790699
:104B100014D5620612D5302383F31188D5E9132307
:104B20009A4208D12B6C33B127F040071021281D81
:104B3000FFF716FF3760002383F31188E30618D5CB
:104B4000AA6E1369ABB15069BDE8F047184789F305
:104B50001188736A284695F86410194000F0E6F948
:104B60008AF31188F469B6E7B06288F31188F469B2
:104B7000BAE7BDE8F0870000090100F160430122B7
:104B800003F56143C9B283F8001300F01F039A4094
:104B900043099B0003F1604303F56143C3F880219F
:104BA0001A60704700F01F0301229A40430900F188
:104BB00060409B0000F5614003F1604303F56143F1
:104BC000C3F88020C3F88021002380F800337047A9
:104BD000F8B51546826804460B46AA4200D285689D
:104BE000A1692669761AB5420BD218462A46FCF707
:104BF000AFFEA3692B44A3612846A3685B1BA36097
:104C0000F8BD0CD9AF1B18463246FCF7A1FE3A4658
:104C1000E1683044FCF79CFEE3683B44EBE7184650
:104C20002A46FCF795FEE368E5E7000083689342B7
:104C3000F7B50446154600D28568D4E90460361AF3
:104C4000B5420BD22A46FCF783FE63692B446361AD
:104C50002846A3685B1BA36003B0F0BD0DD93246A4
:104C6000AF1B0191FCF774FE01993A46E0683144AC
:104C7000FCF76EFEE3683B44E9E72A46FCF768FE72
:104C8000E368E4E710B50A440024C361029B846032
:104C9000C16002610362C0E90000C0E9051110BDF6
:104CA00008B5D0E90532934201D1826882B98268A1
:104CB000013282605A1C426119700021D0E904322D
:104CC0009A4224BFC368436100F0C0FE002008BDC3
:104CD0004FF0FF30FBE7000070B5302304460E466E
:104CE00083F31188A568A5B1A368A269013BA360FD
:104CF000531CA36115782269934224BFE368A36122
:104D0000E3690BB120469847002383F311882846B6
:104D100007E03146204600F089FE0028E2DA85F3FC
:104D2000118870BD2DE9F74F04460E461746984688
:104D3000D0F81C904FF0300A8AF311884FF0000B26
:104D4000154665B12A4631462046FFF741FF034626
:104D500060B94146204600F069FE0028F1D00023EA
:104D600083F31188781B03B0BDE8F08FB9F1000F11
:104D700003D001902046C847019B8BF31188ED1AA0
:104D80001E448AF31188DCE7C160C361009B826026
:104D90000362C0E905111144C0E9000001617047D8
:104DA000F8B504460D461646302383F31188A768EC
:104DB000A7B1A368013BA36063695A1C62611D70BF
:104DC000D4E904329A4224BFE3686361E3690BB11A
:104DD00020469847002080F3118807E0314620469E
:104DE00000F024FE0028E2DA87F31188F8BD000005
:104DF000D0E9052310B59A4201D182687AB9826858
:104E00000021013282605A1C82611C7803699A4237
:104E100024BFC368836100F019FE204610BD4FF027
:104E2000FF30FBE72DE9F74F04460E46174698463C
:104E3000D0F81C904FF0300A8AF311884FF0000B25
:104E4000154665B12A4631462046FFF7EFFE034678
:104E500060B94146204600F0E9FD0028F1D000236A
:104E600083F31188781B03B0BDE8F08FB9F1000F10
:104E700003D001902046C847019B8BF31188ED1A9F
:104E80001E448AF31188DCE702684368114301601D
:104E900003B11847704700001430FFF743BF00000C
:104EA0004FF0FF331430FFF73DBF00003830FFF7FD
:104EB000B9BF00004FF0FF333830FFF7B3BF000039
:104EC0001430FFF709BF00004FF0FF311430FFF737
:104ED00003BF00003830FFF763BF00004FF0FF3220
:104EE0003830FFF75DBF0000012914BF6FF01300D9
:104EF00000207047FFF744BD044B0360002343606C
:104F0000C0E9023301230374704700BF2082000808
:104F100010B53023044683F31188FFF75BFD0223AD
:104F20000020237480F3118810BD000038B5C369D8
:104F300004460D461BB904210844FFF7A5FF294686
:104F400004F11400FFF7ACFE002806DA201D4FF430
:104F50000061BDE83840FFF797BF38BD026843687D
:104F60001143016003B118477047000013B5406B4F
:104F700000F58054D4F8A4381A681178042914D1A3
:104F8000017C022911D11979012312898B40134226
:104F90000BD101A94C3002F0F3F9D4F8A448024631
:104FA000019B2179206800F0DFF902B010BD0000FC
:104FB000143002F075B900004FF0FF33143002F0E6
:104FC0006FB900004C3002F047BA00004FF0FF33D9
:104FD0004C3002F041BA0000143002F043B9000036
:104FE0004FF0FF31143002F03DB900004C3002F0B8
:104FF00013BA00004FF0FF324C3002F00DBA00003F
:105000000020704710B500F58054D4F8A4381A6811
:105010001178042917D1017C022914D1597901236F
:1050200052898B4013420ED1143002F0D5F802465B
:1050300048B1D4F8A4484FF4407361792068BDE8C2
:10504000104000F07FB910BD406BFFF7DBBF0000E0
:10505000704700007FB5124B01250426044603600B
:105060000023057400F1840243602946C0E902333D
:105070000C4B0290143001934FF44073009602F0F1
:1050800087F8094B04F69442294604F14C00029437
:10509000CDE900634FF4407302F04EF904B070BDE7
:1050A00048820008495000086D4F00080A68302304
:1050B00083F311880B790B3342F823004B791333B8
:1050C00042F823008B7913B10B3342F8230000F52B
:1050D0008053C3F8A41802230374002080F31188BE
:1050E0007047000038B5037F044613B190F8543080
:1050F000ABB90125201D0221FFF730FF04F1140098
:105100006FF00101257700F0ADFC04F14C0084F84C
:1051100054506FF00101BDE8384000F0A3BC38BD29
:1051200010B5012104460430FFF718FF0023237750
:1051300084F8543010BD000038B504460025143002
:1051400002F03EF804F14C00257702F00DF9201D25
:1051500084F854500121FFF701FF2046BDE8384094
:10516000FFF750BF90F8803003F06003202B06D18A
:1051700090F881200023212A03D81F2A06D8002076
:105180007047222AFBD1C0E91D3303E0034A42677E
:1051900007228267C3670120704700BF3C230020BD
:1051A00037B500F58055D5F8A4381A681178042968
:1051B0001AD1017C022917D11979012312898B4058
:1051C000134211D100F14C04204602F08DF958B180
:1051D00001A9204602F0D4F8D5F8A4480246019B64
:1051E0002179206800F0C0F803B030BD01F10B0355
:1051F000F0B550F8236085B004460D46FEB130236B
:1052000083F3118804EB8507301D0821FFF7A6FE04
:10521000FB6806F14C005B691B681BB1019002F052
:10522000BDF8019803A902F0ABF8024648B1039B10
:105230002946204600F098F8002383F3118805B032
:10524000F0BDFB685A691268002AF5D01B8A013B41
:105250001340F1D104F18002EAE70000133138B5C0
:1052600050F82140ECB1302383F3118804F58053CA
:10527000D3F8A4281368527903EB8203DB689B6997
:105280005D6845B104216018FFF768FE294604F106
:10529000140001F0ABFF2046FFF7B4FE002383F3B8
:1052A000118838BD7047000001F07EBA012340220A
:1052B000002110B5044600F8303BFCF76FFB0023DB
:1052C000C4E9013310BD000010B53023044683F358
:1052D00011882422416000210C30FCF75FFB20463E
:1052E00001F084FA02230020237080F3118810BD9E
:1052F00070B500EB8103054650690E461446DA602E
:1053000018B110220021FCF749FBA06918B1102246
:105310000021FCF743FB31462846BDE8704001F010
:1053200065BB000083682022002103F0011310B543
:10533000044683601030FCF731FB2046BDE8104086
:1053400001F0E0BBF0B4012500EB810447898D40FA
:10535000E4683D43A469458123600023A260636043
:10536000F0BC01F0FDBB0000F0B4012500EB8104AE
:1053700007898D40E4683D4364690581236000230B
:10538000A2606360F0BC01F073BC000070B5022342
:1053900000250446242203702946C0F888500C30AA
:1053A00040F8045CFCF7FAFA204684F8705001F0EB
:1053B000B1FA63681B6823B129462046BDE87040F6
:1053C000184770BD0378052B10B504460AD080F845
:1053D0008C300523037043681B680BB10421984788
:1053E0000023A36010BD00000178052906D190F8C4
:1053F0008C20436802701B6803B118477047000097
:1054000070B590F87030044613B1002380F8703006
:1054100004F18002204601F099FB63689B68B3B9F0
:1054200094F8803013F0600535D00021204601F05B
:105430008BFE0021204601F07BFE63681B6813B1E0
:10544000062120469847062384F8703070BD204618
:1054500098470028E4D0B4F88630A26F9A4288BFFB
:10546000A36794F98030A56F002B4FF0300380F2D2
:105470000381002D00F0F280092284F8702083F36C
:10548000118800212046D4E91D23FFF76DFF00237A
:1054900083F31188DAE794F8812003F07F0343EA6D
:1054A000022340F20232934200F0C58021D8B3F5C6
:1054B000807F48D00DD8012B3FD0022B00F0938085
:1054C000002BB2D104F1880262670222A267E3676F
:1054D000C1E7B3F5817F00F09B80B3F5407FA4D195
:1054E00094F88230012BA0D1B4F8883043F0020345
:1054F00032E0B3F5006F4DD017D8B3F5A06F31D0BF
:10550000A3F5C063012B90D86368204694F88220ED
:105510005E6894F88310B4F88430B047002884D0D3
:10552000436863670368A3671AE0B3F5106F36D06A
:1055300040F6024293427FF478AF5C4B63670223EC
:10554000A3670023C3E794F88230012B7FF46DAF8B
:10555000B4F8883023F00203A4F88830C4E91D555C
:10556000E56778E7B4F88030B3F5A06F0ED194F812
:105570008230204684F88A3001F02AFA63681B687A
:1055800013B1012120469847032323700023C4E967
:105590001D339CE704F18B0363670123C3E7237882
:1055A000042B10D1302383F311882046FFF7BAFE75
:1055B00085F311880321636884F88B5021701B6880
:1055C0000BB12046984794F88230002BDED084F847
:1055D0008B300423237063681B68002BD6D0022114
:1055E00020469847D2E794F8843020461D0603F001
:1055F0000F010AD501F09CFA012804D002287FF49B
:1056000014AF2B4B9AE72B4B98E701F083FAF3E7A3
:1056100094F88230002B7FF408AF94F8843013F0B4
:105620000F01B3D01A06204602D501F0A5FDADE763
:1056300001F096FDAAE794F88230002B7FF4F5AED6
:1056400094F8843013F00F01A0D01B06204602D539
:1056500001F07AFD9AE701F06BFD97E7142284F8D8
:10566000702083F311882B462A4629462046FFF7EF
:1056700069FE85F31188E9E65DB1152284F8702092
:1056800083F3118800212046D4E91D23FFF75AFE39
:10569000FDE60B2284F8702083F311882B462A46FE
:1056A00029462046FFF760FEE3E700BF7882000846
:1056B000708200087482000838B590F87030044693
:1056C000002B3ED0063BDAB20F2A34D80F2B32D84B
:1056D000DFE803F0373131082232313131313131F5
:1056E00031313737856FB0F886309D4214D2C368A8
:1056F0001B8AB5FBF3F203FB12556DB9302383F31C
:1057000011882B462A462946FFF72EFE85F311887D
:105710000A2384F870300EE0142384F870303023AC
:1057200083F31188002320461A461946FFF70AFE24
:10573000002383F3118838BDC36F03B1984700235A
:10574000E7E70021204601F0FFFC0021204601F0A0
:10575000EFFC63681B6813B10621204698470623B7
:10576000D7E7000010B590F870300446142B29D00C
:1057700017D8062B05D001D81BB110BD093B022B51
:10578000FBD80021204601F0DFFC0021204601F07B
:10579000CFFC63681B6813B1062120469847062397
:1057A00019E0152BE9D10B2380F87030302383F3F7
:1057B000118800231A461946FFF7D6FD002383F30C
:1057C0001188DAE7C3689B695B68002BD5D1C36F8A
:1057D00003B19847002384F87030CEE70023826835
:1057E000037503691B6899689142FBD25A6803608C
:1057F0004260106058607047002382680375036937
:105800001B6899689142FBD85A6803604260106037
:105810005860704708B50846302383F311880A7D25
:105820000023052A06D8DFE802F00B050503120E57
:10583000826913604FF0FF338361FFF7CFFF0023CE
:1058400083F3118808BD8269936801339360D0E9BE
:10585000003213605A60EDE7FFF7C0BF054BD9680F
:1058600008751868026853601A600122D8600275D2
:10587000FAF7D0BD305400200C4B30B5DD684B1C1E
:1058800087B004460FD02B46094A684600F07EF9DF
:105890002046FFF7E3FF009B13B1684600F080F954
:1058A000A86907B030BDFFF7D9FFF9E730540020F1
:1058B0001558000838B50C4D04468161EB688168C5
:1058C0009A68914203D8BDE83840FFF787BF184671
:1058D000FFF792FF01230146EC6020462375BDE8E7
:1058E0003840FAF797BD00BF30540020044B1A68C7
:1058F000DB6890689B68984294BF00200120704745
:1059000030540020084B10B51C68D86822685360DA
:105910001A600122DC602275FFF76EFF0146204607
:10592000BDE81040FAF776BD3054002038B50123A9
:10593000084C00252370656001F012FE01F038FE6E
:105940000549064801F00CFF0223237085F31188F6
:1059500038BD00BF985600208082000830540020D7
:1059600008B572B6044B186500F022FD00F0E4FDA6
:10597000024B03221A70FEE7305400209856002094
:1059800000F044B9034A516853685B1A9842FBD847
:10599000704700BF001000E08B60022308610846DA
:1059A0008B8270478368A3F1840243F8142C026948
:1059B00043F8442C426943F8402C094A43F8242C0C
:1059C000C268A3F1200043F8182C022203F80C2C23
:1059D000002203F80B2C034A43F8102C704700BF39
:1059E0002D0400083054002008B5FFF7DBFFBDE8A8
:1059F0000840FFF731BF0000024BDB6898610F20C1
:105A0000FFF72CBF30540020302383F31188FFF7B9
:105A1000F3BF000008B50146302383F31188082046
:105A2000FFF72AFF002383F3118808BD064BDB68CC
:105A300039B1426818605A60136043600420FFF770
:105A40001BBF4FF0FF30704730540020036898426E
:105A500006D01A680260506018469961FFF7FCBED4
:105A60007047000038B504460D462068844200D1D6
:105A700038BD036823605C608561FFF7EDFEF4E7E5
:105A8000036810B59C68A2420CD85C688A600B6001
:105A90004C602160596099688A1A9A604FF0FF3310
:105AA000836010BD121B1B68ECE700000A2938BF99
:105AB0000A2170B504460D460A26601901F04AFD18
:105AC00001F032FD041BA54203D8751C04462E4686
:105AD000F3E70A2E04D90120BDE8704001F080BE32
:105AE00070BD0000F8B5144B0D460A2A4FF00A07A6
:105AF000D96103F11001826038BF0A22416019693F
:105B00001446016048601861A81801F013FD01F007
:105B10000BFD431B0646A34206D37C1C28192746CF
:105B2000354601F017FDF2E70A2F04D90120BDE840
:105B3000F84001F055BEF8BD30540020F8B50646D7
:105B40000D4601F0F1FC0F4A134653F8107F9F42B7
:105B500006D12A4601463046BDE8F840FFF7C2BFED
:105B6000D169BB68441A2C1928BF2C46A34202D91C
:105B70002946FFF79BFF224631460348BDE8F8401F
:105B8000FFF77EBF3054002040540020C0E90323BB
:105B9000002310B45DF8044B4361FFF7CFBF000052
:105BA00010B5194C236998420DD08168D0E90032B4
:105BB00013605A609A680A449A60002303604FF0A9
:105BC000FF33A36110BD0268234643F8102F5360D2
:105BD0000022026022699A4203D1BDE8104001F020
:105BE000B3BC936881680B44936001F09DFC22690B
:105BF000E1699268441AA242E4D91144BDE8104018
:105C0000091AFFF753BF00BF305400202DE9F047B9
:105C1000DFF8BC8008F110072C4ED8F8105001F0C6
:105C200083FCD8F81C40AA68031B9A423ED814444F
:105C30004FF00009D5E90032C8F81C4013605A60E3
:105C4000C5F80090D8F81030B34201D101F07CFCC7
:105C500089F31188D5E9033128469847302383F327
:105C600011886B69002BD8D001F05EFC6A69A0EB4B
:105C7000040982464A450DD2022001F0B1FD0022FE
:105C8000D8F81030B34208D151462846BDE8F04755
:105C9000FFF728BF121A2244F2E712EB090929463E
:105CA000384638BF4A46FFF7EBFEB5E7D8F8103064
:105CB000B34208D01444C8F81C00211AA960BDE8FA
:105CC000F047FFF7F3BEBDE8F08700BF4054002067
:105CD0003054002038B501F027FC054AD2E90845C8
:105CE000031B181945F10001C2E9080138BD00BFC6
:105CF0003054002000207047FEE70000704700008D
:105D00004FF0FF307047000002290CD0032904D067
:105D10000129074818BF00207047032A05D8054805
:105D200000EBC2007047044870470020704700BF76
:105D3000588300084C2300200C83000870B59AB0EB
:105D400005460846144601A900F0C2F801A8FBF771
:105D50001DFE431C0022C6B25B001046C5E900349C
:105D600023700323023404F8013C01ABD1B20234A6
:105D70008E4201D81AB070BD13F8011B013204F82D
:105D8000010C04F8021CF1E708B5302383F31188F5
:105D90000348FFF705FA002383F3118808BD00BF0D
:105DA000A056002090F8803003F01F02012A07D18E
:105DB00090F881200B2A03D10023C0E91D3315E0A0
:105DC00003F06003202B08D1B0F884302BB990F891
:105DD0008120212A03D81F2A04D8FFF7C3B9222A19
:105DE000EBD0FAE7034A426707228267C3670120C4
:105DF000704700BF4323002007B5052917D8DFE807
:105E000001F0191603191920302383F31188104A61
:105E100001210190FFF76CFA019802210D4AFFF76A
:105E200067FA0D48FFF788F9002383F3118803B060
:105E30005DF804FB302383F311880748FFF752F91C
:105E4000F2E7302383F311880348FFF769F9EBE7A2
:105E5000AC820008D0820008A056002038B50C4D56
:105E60000C4C2A460C4904F10800FFF767FF05F1C6
:105E7000CA0204F110000949FFF760FF05F5CA7274
:105E800004F118000649BDE83840FFF757BF00BFCE
:105E9000786F00204C2300208C8200089682000836
:105EA000A182000870B5044608460D46FBF76EFD5A
:105EB000C6B22046013403780BB9184670BD32468D
:105EC0002946FBF74FFD0028F3D10120F6E700003B
:105ED0002DE9F84F05460C46FBF758FD2A49C6B296
:105EE0002846FFF7DFFF08B10136F6B227492846FA
:105EF000FFF7D8FF08B11036F6B2632E0DD8DFF8E1
:105F00008890DFF888A0224FDFF88CB0DFF88C8013
:105F10002E7846B92670BDE8F88F29462046BDE8A0
:105F2000F84F02F063B8252E2AD1072249462846A9
:105F3000FBF718FD50B9D8F800300735083444F89D
:105F4000083CD8F8043044F8043CE1E70822514604
:105F50002846FBF707FD98B9A21C0E4B19780232B0
:105F60000909C95D02F8041C13F8011B01F00F01B7
:105F70005B45C95D02F8031CF0D118340835C7E74A
:105F8000013504F8016BC3E778830008A18200089B
:105F90008083000800E8F11F0CE8F11F0A80000868
:105FA000BFF34F8F044B1A695107FCD1D3F810216E
:105FB0005207F8D1704700BF0020005208B50D4BC2
:105FC0001B78ABB9FFF7ECFF0B4BDA68D10704D5B0
:105FD0000A4A5A6002F188325A60D3F80C21D2077B
:105FE00006D5064AC3F8042102F18832C3F8042119
:105FF00008BD00BFD6710020002000522301674574
:1060000008B5114B1B78F3B9104B1A69510703D52A
:10601000DA6842F04002DA60D3F81021520705D561
:10602000D3F80C2142F04002C3F80C21FFF7B8FF6F
:10603000064BDA6842F00102DA60D3F80C2142F034
:106040000102C3F80C2108BDD671002000200052C7
:106050000F289ABF00F580604004002070470000C0
:106060004FF4003070470000102070470F2808B52B
:106070000BD8FFF7EDFF00F500330268013204D1C1
:1060800004308342F9D1012008BD0020FCE7000064
:106090000F2838B505463FD8FFF782FF1F4CFFF7A2
:1060A0008DFF4FF0FF3307286361C4F814311DD80A
:1060B0002361FFF775FF030243F02403E360E36805
:1060C00043F08003E36023695A07FCD42846FFF7B6
:1060D00067FFFFF7BDFF4FF4003100F009FA2846D3
:1060E000FFF78EFFBDE83840FFF7C0BFC4F810319E
:1060F000FFF756FFA0F108031B0243F02403C4F886
:106100000C31D4F80C3143F08003C4F80C31D4F8CE
:1061100010315B07FBD4D9E7002038BD00200052C6
:106120002DE9F84F05460C46104645EA0203DE0607
:1061300002D00020BDE8F88F20F01F00DFF8BCB0CF
:10614000DFF8BCA0FFF73AFF04EB0008444503D199
:106150000120FFF755FFEDE720222946204601F0F8
:1061600013FF10B920352034F0E72B4605F120024B
:106170001F68791CDDD104339A42F9D105F17843C7
:106180001B481C4EB3F5801F1B4B38BF184603F14C
:10619000F80332BFD946D1461E46FFF701FF07601C
:1061A000A5EB040C336804F11C0143F002033360D7
:1061B000231FD9F8007017F00507FAD153F8042F00
:1061C0008B424CF80320F4D1BFF34F8FFFF7E8FE6A
:1061D0004FF0FF332022214603602846336823F026
:1061E0000203336001F0D0FE0028BBD03846B0E790
:1061F000142100520C200052142000521020005292
:106200001021005210B5084C237828B11BB9FFF7B4
:10621000D5FE0123237010BD002BFCD02070BDE8FB
:106220001040FFF7EDBE00BFD67100202DE9F04F02
:106230000D4685B0814658B111F00D0614BF2022DD
:10624000082211F00803019304D0431E03426AD0D0
:10625000002435E0002E37D009F11F0121F01F097D
:106260004FF00108324F05F00403DFF8D0A005EA33
:10627000080BBBF1000F32D07869C0072FD408F1AA
:1062800001080C37B8F1060FF3D19EB9294D4946E4
:10629000A819019201F0AEF9044600283AD1183647
:1062A000019A782EF3D1494601F0A4F9044600285A
:1062B00030D1019A4946204801F09CF9044668BB58
:1062C000204605B0BDE8F08F0029C9D10146284617
:1062D000029201F08FF90446E0B9029AC0E713B1C7
:1062E00078694107CBD5AC0702D578698007C6D558
:1062F000019911B178690107C1D51820494600FB01
:1063000008A0CDE9022301F075F90446DDE9022376
:106310000028B4D04A460021204601E04A46002128
:10632000FBF73CFBCCE70246002E95D198E700BF77
:106330009483000808720020D8710020F0710020BA
:106340000121FFF773BF0000F8B5144D0124182791
:10635000134E40F2FF3200210120FBF71FFB07FB29
:10636000046001342A6955F80C1F01F02FF9062C3E
:10637000F5D137254FF4C0542046FFF7E1FF014621
:1063800028B122460748BDE8F84001F01FB9C4EB28
:10639000C404013D4FEAD404EED1F8BD9483000853
:1063A000F0710020D871002008B101F095B9704754
:1063B00038B5054D00240334696855F80C0B00F01E
:1063C000A9F8122CF7D138BD9483000838B5EFF343
:1063D00011859DB9EFF30584C4F30804302334B16B
:1063E00083F31188FFF776FC85F3118838BD83F3BA
:1063F0001188FFF76FFC84F3118838BDBDE8384081
:10640000FFF768BC10B5FFF7E1FF104CC008104A59
:10641000002340EA4170C908A0FB04ECA0FB020E77
:106420001CEB0000A1FB044CA1FB02125B41001914
:1064300043EB0C0011EB0E0142F10002411842F156
:106440000000090941EA007010BD00BFCFF753E317
:10645000A59BC4200244074BD2B210B5904200D194
:1064600010BD441C00B253F8200041F8040BE0B208
:10647000F4E700BF504000580E4B30B51C6F2404A9
:1064800005D41C6F1C671C6F44F400441C670A4C45
:1064900002442368D2B243F480732360074B9042D6
:1064A00000D130BD441C51F8045B00B243F82050C9
:1064B000E0B2F4E700440258004802585040005847
:1064C00007B5012201A90020FFF7C4FF019803B01E
:1064D0005DF804FB13B50446FFF7F2FFA04205D0B8
:1064E000012201A900200194FFF7C6FF02B010BDF0
:1064F0000144BFF34F8F064B884204D3BFF34F8F45
:10650000BFF36F8F7047C3F85C022030F4E700BF21
:1065100000ED00E00144BFF34F8F064B884204D3E7
:10652000BFF34F8FBFF36F8F7047C3F870022030F7
:10653000F4E700BF00ED00E070470000114BDA699E
:1065400052021ED59A69D00704D50F4A9A6002F10B
:1065500044329A600B4BDA69D107FCD41A6A22F4F0
:1065600080021A629A6942F002029A61DA69D207DD
:10657000FCD49A6942F001029A61024AD369DB07AE
:10658000FCD47047002000523B2A1908074B45F203
:1065900055521A6003225A6040F2FF729A604CF61C
:1065A000CC421A600122024B1A7070470048005812
:1065B00084720020034B1B781BB1034B4AF6AA22BE
:1065C0001A6070478472002000480058034B1A6814
:1065D0001AB9034AD2F8D0241A607047807200209A
:1065E00000400258024B4FF48032C3F8D024704769
:1065F0000040025808B5FFF7E9FF024B1868C0F3E6
:10660000806008BD8072002070B5BFF34F8FBFF36C
:106610006F8F1A4A0021C2F85012BFF34F8FBFF399
:106620006F8F536943F400335361BFF34F8FBFF350
:106630006F8FC2F88410BFF34F8FD2F8803043F6CB
:10664000E074C3F3C900C3F34E335B0103EA0406ED
:10665000014646EA81750139C2F86052F9D2203B01
:1066600013F1200FF2D1BFF34F8F536943F48033FE
:106670005361BFF34F8FBFF36F8F70BD00ED00E02C
:10668000FEE70000214B2248224A70B5904237D3E2
:10669000214BC11EDA1C121A22F003028B4238BFB2
:1066A00000220021FBF77AF91C4A0023C2F884304B
:1066B000BFF34F8FD2F8803043F6E074C3F3C900C4
:1066C000C3F34E335B0103EA0406014646EA8175D3
:1066D0000139C2F86C52F9D2203B13F1200FF2D1EC
:1066E000BFF34F8FBFF36F8FBFF34F8FBFF36F8F2A
:1066F0000023C2F85032BFF34F8FBFF36F8F70BDCE
:1067000053F8041B40F8041BC0E700BFC485000811
:1067100078740020787400207874002000ED00E088
:10672000054B996B21EA000199631A6E22EA000277
:106730001A661B6E704700BF0045025870B5D0E95D
:10674000244300224FF0FF359E6804EB42135101B1
:10675000D3F80009002805DAD3F8000940F080409A
:10676000C3F80009D3F8000B002805DAD3F8000BB2
:1067700040F08040C3F8000B013263189642C3F822
:106780000859C3F8085BE0D24FF00113C4F81C3875
:1067900070BD0000890141F02001016103699B0681
:1067A000FCD41220FFF7EEB810B50A4C2046FEF7D5
:1067B0007DFD094BC4F89030084BC4F89430084C68
:1067C0002046FEF773FD074BC4F89030064BC4F823
:1067D000943010BD8872002000000840008400083A
:1067E00024730020000004400C84000870B5037876
:1067F0000546012B58D13F4BD0F89040984254D1D8
:106800003D4B0E2165209A6B42F000629A631A6E2E
:1068100042F000621A661B6E384BD3F8802042F0BB
:106820000062C3F88020D3F8802022F00062C3F811
:106830008020D3F88030FEF79FF9314BE360314B75
:10684000C4F800380023D5F89060C4F8003EC02397
:1068500023604FF40413A3633369002BFCDA012394
:106860000C203361FFF78EF83369DB07FCD412206C
:10687000FFF788F83369002BFCDA00262846A6606B
:10688000FFF75CFF6B68C4F81068DB68C4F8146835
:10689000C4F81C6863BB1C4BA3614FF0FF336361FA
:1068A000A36843F00103A36070BD184B9842C9D19F
:1068B000114B4FF080609A6B42F000729A631A6E2F
:1068C00042F000721A661B6E0C4BD3F8802042F027
:1068D0000072C3F88020D3F8802022F00072C3F841
:1068E0008020D3F88030FFF71BFF0E214D20A2E758
:1068F000074BD1E788720020004502580044025837
:106900004014004003002002003C30C024730020EB
:10691000083C30C0F8B5D0F89040054600214FF053
:1069200000662046FFF736FFD5F8941000234FF09D
:1069300001128F684FF0FF30C4F83438C4F81C28B7
:1069400004EB431201339F42C2F80069C2F8006BA6
:10695000C2F80809C2F8080BF2D20B68D5F89020EB
:10696000C5F89830636210231361166916F010069B
:10697000FBD11220FFF706F8D4F8003823F4FE63A9
:10698000C4F80038A36943F4402343F01003A36123
:106990000923C4F81038C4F814380B4BEB604FF0DF
:1069A000C043C4F8103B094BC4F8003BC4F810695D
:1069B000C4F80039D5F8983003F1100243F480137D
:1069C000C5F89820A362F8BDDC8300084080001061
:1069D000D0F8902090F88A10D2F8003823F4FE63A3
:1069E00043EA0113C2F80038704700002DE9F8436C
:1069F00000EB8103D0F890500C468046DA680FFA1D
:106A000081F94801166806F00306731E022B05EB98
:106A100041134FF0000194BFB604384EC3F8101B69
:106A20004FF0010104F1100398BF06F1805601FAFE
:106A300003F3916998BF06F5004600293AD0578ABA
:106A400004F15801374349016F50D5F81C180B4326
:106A50000021C5F81C382B180127C3F81019A740CE
:106A60005369611E9BB3138A928B9B08012A88BFCE
:106A70005343D8F89820981842EA034301F14002A2
:106A80002146C8F89800284605EB82025360FFF7BC
:106A900081FE08EB8900C3681B8A43EA84534834AB
:106AA0001E4364012E51D5F81C381F43C5F81C78CD
:106AB000BDE8F88305EB4917D7F8001B21F4004126
:106AC000C7F8001BD5F81C1821EA0303C0E704F13E
:106AD0003F030B4A2846214605EB83035A60FFF724
:106AE00059FE05EB4910D0F8003923F40043C0F8F3
:106AF0000039D5F81C3823EA0707D7E700800010D3
:106B000000040002D0F894201268C0F89820FFF723
:106B100015BE00005831D0F8903049015B5813F48D
:106B2000004004D013F4001F0CBF02200120704766
:106B30004831D0F8903049015B5813F4004004D03C
:106B400013F4001F0CBF02200120704700EB8101ED
:106B5000CB68196A0B6813604B685360704700007C
:106B600000EB810330B5DD68AA691368D36019B9F9
:106B7000402B84BF402313606B8A1468D0F89020A8
:106B80001C4402EB4110013C09B2B4FBF3F4634333
:106B9000033323F0030343EAC44343F0C043C0F884
:106BA000103B2B6803F00303012B0ED1D2F80838F9
:106BB00002EB411013F4807FD0F8003B14BF43F088
:106BC000805343F00053C0F8003B02EB4112D2F86F
:106BD000003B43F00443C2F8003B30BD2DE9F041D7
:106BE000D0F8906005460C4606EB4113D3F8087BBD
:106BF0003A07C3F8087B08D5D6F814381B0704D524
:106C000000EB8103DB685B689847FA071FD5D6F86D
:106C10001438DB071BD505EB8403D968CCB98B6925
:106C2000488A5A68B2FBF0F600FB16228AB9186847
:106C3000DA6890420DD2121AC3E90024302383F39C
:106C4000118821462846FFF78BFF84F31188BDE8A1
:106C5000F081012303FA04F26B8923EA02036B81BA
:106C6000CB68002BF3D021462846BDE8F0411847F9
:106C700000EB81034A0170B5DD68D0F890306C6993
:106C80002668E66056BB1A444FF40020C2F810098B
:106C90002A6802F00302012A0AB20ED1D3F80808CA
:106CA00003EB421410F4807FD4F8000914BF40F0C5
:106CB000805040F00050C4F8000903EB4212D2F8B3
:106CC000000940F00440C2F800090122D3F834085A
:106CD00002FA01F10143C3F8341870BD19B9402E0E
:106CE00084BF4020206020681A442E8A8419013C09
:106CF000B4FBF6F440EAC44040F00050C6E70000A0
:106D00002DE9F843D0F8906005460C464F0106EB9C
:106D10004113D3F8088918F0010FC3F808891CD073
:106D2000D6F81038DB0718D500EB8103D3F80CC078
:106D3000DCF81430D3F800E0DA68964530D2A2EBE4
:106D40000E024FF000091A60C3F80490302383F359
:106D50001188FFF78DFF89F3118818F0800F1DD07F
:106D6000D6F834380126A640334217D005EB840309
:106D70000134D5F89050D3F80CC0E4B22F44DCF8BD
:106D8000142005EB0434D2F800E05168714514D3A7
:106D9000D5F8343823EA0606C5F83468BDE8F88328
:106DA000012303FA01F2038923EA02030381DCF8D9
:106DB0000830002BD1D09847CFE7AEEB0103BCF8E9
:106DC0001000834228BF0346D7F8180980B2B3EBFE
:106DD000800FE3D89068A0F1040959F8048FC4F833
:106DE0000080A0EB09089844B8F1040FF5D81844C6
:106DF0000B4490605360C8E72DE9F84FD0F89050ED
:106E000004466E69AB691E4016F480586E6103D06B
:106E1000BDE8F84FFEF7BABA002E12DAD5F8003EF8
:106E20009B0705D0D5F8003E23F00303C5F8003ECC
:106E3000D5F80438204623F00103C5F80438FEF7DE
:106E4000D3FA370505D52046FFF778FC2046FEF734
:106E5000B9FAB0040CD5D5F8083813F0060FEB6872
:106E600023F470530CBF43F4105343F4A053EB606E
:106E700031071BD56368DB681BB9AB6923F00803D6
:106E8000AB612378052B0CD1D5F8003E9A0705D0CD
:106E9000D5F8003E23F00303C5F8003E2046FEF778
:106EA000A3FA6368DB680BB120469847F30200F150
:106EB000BA80B70226D5D4F8909000274FF0010A87
:106EC00009EB4712D2F8003B03F44023B3F5802FBF
:106ED00011D1D2F8003B002B0DDA62890AFA07F3D0
:106EE00022EA0303638104EB8703DB68DB6813B1E9
:106EF0003946204698470137D4F89430FFB29B6852
:106F00009F42DDD9F00619D5D4F89000026AC2F389
:106F10000A1702F00F0302F4F012B2F5802F00F00E
:106F2000CA80B2F5402F09D104EB8303002200F59B
:106F30008050DB681B6A974240F0B0803003D5F880
:106F4000185835D5E90303D500212046FFF746FE42
:106F5000AA0303D501212046FFF740FE6B0303D5AA
:106F600002212046FFF73AFE2F0303D503212046D6
:106F7000FFF734FEE80203D504212046FFF72EFE7A
:106F8000A90203D505212046FFF728FE6A0203D592
:106F900006212046FFF722FE2B0203D507212046BB
:106FA000FFF71CFEEF0103D508212046FFF716FE70
:106FB000700340F1A780E90703D500212046FFF7C1
:106FC0009FFEAA0703D501212046FFF799FE6B0714
:106FD00003D502212046FFF793FE2F0703D5032197
:106FE0002046FFF78DFEEE0603D504212046FFF76D
:106FF00087FEA80603D505212046FFF781FE690616
:1070000003D506212046FFF77BFE2A0603D507217C
:107010002046FFF775FEEB0574D520460821BDE834
:10702000F84FFFF76DBED4F890904FF0000B4FF083
:10703000010AD4F894305FFA8BF79B689F423FF6C1
:1070400038AF09EB4713D3F8002902F44022B2F518
:10705000802F20D1D3F80029002A1CDAD3F8002988
:1070600042F09042C3F80029D3F80029002AFBDB44
:107070003946D4F89000FFF78DFB22890AFA07F30E
:1070800022EA0303238104EB8703DB689B6813B1C7
:107090003946204698470BF1010BCAE7910701D109
:1070A000D0F80080072A02F101029CBF03F8018B8F
:1070B0004FEA18283FE704EB830300F58050DA68B5
:1070C000D2F818C0DCF80820DCE9001CA1EB0C0C9D
:1070D00000218F4208D1DB689B699A683A449A6024
:1070E0005A683A445A6029E711F0030F01D1D0F8E9
:1070F00000808C4501F1010184BF02F8018B4FEA49
:107100001828E6E7BDE8F88F08B50348FFF774FED6
:10711000BDE80840FDF7DAB98872002008B50348D9
:10712000FFF76AFEBDE80840FDF7D0B924730020E0
:10713000D0F8903003EB4111D1F8003B43F4001339
:10714000C1F8003B70470000D0F8903003EB4111CC
:10715000D1F8003943F40013C1F80039704700003A
:10716000D0F8903003EB4111D1F8003B23F4001329
:10717000C1F8003B70470000D0F8903003EB41119C
:10718000D1F8003923F40013C1F80039704700002A
:1071900030B50433039C0172002104FB0325C16058
:1071A000C0E90653049B0363059BC0E90000C0E9E6
:1071B0000422C0E90842C0E90A11436330BD00005F
:1071C0000022416AC260C0E90411C0E90A226FF0DE
:1071D0000101FEF747BC0000D0E90432934201D11F
:1071E000C2680AB9181D704700207047036919600A
:1071F0000021C2680132C260C269134482699342AD
:10720000036124BF436A0361FEF720BC38B504461E
:107210000D46E3683BB162690020131D1268A3624A
:107220001344E36207E0237A33B929462046FEF788
:10723000FDFB0028EDDA38BD6FF00100FBE7000030
:10724000C368C269013BC3604369134482699342C6
:10725000436124BF436A436100238362036B03B12C
:107260001847704770B53023044683F31188866A47
:107270003EB9FFF7CBFF054618B186F311882846C3
:1072800070BDA36AE26A13F8015B9342A36202D362
:107290002046FFF7D5FF002383F31188EFE70000B6
:1072A0002DE9F84F04460E46174698464FF0300930
:1072B00089F311880025AA46D4F828B0BBF1000F45
:1072C00009D141462046FFF7A1FF20B18BF3118879
:1072D0002846BDE8F88FD4E90A12A7EB050B521A2D
:1072E000934528BF9346BBF1400F1BD9334601F1AC
:1072F000400251F8040B914243F8040BF9D1A36A00
:10730000403640354033A362D4E90A239A4202D37F
:107310002046FFF795FF8AF31188BD42D8D289F342
:107320001188C9E730465A46FAF712FBA36A5E4451
:107330005D445B44A362E7E710B5029C043301722D
:1073400003FB0421C460C0E906130023C0E90A332B
:10735000039B0363049BC0E90000C0E90422C0E969
:107360000842436310BD0000026A6FF00101C26071
:10737000426AC0E904220022C0E90A22FEF772BB79
:10738000D0E904239A4201D1C26822B9184650F8C4
:10739000043B0B60704700231846FAE7C3680021DE
:1073A000C2690133C36043691344826993424361F4
:1073B00024BF436A4361FEF749BB000038B5044669
:1073C0000D46E3683BB1236900201A1DA262E26901
:1073D0001344E36207E0237A33B929462046FEF7D7
:1073E00025FB0028EDDA38BD6FF00100FBE7000057
:1073F00003691960C268013AC260C26913448269B4
:107400009342036124BF436A036100238362036BD9
:1074100003B118477047000070B530230D4604468D
:10742000114683F31188866A2EB9FFF7C7FF10B1A2
:1074300086F3118870BDA36A1D70A36AE26A0133E6
:107440009342A36204D3E16920460439FFF7D0FFD9
:10745000002080F31188EDE72DE9F84F04460D4632
:10746000904699464FF0300A8AF311880026B346B9
:10747000A76A4FB949462046FFF7A0FF20B187F31E
:1074800011883046BDE8F88FD4E90A073A1AA8EB0C
:107490000607974228BF1746402F1BD905F1400326
:1074A00055F8042B9D4240F8042BF9D1A36A4036CD
:1074B0004033A362D4E90A239A4204D3E169204607
:1074C0000439FFF795FF8BF311884645D9D28AF32B
:1074D0001188CDE729463A46FAF73AFAA36A3D44BD
:1074E0003E443B44A362E5E7D0E904239A4217D126
:1074F000C3689BB1836A8BB1043B9B1A0ED01360A7
:10750000C368013BC360C3691A4483699A4202613C
:1075100024BF436A03610023836201231846704736
:107520000023FBE700F05CBA014B586A704700BFCC
:10753000000C0040034B002258631A610222DA60FB
:10754000704700BF000C0040014B0022DA6070471A
:10755000000C0040014B5863704700BF000C004016
:10756000024B034A1A60034A5A607047D8730020DE
:107570007874002000000220074B494210B55C6877
:10758000201A08401968821A8A4203D3A24201D8FD
:107590005A6010BD0020FCE7D873002008B53023E6
:1075A00083F31188FFF7E8FF002383F3118808BDF8
:1075B00004480121044B03600023C0E901330C306F
:1075C00000F016B9E07300209D750008CB1D083A45
:1075D00023F00703591A521A012110B4D2080024CB
:1075E000C0E9004384600C301C605A605DF8044BB5
:1075F00000F0FEB82DE9F84F364ECD1D0F4600289D
:1076000018BF0646082A4FEAD50538BF082206F1FA
:107610000C08341D9146404600F006F909F10701B7
:10762000C9F1000E224624686CB9404600F006F904
:107630003368CBB308224946E8009847044698B31C
:1076400040E9026730E004EB010CD4F804A00CEA36
:107650000E0C0AF10100ACF1080304EBC0009842E3
:10766000E0D9A0EB0C0CB5EBEC0F4FEAEC0BD9D842
:107670009C421CD204F10802AB45A3EB02024FEA84
:10768000E202626009D9691CED43206803EBC10284
:107690005D44556043F8310022601C465F604046FF
:1076A00044F8086B00F0CAF82046BDE8F88FAA45F8
:1076B000216802D111602346EFE7013504EBC503D1
:1076C00044F8351003F10801401AC01058601360E7
:1076D000F1E700BFE0730020F8B550F8043C044621
:1076E00050F8085CA0F1080607332F1D0C35DB08A5
:1076F00040F8043C284600F097F83B469F421A6841
:1077000001D0B34228D20AB1964225D244F8082CBF
:1077100054F8042C1E60013254F8081C06EBC20019
:10772000814206D14868024444F8042C0A6844F8AF
:10773000082C5868411C03EBC1018E4207D154F854
:10774000042C013202445A6054F8082C1A6028466E
:10775000BDE8F84000F072B81346CFE7FEE700003E
:1077600070B51B4B0025044686B058600E468562F6
:107770000163FCF783FE04F11003A560E562C4E930
:1077800004334FF0FF33C4E90044C4E90635FFF782
:10779000CBFE2B46024604F134012046C4E90823FF
:1077A00080230C4A2565FEF7F7F801230A4AE060BA
:1077B00000920375684672680192B268CDE90223AF
:1077C000064BCDE90435FEF70FF906B070BD00BFDA
:1077D00098560020188400081D8400085D77000872
:1077E000024AD36A1843D062704700BF3054002069
:1077F000C0E90000816070478368013B002B10B531
:1078000083600CDA074BDC684368A061206063602A
:107810001C6044600520FEF721F8A06910BD00201F
:10782000FCE700BF3054002008B5302383F31188F3
:10783000FFF7E2FF002383F3118808BD08B530236A
:1078400083F3118883680133002B836007DC0368AE
:1078500000211A68026050601846FEF72BF80023DA
:1078600083F3118808BD00004B6843608B68836018
:10787000CB68C3600B6943614B6903628B694362E8
:107880000B6803607047000008B53C4B40F2FF7185
:107890003B48D3F888200A43C3F88820D3F88820CF
:1078A00022F4FF6222F00702C3F88820D3F8883060
:1078B000344B1A6C0A431A649A6E0A439A66324A27
:1078C0009B6E1146FFF7D0FF00F5806002F11C01AE
:1078D000FFF7CAFF00F5806002F13801FFF7C4FF2F
:1078E00000F5806002F15401FFF7BEFF00F58060F3
:1078F00002F17001FFF7B8FF00F5806002F18C0122
:10790000FFF7B2FF00F5806002F1A801FFF7ACFFBE
:1079100000F5806002F1C401FFF7A6FF00F580606A
:1079200002F1E001FFF7A0FF00F5806002F1FC0129
:10793000FFF79AFF02F58C7100F58060FFF794FF66
:1079400000F010F9114BD3F8902242F00102C3F875
:107950009022D3F8942242F00102C3F89422052227
:10796000C3F898204FF06052C3F89C20084AC3F82F
:10797000A020BDE80840FEF7E1BD00BF004402586A
:1079800000000258004502582484000800ED00E081
:107990001F00080308B500F0C3FAFDF7C7FF0D4B41
:1079A000DA6B42F04002DA635A6E22F040025A6605
:1079B0005B6E094B1A6842F008021A601A6842F0BE
:1079C00004021A60FEF702FEFEF7BEFCBDE80840A6
:1079D000FEF744BA004502580018024870470000FC
:1079E0000E4B9A6C42F008029A641A6F42F0080239
:1079F0001A670B4A1B6FD36B43F00803D363C7228C
:107A0000084B9A624FF0FF32DA6200229A615A63A1
:107A1000DA605A6001225A611A60704700450258C4
:107A20000010005C000C0040094A08B51169D368D9
:107A30000B40D9B29B076FEA0101116107D53023D2
:107A400083F31188FDF79CFF002383F3118808BDA1
:107A5000000C0040044BDA6B0243DA635A6E1043A9
:107A600058665B6E704700BF0045025808B53C4B36
:107A70004FF0FF31D3F8802062F00042C3F880203D
:107A8000D3F8802002F00042C3F88020D3F8802091
:107A9000D3F88420C3F88410D3F884200022C3F8DC
:107AA0008420D3F88400D86F40F0FF4040F4FF00FA
:107AB00040F4DF4040F07F00D867D86F20F0FF40EF
:107AC00020F4FF0020F4DF4020F07F00D867D86F5B
:107AD000D3F888006FEA40506FEA5050C3F888002E
:107AE000D3F88800C0F30A00C3F88800D3F88800F0
:107AF000D3F89000C3F89010D3F89000C3F890200A
:107B0000D3F89000D3F89400C3F89410D3F89400FD
:107B1000C3F89420D3F89400D3F89800C3F89810D1
:107B2000D3F89800C3F89820D3F89800D3F88C00C5
:107B3000C3F88C10D3F88C00C3F88C20D3F88C00D9
:107B4000D3F89C00C3F89C10D3F89C10C3F89C2079
:107B5000D3F89C30FCF73CFEBDE8084000F0B4B917
:107B60000044025808B50122504BC3F80821504B7D
:107B70005A6D42F002025A65DA6F42F00202DA6789
:107B80000422DB6F4B4BDA605A689104FCD54A4AF9
:107B90001A6001229A60494ADA6000221A614FF4A1
:107BA00040429A61434B9A699204FCD51A6842F4A8
:107BB00080721A60424B1A6F12F4407F04D04FF467
:107BC00080321A6700221A671A6842F001021A60AE
:107BD0003B4B1A685007FCD500221A611A6912F053
:107BE0003802FBD1012119604FF0804159605A677A
:107BF000344ADA62344A1A611A6842F480321A60EE
:107C00002F4B1A689103FCD51A6842F480521A600F
:107C10001A689204FCD52D4A2D499A6200225A63B3
:107C2000196301F57C01DA6301F5E77199635A6420
:107C3000284A1A64284ADA621A6842F0A8521A607E
:107C40001F4B1A6802F02852B2F1285FF9D148227E
:107C50009A614FF48862DA6140221A621F4ADA643C
:107C60001F4A1A651F4A5A651F4A9A6532231F4ADE
:107C70001360136803F00F03022BFAD1104A136943
:107C800043F003031361136903F03803182BFAD18F
:107C90004FF00050FFF7DEFE4FF08040FFF7DAFEB6
:107CA0004FF00040BDE80840FFF7D4BE008000510F
:107CB000004502580048025800C000F004000001CE
:107CC000004402580000FF01008890083220600044
:107CD00063020901470E0508DD0BBF0120000020EB
:107CE000000001100910E000000101100020005206
:107CF0004FF0B04208B5D2F8883003F00103C2F863
:107D0000883023B1044A13680BB150689847BDE826
:107D10000840FCF7DBBB00BFF87300204FF0B04217
:107D200008B5D2F8883003F00203C2F8883023B1D6
:107D3000044A93680BB1D0689847BDE80840FCF747
:107D4000C5BB00BFF87300204FF0B04208B5D2F8B1
:107D5000883003F00403C2F8883023B1044A136961
:107D60000BB150699847BDE80840FCF7AFBB00BFB6
:107D7000F87300204FF0B04208B5D2F8883003F015
:107D80000803C2F8883023B1044A93690BB1D06963
:107D90009847BDE80840FCF799BB00BFF873002086
:107DA0004FF0B04208B5D2F8883003F01003C2F8A3
:107DB000883023B1044A136A0BB1506A9847BDE872
:107DC0000840FCF783BB00BFF87300204FF0B043BE
:107DD00010B5D3F8884004F47872C3F88820A3065D
:107DE00004D5124A936A0BB1D06A9847600604D54D
:107DF0000E4A136B0BB1506B9847210604D50B4A02
:107E0000936B0BB1D06B9847E20504D5074A136C0E
:107E10000BB1506C9847A30504D5044A936C0BB181
:107E2000D06C9847BDE81040FCF750BBF8730020B9
:107E30004FF0B04310B5D3F8884004F47C42C3F847
:107E40008820620504D5164A136D0BB1506D984712
:107E5000230504D5124A936D0BB1D06D9847E00409
:107E600004D50F4A136E0BB1506E9847A10404D588
:107E70000B4A936E0BB1D06E9847620404D5084A42
:107E8000136F0BB1506F9847230404D5044A936FC6
:107E90000BB1D06F9847BDE81040FCF717BB00BF8F
:107EA000F873002008B50348FCF7E0FDBDE8084082
:107EB000FCF70CBBC44F002008B5FFF7B5FDBDE8CB
:107EC0000840FCF703BB0000062108B50846FCF794
:107ED00053FE06210720FCF74FFE06210820FCF781
:107EE0004BFE06210920FCF747FE06210A20FCF77D
:107EF00043FE06211720FCF73FFE06212820FCF751
:107F00003BFE09217A20FCF737FE07213220FCF7DF
:107F100033FE0C215220BDE80840FCF72DBE0000C6
:107F200008B5FFF7A3FD00F00DF8FCF7E3FFFDF740
:107F3000BBF9FDF78DF8FFF751FDBDE80840FFF7ED
:107F4000F1BA00000023054A19460133102BC2E99B
:107F5000001102F10802F8D1704700BFF873002049
:107F60000B460146184600F001B8000010B5054C5C
:107F700013462CB10A4601460220AFF3008010BD23
:107F80002046FCE70000000010B501390244904291
:107F900001D1002005E0037811F8014FA34201D080
:107FA000181B10BD0130F2E72DE9F041A3B1C91A49
:107FB00017780144044603F1FF3C8C42204601D966
:107FC000002009E00578BD4204F10104F5D10CEB75
:107FD0000405D618A54201D1BDE8F08115F8018D40
:107FE00016F801EDF045F5D0E7E70000034611F87B
:107FF000012B03F8012B002AF9D170476F72672E0D
:108000006172647570696C6F742E437562654E6F32
:108010006465000053544D333248373F3F3F0053AF
:10802000544D3332483733782F3732780053544D1C
:108030003332483734332F3735332F37353000005C
:1080400001105A0003105900012058000320560067
:1080500040A2E4F1646891060041A3E5F2656992EB
:108060000700000043414E464449666163653A207B
:108070004D6573736167652052414D204F7665727F
:10808000666C6F77210000004261642043414E49D5
:108090006661636520696E6465782E0000000000EB
:1080A00000000000492B0008AD2300089D320008A5
:1080B0001D240008292400086D280008CD2500088B
:1080C000E5230008E9230008C1230008A9230008CC
:1080D00029280008CD23000831340008D5330008D2
:1080E000D9230008FD27000801040E05054B0202F4
:1080F0000E05054B04010E05054B05010B04044B51
:108100000801060303460000100002400800024078
:108110000008024000000B00280002400800024056
:108120000408024006010C00400002400800024022
:108130000808024010020D005800024008000240EA
:108140000C08024016030E00700002400C000240B2
:108150001008024000040F00880002400C0002409A
:108160001408024006051000A00002400C00024066
:108170001808024010061100B80002400C0002402E
:108180001C08024016072F00100402400804024099
:108190002008024000083800280402400804024079
:1081A0002408024006093900400402400804024045
:1081B00028080240100A3A0058040240080402400D
:1081C0002C080240160B3B00700402400C040240D5
:1081D00030080240000C3C00880402400C040240BD
:1081E00034080240060D4400A00402400C04024082
:1081F00038080240100E4500B80402400C0402404A
:108200003C080240160F46000096000000000000E7
:10821000000000000000000000000000000000005E
:1082200000000000B54E0008A14E0008DD4E000819
:10823000C94E0008D54E0008C14E0008AD4E0008DA
:10824000994E0008E94E000800000000CD4F0008DC
:10825000B94F0008F54F0008E14F0008ED4F000846
:10826000D94F0008C54F0008B14F00080150000861
:10827000000000000100000000000000633000006A
:108280007C82000888540020985600204172647552
:1082900050696C6F740025424F415244252D424C69
:1082A000002553455249414C2500000002000000C2
:1082B00000000000ED5100085D5200084000400041
:1082C000486F0020586F00200200000000000000EE
:1082D0000300000000000000A5520008000000009C
:1082E00010000000686F0020000000000100000086
:1082F000000000008872002001010200F95D000802
:10830000095D0008A55D0008895D000843000000C4
:108310001483000809024300020100C0320904006E
:1083200000010202010005240010010524010001E2
:10833000042402020524060001070582030800FF49
:1083400009040100020A00000007050102400000C4
:108350000705810240000000120000006083000851
:1083600012011001020000400912415700020102EF
:10837000030100000403090425424F415244250033
:10838000303132333435363738394142434445464B
:10839000000000000001002000FF010002000000BA
:1083A000000000300000040008000000000000246D
:1083B00000000800040000000004000000FC0000B1
:1083C00002000000000004300080000008000000EF
:1083D0000000003800000100010000000000000063
:1083E00001540008B95600086557000840004000D5
:1083F000C0730020C073002001000000D073002073
:1084000080000000400100000800000000010000A2
:1084100000100000080000006D61696E0069646C66
:10842000650000000000802A00000000AAAAAAAA95
:1084300000000024FFFF00000000000000A00A0070
:108440000000000000000000AAAAAAAA0000000084
:10845000FFFF00000000000000000000000000001E
:1084600000000000AAAAAAAA00000000FFFF000066
:1084700000000000000000000A00000000000000F2
:10848000AAAAAAAA00000000FFFF000099000000AD
:10849000000000000080020000000000AAAAAAAAB2
:1084A00000400100FFFF0000000000700700000016
:1084B0000000000000000000AAAAAAAA0000000014
:1084C000FFFF0000000000000000000005000000A9
:1084D00000000000A5AAAAAA00000000FCFF0000FE
:1084E000000000000000000000000000000000008C
:1084F000AAAAAAAA00000000FFFF000000000000D6
:10850000000000000000000000000000AAAAAAAAC3
:1085100000000000FFFF000000000000000000005D
:108520000000000000000000AAAAAAAA00000000A3
:10853000FFFF00000000000000000000000000003D
:1085400000000000AAAAAAAA00000000FFFF000085
:1085500000000000000000003704000000000000E0
:108560000000180000000000FE2A0100D2040000F4
:10857000FF000000A0560020C44F002000000000B3
:1085800014800008830400001F80000850040000CD
:108590002D800008009600000000080096000000F2
:1085A00000080000040000007483000800000000C0
:1085B00000000000000000000000000000000000BB
:0485C00000000000B7
:00000001FF
