:020000040800F2
:1000000000060220010200080302000803020008A3
:1000100003020008030200080302000803020008AC
:100020000302000803020008030200084938000820
:10003000030200080302000803020008030200088C
:10004000030200080302000803020008030200087C
:100050000302000803020008ED3A0008153B0008FF
:100060003D3B0008653B00088D3B0008030200088B
:10007000030200080302000803020008030200084C
:10008000030200080302000803020008030200083C
:10009000030200080302000803020008B53B000841
:1000A000030200080302000803020008030200081C
:1000B000C53C000803020008030200080302000810
:1000C00003020008030200080302000803020008FC
:1000D0000302000803020008893C00089D3C000858
:1000E000193C00080302000803020008030200088C
:1000F00003020008030200080302000803020008CC
:1001000003020008030200080302000803020008BB
:1001100003020008030200080302000803020008AB
:10012000030200080302000803020008030200089B
:10013000030200080302000803020008030200088B
:10014000030200080302000803020008C12F000890
:10015000030200080302000803020008030200086B
:10016000030200080302000803020008030200085B
:10017000030200080302000803020008030200084B
:100180000302000803020008B13C00080302000853
:10019000030200080302000803020008030200082B
:1001A000030200080302000803020008030200081B
:1001B000030200080302000803020008030200080B
:1001C00003020008030200080302000803020008FB
:1001D00003020008030200080302000803020008EB
:1001E00003020008030200080302000803020008DB
:1001F00003020008030200080302000803020008CB
:1002000002E000F000F8FEE772B6374880F3088895
:10021000364880F3098836483649086040F20000C5
:10022000CCF200004EF63471CEF200010860BFF34C
:100230004F8FBFF36F8F40F20000C0F2F0004EF618
:100240008851CEF200010860BFF34F8FBFF36F8F6C
:100250004FF00000E1EE100A4EF63C71CEF20001C4
:100260000860062080F31488BFF36F8F02F006FB4E
:1002700003F07CFA4FF055301F491B4A91423CBFB6
:1002800041F8040BFAE71D49184A91423CBF41F876
:10029000040BFAE71A491B4A1B4B9A423EBF51F81E
:1002A000040B42F8040BF8E700201849184A914261
:1002B0003CBF41F8040BFAE702F01EFB03F0B6FA6C
:1002C000144C154DAC4203DA54F8041B8847F9E787
:1002D00000F042F8114C124DAC4203DA54F8041B02
:1002E0008847F9E702F006BB000602200022022040
:1002F0000000000808ED00E00000022000060220D7
:10030000F0400008002202206C220220702202200D
:10031000183A02200002000800020008000200084B
:10032000000200082DE9F04F2DED108AC1F80CD025
:10033000D0F80CD0BDEC108ABDE8F08F002383F319
:1003400011882846A047002001F048FEFEE701F092
:10035000D7FD00DFFEE7000038B500F01FFC02F01B
:100360004DFA054602F080FA0446C0B90E4B9D4294
:1003700017D001339D4241F2883512BF0446002553
:100380000124002002F044FA0CB100F075F800F0EE
:1003900055FD284600F0FAF800F06EF8F9E7002560
:1003A000EFE70546EDE700BF010007B008B500F034
:1003B000C1FBA0F120035842584108BD07B541F2E6
:1003C0001203022101A8ADF8043000F0D1FB03B004
:1003D0005DF804FB38B5302383F3118817480368B0
:1003E0000BB101F0C7FE0023154A4FF47A71134890
:1003F00001F0B6FE002383F31188124C236813B179
:100400002368013B2360636813B16368013B636049
:100410000D4D2B7833B963687BB9022000F080FC66
:10042000322363602B78032B07D163682BB902203A
:1004300000F076FC4FF47A73636038BD70220220BE
:10044000D50300089023022088220220084B187050
:1004500003280CD8DFE800F008050208022000F0AD
:100460005DBC022000F058BC024B00225A6070476D
:100470008822022090230220F8B53F4B3F4A1C46B9
:100480001968013177D004339342F9D16268A242EE
:1004900071D33B4B9B6803F1006303F5C0339A4271
:1004A00069D2002000F094FB0220FFF7CFFF354B0C
:1004B00000211A6C19641A6E19661A6E5A6C596406
:1004C0005A6E59665A6E5A6942F080025A615A69E8
:1004D00022F080025A615A691A6942F000521A6188
:1004E0001A6922F000521A611B6972B64FF0E023BC
:1004F000C3F8084DD4E90004BFF34F8FBFF36F8FEB
:10050000214AC2F88410BFF34F8F536923F480331C
:100510005361BFF34F8FD2F8803043F6E076C3F3D8
:10052000C905C3F34E335B0103EA060C29464CEAC6
:1005300081770139C2F87472F9D2203B13F1200F90
:10054000F2D1BFF34F8FBFF36F8FBFF34F8FBFF366
:100550006F8F536923F4003353610023C2F8503284
:10056000BFF34F8FBFF36F8F302383F3118885461E
:1005700080F308882047F8BD00800108208001082A
:10058000002202200038024000ED00E02DE9F04F8B
:1005900093B0B44B2022FF2100900AA89D6800F080
:1005A000F7FBB14A1378A3B90121B0481170036079
:1005B000302383F3118803680BB101F0DBFD0023C6
:1005C000AB4A4FF47A71A94801F0CAFD002383F3C6
:1005D0001188009B13B1A74B009A1A60A64A1378A2
:1005E000032B03D000231370A24A53604FF0000A7C
:1005F000009CD3465646D146012000F08FFB24B123
:100600009C4B1B68002B00F02682002000F092FA21
:100610000390039B002BF2DB012000F07DFB039B8A
:10062000213B1F2BE8D801A252F823F0AD060008A9
:10063000D506000869070008F9050008F905000853
:10064000F9050008FB070008CB090008E5080008C9
:10065000470900086F09000895090008F905000816
:10066000A7090008F9050008190A00084D07000845
:10067000F90500085D0A0008B90600084D070008E2
:10068000F905000847090008F9050008F905000800
:10069000F9050008F9050008F9050008F905000842
:1006A000F9050008F9050008690700080220FFF7AE
:1006B0007DFE002840F0F981009B022105A8BAF1D7
:1006C000000F08BF1C4641F21233ADF8143000F0A1
:1006D0004FFA91E74FF47A7000F02CFA071EEBDB2B
:1006E0000220FFF763FE0028E6D0013F052F00F24D
:1006F000DE81DFE807F0030A0D101336052304211D
:1007000005A8059300F034FA17E004215548F9E7ED
:1007100004215A48F6E704215948F3E74FF01C0832
:10072000404608F1040800F055FA0421059005A898
:1007300000F01EFAB8F12C0FF2D101204FF00009A1
:1007400000FA07F747EA0B0B5FFA8BFB00F06CFB34
:1007500026B10BF00B030B2B08BF0024FFF72EFE76
:100760004AE704214748CDE7002EA5D00BF00B0344
:100770000B2BA1D10220FFF719FE074600289BD0C2
:100780000120002600F024FA0220FFF75FFE1FFA86
:1007900086F8404600F02CFA0446B0B10399404672
:1007A0000136A1F140025142514100F031FA0028D6
:1007B000EDD1BA46044641F21213022105A83E4685
:1007C000ADF8143000F0D4F916E725460120FFF704
:1007D0003DFE244B9B68AB4207D9284600F0FAF94E
:1007E000013040F067810435F3E70025224BBA461B
:1007F0003E461D701F4B5D60A8E7002E3FF45CAFC6
:100800000BF00B030B2B7FF457AF0220FFF71EFEFC
:10081000322000F08FF9B0F10008FFF64DAF18F06C
:1008200003077FF449AF0F4A08EB05039268934230
:100830003FF642AFB8F5807F3FF73EAF124BB84569
:10084000019323DD4FF47A7000F074F90390039A5A
:10085000002AFFF631AF039A0137019B03F8012B01
:10086000EDE700BF002202208C230220702202202C
:10087000D5030008902302208822022004220220AF
:10088000082202200C2202208C220220C820FFF71E
:100890008DFD074600283FF40FAF1F2D11D8C5F17D
:1008A00020020AAB25F0030084494245184428BFC2
:1008B0004246019200F046FA019AFF217F4800F07B
:1008C00067FA4FEAA803C8F387027C4928460193D8
:1008D00000F066FA064600283FF46DAF019B05EB79
:1008E000830533E70220FFF761FD00283FF4E4AE03
:1008F00000F0BAF900283FF4DFAE0027B846704B8D
:100900009B68BB4218D91F2F11D80A9B01330ED008
:1009100027F0030312AA134453F8203C05934046E2
:10092000042205A9043700F0E7FA8046E7E73846D5
:1009300000F050F90590F2E7CDF81480042105A8E5
:1009400000F016F902E70023642104A8049300F0E4
:1009500005F900287FF4B0AE0220FFF727FD00283C
:100960003FF4AAAE049800F067F90590E6E700238B
:10097000642104A8049300F0F1F800287FF49CAEF1
:100980000220FFF713FD00283FF496AE049800F014
:1009900063F9EAE70220FFF709FD00283FF48CAE77
:1009A00000F072F9E1E70220FFF700FD00283FF4B4
:1009B00083AE05A9142000F06DF9074604210490C8
:1009C00004A800F0D5F83946B9E7322000F0B2F8B3
:1009D000071EFFF671AEBB077FF46EAE384A07EB19
:1009E0000903926893423FF667AE0220FFF7DEFCF0
:1009F00000283FF461AE27F003074F44B9453FF4A8
:100A0000A5AE484609F1040900F0E4F80421059078
:100A100005A800F0ADF8F1E74FF47A70FFF7C6FCD7
:100A200000283FF449AE00F01FF9002844D00A9B8B
:100A300001330BD008220AA9002000F0B1F90028E8
:100A40003AD02022FF210AA800F0A2F9FFF7B6FC55
:100A50001C4801F0C9FA13B0BDE8F08F002E3FF436
:100A60002BAE0BF00B030B2B7FF426AE002364217F
:100A700005A8059300F072F8074600287FF41CAE25
:100A80000220FFF793FC804600283FF415AEFFF7E5
:100A900095FC41F2883001F0A7FA059800F00AFAB7
:100AA00046463C4600F0C0F9A6E506464EE64FF045
:100AB000000901E6BA467EE637467CE68C22022033
:100AC00000220220A08601002DE9F84F4FF47A732E
:100AD00006460D46002402FB03F7DFF85080DFF8DE
:100AE000509098F900305FFA84FA5A1C01D0A34262
:100AF00010D159F824002A4631460368D3F820B0B3
:100B00003B46D847854205D1074B012083F800A01A
:100B1000BDE8F88F0134042CE3D14FF4FA7001F0F2
:100B200063FA0020F4E700BFDC2302201022022039
:100B300014220220002307B5024601210DF107000F
:100B40008DF80730FFF7C0FF20B19DF8070003B014
:100B50005DF804FB4FF0FF30F9E700000A4604217E
:100B600008B5FFF7B1FF80F00100C0B2404208BDF8
:100B7000074B0A4630B41978064B53F8214001461A
:100B800023682046DD69044BAC4630BC604700BF9B
:100B9000DC23022014220220A086010070B50A4E38
:100BA00000240A4D01F030FD3080286833888342EC
:100BB00008D901F023FD2B6804440133B4F5C03F8C
:100BC0002B60F2D370BD00BFDE23022098230220E9
:100BD00001F0C8BD00F1006000F5C030006870474A
:100BE00000F10060920000F5C03001F053BD00003C
:100BF000054B1A68054B1B889B1A834202D9104487
:100C000001F0FCBC0020704798230220DE23022064
:100C100038B50446074D29B128682044BDE838405E
:100C200001F00CBD2868204401F0F0FC0028F3D04E
:100C300038BD00BF9823022010F0030309D1B0F59E
:100C4000846F04D200F10050A0F5712003681846AB
:100C500070470023FBE7000000F10050A0F5712071
:100C6000D0F8200470470000064991F8243033B1D1
:100C700000230822086A81F82430FFF7B1BF012061
:100C8000704700BF9C230220014B1868704700BFCB
:100C9000002004E01E4B0138F0B51D680A1803233C
:100CA0001C482E0CC5F30B0435460788A7420BD110
:100CB00044680B46013C934218461BD214F9010FBD
:100CC00048B103F8010BF6E7013B00F10800ECD155
:100CD00091420ED20B4618462C24B6F5805F00F8E0
:100CE000014B0AD1824202D94122981C5A70401A03
:100CF000F0BD0846B6F5805FF9D041F201039D4290
:100D0000F5D18242F3D95A2300F8013BEFE700BF47
:100D1000002004E0242202207047000070470000F9
:100D20007047000070B504464FF47A764CB1412C00
:100D3000254628BF412506FB05F0641B01F054F948
:100D4000F4E770BD002310B5934203D0CC5CC454CB
:100D50000133F9E710BD0000013810B510F9013F6B
:100D60003BB191F900409C4203D11AB10131013AE3
:100D7000F4E71AB191F90020981A10BD1046FCE76B
:100D800003460246D01A12F9011B0029FAD1704716
:100D900002440346934202D003F8011BFAE770476E
:100DA0002DE9F8431F4D14460746884695F8242040
:100DB00052BBDFF870909CB395F824302BB92022F9
:100DC000FF2148462F62FFF7E3FF95F824004146D4
:100DD000C0F1080205EB8000A24228BF2246D6B22D
:100DE0009200FFF7AFFF95F82430A41B17441E4470
:100DF0009044E4B2F6B2082E85F82460DBD1FFF708
:100E000033FF0028D7D108E02B6A03EB820383422B
:100E1000CFD0FFF729FF0028CBD10020BDE8F88311
:100E20000120FBE79C230220024B1A78024B1A7028
:100E3000704700BFDC23022010220220F8B5184CB6
:100E4000184800F02FFC2146164800F057FC246893
:100E50004FF47A70144EE26E144DD2F80438114FEC
:100E600043F00203C2F80438FFF75CFF2046104944
:100E700000F04CFDE26E0424D2F8043823F00203A3
:100E8000C2F804384FF4E133336055F8040BB8422C
:100E900002D0314600F066FB013CF6D1F8BD00BF40
:100EA000A03E0008982D0220C42302201422022014
:100EB000A83E00080C4B70B50C4D04461E780C4B38
:100EC00055F826209A420DD00A4B002118221846C8
:100ED000FFF75EFF0460014655F82600BDE870404C
:100EE00000F040BB70BD00BFDC23022014220220B2
:100EF000982D0220C423022030B50A44084D9142A7
:100F00000DD011F8013B5840082340F30004013B89
:100F10002C4013F0FF0384EA5000F6D1EFE730BD18
:100F20002083B8ED026843681143016003B118479C
:100F300070470000024A136843F0C0031360704713
:100F400000440040024A136843F0C0031360704736
:100F500000480040024A136843F0C0031360704722
:100F60000078004037B5274C274D204600F0EEFAB8
:100F700004F11400009400234FF48072234900F020
:100F8000ABF94FF48072224904F138000094214BF0
:100F900000F024FA204BC4E91735204C204600F01D
:100FA000D5FA04F11400009400234FF480721C4918
:100FB00000F092F94FF480721A4904F1380000945D
:100FC000194B00F00BFA194BC4E91735184C2046A1
:100FD00000F0BCFA04F1140000234FF480721549AC
:100FE000009400F079F9144B4FF48072134904F126
:100FF0003800009400F0F2F9114BC4E9173503B042
:1010000030BD00BFE023022080F9370324250220F1
:1010100024280220350F0008004400404C24022000
:101020002426022024290220450F00080048004001
:10103000B824022024270220550F0008242A022069
:1010400000780040037C30B52E4C002918BF0C46B8
:10105000012B13D12C4B98420AD12C4B1A6C42F421
:1010600000321A641A6E42F400321A661B6E05E0F2
:10107000274B98422FD0274B984235D02268036ED9
:10108000C16D03EB52038466B3FBF2F3626815048F
:1010900042BF23F0070503F0070343EA4503CB6093
:1010A000A36843F040034B60E36843F001038B60A7
:1010B00042F4967343F001030B604FF0FF330B6271
:1010C000510505D512F0102217D0B2F1805F16D06D
:1010D00080F8643030BD0D4B1A6C42F480221A64E3
:1010E0001A6E42F48022C0E7084B1A6C42F080422C
:1010F0001A641A6E42F08042B7E77F23E8E73F2385
:10110000E6E700BFB03D0008E023022000380240BF
:101110004C240220B82402202DE9F047C66D054674
:101120003768F469210734621AD014F0080118BF37
:101130004FF48071E20748BF41F02001A3074FF050
:10114000300348BF41F04001600748BF41F08001D3
:1011500083F31188281DFFF7E5FE002383F3118830
:10116000E2050AD5302383F311884FF48061281DEE
:10117000FFF7D8FE002383F311884FF030094FF0BA
:10118000000A14F0200838D13B0616D54FF030097C
:1011900005F1380A200610D589F31188504600F071
:1011A00051F9002836DA0821281DFFF7BBFE27F089
:1011B00080033360002383F31188790614D5620617
:1011C00012D5302383F31188D5E913239A4208D12D
:1011D0002B6C33B127F040071021281DFFF7A2FE2A
:1011E0003760002383F31188E30618D5AA6E1369CC
:1011F000ABB15069BDE8F047184789F31188736AAD
:10120000284695F86410194000F0BAF98AF311885D
:10121000F469B6E7B06288F31188F469BAE7BDE80B
:10122000F0870000F8B51546826804460B46AA42CE
:1012300000D28568A1692669761AB5420BD2184694
:101240002A46FFF77FFDA3692B44A3612846A368C4
:101250005B1BA360F8BD0CD9AF1B18463246FFF7E5
:1012600071FD3A46E1683044FFF76CFDE3683B44AA
:10127000EBE718462A46FFF765FDE368E5E700005F
:1012800083689342F7B50446154600D28568D4E9D1
:101290000460361AB5420BD22A46FFF753FD636944
:1012A0002B4463612846A3685B1BA36003B0F0BDB9
:1012B0000DD93246AF1B0191FFF744FD01993A4623
:1012C000E0683144FFF73EFDE3683B44E9E72A4626
:1012D000FFF738FDE368E4E710B50A440024C36172
:1012E000029B8460C16002610362C0E90000C0E942
:1012F000051110BD08B5D0E90532934201D18268CD
:1013000082B98268013282605A1C426119700021E0
:10131000D0E904329A4224BFC368436100F080FEE2
:10132000002008BD4FF0FF30FBE7000070B5302310
:1013300004460E4683F31188A568A5B1A368A26987
:10134000013BA360531CA36115782269934224BF1B
:10135000E368A361E3690BB120469847002383F358
:101360001188284607E03146204600F049FE002853
:10137000E2DA85F3118870BD2DE9F74F04460E4679
:1013800017469846D0F81C904FF0300A8AF311881F
:101390004FF0000B154665B12A4631462046FFF74F
:1013A00041FF034660B94146204600F029FE00286F
:1013B000F1D0002383F31188781B03B0BDE8F08FD0
:1013C000B9F1000F03D001902046C847019B8BF371
:1013D0001188ED1A1E448AF31188DCE7C160C361ED
:1013E000009B82600362C0E905111144C0E900005E
:1013F00001617047F8B504460D461646302383F365
:101400001188A768A7B1A368013BA36063695A1C50
:1014100062611D70D4E904329A4224BFE3686361BB
:10142000E3690BB120469847002080F3118807E05C
:101430003146204600F0E4FD0028E2DA87F3118807
:10144000F8BD0000D0E9052310B59A4201D18268A9
:101450007AB982680021013282605A1C82611C784C
:1014600003699A4224BFC368836100F0D9FD204616
:1014700010BD4FF0FF30FBE72DE9F74F04460E4655
:1014800017469846D0F81C904FF0300A8AF311881E
:101490004FF0000B154665B12A4631462046FFF74E
:1014A000EFFE034660B94146204600F0A9FD002842
:1014B000F1D0002383F31188781B03B0BDE8F08FCF
:1014C000B9F1000F03D001902046C847019B8BF370
:1014D0001188ED1A1E448AF31188DCE7026843681C
:1014E0001143016003B11847704700001430FFF743
:1014F00043BF00004FF0FF331430FFF73DBF000043
:101500003830FFF7B9BF00004FF0FF333830FFF736
:10151000B3BF00001430FFF709BF00004FF0FF31E8
:101520001430FFF703BF00003830FFF763BF00003F
:101530004FF0FF323830FFF75DBF0000012914BFC4
:101540006FF0130000207047FFF70CBD044B0360E1
:1015500000234360C0E9023301230374704700BFD6
:10156000C83D000810B53023044683F31188FFF707
:1015700069FD02230020237480F3118810BD000050
:1015800038B5C36904460D461BB904210844FFF76A
:10159000A5FF294604F11400FFF7ACFE002806DA87
:1015A000201D4FF40061BDE83840FFF797BF38BDFC
:1015B000026843681143016003B118477047000097
:1015C00013B5446BD4F8A4381A681178042915D1DE
:1015D000217C022912D11979012312898B401342EF
:1015E0000CD101A904F14C0001F07CFFD4F8A4480F
:1015F0000246019B2179206800F0D6F902B010BDA7
:10160000143001F0FFBE00004FF0FF33143001F042
:10161000F9BE00004C3001F0D1BF00004FF0FF33A5
:101620004C3001F0CBBF0000143001F0CDBE000003
:101630004FF0FF31143001F0C7BE00004C3001F014
:101640009DBF00004FF0FF324C3001F097BF00000B
:1016500000207047D0F8A4381A6810B511780446F5
:10166000042917D1017C022914D159790123528907
:101670008B4013420ED1143001F060FE024648B197
:10168000D4F8A4484FF4807361792068BDE8104015
:1016900000F078B910BD0000406BFFF7DBBF000021
:1016A000704700007FB5124B0125042604460360F5
:1016B0000023057400F1840243602946C0E9023327
:1016C0000C4B0290143001934FF48073009601F09C
:1016D00011FE094B04F29442294604F14C00029495
:1016E000CDE900634FF4807301F0D8FE04B070BD03
:1016F000F03D000899160008C11500080B6830225B
:1017000082F311880A7903EB820210624A790D3262
:1017100043F822008A7912B103EB82031862022394
:10172000C0F8A4180374002080F3118870470000EB
:1017300038B5037F044613B190F85430ABB9012596
:10174000201D0221FFF734FF04F114006FF00101A6
:10175000257700F071FC04F14C0084F854506FF0D0
:101760000101BDE8384000F067BC38BD10B501216B
:1017700004460430FFF71CFF0023237784F854301D
:1017800010BD000038B504460025143001F0CAFD34
:1017900004F14C00257701F099FE201D84F8545087
:1017A0000121FFF705FF2046BDE83840FFF752BF93
:1017B00090F85C3003F06003202B06D190F85D2098
:1017C0000023212A03D81F2A06D800207047222A86
:1017D000FBD1C0E9143303E0034A026507224265E6
:1017E00083650120704700BF3C220220D0F8A43856
:1017F00037B51A680446117804291AD1017C0229E8
:1018000017D11979012312898B40134211D100F1AC
:101810004C05284601F01AFF58B101A9284601F0ED
:1018200061FED4F8A4480246019B2179206800F0AB
:10183000BBF803B030BD000000EB8103F0B51E6AB9
:1018400085B004460D46FEB1302383F3118804EBC6
:101850008507301D0821FFF7ABFEFB6806F14C0041
:101860005B691B681BB1019001F04AFE019803A956
:1018700001F038FE024648B1039B2946204600F09D
:1018800093F8002383F3118805B0F0BDFB685A6913
:101890001268002AF5D01B8A013B1340F1D104F1F4
:1018A0005C02EAE70D3138B550F82140DCB1302355
:1018B00083F31188D4F8A4281368527903EB8203C8
:1018C000DB689B695D6845B104216018FFF770FE15
:1018D000294604F1140001F03BFD2046FFF7BAFE53
:1018E000002383F3118838BD7047000001F088B8E9
:1018F00001232822002110B5044600F8243BFFF7FD
:1019000047FA0023C4E9013310BD000038B504468E
:10191000302383F3118800254160C0E90355C0E9F5
:101920000555C0E9075501F07BF80223237085F3C4
:101930001188284638BD000070B500EB81030546CC
:1019400050690E461446DA6018B110220021FFF7E4
:101950001FFAA06918B110220021FFF719FA3146C9
:101960002846BDE8704001F025B90000826802F009
:10197000011282600022C0E90422C0E9062202624C
:1019800001F0A4B9F0B4012500EB810447898D4032
:10199000E4683D43A469458123600023A26063603D
:1019A000F0BC01F0BFB90000F0B4012500EB8104E8
:1019B00007898D40E4683D43646905812360002305
:1019C000A2606360F0BC01F039BA000070B5022378
:1019D0000025044603704566056280F84C50C0E956
:1019E0000255C0E90455C0E9065501F07FF8636867
:1019F0001B6823B129462046BDE87040184770BDDA
:101A00000378052B10B504460AD080F8683005230A
:101A1000037043681B680BB1042198470023A3603F
:101A200010BD00000178052906D190F868204368B0
:101A300002701B6803B118477047000070B590F83A
:101A40004C30044613B1002380F84C3004F15C02A2
:101A5000204601F05DF963689B68B3B994F85C3087
:101A600013F0600535D00021204601F00FFC002165
:101A7000204601F001FC63681B6813B10621204673
:101A80009847062384F84C3070BD204698470028BC
:101A9000E4D0B4F86230626D9A4288BF636594F90D
:101AA0005C30656D002B4FF0300380F20381002D18
:101AB00000F0F280092284F84C2083F31188002181
:101AC0002046D4E91423FFF76FFF002383F3118826
:101AD000DAE794F85D2003F07F0343EA022340F243
:101AE0000232934200F0C58021D8B3F5807F48D000
:101AF0000DD8012B3FD0022B00F09380002BB2D1E8
:101B000004F16402226502226265A365C1E7B3F5B0
:101B1000817F00F09B80B3F5407FA4D194F85E30C4
:101B2000012BA0D1B4F8643043F0020332E0B3F5E6
:101B3000006F4DD017D8B3F5A06F31D0A3F5C063B7
:101B4000012B90D86368204694F85E205E6894F874
:101B50005F10B4F86030B047002884D04368236534
:101B6000036863651AE0B3F5106F36D040F60242A1
:101B700093427FF478AF5C4B2365022363650023B7
:101B8000C3E794F85E30012B7FF46DAFB4F8643096
:101B900023F00203A4F86430C4E91455A56578E77E
:101BA000B4F85C30B3F5A06F0ED194F85E302046E7
:101BB00084F8663000F0F2FF63681B6813B10121FE
:101BC00020469847032323700023C4E914339CE77D
:101BD00004F1670323650123C3E72378042B10D1A5
:101BE000302383F311882046FFF7C0FE85F3118868
:101BF0000321636884F8675021701B680BB120468D
:101C0000984794F85E30002BDED084F867300423C8
:101C1000237063681B68002BD6D0022120469847AA
:101C2000D2E794F8603020461D0603F00F010AD574
:101C300001F060F8012804D002287FF414AF2B4B88
:101C40009AE72B4B98E701F047F8F3E794F85E30FA
:101C5000002B7FF408AF94F8603013F00F01B3D07D
:101C60001A06204602D501F025FBADE701F018FB6E
:101C7000AAE794F85E30002B7FF4F5AE94F860305C
:101C800013F00F01A0D01B06204602D501F0FEFA8A
:101C90009AE701F0F1FA97E7142284F84C2083F3D5
:101CA00011882B462A4629462046FFF76BFE85F30E
:101CB0001188E9E65DB1152284F84C2083F3118880
:101CC00000212046D4E91423FFF75CFEFDE60B2239
:101CD00084F84C2083F311882B462A462946204657
:101CE000FFF762FEE3E700BF203E0008183E000851
:101CF0001C3E000838B590F84C300446002B3ED00E
:101D0000063BDAB20F2A34D80F2B32D8DFE803F0C3
:101D100037313108223231313131313131313737D8
:101D2000456DB0F862309D4214D2C3681B8AB5FB82
:101D3000F3F203FB12556DB9302383F311882B4660
:101D40002A462946FFF730FE85F311880A2384F8D6
:101D50004C300EE0142384F84C30302383F3118888
:101D6000002320461A461946FFF70CFE002383F392
:101D7000118838BD836D03B198470023E7E7002140
:101D8000204601F083FA0021204601F075FA6368CD
:101D90001B6813B10621204698470623D7E70000A9
:101DA00010B590F84C300446142B29D017D8062BC8
:101DB00005D001D81BB110BD093B022BFBD8002177
:101DC000204601F063FA0021204601F055FA6368CD
:101DD0001B6813B1062120469847062319E0152BEE
:101DE000E9D10B2380F84C30302383F31188002392
:101DF0001A461946FFF7D8FD002383F31188DAE766
:101E0000C3689B695B68002BD5D1836D03B198478C
:101E1000002384F84C30CEE7002382680375036901
:101E20001B6899689142FBD25A6803604260106057
:101E30005860704700238268037503691B689968BE
:101E40009142FBD85A680360426010605860704746
:101E500008B50846302383F311880B7D032B05D08A
:101E6000042B0DD02BB983F3118808BD8B69002298
:101E70001A604FF0FF338361FFF7CEFF0023F2E7D4
:101E8000D1E9003213605A60F3E70000FFF7C4BFE6
:101E9000054BD96808751868026853601A600122FA
:101EA000D8600275FEF73EBA282B02200C4B30B5E5
:101EB000DD684B1C87B004460FD02B46094A6846A4
:101EC00000F04EF92046FFF7E3FF009B13B1684690
:101ED00000F050F9A86907B030BDFFF7D9FFF9E766
:101EE000282B0220511E0008044B1A68DB689068FA
:101EF0009B68984294BF002001207047282B022045
:101F0000084B10B51C68D868226853601A6001221B
:101F1000DC602275FFF78EFF01462046BDE81040C9
:101F2000FEF700BA282B022038B5074C0123002504
:101F3000064907482370656001F0C0FB0223237047
:101F400085F3118838BD00BF902D0220283E00087F
:101F5000282B022000F044B9034A516853685B1AE9
:101F60009842FBD8704700BF001000E08B6002234E
:101F7000086108468B8270478368A3F1840243F8A6
:101F8000142C026943F8442C426943F8402C094A56
:101F900043F8242CC268A3F1200043F8182C022235
:101FA00003F80C2C002203F80B2C034A43F8102CE6
:101FB000704700BF3D030008282B022008B5FFF73B
:101FC000DBFFBDE80840FFF761BF0000024BDB68A4
:101FD00098610F20FFF75CBF282B0220302383F38A
:101FE0001188FFF7F3BF000008B50146302383F3E3
:101FF00011880820FFF75AFF002383F3118808BDDA
:10200000064BDB6839B1426818605A601360436060
:102010000420FFF74BBF4FF0FF307047282B022002
:102020000368984206D01A680260506018469961A9
:10203000FFF72CBF7047000038B504460D462068F6
:10204000844200D138BD036823605C608561FFF77E
:102050001DFFF4E7036810B59C68A2420CD85C68C9
:102060008A600B604C602160596099688A1A9A6096
:102070004FF0FF33836010BD121B1B68ECE70000BC
:102080000A2938BF0A2170B504460D460A26601990
:1020900001F00EFB01F0FAFA041BA54203D8751CEF
:1020A00004462E46F3E70A2E04D90120BDE870400D
:1020B00001F044BB70BD0000F8B5144B0D460A2A70
:1020C0004FF00A07D96103F11001826038BF0A227C
:1020D000416019691446016048601861A81801F050
:1020E000D9FA01F0D3FA431B0646A34206D37C1C5F
:1020F00028192746354601F0DBFAF2E70A2F04D902
:102100000120BDE8F84001F019BBF8BD282B0220E2
:10211000F8B506460D4601F0B9FA0F4A134653F8D2
:10212000107F9F4206D12A4601463046BDE8F8405E
:10213000FFF7C2BFD169BB68441A2C1928BF2C46CF
:10214000A34202D92946FFF79BFF224631460348A6
:10215000BDE8F840FFF77EBF282B0220382B022075
:10216000C0E90323002310B45DF8044B4361FFF77B
:10217000CFBF000010B5194C236998420DD081687B
:10218000D0E9003213605A609A680A449A600023CA
:1021900003604FF0FF33A36110BD0268234643F88C
:1021A000102F53600022026022699A4203D1BDE8D9
:1021B000104001F077BA936881680B44936001F096
:1021C00065FA2269E1699268441AA242E4D911448D
:1021D000BDE81040091AFFF753BF00BF282B0220AB
:1021E0002DE9F047DFF8BC8008F110072C4ED8F835
:1021F000105001F04BFAD8F81C40AA68031B9A4211
:102200003ED814444FF00009D5E90032C8F81C400C
:1022100013605A60C5F80090D8F81030B34201D16D
:1022200001F040FA89F31188D5E90331284698472F
:10223000302383F311886B69002BD8D001F026FA84
:102240006A69A0EB040982464A450DD2022001F0DA
:1022500075FA0022D8F81030B34208D1514628460A
:10226000BDE8F047FFF728BF121A2244F2E712EB4D
:1022700009092946384638BF4A46FFF7EBFEB5E75D
:10228000D8F81030B34208D01444C8F81C00211A02
:10229000A960BDE8F047FFF7F3BEBDE8F08700BFD7
:1022A000382B0220282B022000207047FEE7000078
:1022B000704700004FF0FF307047000002290CD03B
:1022C000032904D00129074818BF00207047032ABA
:1022D00005D8054800EBC20070470448704700204D
:1022E000704700BF043F00084C220220B83E00089F
:1022F00070B59AB005460846144601A900F0C2F828
:1023000001A8FEF73DFD431C0022C6B25B0010464B
:10231000C5E9003423700323023404F8013C01AB07
:10232000D1B202348E4201D81AB070BD13F8011B2D
:10233000013204F8010C04F8021CF1E708B530235F
:1023400083F311880348FFF751FA002383F31188C0
:1023500008BD00BF982D022090F85C3003F01F02EA
:10236000012A07D190F85D200B2A03D10023C0E990
:10237000143315E003F06003202B08D1B0F860306F
:102380002BB990F85D20212A03D81F2A04D8FFF723
:102390000FBA222AEBD0FAE7034A02650722426508
:1023A00083650120704700BF4322022007B505293D
:1023B00017D8DFE801F0191603191920302383F329
:1023C0001188104A01210190FFF7B6FA0198022105
:1023D0000D4AFFF7B1FA0D48FFF7D4F9002383F354
:1023E000118803B05DF804FB302383F3118807489C
:1023F000FFF79EF9F2E7302383F311880348FFF7D4
:10240000B5F9EBE7583E00087C3E0008982D022005
:1024100038B50C4D0C4C2A460C4904F10800FFF766
:1024200067FF05F1CA0204F110000949FFF760FFD8
:1024300005F5CA7204F118000649BDE83840FFF7F7
:1024400057BF00BF703602204C220220343E0008E5
:10245000413E00084C3E000870B5044608460D4653
:10246000FEF78EFCC6B22046013403780BB918463D
:1024700070BD32462946FEF76FFC0028F3D10120DB
:10248000F6E700002DE9F04705460C46FEF778FC1C
:102490002B49C6B22846FFF7DFFF08B10A36F6B26D
:1024A00028492846FFF7D8FF08B11036F6B2632E48
:1024B0000BD8DFF88C80DFF88C90234FDFF894A0E6
:1024C0002E7846B92670BDE8F08729462046BDE83B
:1024D000F04701F04FBC252E2ED107224146284659
:1024E000FEF73AFC70B9194B224603F1100153F87C
:1024F000040B8B4242F8040BF9D11B7807351134D9
:102500001370DDE7082249462846FEF725FC98B9F6
:10251000A21C0F4B197802320909C95D02F8041C8C
:1025200013F8011B01F00F015345C95D02F8031CAC
:10253000F0D118340835C3E7013504F8016BBFE763
:10254000243F00084C3E00083E3F00082C3F000896
:1025500020F4F01F2CF4F01FBFF34F8F024AD36812
:10256000DB03FCD4704700BF003C024008B5074BBA
:102570001B7853B9FFF7F0FF054B1A69002A04DAFC
:10258000044A5A6002F188325A6008BDCE380220EF
:10259000003C02402301674508B5054B1B7833B961
:1025A000FFF7DAFF034A136943F00043136108BDE4
:1025B000CE380220003C02400B28F0B516D80C4C57
:1025C0000C4923787BB90E460B4D0C234FF000626B
:1025D000013B55F8047B46F8042B13F0FF033A4403
:1025E000F6D10123237051F82000F0BD0020FCE754
:1025F00000390220D0380220503F0008014B53F828
:1026000020007047503F00080C2070470B2810B581
:10261000044601D9002010BDFFF7CEFF064B53F84A
:1026200024301844C21A0BB90120F4E712680132B1
:10263000F0D1043BF6E700BF503F00080B2810B56F
:10264000044621D8FFF788FFFFF790FF0F4AF323D6
:10265000D360C300DBB243F4007343F002031361A1
:10266000136943F480331361FFF776FFFFF7A4FF8C
:10267000074B53F8241000F0D9F82046FFF78CFFE1
:10268000BDE81040FFF7C2BF002010BD003C024073
:10269000503F0008F8B512F00103144642D18218E9
:1026A000B2F1026F57D82D4B1B6813F0010352D0C3
:1026B000FFF75CFF2A4DF32340F20127EB60FFF7A1
:1026C0004BFF032C15D824F00104401A40F20117E7
:1026D0006618234CB14200EB0105236924D123F095
:1026E000010301202361FFF757FFF8BD043C0430CC
:1026F000E7E78307E7D12B6923F440732B612B694C
:102700003B432B6151F8046B0660BFF34F8FFFF71B
:1027100023FF03689E42E9D02B6923F001032B615C
:10272000FFF73AFF0020E0E723F4407323612369B9
:102730003B4323610B882B80BFF34F8FFFF70CFFC8
:102740002D88ADB231F8023BAB42C3D0236923F0F0
:1027500001032361E4E71846C7E700BF00380240E1
:10276000003C0240084908B50B7828B11BB9FFF7B7
:10277000FDFE01230B7008BD002BFCD00870BDE8E6
:102780000840FFF709BF00BFCE3802200244074BC4
:10279000D2B210B5904200D110BD441C00B253F823
:1027A000200041F8040BE0B2F4E700BF50280040DD
:1027B0000F4B30B51C6F240407D41C6F44F4007415
:1027C0001C671C6F44F400441C670A4C02442368D5
:1027D000D2B243F480732360074B904200D130BDE6
:1027E000441C51F8045B00B243F82050E0B2F4E717
:1027F00000380240007000405028004007B5012218
:1028000001A90020FFF7C2FF019803B05DF804FBA7
:1028100013B50446FFF7F2FFA04205D0012201A93B
:1028200000200194FFF7C4FF02B010BD0144BFF3C4
:102830004F8F064B884204D3BFF34F8FBFF36F8F88
:102840007047C3F85C022030F4E700BF00ED00E001
:10285000034B1A681AB9034AD2F874281A607047F1
:10286000043902200030024008B5FFF7F1FF024BA7
:102870001868C0F3407008BD0439022070B5BFF37A
:102880004F8FBFF36F8F1A4A0021C2F85012BFF367
:102890004F8FBFF36F8F536943F400335361BFF31E
:1028A0004F8FBFF36F8FC2F88410BFF34F8FD2F8F2
:1028B000803043F6E074C3F3C900C3F34E335B01C9
:1028C00003EA0406014646EA81750139C2F86052FE
:1028D000F9D2203B13F1200FF2D1BFF34F8F536990
:1028E00043F480335361BFF34F8FBFF36F8F70BDDD
:1028F00000ED00E0FEE70000214B2248224A70B5BF
:10290000904237D3214BC11EDA1C121A22F0030267
:102910008B4238BF00220021FEF73AFA1C4A0023FE
:10292000C2F88430BFF34F8FD2F8803043F6E074A2
:10293000C3F3C900C3F34E335B0103EA0406014647
:1029400046EA81750139C2F86C52F9D2203B13F185
:10295000200FF2D1BFF34F8FBFF36F8FBFF34F8FB5
:10296000BFF36F8F0023C2F85032BFF34F8FBFF316
:102970006F8F70BD53F8041B40F8041BC0E700BF05
:102980005C410008183A0220183A0220183A022046
:1029900000ED00E070B5D0E91B4300224FF0FF3599
:1029A0009E6804EB42135101D3F80009002805DAB0
:1029B000D3F8000940F08040C3F80009D3F8000BB9
:1029C000002805DAD3F8000B40F08040C3F8000B74
:1029D000013263189642C3F80859C3F8085BE0D285
:1029E0004FF00113C4F81C3870BD0000890141F09C
:1029F0002001016103699B06FCD41220FFF7ACBAE9
:102A000010B5054C2046FEF773FF4FF0A043E36678
:102A1000024B236710BD00BF08390220A43F000805
:102A200070B503780546012B50D12A4BC46E9842ED
:102A30001BD1294B0E2143205A6B42F080025A636E
:102A40005A6D42F080025A655A6D5A6942F080020E
:102A50005A615A6922F080025A615B6900F034FCC5
:102A60001E4BE3601E4BC4F800380023EE6EC4F822
:102A7000003EC02323604FF40413A3633369002B8B
:102A8000FCDA01230C203361FFF766FA3369DB07B8
:102A9000FCD41220FFF760FA3369002BFCDA002621
:102AA0002846A660FFF776FF6B68C4F81068DB68FD
:102AB000C4F81468C4F81C684BB90A4BA3614FF002
:102AC000FF336361A36843F00103A36070BD064B4D
:102AD000F4E700BF083902200038024040140040EB
:102AE00003002002003C30C0083C30C0F8B5C46E82
:102AF000054600214FF000662046FFF777FF296F5B
:102B000000234FF001128F684FF0FF30C4F83438C3
:102B1000C4F81C2804EB431201339F42C2F8006939
:102B2000C2F8006BC2F80809C2F8080BF2D20B68B1
:102B3000EA6E6B67636210231361166916F0100664
:102B4000FBD11220FFF708FAD4F8003823F4FE6313
:102B5000C4F80038A36943F4402343F01003A36191
:102B60000923C4F81038C4F814380A4BEB604FF04E
:102B7000C043C4F8103B084BC4F8003BC4F81069CC
:102B8000C4F800396B6F03F1100243F480136A67D5
:102B9000A362F8BD803F000840800010C26E90F82C
:102BA0006610D2F8003823F4FE6343EA0113C2F83A
:102BB000003870472DE9F84300EB8103C56E0C46E1
:102BC0008046DA680FFA81F94801166806F00306B4
:102BD000731E022B05EB41134FF0000194BFB604A6
:102BE000384EC3F8101B4FF0010104F1100398BFD9
:102BF00006F1805601FA03F3916998BF06F5004685
:102C000000293AD0578A04F15801374349016F50DF
:102C1000D5F81C180B430021C5F81C382B180127C8
:102C2000C3F81019A7405369611E9BB3138A928B96
:102C30009B08012A88BF5343D8F87420981842EAA9
:102C4000034301F140022146C8F87400284605EB11
:102C500082025360FFF7CAFE08EB8900C3681B8A33
:102C600043EA845348341E4364012E51D5F81C387E
:102C70001F43C5F81C78BDE8F88305EB4917D7F862
:102C8000001B21F40041C7F8001BD5F81C1821EAED
:102C90000303C0E704F13F030B4A2846214605EB36
:102CA00083035A60FFF7A2FE05EB4910D0F8003904
:102CB00023F40043C0F80039D5F81C3823EA07078D
:102CC000D7E700BF0080001000040002026F126806
:102CD0004267FFF75FBE00005831C36E49015B5881
:102CE00013F4004004D013F4001F0CBF0220012095
:102CF000704700004831C36E49015B5813F400402F
:102D000004D013F4001F0CBF022001207047000004
:102D100000EB8101CB68196A0B6813604B68536044
:102D20007047000000EB810330B5DD68AA691368C5
:102D3000D36019B9402B84BF402313606B8A146899
:102D4000C26E1C4402EB4110013C09B2B4FBF3F427
:102D50006343033323F0030343EAC44343F0C04314
:102D6000C0F8103B2B6803F00303012B0ED1D2F8FF
:102D7000083802EB411013F4807FD0F8003B14BFF9
:102D800043F0805343F00053C0F8003B02EB411284
:102D9000D2F8003B43F00443C2F8003B30BD0000D2
:102DA0002DE9F041244D0446EE6E06EB4013D3F8B6
:102DB000087B3807C3F8087B0AD5D6F814381907FA
:102DC00006D505EB840321462846DB685B689847F7
:102DD000FA071FD5D6F81438DB071BD505EB84039B
:102DE000D968CCB98B69488A5A68B2FBF0F600FB07
:102DF00016228AB91868DA6890420DD2121AC3E90D
:102E00000024302383F311880B482146FFF78AFF03
:102E100084F31188BDE8F081012303FA04F26B8981
:102E200023EA02036B81CB68002BF3D021460248D2
:102E3000BDE8F041184700BF0839022000EB8103CC
:102E40004A0170B5DD68C36E6C692668E66056BBE2
:102E50001A444FF40020C2F810092A6802F0030255
:102E6000012A0AB20ED1D3F8080803EB421410F479
:102E7000807FD4F8000914BF40F0805040F000502B
:102E8000C4F8000903EB4212D2F8000940F00440F4
:102E9000C2F800090122D3F8340802FA01F1014313
:102EA000C3F8341870BD19B9402E84BF402020608B
:102EB00020681A442E8A8419013CB4FBF6F440EAD7
:102EC000C44040F00050C6E72DE9F8433B4D0446AE
:102ED0004701EE6E06EB4013D3F8088918F0010F96
:102EE000C3F808891AD0D6F81038DB0716D505EBD9
:102EF0008003D9684B691868DA68904230D2121A98
:102F00004FF000091A60C3F80490302383F311884E
:102F100021462846FFF792FF89F3118818F0800FA9
:102F20001CD0D6F834380126A640334216D005EB23
:102F300084030134ED6ED3F80CC0E4B22F44DCF806
:102F4000142005EB0434D2F800E05168714515D324
:102F5000D5F8343823EA0606C5F83468BDE8F883A6
:102F6000012303FA04F22B8923EA02032B818B68E5
:102F7000002BD3D0214628469847CFE7AEEB01037C
:102F8000BCF81000834228BF0346D7F8180980B266
:102F9000B3EB800FE2D89068A0F1040959F8048FD0
:102FA000C4F80080A0EB09089844B8F1040FF5D8E4
:102FB00018440B4490605360C7E700BF08390220F3
:102FC0002DE9F74FA44CE56E6E69AB691E4016F40F
:102FD00080586E6107D02046FEF7F8FC03B0BDE8CC
:102FE000F04F00F069BC002E12DAD5F8003E9B07C6
:102FF00005D0D5F8003E23F00303C5F8003ED5F810
:103000000438954823F00103C5F80438FEF70AFD9B
:10301000370505D59048FFF7BDFC8F48FEF7F0FC5B
:10302000B0040CD5D5F8083813F0060FEB6823F47C
:1030300070530CBF43F4105343F4A053EB603107BB
:103040001BD56368DB681BB9AB6923F00803AB6170
:103050002378052B0CD1D5F8003E9A0705D0D5F87A
:10306000003E23F00303C5F8003E7B48FEF7DAFC80
:103070006368DB680BB178489847F30200F18980F8
:10308000B70227D5D4F86C9000274FF0010ADFF87B
:10309000C8B109EB4712D2F8003B03F44023B3F563
:1030A000802F11D1D2F8003B002B0DDA62890AFA89
:1030B00007F322EA0303638104EB8703DB68DB6821
:1030C00013B13946584698470137236FFFB29B68C2
:1030D0009F42DED9F00617D5E76E3A6AC2F30A10AE
:1030E00002F00F0302F4F012B2F5802F00F0988086
:1030F000B2F5402F08D104EB8303002207F5805777
:10310000DB681B6A90427ED13303D5F818481DD581
:10311000E70302D50020FFF743FEA50302D50120F7
:10312000FFF73EFE600302D50220FFF739FE2103C0
:1031300002D50320FFF734FEE20202D50420FFF798
:103140002FFEA30202D50520FFF72AFE77037FF5A5
:1031500045AFE60702D50020FFF7B6FEA50702D56A
:103160000120FFF7B1FE600702D50220FFF7ACFE99
:10317000210702D50320FFF7A7FEE20602D50420AF
:10318000FFF7A2FEA3067FF529AF0520FFF79CFEFF
:1031900024E7E36E00274FF00109DFF8BCA001939C
:1031A000236F5FFA87FB9B689B453FF669AF019BE6
:1031B00003EB4B13D3F8001901F44021B1F5802F34
:1031C0001FD1D3F8001900291BDAD3F8001941F0F8
:1031D0009041C3F80019D3F800190029FBDB5946C8
:1031E000E06EFFF703FC218909FA0BF321EA0303E0
:1031F000238104EB8B03DB689B6813B1594650466F
:1032000098470137CCE7910701D1D7F80080072A0A
:1032100002F101029CBF03F8018B4FEA182871E705
:10322000023307F5805704EB83025268D2F818C0C6
:10323000DCF80820DCE9001CA1EB0C0C0021884222
:103240000CD104EB830463689B699A6802449A601A
:103250005A6802445A6057E70839022011F0030FF8
:1032600001D1D7F800808C4501F1010184BF02F83B
:10327000018B4FEA1828E2E7C36E03EB4111D1F846
:10328000003B43F40013C1F8003B7047C36E03EBEF
:103290004111D1F8003943F40013C1F800397047E7
:1032A000C36E03EB4111D1F8003B23F40013C1F8C6
:1032B000003B7047C36E03EB4111D1F8003923F492
:1032C0000013C1F800397047090100F16043012281
:1032D00003F56143C9B283F8001300F01F039A405D
:1032E00043099B0003F1604303F56143C3F8802168
:1032F0001A60704730B50433039C0172002104FB4F
:103300000325C160C0E90653049B0363059BC0E924
:103310000000C0E90422C0E90842C0E90A11436381
:1033200030BD00000022416AC260C0E90411C0E95A
:103330000A226FF00101FEF77FBE0000D0E90432DF
:10334000934201D1C2680AB9181D70470020704726
:10335000036919600021C2680132C260C269134466
:1033600082699342036124BF436A0361FEF758BE3A
:1033700038B504460D46E3683BB162690020131D71
:103380001268A3621344E36207E0237A33B9294643
:103390002046FEF735FE0028EDDA38BD6FF001005B
:1033A000FBE70000C368C269013BC3604369134483
:1033B00082699342436124BF436A4361002383626D
:1033C000036B03B11847704770B53023044683F38D
:1033D0001188866A3EB9FFF7CBFF054618B186F320
:1033E0001188284670BDA36AE26A13F8015B934214
:1033F000A36202D32046FFF7D5FF002383F3118891
:10340000EFE700002DE9F84F04460E4617469846B0
:103410004FF0300989F311880025AA46D4F828B066
:10342000BBF1000F09D141462046FFF7A1FF20B1B3
:103430008BF311882846BDE8F88FD4E90A12A7EB70
:10344000050B521A934528BF9346BBF1400F1BD979
:10345000334601F1400251F8040B914243F8040B4A
:10346000F9D1A36A403640354033A362D4E90A2338
:103470009A4202D32046FFF795FF8AF31188BD4296
:10348000D8D289F31188C9E730465A46FDF75AFC6D
:10349000A36A5E445D445B44A362E7E710B5029C07
:1034A0000433017203FB0421C460C0E90613002346
:1034B000C0E90A33039B0363049BC0E90000C0E931
:1034C0000422C0E90842436310BD0000026A6FF0A5
:1034D0000101C260426AC0E904220022C0E90A2256
:1034E000FEF7AABDD0E904239A4201D1C26822B9ED
:1034F000184650F8043B0B60704700231846FAE763
:10350000C3680021C2690133C360436913448269FF
:103510009342436124BF436A4361FEF781BD0000CB
:1035200038B504460D46E3683BB1236900201A1DF7
:10353000A262E2691344E36207E0237A33B92946C1
:103540002046FEF75DFD0028EDDA38BD6FF0010082
:10355000FBE7000003691960C268013AC260C269F2
:10356000134482699342036124BF436A03610023C9
:103570008362036B03B118477047000070B53023B6
:103580000D460446114683F31188866A2EB9FFF76B
:10359000C7FF10B186F3118870BDA36A1D70A36ABE
:1035A000E26A01339342A36204D3E16920460439FD
:1035B000FFF7D0FF002080F31188EDE72DE9F84FE9
:1035C00004460D46904699464FF0300A8AF311881A
:1035D0000026B346A76A4FB949462046FFF7A0FF29
:1035E00020B187F311883046BDE8F88FD4E90A0787
:1035F0003A1AA8EB0607974228BF1746402F1BD957
:1036000005F1400355F8042B9D4240F8042BF9D1F5
:10361000A36A40364033A362D4E90A239A4204D312
:10362000E16920460439FFF795FF8BF31188464581
:10363000D9D28AF31188CDE729463A46FDF782FBB5
:10364000A36A3D443E443B44A362E5E7D0E904233A
:103650009A4217D1C3689BB1836A8BB1043B9B1A12
:103660000ED01360C368013BC360C3691A44836909
:103670009A42026124BF436A0361002383620123EB
:10368000184670470023FBE700F040B94FF0804335
:10369000586A70474FF08043002258631A61022233
:1036A000DA6070474FF080430022DA607047000014
:1036B0004FF0804358637047FEE7000070B51B4B26
:1036C0000025044686B058600E468562016300F00E
:1036D000CBF804F11003A560E562C4E904334FF0B0
:1036E000FF33C4E90044C4E90635FFF7CFFF2B469A
:1036F000024604F134012046C4E9082380230C4A21
:103700002565FEF733FC01230A4AE0600092037549
:10371000684672680192B268CDE90223064BCDE992
:103720000435FEF74BFC06B070BD00BF902D0220A3
:10373000B03F0008B53F0008B9360008024AD36A16
:103740001843D062704700BF282B02204B684360AB
:103750008B688360CB68C3600B6943614B6903620C
:103760008B6943620B6803607047000008B52C4BFF
:1037700040F2FF712B481A690A431A611A6922F450
:10378000FF6222F007021A611A691A6B0A431A6370
:103790001A6D0A431A65244A1B6D1146FFF7D6FFBE
:1037A00000F5806002F11C01FFF7D0FF00F580609A
:1037B00002F13801FFF7CAFF00F5806002F1540101
:1037C000FFF7C4FF00F5806002F17001FFF7BEFF54
:1037D00000F5806002F18C01FFF7B8FF00F5806012
:1037E00002F1A801FFF7B2FF00F5806002F1C40109
:1037F000FFF7ACFF00F5806002F1E001FFF7A6FFE4
:1038000000F5806002F1FC01FFF7A0FF02F58C716A
:1038100000F58060FFF79AFFBDE8084000F0ECB8C3
:103820000038024000000240BC3F000808B500F02C
:1038300081FAFEF779FBFFF70BF8BDE80840FEF7C9
:10384000E7BD000070470000EFF3098305496833C6
:103850004A6B22F001024A6383F30988002383F351
:103860001188704700EF00E0302080F3118862B6C5
:103870000D4B0E4AD96821F4E0610904090C0A4392
:103880000B49DA60D3F8FC2042F08072C3F8FC20C8
:10389000084AC2F8B01F116841F0010111602022EE
:1038A000DA7783F82200704700ED00E00003FA05A4
:1038B00055CEACC5001000E0302310B583F311885D
:1038C0000E4B5B6813F4006314D0F1EE103AEFF383
:1038D00009844FF08073683CE361094BDB6B23661E
:1038E00084F30988FEF700FB10B1064BA36110BDFD
:1038F000054BFBE783F31188F9E700BF00ED00E01B
:1039000000EF00E04F030008520300080F4B1A6C51
:1039100042F001021A641A6E42F001021A660C4A61
:103920001B6E936843F0010393604FF080436B225A
:103930009A624FF0FF32DA6200229A615A63DA60CB
:103940005A6001225A611A60704700BF0038024075
:10395000002004E04FF0804208B51169D3680B40A5
:10396000D9B29B076FEA0101116107D5302383F3B8
:103970001188FEF7EFFA002383F3118808BD0000D9
:103980001B4B4FF0FF3000211A696FEA42526FEA79
:1039900052521A611A69C2F30A021A611A695A6903
:1039A00058615A6959615A691A6A62F080521A62FA
:1039B0001A6A02F080521A621A6A5A6A58625A6A7D
:1039C00059625A6A0B4A106840F480701060186F90
:1039D00000F44070B0F5007F03D04FF480301867DA
:1039E0001967536823F40073536000F073B900BF84
:1039F0000038024000700040364B4FF44041364AD8
:103A00001A64364A11601A6842F001021A601A6894
:103A10009207FCD59A6822F003029A602D4B9A68AF
:103A200012F00C02FBD1196801F0F90119609A60DB
:103A30001A6842F480321A601A689003FCD55A6FF3
:103A400042F001025A67234B5A6F9107FCD5244A72
:103A50005A601A6842F080721A60204B5A68520409
:103A6000FCD51A6842F480321A605A68D003FCD53B
:103A70001A6842F400321A60184A53689903FCD558
:103A8000144B1A689201FCD5164A9A6040F2011252
:103A9000C3F88C200022C3F8902040F20733124A6A
:103AA0001360136803F00F03072BFAD1094B9A68D0
:103AB00042F002029A609A6802F00C02082AFAD1D7
:103AC0005A6C42F480425A645A6E42F480425A66FA
:103AD0005B6E704700380240000400100070004028
:103AE000186C400900948838003C0240074A08B529
:103AF000536903F00103536123B1054A13680BB105
:103B000050689847BDE80840FFF7D6BE003C01402A
:103B100098390220074A08B5536903F0020353613C
:103B200023B1054A93680BB1D0689847BDE80840B7
:103B3000FFF7C2BE003C014098390220074A08B591
:103B4000536903F00403536123B1054A13690BB1B0
:103B500050699847BDE80840FFF7AEBE003C014001
:103B600098390220074A08B5536903F008035361E6
:103B700023B1054A93690BB1D0699847BDE8084065
:103B8000FFF79ABE003C014098390220074A08B569
:103B9000536903F01003536123B1054A136A0BB153
:103BA000506A9847BDE80840FFF786BE003C0140D8
:103BB00098390220164B10B55C6904F478725A618A
:103BC000A30604D5134A936A0BB1D06A98476006DE
:103BD00004D5104A136B0BB1506B9847210604D5DE
:103BE0000C4A936B0BB1D06B9847E20504D5094A98
:103BF000136C0BB1506C9847A30504D5054A936C20
:103C00000BB1D06C9847BDE81040FFF755BE00BF20
:103C1000003C014098390220194B10B55C6904F44E
:103C20007C425A61620504D5164A136D0BB1506D82
:103C30009847230504D5134A936D0BB1D06D98476F
:103C4000E00404D50F4A136E0BB1506E9847A104DF
:103C500004D50C4A936E0BB1D06E9847620404D51C
:103C6000084A136F0BB1506F9847230404D5054AD7
:103C7000936F0BB1D06F9847BDE81040FFF71CBEA3
:103C8000003C01409839022008B50348FDF744FA8A
:103C9000BDE80840FFF710BEE023022008B5034846
:103CA000FDF73AFABDE80840FFF706BE4C240220B3
:103CB00008B50348FDF730FABDE80840FFF7FCBD42
:103CC000B824022008B5FFF745FEBDE80840FFF71D
:103CD000F3BD0000062108B50846FFF7F5FA0621F6
:103CE0000720FFF7F1FA06210820FFF7EDFA062179
:103CF0000920FFF7E9FA06210A20FFF7E5FA062175
:103D00001720FFF7E1FA06212820FFF7DDFA072147
:103D10001C20FFF7D9FA0C212620FFF7D5FA0C2139
:103D20002720FFF7D1FA0C215220BDE80840FFF709
:103D3000CBBA000008B5FFF723FE00F00DF8FDF741
:103D400003FCFDF7D3FDFDF7ABFCFFF77BFDBDE802
:103D50000840FFF799BC00000023054A19460133CB
:103D6000102BC2E9001102F10802F8D1704700BF20
:103D700098390220034611F8012B03F8012B002A81
:103D8000F9D1704753544D3332463F3F3F3F3F3F99
:103D90000053544D333246375B347C355D780053E5
:103DA000544D333246375B367C375D780000000077
:103DB000009600000000000000000000000000006D
:103DC00000000000000000000000000009150008CD
:103DD000F5140008311500081D1500082915000804
:103DE0001515000801150008ED1400083D15000820
:103DF000000000001D1600080916000845160008FE
:103E0000311600083D16000829160008151600088E
:103E10000116000851160008000000000100000013
:103E20000000000063300000243E0008802B0220C8
:103E3000902D02204865782F50726F6669434E437B
:103E40000025424F415244252D424C0025534552F6
:103E500049414C2500000000020000000000000065
:103E600039180008A518000840004000403602201C
:103E70005036022002000000000000000300000095
:103E800000000000E9180008000000001000000019
:103E90006036022000000000010000000000000069
:103EA0000839022001010200AD230008BD220008EC
:103EB000592300083D23000843000000C03E0008CD
:103EC00009024300020100C032090400000102029D
:103ED0000100052400100105240100010424020250
:103EE0000524060001070582030800FF09040100FC
:103EF000020A0000000705010240000007058102D8
:103F000040000000120000000C3F000812011001E8
:103F100002000040AE2D0210000201020301000069
:103F20000403090425424F4152442500437562654C
:103F300059656C6C6F772D626473686F74003031F3
:103F40003233343536373839414243444546000030
:103F50000080000000800000008000000080000061
:103F60000000020000000400000004000000040043
:103F70000000040000000400000004000000040031
:103F8000000000003D1A0008F51C0008A11D0008F3
:103F900040004000803902208039022001000000EA
:103FA0009039022080000000400100000500000060
:103FB0006D61696E0069646C650000000000802A14
:103FC00000000000AAAAAAAA00000024FFFF000027
:103FD0000000000000A00A00000100000000000036
:103FE000AAAAAAAA00000000FFFF0000000000002B
:103FF000000000001400005400000000AAAAAAAAB1
:1040000014000054FFFF000000000000000000004A
:1040100080699A0100000000AAAA8AAA40565502A7
:10402000FFFF000000707007777000000081020041
:1040300000000000AAAAAAAA00410100FFFF000098
:1040400000000080080000000000000000000000E8
:10405000AAAAAAAA00000000FFFF000000000000BA
:10406000000000000000000000000000AAAAAAAAA8
:1040700000000000FFFF0000000000000000000042
:104080000000000000000000AAAAAAAA0000000088
:10409000FFFF000000000000000000000000000022
:1040A00000000000AAAAAAAA00000000FFFF00006A
:1040B0000000000000000000000000000000000000
:1040C000AAAAAAAA00000000FFFF0000000000004A
:1040D000000000000000000000000000AAAA00008C
:1040E00000000000FF0000000000000000000000D1
:1040F000780000000000000000801E0000000000AA
:10410000FF000000982D0220E02302204C24022012
:10411000B824022000000000843D0008490400008B
:10412000913D0008510400009F3D000800960000EA
:1041300000000800960000000008000004000000D5
:10414000203F000800000000000000000000000008
:0C41500000000000000000000000000063
:00000001FF
