:020000040800F2
:1000000000070020F102000849230008FD22000833
:1000100025230008FD2200081D230008F302000824
:10002000F3020008F3020008F3020008ED4F000895
:10003000F3020008F3020008F3020008F3020008CC
:10004000F3020008F3020008F3020008F3020008BC
:10005000F3020008F3020008B1680008DD68000838
:10006000096900083569000861690008012900086C
:10007000292900085529000881290008AD29000810
:10008000D5290008012A0008F3020008F30200083D
:10009000F3020008F3020008F30200088D6900086B
:1000A000F3020008F3020008F3020008F30200085C
:1000B000F3020008F3020008F3020008F30200084C
:1000C000F3020008F3020008F3020008F30200083C
:1000D000F3020008F3020008796A0008F30200083E
:1000E000F1690008F3020008F3020008F3020008B7
:1000F000F3020008F3020008F30200082D2A0008AA
:10010000F3020008F3020008A16A0008F3020008E5
:10011000F3020008F3020008F3020008F3020008EB
:10012000592A0008812A0008AD2A0008D92A0008A7
:10013000052B0008F3020008F3020008F302000890
:10014000F3020008F3020008F3020008F3020008BB
:100150002D2B0008592B0008852B0008F3020008FE
:10016000F3020008F3020008F3020008F30200089B
:10017000F3020008755D0008F3020008F3020008AE
:10018000F3020008F30200088D6A0008F302000879
:10019000F3020008F3020008F3020008F30200086B
:1001A000F3020008F3020008F3020008F30200085B
:1001B000656A0008F3020008F3020008F302000871
:1001C000F3020008F3020008F3020008F30200083B
:1001D000F3020008615D0008F3020008F302000862
:1001E000F3020008F3020008F3020008F30200081B
:1001F000F3020008F3020008F3020008F30200080B
:10020000F3020008F3020008F3020008F3020008FA
:10021000F3020008F3020008F3020008F3020008EA
:10022000F3020008F3020008E1510008F30200089D
:10023000F3020008F3020008F3020008F3020008CA
:10024000F3020008F3020008F3020008F3020008BA
:10025000F3020008F3020008F3020008F3020008AA
:10026000F3020008F3020008F3020008F30200089A
:10027000F3020008F3020008F3020008F30200088A
:10028000F3020008F3020008F3020008F30200087A
:10029000F3020008F3020008F3020008F30200086A
:1002A000F3020008F3020008F3020008F30200085A
:1002B000F3020008F3020008F3020008F30200084A
:1002C000F3020008F3020008F3020008F30200083A
:1002D000F3020008F3020008F3020008F30200082A
:1002E000D5040008C51F0008D52200080000000042
:1002F00002E000F000F8FEE772B6374880F30888A5
:10030000364880F3098836483649086040F20000D4
:10031000CCF200004EF63471CEF200010860BFF35B
:100320004F8FBFF36F8F40F20000C0F2F0004EF627
:100330008851CEF200010860BFF34F8FBFF36F8F7B
:100340004FF00000E1EE100A4EF63C71CEF20001D3
:100350000860062080F31488BFF36F8F04F0A8FEB6
:1003600006F082F84FF055301F491B4A91423CBFBE
:1003700041F8040BFAE71D49184A91423CBF41F885
:10038000040BFAE71A491B4A1B4B9A423EBF51F82D
:10039000040B42F8040BF8E700201849184A914270
:1003A0003CBF41F8040BFAE704F0C0FE06F0D0F8B9
:1003B000144C154DAC4203DA54F8041B8847F9E796
:1003C00000F050F8114C124DAC4203DA54F8041B03
:1003D0008847F9E704F0A8BE0007002000230020AA
:1003E0000000000808ED00E00001002000070020E8
:1003F000B8730008002300206C2300207023002025
:1004000028690020E0020008EC020008EC02000865
:10041000EC0200082DE9F04F2DED108AC1F80CD048
:10042000D0F80CD0BDEC108ABDE8F08F002383F328
:1004300011882846A047002003F0E0FEFEE703F005
:100440001FFE00DFFEE70000054B10B50446036009
:10045000806810B103685B689847204610BD00BFF4
:10046000286D000870B500F0A5FD00F0FBFF04F05A
:100470009BFC054604F0B0FD0446B8B9134B9D4201
:1004800016D001339D4241F2883512BF0446002543
:1004900001240F4E002004F091FC304601F0B4FB23
:1004A00040B944F6206003F0AFFEF6E70025F0E720
:1004B0000546EEE70CB100F08FF800F011FF28467A
:1004C00000F038F900F088F8F9E700BF010007B044
:1004D000702300200448054B054A036000230549AA
:1004E000836006F03BBB00BF70230020286D00082E
:1004F000C42500204904000808B500F027FDA0F13C
:1005000020035842584108BD07B5042101900DEB66
:10051000010000F039FD03B05DF804FB07B541F2BE
:100520001203022101A8ADF8043000F02DFD03B044
:100530005DF804FB38B5302383F31188174803684E
:100540000BB103F03FFF0023154A4FF47A711348B3
:1005500003F02EFF002383F31188124C236813B19C
:100560002368013B2360636813B16368013B6360E8
:100570000D4D2B7833B963687BB9022000F0E0FDA4
:10058000322363602B78032B07D163682BB90220D9
:1005900000F0D6FD4FF47A73636038BD002400206C
:1005A000350500082025002018240020084B18706D
:1005B00003280CD8DFE800F008050208022000F04C
:1005C000B7BD022000F0AABD024B00225A6070475E
:1005D0001824002020250020F7B54E4801A901F07D
:1005E00093FC002800F094804B4B4C4A1C46196841
:1005F000013100F08A8004339342F8D16268484B9D
:100600009A4240F28280474B9B6803F1006303F5F6
:1006100000339A4279D2002000F0F2FC0220FFF76A
:10062000C5FF414B00219A6C99641A6F19671A6FC4
:10063000DA6CD9645A6F59675A6F1A6D19659A6FD7
:1006400099679B6F394BD3F8802042F00062C3F862
:100650008020D3F8802022F00062C3F88020D3F8F5
:100660008020D3F8802042F00072C3F88020D3F8B5
:10067000802022F00072C3F88020D3F8803072B658
:100680004FF0E023C3F8084DD4E90004BFF34F8FC7
:10069000BFF36F8F264AC2F88410BFF34F8F5369A0
:1006A00023F480335361BFF34F8FD2F8803043F689
:1006B000E076C3F3C905C3F34E335B0103EA060CCE
:1006C00029464CEA81770139C2F87472F9D2203B8D
:1006D00013F1200FF2D1BFF34F8FBFF36F8FBFF332
:1006E0004F8FBFF36F8F536923F40033536100239F
:1006F000C2F85032BFF34F8FBFF36F8F302383F3B5
:100700001188854680F308882047024800F044FF9E
:1007100003B0F0BD70230020000002082000020892
:10072000FFFF010800230020004502580044025842
:1007300000ED00E02DE9F04FB24B9DB02022FF21EB
:10074000079014A89E68DB68069300F073FDAE4A1C
:100750001378A3B90121AD4811700360302383F3EE
:10076000118803680BB103F02DFE0023A84A4FF453
:100770007A71A64803F01CFE002383F31188079BBF
:1007800013B1A44B079A1A60A34A1378032B03D022
:10079000002313709F4A53600023079D1F469B460A
:1007A000CDE90433012000F0C3FC00F0E9FD2DB1D8
:1007B000984B1B6813B9002800F05883002000F004
:1007C000C5FB0C900C9B002BEFDB012000F0A6FC7E
:1007D0000C9B213B1F2BE5D801A252F823F000BF50
:1007E00061080008890800081F090008A50700081B
:1007F000A5070008A5070008CD0B0008E70D0008B5
:10080000890C0008650D00088B0D0008B10D00086B
:10081000A5070008C30D0008A50700082F0E000853
:1008200001090008A5070008730E0008B3090008B5
:10083000EB0A0008A5070008DD0C0008A507000862
:10084000A5070008A5070008A5070008A5070008D8
:10085000A5070008A5070008A50700081F0900084C
:100860000220FFF749FE002840F02B83079B02215E
:10087000059A0FA8002A08BF1D4641F21233ADF8B1
:100880003C3000F081FB8DE74FF47A7000F05EFBA6
:10089000041EEBDB0220FFF72FFE0028E6D0013C10
:1008A000052C00F21083DFE804F0030A0D10133763
:1008B000052304210FA80F9300F066FB17E0042125
:1008C0005048F9E704215548F6E704215448F3E776
:1008D0004FF01C08404608F1040800F093FB042187
:1008E0000F900FA800F050FBB8F12C0FF2D10120AF
:1008F000049B4FF0000B00FA04F41C43E3B2049392
:1009000000F0E4FC2FB1049B03F00B030B2B08BF9A
:100910000025FFF703FE45E704214248CCE7002FFE
:10092000A4D0049B03F00B030B2B9FD10220FFF7F5
:10093000E3FD0446002899D00120002700F060FB69
:100940000220FFF733FE1FFA87F8404600F068FBED
:100950000546B0B10C9940460137A1F14002514221
:10096000514100F06DFB0028EDD10546059441F2A0
:10097000121302210FA82746ADF83C3000F004FB0B
:1009800010E72E460120FFF711FE1E4B9B68B34275
:1009900007D9304600F036FB013040F0978204362C
:1009A000F3E700261C4B274605941E70194B5E602A
:1009B000A6E7002F3FF45AAF049B03F00B030B2B69
:1009C0007FF454AF64210DA800F0D4FA80460028CB
:1009D0007FF44CAF0220FFF78FFD044600283FF460
:1009E00045AFDFF848908DF82F80D9F82420D9F84A
:1009F000203053430D9A93421AD20B4800F0AAFBC1
:100A000034E700BF002300201C2500200024002024
:100A1000350500082025002018240020042300208C
:100A2000082300200C230020CC6B0008702300203A
:100A3000BE484746C24600F08DFBFFF76FFD01211F
:100A40000DF12F0000F0A0FA0D9B534541D9002372
:100A50000EAA39464846CDE90E330FAB00F0A0FD93
:100A6000002884D001F078FC0E9B00EB03080121E4
:100A70000DF12F0000F088FA01F06EFC404520D9FE
:100A8000484600F0C7FF80B964210D9BA848013794
:100A900001FB0AF1B1FBF3F18DF82F10C9B200F0A0
:100AA00059FBD9F820309A44CEE701F055FC0F9B52
:100AB000184440453FF65BAF01F04EFC0E9B00EB47
:100AC00003080E9B4FF47A70A3FB000303F09CFB1A
:100AD000CDE7642301210DF12F0027468DF82F303B
:100AE00000F052FA002306930AE7002F3FF4BEAE4F
:100AF000049B03F00B030B2B7FF4B8AE0220FFF72F
:100B000055FD322000F022FA041EFFF6AFAE069B20
:100B1000A046E3180893874B089ADB689A423FF691
:100B2000A5AEB4F5807F3FF7A1AEDFF80CA24FF081
:100B300000094C450EDD4FF47A7000F007FA0C9076
:100B40000C9B002BFFF692AE0C9B09F101090AF8F1
:100B5000013BEEE7C820FFF7CFFC044600283FF436
:100B600085AE0027DFF8D491CDE90E77B8F1000FFC
:100B700002D12746089BB6E70FAB6F4A0699484655
:100B800002930EAB3A44394401930DAB00934346B4
:100B900001F022F900283FF4EAAE01F0DFFB0D9BE3
:100BA0008A4609901F44A8EB030801F0D7FB099A75
:100BB0000E9B9B184AF10002834272EB0103F4D2B0
:100BC000484600F027FF0028EFD1CFE7002F3FF481
:100BD0004DAE049B03F00B030B2B7FF447AE0220BA
:100BE000FFF7E4FC322000F0B1F9B0F10008FFF6A5
:100BF0003DAE18F003047FF439AE4E4A08EB06030D
:100C0000926893423FF632AEB8F5807F3FF72EAE42
:100C1000DFF82491A0450DDD4FF47A7000F096F9CD
:100C20000C900C9B002BFFF621AE0C9B013409F8B5
:100C3000013BEFE7C820FFF75FFC044600283FF4C4
:100C400015AE1F2E11D8C6F1200214AB26F00300FA
:100C500039494245184428BF4246089200F0B8FA84
:100C6000089AFF21344800F0E5FAC8F387023249B8
:100C700030464FEAA80900F0E5FA074600283FF49D
:100C800076AE06EB89063BE60220FFF735FC00282E
:100C90003FF4ECAD00F0F2F900283FF4E7AD00249A
:100CA000A046244B9B68A34258D91F2C11D8149BF3
:100CB00001330ED024F003031CAA134453F8203C44
:100CC0000F93404604220FA9043401F083F98046B3
:100CD000E7E7204600F096F90F90F2E764210EA8AE
:100CE00000F048F9044600287FF4C0AD0220FFF769
:100CF00003FC00283FF4BAAD0E9BA046DFF83CA0F1
:100D000003F003090E99A1EB0901A14218D921466C
:100D100004230FAA504601F0ABF8404604220FA965
:100D200001F058F904348046ECE700BFF16B00088D
:100D3000096C0008002300201C24002070230020E0
:100D4000B9F1000F0AD04B460FAA624801F090F8A3
:100D500040464A460FA901F03DF980464046FFF75C
:100D6000D3FBCDE5002364210FA80F9300F002F917
:100D700000287FF47BAD0220FFF7BEFB00283FF484
:100D800075AD0F9800F070F9E9E7002364210FA812
:100D90000F9300F0EFF800287FF468AD0220FFF712
:100DA000ABFB00283FF462AD0F9800F05FF9D6E787
:100DB0000220FFF7A1FB00283FF458AD00F06EF9C8
:100DC000CDE70220FFF798FB00283FF44FAD0FA9B5
:100DD000142000F069F90890FFF796FB08990FA816
:100DE00000F0D2F88CE5322000F0B0F8041EFFF6D7
:100DF0003DADA3077FF43AAD374A04EB0B0392688D
:100E000093423FF633AD0220FFF776FB00283FF414
:100E10002DAD24F003045C44A3453FF471AD584666
:100E20000BF1040B00F0EEF8FFF76EFBF4E74FF464
:100E30007A70FFF761FB00283FF418AD00F01EF94F
:100E4000002845D0149B01330BD0082214A90020A0
:100E500000F0F8F900283BD02022FF2114A800F070
:100E6000E9F9FFF75BFB1D4803F0CEF91DB0BDE8C3
:100E7000F08F002F3FF4FAAC049B03F00B030B2B15
:100E80007FF4F4AC002364210FA80F9300F072F8F4
:100E9000044600287FF4EAAC0220FFF72DFB8046D1
:100EA00000283FF4E3ACFFF739FB41F2883003F050
:100EB000ABF90F9800F0B0FA4746254600F006FA65
:100EC00070E407461CE54FF0000BCFE405944EE5B7
:100ED0003C464CE57023002000230020A086010042
:100EE0002DE9F84F4FF47A7306460D46002402FBB5
:100EF00003F7DFF85080DFF8509098F900305FFA80
:100F000084FA5A1C01D0A34212D159F824002A466F
:100F100031460368D3F820B03B46D847854207D115
:100F2000074B012083F800A0BDE8F88F0124E4E717
:100F3000002CFBD04FF4FA7003F066F90020F3E7C1
:100F4000882500201023002014230020002307B54B
:100F5000024601210DF107008DF80730FFF7C0FFB1
:100F600020B19DF8070003B05DF804FB4FF0FF309F
:100F7000F9E700000A46042108B5FFF7B1FF80F049
:100F80000100C0B2404208BD074B0A4630B4197890
:100F9000064B53F82140014623682046DD69044B87
:100FA000AC4630BC604700BF8825002014230020D9
:100FB000A086010070B5104C0025104E03F0A0FC77
:100FC00020803068238883420CD80025208801388F
:100FD00003F092FC23880544013BB5F5802F238064
:100FE000F4D370BD03F088FC336805440133B5F5D4
:100FF000003F3360E5D3E8E78A2500204025002044
:1010000003F04CBD00F1006000F50030006870474F
:1010100000F10060920000F5003003F0CDBC00004C
:10102000054B1A68054B1B889B1A834202D9104452
:1010300003F062BC00207047402500208A25002074
:1010400038B50446074D29B128682044BDE838402A
:1010500003F06ABC2868204403F054FC0028F3D055
:1010600038BD00BF402500200020704700F1FF5030
:1010700000F58F10D0F8000870470000064991F87D
:10108000243033B100230822086A81F82430FFF7A6
:10109000BFBF0120704700BF48250020014B1868E2
:1010A000704700BF0010005C194B01380322084450
:1010B00070B51D68174BC5F30B042D0C1E88A64296
:1010C0000BD15C680A46013C824213460FD214F9E8
:1010D000016F4EB102F8016BF6E7013A03F1080324
:1010E000ECD181420B4602D22C2203F8012B0424BE
:1010F000094A1688AE4204D1984284BF967803F814
:10110000016B013C02F10402F3D1581A70BD00BF1B
:101110000010005C1C230020446C0008022803D14E
:10112000024B4FF400129A61704700BF001802583A
:10113000022802D1014B20229A6170470018025800
:10114000022804D1024A536983F020035361704797
:10115000001802580FB4124B30B51A78B5B042B926
:101160000122104910481A704FF461430B6002F0DD
:101170000FFA39AB0C4C389AC82102A8019301F040
:10118000BBF82368C8280246DD6902A9074B28BFBF
:10119000C8222046A84735B0BDE8304004B07047AB
:1011A0008C250020902500206C260020A0860100C0
:1011B00070B504464FF47A764CB1412C254628BFD1
:1011C000412506FB05F0641B03F01EF8F4E770BD33
:1011D000002310B5934203D0CC5CC4540133F9E72B
:1011E00010BD0000013810B510F9013F3BB191F975
:1011F00000409C4203D11AB10131013AF4E71AB11F
:1012000091F90020981A10BD1046FCE70138013909
:1012100010F9013F11F9012F0BB19342F8D0981A40
:101220007047000003460246D01A12F9011B00293C
:10123000FAD1704702440346934202D003F8011BDF
:10124000FAE770472DE9F8431F4D144607468846D4
:1012500095F8242052BBDFF870909CB395F82430A9
:101260002BB92022FF2148462F62FFF7E3FF95F8B4
:1012700024004146C0F1080205EB8000A24228BFCD
:101280002246D6B29200FFF7A3FF95F82430A41BA4
:1012900017441E449044E4B2F6B2082E85F8246048
:1012A000DBD1FFF7EBFE0028D7D108E02B6A03EB78
:1012B00082038342CFD0FFF7E1FE0028CBD100208C
:1012C000BDE8F8830120FBE748250020024B1A788F
:1012D000024B1A70704700BF8825002010230020A1
:1012E00070B5204D204E2846204C02F0F3F93146CF
:1012F000284602F01BFA204602F0ECF91C49204671
:1013000002F014FA36684FF47A70D6F89020D2F8CA
:10131000043843F00203C2F80438FFF749FF1549C7
:10132000304602F011FBD6F89020134ED2F8043864
:10133000306823F002031149A842C2F804384FF480
:10134000E1330B6003D0A04201D002F021F97068B4
:10135000A84206D0A04204D00849BDE8704002F07F
:1013600017B970BDB8310020B4700008604A002081
:10137000BC700008C47000081423002070250020F1
:101380002049214BF0B50A68ADF5017D9A4206D09F
:101390000B604FF400431D488B6002F0F9F81C4CC1
:1013A0004FF4007269461B4E236820461D6A0023D5
:1013B000A847021E154D0ADD2B6869462846DF69DD
:1013C0000023B84700F0C8FF00F57A7030602B6842
:1013D0004FF4007269460D481D6A0023A847021E9B
:1013E00005DD236869460A48DC690023A04700F050
:1013F000B3FF336898422CBF002001200DF5017D1A
:10140000F0BD00BF2825002080841E00D8260020C3
:10141000604A0020442500200D4B0E4A70B50E4D49
:1014200004461E7855F82630934210D00B4A93425A
:101430000DD00B4B002118221846FFF7FBFE04606D
:10144000014655F82600BDE8704002F0A1B870BD15
:1014500088250020B831002014230020604A002095
:1014600070250020F8B571B6002301201A461946F0
:1014700001F026FC0446802003F0B2FB002849D08E
:101480000025254A80274FF4D06C3D26136913F0C0
:10149000C06F26D1D2F8103113F0C06F21D123686C
:1014A00005F1006199602368D86023685F60236854
:1014B000C3F800C021680B6843F001030B6021688A
:1014C0000B6823F01E030B6021680B68DB07FCD45C
:1014D000237B8035616806FA03F3B5F5001F0B60C6
:1014E000D4D1204601F022FCB5F5001F11D0002414
:1014F0000A4E0B4D012003F0D1FA3388A34205D9DF
:1015000028682044013403F00FFAF6E7002003F0C6
:10151000C5FA61B6F8BD00BF002000528A25002040
:101520004025002080697047C0697047006A704795
:10153000406A7047806A7047F0B5ADF2044D0E46C0
:10154000054600214FF47F7201A80091FFF772FE5B
:101550002C6A744301362B6A7343A34216D92B6855
:101560006A46214628465F684FF48063B84770B1E9
:101570006A464FF4806312F8011BFF290AD1013B30
:101580009BB2002BF7D104F58064E4E701200DF253
:10159000044DF0BD0020FAE780680368DB69184756
:1015A00030B5456A85B004468D420FD30568CDE954
:1015B0000023026A03ABAD6A5143A84720B1206AF9
:1015C000039BC31A5842584105B030BD0020FBE7C9
:1015D000F0B5C56987B004468D4212D30C9F866969
:1015E00005687143CDE9013705AB00936D69036A66
:1015F000A84720B1A069059BC31A5842584107B0BB
:10160000F0BD0020FBE70000F0B5662389B00024A0
:1016100005464FF480768068079403A9CDE9033628
:10162000CDE9054403685B699847A86822462146CE
:10163000036800941F692346B847A8689923079454
:1016400003A9CDE90336CDE9054403685B699847F2
:10165000A86822462146036800941D692346A847CE
:1016600009B0F0BD254B2DE9F04F1B789FB0002548
:1016700004468DF828304FF09F0E80684FF001230C
:10168000ADF8295005A90995CDE905E3CDE9075540
:1016900003685B699847A0680322294603680092A3
:1016A0002A461E690AABB04730B394F88C200C214F
:1016B000134B01FB02339DF828101A7991421BD17C
:1016C0009DF829205B799A4216D1A0684FF05A0CF8
:1016D0000C4B082605A90996CDE905C3CDE90755A8
:1016E00003685B699847A0682A4629460368009604
:1016F0001F690AABB84738B900204BE1B46B00084A
:10170000FC6C0008002500010422B3490AA805F07A
:1017100039FA05460028EFD1BDF82C306FF48277F6
:10172000A3813B44012BE7D8079605A9CDE90A0020
:10173000A06803685B699847A0682A462946036841
:1017400000961E690AABB0470028D5D0DDE90A36FD
:101750001A0202F4706242EA1662FF2ACCD11B0E12
:1017600026F07F4650222946142B26610AA828BF5E
:101770001423A373FFF75EFDA068079605A903680D
:101780005B699847A068A37B294602689B00009389
:101790000AAB16692A46B0470028ADD00B9900293C
:1017A000AADBC9086FF07E43149D4FF0010E9942E9
:1017B00028BF1946C5F303130EFA03F221FA03F307
:1017C00003916161A261E361002B95D02646A44696
:1017D00000274FF002081EAAC7F3460302EB83035B
:1017E00053F834AC07F001031B01DA1D0EFA03F9BC
:1017F00008FA02F2A2EB090202EA0A02DA401AD05F
:1018000003F108090F330EFA02F2216A08FA03F312
:101810000EFA09FBCCF830208A42A3EB0B0B0BEA43
:101820000A0A2AFA09F98CF82C90A36A88BF226266
:10183000934288BFA26201370CF1100C042FCAD169
:10184000236A4FF0020C039A4FF0010E139F9A4245
:1018500024BFB2FBF3F1616207F00F0138BF01232F
:101860004FF0090201F1010138BF63624900336B97
:1018700033B3531C0EFA02F8A2F105090CFA03F374
:101880000EFA09FAA3EB080302F1FF380CFA08F884
:101890003B40A8EB0A08D34008EA070828FA09F8F1
:1018A0007BD0012B7BD0022B7BD0032B08BF4FF4C6
:1018B0007A735FFA88F808FB033373634B43B363AF
:1018C00007321036252AD2D115F0C04FC5F3417327
:1018D00069D0012B69D0022B0CBF4FF47A634FF40F
:1018E0007A43C5F3046202FB0333E3664B43236789
:1018F000199B9E075CD0062384F8743015F4005FB2
:1019000005F00F03C5F3042514BF4022082201335C
:1019100005FB02255B00A5675D430A9B9F02E56707
:101920007FF5EAAE0C9BC3F30722C3F3421103F029
:101930001F0384F8802084F8881084F88130002AFE
:101940003FF4DAAE189BC3F3025213F4401F84F83D
:1019500083207FF4D1AEDE0602D5042A7FF4CCAE1C
:1019600003F40072002A14BF0122002284F88720A9
:1019700004D0DD0324D5002384F88930179B1A078F
:1019800022D5002384F88630702384F88530012323
:1019900084F88D301FB0BDE8F08F012389E7102354
:1019A00087E7802385E710239BE74FF4807398E750
:1019B000590701D550239FE713F0780F9ED09BE67F
:1019C0009903DBD50123D7E75B07E0D5012384F832
:1019D00086300523D9E700BF546C000830B58BB0C2
:1019E00000240546806803924FF00122059105A965
:1019F000CDE90624CDE90844026852699047A868F9
:101A00000121039B02680091214615692246A847DF
:101A10000BB030BD13B50446A0680368DB6C984773
:101A20000028F9D10DF1070294F885102046FFF740
:101A3000D5FF94F886309DF807001BB100F0010037
:101A400002B010BDC043C0F3C010F9E730B54FF08D
:101A500001238BB00024054680688DF80F20059186
:101A600005A9CDE90634CDE9084403685B699847C8
:101A7000A86801220DF10F01036800941D69234637
:101A8000A8470BB030BD0000F7B517460DF10702AF
:101A900006461D46FFF7A2FF68B19DF8074039468C
:101AA0009DF82020304624EA05042A4022438DF880
:101AB0000720FFF7CBFF03B0F0BD000030B54FF4B7
:101AC000807389B0002405468068039103A9CDE99D
:101AD0000434CDE9064403685B699847A868224648
:101AE0002146036800941D692346A84709B030BD0C
:101AF00010B5044623682046DB6A98470028F9D1D0
:101B000010BD000010B590F8743004465BB1FFF7CB
:101B1000EFFF012394F87410204684F88E30BDE85E
:101B20001040FFF7CBBF012010BD000010B590F8AA
:101B30007430044653B1FFF7DBFF01232046042134
:101B400084F88E30BDE81040FFF7B8BF012010BD0B
:101B5000F0B590F883308BB00446042B50D10027A9
:101B60000DF10E0205218DF80E708DF80F70FFF744
:101B700035FF00282FD00DF10F0235212046FFF749
:101B80002DFF40B320461F4EFFF7BCFF2046FFF756
:101B9000AFFF05AD0FCE0FC5336805A99DF80E2028
:101BA0002B609DF80F30A06843F002038DF81020E1
:101BB0008DF80F308DF8113003685B699847A06885
:101BC000022204A9036800971D693B46A84720B973
:101BD0002046FFF7ABFF002010E02046FFF7A6FFEE
:101BE0000DF10F0235212046FFF7F8FE0028F2D054
:101BF0009DF80F309B07EED5012363600BB0F0BD5D
:101C00000120FBE7B86B00082DE9F34100230446EF
:101C10008068A36010B103685B6898470025264E72
:101C2000264F0C2301A839465FFA85F86B439A5971
:101C300000F072FA019BA0680022A360019210B12B
:101C400003685B689847019810B103685B68984720
:101C5000A368E3B141F2883084F88C8002F0D4FAB2
:101C60002046FFF7D1FC1E2002F0CEFA2046FFF7F7
:101C7000F9FC054688B994F88C300C22104853437F
:101C8000F158FFF767FA284602B0BDE8F081013548
:101C9000032DC6D10B4800F059FB2046FFF758FF33
:101CA0000C2294F88C3005465343F15808B9064885
:101CB000E7E70648E5E700BFFC6C0008A825002020
:101CC0005C6C0008D26C0008866C0008B06C0008E0
:101CD0002DE9F041044688B00F461646FFF712FF83
:101CE0002046FFF705FF0025C722A0684FF4807348
:101CF000079503A9CDE90323CDE9055503685B6981
:101D00009847A0682A46294603680095D3F81080B2
:101D10002B46C047054630B92046FFF707FF284647
:101D200008B0BDE8F081E36E3B60236F3360F3E7FA
:101D30002DE9F041002588B01F4604460E460E9B53
:101D400000F1400CA8463D60016B81B1A9420ED361
:101D500091420CD8B6FBF1FE01FB1E6139B9416B13
:101D600090F82C800F9D1960816B2960154610300A
:101D70006045E9D16DB3AB196269934229D8204619
:101D8000FFF7C0FE2046FFF7B3FE4FF41453A068E0
:101D900003A9CDF80C80CDE904360026CDE906660E
:101DA00003685B699847A06832463146036800962D
:101DB000D3F810803346C047064620462EB9FFF7B9
:101DC000B5FE304608B0BDE8F081FFF7AFFE3D60DC
:101DD000F7E70026F5E700002DE9F04186690546A2
:101DE00088B00F46B3429046B1FBF6FC06FB1C1CC4
:101DF00028BF3346A6EB0C0C00269C45644628BF42
:101E00001C46FFF77FFE2846FFF772FE0222A868F5
:101E100003A9164B0597CDE90323CDE906660368B0
:101E20005B699847A86822464146036800961F6987
:101E30003346B847064628462EB9FFF777FE3046A8
:101E400008B0BDE8F081FFF771FE0E9B1C60AB6F20
:101E5000AA696343B3FBF2F30F9A1360EA6F109B16
:101E60005443AA69B4FBF2F41C60E8E700250001C2
:101E70002DE9F04FCE18436989B004469E420F46C3
:101E8000914639D83D464FF40458DFF878A0FFF763
:101E90002FFEAE4234D994F88030A6EB050B94F8AF
:101EA000882003A903930023BBF5806FA0680693E5
:101EB000636828BF4FF4806B0595012B14BF434620
:101EC0005346012A049394F8813008BF03F1FF338D
:101ED000079303685B699847A068A9EB070302684A
:101EE000CDF800B02B44D2F810B000221146D847EC
:101EF00018B105F58065CCE7002009B0BDE8F08F8A
:101F00000120FAE700ED0003F0B5044689B00E4663
:101F1000FFF7EEFD94F887502DB194F889302BB17E
:101F2000012B24D00025284609B0F0BD94F880305C
:101F30000393F02306934FF4045304936368012B37
:101F400004BF1D4B04930023059394F88130A068CF
:101F500003A9079303685B699847A0683146036843
:101F60009B6998470546642002F04EF9DBE720465E
:101F70000027FFF7C7FD2046FFF7BAFD082381229F
:101F8000852120460097FFF77FFD054618B92046BA
:101F9000FFF7CCFDC7E794F8803006970393074B13
:101FA00004936368012B04BF054B0493002305933E
:101FB00094F88130013BCAE700ED000300210010D6
:101FC00000ED0013014B024A1A607047A82500205B
:101FD000246E000830B50A44084D91420DD011F826
:101FE000013B5840082340F30004013B2C4013F010
:101FF000FF0384EA5000F6D1EFE730BD2083B8ED4F
:1020000070470000704700000020704700207047B4
:1020100013B56C4600F1140384E8060094E803004D
:1020200083E8050002B010BD0020704713B56C4670
:1020300000F10C0384E8060094E8030083E805003F
:1020400002B010BD0023C0E90333704782B002AB79
:1020500003E9060002B07047704700000020704797
:102060007047000000207047002070470120704733
:1020700082B0002002A901E90C0002B07047000004
:102080000020704700207047036B1A79034B53F808
:1020900032309B699868C0F340107047BC6D0008EF
:1020A0000B6883634B6843638B68C363CB680364CB
:1020B0000B6943647047000038B5036B0446154D47
:1020C0001B7955F8330001F03FFFD4E90B231B794E
:1020D00055F8331002F130034968994218D00023B3
:1020E0001363E26A5363D4E90B12537C581E137CCA
:1020F00092681B0443EA002313438B63D4E90B1358
:102100001B79303155F83300BDE8384001F0B0BEDE
:1021100038BD00BFBC6D0008F8B51D4F05460E4622
:1021200011463868FFF772F878BB74683B7924B3BE
:1021300094F82C209A420BD02468F8E70122B521AC
:1021400000F01AF9736823603B79746084F82C30CE
:10215000482000F005F968B100220271C0E90322AD
:10216000C0E90522027A42F007020272094AC0E978
:102170000B47026028602846F8BD402000F0F0F8C8
:1021800004460028DAD12C60F5E700232B60F2E743
:10219000B0250020CC6D0008044B10B50446036048
:1021A000406A08B100F0E6F8204610BD706D0008E6
:1021B00010B50446FFF7F0FF204600F0D7F82046A0
:1021C00010BD000008B519B1FFF776FF012008BD6A
:1021D000036B1A79024B53F8320001F0B9FEF5E7B0
:1021E000BC6D00082DE9FF41DDF828800546174643
:1021F00003911FFA88F60293FFF75EFF02ABBAB2B3
:1022000003A9E86A009600F0CBF8044638B900212B
:102210002846FFF7D7FF204604B0BDE8F081AFB9EC
:102220002B6B05F134011A79134B53F83200B8F1D6
:10223000000F19D101F02AFE80F00104E4B2334608
:10224000E86ADDE9022100F0D1F8E0E7029B83B9FA
:102250002B6B3A46084805F134011C79039B50F872
:10226000340001F029FEE7E7029B424601F03AFE06
:10227000E2E70024E3E700BFBC6D000813B50446A5
:102280000191FFF719FF019A236B04F134011879CA
:10229000054B53F8300001F03BFE00212046FFF7CC
:1022A00091FF012002B010BDBC6D000810B50446BE
:1022B000FFF702FF236B1A79054B53F8320001F048
:1022C00035FE00212046FFF77DFF012010BD00BF35
:1022D000BC6D0008054B064A1A6000221A719A600C
:1022E000044ADA6040F21F121A827047B0250020BB
:1022F000F36C000800E1F50500F08ABA00B59BB068
:10230000EFF3098168226846FEF762FFEFF3058369
:10231000014B9B6BFEE700BF00ED00E008B5FFF747
:10232000EDFF000000B59BB0EFF30981682268461D
:10233000FEF74EFFEFF30583014B5B6BFEE700BF3B
:1023400000ED00E0FEE70000FEE700000FB408B576
:10235000029801F0FFFEFEE702F0C8BC02F0AABC42
:102360000121884238BF084602F072BC08B102F071
:1023700073BC7047FFF7FABF38B5084B04461546E3
:10238000017543600A21243002F074FD04F1280035
:102390002A460A2102F06EFD204638BD386E00083C
:1023A000F8B51E461B6805460C4617461BB9236840
:1023B00063B9012408E0BDF818203146806A02F0B4
:1023C00071FD0028F3D100242046F8BD21463A468D
:1023D000686A02F0ADFD04460028EAD13368002B9C
:1023E000F1D0A86A02F0E8FDEEE7000038B50D462E
:1023F000114604461A4611B1806A02F08BFD2DB1D8
:102400002946606ABDE8384002F0CEBD38BD000004
:10241000036800211B68184703790BB10022027181
:102420001846704703685B681847000003791BB9BA
:102430000123037118467047002070477047000061
:1024400010B50446FFF792FF204610BDF0B500F12D
:102450000B0423460D46B1FBF2F102FB115707F1C5
:102460003006392EC8BF07F13706954203F8016DD3
:10247000F0D2421EE11A13F8015B9C4202F8015FA0
:10248000F9D10844F0BD00002DE9F04F804687B037
:1024900015464FF000090C4614F8013B002B3BD0C9
:1024A000252B08D0D8F800201946404609F101092B
:1024B000D268904749E14B782D2B06BF8C1C012335
:1024C0000023019323782B2B06BF0134012700271B
:1024D00094F800A0BAF1300F0CBF01344FF0200A7D
:1024E00023782A2B1CD16178023455F804BB2E299D
:1024F00043D1217881B12A2921D0661C0020A1F185
:1025000030023446D2B2092A1DD80A2316F8011B1C
:1025100003FB00200029F2D1484607B0BDE8F08F48
:102520004FF0000B14F8011B0029F5D0A1F1300287
:10253000D2B2092ADBD80A2303FB0B2BF2E761781E
:10254000023455F8040B01F0DF024C2A17D1217830
:102550000029E1D0782904F101041FD8622900F292
:10256000008158291AD84E2900F23081442900F000
:102570009180492900F08E8010E00020E3E7A1F16E
:1025800041027829D2B209D862290BD8582905D836
:102590004E293BD8442978D0492976D02E468DF84B
:1025A0000C1056E0A1F16306152EF7D80FF2040CBB
:1025B0005CF826F0452600088B2600089D250008BB
:1025C0009D2500089D2500089D2500088B260008F4
:1025D0009D2500089D2500089D2500089D250008D3
:1025E0009D2500081B270008092800089D250008D4
:1025F0009D2500085B2600089D2500080528000889
:102600009D2500089D25000809280008A1F14F021A
:10261000092AC3D801A050F822F000BF1B270008E8
:10262000092800089D2500089D2500089D25000813
:102630009D250008052800089D2500089D25000807
:10264000092800082E464FF0200A56F8042B8DF872
:102650000C2003AD0DF10D002BE02E4647F6FF7266
:102660006A4B56F8045B002808BF1046002D08BFCF
:102670001D462A462F18104612F8011B11B1B91A2F
:102680000029F8DA4FF0200A13E02E46192A56F8EE
:10269000041B02D82E4656F8041B002936DA2D22D8
:1026A00049428DF80C200DF10D000A2203ADFFF711
:1026B000CDFE471B0199ABEB070323EAE372002928
:1026C00045D1002BC2F1000B1EDD29782D2901D048
:1026D0002B290DD1BAF1300F0AD1D8F8003040467D
:1026E000019209F10109DB68013F98470135019A20
:1026F000D8F80030514640460192DB6898471BF1FC
:10270000010B019AF4D191443B4615E01FB12B22F5
:102710008DF80C20C7E703A8C7E708222E4603A8B8
:1027200056F8041BC2E7D8F80020404615F8011BF4
:10273000D26801939047019B013BF4D5002FA8BFBD
:10274000B9445D462DB9D94435462146A3E69346A2
:10275000DAE7D8F8003051464046013DDB6898473B
:10276000F0E7A1F16302152A3FF618AF01A353F871
:1027700022F000BF45260008952600089D25000888
:102780009D2500089D2500089D2500089526000828
:102790009D2500089D2500089D2500089D25000811
:1027A0009D2500081B270008092800089D25000812
:1027B0009D2500085B2600089D25000805280008C7
:1027C0009D2500089D25000809280008A1F14F0259
:1027D000092A3FF6E3AE01A353F822F01B270008B5
:1027E000092800089D2500089D2500089D25000852
:1027F0009D250008052800089D2500089D25000846
:10280000092800080A2289E7102287E7506E00088D
:10281000F0B5054687B016461F460C4689B14A1EDC
:102820000023294601A800F05FF83A46314601A886
:10283000FFF72AFE049BA3423CBF0022EA5407B0E4
:10284000F0BD0A46ECE70000D0E902239A421FBF20
:102850004268D154C36801331ABFC36000206FF0CF
:1028600001007047D0E903239A421FBF4268D25C3F
:102870000133036114BF10466FF001007047000080
:1028800003692BB1013B426803610020D1547047BA
:102890006FF001007047000038B504460846D4E9DF
:1028A00003315B1A934228BF13461D4663682A46CC
:1028B0001944FEF78DFC236928462B44236138BD5B
:1028C00038B50446D0E902301B1A934228BF13469C
:1028D0001D4663682A461844FEF77AFCE3682846DA
:1028E0002B44E36038BD000010B5C0E90223034C5F
:1028F0000023C0E90041036110BD00BF586E00080D
:1029000008B5074B074A196801F03D019960536803
:102910000BB190689847BDE8084002F09FBB00BF2C
:1029200000000240C825002008B5084B1968890935
:1029300001F03D018A019A60054AD3680BB1106924
:102940009847BDE8084002F089BB00BF0000024084
:10295000C825002008B5084B1968090C01F03D0195
:102960000A049A60054A53690BB190699847BDE81B
:10297000084002F073BB00BF00000240C8250020E1
:1029800008B5084B1968890D01F03D018A059A6068
:10299000054AD3690BB1106A9847BDE8084002F0B8
:1029A0005DBB00BF00000240C825002008B5074BF2
:1029B000074A596801F03D01D960536A0BB1906A2A
:1029C0009847BDE8084002F049BB00BF0000024044
:1029D000C825002008B5084B5968890901F03D0158
:1029E0008A01DA60054AD36A0BB1106B9847BDE8DB
:1029F000084002F033BB00BF00000240C8250020A1
:102A000008B5084B5968090C01F03D010A04DA6069
:102A1000054A536B0BB1906B9847BDE8084002F034
:102A20001DBB00BF00000240C825002008B5084BB0
:102A30005968890D01F03D018A05DA60054AD36BBA
:102A40000BB1106C9847BDE8084002F007BB00BF0F
:102A500000000240C825002008B5074B074A196846
:102A600001F03D019960536C0BB1906C9847BDE843
:102A7000084002F0F3BA00BF00040240C82500205D
:102A800008B5084B1968890901F03D018A019A606F
:102A9000054AD36C0BB1106D9847BDE8084002F0B1
:102AA000DDBA00BF00040240C825002008B5084B6D
:102AB0001968090C01F03D010A049A60054A536D3A
:102AC0000BB1906D9847BDE8084002F0C7BA00BF4F
:102AD00000040240C825002008B5084B1968890D7C
:102AE00001F03D018A059A60054AD36D0BB1106E65
:102AF0009847BDE8084002F0B1BA00BF00040240A8
:102B0000C825002008B5074B074A596801F03D0168
:102B1000D960536E0BB1906E9847BDE8084002F043
:102B20009DBA00BF00040240C825002008B5084B2C
:102B30005968890901F03D018A01DA60054AD36EBE
:102B40000BB1106F9847BDE8084002F087BA00BF8C
:102B500000040240C825002008B5084B5968090C3C
:102B600001F03D010A04DA60054A536F0BB1906F22
:102B70009847BDE8084002F071BA00BF0004024067
:102B8000C825002008B5084B5968890D01F03D01A2
:102B90008A05DA60054AD36F13B1D2F880009847EE
:102BA000BDE8084002F05ABA00040240C8250020DF
:102BB00000230C4910B51A460B4C0B6054F8230047
:102BC000026001EB430004334260402BF6D1074A18
:102BD0004FF0FF339360D360C2F80834C2F80C346E
:102BE00010BD00BFC8250020706E00080000024024
:102BF0000F28F8B510D9102810D0112811D012289C
:102C000008D10F240720DFF8B4E00126DEF80050D9
:102C1000A04208D9002649E00446F4E70F2400202A
:102C2000F1E70724FBE706FA00F73D4240D1214CCB
:102C30004FEA001C3D4304EB00160EEBC000CEF83B
:102C40000050C0E90123FBB24BB11B48836B43F03A
:102C500001038363036E43F001030366036E17F4FD
:102C60007F4F09D01448836B43F002038363036EE4
:102C700043F002030366036E54F80C00036823F06C
:102C80001F030360056815F00105FBD104EB0C037D
:102C90003D2493F80CC05F6804FA0CF43C602124D6
:102CA0000560446112B1987B00F0A6FA3046F8BD89
:102CB0000130ADE7706E000800450258C8250020BD
:102CC00010B5302484F31188FFF792FF002383F3BB
:102CD000118810BD10B50446807B00F0A3FA0123D3
:102CE0001049627B03FA02F20B6823EA0203DAB2AC
:102CF0000B604AB90C4A916B21F001019163116E8E
:102D000021F001011166126E13F47F4F09D1064BB9
:102D10009A6B22F002029A631A6E22F002021A667D
:102D20001B6E10BDC82500200045025808B5302391
:102D300083F31188FFF7CEFF002383F3118808BDCA
:102D40008A0710B504461DD50378042B1AD14368B1
:102D50001B682BB10522027098472378052B01D1FF
:102D600002232370302383F31188002104F108002B
:102D700001F064FA002383F31188E069BDE8104094
:102D800002F0ECBACB0704D50248BDE8104001F0D0
:102D9000E1B910BD706F000810B5044C204601F079
:102DA0005FF8034A0023C4E9062310BD4C26002027
:102DB0000050005210B503780446012B12D10E4B7F
:102DC00098420FD102460D49102002F099FA0C4B9F
:102DD000E0615A6B42F480425A63DA6D42F48042F9
:102DE000DA65DB6D6268A36992685A60054A1A6009
:102DF0001B22DA6010BD00BF4C260020412D0008C8
:102E0000004502581500020182691B2310B5D360EA
:102E1000D1E9003013F44C4406D19B011461D06118
:102E200003F44043536110BD0024184313F4406F72
:102E30001461CC68D4615061F5D08B689361F2E77E
:102E400030B584691B25C069E5600068836104F1C1
:102E50002003C36102234261013A03614223C3603C
:102E600016238362CB682261E361D1E90023134317
:102E700012F4406F636101D08B68A361C36843F0B3
:102E80000103C36030BD000030B5D0E906400068E2
:102E900004F120058561C36108234261013A0361A1
:102EA00046230D69C36016238362CB682261E36108
:102EB000D1E90023134312F4406F43EA854343F002
:102EC0008063636101D08B68A361C36843F0010331
:102ED000C36030BD8069036823F0040310B5CC687B
:102EE000036000230361C4618361D1E90043096980
:102EF000234343EA814343F04063436112B14FF0FF
:102F00001043136010BD000083691A6842F002028A
:102F10001A601A689207FCD41A6842F004021A6018
:102F2000704700008269936810B5D3609B07044620
:102F30001DD50378032B1AD143681B682BB10522DA
:102F4000027098472378052B01D102232370302388
:102F500083F31188002104F1080001F06FF90023C8
:102F600083F31188E069BDE8104002F0F7B910BDA5
:102F7000026843681143016003B1184770470000BD
:102F8000024A136843F0C0031360704700440040D6
:102F9000024A136843F0C003136070470078004092
:102FA00037B51A4C1A4D204600F0E6FA04F1140029
:102FB000009400234FF40072164900F0A3F94FF477
:102FC0000072154904F138000094144B00F01CFA0B
:102FD000134BC4E91735134C204600F0CDFA04F129
:102FE000140000234FF400720F49009400F08AF996
:102FF0000E4B4FF400720E4904F13800009400F0BB
:1030000003FA0C4BC4E9173503B030BD6C26002021
:1030100000E1F50544270020442B0020812F000803
:1030200000440040D826002044290020912F0008A9
:10303000442D002000780040037C30B5274C002947
:1030400018BF0C46012B0CD1254B984236D1254B8D
:103050009A6C42F400329A641A6F42F400321A6792
:103060001B6F2268036EC16D03EB52038466B3FBD2
:10307000F2F36268150442BF23F0070503F007036B
:1030800043EA4503CB60A36843F040034B60E36829
:1030900043F001038B6042F4967343F001030B602D
:1030A0004FF0FF330B62510505D512F0102211D0FD
:1030B000B2F1805F10D080F8643030BD0A4B984286
:1030C000CFD1084B9A6C42F080429A641A6F42F05A
:1030D0008042C4E77F23EEE73F23ECE7806F0008E0
:1030E0006C26002000450258D82600202DE9F04724
:1030F000C66D05463768F469210734621AD014F0AA
:10310000080118BF4FF48071E20748BF41F0200169
:10311000A3074FF0300348BF41F04001600748BFAC
:1031200041F0800183F31188281DFFF721FF002360
:1031300083F31188E2050AD5302383F311884FF415
:103140008061281DFFF714FF002383F311884FF0DF
:1031500030094FF0000A14F0200838D13B0616D58C
:103160004FF0300905F1380A200610D589F311888F
:10317000504600F07DF9002836DA0821281DFFF7B7
:10318000F7FE27F080033360002383F3118879066C
:1031900014D5620612D5302383F31188D5E91323A1
:1031A0009A4208D12B6C33B127F040071021281D1B
:1031B000FFF7DEFE3760002383F31188E30618D59E
:1031C000AA6E1369ABB15069BDE8F047184789F39F
:1031D0001188736A284695F86410194000F0E6F9E2
:1031E0008AF31188F469B6E7B06288F31188F4694C
:1031F000BAE7BDE8F0870000090100F16043012251
:1032000003F56143C9B283F8001300F01F039A402D
:1032100043099B0003F1604303F56143C3F8802138
:103220001A60704700F01F0301229A40430900F121
:1032300060409B0000F5614003F1604303F561438A
:10324000C3F88020C3F88021002380F80033704742
:10325000F8B51546826804460B46AA4200D2856836
:10326000A1692669761AB5420BD218462A46FDF79F
:10327000AFFFA3692B44A3612846A3685B1BA3602F
:10328000F8BD0CD9AF1B18463246FDF7A1FF3A46F0
:10329000E1683044FDF79CFFE3683B44EBE71846E8
:1032A0002A46FDF795FFE368E5E70000836893424F
:1032B000F7B50446154600D28568D4E90460361A8D
:1032C000B5420BD22A46FDF783FF63692B44636145
:1032D0002846A3685B1BA36003B0F0BD0DD932463E
:1032E000AF1B0191FDF774FF01993A46E068314444
:1032F000FDF76EFFE3683B44E9E72A46FDF768FF08
:10330000E368E4E710B50A440024C361029B8460CB
:10331000C16002610362C0E90000C0E9051110BD8F
:1033200008B5D0E90532934201D1826882B982683A
:10333000013282605A1C426119700021D0E90432C6
:103340009A4224BFC368436100F092FF002008BD89
:103350004FF0FF30FBE7000070B5302304460E4607
:1033600083F31188A568A5B1A368A269013BA36096
:10337000531CA36115782269934224BFE368A361BB
:10338000E3690BB120469847002383F31188284650
:1033900007E03146204600F05BFF0028E2DA85F3C3
:1033A000118870BD2DE9F74F04460E461746984622
:1033B000D0F81C904FF0300A8AF311884FF0000BC0
:1033C000154665B12A4631462046FFF741FF0346C0
:1033D00060B94146204600F03BFF0028F1D00023B1
:1033E00083F31188781B03B0BDE8F08FB9F1000FAB
:1033F00003D001902046C847019B8BF31188ED1A3A
:103400001E448AF31188DCE7C160C361009B8260BF
:103410000362C0E905111144C0E900000161704771
:10342000F8B504460D461646302383F31188A76885
:10343000A7B1A368013BA36063695A1C62611D7058
:10344000D4E904329A4224BFE3686361E3690BB1B3
:1034500020469847002080F3118807E03146204637
:1034600000F0F6FE0028E2DA87F31188F8BD0000CC
:10347000D0E9052310B59A4201D182687AB98268F1
:103480000021013282605A1C82611C7803699A42D1
:1034900024BFC368836100F0EBFE204610BD4FF0EF
:1034A000FF30FBE72DE9F74F04460E4617469846D6
:1034B000D0F81C904FF0300A8AF311884FF0000BBF
:1034C000154665B12A4631462046FFF7EFFE034612
:1034D00060B94146204600F0BBFE0028F1D0002331
:1034E00083F31188781B03B0BDE8F08FB9F1000FAA
:1034F00003D001902046C847019B8BF31188ED1A39
:103500001E448AF31188DCE70268436811430160B6
:1035100003B11847704700001430FFF743BF0000A5
:103520004FF0FF331430FFF73DBF00003830FFF796
:10353000B9BF00004FF0FF333830FFF7B3BF0000D2
:103540001430FFF709BF00004FF0FF311430FFF7D0
:1035500003BF00003830FFF763BF00004FF0FF32B9
:103560003830FFF75DBF0000012914BF6FF0130072
:1035700000207047FFF714BD044B03600023436035
:10358000C0E9023301230374704700BF986F00083D
:1035900010B53023044683F31188FFF74DFD022355
:1035A0000020237480F3118810BD000038B5C36972
:1035B00004460D461BB904210844FFF7A5FF294620
:1035C00004F11400FFF7ACFE002806DA201D4FF4CA
:1035D0000061BDE83840FFF797BF38BD0268436817
:1035E0001143016003B118477047000013B5406BE9
:1035F00000F58054D4F8A4381A681178042914D13D
:10360000017C022911D11979012312898B401342BF
:103610000BD101A94C3002F0DFFCD4F8A4480246DB
:10362000019B2179206800F0DFF902B010BD000095
:10363000143002F061BC00004FF0FF33143002F090
:103640005BBC00004C3002F033BD00004FF0FF3394
:103650004C3002F02DBD0000143002F02FBC0000F1
:103660004FF0FF31143002F029BC00004C3002F062
:10367000FFBC00004FF0FF324C3002F0F9BC0000FC
:103680000020704710B500F58054D4F8A4381A68AB
:103690001178042917D1017C022914D15979012309
:1036A00052898B4013420ED1143002F0C1FB024606
:1036B00048B1D4F8A4484FF4407361792068BDE85C
:1036C000104000F07FB910BD406BFFF7DBBF00007A
:1036D000704700007FB5124B0125042604460360A5
:1036E0000023057400F1840243602946C0E90233D7
:1036F0000C4B0290143001934FF44073009602F08B
:1037000073FB094B04F69442294604F14C000294E1
:10371000CDE900634FF4407302F03AFC04B070BD91
:10372000C06F0008C9360008ED3500080A6830236C
:1037300083F311880B790B3342F823004B79133351
:1037400042F823008B7913B10B3342F8230000F5C4
:103750008053C3F8A41802230374002080F3118857
:103760007047000038B5037F044613B190F8543019
:10377000ABB90125201D0221FFF730FF04F1140031
:103780006FF00101257700F07FFD04F14C0084F813
:1037900054506FF00101BDE8384000F075BD38BDF0
:1037A00010B5012104460430FFF718FF00232377EA
:1037B00084F8543010BD000038B50446002514309C
:1037C00002F02AFB04F14C00257702F0F9FB201DE2
:1037D00084F854500121FFF701FF2046BDE838402E
:1037E000FFF750BF90F8803003F06003202B06D124
:1037F00090F881200023212A03D81F2A06D8002010
:103800007047222AFBD1C0E91D3303E0034A426717
:1038100007228267C3670120704700BF342300205E
:1038200037B500F58055D5F8A4381A681178042901
:103830001AD1017C022917D11979012312898B40F1
:10384000134211D100F14C04204602F079FC58B12A
:1038500001A9204602F0C0FBD5F8A4480246019B0E
:103860002179206800F0C0F803B030BD01F10B03EE
:10387000F0B550F8236085B004460D46FEB1302304
:1038800083F3118804EB8507301D0821FFF7A6FE9E
:10389000FB6806F14C005B691B681BB1019002F0EC
:1038A000A9FB019803A902F097FB024648B1039BCC
:1038B0002946204600F098F8002383F3118805B0CC
:1038C000F0BDFB685A691268002AF5D01B8A013BDB
:1038D0001340F1D104F18002EAE70000133138B55A
:1038E00050F82140ECB1302383F3118804F5805364
:1038F000D3F8A4281368527903EB8203DB689B6931
:103900005D6845B104216018FFF768FE294604F19F
:10391000140002F097FA2046FFF7B4FE002383F369
:10392000118838BD7047000001F06ABD01234022B4
:10393000002110B5044600F8303BFDF77BFC002366
:10394000C4E9013310BD000010B53023044683F3F1
:1039500011882422416000210C30FDF76BFC2046C9
:1039600001F070FD02230020237080F3118810BD48
:1039700070B500EB8103054650690E461446DA60C7
:1039800018B110220021FDF755FCA06918B11022D2
:103990000021FDF74FFC31462846BDE8704001F09C
:1039A00051BE000083682022002103F0011310B5EE
:1039B000044683601030FDF73DFC2046BDE8104012
:1039C00001F0CCBEF0B4012500EB810447898D40A5
:1039D000E4683D43A469458123600023A2606360DD
:1039E000F0BC01F0E9BE0000F0B4012500EB810459
:1039F00007898D40E4683D436469058123600023A5
:103A0000A2606360F0BC01F05FBF000070B50223EC
:103A100000250446242203702946C0F888500C3043
:103A200040F8045CFDF706FC204684F8705001F075
:103A30009DFD63681B6823B129462046BDE87040A0
:103A4000184770BD0378052B10B504460AD080F8DE
:103A50008C300523037043681B680BB10421984721
:103A60000023A36010BD00000178052906D190F85D
:103A70008C20436802701B6803B118477047000030
:103A800070B590F87030044613B1002380F87030A0
:103A900004F18002204601F085FE63689B68B3B99B
:103AA00094F8803013F0600535D00021204602F0F4
:103AB00077F90021204602F067F963681B6813B1AB
:103AC000062120469847062384F8703070BD2046B2
:103AD00098470028E4D0B4F88630A26F9A4288BF95
:103AE000A36794F98030A56F002B4FF0300380F26C
:103AF0000381002D00F0F280092284F8702083F306
:103B0000118800212046D4E91D23FFF76DFF002313
:103B100083F31188DAE794F8812003F07F0343EA06
:103B2000022340F20232934200F0C58021D8B3F55F
:103B3000807F48D00DD8012B3FD0022B00F093801E
:103B4000002BB2D104F1880262670222A267E36708
:103B5000C1E7B3F5817F00F09B80B3F5407FA4D12E
:103B600094F88230012BA0D1B4F8883043F00203DE
:103B700032E0B3F5006F4DD017D8B3F5A06F31D058
:103B8000A3F5C063012B90D86368204694F8822087
:103B90005E6894F88310B4F88430B047002884D06D
:103BA000436863670368A3671AE0B3F5106F36D004
:103BB00040F6024293427FF478AF5C4B6367022386
:103BC000A3670023C3E794F88230012B7FF46DAF25
:103BD000B4F8883023F00203A4F88830C4E91D55F6
:103BE000E56778E7B4F88030B3F5A06F0ED194F8AC
:103BF0008230204684F88A3001F016FD63681B6825
:103C000013B1012120469847032323700023C4E900
:103C10001D339CE704F18B0363670123C3E723781B
:103C2000042B10D1302383F311882046FFF7BAFE0E
:103C300085F311880321636884F88B5021701B6819
:103C40000BB12046984794F88230002BDED084F8E0
:103C50008B300423237063681B68002BD6D00221AD
:103C600020469847D2E794F8843020461D0603F09A
:103C70000F010AD501F088FD012804D002287FF445
:103C800014AF2B4B9AE72B4B98E701F06FFDF3E74E
:103C900094F88230002B7FF408AF94F8843013F04E
:103CA0000F01B3D01A06204602D502F091F8ADE715
:103CB00002F082F8AAE794F88230002B7FF4F5AE88
:103CC00094F8843013F00F01A0D01B06204602D5D3
:103CD00002F066F89AE702F057F897E7142284F8A2
:103CE000702083F311882B462A4629462046FFF789
:103CF00069FE85F31188E9E65DB1152284F870202C
:103D000083F3118800212046D4E91D23FFF75AFED2
:103D1000FDE60B2284F8702083F311882B462A4697
:103D200029462046FFF760FEE3E700BFF06F00087A
:103D3000E86F0008EC6F000838B590F87030044662
:103D4000002B3ED0063BDAB20F2A34D80F2B32D8E4
:103D5000DFE803F03731310822323131313131318E
:103D600031313737856FB0F886309D4214D2C36841
:103D70001B8AB5FBF3F203FB12556DB9302383F3B5
:103D800011882B462A462946FFF72EFE85F3118817
:103D90000A2384F870300EE0142384F87030302346
:103DA00083F31188002320461A461946FFF70AFEBE
:103DB000002383F3118838BDC36F03B198470023F4
:103DC000E7E70021204601F0EBFF0021204601F04B
:103DD000DBFF63681B6813B1062120469847062362
:103DE000D7E7000010B590F870300446142B29D0A6
:103DF00017D8062B05D001D81BB110BD093B022BEB
:103E0000FBD80021204601F0CBFF0021204601F025
:103E1000BBFF63681B6813B1062120469847062341
:103E200019E0152BE9D10B2380F87030302383F390
:103E3000118800231A461946FFF7D6FD002383F3A5
:103E40001188DAE7C3689B695B68002BD5D1C36F23
:103E500003B19847002384F87030CEE7FEF79CBF8B
:103E6000012100230170C0E901330C3000F01CB9BE
:103E700010B53023044683F311884160FEF79AFFA2
:103E800002230020237080F3118810BD10B5302369
:103E9000044683F31188032304F8083BFEF7B4FFBC
:103EA0004FF0FF31204600F0BBF9002383F3118867
:103EB000C01A18BF012010BD38B50446302585F35F
:103EC0001188032504F8085BFEF7BAFF4FF0FF31B5
:103ED000204600F0A5F9002383F31188C01A18BF0B
:103EE000012038BD38B50446302585F311880425F6
:103EF00004F8085BFEF7C8FF4FF0FF31204600F0E2
:103F00008FF9002383F31188C01A18BF012038BD30
:103F100010B53023044683F31188FEF7DBFF062338
:103F20002370002383F3118810BD000010B53023E7
:103F3000044683F31188FEF7E7FF02232370002372
:103F400083F3118810BD00000C3000F0C9B80000E8
:103F50000C3000F0CFB800000023826803750369BD
:103F60001B6899689142FBD25A68036042601060F6
:103F70005860704700238268037503691B6899685D
:103F80009142FBD85A6803604260106058607047E5
:103F900008B50846302383F311880A7D0023052ADB
:103FA00006D8DFE802F00B050503120E82691360E4
:103FB0004FF0FF338361FFF7CFFF002383F31188B6
:103FC00008BD8269936801339360D0E900321360C1
:103FD0005A60EDE7FFF7C0BF054BD9680875186850
:103FE000026853601A600122D8600275FCF712BAA9
:103FF000482F00200C4B30B5DD684B1C87B00446C1
:104000000FD02B46094A684600F0D2F92046FFF748
:10401000E3FF009B13B1684600F0D4F9A86907B02C
:1040200030BDFFF7D9FFF9E7482F0020913F000886
:1040300038B50C4D04468161EB6881689A689142FD
:1040400003D8BDE83840FFF787BF1846FFF792FF57
:1040500001230146EC6020462375BDE83840FCF79B
:10406000D9B900BF482F0020044B1A68DB6890685C
:104070009B68984294BF002001207047482F002081
:10408000084B10B51C68D868226853601A6001227A
:10409000DC602275FFF76EFF01462046BDE8104048
:1040A000FCF7B8B9482F0020C0E9000081607047D4
:1040B0008368013B002B10B583600CDA074BDC688A
:1040C0004368A061206063601C6044600520FFF7C6
:1040D00083FFA06910BD0020FCE700BF482F00202F
:1040E00008B5302383F31188FFF7E2FF002383F341
:1040F000118808BD08B5302383F311888368013324
:10410000002B836007DC036800211A68026050609E
:104110001846FFF78DFF002383F3118808BD0000C8
:1041200038B50123084C00252370656002F044F87F
:1041300002F06AF80549064802F03EF902232370AE
:1041400085F3118838BD00BFB0310020F86F00083A
:10415000482F002008B572B6044B186500F080FDAA
:1041600000F05EFE024B03221A70FEE7482F00208B
:10417000B031002000F05CB9034A516853685B1A03
:104180009842FBD8704700BF001000E08B6002230C
:10419000086108468B8270478368A3F1840243F864
:1041A000142C026943F8442C426943F8402C094A14
:1041B00043F8242CC268A3F1200043F8182C0222F3
:1041C00003F80C2C002203F80B2C034A43F8102CA4
:1041D000704700BF2D040008482F002008B5FFF7E6
:1041E000DBFFBDE80840FFF7F5BE0000024BDB68CF
:1041F00098610F20FFF7F0BE482F0020302383F393
:104200001188FFF7F3BF000008B50146302383F3A0
:1042100011880820FFF7EEFE002383F3118808BD04
:10422000054BDB6821B1036098610320FFF7E2BE14
:104230004FF0FF30704700BF482F002003682BB1BC
:104240000022026018469961FFF7C4BE7047000063
:10425000064BDB6839B1426818605A6013604360EE
:104260000420FFF7C7BE4FF0FF307047482F0020F3
:104270000368984206D01A68026050601846996137
:10428000FFF7A8BE7047000038B504460D46206809
:10429000844200D138BD036823605C608561FFF70C
:1042A00099FEF4E7036810B59C68A2420CD85C68DC
:1042B0008A600B604C602160596099688A1A9A6024
:1042C0004FF0FF33836010BD121B1B68ECE700004A
:1042D0000A2938BF0A2170B504460D460A2660191E
:1042E00001F064FF01F04CFF041BA54203D8751CCC
:1042F00004462E46F3E70A2E04D90120BDE870409B
:1043000002F09AB870BD0000F8B5144B0D460A2AA9
:104310004FF00A07D96103F11001826038BF0A2209
:10432000416019691446016048601861A81801F0DD
:104330002DFF01F025FF431B0646A34206D37C1C3C
:1043400028192746354601F031FFF2E70A2F04D934
:104350000120BDE8F84002F06FB8F8BD482F0020FA
:10436000F8B506460D4601F00BFF0F4A134653F809
:10437000107F9F4206D12A4601463046BDE8F840EC
:10438000FFF7C2BFD169BB68441A2C1928BF2C465D
:10439000A34202D92946FFF79BFF22463146034834
:1043A000BDE8F840FFF77EBF482F0020582F0020BF
:1043B000C0E90323002310B45DF8044B4361FFF709
:1043C000CFBF000010B5194C236998420DD0816809
:1043D000D0E9003213605A609A680A449A60002358
:1043E00003604FF0FF33A36110BD0268234643F81A
:1043F000102F53600022026022699A4203D1BDE867
:10440000104001F0CDBE936881680B44936001F0C9
:10441000B7FE2269E1699268441AA242E4D91144C4
:10442000BDE81040091AFFF753BF00BF482F002016
:104430002DE9F047DFF8BC8008F110072C4ED8F8C2
:10444000105001F09DFED8F81C40AA68031B9A4248
:104450003ED814444FF00009D5E90032C8F81C409A
:1044600013605A60C5F80090D8F81030B34201D1FB
:1044700001F096FE89F31188D5E903312846984763
:10448000302383F311886B69002BD8D001F078FEBC
:104490006A69A0EB040982464A450DD2022001F068
:1044A000CBFF0022D8F81030B34208D1514628463D
:1044B000BDE8F047FFF728BF121A2244F2E712EBDB
:1044C00009092946384638BF4A46FFF7EBFEB5E7EB
:1044D000D8F81030B34208D01444C8F81C00211A90
:1044E000A960BDE8F047FFF7F3BEBDE8F08700BF65
:1044F000582F0020482F002038B501F041FE054A12
:10450000D2E90845031B181945F10001C2E9080169
:1045100038BD00BF482F002000207047FEE7000094
:10452000704700004FF0FF307047000002290CD0A8
:10453000032904D00129074818BF00207047032A27
:1045400005D8054800EBC2007047044870470020BA
:10455000704700BF6C7100084C230020D470000825
:1045600070B59AB005460846144601A900F0FAF85D
:1045700001A8FCF757FE431C0022C6B25B001046A0
:10458000C5E9003423700323023404F8013C01AB75
:10459000D1B202348E4201D81AB070BD13F8011B9B
:1045A000013204F8010C04F8021CF1E708B53023CD
:1045B00083F311880448FFF733F90448FFF730F913
:1045C000002383F3118808BDB8310020604A002021
:1045D00090F8803003F01F02012A07D190F8812063
:1045E0000B2A03D10023C0E91D3319E003F0600357
:1045F000202B27D190F88430ABB990F885300BBBD5
:1046000090F88120212A03D0222AEBD0202A19D128
:10461000C3EBC3030C4A1344436707238367002398
:10462000C36701207047022B0CD190F885304BB93D
:1046300090F88130212B03D0222BD3D0202B01D115
:104640000123E5E7FFF7CEB83B23002013B505298A
:1046500027D8DFE801F02D26032D2D37302383F3F3
:1046600011880478042C1ED11B4A01210190FFF708
:104670007FF91A4A02210198FFF77AF9184A0321B3
:104680000198FFF775F9174A21460198FFF770F96D
:104690001548FFF791F81548FFF78EF8002383F3CC
:1046A000118802B010BD032CF8D1FFF77BF9F5E7B4
:1046B000302383F311880C48FFF754F80B48FFF7B9
:1046C00051F8EBE7302383F311880748FFF768F8C8
:1046D0000648FFF765F8E1E7247000084870000815
:1046E0006C70000890700008B8310020604A00200B
:1046F00038B50C4D0C4C2A460C4904F10800FFF764
:104700002FFF05F1CA0204F110000949FFF728FF45
:1047100005F5CA7204F118000649BDE83840FFF7F4
:104720001FBF00BF686300204C23002004700008F6
:104730000E7000081970000870B5044608460D4652
:10474000FCF770FDC6B22046013403780BB9184659
:1047500070BD32462946FCF745FD0028F3D1012003
:10476000F6E700002DE9F04705460C46FCF75AFD38
:104770002B49C6B22846FFF7DFFF08B10736F6B26D
:1047800028492846FFF7D8FF08B11036F6B2632E45
:104790000BD8DFF88C80DFF88C90234FDFF894A0E3
:1047A0002E7846B92670BDE8F08729462046BDE838
:1047B000F04702F0F7B9252E2ED1072241462846B0
:1047C000FCF710FD70B9194B224603F10C0153F8A8
:1047D000040B8B4242F8040BF9D11B8807350E34C9
:1047E0001380DDE7082249462846FCF7FBFC98B910
:1047F000A21C0F4B197802320909C95D02F8041C8A
:1048000013F8011B01F00F015345C95D02F8031CA9
:10481000F0D118340835C3E7013504F8016BBFE760
:104820008C71000819700008A371000894710008C9
:1048300000E8F11F0CE8F11FBFF34F8F044B1A691A
:104840005107FCD1D3F810215207F8D1704700BFAF
:104850000020005208B50D4B1B78ABB9FFF7ECFFF9
:104860000B4BDA68D10704D50A4A5A6002F1883244
:104870005A60D3F80C21D20706D5064AC3F80421A2
:1048800002F18832C3F8042108BD00BFC6650020CC
:10489000002000522301674508B5114B1B78F3B97E
:1048A000104B1A69510703D5DA6842F04002DA600A
:1048B000D3F81021520705D5D3F80C2142F040025D
:1048C000C3F80C21FFF7B8FF064BDA6842F001028B
:1048D000DA60D3F80C2142F00102C3F80C2108BDC4
:1048E000C6650020002000520F289ABF00F58060A6
:1048F00040040020704700004FF400307047000073
:10490000102070470F2808B50BD8FFF7EDFF00F512
:1049100000330268013204D104308342F9D101200E
:1049200008BD0020FCE700000F2838B505463FD839
:10493000FFF782FF1F4CFFF78DFF4FF0FF33072873
:104940006361C4F814311DD82361FFF775FF0302BA
:1049500043F02403E360E36843F08003E3602369EA
:104960005A07FCD42846FFF767FFFFF7BDFF4FF457
:10497000003100F031FA2846FFF78EFFBDE83840DD
:10498000FFF7C0BFC4F81031FFF756FFA0F10803CE
:104990001B0243F02403C4F80C31D4F80C3143F06B
:1049A0008003C4F80C31D4F810315B07FBD4D9E78D
:1049B000002038BD002000522DE9F84F05460C4676
:1049C000104645EA0203DE0602D00020BDE8F88F5B
:1049D00020F01F00DFF8BCB0DFF8BCA0FFF73AFF03
:1049E00004EB0008444503D10120FFF755FFEDE734
:1049F00020222946204602F0C5F810B9203520347F
:104A0000F0E72B4605F120021F68791CDDD1043345
:104A10009A42F9D105F178431B481C4EB3F5801F2B
:104A20001B4B38BF184603F1F80332BFD946D146B5
:104A30001E46FFF701FF0760A5EB040C336804F185
:104A40001C0143F002033360231FD9F8007017F0F4
:104A50000507FAD153F8042F8B424CF80320F4D108
:104A6000BFF34F8FFFF7E8FE4FF0FF3320222146C0
:104A700003602846336823F00203336002F082F8B3
:104A80000028BBD03846B0E7142100520C20005259
:104A900014200052102000521021005210B5084C72
:104AA000237828B11BB9FFF7D5FE0123237010BD71
:104AB000002BFCD02070BDE81040FFF7EDBE00BF1A
:104AC000C66500202DE9F04F0D4685B0814658B1EE
:104AD00011F00D0614BF2022082211F008030193E3
:104AE00004D0431E03426AD0002435E0002E37D0A4
:104AF00009F11F0121F01F094FF00108324F05F0A5
:104B00000403DFF8D0A005EA080BBBF1000F32D098
:104B10007869C0072FD408F101080C37B8F1060FE7
:104B2000F3D19EB9294D4946A819019201F08EFB97
:104B3000044600283AD11836019A782EF3D1494616
:104B400001F084FB0446002830D1019A49462048F0
:104B500001F07CFB044668BB204605B0BDE8F08F41
:104B60000029C9D101462846029201F06FFB044694
:104B7000E0B9029AC0E713B178694107CBD5AC0719
:104B800002D578698007C6D5019911B17869010706
:104B9000C1D51820494600FB08A0CDE9022301F049
:104BA00055FB0446DDE902230028B4D04A46002123
:104BB000204601E04A460021FCF73CFBCCE70246D8
:104BC000002E95D198E700BFB4710008F865002069
:104BD000C8650020E06500200021FFF773BF0000DA
:104BE0000121FFF76FBF0000F8B5144D012418270D
:104BF000134E40F2FF3200210120FCF71BFB07FBA4
:104C0000046001342A6955F80C1F01F00BFB062CD7
:104C1000F5D137254FF4C0542046FFF7E1FF014698
:104C200028B122460748BDE8F84001F0FBBAC4EBC2
:104C3000C404013D4FEAD404EED1F8BDB4710008BC
:104C4000E0650020C86500200421FFF73BBF00009D
:104C50004843FFF7C1BF000008B101F069BB7047CE
:104C600038B5054D00240334696855F80C0B00F085
:104C7000C5F8122CF7D138BDB471000870B5AAB1CF
:104C800040EA010313F01F030FD1094C0144A5684A
:104C90006D0706D52568A84203D366683544A94246
:104CA00004D903330C34122BF1D10022104670BD0D
:104CB000B471000838B5EFF311859DB9EFF30584A1
:104CC000C4F30804302334B183F31188FFF714FCD4
:104CD00085F3118838BD83F31188FFF70DFC84F349
:104CE000118838BDBDE83840FFF706BC10B5FFF7A6
:104CF000E1FF104CC008104A002340EA4170C90887
:104D0000A0FB04ECA0FB020E1CEB0000A1FB044C7A
:104D1000A1FB02125B41001943EB0C0011EB0E01E9
:104D200042F10002411842F10000090941EA007015
:104D300010BD00BFCFF753E3A59BC4200244074B2F
:104D4000D2B210B5904200D110BD441C00B253F84D
:104D5000200041F8040BE0B2F4E700BF50400058D7
:104D60000E4B30B51C6F240405D41C6F1C671C6FE0
:104D700044F400441C670A4C02442368D2B243F452
:104D800080732360074B904200D130BD441C51F822
:104D9000045B00B243F82050E0B2F4E7004402584C
:104DA000004802585040005807B5012201A90020D0
:104DB000FFF7C4FF019803B05DF804FB13B5044688
:104DC000FFF7F2FFA04205D0012201A900200194C3
:104DD000FFF7C6FF02B010BD0144BFF34F8F064B73
:104DE000884204D3BFF34F8FBFF36F8F7047C3F870
:104DF0005C022030F4E700BF00ED00E00144BFF3A7
:104E00004F8F064B884204D3BFF34F8FBFF36F8F92
:104E10007047C3F870022030F4E700BF00ED00E0F7
:104E200070470000114BDA6952021ED59A69D0070B
:104E300004D50F4A9A6002F144329A600B4BDA694A
:104E4000D107FCD41A6A22F480021A629A6942F0ED
:104E500002029A61DA69D207FCD49A6942F001022F
:104E60009A61024AD369DB07FCD4704700200052E4
:104E70003B2A190870B5054616460C46012010213C
:104E8000FFF7E6FE286046733CB1204636B1FFF7D7
:104E9000DBFE2B68186000B19C6070BDFFF7A0FEC0
:104EA000F7E70000F8B50F461546044648B905F186
:104EB0001F010126386821F01F01FFF78DFF3046E2
:104EC000F8BD427B29463868FFF7D8FE0646002821
:104ED000EDD13B686360A368AB4210D213B1206888
:104EE000FFF7BAFE637B28462BB1FFF7ADFE2060CB
:104EF00020B9A060E3E7FFF773FEF8E7A56020683C
:104F000005F11F01012621F01F013860FFF764FF42
:104F10002673D4E710B5044640B10068884205D135
:104F2000606808B1FCF754F90023237310BD00003A
:104F3000F8B50F461446054648B904F11F0101268D
:104F4000386821F01F01FFF759FF3046F8BD427B5A
:104F500021463868FFF792FE06460028EDD1AB687F
:104F6000A34210D213B12868FFF776FE6B7B204670
:104F70002BB1FFF769FE286020B9A860E5E7FFF7CD
:104F80002FFEF8E7AC60396819B122462868FCF7B3
:104F90001FF9286804F11F01012621F01F01386064
:104FA000FFF72CFF2E73D0E720B103688B4204BFBC
:104FB000002303737047000008B100230373704798
:104FC000034B1A681AB9034AD2F8D0241A60704702
:104FD000706600200040025808B5FFF7F1FF024B51
:104FE0001868C0F3806008BD70660020EFF3098385
:104FF000054968334A6B22F001024A6383F309884A
:10500000002383F31188704700EF00E0302080F325
:10501000118862B60D4B0E4AD96821F4E06109048B
:10502000090C0A430B49DA60D3F8FC2042F0807285
:10503000C3F8FC20084AC2F8B01F116841F0010112
:1050400011602022DA7783F82200704700ED00E03B
:105050000003FA0555CEACC5001000E0302310B5B2
:1050600083F311880E4B5B6813F4006314D0F1EEE8
:10507000103AEFF309844FF08073683CE361094B09
:10508000DB6B236684F30988FEF7EEFF10B1064B55
:10509000A36110BD054BFBE783F31188F9E700BF5F
:1050A00000ED00E000EF00E03F04000842040008CB
:1050B00070B5BFF34F8FBFF36F8F1A4A0021C2F84C
:1050C0005012BFF34F8FBFF36F8F536943F4003318
:1050D0005361BFF34F8FBFF36F8FC2F88410BFF3DC
:1050E0004F8FD2F8803043F6E074C3F3C900C3F3A6
:1050F0004E335B0103EA0406014646EA8175013935
:10510000C2F86052F9D2203B13F1200FF2D1BFF365
:105110004F8F536943F480335361BFF34F8FBFF315
:105120006F8F70BD00ED00E0FEE70000214B2248CC
:10513000224A70B5904237D3214BC11EDA1C121A95
:1051400022F003028B4238BF00220021FCF772F8E4
:105150001C4A0023C2F88430BFF34F8FD2F880304E
:1051600043F6E074C3F3C900C3F34E335B0103EAB3
:105170000406014646EA81750139C2F86C52F9D23B
:10518000203B13F1200FF2D1BFF34F8FBFF36F8F8E
:10519000BFF34F8FBFF36F8F0023C2F85032BFF3BE
:1051A0004F8FBFF36F8F70BD53F8041B40F8041B83
:1051B000C0E700BF24740008286900202869002087
:1051C0002869002000ED00E003681A6899685A60B9
:1051D00043681BB142EA01418068184770470000EC
:1051E0004FF0A44310B51C68E00702D52848FFF72C
:1051F000EBFFA10702D52748FFF7E6FF620702D5BC
:105200002548FFF7E1FF230702D52448FFF7DCFF1D
:10521000E00602D52248FFF7D7FFA10602D52148B4
:10522000FFF7D2FF620602D51F48FFF7CDFF230626
:1052300002D51E48FFF7C8FFE00502D51C48FFF75E
:10524000C3FFA10502D51B48FFF7BEFF620502D5CB
:105250001948FFF7B9FF230502D51848FFF7B4FF37
:10526000E00402D51648FFF7AFFFA10402D51548A8
:10527000FFF7AAFF620402D51348FFF7A5FF230436
:1052800002D51248FFF7A0FFBDE81040FFF7E6BEC9
:105290007866002084660020906600209C660020CE
:1052A000A8660020B4660020C0660020CC660020FE
:1052B000D8660020E4660020F0660020FC6600202E
:1052C0000867002014670020206700202C6700205A
:1052D00030B5094B0021094C10200725196054F8FE
:1052E000042B0138C3E90121D16003F10C031161E2
:1052F0005560F4D130BD00BF74660020FC71000819
:105300000F28F0B50AD9102806D10F230020114C20
:1053100001272568984203D9002018E00346F6E7E4
:1053200007FA00F6354213D10C2335434343256079
:10533000181D2344C3E90212074B20445A6B42F064
:1053400001025A63DA6D42F00102DA65DB6DF0BDED
:105350000130DFE774660020004502580368D96811
:10536000DA68C90722F03F02DA6002D51A689207AC
:10537000FCD507225A607047054B996B21EA000162
:1053800099631A6E22EA00021A661B6E704700BF0C
:105390000045025870B5D0E9244300224FF0FF3594
:1053A0009E6804EB42135101D3F80009002805DA86
:1053B000D3F8000940F08040C3F80009D3F8000B8F
:1053C000002805DAD3F8000B40F08040C3F8000B4A
:1053D000013263189642C3F80859C3F8085BE0D25B
:1053E0004FF00113C4F81C3870BD0000890141F072
:1053F0002001016103699B06FCD41220FEF7BCBEAC
:1054000010B50A4C2046FEF791FA094BC4F89030CB
:10541000084BC4F89430084C2046FEF787FA074B37
:10542000C4F89030064BC4F8943010BD38670020A3
:105430000000084060720008D467002000000440AB
:105440006C72000870B503780546012B58D13F4BAC
:10545000D0F89040984254D13D4B0E2165209A6B74
:1054600042F000629A631A6E42F000621A661B6E86
:10547000384BD3F8802042F00062C3F88020D3F884
:10548000802022F00062C3F88020D3F88030FDF73E
:10549000B3FE314BE360314BC4F800380023D5F83C
:1054A0009060C4F8003EC02323604FF40413A3634C
:1054B0003369002BFCDA01230C203361FEF75CFE1C
:1054C0003369DB07FCD41220FEF756FE3369002B4C
:1054D000FCDA00262846A660FFF75CFF6B68C4F87C
:1054E0001068DB68C4F81468C4F81C6863BB1C4B04
:1054F000A3614FF0FF336361A36843F00103A3602E
:1055000070BD184B9842C9D1114B4FF080609A6B17
:1055100042F000729A631A6E42F000721A661B6EB5
:105520000C4BD3F8802042F00072C3F88020D3F8EF
:10553000802022F00072C3F88020D3F88030FFF77B
:105540001BFF0E214D20A2E7074BD1E73867002053
:105550000045025800440258401400400300200255
:10556000003C30C0D4670020083C30C0F8B5D0F80B
:105570009040054600214FF000662046FFF736FFB9
:10558000D5F8941000234FF001128F684FF0FF30D0
:10559000C4F83438C4F81C2804EB431201339F428A
:1055A000C2F80069C2F8006BC2F80809C2F8080B1B
:1055B000F2D20B68D5F89020C5F8983063621023BA
:1055C0001361166916F01006FBD11220FEF7D4FD08
:1055D000D4F8003823F4FE63C4F80038A36943F418
:1055E000402343F01003A3610923C4F81038C4F822
:1055F00014380B4BEB604FF0C043C4F8103B094B21
:10560000C4F8003BC4F81069C4F80039D5F89830E4
:1056100003F1100243F48013C5F89820A362F8BD8B
:105620003C72000840800010D0F8902090F88A105A
:10563000D2F8003823F4FE6343EA0113C2F80038BD
:10564000704700002DE9F84300EB8103D0F890503B
:105650000C468046DA680FFA81F94801166806F0B0
:105660000306731E022B05EB41134FF0000194BF9C
:10567000B604384EC3F8101B4FF0010104F11003BB
:1056800098BF06F1805601FA03F3916998BF06F5B9
:10569000004600293AD0578A04F15801374349019E
:1056A0006F50D5F81C180B430021C5F81C382B1877
:1056B0000127C3F81019A7405369611E9BB3138AD1
:1056C000928B9B08012A88BF5343D8F898209818DA
:1056D00042EA034301F140022146C8F898002846F7
:1056E00005EB82025360FFF781FE08EB8900C36877
:1056F0001B8A43EA845348341E4364012E51D5F873
:105700001C381F43C5F81C78BDE8F88305EB491722
:10571000D7F8001B21F40041C7F8001BD5F81C186E
:1057200021EA0303C0E704F13F030B4A2846214660
:1057300005EB83035A60FFF759FE05EB4910D0F8DB
:10574000003923F40043C0F80039D5F81C3823EAA7
:105750000707D7E70080001000040002D0F894206B
:105760001268C0F89820FFF715BE00005831D0F835
:10577000903049015B5813F4004004D013F4001F2B
:105780000CBF0220012070474831D0F89030490109
:105790005B5813F4004004D013F4001F0CBF022028
:1057A0000120704700EB8101CB68196A0B68136018
:1057B0004B6853607047000000EB810330B5DD6833
:1057C000AA691368D36019B9402B84BF40231360C2
:1057D0006B8A1468D0F890201C4402EB4110013C05
:1057E00009B2B4FBF3F46343033323F0030343EA46
:1057F000C44343F0C043C0F8103B2B6803F00303DD
:10580000012B0ED1D2F8083802EB411013F4807F3F
:10581000D0F8003B14BF43F0805343F00053C0F86E
:10582000003B02EB4112D2F8003B43F00443C2F8C4
:10583000003B30BD2DE9F041D0F8906005460C46A4
:1058400006EB4113D3F8087B3A07C3F8087B08D569
:10585000D6F814381B0704D500EB8103DB685B68BE
:105860009847FA071FD5D6F81438DB071BD505EB88
:105870008403D968CCB98B69488A5A68B2FBF0F6C0
:1058800000FB16228AB91868DA6890420DD2121A03
:10589000C3E90024302383F3118821462846FFF70B
:1058A0008BFF84F31188BDE8F081012303FA04F231
:1058B0006B8923EA02036B81CB68002BF3D021466E
:1058C0002846BDE8F041184700EB81034A0170B556
:1058D000DD68D0F890306C692668E66056BB1A44E3
:1058E0004FF40020C2F810092A6802F00302012ACE
:1058F0000AB20ED1D3F8080803EB421410F4807FEB
:10590000D4F8000914BF40F0805040F00050C4F8B3
:10591000000903EB4212D2F8000940F00440C2F83B
:1059200000090122D3F8340802FA01F10143C3F857
:10593000341870BD19B9402E84BF40202060206803
:105940001A442E8A8419013CB4FBF6F440EAC440A0
:1059500040F00050C6E700002DE9F843D0F8906011
:1059600005460C464F0106EB4113D3F8088918F0A1
:10597000010FC3F808891CD0D6F81038DB0718D5FA
:1059800000EB8103D3F80CC0DCF81430D3F800E04E
:10599000DA68964530D2A2EB0E024FF000091A6089
:1059A000C3F80490302383F31188FFF78DFF89F348
:1059B000118818F0800F1DD0D6F834380126A64083
:1059C000334217D005EB84030134D5F89050D3F857
:1059D0000CC0E4B22F44DCF8142005EB0434D2F8F8
:1059E00000E05168714514D3D5F8343823EA06062F
:1059F000C5F83468BDE8F883012303FA01F203898E
:105A000023EA02030381DCF80830002BD1D0984749
:105A1000CFE7AEEB0103BCF81000834228BF03467A
:105A2000D7F8180980B2B3EB800FE3D89068A0F1E3
:105A3000040959F8048FC4F80080A0EB09089844C1
:105A4000B8F1040FF5D818440B4490605360C8E7D0
:105A50002DE9F84FD0F8905004466E69AB691E40AE
:105A600016F480586E6103D0BDE8F84FFDF7CEBF45
:105A7000002E12DAD5F8003E9B0705D0D5F8003E7F
:105A800023F00303C5F8003ED5F80438204623F080
:105A90000103C5F80438FDF7E7FF370505D52046B3
:105AA000FFF778FC2046FDF7CDFFB0040CD5D5F804
:105AB000083813F0060FEB6823F470530CBF43F45F
:105AC000105343F4A053EB6031071BD56368DB68C8
:105AD0001BB9AB6923F00803AB612378052B0CD10C
:105AE000D5F8003E9A0705D0D5F8003E23F0030311
:105AF000C5F8003E2046FDF7B7FF6368DB680BB1D1
:105B000020469847F30200F1BA80B70226D5D4F8B0
:105B1000909000274FF0010A09EB4712D2F8003BA2
:105B200003F44023B3F5802F11D1D2F8003B002BB2
:105B30000DDA62890AFA07F322EA0303638104EBB0
:105B40008703DB68DB6813B1394620469847013785
:105B5000D4F89430FFB29B689F42DDD9F00619D586
:105B6000D4F89000026AC2F30A1702F00F0302F49D
:105B7000F012B2F5802F00F0CA80B2F5402F09D1A3
:105B800004EB8303002200F58050DB681B6A974218
:105B900040F0B0803003D5F8185835D5E90303D567
:105BA00000212046FFF746FEAA0303D50121204627
:105BB000FFF740FE6B0303D502212046FFF73AFEB4
:105BC0002F0303D503212046FFF734FEE80203D557
:105BD00004212046FFF72EFEA90203D50521204609
:105BE000FFF728FE6A0203D506212046FFF722FEB2
:105BF0002B0203D507212046FFF71CFEEF0103D53A
:105C000008212046FFF716FE700340F1A780E90740
:105C100003D500212046FFF79FFEAA0703D50121E7
:105C20002046FFF799FE6B0703D502212046FFF7B8
:105C300093FE2F0703D503212046FFF78DFEEE06C6
:105C400003D504212046FFF787FEA80603D50521CA
:105C50002046FFF781FE690603D506212046FFF79F
:105C60007BFE2A0603D507212046FFF775FEEB05CC
:105C700074D520460821BDE8F84FFFF76DBED4F873
:105C800090904FF0000B4FF0010AD4F894305FFA77
:105C90008BF79B689F423FF638AF09EB4713D3F869
:105CA000002902F44022B2F5802F20D1D3F8002938
:105CB000002A1CDAD3F8002942F09042C3F80029E8
:105CC000D3F80029002AFBDB3946D4F89000FFF70F
:105CD0008DFB22890AFA07F322EA0303238104EBEE
:105CE0008703DB689B6813B13946204698470BF160
:105CF000010BCAE7910701D1D0F80080072A02F111
:105D000001029CBF03F8018B4FEA18283FE704EB20
:105D1000830300F58050DA68D2F818C0DCF8082058
:105D2000DCE9001CA1EB0C0C00218F4208D1DB68E0
:105D30009B699A683A449A605A683A445A6029E7DB
:105D400011F0030F01D1D0F800808C4501F1010161
:105D500084BF02F8018B4FEA1828E6E7BDE8F88F08
:105D600008B50348FFF774FEBDE80840FFF776B9B1
:105D70003867002008B50348FFF76AFEBDE8084011
:105D8000FFF76CB9D4670020D0F8903003EB4111D5
:105D9000D1F8003B43F40013C1F8003B704700000A
:105DA000D0F8903003EB4111D1F8003943F40013DF
:105DB000C1F8003970470000D0F8903003EB411172
:105DC000D1F8003B23F40013C1F8003B70470000FA
:105DD000D0F8903003EB4111D1F8003923F40013CF
:105DE000C1F800397047000030B50433039C0172DC
:105DF000002104FB0325C160C0E90653049B036333
:105E0000059BC0E90000C0E90422C0E90842C0E9DE
:105E10000A11436330BD00000022416AC260C0E93C
:105E20000411C0E90A226FF00101FEF72DBA00004B
:105E3000D0E90432934201D1C2680AB9181D7047F3
:105E400000207047036919600021C2680132C260F6
:105E5000C269134482699342036124BF436A0361A8
:105E6000FEF706BA38B504460D46E3683BB16269F1
:105E70000020131D1268A3621344E36207E0237A33
:105E800033B929462046FEF7E3F90028EDDA38BD9C
:105E90006FF00100FBE70000C368C269013BC3600B
:105EA0004369134482699342436124BF436A436157
:105EB00000238362036B03B11847704770B530232A
:105EC000044683F31188866A3EB9FFF7CBFF054687
:105ED00018B186F31188284670BDA36AE26A13F8E8
:105EE000015B9342A36202D32046FFF7D5FF002354
:105EF00083F31188EFE700002DE9F84F04460E46C2
:105F0000174698464FF0300989F311880025AA46B4
:105F1000D4F828B0BBF1000F09D141462046FFF765
:105F2000A1FF20B18BF311882846BDE8F88FD4E992
:105F30000A12A7EB050B521A934528BF9346BBF1F3
:105F4000400F1BD9334601F1400251F8040B914236
:105F500043F8040BF9D1A36A403640354033A362BD
:105F6000D4E90A239A4202D32046FFF795FF8AF329
:105F70001188BD42D8D289F31188C9E730465A4604
:105F8000FBF726F9A36A5E445D445B44A362E7E73E
:105F900010B5029C0433017203FB0421C460C0E904
:105FA00006130023C0E90A33039B0363049BC0E983
:105FB0000000C0E90422C0E90842436310BD0000AC
:105FC000026A6FF00101C260426AC0E90422002245
:105FD000C0E90A22FEF758B9D0E904239A4201D158
:105FE000C26822B9184650F8043B0B607047002382
:105FF0001846FAE7C3680021C2690133C3604369E8
:10600000134482699342436124BF436A4361FEF7AC
:106010002FB9000038B504460D46E3683BB123694B
:1060200000201A1DA262E2691344E36207E0237AAA
:1060300033B929462046FEF70BF90028EDDA38BDC2
:106040006FF00100FBE7000003691960C268013AC4
:10605000C260C269134482699342036124BF436AE8
:10606000036100238362036B03B11847704700008C
:1060700070B530230D460446114683F31188866AB5
:106080002EB9FFF7C7FF10B186F3118870BDA36A60
:106090001D70A36AE26A01339342A36204D3E169EB
:1060A00020460439FFF7D0FF002080F31188EDE788
:1060B0002DE9F84F04460D46904699464FF0300AB8
:1060C0008AF311880026B346A76A4FB9494620468D
:1060D000FFF7A0FF20B187F311883046BDE8F88FA5
:1060E000D4E90A073A1AA8EB0607974228BF1746D1
:1060F000402F1BD905F1400355F8042B9D4240F871
:10610000042BF9D1A36A40364033A362D4E90A23B1
:106110009A4204D3E16920460439FFF795FF8BF3D7
:1061200011884645D9D28AF31188CDE729463A46E7
:10613000FBF74EF8A36A3D443E443B44A362E5E7C7
:10614000D0E904239A4217D1C3689BB1836A8BB10B
:10615000043B9B1A0ED01360C368013BC360C36944
:106160001A4483699A42026124BF436A036100238F
:1061700083620123184670470023FBE700F00EBA44
:10618000014B586A704700BF000C0040034B0022CF
:1061900058631A610222DA60704700BF000C0040A9
:1061A000014B0022DA607047000C0040014B58633D
:1061B000704700BF000C0040024B034A1A60034ABC
:1061C0005A6070478868002028690020000002207B
:1061D000074B494210B55C68201A08401968821ABA
:1061E0008A4203D3A24201D85A6010BD0020FCE7C6
:1061F0008868002008B5302383F31188FFF7E8FF93
:10620000002383F3118808BD04480121044B036077
:106210000023C0E901330C30FDF746BF9068002031
:10622000F5610008CB1D083A23F00703591A521AEA
:10623000012110B4D2080024C0E9004384600C306E
:106240001C605A605DF8044BFDF72EBF2DE9F84F36
:10625000364ECD1D0F46002818BF0646082A4FEAC5
:10626000D50538BF082206F10C08341D914640467A
:10627000FDF736FF09F10701C9F1000E2246246837
:106280006CB94046FDF736FF3368CBB30822494668
:10629000E8009847044698B340E9026730E004EB11
:1062A000010CD4F804A00CEA0E0C0AF10100ACF1C8
:1062B000080304EBC0009842E0D9A0EB0C0CB5EB4E
:1062C000EC0F4FEAEC0BD9D89C421CD204F1080227
:1062D000AB45A3EB02024FEAE202626009D9691CF6
:1062E000ED43206803EBC1025D44556043F8310083
:1062F00022601C465F60404644F8086BFDF7FAFEDA
:106300002046BDE8F88FAA45216802D111602346D6
:10631000EFE7013504EBC50344F8351003F108013C
:10632000401AC01058601360F1E700BF9068002069
:10633000F8B550F8043C044650F8085CA0F1080693
:1063400007332F1D0C35DB0840F8043C2846FDF7C9
:10635000C7FE3B469F421A6801D0B34228D20AB119
:10636000964225D244F8082C54F8042C1E600132C1
:1063700054F8081C06EBC200814206D1486802446A
:1063800044F8042C0A6844F8082C5868411C03EBB4
:10639000C1018E4207D154F8042C013202445A60E4
:1063A00054F8082C1A602846BDE8F840FDF7A2BE54
:1063B0001346CFE7FEE7000070B51B4B00250446EF
:1063C00086B058600E4685620163FEF71FFE04F139
:1063D0001003A560E562C4E904334FF0FF33C4E95C
:1063E0000044C4E90635FFF7CBFE2B46024604F114
:1063F00034012046C4E9082380230C4A2565FDF7B3
:10640000C5FE01230A4AE06000920375684672687F
:106410000192B268CDE90223064BCDE90435FDF7C0
:10642000DDFE06B070BD00BFB031002078720008FC
:106430007D720008B5630008024AD36A1843D0622F
:10644000704700BF482F00204B6843608B68836013
:10645000CB68C3600B6943614B6903628B6943621C
:106460000B6803607047000008B5344B40F2FF70C2
:10647000196C014319649A6E024331489A66314A95
:106480009B6E1146FFF7E0FF00F5806002F11C01F2
:10649000FFF7DAFF00F5806002F13801FFF7D4FF63
:1064A00000F5806002F15401FFF7CEFF00F5806037
:1064B00002F17001FFF7C8FF00F5806002F18C0166
:1064C000FFF7C2FF00F5806002F1A801FFF7BCFFF3
:1064D00000F5806002F1C401FFF7B6FF00F58060AF
:1064E00002F1E001FFF7B0FF00F5806002F1FC016E
:1064F000FFF7AAFF02F58C7100F58060FFF7A4FF9B
:1065000000F010F9104BD3F8902242F00102C3F8CA
:106510009022D3F8942242F00102C3F8942205227B
:10652000C3F898204FF06052C3F89C20074AC3F884
:10653000A020BDE80840FEF775BC00BF004502582A
:10654000000002588472000800ED00E01F000803FC
:1065500008B500F0E1FAFDF7E3FD0D4BDA6B42F010
:106560004002DA635A6E22F040025A665B6E094BB3
:106570001A6842F008021A601A6842F004021A60AF
:10658000FEF71EFDFEF730FBBDE80840FEF7B0B891
:106590000045025800180248704700000E4B9A6CE4
:1065A00042F008029A641A6F42F008021A670B4A16
:1065B0001B6FD36B43F00803D363C722084B9A6267
:1065C0004FF0FF32DA6200229A615A63DA605A6051
:1065D00001225A611A607047004502580010005CA1
:1065E000000C0040094A08B51169D3680B40D9B2C4
:1065F0009B076FEA0101116107D5302383F31188EE
:10660000FDF7B8FD002383F3118808BD000C00409E
:10661000044BDA6B0243DA635A6E104358665B6EC2
:10662000704700BF0045025808B53D4B4FF0FF31A1
:10663000D3F8802062F00042C3F88020D3F8802095
:1066400002F00042C3F88020D3F88020D3F88420E1
:10665000C3F88410D3F884200022C3F88420D3F830
:106660008400D86F40F0FF4040F4FF0040F4DF406A
:1066700040F07F00D867D86F20F0FF4020F4FF0083
:1066800020F4DF4020F07F00D867D86FD3F888006F
:106690006FEA40506FEA5050C3F88800D3F8880082
:1066A000C0F30A00C3F88800D3F88800D3F890003C
:1066B000C3F89010D3F89000C3F89020D3F890005E
:1066C000D3F89400C3F89410D3F89400C3F894203E
:1066D000D3F89400D3F89800C3F89810D3F8980032
:1066E000C3F89820D3F89800D3F88C00C3F88C1026
:1066F000D3F88C00C3F88C20D3F88C00D3F89C001E
:10670000C3F89C10D3F89C10C3F89C20D3F89C309D
:10671000FCF74EFAFEF7DCFDBDE8084000F0C8B912
:106720000044025808B50122504BC3F80821504BD1
:106730005A6D42F002025A65DA6F42F00202DA67DD
:106740000422DB6F4B4BDA605A689104FCD54A4A4D
:106750001A6001229A60494ADA6000221A614FF4F5
:1067600040429A61434B9A699204FCD51A6842F4FC
:1067700080721A60424B1A6F12F4407F04D04FF4BB
:1067800080321A6700221A671A6842F001021A6002
:106790003B4B1A685007FCD500221A611A6912F0A7
:1067A0003802FBD1012119604FF0804159605A67CE
:1067B000344ADA62344A1A611A6842F480321A6042
:1067C0002F4B1A689103FCD51A6842F480521A6064
:1067D0001A689204FCD52D4A2D499A6200225A6308
:1067E000196301F57C01DA6301F5E77199635A6475
:1067F000284A1A64284ADA621A6842F0A8521A60D3
:106800001F4B1A6802F02852B2F1285FF9D14822D2
:106810009A614FF48862DA6140221A621F4ADA6490
:106820001F4A1A651F4A5A651F4A9A6532231F4A32
:106830001360136803F00F03022BFAD1104A136997
:1068400043F003031361136903F03803182BFAD1E3
:106850004FF00050FFF7DCFE4FF08040FFF7D8FE0E
:106860004FF00040BDE80840FFF7D2BE0080005165
:10687000004502580048025800C000F00400000122
:10688000004402580000FF01008890083220600098
:1068900063020901470E0508DD0BBF01200000203F
:1068A000000001100910E00000010110002000525A
:1068B0004FF0B04208B5D2F8883003F00103C2F8B7
:1068C000883023B1044A13680BB150689847BDE87B
:1068D0000840FEF7C3BB00BFA86800204FF0B042DD
:1068E00008B5D2F8883003F00203C2F8883023B12B
:1068F000044A93680BB1D0689847BDE80840FEF79A
:10690000ADBB00BFA86800204FF0B04208B5D2F878
:10691000883003F00403C2F8883023B1044A1369B5
:106920000BB150699847BDE80840FEF797BB00BF20
:10693000A86800204FF0B04208B5D2F8883003F0C4
:106940000803C2F8883023B1044A93690BB1D069B7
:106950009847BDE80840FEF781BB00BFA86800204B
:106960004FF0B04208B5D2F8883003F01003C2F8F7
:10697000883023B1044A136A0BB1506A9847BDE8C6
:106980000840FEF76BBB00BFA86800204FF0B04383
:1069900010B5D3F8884004F47872C3F88820A306B1
:1069A00004D5124A936A0BB1D06A9847600604D5A1
:1069B0000E4A136B0BB1506B9847210604D50B4A56
:1069C000936B0BB1D06B9847E20504D5074A136C63
:1069D0000BB1506C9847A30504D5044A936C0BB1D6
:1069E000D06C9847BDE81040FEF738BBA86800207F
:1069F0004FF0B04310B5D3F8884004F47C42C3F89C
:106A00008820620504D5164A136D0BB1506D984766
:106A1000230504D5124A936D0BB1D06D9847E0045D
:106A200004D50F4A136E0BB1506E9847A10404D5DC
:106A30000B4A936E0BB1D06E9847620404D5084A96
:106A4000136F0BB1506F9847230404D5044A936F1A
:106A50000BB1D06F9847BDE81040FEF7FFBA00BFFA
:106A6000A868002008B50348FCF75CFABDE80840B8
:106A7000FEF7F4BA4C26002008B50348FCF736FBB5
:106A8000BDE80840FEF7EABA6C26002008B50348C6
:106A9000FCF72CFBBDE80840FEF7E0BAD826002042
:106AA00008B5FFF79FFDBDE80840FEF7D7BA000024
:106AB000062108B50846FCF79FFB06210720FCF7D6
:106AC0009BFB06210820FCF797FB06210920FCF719
:106AD00093FB06210A20FCF78FFB06211720FCF709
:106AE0008BFB06212820FCF787FB09217A20FCF785
:106AF00083FB0A215C20FCF77FFB07213220FCF797
:106B00007BFB0C212620FCF777FB0C215220BDE8F3
:106B10000840FCF771BB000008B5FFF785FD00F0E9
:106B20000FF8FCF727FDFCF7FFFEFCF7D1FDFDF7A2
:106B300095F9FFF731FDBDE80840FFF71FBB0000E6
:106B40000023054A19460133102BC2E9001102F156
:106B50000802F8D1704700BFA86800200B46014624
:106B6000184600F001B8000010B5054C13462CB1D2
:106B70000A4601460220AFF3008010BD2046FCE724
:106B80000000000010B501390244904201D10020FC
:106B900005E0037811F8014FA34201D0181B10BD86
:106BA0000130F2E7034611F8012B03F8012B002A0C
:106BB000F9D1704700000000010000000001000151
:106BC0000000000000000000000000005265717528
:106BD000657374656420746F206572617365206DE0
:106BE0006F7265207468616E2077652063616E0A3C
:106BF00000457261736520436F6D6D616E64205254
:106C0000656365697665640A0050435420444F4EBD
:106C1000453A2025640A000053544D333248373F2B
:106C20003F3F0053544D3332483733782F37327853
:106C30000053544D3332483734332F3735332F37E1
:106C40003530000001105A0003105900012058008F
:106C50000320560053464450000000004A45444576
:106C6000433A204661696C656420746F20646574E2
:106C700065637420666C617368206465766963651A
:106C80003A2025730A004A454445433A2046616943
:106C90006C656420746F20636F6E66696720666C34
:106CA000617368206465766963653A2025730A001C
:106CB0004A454445433A20446574656374656420DD
:106CC000466C617368204465766963653A20257374
:106CD0000A0045787420466C617368204E6F7420FA
:106CE000466F756E642100006D7432357100773225
:106CF000357100773235712D64747200E86C0008CC
:106D000020BA000000000000EE6C0008EF40000018
:106D100000000000F36C0008EF70000000000000AD
:106D20000000000000000000091C0008711E00089F
:106D30002515000829150008D1150008D91D0008DF
:106D40002D15000831150008D11C0008A1150008F8
:106D5000311D0008151A00083915000835150008FE
:106D6000091F00089915000800000000000000003D
:106D7000000000000000000001200008452300087A
:106D80004523000805200008092000080D20000800
:106D9000112000084523000845230008452300086A
:106DA000292000082D200008452000084D2000085B
:106DB000592000085D200008612000084C260020B2
:106DC0000100000000000000000000009921000800
:106DD000B1210008012000086D200008E52100080D
:106DE000A12000087D220008AD2200081120000823
:106DF0008520000871200008812000082920000853
:106E00002D200008452000084D20000859200008CA
:106E10005D200008612000088920000800000000B3
:106E20000000000019210008652000086920000802
:106E30000000000000000000252400082D240008A8
:106E400011240008192400083D24000841240008EA
:106E5000286E756C6C29000000000000C128000835
:106E6000992800084928000865280008812800089A
:106E700010000240080002400008024000000B0021
:106E800028000240080002400408024006010C00ED
:106E900040000240080002400808024010020D00B5
:106EA00058000240080002400C08024016030E0081
:106EB000700002400C0002401008024000040F0065
:106EC000880002400C000240140802400605100031
:106ED000A00002400C0002401808024010061100F9
:106EE000B80002400C0002401C08024016072F00A8
:106EF0001004024008040240200802400008380044
:106F0000280402400804024024080240060939000F
:106F1000400402400804024028080240100A3A00D7
:106F200058040240080402402C080240160B3B00A3
:106F3000700402400C04024030080240000C3C0087
:106F4000880402400C04024034080240060D44004C
:106F5000A00402400C04024038080240100E450014
:106F6000B80402400C0402403C080240160F4600E0
:106F70004D444D41206661696C75726500000000EA
:106F8000009600000000000000000000000000006B
:106F9000000000000000000000000000353500087F
:106FA000213500085D3500084935000855350008D1
:106FB000413500082D3500081935000869350008ED
:106FC000000000004D36000839360008753600080C
:106FD000613600086D36000859360008453600084D
:106FE0003136000881360008000000000100000072
:106FF0000000000063300000F46F0008A02F0020A4
:10700000B03100204375626550696C6F7400437540
:1070100062655265642D424C002553455249414CEE
:1070200025000000030000000000000025390008D2
:1070300000000000100000000863002000000000B5
:10704000010000000000000002000000000000003D
:107050006D380008DD38000840004000186300204B
:107060002863002002000000000000000300000070
:10707000000000002539000800000000100000009A
:107080003863002000000000010000000000000044
:1070900002000000000000006D380008DD38000824
:1070A00040004000486300205863002002000000B8
:1070B000000000003867002002020100386700204D
:1070C000040403004D4600082D450008D145000882
:1070D000AD4500088D000000DC70000809028D003D
:1070E000040100C032080B00020202010009040082
:1070F0000001020201000524001001052401030122
:107100000424020205240600010705810310000182
:1071100009040100020A0000000705020240000005
:1071200007058202400000080B020202020100096A
:1071300004020001020201000524001001052401DF
:107140000303042402020524060203070583031037
:10715000000109040300020A0000000705040240C0
:10716000000007058402400000000000120000003B
:107170007471000812010002EF020140AE2D591097
:1071800000020102030100000403090425424F41EB
:1071900052442500437562655265645072696D61A1
:1071A0007279003031323334353637383941424321
:1071B000444546000001002000FF010002000000DD
:1071C000000000300000040008000000000000245F
:1071D00000000800040000000004000000FC0000A3
:1071E00002000000000004300080000008000000E1
:1071F00000000038000001000100000040000052C3
:1072000080000052C00000520001005240010052B4
:1072100080010052C00100520002005240020052A0
:1072200080020052C002005200030052400300528C
:1072300080030052C003005200040052000000000E
:10724000813A0008393D0008E53D00084000400053
:107250007068002070680020010000008068002035
:107260008000000040010000080000000001000054
:1072700000100000080000006D61696E0069646C18
:10728000650000000000802A00000000AAAAAAAA47
:1072900000000024FFFF00000000000000A00A0022
:1072A0002000200000000000AAAAAAAA00000000F6
:1072B000FFFF0000000900000009000000000000BE
:1072C00000000000AAAAAAAA00000000FFFF000018
:1072D00000000000000000000028800A00000000FC
:1072E000AAAAAAAA00140000FFFF0000000070076D
:1072F000009099002080020000000000AAAAAAAA1B
:1073000000400100FFFF00000009007007000000BE
:107310001000000000000000AAAAAAAA00000000B5
:10732000FBFF00000000000000000000010400005E
:1073300000000000AAAAAAAA00000000FEFF0000A8
:10734000000000000000000000000000000000003D
:10735000AAAAAAAA00000000FFFF00000000000087
:10736000000000000000000000000000AAAAAAAA75
:1073700000000000FFFF000000000000000000000F
:107380000000000000000000AAAAAAAA0000000055
:10739000FFFF0000000000000000000000000000EF
:1073A00000000000AAAAAAAA00000000FFFF000037
:1073B00000000000000000002D040000000000009C
:1073C00000001A0000000002FF000000B831002099
:1073D0006C26002000000000186C000883040000E8
:1073E000236C000850040000316C00080096000077
:1073F0000000080096000000000800960000000051
:10740000080000000400000088710008000000006F
:10741000000000000000000000000000000000006C
:047420000000000068
:00000001FF
