:020000040800F2
:1000000000070020F10200087134000829340008BC
:10001000513400082934000849340008F30200086C
:10002000F3020008F3020008F3020008F944000894
:10003000F3020008F3020008F3020008F3020008CC
:10004000F3020008F3020008F3020008F3020008BC
:10005000F3020008F3020008AD7D0008D97D000816
:10006000057E0008317E00085D7E0008BD45000861
:10007000E5450008114600083D46000869460008AD
:1000800091460008BD460008F3020008D933000875
:1000900001340008ED33000815340008897E00089B
:1000A000F3020008F3020008F3020008F30200085C
:1000B000F3020008F3020008F3020008F30200084C
:1000C000F3020008F3020008F3020008F30200083C
:1000D000F3020008F3020008F3020008F30200082C
:1000E000ED7E0008F3020008F3020008F3020008A6
:1000F000F3020008F3020008F3020008E9460008D2
:10010000F3020008F3020008757F0008F3020008FC
:10011000F3020008F3020008F3020008F3020008EB
:10012000154700083D470008694700089547000843
:10013000C1470008F3020008F3020008F3020008B8
:10014000F3020008F3020008F3020008F3020008BB
:10015000E94700081548000841480008F302000874
:10016000F3020008F3020008F3020008F30200089B
:10017000F3020008B5710008F3020008F30200085A
:10018000F3020008F3020008617F0008F302000890
:10019000F3020008F3020008F3020008F30200086B
:1001A000F3020008F3020008F3020008F30200085B
:1001B000F3020008F3020008F3020008F30200084B
:1001C000F3020008F3020008F3020008F30200083B
:1001D000F3020008A1710008F3020008F30200080E
:1001E000F3020008F3020008F3020008F30200081B
:1001F000F3020008F3020008F3020008F30200080B
:10020000F3020008F3020008F3020008F3020008FA
:10021000F3020008F3020008F3020008F3020008EA
:10022000F3020008F3020008F3020008F3020008DA
:10023000F3020008F3020008F3020008F3020008CA
:10024000F3020008F3020008F3020008F3020008BA
:10025000F3020008F3020008F3020008F3020008AA
:10026000F3020008F3020008F3020008F30200089A
:10027000F3020008F3020008F3020008F30200088A
:10028000F3020008F3020008F3020008F30200087A
:10029000F3020008F3020008F3020008F30200086A
:1002A000F3020008F3020008F3020008F30200085A
:1002B000F3020008F3020008F3020008F30200084A
:1002C000F3020008F3020008F3020008F30200083A
:1002D000F3020008F3020008F3020008F30200082A
:1002E00029170008000000000000000000000000C6
:1002F00002E000F000F8FEE772B6374880F30888A5
:10030000364880F3098836483649086040F20000D4
:10031000CCF200004EF63471CEF200010860BFF35B
:100320004F8FBFF36F8F40F20000C0F2F0004EF627
:100330008851CEF200010860BFF34F8FBFF36F8F7B
:100340004FF00000E1EE100A4EF63C71CEF20001D3
:100350000860062080F31488BFF36F8F06F096F9CB
:1003600007F0DEFA4FF055301F491B4A91423CBF5F
:1003700041F8040BFAE71D49184A91423CBF41F885
:10038000040BFAE71A491B4A1B4B9A423EBF51F82D
:10039000040B42F8040BF8E700201849184A914270
:1003A0003CBF41F8040BFAE706F0AEF907F03CFB5E
:1003B000144C154DAC4203DA54F8041B8847F9E796
:1003C00000F042F8114C124DAC4203DA54F8041B11
:1003D0008847F9E706F096B90007002000230020BF
:1003E0000000000808ED00E00001002000070020E8
:1003F00030860008002300206C230020702300209A
:1004000050890020E0020008E4020008E40200082D
:10041000E40200082DE9F04F2DED108AC1F80CD050
:10042000D0F80CD0BDEC108ABDE8F08F002383F328
:1004300011882846A047002005F04EFBFEE705F096
:10044000C9FA00DFFEE70000F8B501F0EDF901F0B0
:1004500083FB06F09FF8074606F00EF90546A8BB99
:100460001F4B9F4232D001339F4232D027F0FF0210
:100470001C4B9A4230D12E4642F21074F8B200F072
:100480009FFF00F0A3FF08B10024264601F0F4FD11
:1004900020B10024032000F079F8264635B1124B34
:1004A0009F4203D0002406F0DFF82646002006F025
:1004B0007BF80EB100F080F801F0ECFA00F0BAFF22
:1004C000204600F037F900F077F8F9E72E460024CF
:1004D000D7E704460126D4E7064641F28834D0E740
:1004E000010007B0000008B0263A09B008B501F0D5
:1004F00067F9A0F120035842584108BD07B541F201
:100500001203022101A8ADF8043001F077F903B01D
:100510005DF804FB38B5302383F31188174803686E
:100520000BB105F0A5FB0023154A4FF47A7113486F
:1005300005F094FB002383F31188124C236813B158
:100540002368013B2360636813B16368013B636008
:100550000D4D2B7833B963687BB9022001F00CFA9A
:10056000322363602B78032B07D163682BB90220F9
:1005700001F002FA4FF47A73636038BD70230020F3
:10058000150500089024002088230020084B1870CF
:1005900003280CD8DFE800F008050208022001F06B
:1005A000E9B9022001F0E4B9024B00225A60704719
:1005B0008823002090240020F8B501F05DFD30B1C3
:1005C000544B03221A700022534B5A60F8BD534B10
:1005D000534A1C4619680131F8D004339342F9D1CB
:1005E0006268504B9A42F1D94F4B9B6803F100630C
:1005F00003F500339A42E9D206F00AF806F01CF837
:10060000002001F02BF90220FFF7C0FF474B00212B
:10061000D3F8E820C3F8E810D3F81021C3F810117C
:10062000D3F81021D3F8EC20C3F8EC10D3F8142140
:10063000C3F81411D3F81421D3F8F020C3F8F01044
:10064000D3F81821C3F81811D3F81821D3F8802053
:1006500042F00062C3F88020D3F8802022F00062CC
:10066000C3F88020D3F88020D3F8802042F00072B5
:10067000C3F88020D3F8802022F00072C3F88020D5
:10068000D3F8803072B64FF0E023C3F8084DD4E9B8
:100690000004BFF34F8FBFF36F8F254AC2F8841059
:1006A000BFF34F8F536923F480335361BFF34F8FF0
:1006B000D2F8803043F6E076C3F3C905C3F34E3376
:1006C0005B0103EA060C29464CEA81770139C2F83E
:1006D0007472F9D2203B13F1200FF2D1BFF34F8F88
:1006E000BFF36F8FBFF34F8FBFF36F8F536923F447
:1006F000003353610023C2F85032BFF34F8FBFF372
:100700006F8F302383F31188854680F30888204754
:100710005CE700BF8823002090240020000002082E
:1007200020000208FFFF01080023002000440258B7
:1007300000ED00E02DE9F04F93B0B74B2022FF21F0
:1007400000900AA89D6801F04FF9B44A1378A3B944
:100750000121B34811700360302383F311880368CB
:100760000BB105F085FA0023AE4A4FF47A71AC481C
:1007700005F074FA002383F31188009B13B1AA4B90
:10078000009A1A60A94A1378032B03D00023137030
:10079000A54A53604FF0000A009CD3465646D14606
:1007A000012001F0E7F824B19F4B1B68002B00F0FB
:1007B0002C82002001F004F80390039B002B01DA47
:1007C00000F08CFE039B002BEDDB012001F0D0F844
:1007D000039B213B1F2BE3D801A252F823F000BF5B
:1007E00061080008890800081D090008A107000821
:1007F000A1070008A1070008AF0900087F0B000847
:10080000990A0008FB0A0008230B0008490B00089E
:10081000A10700085B0B0008A1070008CD0B00082A
:1008200001090008A1070008110C00086D08000864
:1008300001090008A1070008FB0A0008A107000839
:10084000A1070008A1070008A1070008A1070008E8
:10085000A1070008A1070008A10700081D0900085A
:100860000220FFF743FE002840F0F981009B02219F
:1008700005A8BAF1000F08BF1C4641F21233ADF8CB
:10088000143000F0BBFF8BE74FF47A7000F098FF54
:10089000071EEBDB0220FFF729FE0028E6D0013F10
:1008A000052F00F2DE81DFE807F0030A0D10133692
:1008B0000523042105A8059300F0A0FF17E00421FB
:1008C0005548F9E704215A48F6E704215948F3E767
:1008D0004FF01C08404608F1040800F0C1FF042155
:1008E000059005A800F08AFFB8F12C0FF2D1012085
:1008F0004FF0000900FA07F747EA0B0B5FFA8BFB92
:1009000001F0BEF826B10BF00B030B2B08BF00243F
:10091000FFF7F4FD44E704214748CDE7002EA5D0BA
:100920000BF00B030B2BA1D10220FFF7DFFD0746D5
:1009300000289BD00120002600F090FF0220FFF746
:1009400025FE1FFA86F8404600F098FF0446B0B135
:10095000039940460136A1F140025142514100F055
:10096000A5FF0028EDD1BA46044641F21213022138
:1009700005A83E46ADF8143000F040FF10E72546CC
:100980000120FFF703FE244B9B68AB4207D92846A2
:1009900000F066FF013040F067810435F3E7002581
:1009A000224BBA463E461D701F4B5D60A8E7002EE5
:1009B0003FF45CAF0BF00B030B2B7FF457AF02201F
:1009C000FFF7E4FD322000F0FBFEB0F10008FFF677
:1009D0004DAF18F003077FF449AF0F4A08EB05034A
:1009E000926893423FF642AFB8F5807F3FF73EAF43
:1009F000124BB845019323DD4FF47A7000F0E0FE0E
:100A00000390039A002AFFF631AF039A0137019B46
:100A100003F8012BEDE700BF002300208C24002009
:100A20007023002015050008902400208823002052
:100A300004230020082300200C2300208C23002006
:100A4000C820FFF753FD074600283FF40FAF1F2DC6
:100A500011D8C5F120020AAB25F0030084494245B4
:100A6000184428BF4246019200F098FF019AFF21E6
:100A70007F4800F0B9FF4FEAA803C8F387027C491A
:100A80002846019300F0B8FF064600283FF46DAFFA
:100A9000019B05EB830533E70220FFF727FD0028C4
:100AA0003FF4E4AE00F014FF00283FF4DFAE00276F
:100AB000B846704B9B68BB4218D91F2F11D80A9BB0
:100AC00001330ED027F0030312AA134453F8203C3D
:100AD00005934046042205A9043701F0B7FA804681
:100AE000E7E7384600F0BCFE0590F2E7CDF8148049
:100AF000042105A800F082FE02E70023642104A877
:100B0000049300F071FE00287FF4B0AE0220FFF7DE
:100B1000EDFC00283FF4AAAE049800F0CFFE05904B
:100B2000E6E70023642104A8049300F05DFE00289A
:100B30007FF49CAE0220FFF7D9FC00283FF496AE6C
:100B4000049800F0BDFEEAE70220FFF7CFFC002882
:100B50003FF48CAE00F0CCFEE1E70220FFF7C6FCCC
:100B600000283FF483AE05A9142000F0C7FE074615
:100B70000421049004A800F041FE3946B9E7322070
:100B800000F01EFE071EFFF671AEBB077FF46EAECF
:100B9000384A07EB0903926893423FF667AE02209A
:100BA000FFF7A4FC00283FF461AE27F003074F4491
:100BB000B9453FF4A5AE484609F1040900F050FEDE
:100BC0000421059005A800F019FEF1E74FF47A70B2
:100BD000FFF78CFC00283FF449AE00F079FE0028B6
:100BE00044D00A9B01330BD008220AA9002000F050
:100BF00003FF00283AD02022FF210AA800F0F4FECB
:100C0000FFF77CFC1C4804F06DFF13B0BDE8F08FCB
:100C1000002E3FF42BAE0BF00B030B2B7FF426AE14
:100C20000023642105A8059300F0DEFD0746002897
:100C30007FF41CAE0220FFF759FC804600283FF4E9
:100C400015AEFFF75BFC41F2883004F04BFF0598CE
:100C500000F060FF46463C4600F012FFA0E5064665
:100C60004EE64FF0000901E6BA467EE637467CE6DE
:100C70008C23002000230020A0860100094A49F2AD
:100C80006900136899B21B0C00FB013344F25061F8
:100C90001360054B186882B2000C01FB020018605B
:100CA00080B270471423002010230020002110225E
:100CB00010B5044600F098FE034B03CB2060616042
:100CC0001868A06010BD00BF00E8F11FF0B5ADF5D9
:100CD000517D4FF4C47207460D466EAC002120468C
:100CE00000F082FE02F0CCFB4FF47A72274BB0FB8F
:100CF000F2F0186093E80700022384E807000DF57E
:100D0000ED702382FFF7D2FF47F60503204907A8BD
:100D1000238407F0C9F91F230DF2EB220DF1340CE7
:100D200084F8323107AB1E46083203CE664542F8DE
:100D3000080C42F8041C3346F5D130681060204698
:100D4000B188B3790FAE918093713146012200F0E2
:100D500063FF002380B2E97E0393AB7E029305F12B
:100D6000190301930123009306A3D3E90023CDE9DE
:100D70000460384602F090FF0DF5517DF0BD00BFD4
:100D8000AFF300809E6AC421818A46EE9824002039
:100D9000B88000082DE9F0412C4CDAB080460D46B1
:100DA000237A5BBB27A9284601F05AF8074600289A
:100DB00042D19DF89D60C82E3ED801464FF4A662F0
:100DC000204600F011FE4FF4807332460DF19E0173
:100DD000C4F8F8314FF4007304F109002644C4F854
:100DE0000C334FF44073C4F8203400F0D7FD9DF865
:100DF0009C30777223720BB9EB7E237206AC812292
:100E0000002127A800F0F0FD0122214627A801F0CB
:100E10006DF8002380B2E97E0393AB7E029305F167
:100E2000190301932823CDE904400093404605A30C
:100E3000D3E9002302F030FF5AB0BDE8F08100BFD3
:100E4000AFF3008026417272DF25D7B7E03400206F
:100E5000F0B5254E4FF48A75F1B0002405FB00650E
:100E600096F8D830D822214685F8DC303AA885F8A3
:100E7000E84006AF00F0B8FD06F1090000F0ACFD57
:100E8000D5F8E430C2B206F109018DF8F0000DF199
:100E9000F100CDE93A3400F081FD394601223AA84B
:100EA00001F05AF8082380B2317ACDE904700127A5
:100EB0000E48CDE9023706F1D803019330230093A1
:100EC00007A3D3E9002302F0E7FEA04206DD02F00B
:100ED000D7FAC5F8E000384671B0F0BD2046FBE710
:100EE00078F6339F93CACD8DE0340020B0340020D3
:100EF0002DE9F04F274F87B0DFF8A480264E384603
:100F000002F0F6FE034600283CD00024234DADF845
:100F10001440A1460294A246CDE90344027B8DF819
:100F2000142003AA9968406803C21B6843F0004379
:100F300002932B6804F23454D3F810B002F0A2FAF2
:100F400010EB0802CDF800A0284605F5A65541F1A2
:100F5000000302A9D84740F668230028C8BF49F01B
:100F6000010910359C42E4D1B9F1000F05D0384693
:100F700002F0C2FE86F800A0C1E73378072B04D840
:100F80000133337007B0BDE8F08F024802F0B4FEC1
:100F9000F8E700BFB0340020153A0020183A0020CE
:100FA00040420F0070B50D4614461E4602F0D0FDBB
:100FB00050B9022E10D1012C0ED112A3D3E9002377
:100FC0000120C5E9002307E0282C10D005D8012C0A
:100FD00009D0052C0FD0002070BD302CFBD10BA305
:100FE000D3E90023ECE70BA3D3E90023E8E70BA345
:100FF000D3E90023E4E70BA3D3E90023E0E700BF34
:10100000AFF30080401DA12026812A0B78F6339F84
:1010100093CACD8D9E6AC421818A46EE26417272A2
:10102000DF25D7B7F017304A39059E5638B5054643
:101030000E4C0021013500F039FCA4F82C55B4F811
:101040002C0500F01BFC78B1B4F82C0500F026FC50
:10105000014648B9B4F82C0500F028FCB4F82C354A
:101060000133A4F82C35EAE738BD00BFE034002096
:10107000F8B50E4C02260E4FA4F5805343F8407C81
:10108000237E3BB965692DB1284601F06FF82846EB
:1010900001F0A8F92046A4F5A65401F067F8012E46
:1010A000A4F1100400D1F8BD0126E5E7285F002077
:1010B000788100082DE9F04F8FB005460C4600AF4F
:1010C00002F046FD00284BD1237E022B1BD1E38A80
:1010D000012B18D102F0D4F90646FFF7CFFD0346E5
:1010E0004FF4C87006F51676DFF8D082B3FBF0F245
:1010F00002FB103316FA83F3C8F80030E37E33B9ED
:10110000A74B00221A703C37BD46BDE8F08F07F1AF
:101110002401204600F058FE0028F4D107F1140005
:10112000FFF7C4FD97F8264007F1140107F12700E7
:10113000224606F087FF0028E2D10F2C08D8984BF2
:101140001C70D8F80030A3F51673C8F80030DAE741
:1011500097F824100029D6D0284602F0F1FCD2E7F7
:10116000E38A282B33D010D8012B2BD0052BCAD1E2
:10117000BFF34F8F8B498C4BCA6802F4E062134374
:10118000CB60BFF34F8F00BFFDE7302BBBD1874E45
:10119000E17E327A9142B6D1607E3146002291F8EA
:1011A000DC50854200F0AD80013201F58A71042ADD
:1011B000F5D1326840F6B831FA328A4294BF3260D3
:1011C0003160A0E721462846FFF780FD9BE72146D6
:1011D0002846FFF7DFFD96E7B2F8EC507B6005F19B
:1011E00003094FEA99094FEA8902D11DC908A8EB02
:1011F000C10300219D46EB46584600F0F5FB04F183
:10120000EE012A465846314400F0C8FB7B6813B90A
:10121000012000F023FB96F8D20000F02FFB0446DB
:1012200030B9307200F054FB204600F017FBB0E0FC
:10123000D6F8D4203AB996F8D200B6F82C258242D6
:1012400001D8FFF7F3FED6F8D4202A44944208D2FE
:1012500096F8D200B6F82C250130824201D8FFF76B
:10126000E5FE5FFA89F25946706800F0C5FB08B9DF
:10127000C54679E0726896F8D2002A447260D6F8C2
:10128000D42005EB0209C6F8D49000F0F7FA8145A6
:1012900009D396F8D220D6F8D4000132001B86F884
:1012A000D220C6F8D400FF2D0FD80024347200F0ED
:1012B0000FFB204600F0D2FA00F0DEFE3C4B188116
:1012C00008B9FFF779F9C5461DE7BB6896F8D9005C
:1012D0000AFB0362FB68D2F8E41082F8E83001F5FB
:1012E0008061C2F8E030C2F8E410FFF7B1FDFFF70B
:1012F000FFFD96F8D920013202F0030286F8D920CA
:10130000B6E74FF48A7A20460AFB02F505F1EA01B6
:10131000314400F055FEF86000287FF4F4AE01225D
:10132000354485F8E82002F0ABF8D5F8E020D6ED9A
:10133000007A801A40F6B832B8EE677ADFED1D6A9F
:10134000192838BF1920904228BF104607EE900A8E
:10135000F8EEE77A67EEA67ADFED176AE7EE267A0F
:10136000FCEEE77AC6ED007A96F8D93071680AFB90
:1013700003F4BB60321992F8E8505DB1D2F8E43062
:10138000E8468B423FF428AF002182F8E810C2F80B
:10139000E010C5467368064A9B0A01331381B2E622
:1013A000A934002000ED00E00400FA05E03400203C
:1013B00098240020CDCCCC3D6666663FAC3400203E
:1013C000014B1870704700BFA424002038B54FF0BF
:1013D0000054144B22689A4222D1607DF8B1124B1E
:1013E0000025C922114918701148237D0930C0F821
:1013F000DB5000F8013C4FF48073C0F8EF314FF43C
:101400000073C0F803334FF44073C0F8173400F092
:10141000C5FAE0222946204600F0E6FA012038BD50
:101420000020FCE79AAD44C5A4240020160000204B
:10143000E034002037B500F01FFE1F4C1F4D022383
:1014400001221F496B7123682881204604F58054CE
:101450005B6898470122D4F8D03404F59A601849A3
:101460005B689847002317494FF480520193164B4D
:1014700016480093164B02F03BFB164B197811B13E
:10148000124802F05DFB01F0FBFF0446FFF7F6FB9C
:101490004FF4C873B0FBF3F202FB130304F51670AC
:1014A00010FA83F00C4B186005F0E6F808B10F2332
:1014B0002B8103B030BD00BF183A002098240020D3
:1014C00040420F00A8240020A50F0008B0340020DF
:1014D000B5100008A4240020AC3400202DE9F04F02
:1014E00000252DED028B93B00DF12C084FF0010A71
:1014F000DFF814B2FFF7FCFC0A95ADF834500B95F9
:10150000C8F804509FED798B00267E4C374623683F
:101510000DF11D0207A920468DF81CA08DF81D5065
:101520008DED008BD3F808900023C8479DF81C90E0
:10153000B9F1000F1ED0102200210EA800F054FABD
:10154000236808AA0AA95F6920460DF11E03B8475F
:101550000FAB4F4698E8030083E803009DF8343052
:101560000EA958468DF844300A9B0E93DDE90823F6
:1015700002F0A0FD06F2345640F6682304F5A654A6
:101580009E4204F11004C2D1002FBDD15E4802F08A
:10159000DFFA00283FD15D4E01F072FF33689842B8
:1015A00039D301F06DFF0446FFF768FB4FF4C873B1
:1015B0008DF82870B0FBF3F202FB130304F51670EC
:1015C00010FA83F03060524E377817B901238DF846
:1015D0002830C7F110040EA8FFF768FB0EABE4B289
:1015E0000DF12900D919062C28BF06242246013402
:1015F00000F0D4F90AABE4B24348039318230494EF
:101600000293444B0193012300933AA3D3E90023AF
:1016100002F0E4FA357001F033FF3F4A3F4C1368A3
:10162000C31AB3F57A7F2FD3106001F02BFF024667
:101630000B46354802F06AFB334802F089FA18B3CA
:10164000237A0EAF364E002B14BF0323022373718F
:1016500001F016FF4FF47A7301223946B0FBF3F024
:101660003060304600F088FB182380B202932D4B87
:10167000019340F25513CDE90370009322481FA354
:10168000D3E9002302F0AAFA237A93B101F0F8FE1D
:10169000002607464FF48A7894F8D900304400F0C9
:1016A000030008FB004393F8E82072B10136042ED2
:1016B000F2D1C82004F016FA237A002B7FF414AF7D
:1016C00013B0BDEC028BBDE8F08FD3F8E02042B13F
:1016D0002368BA1AFA2B38BFFA230533B2EB430F4B
:1016E000E4D3FFF7B5FB0028E0D1E2E700000000FB
:1016F00000000000401DA12026812A0BF1C6A7C1D1
:10170000D068080F183A0020B0340020AC34002014
:10171000A9340020A8340020103A0020E034002032
:1017200098240020143A002008B5064801F068F912
:10173000054801F065F9054A05490020BDE8084063
:1017400006F06CBC183A0020E84E0020106400201F
:10175000711000082DE9F84F4FF47A7306460D46D4
:10176000002402FB03F7DFF85080DFF8509098F96F
:1017700000305FFA84FA5A1C01D0A34212D159F802
:1017800024002A4631460368D3F820B03B46D847A8
:10179000854207D1074B012083F800A0BDE8F88FF0
:1017A0000124E4E7002CFBD04FF4FA7004F09AF91E
:1017B0000020F3E7FC630020182300201C230020F6
:1017C000002307B5024601210DF107008DF807300F
:1017D000FFF7C0FF20B19DF8070003B05DF804FBE0
:1017E0004FF0FF30F9E700000A46042108B5FFF783
:1017F000B1FF80F00100C0B2404208BD074B0A466D
:1018000030B41978064B53F821400146236820462E
:10181000DD69044BAC4630BC604700BFFC63002070
:101820001C230020A086010070B50A4E00240A4D3A
:1018300004F084FC308028683388834208D904F09F
:1018400079FC2B6804440133B4F5003F2B60F2D3DC
:1018500070BD00BFFE630020B863002004F03CBDF3
:1018600000F1006000F500300068704700F1006092
:10187000920000F5003004F0BDBC0000054B1A6872
:10188000054B1B889B1A834202D9104404F052BCBA
:1018900000207047B8630020FE630020024B1B68E5
:1018A000184404F04DBC00BFB8630020024B1B6815
:1018B000184404F057BC00BFB863002000207047F4
:1018C00000F1FF5000F58F10D0F8000870470000BD
:1018D000064991F8243033B100230822086A81F8C0
:1018E0002430FFF7C3BF0120704700BFBC63002056
:1018F000014B1868704700BF0010005C194B01389D
:101900000322084470B51D68174BC5F30B042D0C5A
:101910001E88A6420BD15C680A46013C82421346EF
:101920000FD214F9016F4EB102F8016BF6E7013ADC
:1019300003F10803ECD181420B4602D22C2203F8BA
:10194000012B0424094A1688AE4204D1984284BF70
:10195000967803F8016B013C02F10402F3D1581AA6
:1019600070BD00BF0010005C24230020048100082B
:1019700070470000704700007047000070B50446D3
:101980004FF47A764CB1412C254628BF412506FB01
:1019900005F0641B04F0A6F8F4E770BD002310B551
:1019A000934203D0CC5CC4540133F9E710BD00006E
:1019B000013810B510F9013F3BB191F900409C424C
:1019C00003D11AB10131013AF4E71AB191F90020BB
:1019D000981A10BD1046FCE703460246D01A12F9C9
:1019E000011B0029FAD1704702440346934202D0FA
:1019F00003F8011BFAE770472DE9F8431F4D144621
:101A00000746884695F8242052BBDFF870909CB3B7
:101A100095F824302BB92022FF2148462F62FFF78A
:101A2000E3FF95F824004146C0F1080205EB800071
:101A3000A24228BF2246D6B29200FFF7AFFF95F828
:101A40002430A41B17441E449044E4B2F6B2082E7E
:101A500085F82460DBD1FFF73BFF0028D7D108E0F1
:101A60002B6A03EB82038342CFD0FFF731FF0028BC
:101A7000CBD10020BDE8F8830120FBE7BC63002048
:101A8000024B1A78024B1A70704700BFFC630020AB
:101A90001823002038B51A4C1A4D204603F042FB9B
:101AA0002946204603F06AFB2D684FF47A70D5F87A
:101AB0009020D2F8043843F00203C2F80438FFF74C
:101AC0005DFF1149284603F067FCD5F890200F4DC3
:101AD000D2F80438286823F002030D49A042C2F866
:101AE00004384FF4E1330B6001D003F079FA6868F1
:101AF000A04204D00649BDE8384003F071BA38BDB1
:101B0000786B0020C8830008D08300081C230020C5
:101B1000E46300200C4B70B50C4D04461E780C4B52
:101B200055F826209A420DD00A4B0021182218465B
:101B3000FFF75AFF0460014655F82600BDE87040E3
:101B400003F04EBA70BD00BFFC6300201C230020D0
:101B5000786B0020E4630020F8B571B60023012003
:101B60001A46194602F014FF0446802004F052FC85
:101B7000002849D00025254A80274FF4D06C3D2607
:101B8000136913F0C06F26D1D2F8103113F0C06F73
:101B900021D1236805F1006199602368D86023682A
:101BA0005F602368C3F800C021680B6843F001033D
:101BB0000B6021680B6823F01E030B6021680B6823
:101BC000DB07FCD4237B8035616806FA03F3B5F5A7
:101BD000001F0B60D4D1204602F01AFFB5F5001F9C
:101BE00011D000240A4E0B4D012004F075FB338800
:101BF000A34205D928682044013404F0B3FAF6E77B
:101C0000002004F069FB61B6F8BD00BF002000525F
:101C1000FE630020B86300202DE9F3470D4604461B
:101C200000219046284640F27912FFF7DDFE234658
:101C300020220021284604F1220702F0DDF9231DAD
:101C4000022220212846C02602F0D6F9631D032275
:101C50002221284602F0D0F9A31D0322252128467F
:101C600002F0CAF904F1080310222821284602F0E4
:101C7000C3F904F1100308223821284602F0BCF908
:101C800004F1110308224021284602F0B5F904F1BD
:101C9000120308224821284602F0AEF904F1140389
:101CA00020225021284602F0A7F904F1180340220F
:101CB0007021284602F0A0F904F120030822B02187
:101CC000284602F099F904F121030822B821284698
:101CD00002F092F9314608363B4608222846013781
:101CE00002F08AF9B6F5A07FF4D194F8323031468B
:101CF00004F1330A00268DF8073008220DF107039E
:101D0000284602F079F99DF807304FEAC6099E424D
:101D100009F5A47720D394F83231502B28BF5023F3
:101D20008DF80730B8F1000F08D1394609F24F1786
:101D30000DF107030722284602F05EF9002604F29F
:101D400033149DF8073007EBC6019E420DD30731CF
:101D5000C80802B0BDE8F0870AEB0603082239463E
:101D60002846013602F048F9CDE7A3190822284693
:101D7000013602F041F9E4E713B5044608460021B4
:101D80002022234601900160C0F8031002F034F9CC
:101D9000231D01980222202102F02EF9631D0198D3
:101DA0000322222102F028F9A31D019803222521F4
:101DB00002F022F9019804F108031022282102F010
:101DC0001BF9072002B010BDF7B5047F05460E468B
:101DD0002CB1838A122B02D9012003B0F0BD00235D
:101DE000072228460096194601F0CAFF731C0122FB
:101DF000072100932846002301F0C2FFD4B9B31C89
:101E0000052208212846009323460D2401F0B8FF3F
:101E1000B378102BE0D83746BB1BB278934210D36F
:101E200007342B7FA88AE408B3B9844294BF00200A
:101E30000120D2E7AB8A0824DB00083BDB08B37043
:101E4000E6E7FB1C214608222846009300230834BD
:101E5000013701F095FFDFE7201A18BF0120BCE72A
:101E6000F7B5047F05460E462CB1838ACA2B02D9EA
:101E7000012003B0F0BD0023082228460096194631
:101E800001F07EFF731CD4B908220093234610246E
:101E90001146284601F074FF7378C82BE8D8012357
:101EA0005F1C7278013B934210D307342B7FA88AC2
:101EB000E408B3B9844294BF00200120D9E7AB8A7B
:101EC0000824DB00083BDB087370E5E7F3192146C3
:101ED000082228460093002301F052FF08343B46B5
:101EE000DEE7201A18BF0120C3E70000F7B50D4652
:101EF00004460021164628468122FFF775FD234639
:101F000008220021284602F077F894F9012063782E
:101F1000002AB8BF7F238DF807309EB90F270DF137
:101F2000070307220821284602F066F8002602343B
:101F30009DF8073007EBC6019E4205D30731C8085C
:101F400003B0F0BD0827F1E7A3190822284601369F
:101F500002F052F8ECE70000F7B50E460546002106
:101F600014463046CE22FFF73FFD2B4628220021A3
:101F7000304602F041F82B7AC82B28BFC8238DF8D1
:101F800007308CB930240DF1070308222821304690
:101F900002F032F82F467B1B9DF80720934205D3B1
:101FA000E01DC00803B0F0BD2824F3E707F10903E2
:101FB0002146082230460834013702F01DF8EAE7CE
:101FC000F7B5047F05460E4634B1838AB3F5827FA8
:101FD00002D9012003B0F0BD0123102200212846C0
:101FE000009601F0CDFEDCB9B31C09221021284671
:101FF00000932346192401F0C3FE7388B3F5807F54
:10200000E7D83746BB1B7288934210D307342B7F27
:10201000A88AE408B3B9844294BF00200120D9E71C
:10202000AB8A1024DB00103BDB087380E5E73B1D27
:10203000214608222846009300230834013701F086
:102040009FFEDFE7201A18BF0120C3E730B50A441E
:10205000084D91420DD011F8013B5840082340F340
:102060000004013B2C4013F0FF0384EA5000F6D13A
:10207000EFE730BD2083B8EDF7B5364A6B46106800
:1020800051686A4603C308233349344805F0EAFF20
:10209000044690BB0A25324A6B46106851686A466E
:1020A00003C308232F492D4805F0DCFF0446002810
:1020B00047D00369B3F5F01F43D8B0F86620B2F5F6
:1020C000AF6F3ED1284A024402F15C018B4238D303
:1020D0005C3B224900209E1AFFF7B8FF04F164011F
:1020E000074632460020FFF7B1FFA3689F4228D180
:1020F000E368984208BF002523E00369B3F5F01FA9
:1021000026D8428BB2F5AF6F20D1174A024402F1B4
:1021100010018B4218D3103B104900209D1AFFF785
:1021200095FF04F1180106462A460020FFF78EFFAE
:10213000A3689E4202D1E368984201D00D25AAE728
:102140000025284603B0F0BD1025A4E70C25A2E722
:102150000B25A0E714810008DCFF1D000000020829
:102160001D81000890FF1D000800FEF710B5037CDC
:10217000044613B9006804F081F9204610BD000040
:102180000023BFF35B8FC360BFF35B8FBFF35B8F35
:102190008360BFF35B8F7047BFF35B8F0068BFF353
:1021A0005B8F704770B505460C30FFF7F5FF0446AE
:1021B00005F108063046FFF7EFFFA04206D96D682B
:1021C0003046FFF7E9FF2544281A70BD3046FFF777
:1021D000E3FF201AF9E7000070B505464068A0B19A
:1021E00005F10C0605F10800FFF7D6FF044630465E
:1021F000FFF7D2FF844204F1FF34304694BF6D688C
:102200000025FFF7C9FF2C44201A70BD38B50C46D5
:102210000546FFF7C7FFA04210D305F10800FFF7FE
:10222000BBFF04446868BFF35B8FB4FBF0F100FBB5
:1022300011440120AC60BFF35B8F38BD0020FCE788
:102240002DE9F041144607460D46FFF7C5FF8442CD
:1022500028BF0446D4B1B84658F80C6B4046FFF787
:102260009BFF3044286040467E68FFF795FF331A95
:102270009C4203D801206C60BDE8F081A41B6B6018
:102280003B682044AB60E8600220F5E72046F3E7B6
:1022900038B50C460546FFF79FFFA04210D305F165
:1022A0000C00FFF779FF04446868BFF35B8FB4FB51
:1022B000F0F100FB11440120EC60BFF35B8F38BDEF
:1022C0000020FCE72DE9FF418846694607466C4639
:1022D000FFF7B6FF002506B204EBC606B4420AD0EB
:1022E000626808EB050120680834FFF757FB54F8D3
:1022F000043C1D44F2E729463846FFF7C9FF28464B
:1023000004B0BDE8F0810000F8B505460C300F467A
:10231000FFF742FF05F1080604463046FFF73CFF91
:10232000A042304688BF6C68FFF736FF201A38603D
:1023300020B12C683046FFF72FFF2044F8BD000085
:1023400073B5144606460D46FFF72CFF84420190F4
:1023500028BF0446DCB101A93046FFF7D5FF019B39
:1023600033B93268C5E90233C5E9002401200CE025
:102370009C42286038BF0194019884426860F5D976
:102380003368241A0220AB60EC6002B070BD2046B6
:10239000FBE700002DE9FF410F4669466C46FFF759
:1023A000CFFF00B2002604EBC005AC4209D0D4F840
:1023B0000480B81954F8081B42464644FFF7EEFA69
:1023C000F3E7304604B0BDE8F081000038B50546BB
:1023D000FFF7E0FF044601462846FFF717FF2046B7
:1023E00038BD000008B104F049B8704770470000DC
:1023F00010B41346026814680022A4465DF8044B2A
:102400006047000000F5805090F8690470470000B4
:1024100000F5805090F862047047000000F580508D
:1024200090F96804704700004E207047302383F312
:10243000118800F58052D2F8AC34D2F8A8041844C0
:10244000D2F8A4341844D2F88C341844D2F89C340E
:102450001844D2F898341844002383F31188704745
:1024600000F58050C0F86414012070472DE9FF4743
:102470000C4600F580510546BDF8308091F86204A5
:1024800098B1D1F888040130C1F88804206886002A
:1024900006D4207B08280BD9667B0EB10F2807D9FC
:1024A000D1F88C340133C1F88C344FF0FF30A9E0FF
:1024B000302080F31188E86BD0F8C47017F400174F
:1024C00013D0D1F890040130C1F89004D1F89414DD
:1024D000002940F09A8021462846CDF8008001F07E
:1024E00019F8002383F311888CE0D0F8C4604FF012
:1024F0004809686BC6F3044619FB060920684FEAD1
:10250000461A0028B4BF40F0804C4FEA804CC9F80E
:1025100000C02068400044BF4CF00050C9F80000E3
:10252000300694F80CC040EA0C40C9F8040094F856
:102530000DC0BCF1000F26D040F44010C9F80400D3
:10254000D1F8C0040130C1F8C00405EB0A0101F55F
:102550008351087F40F020000877207BCDE90223DB
:1025600001F02AF80330DDE902238010F9B20137C7
:10257000814210DA04EB810C09EB8101DCF804C024
:10258000C1F808C0F2E705EB0A0101F58351087FA5
:102590006CF34510E0E70120E96B04F10C07B04053
:1025A000C1F8D00006F18301204605EB4111C1E9D5
:1025B000002305EB461101F58351083150F804CB97
:1025C000B84241F804CBF9D10088AA44088041F20E
:1025D00078014AF801600AF5805A08F003019AF878
:1025E0007C0041F0100120F01F0001438AF87C10AC
:1025F000002181F3118821462846CDF8008000F0A3
:1026000089FF012004B0BDE8F087002069E70000E1
:102610002DE9F04700F58056044696F86254002DE7
:1026200040F0048190F82030032B40F0948028463D
:102630002B462F465FFA80FC944510DA01EBCC0E56
:1026400051F83CC0BCF1000F04DBDEF804C0BCF163
:10265000000F02DB01370130ECE70133FBE73020EC
:1026600080F31188E06BF3B9D0F8803043F00203B7
:10267000C0F880304E23E06B002F6FD1D0F880304F
:1026800043F00103C0F88030694B6A4A1B6803F1CC
:10269000805303F52C539B009342A36340F2B08018
:1026A000654800F0E7FE4D2B42D8DFF884814FEA01
:1026B000034EDFF88891D8F800C04EEA8C0EC0F8BF
:1026C00084E00CF1805000F52C508000606203EB38
:1026D0000C00D4F83CC0C3F14E03C8F80000DCF88D
:1026E000800040F03000CCF880004FF0000CD4F8AF
:1026F0002480E6465FFA8CF08242BCDD01EBC00A22
:1027000051F83000002810DBDAF804A0BAF1000F0D
:102710000BDA09EA00400AF07F0A40EA0A0040F0BA
:10272000084048F82E000EF1010E0CF1010CE1E713
:10273000836923F00103836100F0A2FE0646E36B88
:102740009B69D90704D500F09BFE831BFA2BF6D9B1
:10275000002383F311882846BDE8F087B7EB530FB9
:102760003DD2DFF8CCE04FEA074CDEF800304CEA0F
:10277000830CC0F888C003F1805003EB47030027A7
:1027800000F52C50CEF80030BC468000A062E06B13
:10279000D0F8803043F00C03C0F88030D4F828E043
:1027A000FBB29A427FF770AF51F8330001EBC308D8
:1027B0000028D8F8043001DB002B0EDB20F060404D
:1027C00023F0604340F0005043F000434EF83C00DB
:1027D0000EEBCC000CF1010C43600137E0E783699C
:1027E00023F00103836100F04BFE0646E36B9B6917
:1027F000DA07ADD500F044FE831BFA2BF6D9A7E724
:10280000E26B936923F00103936100F039FE074600
:10281000E36B9B69DB0705D500F032FEC31BFA2B87
:10282000F6D995E7012586F8625491E7002592E7ED
:102830000C640020FCB50040288100080000FF0760
:1028400013B500F580540191606DFFF7C5FC1F289A
:102850000AD920220199606DFFF734FDA0F1200311
:102860005842584102B010BD0020FBE708B53023A4
:1028700083F3118800F58050406DFFF781FC002341
:1028800083F3118808BD000000220260828142604B
:10289000826070470022002310B5C0E900230023A6
:1028A00004460C3020F8043CFFF7EEFF204610BD34
:1028B0002DE9F0479A4688B007468846914630236E
:1028C00083F3118807F580546846FFF7E3FF606DD6
:1028D000FFF768FC1F282ED920226946606DFFF79C
:1028E00075FD202827D194F8623423B303AD444604
:1028F00005AB2E46083403CE9E4244F8080C44F83B
:10290000041C3546F5D130682060B388A380DDE92A
:102910000023C9E90023BDF80830AAF800300023DD
:1029200083F3118853464A464146384608B0BDE80D
:10293000F04700F0B3BD002080F3118808B0BDE877
:10294000F08700002DE9F84F06468846182200213E
:1029500004303546FFF748F8264B06F5825745F810
:10296000403B2C4620462034FFF794FFA742F9D184
:1029700006F580544FF4805306F5A4594FF0000A31
:102980002564002567654FF0000B06F58457E56464
:10299000C4E91135012384F8503084F85830A7F188
:1029A0001800203747E910ABFFF76EFF47F8285CA7
:1029B0004F45F4D1B8F1010F84F86884A4F86A5443
:1029C000A4F86C54A4F86E5484F87054A4F87254AB
:1029D000A4F87454A4F8765484F8785402D90648BC
:1029E00000F048FD054B304653F82830F363BDE84E
:1029F000F88F00BF788100084C81000868810008CA
:102A0000044B10B5197804464A1C1A70FFF79AFF58
:102A1000204610BD096400202DE9F04300295AD05A
:102A20002E4E2F48B6FBF1F481428CBF0A201120B4
:102A3000431EB4FBF0F700FB1740DDB220B1022BC0
:102A40001846F5D8002032E07B1EB3F5806F2ED2F9
:102A5000C5EBC5084FF47A7308F103044FEAE40E9E
:102A6000C4F3C7040EF10109281B0EFB033E5FFAF5
:102A700080FC59FA80F0BEFBF0F0B0F5617F18DC05
:102A800083B2601C5CFA80F07843B6FBF0F08142C0
:102A9000D8D1611E0F29D5D80CF1FF310729D1D823
:102AA0000120138057801071547182F806C0BDE870
:102AB000F08308F1FF34E010C4F3C70400F1010E05
:102AC0002D1B00FB03335FFA85FC5EFA85F5B3FB33
:102AD000F5F39BB2D5E70846E9E700BF00B4C404AC
:102AE0003F420F0030B50D4B05200D4D1C786C4357
:102AF0008C420ED159780120518099785171D97842
:102B00009171197911715B7903EB83035B00138079
:102B100030BD013803F10603E8D1F9E7BC810008B4
:102B200040420F0038B540F27772C36B154CC3F8C2
:102B3000BC200722C36BC3F8C8202268C16B930076
:102B400043F4C023C1F8A03002F1805302F16C01BC
:102B5000C56B03F52C53EA3289009B00226041F0DB
:102B6000E061094AC362C5F8C01003F5D87103F5E6
:102B70006A7341639342836302D9044800F07AFC8C
:102B800038BD00BF0C640020FCB50040288100085F
:102B90002DE9F04700F580551F4688B0044695F8AA
:102BA000683489469046022B04D90026304608B086
:102BB000BDE8F087A74A52F8231009B942F823006C
:102BC000A548C4F81C90017884F82070C9B9302356
:102BD00083F31188A14BD3F8EC2042F48072C3F840
:102BE000EC20D3F8942042F48072C3F89420D3F8F8
:102BF000942022F48072C3F894200123037081F39F
:102C0000118895F861347BB9302383F31188944A95
:102C100095F86834D35C0BB3012B28D0012385F8D9
:102C20006134002383F31188302383F31188E26B2E
:102C3000936923F01003936100F022FC8246E36B5A
:102C40009E6916F0080619D000F01AFCA0EB0A03E2
:102C5000FA2BF4D9002686F31188A7E70321132065
:102C600001F0F2FF0321152001F0EEFFD6E703216A
:102C7000142001F0E9FF03211620F5E79A6942F0DC
:102C800001029A6100F0FCFB8246E36B9A69D0076F
:102C900006D400F0F5FBA0EB0A03FA2BF5D9D9E72F
:102CA0009A694FF0000A42F002029A61E36BC3F89E
:102CB00054A08AF31188686DFFF762FA2022002180
:102CC0006846FEF791FE02A8FFF7DEFD04F5835388
:102CD0006A460DF1180E3344CDF818A09446083317
:102CE000BCE80300F44543F8080C43F8041C6246B2
:102CF000F4D1DCF8000020361860B6F5806F9CF83F
:102D000004201A71DAD1002304F5A3524946204663
:102D10000A3285F8603485F86334FFF77DFE064695
:102D200090B9E26B936923F00103936100F0A8FB73
:102D30000546E36B9B69D9077FF537AF00F0A0FB31
:102D4000431BFA2BF5D930E795F86E34C5F87C941F
:102D5000591E95F86F34E26B013B1B0243EA416355
:102D600095F8701401390B43B5F86C14013943EA36
:102D70000143D361B8F1000F36D004F5A3524146A8
:102D800020461232FFF7AEFE90B9E26B936923F052
:102D90000103936100F074FB0546E36B9B69DA075E
:102DA0007FF503AF00F06CFB431BFA2BF5D9FCE673
:102DB00095F87724C5F88084511E95F87824E36B44
:102DC000013A120142EA012295F8761401390A43C8
:102DD000B5F87414013942EA014242F40002DA60A3
:102DE0004FF42062E36B9A64E36B4FF000082046D7
:102DF000C3F8BC80FFF796FE85F869846FF0404207
:102E0000E36B1A65174AE36B5A654FF00222E36BD6
:102E10009A654FF0FF32E36BC3F8E0200322E36BC7
:102E20009742DA653FF4C2AEE26B936923F0010387
:102E3000936100F025FB0746E36B9B69DB0705D533
:102E400000F01EFBC31BFA2BF6D9AEE6012385F872
:102E50006234ABE60064002008640020004402589D
:102E600060810008550200022DE9F04F00F5A557DA
:102E70008BB00546904699464FF0000B41F2780A18
:102E80001037EB6BD3F8D83023FA0BF3DC0753D5AC
:102E900005EB4B114FEA4B1251440B7918074BD4F9
:102EA00005F58056D6F894340133C6F89434C7E952
:102EB00000890B79990605EB020148BFD6F8C434A6
:102EC000514444BF0133C6F8C4340B7943F00803BE
:102ED0000B71DB0725D596F8633413B305F58354DE
:102EE00002A80192FFF7D6FC0834019A05AB1444FE
:102EF00004F1080C2068083454F8041C1A46644590
:102F000003C21346F6D1206802A910602846A288A1
:102F10009A800123ADF810302B68CDE902891B6C33
:102F20009847D6F8B834D6F864040133C6F8B834F4
:102F300010B103681B6998470BF1010BBBF1200F1F
:102F40009FD10BB0BDE8F08F2DE9F04F0F468DB04B
:102F5000044600F097FA82468946002F5BD1E36B66
:102F6000D3F8A02012F4FE0F03D100200DB0BDE86D
:102F7000F08FD3F8A420920141BF04F58051D1F81D
:102F8000A8240132C1F8A824D3F8A4205606ECD016
:102F9000D3F8A450E66AC5F305254823E8464FF068
:102FA000000B03FB05664046FFF76EFC32685100DC
:102FB0004ABF22F06043C2F38A4343F000439200C9
:102FC00048BF43F080430093736813F400131BBFA2
:102FD000012304F580528DF80D308DF80D301EBFA1
:102FE000D2F8C8340133C2F8C834F38803F00F03B1
:102FF0008DF80C309DF80C0000F0DEFA5FFA8BF3D0
:10300000984225D9F2180CA90BF1010B127A0B4446
:1030100003F82C2CEEE7012FA7D1E36BD3F8B020F7
:1030200012F4FE0FA1D0D3F8B420950141BF04F5EE
:103030008051D1F8A8240132C1F8A824D3F8B420D3
:10304000500692D0D3F8B450266BC5F30525A4E7FB
:10305000EFB9E36BC3F8A85004A807ADFFF71AFC5B
:1030600098E80F0007C52B800023204604A9ADF87F
:103070001830236804F580541B6CCDE904A99847E7
:1030800058B1D4F8A0340133C4F8A0346EE7012F4E
:10309000E2D1E36BC3F8B850DEE7D4F8A4340120E2
:1030A0000133C4F8A43461E72DE9F04105460F4629
:1030B00000F58054012639462846FFF745FF10B138
:1030C00084F86364F7E7D4F8B834D4F864040133BF
:1030D000C4F8B83420B10368BDE8F0411B69184753
:1030E000BDE8F081C36BF0B51A6C12F47F0F2BD0E2
:1030F0001B6C00F5805441F278054FF0010CC4F8C8
:10310000BC340023471900EB43125E012A441179B5
:1031100011F0020F15D0490713D4B959C66B0CFA38
:1031200001F1D6F8CCE011EA0E0F0AD0C6F8D4109F
:10313000117941F004011171D4F89C240132C4F8D2
:103140009C240133202BDED1F0BD00002B4B70B549
:103150001E561B5C012B30D8294D2A4A55F82330C6
:1031600052F8264013B349B3236D9A0510D54FF496
:103170000073236500F086F950EA01020B4602D085
:10318000013861F10003024655F82600FFF76CFE96
:10319000236D9B012CD54FF0007255F82630226527
:1031A00003F58053012283F8692421E0012323657C
:1031B000102323654FF48053236570BD236DDA0718
:1031C00002D4236D5B0706D50523002155F82600A0
:1031D0002365FFF769FF236DD80602D4236D5906D6
:1031E00006D55023012155F826002365FFF75CFF23
:1031F00055F82600BDE87040FFF774BF64810008F1
:10320000006400206881000808B5302383F311882A
:10321000FFF768FF002383F3118808BDC36BD3F861
:10322000C00010F07C5005D0D3F8C40080F400102A
:10323000C0F340507047000008B5302383F3118875
:1032400000F58050406DFEF7ADFF002383F3118839
:1032500043090CBF0120002008BD000000F5805389
:1032600093F8692462B1C16B8A6922F001028A6114
:10327000D3F8AC240132C3F8AC24002283F86924CB
:10328000704700002DE9F743302181F311880025B4
:1032900000F5835141F2780E4FF0010800F5805C93
:1032A00000EB45147444267977071CD4F6061AD52A
:1032B0008E69D0F83C9008FA06F6D9F8CC703E42F8
:1032C00011D04F6801970F689742019F9F410AD222
:1032D000C9F8D460267946F004062671DCF89844D3
:1032E0000134CCF8984401352031202DD8D1002369
:1032F00083F3118803B0BDE8F0830000F8B51E46E3
:1033000000230F46054613701446FFF795FF80F023
:10331000010038701EB12846FFF780FF2070F8BD0D
:103320002DE9F04F85B099460D468046164691F836
:1033300000B0DDE90EA302931378019300F0A2F828
:103340002B7804460F4613B93378002B41D0224620
:103350003B464046FFF796FFFFF756FFFFF77EFF1D
:103360004B4632462946FFF7C9FF2B7833B1BBF1F4
:10337000000F03D0012005B0BDE8F08F337813B102
:10338000019B002BF6D108F5805303935445029B13
:1033900077EB03031DD2039BD3F86404C8B1036821
:1033A000AAEB04011B6898474B4632462946404623
:1033B000FFF7A4FF2B7813B1BBF1000FDAD13378FC
:1033C00013B1019B002BD5D100F05CF804460F46E9
:1033D000DCE70020CFE70000002108B50846FFF732
:1033E000B5FEBDE8084001F0BFB8000008B50121F6
:1033F0000020FFF7ABFEBDE8084001F0B5B80000C3
:1034000008B500210120FFF7A1FEBDE8084001F04A
:10341000ABB80000012108B50846FFF797FEBDE8EC
:10342000084001F0A1B8000000B59BB0EFF309819E
:1034300068226846FEF7B2FAEFF30583014B9B6BF7
:10344000FEE700BF00ED00E008B5FFF7EDFF00006C
:1034500000B59BB0EFF3098168226846FEF79EFA3B
:10346000EFF30583014B5B6BFEE700BF00ED00E06F
:10347000FEE700000FB408B5029802F0D9FAFEE7A3
:1034800003F02AB803F00CB80139C9B202299EBF73
:1034900000EBC1000023C0E901337047F8B51B8879
:1034A00005460E465B0715D4044600F11807BC42DA
:1034B00010D0636853B12B682846DB6B9847A3682C
:1034C000C1B23246606898470834F0E7A368002B21
:1034D000F1D1F9E70120F8BD73B56C4684E8060028
:1034E000014600224E68D5B26EB98E685EB900EB17
:1034F000C2000135021D94E8030082E803000120A8
:103500001D7002B070BD01320831032AEAD10020DB
:10351000F7E700002DE9F04F89B004460E46054656
:10352000BDF8487000F118084FF000094FF0000A8C
:1035300007F004074FF0000BA84539D06B680BB9B2
:10354000AB684BB157B923682046DB6B9847AB6833
:10355000C1B23246686898470835EDE7B9F1000F07
:10356000FAD1334603AA06F1080EADF80890CDE96A
:1035700000AB1868083353F8041C94467345ACE854
:1035800003006246F5D118684FF00109CCF800003D
:103590009B88ACF80430FFF775FF0423ADF80830C2
:1035A0002368CDE900011B6C694620469847D3E7A4
:1035B000012009B0BDE8F08F082817D909280CD0E0
:1035C0000A280CD00B280CD00C280CD00D280CD0BD
:1035D0000E2814BF4020302070470C207047102068
:1035E0007047142070471820704720207047000053
:1035F0002DE9F041456A15B94162BDE8F0814B689B
:10360000AC4623F06047C3F38A464FEAD37EC3F348
:10361000807816EA230638BF3E462B465A68BEEB32
:10362000D27F22F060440AD0002A18DAA40CB442F7
:1036300017D19D420FD10D60DEE71346EEE7A7429A
:1036400007D102F08044C2F3807242450BD054B1DE
:10365000EFE708D2EDE7CCF800100B60CDE7B442FD
:1036600001D0B442E5D81A689C46002AE5D1196019
:10367000C3E700002DE9F047089D01F0070400EBC7
:10368000D1004FF47F494FEAD508224405F00705E1
:10369000944201D1BDE8F08704F0070705F0070A5E
:1036A000111B08EBD50E57453E4613F80EC038BF28
:1036B0005646C6F108068E4228BF0E46E108415C18
:1036C00034443544B94029FA06F721FA0AF1FFB229
:1036D0008CEA010147FA0AF739408CEA010C03F839
:1036E0000EC0D5E780EA0120082341F2210201B291
:1036F000013B4000002980B2B8BF504013F0FF03E7
:10370000F5D1704738B50C468D18A54200D138BDAB
:1037100014F8011BFFF7E6FFF7E7000042684AB123
:10372000136881894360438901339BB29942438185
:1037300038BF83811046704770B588B00446202298
:103740000D4668460021FEF74FF920460495FFF725
:10375000E5FF024660B16B46054608AE1C460835DB
:1037600003CCB44245F8080C45F8041C2346F5D1B7
:10377000104608B070BD0000082817D909280CD0E1
:103780000A280CD00B280CD00C280CD00D280CD0FB
:103790000E2814BF4020302070470C2070471020A6
:1037A0007047142070471820704720207047000091
:1037B000082817D90C280CD910280CD914280CD992
:1037C00018280CD920280CD930288CBF0F200E20A7
:1037D0007047092070470A2070470B2070470C2063
:1037E00070470D20704700002DE9F843078C044610
:1037F000072F1ED900254FF6FF73D0E90298C5F1B7
:103800002006A5F1200029FA05F1083508FA06F688
:1038100028FA00F0314301431846C9B2FFF762FFAE
:10382000402D0346EBD13A46E169BDE8F843FFF786
:1038300069BF4FF6FF70BDE8F883000010B54B6814
:1038400023B9CA8A63F30902CA8210BD04691A68DF
:103850001C600361C38A013BC3824A60EFE700003A
:103860002DE9F84F1D46CB8A0F468146C3F3090167
:10387000924605290B4630D00020AAB207F11A045F
:103880009EB21FFA80F8042E0FD8904503F1010371
:1038900006D30A44FB8A62F309030120FB821AE083
:1038A0001AF800600130E654EAE79045F1D2A1F140
:1038B000050B1C237C68BBFBF3F203FB12BB1FFA56
:1038C0008BF6002C45D14846FFF728FF044638B94F
:1038D00078606FF00200BDE8F88F4FF00008E6E76F
:1038E000002606607860ADB24FF0000B454510D958
:1038F0000AEB0803221D13F8011B08F1010891557A
:10390000B1B21FFA88F81B292BD0454506F10106F4
:10391000F1D8FB8AC3F30902154465F30903BCE738
:1039200001321C4692B22368002BF9D16B1F0B4465
:103930001C21B3FBF1F301339BB29A42D3D2BBF10A
:10394000000FD0D14846FFF7E9FE20B9C4F800B017
:10395000BFE70122E7E7C0F800B05E4620600446FA
:10396000C1E74545D5D94846FFF7D8FE08B92060DC
:10397000AFE7C0F800B0002620600446B6E70000BC
:103980002DE9F04F1C46074688462DED028B83B08B
:103990005B690192002B00F0A780238C2BB1E269B8
:1039A000002A00F0A180072B35D807F10C00FFF7A3
:1039B000B5FE054638B96FF00205284603B0BDECE8
:1039C000028BBDE8F08F14220021FEF70DF8228C47
:1039D000E16905F10800FDF7E1FF208C48F00041A6
:1039E000013080B2FFF7E4FEFFF7C6FE013880B277
:1039F00020840130287438466369228C1B782A445D
:103A000003F01F0363F03F03137269602946FFF759
:103A1000EFFD0125D1E702330722C18A9BB20633AD
:103A2000B3FBF2F3828A9BB2521A92B29342C2D88B
:103A30004FF0000900F10C034FF0800A4E464D464E
:103A400008EE103A18EE100AFFF768FE83460028C9
:103A5000B1D014220021FDF7C7FF002E3AD1019BFF
:103A60000222ABF808300BF1080E1FFA82FC218C01
:103A70000CF10100BCF1060F80B201D88E422BD3AD
:103A8000FFF796FE8E4208BF4FF0400AFFF774FE24
:103A900062690138013512781BFA80F1013002F0B9
:103AA0001F022DB242EA491289F001094AEA020ACC
:103AB00048F0004281F808A059468BF810003846BB
:103AC000CBF804204FF0000AFFF792FD238CB3429D
:103AD000B8D172E70022C6E7E169895D01360EF8C8
:103AE0000210B6B20132C0E76FF0010565E70000D1
:103AF000F8B515460E463022002104461F46FDF754
:103B000073FF069BB5F5001FA760636004F110000A
:103B1000079B34BF6A094FF6FF72E661A362002378
:103B200097B29A4206D800230360A782E3822383D8
:103B3000E360F8BD0660013330462036F1E700004F
:103B400003781BB94BB2002BC8BF0170704700004F
:103B500000787047F8B50C46C969074611B9238C3F
:103B6000002B37D1257E1F2D34D8387828BB228CE6
:103B7000072A2CD8268A36F003032BD14FF6FF7084
:103B8000FFF7C0FD20F0010031024FF6FF72400444
:103B900041EA0561400C41EA402523462946384662
:103BA000FFF7EEFE002807DD626913780133DBB210
:103BB0001F2B88BF00231370F8BD218A2D0645EA0C
:103BC000012505432046FFF70FFE0246E5E76FF0AB
:103BD0000300F1E76FF00100EEE7000070B58AB076
:103BE000044616460021282268461D46FDF7FCFEC5
:103BF000BDF8383069462046ADF810300F9B05936C
:103C00009DF840308DF81830119B0793BDF848306F
:103C1000CDE90265ADF82030FFF79CFF0AB070BD1A
:103C20002DE9F041D36905460C4616460BB9138CB5
:103C30005BBB377E1F2F28D895F80080B8F1000FA6
:103C400026D03046FFF7D0FD3378210202462846C1
:103C500041EAC331338A41EA080141EA076141EA96
:103C60000341334641F08001FFF78AFE00280ADD58
:103C70003378012B07D1726913780133DBB21F2B24
:103C800088BF00231370BDE8F0816FF00100FAE7F0
:103C90006FF00300F7E70000F0B58BB004460D4667
:103CA00017460021282268461E46FDF79DFE9DF816
:103CB0004C30294620465A1E534253416A468DF8DD
:103CC00000309DF84030ADF81030119B05939DF801
:103CD00048308DF81830149B0793BDF85430CDE967
:103CE0000276ADF82030FFF79BFF0BB0F0BD00006F
:103CF000406A00B104307047436A1A684262026940
:103D00001A600361C38A013BC38270472DE9F04109
:103D1000D0F8208014461D46184E4146002709B9A8
:103D2000BDE8F081D1E90223A21A65EB03039642B4
:103D300077EB03031ED2036A8B420DD1FFF77EFDA2
:103D4000036A1B68036203690B60C38A0161013B5C
:103D5000016AC3828846E2E7FFF770FD0B68C8F886
:103D6000003003690B60C38A0161013BC382D8F84C
:103D70000010D4E788460968D1E700BF80841E00A0
:103D80002DE9F04F8BB00D4614469B46DDF8509060
:103D90008046002800F01881B9F1000F00F014816E
:103DA000531E3F2B00F21081012A03D1BBF1000FFB
:103DB00040F00A810023CDE90833B8F81430B5EBA0
:103DC000C30F4FEAC30703D300200BB0BDE8F08F49
:103DD0002B199F42D8F80C3036BF7F1B2746FFB205
:103DE0001BB9D8F81030002B7AD0272D4DD8C5F14B
:103DF000280600232946B742009308ABD8F80800EC
:103E00002CBFF6B23E46A7EB060A354432465FFAAF
:103E10008AFAFFF72FFCB8F81430282103F1005379
:103E2000053BDB000493D8F80C300393039B13B1DC
:103E3000BAF1000F2CD1D8F8100040B1BAF1000F40
:103E400005D008AB5246691A0096FFF713FC38B24A
:103E5000002FB9D066070AD00AAB624203EBD40147
:103E600002F0070211F8083C134101F8083C082C45
:103E70003DD9102C40F2B580202C40F2B780BBF128
:103E8000000F00F09C80082335E0BA460026C2E708
:103E9000049BE02B28BFE02306930B44AB42059321
:103EA00015D95A1B0398691A0096924508AB00F180
:103EB000040034BF5246D2B20792FFF7DBFB079AE9
:103EC0001644AAEB020A1544F6B25FFA8AFA049B7A
:103ED000069A05999B1A0493039B1B680393A5E715
:103EE00000933A4608AB2946D8F80800ADE7BBF185
:103EF000000F13D00123B4EBC30F6BD0082C12D8E2
:103F00009DF82030621E23FA02F2D50706D54FF045
:103F1000FF3202FA04F423438DF820309DF820305C
:103F200089F8003051E7102C12D8BDF82030621EFD
:103F300023FA02F2D10706D54FF0FF3202FA04F459
:103F40002343ADF82030BDF82030A9F800303CE71D
:103F5000202C0FD80899631E21FA03F3DA0705D540
:103F60004FF0FF3202FA04F40C430894089BC9F89E
:103F700000302AE7402C2AD0611EC4F12102A4F1AE
:103F80002103DDE9086526FA01F105FA02F225FAB6
:103F900003F311431943CB0711D50122A4F12003E8
:103FA000C4F1200102FA03F322FA01F1A2400B430B
:103FB000524263EB430332432B43CDE90823DDE94F
:103FC0000823C9E9002300E76FF00100FDE66FF068
:103FD0000800FAE6082CA1D9102CB4D9202CEED870
:103FE000C4E7BBF1000FAED0022384E7BBF1000FA2
:103FF000BCD004237FE70000012A30B5144638BF47
:10400000012485B00025402C28BF4024012ACDE999
:10401000025518D81B788DF8083063070AD004AB16
:10402000624203EBD40502F0070215F8083C934006
:1040300005F8083C034600912246002102A8FFF73C
:1040400019FB05B030BD082AE4D9102A03D81B8813
:10405000ADF80830E1E7202A95BF1B68D3E90023BB
:104060000293CDE90223D8E710B5CB681BB98B606A
:104070000B618B8210BD04691A681C600361C38ADE
:10408000013BC382CA60F0E703064CBFC0F3C030F7
:104090000220704708B50246FFF7F6FF022806D156
:1040A0005306C2F30F2001D100F0030008BDC2F394
:1040B0000740FBE72DE9F04F93B004460D46CDE9EC
:1040C00003230A681046FFF7DFFF0228824614BF69
:1040D000C2F306260026002A80F2F88112F0C049B9
:1040E00040F0F481097B002900F0F081022803D020
:1040F0002378B34240F0ED81C2F3046310462944B3
:10410000069302F07F030593FFF7C4FF059B00228F
:1041100083464FEA8348002348EA0A4848EA46684B
:10412000CE78CDE90823F30948EA0008029368D065
:10413000059B024608A92046009353466768B84786
:10414000002800F0C981276A4FB9414604F10C00EC
:10415000FFF7F2FA074690B96FF0020055E03B69AD
:1041600098450DD03F68002FF9D1414604F10C006D
:10417000FFF7E2FA07460028EED0236A3B60276289
:1041800097F817C006F01F08CCF3840CACEB0800BE
:10419000A8EB0C031FFA80FE0028B8BF0EF1200028
:1041A0001FFA83FEB8BF00B2002B0793B8BF0EF111
:1041B0002003D7E90221BCBF1BB2079352EA0103D7
:1041C00038D0039B4FF0000CDFF81CE39A1A049BD5
:1041D00063EB010196457CEB01032BD36B7B97F8D6
:1041E0001AE0734519D1029B002B78D0012821DCFD
:1041F0007868F8B9DFF8ECC2944570EB010316D388
:1042000037E0276A27B96FF00C0013B0BDE8F08FD4
:104210003B699845B4D03F68F4E7B24890427CEBE4
:10422000010301D30020F0E7029B002BFAD0079B8B
:104230000F2B17DCFA7DB3003946204602F003024B
:1042400003F07C031343FB75FFF7F8FA6B7BBB7637
:10425000029B3BB9FB7DC3F38402013262F3860308
:10426000FB75D0E76A7BBB7E9A42DBD1029B002BB9
:1042700035D0B309022B32D0039B142200210DA8A4
:10428000BB60049BFB60FDF7AFFB039B0AA92046C4
:104290000A93049BADF83EB00B932B1D8DF840A004
:1042A0000C932B7B8DF84180013BDBB2ADF83C30A9
:1042B000069B8DF84230059B8DF8433094F82C30E6
:1042C00083F001038DF84430A3689847FB7DC3F366
:1042D0008403013303F01F039B02FB82A2E7FB7DF3
:1042E000C6F34012B2EBD31F40F0F980C3F384034E
:1042F000434540F0FB80029AB6092B7B002A52D03E
:1043000016F0010661D1032B40F2F380039B39467E
:1043100004F10C00BB60049BFB60FB8A66F309039D
:10432000AE1DFB8232462B7B033BDBB2FFF798FAD4
:1043300000280CDA39462046FFF780FAFB7DC3F3EC
:104340008403013303F01F039B02FB8204E7AB8865
:10435000DDE908843B834FF6FF73C9F12000A9F122
:10436000200228FA09F109F1080904FA00F024FAF8
:1043700002F2014318461143C9B2FFF7B3F9B9F18C
:10438000400F0346E9D1B88231462A7B033AD2B2C4
:10439000FFF7B8F9FB7DB882DA43C2F3C01262F3CB
:1043A000C713FB753EE786B92E1D013B394604F164
:1043B0000C00DBB23246FFF753FA0028BADB2A7B47
:1043C0003146B88A013AD2B2E2E7F98A013BC1F339
:1043D0000901DAB204295BD8281D002307F11B0666
:1043E0009A4208D910F801CB013306F801C0013117
:1043F000DBB20529F4D1039993420A9138BF043303
:1044000004992CBF002355FA83F30B9107F11B018C
:104410000C9179680E930D91291DFB8AADF83EB081
:10442000C3F309038DF840A08DF841801A44069B20
:104430008DF84230059BADF83C208DF8433094F860
:104440002C3083F001038DF844300023B88A7B6060
:104450002A7B013AFFF756F93B8BB882834203D19E
:10446000A3680AA92046984720460AA9FFF7FCFD41
:10447000FB7DBA8AC3F38403013303F01F039B025D
:10448000FB823B8B9A420CBF00206FF01000BCE611
:104490007B68002BAFD0052001E01C3033461E683E
:1044A000002EFAD1091A2E1D081D184401EB090C23
:1044B0005FFA89F3BCF11B0F9DD89A429BD916F87D
:1044C000013B09F1010900F8013BEFE76FF009003A
:1044D0009BE66FF00A0098E66FF00B0095E66FF030
:1044E0000D0092E640420F0080841E006FF00E0027
:1044F0008BE66FF00F0088E6EFF309830549683318
:104500004A6B22F001024A6383F30988002383F394
:104510001188704700EF00E0302080F3118862B608
:104520000D4B0E4AD96821F4E0610904090C0A43D5
:104530000B49DA60D3F8FC2042F08072C3F8FC200B
:10454000084AC2F8B01F116841F001011160202231
:10455000DA7783F82200704700ED00E00003FA05E7
:1045600055CEACC5001000E0302310B583F31188A0
:104570000E4B5B6813F4006314D0F1EE103AEFF3C6
:1045800009844FF08073683CE361094BDB6B236661
:1045900084F3098801F012FA10B1064BA36110BD33
:1045A000054BFBE783F31188F9E700BF00ED00E05E
:1045B00000EF00E03F0400084204000808B5074B84
:1045C000074A196801F03D01996053680BB1906882
:1045D0009847BDE80840FFF7C7BF00BF0000024092
:1045E0001464002008B5084B1968890901F03D01E1
:1045F0008A019A60054AD3680BB110699847BDE8F3
:104600000840FFF7B1BF00BF000002401464002063
:1046100008B5084B1968090C01F03D010A049A60BD
:10462000054A53690BB190699847BDE80840FFF708
:104630009BBF00BF000002401464002008B5084B77
:104640001968890D01F03D018A059A60054AD36910
:104650000BB1106A9847BDE80840FFF785BF00BF5F
:10466000000002401464002008B5074B074A59684F
:1046700001F03D01D960536A0BB1906A9847BDE8DB
:104680000840FFF771BF00BF000002401464002023
:1046900008B5084B5968890901F03D018A01DA60C3
:1046A000054AD36A0BB1106B9847BDE80840FFF785
:1046B0005BBF00BF000002401464002008B5084B37
:1046C0005968090C01F03D010A04DA60054A536B90
:1046D0000BB1906B9847BDE80840FFF745BF00BF9E
:1046E000000002401464002008B5084B5968890D89
:1046F00001F03D018A05DA60054AD36B0BB1106CFD
:104700009847BDE80840FFF72FBF00BF00000240F8
:104710001464002008B5074B074A196801F03D01F1
:104720009960536C0BB1906C9847BDE80840FFF757
:104730001BBF00BF000402401464002008B5084BF2
:104740001968890901F03D018A019A60054AD36C14
:104750000BB1106D9847BDE80840FFF705BF00BFDB
:10476000000402401464002008B5084B1968090CC5
:1047700001F03D010A049A60054A536D0BB1906D3A
:104780009847BDE80840FFF7EFBE00BF00040240B5
:104790001464002008B5084B1968890D01F03D012B
:1047A0008A059A60054AD36D0BB1106E9847BDE833
:1047B0000840FFF7D9BE00BF000402401464002087
:1047C00008B5074B074A596801F03D01D960536E9F
:1047D0000BB1906E9847BDE80840FFF7C5BE00BF1B
:1047E000000402401464002008B5084B5968890988
:1047F00001F03D018A01DA60054AD36E0BB1106FFA
:104800009847BDE80840FFF7AFBE00BF0004024074
:104810001464002008B5084B5968090C01F03D01EB
:104820000A04DA60054A536F0BB1906F9847BDE8F0
:104830000840FFF799BE00BF000402401464002046
:1048400008B5084B5968890D01F03D018A05DA6009
:10485000054AD36F13B1D2F880009847BDE80840ED
:10486000FFF782BE000402401464002000230C49BC
:1048700010B51A460B4C0B6054F82300026001EB94
:10488000430004334260402BF6D1074A4FF0FF3318
:104890009360D360C2F80834C2F80C3410BD00BF76
:1048A00014640020DC810008000002400F28F8B5E5
:1048B00010D9102810D0112811D0122808D10F2497
:1048C0000720DFF8C8E00126DEF80050A04208D932
:1048D000002653E00446F4E70F240020F1E7072404
:1048E000FBE706FA00F73D424AD1264C4FEA001C8E
:1048F0003D4304EB00160EEBC000CEF80050C0E9BB
:104900000123FBB273B12048D0F8D83043F0010343
:10491000C0F8D830D0F8003143F00103C0F80031BE
:10492000D0F8003117F47F4F0ED01748D0F8D830A8
:1049300043F00203C0F8D830D0F8003143F002034E
:10494000C0F80031D0F8003154F80C00036823F0AF
:104950001F030360056815F00105FBD104EB0C0390
:104960003D2493F80CC05F6804FA0CF43C602124E9
:104970000560446112B1987B00F066F93046F8BDDD
:104980000130A3E7DC8100080044025814640020D1
:1049900010B5302484F31188FFF788FF002383F3D8
:1049A000118810BD10B50446807B00F063F9012327
:1049B0001549627B03FA02F20B6823EA0203DAB2BA
:1049C0000B6072B9114AD2F8D81021F00101C2F877
:1049D000D810D2F8001121F00101C2F80011D2F86C
:1049E000002113F47F4F0ED1084BD3F8D82022F0CA
:1049F0000202C3F8D820D3F8002122F00202C3F843
:104A00000021D3F8003110BD146400200044025886
:104A100008B5302383F31188FFF7C4FF002383F325
:104A2000118808BD026843681143016003B118474B
:104A300070470000024A136843F0C00313607047D8
:104A40000078004013B50E4C204600F0BDFA04F18A
:104A5000140000234FF400720A49009400F07AF920
:104A6000094B4FF40072094904F13800009400F03A
:104A7000F3F9074A074BC4E9172302B010BD00BF82
:104A80009864002004650020354A0008046700206F
:104A90000078004000E1F505037C30B5244C002986
:104AA00018BF0C46012B11D1224B98420ED1224B3C
:104AB000D3F8E82042F08042C3F8E820D3F8102170
:104AC00042F08042C3F81021D3F810312268036EFF
:104AD000C16D03EB52038466B3FBF2F36268150405
:104AE00042BF23F0070503F0070343EA4503CB6009
:104AF000A36843F040034B60E36843F001038B601D
:104B000042F4967343F001030B604FF0FF330B62E6
:104B1000510505D512F0102205D0B2F1805F04D006
:104B200080F8643030BD7F23FAE73F23F8E700BF09
:104B3000DC82000898640020004402582DE9F04708
:104B4000C66D05463768F469210734621AD014F03F
:104B5000080118BF4FF48071E20748BF41F02001FF
:104B6000A3074FF0300348BF41F04001600748BF42
:104B700041F0800183F31188281DFFF753FF0023C4
:104B800083F31188E2050AD5302383F311884FF4AB
:104B90008061281DFFF746FF002383F311884FF043
:104BA00030094FF0000A14F0200838D13B0616D522
:104BB0004FF0300905F1380A200610D589F3118825
:104BC000504600F07DF9002836DA0821281DFFF74D
:104BD00029FF27F080033360002383F311887906CF
:104BE00014D5620612D5302383F31188D5E9132337
:104BF0009A4208D12B6C33B127F040071021281DB1
:104C0000FFF710FF3760002383F31188E30618D500
:104C1000AA6E1369ABB15069BDE8F047184789F334
:104C20001188736A284695F86410194000F0E6F977
:104C30008AF31188F469B6E7B06288F31188F469E1
:104C4000BAE7BDE8F0870000090100F160430122E6
:104C500003F56143C9B283F8001300F01F039A40C3
:104C600043099B0003F1604303F56143C3F88021CE
:104C70001A60704700F01F0301229A40430900F1B7
:104C800060409B0000F5614003F1604303F5614320
:104C9000C3F88020C3F88021002380F800337047D8
:104CA000F8B51546826804460B46AA4200D28568CC
:104CB000A1692669761AB5420BD218462A46FCF736
:104CC0006DFEA3692B44A3612846A3685B1BA36008
:104CD000F8BD0CD9AF1B18463246FCF75FFE3A46CA
:104CE000E1683044FCF75AFEE3683B44EBE71846C2
:104CF0002A46FCF753FEE368E5E700008368934229
:104D0000F7B50446154600D28568D4E90460361A22
:104D1000B5420BD22A46FCF741FE63692B4463611E
:104D20002846A3685B1BA36003B0F0BD0DD93246D3
:104D3000AF1B0191FCF732FE01993A46E06831441D
:104D4000FCF72CFEE3683B44E9E72A46FCF726FE25
:104D5000E368E4E710B50A440024C361029B846061
:104D6000C16002610362C0E90000C0E9051110BD25
:104D700008B5D0E90532934201D1826882B98268D0
:104D8000013282605A1C426119700021D0E904325C
:104D90009A4224BFC368436100F0C0FE002008BDF2
:104DA0004FF0FF30FBE7000070B5302304460E469D
:104DB00083F31188A568A5B1A368A269013BA3602C
:104DC000531CA36115782269934224BFE368A36151
:104DD000E3690BB120469847002383F311882846E6
:104DE00007E03146204600F089FE0028E2DA85F32C
:104DF000118870BD2DE9F74F04460E4617469846B8
:104E0000D0F81C904FF0300A8AF311884FF0000B55
:104E1000154665B12A4631462046FFF741FF034655
:104E200060B94146204600F069FE0028F1D0002319
:104E300083F31188781B03B0BDE8F08FB9F1000F40
:104E400003D001902046C847019B8BF31188ED1ACF
:104E50001E448AF31188DCE7C160C361009B826055
:104E60000362C0E905111144C0E900000161704707
:104E7000F8B504460D461646302383F31188A7681B
:104E8000A7B1A368013BA36063695A1C62611D70EE
:104E9000D4E904329A4224BFE3686361E3690BB149
:104EA00020469847002080F3118807E031462046CD
:104EB00000F024FE0028E2DA87F31188F8BD000034
:104EC000D0E9052310B59A4201D182687AB9826887
:104ED0000021013282605A1C82611C7803699A4267
:104EE00024BFC368836100F019FE204610BD4FF057
:104EF000FF30FBE72DE9F74F04460E46174698466C
:104F0000D0F81C904FF0300A8AF311884FF0000B54
:104F1000154665B12A4631462046FFF7EFFE0346A7
:104F200060B94146204600F0E9FD0028F1D0002399
:104F300083F31188781B03B0BDE8F08FB9F1000F3F
:104F400003D001902046C847019B8BF31188ED1ACE
:104F50001E448AF31188DCE702684368114301604C
:104F600003B11847704700001430FFF743BF00003B
:104F70004FF0FF331430FFF73DBF00003830FFF72C
:104F8000B9BF00004FF0FF333830FFF7B3BF000068
:104F90001430FFF709BF00004FF0FF311430FFF766
:104FA00003BF00003830FFF763BF00004FF0FF324F
:104FB0003830FFF75DBF0000012914BF6FF0130008
:104FC00000207047FFF73EBD044B036000234360A1
:104FD000C0E9023301230374704700BFF482000864
:104FE00010B53023044683F31188FFF755FD0223E3
:104FF0000020237480F3118810BD000038B5C36908
:1050000004460D461BB904210844FFF7A5FF2946B5
:1050100004F11400FFF7ACFE002806DA201D4FF45F
:105020000061BDE83840FFF797BF38BD02684368AC
:105030001143016003B118477047000013B5406B7E
:1050400000F58054D4F8A4381A681178042914D1D2
:10505000017C022911D11979012312898B40134255
:105060000BD101A94C3002F0D7F9D4F8A44802467C
:10507000019B2179206800F0DFF902B010BD00002B
:10508000143002F059B900004FF0FF33143002F031
:1050900053B900004C3002F02BBA00004FF0FF3340
:1050A0004C3002F025BA0000143002F027B900009D
:1050B0004FF0FF31143002F021B900004C3002F003
:1050C000F7B900004FF0FF324C3002F0F1B90000A8
:1050D0000020704710B500F58054D4F8A4381A6841
:1050E0001178042917D1017C022914D1597901239F
:1050F00052898B4013420ED1143002F0B9F80246A7
:1051000048B1D4F8A4484FF4407361792068BDE8F1
:10511000104000F07FB910BD406BFFF7DBBF00000F
:10512000704700007FB5124B01250426044603603A
:105130000023057400F1840243602946C0E902336C
:105140000C4B0290143001934FF44073009602F020
:105150006BF8094B04F69442294604F14C00029482
:10516000CDE900634FF4407302F032F904B070BD32
:105170001C830008195100083D5000080A683023BC
:1051800083F311880B790B3342F823004B791333E7
:1051900042F823008B7913B10B3342F8230000F55A
:1051A0008053C3F8A41802230374002080F31188ED
:1051B0007047000038B5037F044613B190F85430AF
:1051C000ABB90125201D0221FFF730FF04F11400C7
:1051D0006FF00101257700F0ADFC04F14C0084F87C
:1051E00054506FF00101BDE8384000F0A3BC38BD59
:1051F00010B5012104460430FFF718FF0023237780
:1052000084F8543010BD000038B504460025143031
:1052100002F022F804F14C00257702F0F1F8201D8D
:1052200084F854500121FFF701FF2046BDE83840C3
:10523000FFF750BF90F8803003F06003202B06D1B9
:1052400090F881200023212A03D81F2A06D80020A5
:105250007047222AFBD1C0E91D3303E0034A4267AD
:1052600007228267C3670120704700BF3C230020EC
:1052700037B500F58055D5F8A4381A681178042997
:105280001AD1017C022917D11979012312898B4087
:10529000134211D100F14C04204602F071F958B1CB
:1052A00001A9204602F0B8F8D5F8A4480246019BAF
:1052B0002179206800F0C0F803B030BD01F10B0384
:1052C000F0B550F8236085B004460D46FEB130239A
:1052D00083F3118804EB8507301D0821FFF7A6FE34
:1052E000FB6806F14C005B691B681BB1019002F082
:1052F000A1F8019803A902F08FF8024648B1039B78
:105300002946204600F098F8002383F3118805B061
:10531000F0BDFB685A691268002AF5D01B8A013B70
:105320001340F1D104F18002EAE70000133138B5EF
:1053300050F82140ECB1302383F3118804F58053F9
:10534000D3F8A4281368527903EB8203DB689B69C6
:105350005D6845B104216018FFF768FE294604F135
:10536000140001F08FFF2046FFF7B4FE002383F303
:10537000118838BD7047000001F05CBA012340225B
:10538000002110B5044600F8303BFCF72DFB00234C
:10539000C4E9013310BD000010B53023044683F387
:1053A00011882422416000210C30FCF71DFB2046AF
:1053B00001F062FA02230020237080F3118810BDEF
:1053C00070B500EB8103054650690E461446DA605D
:1053D00018B110220021FCF707FBA06918B11022B8
:1053E0000021FCF701FB31462846BDE8704001F082
:1053F00049BB000083682022002103F0011310B58F
:10540000044683601030FCF7EFFA2046BDE81040F8
:1054100001F0C4BBF0B4012500EB810447898D4045
:10542000E4683D43A469458123600023A260636072
:10543000F0BC01F0E1BB0000F0B4012500EB8104F9
:1054400007898D40E4683D4364690581236000233A
:10545000A2606360F0BC01F057BC000070B502238D
:1054600000250446242203702946C0F888500C30D9
:1054700040F8045CFCF7B8FA204684F8705001F05C
:1054800095FA63681B6823B129462046BDE8704041
:10549000184770BD0378052B10B504460AD080F874
:1054A0008C300523037043681B680BB104219847B7
:1054B0000023A36010BD00000178052906D190F8F3
:1054C0008C20436802701B6803B1184770470000C6
:1054D00070B590F87030044613B1002380F8703036
:1054E00004F18002204601F07DFB63689B68B3B93C
:1054F00094F8803013F0600535D00021204601F08B
:105500006FFE0021204601F05FFE63681B6813B147
:10551000062120469847062384F8703070BD204647
:1055200098470028E4D0B4F88630A26F9A4288BF2A
:10553000A36794F98030A56F002B4FF0300380F201
:105540000381002D00F0F280092284F8702083F39B
:10555000118800212046D4E91D23FFF76DFF0023A9
:1055600083F31188DAE794F8812003F07F0343EA9C
:10557000022340F20232934200F0C58021D8B3F5F5
:10558000807F48D00DD8012B3FD0022B00F09380B4
:10559000002BB2D104F1880262670222A267E3679E
:1055A000C1E7B3F5817F00F09B80B3F5407FA4D1C4
:1055B00094F88230012BA0D1B4F8883043F0020374
:1055C00032E0B3F5006F4DD017D8B3F5A06F31D0EE
:1055D000A3F5C063012B90D86368204694F882201D
:1055E0005E6894F88310B4F88430B047002884D003
:1055F000436863670368A3671AE0B3F5106F36D09A
:1056000040F6024293427FF478AF5C4B636702231B
:10561000A3670023C3E794F88230012B7FF46DAFBA
:10562000B4F8883023F00203A4F88830C4E91D558B
:10563000E56778E7B4F88030B3F5A06F0ED194F841
:105640008230204684F88A3001F00EFA63681B68C5
:1056500013B1012120469847032323700023C4E996
:105660001D339CE704F18B0363670123C3E72378B1
:10567000042B10D1302383F311882046FFF7BAFEA4
:1056800085F311880321636884F88B5021701B68AF
:105690000BB12046984794F88230002BDED084F876
:1056A0008B300423237063681B68002BD6D0022143
:1056B00020469847D2E794F8843020461D0603F030
:1056C0000F010AD501F080FA012804D002287FF4E6
:1056D00014AF2B4B9AE72B4B98E701F067FAF3E7EF
:1056E00094F88230002B7FF408AF94F8843013F0E4
:1056F0000F01B3D01A06204602D501F089FDADE7AF
:1057000001F07AFDAAE794F88230002B7FF4F5AE21
:1057100094F8843013F00F01A0D01B06204602D568
:1057200001F05EFD9AE701F04FFD97E7142284F83F
:10573000702083F311882B462A4629462046FFF71E
:1057400069FE85F31188E9E65DB1152284F87020C1
:1057500083F3118800212046D4E91D23FFF75AFE68
:10576000FDE60B2284F8702083F311882B462A462D
:1057700029462046FFF760FEE3E700BF4C830008A0
:10578000448300084883000838B590F87030044618
:10579000002B3ED0063BDAB20F2A34D80F2B32D87A
:1057A000DFE803F037313108223231313131313124
:1057B00031313737856FB0F886309D4214D2C368D7
:1057C0001B8AB5FBF3F203FB12556DB9302383F34B
:1057D00011882B462A462946FFF72EFE85F31188AD
:1057E0000A2384F870300EE0142384F870303023DC
:1057F00083F31188002320461A461946FFF70AFE54
:10580000002383F3118838BDC36F03B19847002389
:10581000E7E70021204601F0E3FC0021204601F0EB
:10582000D3FC63681B6813B1062120469847062302
:10583000D7E7000010B590F870300446142B29D03B
:1058400017D8062B05D001D81BB110BD093B022B80
:10585000FBD80021204601F0C3FC0021204601F0C6
:10586000B3FC63681B6813B10621204698470623E2
:1058700019E0152BE9D10B2380F87030302383F326
:10588000118800231A461946FFF7D6FD002383F33B
:105890001188DAE7C3689B695B68002BD5D1C36FB9
:1058A00003B19847002384F87030CEE70023826864
:1058B000037503691B6899689142FBD25A680360BB
:1058C0004260106058607047002382680375036966
:1058D0001B6899689142FBD85A6803604260106067
:1058E0005860704708B50846302383F311880A7D55
:1058F0000023052A06D8DFE802F00B050503120E87
:10590000826913604FF0FF338361FFF7CFFF0023FD
:1059100083F3118808BD8269936801339360D0E9ED
:10592000003213605A60EDE7FFF7C0BF054BD9683E
:1059300008751868026853601A600122D860027501
:10594000FAF768BD086900200C4B30B5DD684B1CC8
:1059500087B004460FD02B46094A684600F07EF90E
:105960002046FFF7E3FF009B13B1684600F080F983
:10597000A86907B030BDFFF7D9FFF9E70869002033
:10598000E558000838B50C4D04468161EB68816824
:105990009A68914203D8BDE83840FFF787BF1846A0
:1059A000FFF792FF01230146EC6020462375BDE816
:1059B0003840FAF72FBD00BF08690020044B1A6871
:1059C000DB6890689B68984294BF00200120704774
:1059D00008690020084B10B51C68D868226853601D
:1059E0001A600122DC602275FFF76EFF0146204637
:1059F000BDE81040FAF70EBD0869002038B5012354
:105A0000084C00252370656001F0F6FD01F01CFED6
:105A10000549064801F0F0FE0223237085F3118842
:105A200038BD00BF706B0020548300080869002057
:105A300008B572B6044B186500F024FD00F0E6FDD1
:105A4000024B03221A70FEE708690020706B0020E9
:105A500000F044B9034A516853685B1A9842FBD876
:105A6000704700BF001000E08B6002230861084609
:105A70008B8270478368A3F1840243F8142C026977
:105A800043F8442C426943F8402C094A43F8242C3B
:105A9000C268A3F1200043F8182C022203F80C2C52
:105AA000002203F80B2C034A43F8102C704700BF68
:105AB0002D0400080869002008B5FFF7DBFFBDE8EA
:105AC0000840FFF731BF0000024BDB6898610F20F0
:105AD000FFF72CBF08690020302383F31188FFF7FC
:105AE000F3BF000008B50146302383F31188082076
:105AF000FFF72AFF002383F3118808BD064BDB68FC
:105B000039B1426818605A60136043600420FFF79F
:105B10001BBF4FF0FF3070470869002003689842B0
:105B200006D01A680260506018469961FFF7FCBE03
:105B30007047000038B504460D462068844200D105
:105B400038BD036823605C608561FFF7EDFEF4E714
:105B5000036810B59C68A2420CD85C688A600B6030
:105B60004C602160596099688A1A9A604FF0FF333F
:105B7000836010BD121B1B68ECE700000A2938BFC8
:105B80000A2170B504460D460A26601901F02EFD63
:105B900001F016FD041BA54203D8751C04462E46D1
:105BA000F3E70A2E04D90120BDE8704001F064BE7D
:105BB00070BD0000F8B5144B0D460A2A4FF00A07D5
:105BC000D96103F11001826038BF0A22416019696E
:105BD0001446016048601861A81801F0F7FC01F054
:105BE000EFFC431B0646A34206D37C1C281927461C
:105BF000354601F0FBFCF2E70A2F04D90120BDE88D
:105C0000F84001F039BEF8BD08690020F8B5064635
:105C10000D4601F0D5FC0F4A134653F8107F9F4202
:105C200006D12A4601463046BDE8F840FFF7C2BF1C
:105C3000D169BB68441A2C1928BF2C46A34202D94B
:105C40002946FFF79BFF224631460348BDE8F8404E
:105C5000FFF77EBF0869002018690020C0E9032310
:105C6000002310B45DF8044B4361FFF7CFBF000081
:105C700010B5194C236998420DD08168D0E90032E3
:105C800013605A609A680A449A60002303604FF0D8
:105C9000FF33A36110BD0268234643F8102F536001
:105CA0000022026022699A4203D1BDE8104001F04F
:105CB00097BC936881680B44936001F081FC226972
:105CC000E1699268441AA242E4D91144BDE8104047
:105CD000091AFFF753BF00BF086900202DE9F047FC
:105CE000DFF8BC8008F110072C4ED8F8105001F0F6
:105CF00067FCD8F81C40AA68031B9A423ED814449B
:105D00004FF00009D5E90032C8F81C4013605A6012
:105D1000C5F80090D8F81030B34201D101F060FC12
:105D200089F31188D5E9033128469847302383F356
:105D300011886B69002BD8D001F042FC6A69A0EB96
:105D4000040982464A450DD2022001F095FD002249
:105D5000D8F81030B34208D151462846BDE8F04784
:105D6000FFF728BF121A2244F2E712EB090929466D
:105D7000384638BF4A46FFF7EBFEB5E7D8F8103093
:105D8000B34208D01444C8F81C00211AA960BDE829
:105D9000F047FFF7F3BEBDE8F08700BF18690020A9
:105DA0000869002038B501F00BFC054AD2E9084526
:105DB000031B181945F10001C2E9080138BD00BFF5
:105DC0000869002000207047FEE7000070470000CF
:105DD0004FF0FF307047000002290CD0032904D097
:105DE0000129074818BF00207047032A05D8054835
:105DF00000EBC2007047044870470020704700BFA6
:105E00002C8400084C230020E083000870B59AB071
:105E100005460846144601A900F0C2F801A8FBF7A0
:105E2000DBFD431C0022C6B25B001046C5E900340E
:105E300023700323023404F8013C01ABD1B20234D5
:105E40008E4201D81AB070BD13F8011B013204F85C
:105E5000010C04F8021CF1E708B5302383F3118824
:105E60000348FFF705FA002383F3118808BD00BF3C
:105E7000786B002090F8803003F01F02012A07D1D0
:105E800090F881200B2A03D10023C0E91D3315E0CF
:105E900003F06003202B08D1B0F884302BB990F8C0
:105EA0008120212A03D81F2A04D8FFF7C3B9222A48
:105EB000EBD0FAE7034A426707228267C3670120F3
:105EC000704700BF4323002007B5052917D8DFE836
:105ED00001F0191603191920302383F31188104A91
:105EE00001210190FFF76CFA019802210D4AFFF79A
:105EF00067FA0D48FFF788F9002383F3118803B090
:105F00005DF804FB302383F311880748FFF752F94B
:105F1000F2E7302383F311880348FFF769F9EBE7D1
:105F200080830008A4830008786B002038B50C4DEE
:105F30000C4C2A460C4904F10800FFF767FF05F1F5
:105F4000CA0204F110000949FFF760FF05F5CA72A3
:105F500004F118000649BDE83840FFF757BF00BFFD
:105F6000508400204C230020608300086A830008CE
:105F70007583000870B5044608460D46FBF72CFDF6
:105F8000C6B22046013403780BB9184670BD3246BC
:105F90002946FBF70DFD0028F3D10120F6E70000AC
:105FA0002DE9F04705460C46FBF716FD2B49C6B216
:105FB0002846FFF7DFFF08B10A36F6B2284928461F
:105FC000FFF7D8FF08B11036F6B2632E0BD8DFF812
:105FD0008C80DFF88C90234FDFF894A02E7846B9A0
:105FE0002670BDE8F08729462046BDE8F04702F05C
:105FF0005BB8252E2ED1072241462846FBF7D8FC58
:1060000070B9194B224603F1100153F8040B8B426F
:1060100042F8040BF9D11B78073511341370DDE712
:10602000082249462846FBF7C3FC98B9A21C0F4B2F
:10603000197802320909C95D02F8041C13F8011B22
:1060400001F00F015345C95D02F8031CF0D118346B
:106050000835C3E7013504F8016BBFE74C8400083D
:106060007583000854840008C680000800E8F11F0A
:106070000CE8F11FBFF34F8F044B1A695107FCD195
:10608000D3F810215207F8D1704700BF002000520A
:1060900008B50D4B1B78ABB9FFF7ECFF0B4BDA687B
:1060A000D10704D50A4A5A6002F188325A60D3F8FF
:1060B0000C21D20706D5064AC3F8042102F1883222
:1060C000C3F8042108BD00BFAE86002000200052A6
:1060D0002301674508B5114B1B78F3B9104B1A69BA
:1060E000510703D5DA6842F04002DA60D3F8102194
:1060F000520705D5D3F80C2142F04002C3F80C2119
:10610000FFF7B8FF064BDA6842F00102DA60D3F815
:106110000C2142F00102C3F80C2108BDAE8600201C
:10612000002000520F289ABF00F580604004002034
:10613000704700004FF40030704700001020704797
:106140000F2808B50BD8FFF7EDFF00F50033026804
:10615000013204D104308342F9D1012008BD00206E
:10616000FCE700000F2838B505463FD8FFF782FF4F
:106170001F4CFFF78DFF4FF0FF3307286361C4F812
:1061800014311DD82361FFF775FF030243F0240388
:10619000E360E36843F08003E36023695A07FCD4BB
:1061A0002846FFF767FFFFF7BDFF4FF4003100F00F
:1061B00009FA2846FFF78EFFBDE83840FFF7C0BF59
:1061C000C4F81031FFF756FFA0F108031B0243F09B
:1061D0002403C4F80C31D4F80C3143F08003C4F824
:1061E0000C31D4F810315B07FBD4D9E7002038BD5F
:1061F000002000522DE9F84F05460C46104645EAAE
:106200000203DE0602D00020BDE8F88F20F01F0058
:10621000DFF8BCB0DFF8BCA0FFF73AFF04EB0008E2
:10622000444503D10120FFF755FFEDE72022294621
:10623000204601F007FF10B920352034F0E72B4647
:1062400005F120021F68791CDDD104339A42F9D18F
:1062500005F178431B481C4EB3F5801F1B4B38BF1C
:10626000184603F1F80332BFD946D1461E46FFF760
:1062700001FF0760A5EB040C336804F11C0143F037
:1062800002033360231FD9F8007017F00507FAD115
:1062900053F8042F8B424CF80320F4D1BFF34F8FF7
:1062A000FFF7E8FE4FF0FF33202221460360284627
:1062B000336823F00203336001F0C4FE0028BBD032
:1062C0003846B0E7142100520C200052142000522E
:1062D000102000521021005210B5084C237828B12C
:1062E0001BB9FFF7D5FE0123237010BD002BFCD096
:1062F0002070BDE81040FFF7EDBE00BFAE86002065
:106300002DE9F04F0D4685B0814658B111F00D06CC
:1063100014BF2022082211F00803019304D0431E69
:1063200003426AD0002435E0002E37D009F11F0166
:1063300021F01F094FF00108324F05F00403DFF888
:10634000D0A005EA080BBBF1000F32D07869C00776
:106350002FD408F101080C37B8F1060FF3D19EB91C
:10636000294D4946A819019201F090F904460028E8
:106370003AD11836019A782EF3D1494601F086F9C0
:106380000446002830D1019A4946204801F07EF9A0
:10639000044668BB204605B0BDE8F08F0029C9D18E
:1063A00001462846029201F071F90446E0B9029ACA
:1063B000C0E713B178694107CBD5AC0702D578693E
:1063C0008007C6D5019911B178690107C1D5182098
:1063D000494600FB08A0CDE9022301F057F9044625
:1063E000DDE902230028B4D04A460021204601E01E
:1063F0004A460021FBF7F8FACCE70246002E95D179
:1064000098E700BF68840008E0860020B08600207E
:10641000C88600200121FFF773BF0000F8B5144DB6
:1064200001241827134E40F2FF3200210120FBF710
:10643000DBFA07FB046001342A6955F80C1F01F0F0
:1064400011F9062CF5D137254FF4C0542046FFF73B
:10645000E1FF014628B122460748BDE8F84001F0B7
:1064600001B9C4EBC404013D4FEAD404EED1F8BD38
:1064700068840008C8860020B086002008B101F0BA
:1064800077B9704738B5054D00240334696855F86D
:106490000C0B00F0A9F8122CF7D138BD6884000865
:1064A00038B5EFF311859DB9EFF30584C4F3080403
:1064B000302334B183F31188FFF774FC85F311881E
:1064C00038BD83F31188FFF76DFC84F3118838BD64
:1064D000BDE83840FFF766BC10B5FFF7E1FF104C90
:1064E000C008104A002340EA4170C908A0FB04EC30
:1064F000A0FB020E1CEB0000A1FB044CA1FB02124E
:106500005B41001943EB0C0011EB0E0142F100025C
:10651000411842F10000090941EA007010BD00BFB6
:10652000CFF753E3A59BC4200244074BD2B210B56A
:10653000904200D110BD441C00B253F8200041F835
:10654000040BE0B2F4E700BF504000580E4B30B5EA
:106550001C6F240405D41C6F1C671C6F44F400449A
:106560001C670A4C02442368D2B243F48073236050
:10657000074B904200D130BD441C51F8045B00B27F
:1065800043F82050E0B2F4E70044025800480258B3
:106590005040005807B5012201A90020FFF7C4FFB1
:1065A000019803B05DF804FB13B50446FFF7F2FF52
:1065B000A04205D0012201A900200194FFF7C6FFE7
:1065C00002B010BD0144BFF34F8F064B884204D385
:1065D000BFF34F8FBFF36F8F7047C3F85C0220305B
:1065E000F4E700BF00ED00E00144BFF34F8F064B1E
:1065F000884204D3BFF34F8FBFF36F8F7047C3F848
:1066000070022030F4E700BF00ED00E070470000AA
:10661000074B45F255521A6003225A6040F2FF724E
:106620009A604CF6CC421A600122024B1A707047F5
:10663000004800585C870020034B1B781BB1034BBC
:106640004AF6AA221A6070475C870020004800586A
:10665000034B1A681AB9034AD2F8D0241A6070475B
:106660005887002000400258024B4FF48032C3F894
:10667000D02470470040025808B5FFF7E9FF024BED
:106680001868C0F3806008BD5887002070B5BFF35C
:106690004F8FBFF36F8F1A4A0021C2F85012BFF319
:1066A0004F8FBFF36F8F536943F400335361BFF3D0
:1066B0004F8FBFF36F8FC2F88410BFF34F8FD2F8A4
:1066C000803043F6E074C3F3C900C3F34E335B017B
:1066D00003EA0406014646EA81750139C2F86052B0
:1066E000F9D2203B13F1200FF2D1BFF34F8F536942
:1066F00043F480335361BFF34F8FBFF36F8F70BD8F
:1067000000ED00E0FEE70000214B2248224A70B570
:10671000904237D3214BC11EDA1C121A22F0030219
:106720008B4238BF00220021FBF75EF91C4A002390
:10673000C2F88430BFF34F8FD2F8803043F6E07454
:10674000C3F3C900C3F34E335B0103EA04060146F9
:1067500046EA81750139C2F86C52F9D2203B13F137
:10676000200FF2D1BFF34F8FBFF36F8FBFF34F8F67
:10677000BFF36F8F0023C2F85032BFF34F8FBFF3C8
:106780006F8F70BD53F8041B40F8041BC0E700BFB7
:106790009C860008508900205089002050890020E4
:1067A00000ED00E0074BD3F8D81021EA0001C3F850
:1067B000D810D3F8002122EA0002C3F80021D3F850
:1067C000003170470044025870B5D0E924430022DC
:1067D0004FF0FF359E6804EB42135101D3F80009D6
:1067E000002805DAD3F8000940F08040C3F800091A
:1067F000D3F8000B002805DAD3F8000B40F08040F6
:10680000C3F8000B013263189642C3F80859C3F865
:10681000085BE0D24FF00113C4F81C3870BD0000D3
:10682000890141F02001016103699B06FCD412201B
:10683000FFF710B910B50A4C2046FEF79FFD094B33
:10684000C4F89030084BC4F89430084C2046FEF74A
:1068500095FD074BC4F89030064BC4F8943010BD3A
:106860006087002000000840D4840008FC870020D6
:1068700000000440E084000870B503780546012B51
:106880005CD1434BD0F89040984258D1414B0E21F7
:106890006520D3F8D82042F00062C3F8D820D3F89E
:1068A000002142F00062C3F80021D3F80021D3F8A0
:1068B000802042F00062C3F88020D3F8802022F0CC
:1068C0000062C3F88020D3F88030FEF7BDF9324B68
:1068D000E360324BC4F800380023D5F89060C4F868
:1068E000003EC02323604FF40413A3633369002BDD
:1068F000FCDA01230C203361FFF7ACF83369DB07C6
:10690000FCD41220FFF7A6F83369002BFCDA00262E
:106910002846A660FFF758FF6B68C4F81068DB686C
:10692000C4F81468C4F81C6883BB1D4BA3614FF006
:10693000FF336361A36843F00103A36070BD194B8B
:106940009842C9D1134B4FF08060D3F8D82042F061
:106950000072C3F8D820D3F8002142F00072C3F8C7
:106960000021D3F80021D3F8802042F00072C3F850
:106970008020D3F8802022F00072C3F88020D3F862
:106980008030FFF70FFF0E214D209EE7064BCDE72D
:106990006087002000440258401400400300200299
:1069A000003C30C0FC870020083C30C0F8B5D0F86F
:1069B0009040054600214FF000662046FFF730FF6B
:1069C000D5F8941000234FF001128F684FF0FF307C
:1069D000C4F83438C4F81C2804EB431201339F4236
:1069E000C2F80069C2F8006BC2F80809C2F8080BC7
:1069F000F2D20B68D5F89020C5F898306362102366
:106A00001361166916F01006FBD11220FFF722F869
:106A1000D4F8003823F4FE63C4F80038A36943F4C3
:106A2000402343F01003A3610923C4F81038C4F8CD
:106A300014380B4BEB604FF0C043C4F8103B094BCC
:106A4000C4F8003BC4F81069C4F80039D5F8983090
:106A500003F1100243F48013C5F89820A362F8BD37
:106A6000B084000840800010D0F8902090F88A1080
:106A7000D2F8003823F4FE6343EA0113C2F8003869
:106A8000704700002DE9F84300EB8103D0F89050E7
:106A90000C468046DA680FFA81F94801166806F05C
:106AA0000306731E022B05EB41134FF0000194BF48
:106AB000B604384EC3F8101B4FF0010104F1100367
:106AC00098BF06F1805601FA03F3916998BF06F565
:106AD000004600293AD0578A04F15801374349014A
:106AE0006F50D5F81C180B430021C5F81C382B1823
:106AF0000127C3F81019A7405369611E9BB3138A7D
:106B0000928B9B08012A88BF5343D8F89820981885
:106B100042EA034301F140022146C8F898002846A2
:106B200005EB82025360FFF77BFE08EB8900C36828
:106B30001B8A43EA845348341E4364012E51D5F81E
:106B40001C381F43C5F81C78BDE8F88305EB4917CE
:106B5000D7F8001B21F40041C7F8001BD5F81C181A
:106B600021EA0303C0E704F13F030B4A284621460C
:106B700005EB83035A60FFF753FE05EB4910D0F88D
:106B8000003923F40043C0F80039D5F81C3823EA53
:106B90000707D7E70080001000040002D0F8942017
:106BA0001268C0F89820FFF70FBE00005831D0F8E7
:106BB000903049015B5813F4004004D013F4001FD7
:106BC0000CBF0220012070474831D0F890304901B5
:106BD0005B5813F4004004D013F4001F0CBF0220D4
:106BE0000120704700EB8101CB68196A0B681360C4
:106BF0004B6853607047000000EB810330B5DD68DF
:106C0000AA691368D36019B9402B84BF402313606D
:106C10006B8A1468D0F890201C4402EB4110013CB0
:106C200009B2B4FBF3F46343033323F0030343EAF1
:106C3000C44343F0C043C0F8103B2B6803F0030388
:106C4000012B0ED1D2F8083802EB411013F4807FEB
:106C5000D0F8003B14BF43F0805343F00053C0F81A
:106C6000003B02EB4112D2F8003B43F00443C2F870
:106C7000003B30BD2DE9F041D0F8906005460C4650
:106C800006EB4113D3F8087B3A07C3F8087B08D515
:106C9000D6F814381B0704D500EB8103DB685B686A
:106CA0009847FA071FD5D6F81438DB071BD505EB34
:106CB0008403D968CCB98B69488A5A68B2FBF0F66C
:106CC00000FB16228AB91868DA6890420DD2121AAF
:106CD000C3E90024302383F3118821462846FFF7B7
:106CE0008BFF84F31188BDE8F081012303FA04F2DD
:106CF0006B8923EA02036B81CB68002BF3D021461A
:106D00002846BDE8F041184700EB81034A0170B501
:106D1000DD68D0F890306C692668E66056BB1A448E
:106D20004FF40020C2F810092A6802F00302012A79
:106D30000AB20ED1D3F8080803EB421410F4807F96
:106D4000D4F8000914BF40F0805040F00050C4F85F
:106D5000000903EB4212D2F8000940F00440C2F8E7
:106D600000090122D3F8340802FA01F10143C3F803
:106D7000341870BD19B9402E84BF402020602068AF
:106D80001A442E8A8419013CB4FBF6F440EAC4404C
:106D900040F00050C6E700002DE9F843D0F89060BD
:106DA00005460C464F0106EB4113D3F8088918F04D
:106DB000010FC3F808891CD0D6F81038DB0718D5A6
:106DC00000EB8103D3F80CC0DCF81430D3F800E0FA
:106DD000DA68964530D2A2EB0E024FF000091A6035
:106DE000C3F80490302383F31188FFF78DFF89F3F4
:106DF000118818F0800F1DD0D6F834380126A6402F
:106E0000334217D005EB84030134D5F89050D3F802
:106E10000CC0E4B22F44DCF8142005EB0434D2F8A3
:106E200000E05168714514D3D5F8343823EA0606DA
:106E3000C5F83468BDE8F883012303FA01F2038939
:106E400023EA02030381DCF80830002BD1D09847F5
:106E5000CFE7AEEB0103BCF81000834228BF034626
:106E6000D7F8180980B2B3EB800FE3D89068A0F18F
:106E7000040959F8048FC4F80080A0EB090898446D
:106E8000B8F1040FF5D818440B4490605360C8E77C
:106E90002DE9F84FD0F8905004466E69AB691E405A
:106EA00016F480586E6103D0BDE8F84FFEF7D6BAED
:106EB000002E12DAD5F8003E9B0705D0D5F8003E2B
:106EC00023F00303C5F8003ED5F80438204623F02C
:106ED0000103C5F80438FEF7EFFA370505D520465B
:106EE000FFF772FC2046FEF7D5FAB0040CD5D5F8B2
:106EF000083813F0060FEB6823F470530CBF43F40B
:106F0000105343F4A053EB6031071BD56368DB6873
:106F10001BB9AB6923F00803AB612378052B0CD1B7
:106F2000D5F8003E9A0705D0D5F8003E23F00303BC
:106F3000C5F8003E2046FEF7BFFA6368DB680BB178
:106F400020469847F30200F1BA80B70226D5D4F85C
:106F5000909000274FF0010A09EB4712D2F8003B4E
:106F600003F44023B3F5802F11D1D2F8003B002B5E
:106F70000DDA62890AFA07F322EA0303638104EB5C
:106F80008703DB68DB6813B1394620469847013731
:106F9000D4F89430FFB29B689F42DDD9F00619D532
:106FA000D4F89000026AC2F30A1702F00F0302F449
:106FB000F012B2F5802F00F0CA80B2F5402F09D14F
:106FC00004EB8303002200F58050DB681B6A9742C4
:106FD00040F0B0803003D5F8185835D5E90303D513
:106FE00000212046FFF746FEAA0303D501212046D3
:106FF000FFF740FE6B0303D502212046FFF73AFE60
:107000002F0303D503212046FFF734FEE80203D502
:1070100004212046FFF72EFEA90203D505212046B4
:10702000FFF728FE6A0203D506212046FFF722FE5D
:107030002B0203D507212046FFF71CFEEF0103D5E5
:1070400008212046FFF716FE700340F1A780E907EC
:1070500003D500212046FFF79FFEAA0703D5012193
:107060002046FFF799FE6B0703D502212046FFF764
:1070700093FE2F0703D503212046FFF78DFEEE0672
:1070800003D504212046FFF787FEA80603D5052176
:107090002046FFF781FE690603D506212046FFF74B
:1070A0007BFE2A0603D507212046FFF775FEEB0578
:1070B00074D520460821BDE8F84FFFF76DBED4F81F
:1070C00090904FF0000B4FF0010AD4F894305FFA23
:1070D0008BF79B689F423FF638AF09EB4713D3F815
:1070E000002902F44022B2F5802F20D1D3F80029E4
:1070F000002A1CDAD3F8002942F09042C3F8002994
:10710000D3F80029002AFBDB3946D4F89000FFF7BA
:1071100087FB22890AFA07F322EA0303238104EB9F
:107120008703DB689B6813B13946204698470BF10B
:10713000010BCAE7910701D1D0F80080072A02F1BC
:1071400001029CBF03F8018B4FEA18283FE704EBCC
:10715000830300F58050DA68D2F818C0DCF8082004
:10716000DCE9001CA1EB0C0C00218F4208D1DB688C
:107170009B699A683A449A605A683A445A6029E787
:1071800011F0030F01D1D0F800808C4501F101010D
:1071900084BF02F8018B4FEA1828E6E7BDE8F88FB4
:1071A00008B50348FFF774FEBDE80840FDF7DCB9F9
:1071B0006087002008B50348FFF76AFEBDE8084075
:1071C000FDF7D2B9FC870020D0F8903003EB4111D5
:1071D000D1F8003B43F40013C1F8003B70470000B6
:1071E000D0F8903003EB4111D1F8003943F400138B
:1071F000C1F8003970470000D0F8903003EB41111E
:10720000D1F8003B23F40013C1F8003B70470000A5
:10721000D0F8903003EB4111D1F8003923F400137A
:10722000C1F800397047000030B50433039C017287
:10723000002104FB0325C160C0E90653049B0363DE
:10724000059BC0E90000C0E90422C0E90842C0E98A
:107250000A11436330BD00000022416AC260C0E9E8
:107260000411C0E90A226FF00101FEF763BC0000BF
:10727000D0E90432934201D1C2680AB9181D70479F
:1072800000207047036919600021C2680132C260A2
:10729000C269134482699342036124BF436A036154
:1072A000FEF73CBC38B504460D46E3683BB1626965
:1072B0000020131D1268A3621344E36207E0237ADF
:1072C00033B929462046FEF719FC0028EDDA38BD0F
:1072D0006FF00100FBE70000C368C269013BC360B7
:1072E0004369134482699342436124BF436A436103
:1072F00000238362036B03B11847704770B53023D6
:10730000044683F31188866A3EB9FFF7CBFF054632
:1073100018B186F31188284670BDA36AE26A13F893
:10732000015B9342A36202D32046FFF7D5FF0023FF
:1073300083F31188EFE700002DE9F84F04460E466D
:10734000174698464FF0300989F311880025AA4660
:10735000D4F828B0BBF1000F09D141462046FFF711
:10736000A1FF20B18BF311882846BDE8F88FD4E93E
:107370000A12A7EB050B521A934528BF9346BBF19F
:10738000400F1BD9334601F1400251F8040B9142E2
:1073900043F8040BF9D1A36A403640354033A36269
:1073A000D4E90A239A4202D32046FFF795FF8AF3D5
:1073B0001188BD42D8D289F31188C9E730465A46B0
:1073C000FAF7ECFAA36A5E445D445B44A362E7E724
:1073D00010B5029C0433017203FB0421C460C0E9B0
:1073E00006130023C0E90A33039B0363049BC0E92F
:1073F0000000C0E90422C0E90842436310BD000058
:10740000026A6FF00101C260426AC0E904220022F0
:10741000C0E90A22FEF78EBBD0E904239A4201D1CB
:10742000C26822B9184650F8043B0B60704700232D
:107430001846FAE7C3680021C2690133C360436993
:10744000134482699342436124BF436A4361FEF758
:1074500065BB000038B504460D46E3683BB12369BF
:1074600000201A1DA262E2691344E36207E0237A56
:1074700033B929462046FEF741FB0028EDDA38BD36
:107480006FF00100FBE7000003691960C268013A70
:10749000C260C269134482699342036124BF436A94
:1074A000036100238362036B03B118477047000038
:1074B00070B530230D460446114683F31188866A61
:1074C0002EB9FFF7C7FF10B186F3118870BDA36A0C
:1074D0001D70A36AE26A01339342A36204D3E16997
:1074E00020460439FFF7D0FF002080F31188EDE734
:1074F0002DE9F84F04460D46904699464FF0300A64
:107500008AF311880026B346A76A4FB94946204638
:10751000FFF7A0FF20B187F311883046BDE8F88F50
:10752000D4E90A073A1AA8EB0607974228BF17467C
:10753000402F1BD905F1400355F8042B9D4240F81C
:10754000042BF9D1A36A40364033A362D4E90A235D
:107550009A4204D3E16920460439FFF795FF8BF383
:1075600011884645D9D28AF31188CDE729463A4693
:10757000FAF714FAA36A3D443E443B44A362E5E7AC
:10758000D0E904239A4217D1C3689BB1836A8BB1B7
:10759000043B9B1A0ED01360C368013BC360C369F0
:1075A0001A4483699A42026124BF436A036100233B
:1075B00083620123184670470023FBE700F060BA9E
:1075C000014B586A704700BF000C0040034B00227B
:1075D00058631A610222DA60704700BF000C004055
:1075E000014B0022DA607047000C0040014B5863E9
:1075F000704700BF000C0040024B034A1A60034A68
:107600005A607047B0880020508900200000022096
:10761000074B494210B55C68201A08401968821A65
:107620008A4203D3A24201D85A6010BD0020FCE771
:10763000B088002008B5302383F31188FFF7E8FFF6
:10764000002383F3118808BD04480121044B036023
:107650000023C0E901330C3000F016B9B8880020CF
:1076600035760008CB1D083A23F00703591A521A41
:10767000012110B4D2080024C0E9004384600C301A
:107680001C605A605DF8044B00F0FEB82DE9F84F1D
:10769000364ECD1D0F46002818BF0646082A4FEA71
:1076A000D50538BF082206F10C08341D9146404626
:1076B00000F006F909F10701C9F1000E224624681D
:1076C0006CB9404600F006F93368CBB3082249464E
:1076D000E8009847044698B340E9026730E004EBBD
:1076E000010CD4F804A00CEA0E0C0AF10100ACF174
:1076F000080304EBC0009842E0D9A0EB0C0CB5EBFA
:10770000EC0F4FEAEC0BD9D89C421CD204F10802D2
:10771000AB45A3EB02024FEAE202626009D9691CA1
:10772000ED43206803EBC1025D44556043F831002E
:1077300022601C465F60404644F8086B00F0CAF8BF
:107740002046BDE8F88FAA45216802D11160234682
:10775000EFE7013504EBC50344F8351003F10801E8
:10776000401AC01058601360F1E700BFB8880020CD
:10777000F8B550F8043C044650F8085CA0F108063F
:1077800007332F1D0C35DB0840F8043C284600F079
:1077900097F83B469F421A6801D0B34228D20AB1FB
:1077A000964225D244F8082C54F8042C1E6001326D
:1077B00054F8081C06EBC200814206D14868024416
:1077C00044F8042C0A6844F8082C5868411C03EB60
:1077D000C1018E4207D154F8042C013202445A6090
:1077E00054F8082C1A602846BDE8F84000F072B83A
:1077F0001346CFE7FEE7000070B51B4B002504469B
:1078000086B058600E4685620163FCF785FE04F180
:107810001003A560E562C4E904334FF0FF33C4E907
:107820000044C4E90635FFF7CBFE2B46024604F1BF
:1078300034012046C4E9082380230C4A2565FEF75D
:1078400013F901230A4AE0600092037568467268E2
:107850000192B268CDE90223064BCDE90435FEF76B
:107860002BF906B070BD00BF706B0020EC840008DF
:10787000F1840008F5770008024AD36A1843D06201
:10788000704700BF08690020C0E9000081607047B0
:107890008368013B002B10B583600CDA074BDC6872
:1078A0004368A061206063601C6044600520FEF7AF
:1078B0003DF8A06910BD0020FCE700BF086900206A
:1078C00008B5302383F31188FFF7E2FF002383F329
:1078D000118808BD08B5302383F31188836801330C
:1078E000002B836007DC036800211A680260506087
:1078F0001846FEF747F8002383F3118808BD0000FF
:107900004B6843608B688360CB68C3600B694361DD
:107910004B6903628B6943620B6803607047000028
:1079200008B53C4B40F2FF713B48D3F888200A432E
:10793000C3F88820D3F8882022F4FF6222F00702DF
:10794000C3F88820D3F88820D3F8E0200A43C3F88E
:10795000E020D3F808210A43C3F808212F4AD3F8BE
:1079600008311146FFF7CCFF00F5806002F11C01E1
:10797000FFF7C6FF00F5806002F13801FFF7C0FF96
:1079800000F5806002F15401FFF7BAFF00F5806056
:1079900002F17001FFF7B4FF00F5806002F18C0185
:1079A000FFF7AEFF00F5806002F1A801FFF7A8FF26
:1079B00000F5806002F1C401FFF7A2FF00F58060CE
:1079C00002F1E001FFF79CFF00F5806002F1FC018D
:1079D000FFF796FF02F58C7100F58060FFF790FFCE
:1079E00000F01AF90E4BD3F8902242F00102C3F8CE
:1079F0009022D3F8942242F00102C3F89422052287
:107A0000C3F898204FF06052C3F89C20054AC3F891
:107A1000A02008BD0044025800000258F884000865
:107A200000ED00E01F00080308B500F0D7FAFDF7ED
:107A3000E5FF104BD3F8DC2042F04002C3F8DC2015
:107A4000D3F8042122F04002C3F80421D3F8043112
:107A5000094B1A6842F008021A601A6842F00402E0
:107A60001A60FEF7F5FDFEF7D9FCBDE80840FEF709
:107A70005DBA00BF00440258001802487047000079
:107A8000114BD3F8E82042F00802C3F8E820D3F8FD
:107A9000102142F00802C3F810210C4AD3F810312B
:107AA000D36B43F00803D363C722094B9A624FF0AC
:107AB000FF32DA6200229A615A63DA605A60012268
:107AC0005A611A60704700BF004402580010005C01
:107AD000000C0040094A08B51169D3680B40D9B2BF
:107AE0009B076FEA0101116107D5302383F31188E9
:107AF000FDF7AEFF002383F3118808BD000C0040A2
:107B0000064BD3F8DC200243C3F8DC20D3F8042171
:107B10001043C3F80401D3F80431704700440258FD
:107B200008B53C4B4FF0FF31D3F8802062F00042A3
:107B3000C3F88020D3F8802002F00042C3F88020F0
:107B4000D3F88020D3F88420C3F88410D3F884209D
:107B50000022C3F88420D3F88400D86F40F0FF409F
:107B600040F4FF0040F4DF4040F07F00D867D86F5A
:107B700020F0FF4020F4FF0020F4DF4020F07F00E1
:107B8000D867D86FD3F888006FEA40506FEA50503A
:107B9000C3F88800D3F88800C0F30A00C3F888004F
:107BA000D3F88800D3F89000C3F89010D3F8900071
:107BB000C3F89020D3F89000D3F89400C3F8941041
:107BC000D3F89400C3F89420D3F89400D3F8980025
:107BD000C3F89810D3F89800C3F89820D3F8980009
:107BE000D3F88C00C3F88C10D3F88C00C3F88C2029
:107BF000D3F88C00D3F89C00C3F89C10D3F89C10E9
:107C0000C3F89C20D3F89C30FCF730FEBDE8084058
:107C100000F0B8B90044025808B50122534BC3F82C
:107C20000821534BD3F8F42042F00202C3F8F420A9
:107C3000D3F81C2142F00202C3F81C210222D3F81F
:107C40001C314C4BDA605A689104FCD54A4A1A60E0
:107C500001229A60494ADA6000221A614FF44042D8
:107C60009A61444B9A699204FCD51A6842F4807276
:107C70001A603F4B1A6F12F4407F04D04FF48032E9
:107C80001A6700221A671A6842F001021A60384B1C
:107C90001A685007FCD500221A611A6912F03802DE
:107CA000FBD1012119604FF0804159605A67344A75
:107CB000DA62344A1A611A6842F480321A602C4B34
:107CC0001A689103FCD51A6842F480521A601A6847
:107CD0009204FCD52C4A2D499A6200225A631963FA
:107CE00001F57C01DA6301F5E77199635A64284A6A
:107CF0001A64284ADA621A6842F0A8521A601C4BC9
:107D00001A6802F02852B2F1285FF9D148229A612C
:107D10004FF48862DA6140221A621F4ADA641F4A0D
:107D20001A651F4A5A651F4A9A6532231E4A136014
:107D3000136803F00F03022BFAD10D4A136943F0C5
:107D400003031361136903F03803182BFAD14FF0C2
:107D50000050FFF7D5FE4FF08040FFF7D1FE4FF007
:107D60000040BDE80840FFF7CBBE00BF00800051D7
:107D7000004402580048025800C000F00200000110
:107D80000000FF01008890083220600063020901B2
:107D9000470E0508DD0BBF01200000200000011088
:107DA0000910E00000010110002000524FF0B04225
:107DB00008B5D2F8883003F00103C2F8883023B147
:107DC000044A13680BB150689847BDE80840FCF7B7
:107DD000CBBB00BFD08800204FF0B04208B5D2F82E
:107DE000883003F00203C2F8883023B1044A936854
:107DF0000BB1D0689847BDE80840FCF7B5BB00BFA1
:107E0000D08800204FF0B04208B5D2F8883003F097
:107E10000403C2F8883023B1044A13690BB15069D6
:107E20009847BDE80840FCF79FBB00BFD088002002
:107E30004FF0B04208B5D2F8883003F00803C2F81A
:107E4000883023B1044A93690BB1D0699847BDE8E3
:107E50000840FCF789BB00BFD08800204FF0B0423B
:107E600008B5D2F8883003F01003C2F8883023B187
:107E7000044A136A0BB1506A9847BDE80840FCF702
:107E800073BB00BFD08800204FF0B04310B5D3F8CB
:107E9000884004F47872C3F88820A30604D5124AF7
:107EA000936A0BB1D06A9847600604D50E4A136BEB
:107EB0000BB1506B9847210604D50B4A936B0BB15D
:107EC000D06B9847E20504D5074A136C0BB1506C90
:107ED0009847A30504D5044A936C0BB1D06C98471E
:107EE000BDE81040FCF740BBD08800204FF0B04305
:107EF00010B5D3F8884004F47C42C3F888206205AA
:107F000004D5164A136D0BB1506D9847230504D55F
:107F1000124A936D0BB1D06D9847E00404D50F4A17
:107F2000136E0BB1506E9847A10404D50B4A936EA3
:107F30000BB1D06E9847620404D5084A136F0BB199
:107F4000506F9847230404D5044A936F0BB1D06F48
:107F50009847BDE81040FCF707BB00BFD088002061
:107F600008B50348FCF7EAFDBDE80840FCF7FCBA99
:107F70009864002008B5FFF7ADFDBDE80840FCF7A8
:107F8000F3BA0000062108B50846FCF75DFE06219D
:107F90000720FCF759FE06210820FCF755FE0621B4
:107FA0000920FCF751FE06210A20FCF74DFE0621B0
:107FB0001720FCF749FE06212820FCF745FE092181
:107FC0007A20FCF741FE07213220FCF73DFE0C2110
:107FD0005220BDE80840FCF737BE000008B5FFF7A7
:107FE0009FFD00F00DF8FCF7EDFFFDF7C5F9FDF77B
:107FF00097F8FFF743FDBDE80840FFF7DFBA000040
:108000000023054A19460133102BC2E9001102F181
:108010000802F8D1704700BFD08800200B46014607
:10802000184600F001B8000010B5054C13462CB1FD
:108030000A4601460220AFF3008010BD2046FCE74F
:108040000000000010B501390244904201D1002027
:1080500005E0037811F8014FA34201D0181B10BDB1
:108060000130F2E72DE9F041A3B1C91A17780144B4
:10807000044603F1FF3C8C42204601D9002009E070
:108080000578BD4204F10104F5D10CEB0405D618C6
:10809000A54201D1BDE8F08115F8018D16F801ED7A
:1080A000F045F5D0E7E70000034611F8012B03F88F
:1080B000012B002AF9D170476F72672E61726475C7
:1080C00070696C6F742E437562654F72616E67657F
:1080D0002D7065726970680053544D333248373FD4
:1080E0003F3F0053544D3332483733782F3732787F
:1080F0000053544D3332483734332F3735332F370D
:108100003530000001105A000310590001205800BA
:108110000320560040A2E4F1646891060041A3E503
:10812000F26569920700000043414E46444966618A
:1081300063653A204D6573736167652052414D2038
:108140004F766572666C6F77210000004261642093
:1081500043414E496661636520696E6465782E000F
:10816000000100000001FF0000A0004000A400404A
:108170000000000000000000912B0008F12300081F
:1081800021330008612400086D240008B12800088C
:1081900011260008292400082D24000805240008C1
:1081A000ED2300086D28000811240008D9340008C8
:1081B000893400081D2400084128000801040E0528
:1081C000054B02020E05054B04010E05054B05018A
:1081D0000B04044B08010603034600001000024094
:1081E000080002400008024000000B002800024086
:1081F000080002400408024006010C004000024052
:10820000080002400808024010020D005800024019
:10821000080002400C08024016030E0070000240E5
:108220000C0002401008024000040F0088000240C9
:108230000C0002401408024006051000A000024095
:108240000C0002401808024010061100B80002405D
:108250000C0002401C08024016072F0010040240C8
:1082600008040240200802400008380028040240A8
:108270000804024024080240060939004004024074
:108280000804024028080240100A3A00580402403C
:10829000080402402C080240160B3B007004024008
:1082A0000C04024030080240000C3C0088040240EC
:1082B0000C04024034080240060D4400A0040240B1
:1082C0000C04024038080240100E4500B804024079
:1082D0000C0402403C080240160F460000960000C5
:1082E000000000000000000000000000000000008E
:1082F0000000000000000000854F0008714F0008DA
:10830000AD4F0008994F0008A54F0008914F000895
:108310007D4F0008694F0008B94F000800000000B9
:108320009D50000889500008C5500008B150000851
:10833000BD500008A9500008955000088150000861
:10834000D150000800000000010000000000000003
:10835000633000005083000860690020706B0020CB
:108360004172647550696C6F740025424F415244EC
:10837000252D424C002553455249414C2500000013
:108380000200000000000000BD5200082D5300084C
:1083900040004000208400203084002002000000C3
:1083A00000000000030000000000000075530008FA
:1083B00000000000100000004084002000000000C9
:1083C00001000000000000006087002001010200A1
:1083D000C95E0008D95D0008755E0008595E000896
:1083E00043000000E883000809024300020100C0C6
:1083F00032090400000102020100052400100105F9
:10840000240100010424020205240600010705825C
:10841000030800FF09040100020A0000000705012B
:108420000240000007058102400000001200000029
:108430003484000812011001020000400912415763
:1084400000020102030100000403090425424F4118
:1084500052442500303132333435363738394142D1
:1084600043444546000000000001002000FF0100D9
:1084700002000000000000300000040008000000BE
:1084800000000024000008000400000000040000B8
:1084900000FC00000200000000000430008000002A
:1084A000080000000000003800000100010000008A
:1084B00000000000D1540008895700083558000812
:1084C00040004000988800209888002001000000AB
:1084D000A888002080000000400100000800000083
:1084E0000001000000100000080000006D61696ECE
:1084F0000069646C650000000000802A0000000034
:10850000AAAAAAAA00000024FFFF000000000000A1
:1085100000A00A000021000200000000AAAAAAAAE6
:1085200000000000FFFF000000000009000009003B
:108530001400005400000000AAAAAAAA14000054C3
:10854000FFFF000000000000000000000A401000D3
:1085500000000000AAAA8AAA00401000FFFF000045
:1085600099000000000000000081020000000000EF
:10857000AAAAAAAA00410100FFFF000000000070A3
:10858000070000000000000000000000AAAAAAAA3C
:1085900000000000FFFF00000000000000000000DD
:1085A0000000000000000000AAAAAAAA0000000023
:1085B000FFFF0000000000000000000000000000BD
:1085C00000000000AAAAAAAA00000000FFFF000005
:1085D000000000000000000000000000000000009B
:1085E000AAAAAAAA00000000FFFF000000000000E5
:1085F000000000000000000000000000AAAAAAAAD3
:1086000000000000FFFF000000000000000000006C
:108610000000000000000000AAAAAAAA00000000B2
:10862000FFFF00000000000000000000000000004C
:10863000780500000000000000001E00000000009F
:10864000FE2A0100D2040000FF000000786B002029
:108650009864002000000000D88000088304000017
:10866000E380000850040000F1800008009600003C
:108670000000080096000000000800000400000050
:108680004884000800000000000000000000000016
:0C869000000000000000000000000000DE
:00000001FF
