:020000040800F2
:1000000000060020E1020008E3020008E302000805
:10001000E3020008E3020008E3020008E30200082C
:10002000E3020008E3020008E30200089D24000840
:10003000E3020008E3020008E3020008E30200080C
:10004000E3020008E3020008E3020008E3020008FC
:10005000E3020008E3020008BD2D0008E92D0008B6
:10006000152E0008412E00086D2E0008F10F000823
:100070001910000845100008711000089D100008B4
:10008000C5100008F1100008E3020008E3020008B0
:10009000E3020008E3020008E3020008992E0008CA
:1000A000E3020008E3020008E3020008E30200089C
:1000B000E3020008E3020008E3020008E30200088C
:1000C000E3020008E3020008E3020008E30200087C
:1000D000E3020008E3020008E3020008E30200086C
:1000E000FD2E0008E3020008E3020008E302000816
:1000F000E3020008E3020008E30200081D11000803
:10010000E3020008E3020008992F0008E302000858
:10011000E3020008E3020008E3020008E30200082B
:1001200049110008711100089D110008C91100084B
:10013000F5110008E3020008E3020008E3020008EA
:10014000E3020008E3020008E3020008E3020008FB
:100150001D1200084912000875120008E302000889
:10016000E3020008E3020008E3020008E3020008DB
:10017000E3020008E3020008E3020008E3020008CB
:10018000E3020008E3020008712F0008852F000831
:10019000E3020008E3020008E3020008E3020008AB
:1001A000E3020008E3020008E3020008E30200089B
:1001B000E3020008E3020008E3020008E30200088B
:1001C000E3020008E3020008E3020008E30200087B
:1001D000E3020008E3020008E3020008E30200086B
:1001E000E3020008E3020008E3020008E30200085B
:1001F000E3020008E3020008E3020008E30200084B
:10020000E3020008E3020008E3020008E30200083A
:10021000E3020008E3020008E3020008E30200082A
:10022000E3020008E3020008E3020008E30200081A
:10023000E3020008E3020008E3020008E30200080A
:10024000E3020008E3020008E3020008E3020008FA
:10025000E3020008E3020008E3020008E3020008EA
:10026000E3020008E3020008E3020008E3020008DA
:10027000E3020008E3020008E3020008E3020008CA
:10028000E3020008E3020008E3020008E3020008BA
:10029000E3020008E3020008E3020008E3020008AA
:1002A000E3020008E3020008E3020008E30200089A
:1002B000E3020008E3020008E3020008E30200088A
:1002C000E3020008E3020008E3020008E30200087A
:1002D000E3020008E3020008E3020008E30200086A
:1002E00002E000F000F8FEE772B6374880F30888B5
:1002F000364880F3098836483649086040F20000E5
:10030000CCF200004EF63471CEF200010860BFF36B
:100310004F8FBFF36F8F40F20000C0F2F0004EF637
:100320008851CEF200010860BFF34F8FBFF36F8F8B
:100330004FF00000E1EE100A4EF63C71CEF20001E3
:100340000860062080F31488BFF36F8F02F008F96D
:1003500002F002FB4FF055301F491B4A91423CBF4F
:1003600041F8040BFAE71D49184A91423CBF41F895
:10037000040BFAE71A491B4A1B4B9A423EBF51F83D
:10038000040B42F8040BF8E700201849184A914280
:100390003CBF41F8040BFAE702F020F902F062FBDF
:1003A000144C154DAC4203DA54F8041B8847F9E7A6
:1003B00000F042F8114C124DAC4203DA54F8041B21
:1003C0008847F9E702F008B9000600200022002063
:1003D0000000000808ED00E00000002000060020FA
:1003E0007833000800220020302200203022002034
:1003F000C0300020E0020008E0020008E00200082F
:10040000E00200082DE9F04F2DED108AC1F80CD064
:10041000D0F80CD0BDEC108ABDE8F08F002383F338
:1004200011882846A047002001F034FCFEE701F0C7
:10043000C9FB00DFFEE7000038B500F009FC00F062
:1004400061FD01F0C3FF054602F01EF80446C0B985
:100450000E4B9D4217D001339D4242F2107512BFE0
:10046000044600250124002001F0BAFF0CB100F081
:1004700075F800F01FFD284600F0F0F800F06EF867
:10048000F9E70025EFE70546EDE700BF010007B0FB
:1004900008B500F0A9FBA0F120035842584108BD5F
:1004A00007B541F21203022101A8ADF8043000F0B3
:1004B000B9FB03B05DF804FB38B5302383F3118832
:1004C000174803680BB101F0A3FC0023154A4FF451
:1004D0007A71134801F092FC002383F31188124CC7
:1004E000236813B12368013B2360636813B1636819
:1004F000013B63600D4D2B7833B963687BB90220F3
:1005000000F06EFC322363602B78032B07D1636805
:100510002BB9022000F064FC4FF47A73636038BD9D
:1005200030220020B9040008502300204822002077
:10053000084B187003280CD8DFE800F00805020803
:10054000022000F043BC022000F036BC024B002227
:100550005A6070474822002050230020F8B5394BDC
:10056000394A1C46196801316BD004339342F9D1E2
:100570006268364B9A4264D9354B9B6803F100633D
:1005800003F500339A425CD2002000F087FB022082
:10059000FFF7CEFF2F4B00219A6C99641A6F1967F1
:1005A0001A6FDA6CD9645A6F59675A6F1A6D1965E8
:1005B0009A6F99679B6F72B64FF0E023C3F8084DAE
:1005C000D4E90004BFF34F8FBFF36F8F224AC2F804
:1005D0008410BFF34F8F536923F480335361BFF30B
:1005E0004F8FD2F8803043F6E076C3F3C905C3F3EA
:1005F0004E335B0103EA060C29464CEA8177013948
:10060000C2F87472F9D2203B13F1200FF2D1BFF37C
:100610004F8FBFF36F8FBFF34F8FBFF36F8F536950
:1006200023F4003353610023C2F85032BFF34F8FDD
:10063000BFF36F8F302383F31188854680F30888DA
:100640002047F8BD0000020820000208FFFF010853
:10065000002200200045025800ED00E02DE9F04F97
:1006600093B0B44B2022FF2100900AA89D6800F0AF
:10067000CBFBB14A1378A3B90121B04811700360D4
:10068000302383F3118803680BB101F0C1FB002311
:10069000AB4A4FF47A71A94801F0B0FB002383F311
:1006A0001188009B13B1A74B009A1A60A64A1378D1
:1006B000032B03D000231370A24A53604FF0000AAB
:1006C000009CD3465646D146012000F07FFB24B162
:1006D0009C4B1B68002B00F02682002000F084FA5F
:1006E0000390039B002BF2DB012000F065FB039BD2
:1006F000213B1F2BE8D801A252F823F07D07000808
:10070000A507000839080008C9060008C90600083E
:10071000C9060008CB0800089B0A0008B5090008B4
:10072000170A00083F0A0008650A0008C906000801
:10073000770A0008C9060008E90A00081D08000831
:10074000C90600082D0B0008890700081D080008CD
:10075000C9060008170A0008C9060008C9060008EB
:10076000C9060008C9060008C9060008C90600082D
:10077000C9060008C9060008390800080220FFF76A
:1007800087FE002840F0F981009B022105A8BAF1FC
:10079000000F08BF1C4641F21233ADF8143000F0D0
:1007A00041FA91E74FF47A7000F01EFA071EEBDB76
:1007B0000220FFF76DFE0028E6D0013F052F00F272
:1007C000DE81DFE807F0030A0D101336052304214C
:1007D00005A8059300F026FA17E004215548F9E72B
:1007E00004215A48F6E704215948F3E74FF01C0862
:1007F000404608F1040800F053FA0421059005A8CA
:1008000000F010FAB8F12C0FF2D101204FF00009DE
:1008100000FA07F747EA0B0B5FFA8BFB00F040FB8F
:1008200026B10BF00B030B2B08BF0024FFF738FE9B
:100830004AE704214748CDE7002EA5D00BF00B0373
:100840000B2BA1D10220FFF723FE074600289BD0E7
:100850000120002600F022FA0220FFF769FE1FFAAD
:1008600086F8404600F02AFA0446B0B103994046A3
:100870000136A1F140025142514100F02FFA002807
:10088000EDD1BA46044641F21213022105A83E46B4
:10089000ADF8143000F0C6F916E725460120FFF741
:1008A00047FE244B9B68AB4207D9284600F0F8F975
:1008B000013040F067810435F3E70025224BBA464A
:1008C0003E461D701F4B5D60A8E7002E3FF45CAFF5
:1008D0000BF00B030B2B7FF457AF0220FFF728FE22
:1008E000322000F081F9B0F10008FFF64DAF18F0AA
:1008F00003077FF449AF0F4A08EB05039268934260
:100900003FF642AFB8F5807F3FF73EAF124BB84598
:10091000019323DD4FF47A7000F066F90390039A97
:10092000002AFFF631AF039A0137019B03F8012B30
:10093000EDE700BF002200204C23002030220020E1
:10094000B90400085023002048220020042200207F
:10095000082200200C2200204C220020C820FFF793
:1009600097FD074600283FF40FAF1F2D11D8C5F1A2
:1009700020020AAB25F0030084494245184428BFF1
:100980004246019200F036FA019AFF217F4800F0BA
:100990003BFA4FEAA803C8F387027C492846019333
:1009A00000F03AFA064600283FF46DAF019B05EBD4
:1009B000830533E70220FFF76BFD00283FF4E4AE28
:1009C00000F0AAF900283FF4DFAE0027B846704BCC
:1009D0009B68BB4218D91F2F11D80A9B01330ED038
:1009E00027F0030312AA134453F8203C0593404612
:1009F000042205A9043700F0E5FA8046E7E7384607
:100A000000F04EF90590F2E7CDF81480042105A816
:100A100000F008F902E70023642104A8049300F021
:100A2000F7F800287FF4B0AE0220FFF731FD002870
:100A30003FF4AAAE049800F065F90590E6E70023BC
:100A4000642104A8049300F0E3F800287FF49CAE2E
:100A50000220FFF71DFD00283FF496AE049800F039
:100A600053F9EAE70220FFF713FD00283FF48CAEAC
:100A700000F062F9E1E70220FFF70AFD00283FF4E9
:100A800083AE05A9142000F05DF907460421049007
:100A900004A800F0C7F83946B9E7322000F0A4F8FE
:100AA000071EFFF671AEBB077FF46EAE384A07EB48
:100AB0000903926893423FF667AE0220FFF7E8FC15
:100AC00000283FF461AE27F003074F44B9453FF4D7
:100AD000A5AE484609F1040900F0E2F804210590AA
:100AE00005A800F09FF8F1E74FF47A70FFF7D0FC0B
:100AF00000283FF449AE00F00FF9002844D00A9BCB
:100B000001330BD008220AA9002000F085F9002843
:100B10003AD02022FF210AA800F076F9FFF7C0FCA6
:100B20001C4801F0BDF813B0BDE8F08F002E3FF473
:100B30002BAE0BF00B030B2B7FF426AE00236421AE
:100B400005A8059300F064F8074600287FF41CAE62
:100B50000220FFF79DFC804600283FF415AEFFF70A
:100B60009FFC41F2883001F09BF8059800F0B0F945
:100B700046463C4600F094F9A6E506464EE64FF0A0
:100B8000000901E6BA467EE637467CE64C220020A4
:100B900000220020A0860100104B70B51B780C4687
:100BA0000133DBB2012B12D80D4B1D684FF47A7361
:100BB0002968A2FB033222460E6A01462846B04746
:100BC000844204D1074B002201201A7070BD4FF4FB
:100BD000FA7001F065F80020F8E700BF102200204D
:100BE000142200209C230020002307B50246012187
:100BF0000DF107008DF80730FFF7CEFF20B19DF80B
:100C0000070003B05DF804FB4FF0FF30F9E7000088
:100C10000A46042108B5FFF7BFFF80F00100C0B20B
:100C2000404208BD074B0A4630B41978064B53F8CA
:100C30002140014623682046DD69044BAC4630BCA8
:100C4000604700BF9C23002014220020A0860100E2
:100C500070B5104C0025104E01F0E2F9208030688C
:100C6000238883420CD800252088013801F0D4F96C
:100C700023880544013BB5F5802F2380F4D370BD54
:100C800001F0CAF9336805440133B5F5003F33601C
:100C9000E5D3E8E79E2300205823002001F08EBA18
:100CA00000F1006000F500300068704700F100605E
:100CB000920000F5003001F00FBA0000054B1A68F1
:100CC000054B1B889B1A834202D9104401F0A4B93A
:100CD00000207047582300209E23002038B504468A
:100CE000074D29B128682044BDE8384001F0ACB96F
:100CF0002868204401F096F90028F3D038BD00BFE1
:100D0000582300200020704700F1FF5000F58F109D
:100D1000D0F8000870470000064991F8243033B13C
:100D200000230822086A81F82430FFF7BFBF0120A2
:100D3000704700BF5C230020014B1868704700BF5C
:100D40000010005C194B01380322084470B51D687F
:100D5000174BC5F30B042D0C1E88A6420BD15C6803
:100D60000A46013C824213460FD214F9016F4EB17C
:100D700002F8016BF6E7013A03F10803ECD1814276
:100D80000B4602D22C2203F8012B0424094A1688B0
:100D9000AE4204D1984284BF967803F8016B013CBF
:100DA00002F10402F3D1581A70BD00BF0010005CBC
:100DB000182200208C300008022803D1024B4FF08B
:100DC00080629A61704700BF000C0258022803D16C
:100DD000024B4FF480629A61704700BF000C0258CA
:100DE000022804D1024A536983F480635361704737
:100DF000000C0258002310B5934203D0CC5CC454BD
:100E00000133F9E710BD000002440346934202D0CB
:100E100003F8011BFAE770472DE9F8431F4D14460C
:100E20000746884695F8242052BBDFF870909CB3A3
:100E300095F824302BB92022FF2148462F62FFF776
:100E4000E3FF95F824004146C0F1080205EB80005D
:100E5000A24228BF2246D6B29200FFF7CBFF95F8F8
:100E60002430A41B17441E449044E4B2F6B2082E6A
:100E700085F82460DBD1FFF74FFF0028D7D108E0C9
:100E80002B6A03EB82038342CFD0FFF745FF002894
:100E9000CBD10020BDE8F8830120FBE75C230020D4
:100EA000024B1A78024B1A70704700BF9C23002037
:100EB00010220020034B04490B60044B186800F01B
:100EC000C7BD00BF80841E008423002014220020A0
:100ED000094B1822002110B504461846FFF794FF6D
:100EE000064A074B01461278046053F82200BDE819
:100EF000104000F0ADBD00BF842300209C230020E3
:100F000014220020F8B571B6002301201A461946B4
:100F100000F04EFA0446802001F0EEF9002849D096
:100F20000025254A80274FF4D06C3D26136913F025
:100F3000C06F26D1D2F8103113F0C06F21D12368D1
:100F400005F1006199602368D86023685F602368B9
:100F5000C3F800C021680B6843F001030B602168EF
:100F60000B6823F01E030B6021680B68DB07FCD4C1
:100F7000237B8035616806FA03F3B5F5001F0B602B
:100F8000D4D1204600F04AFAB5F5001F11D0002454
:100F90000A4E0B4D012001F011F93388A34205D907
:100FA00028682044013401F04FF8F6E7002001F0F2
:100FB00005F961B6F8BD00BF002000529E23002055
:100FC0005823002030B50A44084D91420DD011F845
:100FD000013B5840082340F30004013B2C4013F030
:100FE000FF0384EA5000F6D1EFE730BD2083B8ED6F
:100FF00008B5074B074A196801F03D01996053682D
:101000000BB190689847BDE8084001F07FBA00BF77
:1010100000000240A023002008B5084B1968890988
:1010200001F03D018A019A60054AD3680BB110694D
:101030009847BDE8084001F069BA00BF00000240CF
:10104000A023002008B5084B1968090C01F03D01E8
:101050000A049A60054A53690BB190699847BDE844
:10106000084001F053BA00BF00000240A023002056
:1010700008B5084B1968890D01F03D018A059A6091
:10108000054AD3690BB1106A9847BDE8084001F0E2
:101090003DBA00BF00000240A023002008B5074B66
:1010A000074A596801F03D01D960536A0BB1906A53
:1010B0009847BDE8084001F029BA00BF000002408F
:1010C000A023002008B5084B5968890901F03D01AB
:1010D0008A01DA60054AD36A0BB1106B9847BDE804
:1010E000084001F013BA00BF00000240A023002016
:1010F00008B5084B5968090C01F03D010A04DA6093
:10110000054A536B0BB1906B9847BDE8084001F05E
:10111000FDB900BF00000240A023002008B5084B25
:101120005968890D01F03D018A05DA60054AD36BE3
:101130000BB1106C9847BDE8084001F0E7B900BF5B
:1011400000000240A023002008B5074B074A196899
:1011500001F03D019960536C0BB1906C9847BDE86C
:10116000084001F0D3B900BF00040240A0230020D2
:1011700008B5084B1968890901F03D018A019A6098
:10118000054AD36C0BB1106D9847BDE8084001F0DB
:10119000BDB900BF00040240A023002008B5084BE1
:1011A0001968090C01F03D010A049A60054A536D63
:1011B0000BB1906D9847BDE8084001F0A7B900BF9A
:1011C00000040240A023002008B5084B1968890DCF
:1011D00001F03D018A059A60054AD36D0BB1106E8E
:1011E0009847BDE8084001F091B900BF00040240F3
:1011F000A023002008B5074B074A596801F03D01BC
:10120000D960536E0BB1906E9847BDE8084001F06D
:101210007DB900BF00040240A023002008B5084BA0
:101220005968890901F03D018A01DA60054AD36EE7
:101230000BB1106F9847BDE8084001F067B900BFD7
:1012400000040240A023002008B5084B5968090C8F
:1012500001F03D010A04DA60054A536F0BB1906F4B
:101260009847BDE8084001F051B900BF00040240B2
:10127000A023002008B5084B5968890D01F03D01F5
:101280008A05DA60054AD36F13B1D2F88000984717
:10129000BDE8084001F03AB900040240A023002054
:1012A00000230C4910B51A460B4C0B6054F8230070
:1012B000026001EB430004334260402BF6D1074A41
:1012C0004FF0FF339360D360C2F80834C2F80C3497
:1012D00010BD00BFA02300209C3000080000024089
:1012E0000F28F8B510D9102810D0112811D01228C5
:1012F00008D10F240720DFF8B4E00126DEF8005003
:10130000A04208D9002649E00446F4E70F24002053
:10131000F1E70724FBE706FA00F73D4240D1214CF4
:101320004FEA001C3D4304EB00160EEBC000CEF864
:101330000050C0E90123FBB24BB11B48836B43F063
:1013400001038363036E43F001030366036E17F426
:101350007F4F09D01448836B43F002038363036E0D
:1013600043F002030366036E54F80C00036823F095
:101370001F030360056815F00105FBD104EB0C03A6
:101380003D2493F80CC05F6804FA0CF43C602124FF
:101390000560446112B1987B00F08EF93046F8BDCB
:1013A0000130ADE79C30000800450258A023002022
:1013B00010B5302484F31188FFF792FF002383F3E4
:1013C000118810BD10B50446807B00F08BF9012315
:1013D0001049627B03FA02F20B6823EA0203DAB2D5
:1013E0000B604AB90C4A916B21F001019163116EB7
:1013F00021F001011166126E13F47F4F09D1064BE3
:101400009A6B22F002029A631A6E22F002021A66A6
:101410001B6E10BDA02300200045025808B53023E4
:1014200083F31188FFF7CEFF002383F3118808BDF3
:10143000026843681143016003B118477047000018
:10144000024A136843F0C0031360704700780040FD
:10145000024A136843F0C00313607047007C0040E9
:1014600037B51A4C1A4D204600F0E6FA04F1140084
:10147000009400234FF40072164900F0A3F94FF4D2
:101480000072154904F138000094144B00F01CFA66
:10149000134BC4E91735134C204600F0CDFA04F184
:1014A000140000234FF400720F49009400F08AF9F1
:1014B0000E4B4FF400720E4904F13800009400F016
:1014C00003FA0C4BC4E9173503B030BD24240020C7
:1014D00000E1F505FC240020FC2800204114000850
:1014E0000078004090240020FC26002051140008C1
:1014F000FC2A0020007C0040037C30B5274C0029EA
:1015000018BF0C46012B0CD1254B984236D1254BE8
:101510009A6C42F080429A641A6F42F080421A67D5
:101520001B6F2268036EC16D03EB52038466B3FB2D
:10153000F2F36268150442BF23F0070503F00703C6
:1015400043EA4503CB60A36843F040034B60E36884
:1015500043F001038B6042F4967343F001030B6088
:101560004FF0FF330B62510505D512F0102211D058
:10157000B2F1805F10D080F8643030BD0A4B9842E1
:10158000CFD1084B9A6C42F000429A641A6F42F035
:101590000042C4E77F23EEE73F23ECE79C310008DD
:1015A0002424002000450258902400202DE9F04713
:1015B000C66D05463768F469210734621AD014F005
:1015C000080118BF4FF48071E20748BF41F02001C5
:1015D000A3074FF0300348BF41F04001600748BF08
:1015E00041F0800183F31188281DFFF721FF0023BC
:1015F00083F31188E2050AD5302383F311884FF471
:101600008061281DFFF714FF002383F311884FF03A
:1016100030094FF0000A14F0200838D13B0616D5E7
:101620004FF0300905F1380A200610D589F31188EA
:10163000504600F07DF9002836DA0821281DFFF712
:10164000F7FE27F080033360002383F311887906C7
:1016500014D5620612D5302383F31188D5E91323FC
:101660009A4208D12B6C33B127F040071021281D76
:10167000FFF7DEFE3760002383F31188E30618D5F9
:10168000AA6E1369ABB15069BDE8F047184789F3FA
:101690001188736A284695F86410194000F0E6F93D
:1016A0008AF31188F469B6E7B06288F31188F469A7
:1016B000BAE7BDE8F0870000090100F160430122AC
:1016C00003F56143C9B283F8001300F01F039A4089
:1016D00043099B0003F1604303F56143C3F8802194
:1016E0001A60704700F01F0301229A40430900F17D
:1016F00060409B0000F5614003F1604303F56143E6
:10170000C3F88020C3F88021002380F8003370479D
:10171000F8B51546826804460B46AA4200D2856891
:10172000A1692669761AB5420BD218462A46FFF7F8
:1017300061FBA3692B44A3612846A3685B1BA360DC
:10174000F8BD0CD9AF1B18463246FFF753FB3A469B
:10175000E1683044FFF74EFBE3683B44EBE7184693
:101760002A46FFF747FBE368E5E7000083689342FA
:10177000F7B50446154600D28568D4E90460361AE8
:10178000B5420BD22A46FFF735FB63692B446361F0
:101790002846A3685B1BA36003B0F0BD0DD9324699
:1017A000AF1B0191FFF726FB01993A46E0683144EF
:1017B000FFF720FBE3683B44E9E72A46FFF71AFB03
:1017C000E368E4E710B50A440024C361029B846027
:1017D000C16002610362C0E90000C0E9051110BDEB
:1017E00008B5D0E90532934201D1826882B9826896
:1017F000013282605A1C426119700021D0E9043222
:101800009A4224BFC368436100F066FA002008BD15
:101810004FF0FF30FBE7000070B5302304460E4662
:1018200083F31188A568A5B1A368A269013BA360F1
:10183000531CA36115782269934224BFE368A36116
:10184000E3690BB120469847002383F311882846AB
:1018500007E03146204600F02FFA0028E2DA85F34F
:10186000118870BD2DE9F74F04460E46174698467D
:10187000D0F81C904FF0300A8AF311884FF0000B1B
:10188000154665B12A4631462046FFF741FF03461B
:1018900060B94146204600F00FFA0028F1D000233D
:1018A00083F31188781B03B0BDE8F08FB9F1000F06
:1018B00003D001902046C847019B8BF31188ED1A95
:1018C0001E448AF31188DCE7C160C361009B82601B
:1018D0000362C0E905111144C0E9000001617047CD
:1018E000F8B504460D461646302383F31188A768E1
:1018F000A7B1A368013BA36063695A1C62611D70B4
:10190000D4E904329A4224BFE3686361E3690BB10E
:1019100020469847002080F3118807E03146204692
:1019200000F0CAF90028E2DA87F31188F8BD000058
:10193000D0E9052310B59A4201D182687AB982684C
:101940000021013282605A1C82611C7803699A422C
:1019500024BFC368836100F0BFF9204610BD4FF07B
:10196000FF30FBE72DE9F74F04460E461746984631
:10197000D0F81C904FF0300A8AF311884FF0000B1A
:10198000154665B12A4631462046FFF7EFFE03466D
:1019900060B94146204600F08FF90028F1D00023BD
:1019A00083F31188781B03B0BDE8F08FB9F1000F05
:1019B00003D001902046C847019B8BF31188ED1A94
:1019C0001E448AF31188DCE7026843681143016012
:1019D00003B11847704700001430FFF743BF000001
:1019E0004FF0FF331430FFF73DBF00003830FFF7F2
:1019F000B9BF00004FF0FF333830FFF7B3BF00002E
:101A00001430FFF709BF00004FF0FF311430FFF72B
:101A100003BF00003830FFF763BF00004FF0FF3214
:101A20003830FFF75DBF0000012914BF6FF01300CD
:101A300000207047FFF714BD044B03600023436090
:101A4000C0E9023301230374704700BFB4310008BA
:101A500010B53023044683F31188FFF74DFD0223B0
:101A60000020237480F3118810BD000038B5C369CD
:101A700004460D461BB904210844FFF7A5FF29467B
:101A800004F11400FFF7ACFE002806DA201D4FF425
:101A90000061BDE83840FFF797BF38BD002382687A
:101AA000037503691B6899689142FBD25A68036009
:101AB00042601060586070470023826803750369B4
:101AC0001B6899689142FBD85A68036042601060B5
:101AD0005860704708B50846302383F311880A7DA3
:101AE0000023052A06D8DFE802F00B050503120ED5
:101AF000826913604FF0FF338361FFF7CFFF00234C
:101B000083F3118808BD8269936801339360D0E93B
:101B1000003213605A60EDE7FFF7C0BF054BD9688C
:101B200008751868026853601A600122D86002754F
:101B3000FEF768BC002D00200C4B30B5DD684B1C57
:101B400087B004460FD02B46094A684600F056F984
:101B50002046FFF7E3FF009B13B1684600F058F9F9
:101B6000A86907B030BDFFF7D9FFF9E7002D0020C5
:101B7000D51A000838B50C4D04468161EB688168C0
:101B80009A68914203D8BDE83840FFF787BF1846EE
:101B9000FFF792FF01230146EC6020462375BDE864
:101BA0003840FEF72FBC00BF002D0020044B1A6800
:101BB000DB6890689B68984294BF002001207047C2
:101BC000002D0020084B10B51C68D86822685360AF
:101BD0001A600122DC602275FFF76EFF0146204685
:101BE000BDE81040FEF70EBC002D002038B50123E3
:101BF000084C00252370656000F05CFD00F082FD5C
:101C00000549064800F014FE0223237085F311886D
:101C100038BD00BF682F0020E0310008002D0020F3
:101C200000F02CB98B600223086108468B82704754
:101C30008368A3F1840243F8142C026943F8442C0E
:101C4000426943F8402C094A43F8242CC268A3F1A6
:101C5000200043F8182C022203F80C2C002203F871
:101C60000B2C034A43F8102C704700BF1D040008DA
:101C7000002D002008B5FFF7DBFFBDE80840FFF7A7
:101C80004BBF0000024BDB6898610F20FFF746BF97
:101C9000002D0020302383F31188FFF7F3BF0000ED
:101CA00008B50146302383F311880820FFF744FF6D
:101CB000002383F3118808BD064BDB6839B1426805
:101CC00018605A60136043600420FFF735BF4FF07F
:101CD000FF307047002D00200368984206D01A6834
:101CE0000260506018469961FFF716BF7047000008
:101CF000036810B59C68A2420CD85C688A600B60CF
:101D00004C602160596099688A1A9A604FF0FF33DD
:101D1000836010BD121B1B68ECE700000A2938BF66
:101D20000A2170B504460D460A26601900F0BCFC75
:101D300000F0A4FC041BA54203D8751C04462E46E3
:101D4000F3E70A2E04D90120BDE8704000F0B0BDD1
:101D500070BD0000F8B5144B0D460A2A4FF00A0773
:101D6000D96103F11001826038BF0A22416019690C
:101D70001446016048601861A81800F085FC00F066
:101D80007DFC431B0646A34206D37C1C281927462C
:101D9000354600F089FCF2E70A2F04D90120BDE89E
:101DA000F84000F085BDF8BD002D0020F8B50646CE
:101DB0000D4600F063FC0F4A134653F8107F9F4214
:101DC00006D12A4601463046BDE8F840FFF7C2BFBB
:101DD000D169BB68441A2C1928BF2C46A34202D9EA
:101DE0002946FFF79BFF224631460348BDE8F840ED
:101DF000FFF77EBF002D0020102D0020C0E9032337
:101E0000002310B45DF8044B4361FFF7CFBF00001F
:101E100010B5194C236998420DD08168D0E9003281
:101E200013605A609A680A449A60002303604FF076
:101E3000FF33A36110BD0268234643F8102F53609F
:101E40000022026022699A4203D1BDE8104000F0EE
:101E500025BC936881680B44936000F00FFC2269F5
:101E6000E1699268441AA242E4D91144BDE81040E5
:101E7000091AFFF753BF00BF002D00202DE9F047DE
:101E8000DFF8BC8008F110072C4ED8F8105000F095
:101E9000F5FBD8F81C40AA68031B9A423ED81444AC
:101EA0004FF00009D5E90032C8F81C4013605A60B1
:101EB000C5F80090D8F81030B34201D100F0EEFB25
:101EC00089F31188D5E9033128469847302383F3F5
:101ED00011886B69002BD8D000F0D0FB6A69A0EBA9
:101EE000040982464A450DD2022000F0E1FC00229E
:101EF000D8F81030B34208D151462846BDE8F04723
:101F0000FFF728BF121A2244F2E712EB090929460B
:101F1000384638BF4A46FFF7EBFEB5E7D8F8103031
:101F2000B34208D01444C8F81C00211AA960BDE8C7
:101F3000F047FFF7F3BEBDE8F08700BF102D00208B
:101F4000002D002000207047FEE7000070470000D1
:101F50004FF0FF3070470000BFF34F8F044B1A69FA
:101F60005107FCD1D3F810215207F8D1704700BFB8
:101F70000020005208B50D4B1B78ABB9FFF7ECFF02
:101F80000B4BDA68D10704D50A4A5A6002F188324D
:101F90005A60D3F80C21D20706D5064AC3F80421AB
:101FA00002F18832C3F8042108BD00BF702F002061
:101FB000002000522301674508B5114B1B78F3B987
:101FC000104B1A69510703D5DA6842F04002DA6013
:101FD000D3F81021520705D5D3F80C2142F0400266
:101FE000C3F80C21FFF7B8FF064BDA6842F0010294
:101FF000DA60D3F80C2142F00102C3F80C2108BDCD
:10200000702F0020002000520F289ABF00F580603A
:1020100040040020704700004FF40030704700007B
:10202000102070470F2808B50BD8FFF7EDFF00F51B
:1020300000330268013204D104308342F9D1012017
:1020400008BD0020FCE700000F2838B505463FD842
:10205000FFF782FF1F4CFFF78DFF4FF0FF3307287C
:102060006361C4F814311DD82361FFF775FF0302C3
:1020700043F02403E360E36843F08003E3602369F3
:102080005A07FCD42846FFF767FFFFF7BDFF4FF460
:10209000003100F0B3F92846FFF78EFFBDE8384065
:1020A000FFF7C0BFC4F81031FFF756FFA0F10803D7
:1020B0001B0243F02403C4F80C31D4F80C3143F074
:1020C0008003C4F80C31D4F810315B07FBD4D9E796
:1020D000002038BD002000522DE9F84F05460C467F
:1020E000104645EA0203DE0602D00020BDE8F88F64
:1020F00020F01F00DFF8BCB0DFF8BCA0FFF73AFF0C
:1021000004EB0008444503D10120FFF755FFEDE73C
:1021100020222946204600F093FF10B920352034B4
:10212000F0E72B4605F120021F68791CDDD104334E
:102130009A42F9D105F178431B481C4EB3F5801F34
:102140001B4B38BF184603F1F80332BFD946D146BE
:102150001E46FFF701FF0760A5EB040C336804F18E
:102160001C0143F002033360231FD9F8007017F0FD
:102170000507FAD153F8042F8B424CF80320F4D111
:10218000BFF34F8FFFF7E8FE4FF0FF3320222146C9
:1021900003602846336823F00203336000F050FFE9
:1021A0000028BBD03846B0E7142100520C20005262
:1021B00014200052102000521021005210B5084C7B
:1021C000237828B11BB9FFF7D5FE0123237010BD7A
:1021D000002BFCD02070BDE81040FFF7EDBE00BF23
:1021E000702F00202DE9F04F0D4685B0814658B183
:1021F00011F00D0614BF2022082211F008030193EC
:1022000004D0431E03426AD0002435E0002E37D0AC
:1022100009F11F0121F01F094FF00108324F05F0AD
:102220000403DFF8D0A005EA080BBBF1000F32D0A1
:102230007869C0072FD408F101080C37B8F1060FF0
:10224000F3D19EB9294D4946A819019200F07CFAB4
:10225000044600283AD11836019A782EF3D149461F
:1022600000F072FA0446002830D1019A494620480D
:1022700000F06AFA044668BB204605B0BDE8F08F5E
:102280000029C9D101462846029200F05DFA0446B1
:10229000E0B9029AC0E713B178694107CBD5AC0722
:1022A00002D578698007C6D5019911B1786901070F
:1022B000C1D51820494600FB08A0CDE9022300F053
:1022C00043FA0446DDE902230028B4D04A4600213F
:1022D000204601E04A460021FEF796FDCCE7024683
:1022E000002E95D198E700BFEC310008A42F002004
:1022F000742F00208C2F00200121FFF773BF0000F6
:10230000F8B5144D01241827134E40F2FF32002176
:102310000120FEF779FD07FB046001342A6955F8B6
:102320000C1F00F0FDF9062CF5D137254FF4C054F1
:102330002046FFF7E1FF014628B122460748BDE8E5
:10234000F84000F0EDB9C4EBC404013D4FEAD404F9
:10235000EED1F8BDEC3100088C2F0020742F002046
:102360000244074BD2B210B5904200D110BD441CBC
:1023700000B253F8200041F8040BE0B2F4E700BFCC
:10238000504000580E4B30B51C6F240405D41C6F10
:102390001C671C6F44F400441C670A4C0244236809
:1023A000D2B243F480732360074B904200D130BD1A
:1023B000441C51F8045B00B243F82050E0B2F4E74B
:1023C00000440258004802585040005807B5012206
:1023D00001A90020FFF7C4FF019803B05DF804FBDA
:1023E00013B50446FFF7F2FFA04205D0012201A970
:1023F00000200194FFF7C6FF02B010BD0144BFF3F7
:102400004F8F064B884204D3BFF34F8FBFF36F8FBC
:102410007047C3F85C022030F4E700BF00ED00E035
:10242000114BDA6952021ED59A69D00704D50F4ABA
:102430009A6002F144329A600B4BDA69D107FCD4FE
:102440001A6A22F480021A629A6942F002029A61C0
:10245000DA69D207FCD49A6942F001029A61024A11
:10246000D369DB07FCD47047002000523B2A1908CF
:10247000034B1A681AB9034AD2F8D0241A6070477D
:102480001C3000200040025808B5FFF7F1FF024B56
:102490001868C0F3806008BD1C300020EFF309838A
:1024A000054968334A6B22F001024A6383F30988C5
:1024B000002383F31188704700EF00E0302080F3A1
:1024C000118862B60D4B0E4AD96821F4E061090407
:1024D000090C0A430B49DA60D3F8FC2042F0807201
:1024E000C3F8FC20084AC2F8B01F116841F001018E
:1024F00011602022DA7783F82200704700ED00E0B7
:102500000003FA0555CEACC5001000E0302310B52D
:1025100083F311880E4B5B6813F4006314D0F1EE63
:10252000103AEFF309844FF08073683CE361094B84
:10253000DB6B236684F30988FFF738FB10B1064B89
:10254000A36110BD054BFBE783F31188F9E700BFDA
:1025500000ED00E000EF00E02F0400083204000866
:1025600070B5BFF34F8FBFF36F8F1A4A0021C2F8C7
:102570005012BFF34F8FBFF36F8F536943F4003393
:102580005361BFF34F8FBFF36F8FC2F88410BFF357
:102590004F8FD2F8803043F6E074C3F3C900C3F321
:1025A0004E335B0103EA0406014646EA81750139B0
:1025B000C2F86052F9D2203B13F1200FF2D1BFF3E1
:1025C0004F8F536943F480335361BFF34F8FBFF391
:1025D0006F8F70BD00ED00E0FEE70000214B224848
:1025E000224A70B5904237D3214BC11EDA1C121A11
:1025F00022F003028B4238BF00220021FEF704FCC8
:102600001C4A0023C2F88430BFF34F8FD2F88030C9
:1026100043F6E074C3F3C900C3F34E335B0103EA2E
:102620000406014646EA81750139C2F86C52F9D2B6
:10263000203B13F1200FF2D1BFF34F8FBFF36F8F09
:10264000BFF34F8FBFF36F8F0023C2F85032BFF339
:102650004F8FBFF36F8F70BD53F8041B40F8041BFE
:10266000C0E700BFA8330008C0300020C030002001
:10267000C030002000ED00E000F018BA014B586AAD
:10268000704700BF000C0040034B002258631A61E2
:102690000222DA60704700BF000C0040014B0022AC
:1026A000DA607047000C0040014B5863704700BF70
:1026B000000C0040024B034A1A60034A5A607047FC
:1026C00020300020C030002000000220074B49428B
:1026D00010B55C68201A08401968821A8A4203D330
:1026E000A24201D85A6010BD0020FCE72030002033
:1026F00008B5302383F31188FFF7E8FF002383F345
:10270000118808BD04480121044B03600023C0E97F
:1027100001330C3000F0D4B828300020F126000836
:10272000CB1D083A23F00703591A521A012110B49D
:10273000D2080024C0E9004384600C301C605A6059
:102740005DF8044B00F0BCB82DE9F84F364ECD1DB6
:102750000F46002818BF0646082A4FEAD50538BF9D
:10276000082206F10C08341D9146404600F0C4F8DA
:1027700009F10701C9F1000E224624686CB94046F0
:1027800000F0C4F83368CBB308224946E800984704
:10279000044698B340E9026730E004EB010CD4F83A
:1027A00004A00CEA0E0C0AF10100ACF1080304EBE2
:1027B000C0009842E0D9A0EB0C0CB5EBEC0F4FEA4F
:1027C000EC0BD9D89C421CD204F10802AB45A3EB18
:1027D00002024FEAE202626009D9691CED432068F7
:1027E00003EBC1025D44556043F8310022601C4692
:1027F0005F60404644F8086B00F088F82046BDE86A
:10280000F88FAA45216802D111602346EFE7013510
:1028100004EBC50344F8351003F10801401AC01059
:1028200058601360F1E700BF28300020FEE7000089
:1028300070B51B4B0025044686B058600E46856275
:102840000163FFF73BFE04F11003A560E562C4E9F4
:1028500004334FF0FF33C4E90044C4E90635FFF701
:102860000DFF2B46024604F134012046C4E908233B
:1028700080230C4A2565FFF7D5F901230A4AE06059
:1028800000920375684672680192B268CDE902232E
:10289000064BCDE90435FFF7EDF906B070BD00BF7A
:1028A000682F002034320008393200082D28000833
:1028B000024AD36A1843D062704700BF002D00203F
:1028C000C0E90000816070478368013B002B10B5B0
:1028D00083600CDA074BDC684368A06120606360AA
:1028E0001C6044600520FFF719F9A06910BD0020A5
:1028F000FCE700BF002D002008B5302383F31188CA
:10290000FFF7E2FF002383F3118808BD08B53023E9
:1029100083F3118883680133002B836007DC03682D
:1029200000211A68026050601846FFF723F900235F
:1029300083F3118808BD00004B6843608B68836097
:10294000CB68C3600B6943614B6903628B69436267
:102950000B6803607047000008B53C4B40F2FF7104
:102960003B48D3F888200A43C3F88820D3F888204E
:1029700022F4FF6222F00702C3F88820D3F88830DF
:10298000344B1A6C0A431A649A6E0A439A66324AA6
:102990009B6E1146FFF7D0FF00F5806002F11C012D
:1029A000FFF7CAFF00F5806002F13801FFF7C4FFAE
:1029B00000F5806002F15401FFF7BEFF00F5806072
:1029C00002F17001FFF7B8FF00F5806002F18C01A1
:1029D000FFF7B2FF00F5806002F1A801FFF7ACFF3E
:1029E00000F5806002F1C401FFF7A6FF00F58060EA
:1029F00002F1E001FFF7A0FF00F5806002F1FC01A9
:102A0000FFF79AFF02F58C7100F58060FFF794FFE5
:102A100000F00EF9114BD3F8902242F00102C3F8F6
:102A20009022D3F8942242F00102C3F894220522A6
:102A3000C3F898204FF06052C3F89C20084AC3F8AE
:102A4000A020BDE80840FFF7EBBC00BF00440258DF
:102A500000000258004502584032000800ED00E036
:102A60001F00080308B500F0CFFAFFF7BFF80C4BC2
:102A7000DA6B42F04002DA635A6E22F040025A6684
:102A80005B6E084B1A6842F008021A601A6842F03E
:102A900004021A60FFF7ECFCBDE80840FFF730BC09
:102AA0000045025800180248704700000E4B9A6C0F
:102AB00042F008029A641A6F42F008021A670B4A41
:102AC0001B6FD36B43F00803D363C722084B9A6292
:102AD0004FF0FF32DA6200229A615A63DA605A607C
:102AE00001225A611A607047004502580010005CCC
:102AF000000C0040094A08B51169D3680B40D9B2EF
:102B00009B076FEA0101116107D5302383F3118818
:102B1000FFF786F8002383F3118808BD000C0040FE
:102B2000044BDA6B0243DA635A6E104358665B6EED
:102B3000704700BF0045025808B53C4B4FF0FF31CD
:102B4000D3F8802062F00042C3F88020D3F88020C0
:102B500002F00042C3F88020D3F88020D3F884200C
:102B6000C3F88410D3F884200022C3F88420D3F85B
:102B70008400D86F40F0FF4040F4FF0040F4DF4095
:102B800040F07F00D867D86F20F0FF4020F4FF00AE
:102B900020F4DF4020F07F00D867D86FD3F888009A
:102BA0006FEA40506FEA5050C3F88800D3F88800AD
:102BB000C0F30A00C3F88800D3F88800D3F8900067
:102BC000C3F89010D3F89000C3F89020D3F8900089
:102BD000D3F89400C3F89410D3F89400C3F8942069
:102BE000D3F89400D3F89800C3F89810D3F898005D
:102BF000C3F89820D3F89800D3F88C00C3F88C1051
:102C0000D3F88C00C3F88C20D3F88C00D3F89C0048
:102C1000C3F89C10D3F89C10C3F89C20D3F89C30C8
:102C2000FEF73EFBBDE8084000F0BEB90044025884
:102C300008B50122504BC3F80821504B5A6D42F0A1
:102C400002025A65DA6F42F00202DA670422DB6F91
:102C50004B4BDA605A689104FCD54A4A1A6001224B
:102C60009A60494ADA6000221A614FF440429A6140
:102C7000434B9A699204FCD51A6842F480721A6038
:102C8000424B1A6F12F4407F04D04FF480321A671F
:102C900000221A671A6842F001021A603B4B1A6858
:102CA0005007FCD500221A611A6912F03802FBD1D4
:102CB000012119604FF0804159605A67344ADA6245
:102CC000344A1A611A6842F480321A602F4B1A682B
:102CD0009103FCD51A6842F480521A601A68920473
:102CE000FCD52D4A2D499A6200225A63196301F5D9
:102CF0007C01DA6301F5E77199635A64284A1A6422
:102D0000284ADA621A6842F0A8521A601F4B1A6801
:102D100002F02852B2F1285FF9D148229A614FF4AB
:102D20008862DA6140221A621F4ADA641F4A1A6511
:102D30001F4A5A651F4A9A6532231F4A1360136857
:102D400003F00F03022BFAD1104A136943F0030377
:102D50001361136903F03803182BFAD14FF00050B8
:102D6000FFF7DEFE4FF08040FFF7DAFE4FF0004045
:102D7000BDE80840FFF7D4BE00800051004502586E
:102D80000048025800C000F004000001004402584E
:102D90000000FF01008890083220600063020901F2
:102DA000470E0508DD0BBF012000002000000110C8
:102DB0000910E00000010110002000524FF0B04265
:102DC00008B5D2F8883003F00103C2F8883023B187
:102DD000044A13680BB150689847BDE80840FFF7F4
:102DE00095BB00BF403000204FF0B04208B5D2F88C
:102DF000883003F00203C2F8883023B1044A936894
:102E00000BB1D0689847BDE80840FFF77FBB00BF13
:102E1000403000204FF0B04208B5D2F8883003F0BF
:102E20000403C2F8883023B1044A13690BB1506916
:102E30009847BDE80840FFF769BB00BF403000205D
:102E40004FF0B04208B5D2F8883003F00803C2F85A
:102E5000883023B1044A93690BB1D0699847BDE823
:102E60000840FFF753BB00BF403000204FF0B04296
:102E700008B5D2F8883003F01003C2F8883023B1C7
:102E8000044A136A0BB1506A9847BDE80840FFF73F
:102E90003DBB00BF403000204FF0B04310B5D3F829
:102EA000884004F47872C3F88820A30604D5124A37
:102EB000936A0BB1D06A9847600604D50E4A136B2B
:102EC0000BB1506B9847210604D50B4A936B0BB19D
:102ED000D06B9847E20504D5074A136C0BB1506CD0
:102EE0009847A30504D5044A936C0BB1D06C98475E
:102EF000BDE81040FFF70ABB403000204FF0B04360
:102F000010B5D3F8884004F47C42C3F888206205E9
:102F100004D5164A136D0BB1506D9847230504D59F
:102F2000124A936D0BB1D06D9847E00404D50F4A57
:102F3000136E0BB1506E9847A10404D50B4A936EE3
:102F40000BB1D06E9847620404D5084A136F0BB1D9
:102F5000506F9847230404D5044A936F0BB1D06F88
:102F60009847BDE81040FFF7D1BA00BF40300020BD
:102F700008B50348FEF71AFBBDE80840FFF7C6BADC
:102F80002424002008B50348FEF710FBBDE80840E4
:102F9000FFF7BCBA9024002008B5FFF7ABFDBDE8F1
:102FA0000840FFF7B3BA0000062108B50846FEF74F
:102FB00083FB06210720FEF77FFB06210820FEF792
:102FC0007BFB06210920FEF777FB06210A20FEF78E
:102FD00073FB06211720FEF76FFB06212820FEF762
:102FE0006BFB09217A20FEF767FB07213220FEF7F1
:102FF00063FB0C215220FEF75FFB0C215320BDE840
:103000000840FEF759BB000008B5FFF795FD00F03A
:1030100009F8FEF70FFDFFF747FDBDE80840FFF791
:103020002BBB00000023054A19460133102BC2E9CF
:10303000001102F10802F8D1704700BF40300020B3
:1030400010B501390244904201D1002005E0037817
:1030500011F8014FA34201D0181B10BD0130F2E757
:1030600053544D333248373F3F3F0053544D333272
:10307000483733782F3732780053544D333248373E
:1030800034332F3735332F373530000001105A00D5
:103090000310590001205800032056001000024080
:1030A000080002400008024000000B002800024017
:1030B000080002400408024006010C0040000240E3
:1030C000080002400808024010020D0058000240AB
:1030D000080002400C08024016030E007000024077
:1030E0000C0002401008024000040F00880002405B
:1030F0000C0002401408024006051000A000024027
:103100000C0002401808024010061100B8000240EE
:103110000C0002401C08024016072F001004024059
:103120000804024020080240000838002804024039
:103130000804024024080240060939004004024005
:103140000804024028080240100A3A0058040240CD
:10315000080402402C080240160B3B007004024099
:103160000C04024030080240000C3C00880402407D
:103170000C04024034080240060D4400A004024042
:103180000C04024038080240100E4500B80402400A
:103190000C0402403C080240160F46000096000056
:1031A000000000000000000000000000000000001F
:1031B0000000000000000000F5190008E1190008F7
:1031C0001D1A0008091A0008151A0008011A00083B
:1031D000ED190008D9190008291A00086330000009
:1031E000DC310008582D0020682F0020000000204E
:1031F0000000020002000000000000300000040097
:103200000800000000000024000008000400000086
:103210000004000000FC0000020000000000043078
:1032200000800000080000000000003800000100DD
:10323000010000006D61696E0069646C650000004A
:103240000000002800000000AAAAAAAA000000248A
:10325000FFFF000000000000000000000000000070
:1032600000000000AAAAAAAA00000000FFFF0000B8
:10327000000000000000000000000000000000004E
:10328000AAAAAAAA00000000FFFF00000000000098
:10329000000000000000100000000000AAAAAAAA76
:1032A00000000000FFFF0000000000000000000020
:1032B0000A80020000000000AAAAAAAA0540010094
:1032C000FFFF000088000070070000000000000001
:1032D00000000000AAAAAAAA00000000FFFF000048
:1032E00000000000000000000000000000000000DE
:1032F000AAAAAAAA00000000FFFF00000000000028
:10330000000000000000000000000000AAAAAAAA15
:1033100000000000FFFF00000000000000000000AF
:103320000000000000000000AAAAAAAA00000000F5
:10333000FFFF00000000000000000000000000008F
:1033400000000000AAAAAAAA00000000FFFF0000D7
:10335000000000000000000000000000000000006D
:10336000AAAAAAAA00000000FFFF000000000000B7
:1033700000000000000000002E040000000000001B
:1033800000001A0000000000FF00000024240020BC
:103390000000000060300008830400006B3000086B
:0833A000500400007930000820
:00000001FF
