:020000040800F2
:1000000000090020B10100089923000851230008CD
:10001000792300085123000871230008B301000868
:10002000B3010008B3010008B3010008353400082B
:10003000B3010008B3010008B3010008FD41000846
:10004000B3010008B3010008B3010008B3010008C0
:10005000B3010008B3010008E13E00080D3F0008AD
:10006000393F0008653F0008913F0008B3010008D0
:10007000B3010008B3010008B3010008B301000890
:10008000B3010008B3010008B3010008052300080C
:100090003123000841230008B3010008BD3F0008D8
:1000A000B3010008B3010008B3010008B301000860
:1000B000B3010008B3010008B3010008B301000850
:1000C000B3010008B3010008B3010008B301000840
:1000D000B3010008ED43000801440008B301000823
:1000E00025400008B3010008B3010008B30100086F
:1000F000B3010008B3010008B3010008B301000810
:10010000B3010008B3010008B3010008B3010008FF
:10011000B3010008B3010008B3010008B3010008EF
:10012000B3010008B3010008B3010008B3010008DF
:10013000B3010008B3010008B3010008B3010008CF
:10014000B3010008B3010008B3010008B3010008BF
:10015000B3010008B3010008B3010008B3010008AF
:10016000B3010008B3010008B3010008B30100089F
:10017000B3010008B3010008B3010008B30100088F
:10018000B3010008B3010008B3010008B30100087F
:10019000B3010008B3010008B3010008B30100086F
:1001A000150F000800000000000000000000000023
:1001B00002E000F000F8FEE772B6374880F30888E6
:1001C000364880F3098836483649086040F2000016
:1001D000CCF200004EF63471CEF200010860BFF39D
:1001E0004F8FBFF36F8F40F20000C0F2F0004EF669
:1001F0008851CEF200010860BFF34F8FBFF36F8FBD
:100200004FF00000E1EE100A4EF63C71CEF2000114
:100210000860062080F31488BFF36F8F03F014FD8D
:1002200003F088FD4FF055301F491B4A91423CBFF7
:1002300041F8040BFAE71D49184A91423CBF41F8C6
:10024000040BFAE71A491B4A1B4B9A423EBF51F86E
:10025000040B42F8040BF8E700201849184A9142B1
:100260003CBF41F8040BFAE703F0F2FC03F09EFDFB
:10027000144C154DAC4203DA54F8041B8847F9E7D7
:1002800000F042F8114C124DAC4203DA54F8041B52
:100290008847F9E703F0DABC0009002000110020CC
:1002A0000000000808ED00E0000100200009002027
:1002B00010490008001100207C110020801100204E
:1002C0005C3C0020A0010008A4010008A401000873
:1002D000A40100082DE9F04F2DED108AC1F80CD0D3
:1002E000C3689D46BDEC108ABDE8F08F002383F300
:1002F00011882846A047002003F000FAFEE703F02B
:1003000089F900DFFEE70000F8B500F015FE03F004
:100310003FFC074603F08EFC064600283ED12B4BDF
:100320009F423BD001339F423BD0294B27F0FF0235
:100330009A4239D1F8B200F039FC354642F21074D5
:1003400000F03AFC08B10024254601F0E9F878B342
:10035000032000F043F80024254636B11D4B9F4290
:1003600003D003F05FFC00242546002003F01AFCB4
:10037000194B1B6913F040031FD00DB100F044F876
:1003800000F04EFC02F010F80546C4B102F00CF883
:10039000401BA04213D900F037F8F3E7354600249C
:1003A000CEE704460125CBE705464FF47A74C7E74C
:1003B000B4F57A7F08BF0125CFE71C46E0E700F0DF
:1003C00077FC012003F0A0F9DFE700BF010007B0D0
:1003D000000008B0263A09B000040048084B187025
:1003E00003280CD8DFE800F008050208022000F01E
:1003F000FFBD022000F0F4BD024B00225A6070479E
:10040000801100208411002038B501F089F830B146
:100410001F4B03221A701F4B00225A6038BD1E4B1F
:100420001E4A19680131F9D004339342F9D11C4CAA
:10043000194DD4F80428AA42F0D31A4B9B6803F153
:10044000006303F5D0439A42E8D203F0BFFB03F008
:10045000D1FB002000F08AFD0220FFF7BFFF124B06
:10046000DA690022DA61D96999699A619B6972B681
:100470004FF0E0233021C3F8085DD4F80038D4F8F9
:10048000042881F311889D4683F308881047C5E747
:1004900080110020841100200068000820680008F6
:1004A000006000080011002000100240094A136893
:1004B00049F2690099B21B0C00FB01331360064B33
:1004C000186844F2506182B2000C01FB020018600F
:1004D00080B27047141100201011002010B50021C7
:1004E0001022044600F09EFD034B03CB20606160A8
:1004F0001868A06010BD00BFACF7FF1FF0B5ADF5E8
:100500004F7D6CAC4FF4C47207460D462046002167
:1005100000F088FD01F048FF244B4FF47A72B0FBE5
:10052000F2F0186093E80700022384E807000DF555
:10053000E9702382FFF7D2FF4EF603431C49238460
:1005400006A804F019F9192384F832310DF2E322D8
:1005500006AB0DF1300C1E4603CE664510605160AF
:10056000334602F10802F6D1337813700DAE3146EE
:100570000122204600F0A2FD00230393AB7E0293EC
:1005800005F11903019380B20123CDE904600093C2
:10059000E97E04A3D3E90023384602F01BFB0DF5E6
:1005A0004F7DF0BD9E6AC421818A46EE8C110020E9
:1005B000884700082DE9F0412C4C237ADAB08046B8
:1005C0000D465BBB27A9284600F09EFE0746002883
:1005D00042D19DF89D60C82E3ED801464FF4A662D8
:1005E000204600F01FFD4FF48073C4F8F8314FF43B
:1005F0000073C4F80C334FF44073C4F8203432460F
:100600000DF19E0104F1090000F0FAFC26449DF86A
:100610009C30777223720BB9EB7E2372812200210A
:1006200006AC27A800F0FEFC0122214627A800F016
:10063000B1FE00230393AB7E029305F1190380B250
:1006400001932823CDE904400093E97E05A3D3E973
:100650000023404602F0BEFA5AB0BDE8F08100BF68
:10066000AFF3008026417272DF25D7B7D421002076
:10067000F0B5254E4FF48A7505FB0065F1B096F88C
:10068000D83085F8DC300024D822214685F8E840AF
:100690003AA800F0C7FC06F1090000F0BBFCD5F851
:1006A000E4308DF8F000C2B206AF06F109010DF199
:1006B000F100CDE93A3400F0A3FC394601223AA812
:1006C00000F09EFE80B2CDE9047008230127CDE939
:1006D000023706F1D803019330230093317A0B4897
:1006E00007A3D3E9002302F075FAA04206DD01F06A
:1006F0005BFEC5F8E000384671B0F0BD2046FBE770
:1007000078F6339F93CACD8DD4210020A4210020F8
:100710002DE9F0411D4D1E4E1E4F86B0284602F0B9
:1007200085FA034658B30024CDE90344ADF81440DC
:10073000027B8DF8142099684068029403AA03C2D2
:100740001B68DFF8548043F00043029301F02EFE53
:10075000821941F10003009402A9384601F0C4F85F
:10076000A04205DD284602F065FA88F80040D5E78A
:1007700098F80030072B05D8013388F8003006B010
:10078000BDE8F081014802F055FAF8E7A421002005
:1007900040420F00102700200927002070B50D46A9
:1007A00014461E4602F072F950B9022E10D1012CE7
:1007B0000ED112A3D3E90023C5E90023012007E0ED
:1007C000282C10D005D8012C09D0052C0FD00020E2
:1007D00070BD302CFBD10BA3D3E90023ECE70BA3B6
:1007E000D3E90023E8E70BA3D3E90023E4E70BA355
:1007F000D3E90023E0E700BFAFF30080401DA12054
:1008000026812A0B78F6339F93CACD8D9E6AC42128
:10081000818A46EE26417272DF25D7B7F017304A3B
:1008200039059E5638B505460E4C0021013500F0BD
:10083000BFFBA4F82C55B4F82C0500F0A1FB78B14F
:10084000B4F82C0500F0ACFB014648B9B4F82C050F
:1008500000F0AEFBB4F82C350133A4F82C35EAE7F0
:1008600038BD00BFD421002010B50A4B0A4A1A60D7
:1008700003F5805393F870203AB9DC6E2CB1204612
:1008800000F0C8FE204601F005F8BDE8104003481E
:1008900000F0C0BE10270020E047000868370020A5
:1008A0002DE9F04F8FB000AF05460C4602F0EEF890
:1008B00000284BD1237E022B1BD1E38A012B18D1B8
:1008C00001F072FD0646FFF7F1FD03464FF4C870D4
:1008D000DFF8D482B3FBF0F206F5167602FB103394
:1008E00016FA83F3C8F80030E37E33B9A74B002231
:1008F0001A703C37BD46BDE8F08F07F12401204651
:1009000000F0B6FC0028F4D107F11400FFF7E6FD73
:1009100097F8264007F11401224607F1270003F05B
:10092000F9FE0028E2D10F2C08D8984B1C70D8F89B
:100930000030A3F51673C8F80030DAE797F82410F2
:100940000029D6D0284602F099F8D2E7E38A282B6E
:1009500033D010D8012B2BD0052BCAD1BFF34F8F2A
:100960008B498C4BCA6802F4E0621343CB60BFF33F
:100970004F8F00BFFDE7302BBBD1874EE17E327A2F
:100980009142B6D1607E3146002291F8DC5085421A
:1009900000F0AD800132042A01F58A71F5D1326888
:1009A00040F6B831FA328A4294BF32603160A0E733
:1009B00021462846FFF7A2FD9BE721462846FFF780
:1009C000F9FD96E7B2F8EC507B6005F103094FEAB8
:1009D00099094FEA8902D11DC908A8EBC1039D46B8
:1009E000EB460021584600F01DFB04F1EE012A46BB
:1009F0003144584600F004FB7B6813B9012000F035
:100A0000B5FA96F8D20000F0BBFA044630B930725D
:100A100000F0D6FA204600F0A9FAB0E0D6F8D420CB
:100A20003AB996F8D200B6F82C25824201D8FFF7E1
:100A3000F9FED6F8D4202A44944208D296F8D2007F
:100A4000B6F82C250130824201D8FFF7EBFE706822
:100A50005FFA89F2594600F0EDFA08B9C54679E027
:100A6000726896F8D2002A447260D6F8D42005EB5A
:100A70000209C6F8D49000F083FA814509D396F8AC
:100A8000D220D6F8D4000132001B86F8D220C6F856
:100A9000D400FF2D0FD80024347200F091FA2046C4
:100AA00000F064FA00F03CFD3C4B188108B9FFF7F8
:100AB000ABFCC5461DE7BB6896F8D9000AFB03628C
:100AC000FB68D2F8E41082F8E83001F58061C2F8E2
:100AD000E030C2F8E410FFF7CBFDFFF719FE96F8FF
:100AE000D920013202F0030286F8D920B6E74FF48C
:100AF0008A7A0AFB02F505F1EA013144204600F04A
:100B0000B3FCF86000287FF4F4AE3544012285F888
:100B1000E82001F049FCD5F8E020D6ED007ADFEDC1
:100B2000206A801A192838BF192040F6B83290423E
:100B300028BF1046B8EE677A07EE900AF8EEE77A1B
:100B400067EEA67ADFED176AE7EE267AFCEEE77A23
:100B5000C6ED007A96F8D9307168BB600AFB03F4E1
:100B6000321992F8E8505DB1D2F8E4308B42E84691
:100B70003FF428AF002182F8E810C2F8E010C54623
:100B80007368064A9B0A01331381B2E69D21002057
:100B900000ED00E00400FA05D42100208C110020B3
:100BA000CDCCCC3D6666663FA0210020014B18707D
:100BB000704700BF9811002038B54FF00054144B17
:100BC00022689A4221D1607DF0B1124B124918700F
:100BD0001248237D03724FF48073C0F8F8314FF44C
:100BE0000073C0F80C3300254FF44073C0F8203474
:100BF000C0F8E450C922093000F002FAE022294688
:100C0000204600F00FFA012038BD0020FCE700BFAD
:100C10009AAD44C59811002016000020D421002070
:100C200037B500F07DFC194D1949288102230122B6
:100C300018486B7101F052FA00230193164B1749C3
:100C400000931748174B4FF4805201F0EFFE164BFC
:100C5000197811B1124801F011FF01F0A5FB04460B
:100C6000FFF724FC4FF4C873B0FBF3F202FB13034D
:100C700004F5167010FA83F00C4B186002F0DAFFDE
:100C800008B10F232B8103B030BD00BF8C110020B1
:100C900040420F00102700209D0700089C110020F3
:100CA000A4210020A108000898110020A021002004
:100CB0002DE9F04F2DED028B8EA7D7E900670FF2DB
:100CC0003C29D9E90089864C95B00DAD9FED828B0A
:100CD000FFF71EFDDFF82CB200230C93ADF83C307B
:100CE0000D936B6000230DF125028DED008B4FF00D
:100CF000010A09A958468DF825308DF824A001F085
:100D00009BF99DF824200023002A40F0AB80204668
:100D100001F0BCFE0546002847D1DFF8ECB101F038
:100D200043FBDBF8003098423FD301F03DFB0790D6
:100D3000FFF7BCFB079A4FF4C873B0FBF3F101FB5C
:100D4000130302F5167010FA83F0CBF80000DFF8F9
:100D5000BCB19BF800100791002914BF2B465346E5
:100D600010A88DF83030FFF7B9FB0799C1F11002D8
:100D7000D2B2062A10AB28BF062219440DF1310069
:100D8000079200F03DF9079A0CAB039318230293E6
:100D90000132544BD2B2CDE900A304923B46324615
:100DA000204601F0B9FE8BF8005001F0FDFA4E4AE2
:100DB0004E4D1368C31AB3F57A7F32D3106001F039
:100DC000F5FA02460B46204601F03EFF204601F0B0
:100DD0005DFE30B32B7ADFF838A1002B14BF03235C
:100DE00002238AF8053001F0DFFA0DF1400B4FF4D1
:100DF0007A730122B0FBF3F05946CAF8000050465E
:100E000000F00EFA18230293394B019380B240F29E
:100E10005513CDE903B0009342464B46204601F0FE
:100E20007BFE2B7ACBB101F0BFFA4FF0000A83466C
:100E30004FF48A7295F8D900504400F0030002FB89
:100E4000005393F8E81089B30AF1010ABAF1040FCC
:100E5000F0D12B7A002B7FF438AF15B0BDEC028BAC
:100E6000BDE8F08F4FF0904110A84A6982F010025F
:100E70004A611946102200F0D5F80DF126030AAA9E
:100E80000CA9584600F036FE95E8030011AB83E844
:100E900003009DF83C308DF84C300C9B109310A94A
:100EA000DDE90A23204602F0A3F81BE7D3F8E0109F
:100EB00049B12B68FA2B38BFFA23ABEB010105339C
:100EC000B1EB430FC0D3FFF7D3FB4FF48A72002876
:100ED000BAD1BEE7AFF300800000000000000000C0
:100EE000A42100209C21002004270020D4210020E0
:100EF00008270020401DA12026812A0BF1C6A7C18A
:100F0000D068080F10270020A02100209D2100207C
:100F10008C11002008B5054800F08AFEBDE80840A5
:100F2000034A0449002003F0D1BB00BF1027002072
:100F3000303800206908000870B502F0BDFC094E89
:100F4000094D3080002428683388834208D902F094
:100F5000AFFC2B6804440133B4F5D04F2B60F2D3BF
:100F600070BD00BF24380020F837002002F030BDEB
:100F700000F10060920000F5D04002F0D7BC000004
:100F8000054B1A68054B1B889B1A834202D91044F3
:100F900002F08EBC00207047F83700202438002073
:100FA000024B1B68184402F089BC00BFF8370020D0
:100FB000024B1B68184402F093BC00BFF8370020B6
:100FC000064991F8243033B10023086A81F82430AF
:100FD0000822FFF7CDBF0120704700BFFC3700207B
:100FE000022802BF4FF0904310229A617047000020
:100FF000022802BF4FF090434FF480129A6170476D
:1010000010B50023934203D0CC5CC4540133F9E7FC
:1010100010BD000003460246D01A12F9011B002938
:10102000FAD1704702440346934202D003F8011BF1
:10103000FAE770472DE9F8431F4D144695F8242030
:101040000746884652BBDFF870909CB395F8243071
:101050002BB92022FF2148462F62FFF7E3FF95F8C6
:101060002400C0F10802A24228BF2246D6B241465F
:10107000920005EB8000FFF7C3FF95F82430A41B16
:101080001E44F6B2082E17449044E4B285F824605A
:10109000DBD1FFF795FF0028D7D108E02B6A03EBDF
:1010A00082038342CFD0FFF78BFF0028CBD10020F3
:1010B000BDE8F8830120FBE7FC3700202DE9F3476A
:1010C0000D46044600219046284640F27912FFF76B
:1010D000A9FF234620220021284601F02BFF231DD3
:1010E00002222021284601F025FF631D0322222130
:1010F000284601F01FFFA31D03222521284601F0E9
:1011000019FF04F1080310222821284601F012FFDC
:1011100004F1100308223821284601F00BFF04F1E6
:10112000110308224021284601F004FF04F11203B4
:1011300008224821284601F0FDFE04F11403202274
:101140005021284601F0F6FE04F1180340227021D8
:10115000284601F0EFFE04F120030822B0212846C2
:1011600001F0E8FE04F121030822B821284601F02D
:10117000E1FE04F12207C0263B46314608222846FC
:10118000083601F0D7FEB6F5A07F07F10107F3D1CD
:1011900094F832308DF8073031460DF107030822FC
:1011A000284601F0C7FE002604F1330A9DF80730F7
:1011B0004FEAC6099E4209F5A47720D394F832314C
:1011C000502B28BF50238DF80730B8F1000F08D1FD
:1011D00039460DF107030722284601F0ABFE09F25C
:1011E0004F17002604F233149DF807309E4207EB98
:1011F000C6010DD30731C80802B0BDE8F0870AEB7D
:10120000060308223946284601F094FE0136CDE750
:10121000A3190822284601F08DFE0136E4E70000FC
:1012200013B504460846002101602346C0F80310A8
:101230002022019001F07EFE0198231D0222202130
:1012400001F078FE0198631D0322222101F072FE55
:101250000198A31D0322252101F06CFE019804F1E1
:1012600008031022282101F065FE072002B010BDFE
:10127000F7B5047F05460E462CB1838A122B02D99E
:10128000012003B0F0BD002319460722009628462E
:1012900001F014FD731C009301220023072128464E
:1012A00001F00CFDD4B9B31C00930522234608219C
:1012B000284601F003FD0D24B378102BE0D8374603
:1012C000B278BB1B934210D32B7FA88A0734E40863
:1012D000B3B9844294BF00200120D2E7AB8ADB007F
:1012E000083BDB08B3700824E6E7FB1C00932146AB
:1012F00000230822284601F0E1FC08340137DFE72B
:10130000201A18BF0120BCE7F7B5047F05460E463A
:101310002CB1838ACA2B02D9012003B0F0BD00236F
:10132000194600960822284601F0C8FC731CD4B95F
:101330000822009311462346284601F0BFFC1024E2
:101340007378C82BE8D8012372785F1C013B934265
:1013500010D32B7FA88A0734E408B3B9844294BF22
:1013600000200120D9E7AB8ADB00083BDB08737063
:101370000824E5E7F31900932146002308222846B4
:1013800001F09CFC08343B46DEE7201A18BF012020
:10139000C3E70000F7B50D4604460021164628466F
:1013A0008122FFF73FFE234608220021284601F054
:1013B000C1FD94F901206378002AB8BF7F238DF81E
:1013C00007309EB90DF1070307220821284601F0D6
:1013D000B1FD0F27002602349DF807309E4207EB2F
:1013E000C60105D30731C80803B0F0BD0827F1E7EF
:1013F000A3190822284601F09DFD0136ECE7000004
:10140000F7B50E460546002114463046CE22FFF7BA
:1014100009FE2B4628220021304601F08BFD2B7A55
:10142000C82B28BFC8238DF807308CB90DF10703EE
:1014300008222821304601F07DFD30242F469DF8FA
:1014400007207B1B934205D3E01DC00803B0F0BD0D
:101450002824F3E707F1090321460822304601F06A
:1014600069FD08340137EAE7F7B5047F05460E4603
:1014700034B1838AB3F5827F02D9012003B0F0BD75
:101480000096012310220021284601F017FCDCB948
:10149000B31C0093092223461021284601F00EFCBC
:1014A00019247388B3F5807FE7D837467288BB1B51
:1014B000934210D32B7FA88A0734E408B3B984423F
:1014C00094BF00200120D9E7AB8ADB00103BDB088A
:1014D00073801024E5E73B1D00932146002308227A
:1014E000284601F0EBFB08340137DFE7201A18BF6C
:1014F0000120C3E730B5094D0A4491420DD011F8DF
:10150000013B5840082340F30004013B2C4013F0FA
:10151000FF0384EA5000F6D1EFE730BD2083B8ED39
:10152000F7B5364A106851686B4603C36A463449BA
:101530003448082303F0FEF8044690BB0A25324ADB
:10154000106851686B4603C36A4630492D4808232A
:1015500003F0F0F80446002847D00369B3F5663F6E
:1015600043D8B0F86620B2F57B7F3ED1284A0244CA
:1015700002F15C018B4238D35C3B224900209E1A69
:10158000FFF7B8FF3246074604F164010020FFF779
:10159000B1FFA3689F4228D1E368984208BF0025A5
:1015A00023E00369B3F5663F26D8428BB2F57B7F13
:1015B00020D1174A024402F110018B4218D3103B8C
:1015C000104900209D1AFFF795FF2A46064604F1B0
:1015D00018010020FFF78EFFA3689E4202D1E36846
:1015E000984201D00D25AAE70025284603B0F0BD9A
:1015F0001025A4E70C25A2E70B25A0E7A4470008C7
:10160000DC97030000680008AD47000890970300CE
:101610000898FFF710B5037C044613B9006803F07F
:1016200071F8204610BD00000023BFF35B8FC3603C
:10163000BFF35B8FBFF35B8F8360BFF35B8F70473C
:10164000BFF35B8F0068BFF35B8F704770B50546D3
:101650000C30FFF7F5FF05F1080604463046FFF7AA
:10166000EFFFA04206D930466D68FFF7E9FF254439
:10167000281A70BD3046FFF7E3FF201AF9E7000093
:1016800070B50546406898B105F10800FFF7D8FF2E
:1016900005F10C0604463046FFF7D2FF844230467F
:1016A00094BF6D680025FFF7CBFF013C2C44201A46
:1016B00070BD000038B50C460546FFF7C7FFA042D5
:1016C00010D305F10800FFF7BBFF04446868B4FBC2
:1016D000F0F100FB1144BFF35B8F0120AC60BFF35E
:1016E0005B8F38BD0020FCE72DE9F041144607462A
:1016F0000D46FFF7C5FF844228BF0446D4B1B84663
:1017000058F80C6B4046FFF79BFF3044286040467A
:101710007E68FFF795FF331A9C4203D86C60012066
:10172000BDE8F0816B60A41B3B68AB602044E860BF
:101730000220F5E72046F3E738B50C460546FFF7EB
:101740009FFFA04210D305F10C00FFF779FF04447E
:101750006868B4FBF0F100FB1144BFF35B8F01201C
:10176000EC60BFF35B8F38BD0020FCE72DE9FF4143
:10177000884669460746FFF7B7FF6C4606B204EB9A
:10178000C6060025B44209D06268206808EB05014E
:10179000FFF736FC636808341D44F3E729463846F2
:1017A000FFF7CAFF284604B0BDE8F081F8B505464A
:1017B0000C300F46FFF744FF05F10806044630469B
:1017C000FFF73EFFA042304688BF6C68FFF738FF46
:1017D000201A386020B130462C68FFF731FF2044D2
:1017E000F8BD000073B5144606460D46FFF72EFF00
:1017F000844228BF04460190DCB101A93046FFF7BE
:10180000D5FF019B33B93268C5E90233C5E900242D
:1018100001200CE09C4238BF019428600198686068
:101820008442F5D93368AB60241AEC60022002B020
:1018300070BD2046FBE700002DE9FF410F466946D9
:10184000FFF7D0FF6C4600B204EBC0050026AC42A7
:1018500009D0D4F8048054F8081BB8194246FFF7A1
:10186000CFFB4644F3E7304604B0BDE8F08100000A
:1018700038B50546FFF7E0FF044601462846FFF766
:1018800019FF204638BD00000121884238BF0846B4
:1018900002F022BF08B102F035BF704710B40268F1
:1018A00054681A4623465DF8044B184700207047D9
:1018B0000020704770470000002070470E207047DE
:1018C00000F5805090F8D800C0F340007047000049
:1018D00000F5805090F9E0007047000000F580505E
:1018E000C0F8DC1001207047F7B50C68BDF8207017
:1018F00014F0005473D10D7B082D70D8302585F37A
:101900001188456AAE6876010CD4AC68240108D40D
:10191000AC6814F0805460D184F31188204603B081
:10192000F0BD01240E6804F1180C002EB8BFF600BB
:101930004FEA0C1CB4BF46F00406760545F80C606F
:101940000E680FFA84FC16F0804F18BF05EB0C1ED2
:1019500005EB0C1C1EBFDEF8806146F00206CEF8D7
:1019600080610E7BCCF8846105EB04158E68C5F8A8
:101970008C614E68C5F88861DCF8805145F001053E
:10198000CCF8805141F2780500EB441C660105EB70
:101990004414AC440444CCE900230D46083401F15E
:1019A0000C0C55F804EB44F804EB6545F9D12D888F
:1019B0002580841904F5805407F0030594F8946099
:1019C00026F00B06354384F89450002484F31188E4
:1019D000009700F033FD0120A1E70224A2E74FF0B9
:1019E000FF309CE713B500F580540191E06EFFF7DE
:1019F00047FE1F280AD90199E06E2022FFF7B6FEA4
:101A0000A0F120035842584102B010BD0020FBE76E
:101A100008B5302383F3118800F58050C06EFFF7BE
:101A200003FE002383F3118808BD0000002202603A
:101A3000828142608260704710B500220023C0E9B5
:101A400000230023044603810C30FFF7EFFF2046FC
:101A500010BD0000F0B5054600F580500C4690F82A
:101A6000D83013F0040FC3F3800108BF114661F3AF
:101A7000820380F8D83005EB441303F58453103308
:101A800089B01B79D8074FEA44162FD582B31907BE
:101A90002ED46846FFF7D0FF05EB441303F58453BB
:101AA00003AA03F1080718685968144603C40833E9
:101AB000BB422246F7D1186820609B88A380DDE9ED
:101AC0000E23CDE900230123ADF808302B686946C9
:101AD0001B6C28469847354405F5845510352B79FD
:101AE0001A075CBF43F008032B7101E0002AF2D112
:101AF00009B0F0BD2DE9F0479A4688B00746884600
:101B00009146302383F3118807F580546846FFF728
:101B100093FFE06EFFF79AFD1F282AD9E06E20227E
:101B20006946FFF7A5FE202823D103AD444605AB47
:101B30002E4603CE9E4220606160354604F10804C3
:101B4000F6D130682060B388A380DDE90023C9E9BD
:101B50000023BDF80830AAF80030002383F3118871
:101B600053464A464146384608B0BDE8F04700F0C3
:101B700029BC002080F3118808B0BDE8F087000080
:101B80002DE9F84F182204460F4604300021FFF7D4
:101B900049FA2046234B40F8283BFFF747FF04F162
:101BA0003800FFF749FF04F1580804F5825546460E
:101BB000183530462036FFF73FFFAE42F9D104F525
:101BC00080554FF480534FF00009C5E91739C5F827
:101BD00058800123EE6604F5875804F58456C5F84D
:101BE000649085F8683085F87030183608F1180868
:101BF0004FF0000A4FF0000B46E908ABA6F11800C1
:101C0000FFF714FF203646F8289C4645F4D185F8A6
:101C1000E07017B1044800F0C1FB044B636220463A
:101C2000BDE8F88FE0470008B847000800640040AE
:101C300010B5044B197804464A1C1A70FFF7A0FF30
:101C4000204610BD2C3800202DE9F047002950D047
:101C5000294B2A4FB7FBF1F599428CBF0A23112378
:101C6000581EB5FBF3FC03FB1C53C4B22BB1022876
:101C70000346F5D80020BDE8F0870CF1FF36B6F535
:101C8000806FF7D2C4EBC40E0EF103034FEAE309F1
:101C9000C3F3C703A4EB030809F1010A4FF47A75F3
:101CA0005FFA88F009FB05555AFA88F8B5FBF8F594
:101CB000B5F5617FC1BF0EF1FF33C3F3C703E01A6F
:101CC000C0B25C1C50FA84F40CFB04F4B7FBF4F4CF
:101CD000A142CFD1013BDBB20F2BCBD80138C0B230
:101CE0000728C7D80021107116809170D370012089
:101CF000C1E70846BFE700BF3F420F000051250281
:101D000070B505460E464FF47A746B6A5B6803F053
:101D10000103B3424FF0010004D001F0F5FC013C97
:101D2000F3D1204670BD000070B5426A936913F08C
:101D3000700F17D000230C4D936141F2900400EB1B
:101D40004312224411794E0709D5890707D5416A04
:101D500055F823608E60117941F00401117101334F
:101D6000032BECD170BD00BFCC47000873B51D46F6
:101D7000436A16469A68D207044609D59A68012133
:101D80009960C2F34002CDE900650021FFF762FED1
:101D9000636A9A68D1050BD59A684FF4807199608F
:101DA000C2F34022CDE9006501212046FFF752FE33
:101DB000636A9A68D2030BD59A684FF480319960B0
:101DC000C2F34042CDE9006502212046FFF742FE02
:101DD00004F58053D3F8DC0010B103681B69984701
:101DE000204602B0BDE87040FFF79EBFF8B504463C
:101DF000466A002977D106F10C073868800775D04C
:101E000006EB01153868D5F8B00110F0040FD5F8CD
:101E1000B0011ABFC00840F00040400DA062D5F8E4
:101E2000B0C11CF0020F1CBF40F08040A062D5F88A
:101E3000B40106EB011100F00F0084F83400D1F872
:101E4000B80184F82C00D1F8B801000A84F82D00FC
:101E5000D1F8B801000C84F82E00D1F8B801000EBA
:101E600084F82F00D1F8BC0184F83000D1F8BC010F
:101E7000000A84F83100D1F8BC01000C84F832006B
:101E8000D1F8BC11090E84F833103821396004F1FF
:101E9000440004F1280104F1340551F8046B40F8C2
:101EA000046BA942F9D109880180C4E90E232146B7
:101EB0000023A4F8403051F8383B20461B6C98476B
:101EC00004F5805393F8D820D3F8DC0042F00402E4
:101ED00083F8D82010B103681B6998472046BDE8F5
:101EE000F840FFF721BF06F1100786E7F8BD0000B4
:101EF00010B5044600F05AFA02460B4652EA0301B6
:101F000002D0013A63F100030449086820B1214678
:101F1000BDE81040FFF76ABF10BD00BF28380020A1
:101F2000F0B5302181F31188DFF848E000F58351E6
:101F30001831002441F2900C00EB441565442E79D1
:101F400077070ED4F6060CD5D1E9007697429E416C
:101F500007D2466A5EF82470B7602E7946F0040610
:101F60002E710134032C01F12001E5D1002383F30C
:101F70001188F0BDCC47000808B5302383F31188E1
:101F8000FFF7D2FE002383F3118808BD2DE9F0414D
:101F9000436A0446986800F0E050B0F1E05F0E46F6
:101FA00022D0F8B1302383F31188002504F584573B
:101FB00041F2900804EB451343441B791A0706D5F8
:101FC0000135032D07F12007F4D1012007E05B075D
:101FD000F6D43946304600F083FA0028F0D10023C9
:101FE00083F31188BDE8F0810120FBE708B53023B9
:101FF00083F3118800F58050C06EFFF727FB0023A4
:1020000083F3118843090CBF0120002008BD0000A4
:10201000F8B51D46002313700F4606461446FFF719
:10202000E5FF80F00100387025B129463046FFF702
:10203000ADFF2070F8BD00002DE9B8410C461546F3
:102040001F46804600F0B2F90B462178024609B9D6
:10205000287850B14046FFF763FFFFF78DFF3B46FE
:102060002A462146FFF7D4FF0120BDE8B8810000D1
:1020700070B5302686F31188174BDA6942F000728A
:10208000DA611A6942F000721A611A6922F000726C
:102090001A61002383F3118800F5805494F8D83036
:1020A00013F0010516D1A9B186F31188032113207D
:1020B00001F01EFA0321142001F01AFA0321152061
:1020C00001F016FA94F8D83043F0010384F8D830C0
:1020D00085F3118870BD00BF001002402DE9F04764
:1020E00000F5805588B095F8E030012B044688460D
:1020F000164600F28280824F57F823200AB947F82B
:102100002300D7F800A0C4F81C8084F82060BAF13E
:10211000000F64D095F8E030012B70D001212046EB
:10212000FFF7A6FF302383F31188626A136823F058
:1021300002031360626A136843F001031360636A69
:1021400000275F6187F3118801212046FFF7D8FD42
:10215000002800F09580E86EFFF766FA04F58359D1
:10216000BA4609F11809202200216846FEF75AFFF5
:1021700002A8FFF75BFCCDF818A06A4609EB07033D
:102180000DF1180E9446BCE80300F4451860596040
:10219000624603F10803F5D1DCF80000186020372F
:1021A0009CF804201A71602FDDD195F8D8306FF3B8
:1021B0008203002785F8D8306A4641462046ADF8AC
:1021C0000070ADF802708DF80470FFF73DFD636A92
:1021D00048BB4FF400421A6008B0BDE8F08741F2F6
:1021E000E800FFF751FB814610B15146FFF7C8FCEC
:1021F000C7F80090B9F1000F8CD10020ECE73868E7
:1022000003681B6B98470146002887D13868FFF7A1
:102210002FFF3868036832465B68414698470028BC
:102220007FF47CAFE9E761221A609DF802309DF8E7
:1022300003201B06120402F4702203F040731343C0
:10224000BDF80020C2F3090213439DF804201205D3
:10225000022E02F4E0020CBF4FF0004100211343B4
:10226000626A0B43D361636A13225A61626A13681C
:1022700023F00103136039462046FFF741FD08B9FA
:10228000636AA6E795F8E03093BB616AD1F8002253
:1022900042F00102C1F80022616AD1F8002222F462
:1022A0007C5222F00E02C1F80022616AD1F80022AD
:1022B00042F46062C1F80022626AC2F81432626AB3
:1022C000C2F80432626A41F6FF71C2F80C12626A07
:1022D000C2F84032626AC2F84432636A0122C3F82B
:1022E0001C22626AD2F8003223F00103C2F80032E5
:1022F00095F8D83043F0020385F8D8306CE700BF7A
:102300002838002008B500F051F850EA01030246D1
:1023100002D0421E61F10001044B186810B10B4657
:10232000FFF724FDBDE8084001F0B8B828380020C8
:1023300008B50020FFF7DCFDBDE8084001F0AEB8AD
:1023400008B50120FFF7D4FDBDE8084001F0A6B8AC
:1023500000B59BB0EFF3098168226846FEF750FE96
:10236000EFF30583014B9B6BFEE700BF00ED00E040
:1023700008B5FFF7EDFF000000B59BB0EFF3098152
:1023800068226846FEF73CFEEFF30583014B5B6B6A
:10239000FEE700BF00ED00E0FEE700000FB408B567
:1023A000029801F061F9FEE701F090BB01F03CBB3F
:1023B0000139C9B202299EBF00EBC1000023C0E968
:1023C00001337047F8B51B885B0705460E4615D4E8
:1023D000044600F11807BC4210D0636853B12B6863
:1023E0002846DB6B9847A368C1B2324660689847BD
:1023F0000834F0E7A368002BF1D1F9E70120F8BD1C
:1024000073B56C4684E80600014600224E68D5B2DA
:102410006EB98E685EB900EBC200021D94E803003D
:10242000013582E803001D70012002B070BD013249
:10243000032A01F10801E9D10020F6E72DE9F04F68
:1024400089B00446BDF848700E46054600F11808EC
:102450004FF0000907F004074FF0000A4FF0000B9F
:10246000A84538D06B680BB9AB684BB157B9236836
:102470002046DB6B9847AB68C1B232466868984724
:102480000835EDE7B9F1000FFAD1CDE900ABADF8B1
:102490000890334603AA06F1080E18685968944656
:1024A000ACE80300083373456246F6D11868CCF8EF
:1024B00000009B88ACF80430FFF778FF0423ADF8E8
:1024C00008302368CDE900011B6C69462046984717
:1024D0004FF00109D4E7012009B0BDE8F08F0000FA
:1024E00030B503680968DD0FB5EBD17F23F0604498
:1024F00021F060424FEAD1700BD0002BB8BFA40C82
:102500000029B8BF920C944202D034BF01200020B1
:1025100030BD944205D1C1F38070C3F38073834210
:10252000F6D194422CBF00200120F1E72DE9F041C3
:10253000456A15B94162BDE8F0814B6823F06047F8
:10254000C3F38A464FEAD37EC3F3807816EA2306A4
:1025500038BF3E46AC462B465A68BEEBD27F22F0CF
:1025600060440AD0002A18DAA40CB44217D19D4264
:102570000FD10D60DEE71346EEE7A74207D102F068
:102580008044C2F3807242450BD054B1EFE708D2C9
:10259000EDE7CCF800100B60CDE7B44201D0B442B7
:1025A000E5D81A689C46002AE5D11960C3E7000007
:1025B0002DE9F047089D01F007044FEAD5082244B1
:1025C00005F0070500EBD1004FF47F49944201D19B
:1025D000BDE8F08704F0070705F0070A57453E46B7
:1025E00038BF5646C6F10806111B8E4228BF0E465C
:1025F000E10808EBD50E415C13F80EC0B94029FA8A
:1026000006F721FA0AF1FFB28CEA010147FA0AF74C
:1026100039408CEA010C03F80EC034443544D5E748
:1026200080EA0120082341F2210201B24000002982
:1026300080B203F1FF33B8BF504013F0FF03F4D171
:102640007047000038B50C468D18A54200D138BD42
:1026500014F8011BFFF7E4FFF7E7000042684AB1F6
:10266000136843604389818901339BB29942438156
:1026700038BF83811046704770B588B02022044669
:102680000D4668460021FEF7CDFC20460495FFF775
:10269000E5FF024658B16B46054608AE1C4603CC22
:1026A000B44228606960234605F10805F6D110465A
:1026B00008B070BD082817D909280CD00A280CD0FA
:1026C0000B280CD00C280CD00D280CD00E2814BFD1
:1026D0004020302070470C20704710207047142095
:1026E000704718207047202070470000082817D92D
:1026F0000C280CD910280CD914280CD918280CD95E
:1027000020280CD930288CBF0F200E2070470920BC
:1027100070470A2070470B2070470C2070470D202F
:10272000704700002DE9F843078C072F04461ED997
:10273000D0E9029800254FF6FF73C5F12006A5F1F8
:10274000200029FA05F108FA06F628FA00F03143CC
:102750000143C9B21846FFF763FF0835402D034611
:10276000EBD1E1693A46BDE8F843FFF76BBF4FF69E
:10277000FF70BDE8F883000010B54B6823B9CA8A22
:1027800063F30902CA8210BD04691A681C60036100
:10279000C38A013BC3824A60EFE700002DE9F84F8E
:1027A0001D46CB8A0F46C3F309010529814692468F
:1027B0000B4630D00020AAB207F11A049EB2042EB4
:1027C0001FFA80F80FD8904503F1010306D3FB8A66
:1027D0000A4462F30903FB8201201AE01AF8006040
:1027E000E6540130EAE79045F1D2A1F1050B1C2334
:1027F0007C68BBFBF3F203FB12BB1FFA8BF6002CC9
:1028000045D14846FFF72AFF044638B978606FF093
:102810000200BDE8F88F4FF00008E6E700260660EA
:102820007860ADB24FF0000B454510D90AEB0803B4
:10283000221D13F8011B9155B1B208F101081B29A3
:102840001FFA88F82BD0454506F10106F1D8FB8A1E
:10285000C3F30902154465F30903BCE7013292B2E0
:102860001C462368002BF9D16B1F0B441C21B3FBC2
:10287000F1F301339BB29A42D3D2BBF1000FD0D116
:102880004846FFF7EBFE20B9C4F800B0BFE70122CD
:10289000E7E7C0F800B05E4620600446C1E7454562
:1028A000D5D94846FFF7DAFE08B92060AFE7C0F88F
:1028B00000B0002620600446B6E700002DE9F04F86
:1028C0002DED028B1C4683B05B690192074688465A
:1028D000002B00F0A780238C2BB1E269002A00F0C6
:1028E000A180072B35D807F10C00FFF7B7FE05468E
:1028F00038B96FF00205284603B0BDEC028BBDE885
:10290000F08F14220021FEF78DFB228CE16905F186
:102910000800FEF775FB208C013080B2FFF7E6FE61
:10292000FFF7C8FE013880B2208401302874636943
:10293000228C1B782A4403F01F0363F03F0348F006
:1029400000411372384669602946FFF7EFFD012503
:10295000D1E702339BB20722C18A0633B3FBF2F3FD
:10296000828A521A9BB292B29342C2D800F10C03EF
:102970004FF0000908EE103A4FF0800A4E464D46DF
:1029800018EE100AFFF76AFE83460028B1D0142221
:102990000021FEF747FB002E3AD1019BABF808302F
:1029A00002220BF1080E1FFA82FC0CF10100BCF1AF
:1029B000060F218C80B201D88E422BD3FFF796FEF2
:1029C000FFF778FE62691278013802F01F028E422A
:1029D00008BF4FF0400A42EA49121BFA80F14AEA66
:1029E000020A013048F0004281F808A08BF810007C
:1029F000CBF8042059463846FFF798FD238C013563
:102A0000B3422DB289F001094FF0000AB8D172E744
:102A10000022C6E7E169895D0EF802100136B6B200
:102A20000132C0E76FF0010565E70000F8B5154613
:102A30000E463022002104461F46FEF7F3FA069B9D
:102A40006360B5F5001F079BA76034BF6A094FF6A6
:102A5000FF72A36297B2E66104F1100000239A426C
:102A600006D800230360A782E3822383E360F8BDD6
:102A70000660013330462036F1E7000003781BB9C9
:102A80004BB2002BC8BF0170704700000078704740
:102A9000F8B50C46C969074611B9238C002B37D10C
:102AA000257E1F2D34D8387828BB228C072A2CD8B5
:102AB000268A36F003032BD14FF6FF70FFF7C2FDD5
:102AC00020F001003102400441EA0561400C41EA76
:102AD00040254FF6FF72234629463846FFF7EEFEA3
:102AE000002807DD626913780133DBB21F2B88BF32
:102AF00000231370F8BD218A2D0645EA0125054300
:102B00002046FFF70FFE0246E5E76FF00300F1E70E
:102B10006FF00100EEE7000070B58AB0044616467B
:102B20000021282268461D46FEF77CFABDF83830A1
:102B3000ADF810300F9B05939DF840308DF818309C
:102B4000119B07936946BDF84830ADF82030204608
:102B5000CDE90265FFF79CFF0AB070BD2DE9F04199
:102B6000D36905460C4616460BB9138C5BBB377E02
:102B70001F2F28D895F80080B8F1000F26D03046D6
:102B8000FFF7D0FD3378210241EAC33141EA080161
:102B9000338A41EA076141EA03410246334641F084
:102BA00080012846FFF78AFE00280ADD3378012BD2
:102BB00007D1726913780133DBB21F2B88BF002362
:102BC0001370BDE8F0816FF00100FAE76FF00300C9
:102BD000F7E70000F0B58BB004460D46174600211C
:102BE000282268461E46FEF71DFA9DF84C305A1EF4
:102BF000534253418DF800309DF84030ADF810300D
:102C0000119B05939DF848308DF81830149B07935D
:102C10006A46BDF85430ADF8203029462046CDE94B
:102C20000276FFF79BFF0BB0F0BD0000406A00B1D9
:102C300004307047436A1A68426202691A6003618D
:102C4000C38A013BC38270472DE9F041D0F8208050
:102C5000194E14461D464146002709B9BDE8F081CA
:102C6000D1E90223A21A65EB0303964277EB030333
:102C70001ED2036A8B420DD1FFF77EFD036A1B68EB
:102C8000036203690B60C38A0161016A013BC3826D
:102C90008846E2E7FFF770FD0B68C8F8003003696B
:102CA0000B60C38A0161013BC382D8F80010D4E7EE
:102CB00088460968D1E700BF80841E002DE9F04FE7
:102CC0008BB00D46DDF8509014469B468046002898
:102CD00000F01981B9F1000F00F01581531E3F2B50
:102CE00000F21181012A03D1BBF1000F40F00B81EA
:102CF0000023CDE90833B8F81430B5EBC30F4FEA21
:102D0000C30703D300200BB0BDE8F08F2B199F42FF
:102D1000D8F80C303ABF7F1BFFB227461BB9D8F852
:102D20001030002B7AD0272D4ED8C5F12806B74297
:102D30004FF000032CBFF6B23E4600932946D8F868
:102D4000080008AB3246FFF733FCA7EB060A354410
:102D50005FFA8AFAB8F8143003F10053053BDB0040
:102D60000493D8F80C3003932821039B13B1BAF1D4
:102D7000000F2CD1D8F8100040B1BAF1000F05D0E7
:102D8000009608AB5246691AFFF712FC38B2002FC2
:102D9000B8D066070AD00AAB03EBD401624211F83F
:102DA000083C02F00702134101F8083C082C3CD90A
:102DB000102C40F2B580202C40F2B780BBF1000F00
:102DC00000F09C80082334E0BA460026C2E7049B4A
:102DD000E02B28BFE02306930B44AB42059314D9A4
:102DE0005A1B03980096924534BF5246D2B2691AD4
:102DF00008AB04300792FFF7DBFB079A1644AAEBF7
:102E0000020A1544F6B25FFA8AFA049B069A0599FB
:102E10009B1A0493039B1B680393A6E70093D8F8BF
:102E2000080008AB3A462946AEE7BBF1000F13D0C5
:102E30000123B4EBC30F6CD0082C12D89DF82030BE
:102E4000621E23FA02F2D50706D54FF0FF3202FACE
:102E500004F423438DF820309DF8203089F80030A9
:102E600051E7102C12D8BDF82030621E23FA02F26E
:102E7000D10706D54FF0FF3202FA04F42343ADF830
:102E80002030BDF82030A9F800303CE7202C0FD8C6
:102E90000899631E21FA03F3DA0705D54FF0FF32D4
:102EA00002FA04F40C430894089BC9F800302AE79E
:102EB000402C2BD0DDE90865611EC4F12102A4F18C
:102EC000210326FA01F105FA02F225FA03F3114370
:102ED0001943CB0712D50122A4F12003C4F120012C
:102EE00002FA03F322FA01F1A240524243EA01033B
:102EF00063EB430332432B43CDE90823DDE9082389
:102F0000C9E90023FFE66FF00100FCE66FF008005E
:102F1000F9E6082CA0D9102CB3D9202CEED8C3E7A1
:102F2000BBF1000FADD0022383E7BBF1000FBBD094
:102F300004237EE730B5012A144638BF0124402C13
:102F400085B028BF40240025012ACDE9025518D8B4
:102F50001B788DF8083063070AD004AB03EBD40567
:102F6000624215F8083C02F00702934005F8083C5D
:102F7000009103462246002102A8FFF719FB05B085
:102F800030BD082AE4D9102A03D81B88ADF80830D0
:102F9000E1E7202A8DBFD3E900231B680293CDE926
:102FA0000223D8E710B5CB681BB98B600B618B820D
:102FB00010BD04691A681C600361C38A013BC382A7
:102FC000CA60F0E703064CBFC0F3C0300220704770
:102FD00008B50246FFF7F6FF022806D15306C2F3F2
:102FE0000F2001D100F0030008BDC2F30740FBE74A
:102FF0002DE9F04F93B0CDE903230A68044610464B
:10300000FFF7E0FF022814BFC2F306260026002ABD
:103010000D46824680F2F78112F0C04940F0F381FC
:10302000097B002900F0EF81022803D02378B34206
:1030300040F0EC81C2F304630693104602F07F0374
:103040000593FFF7C5FF059B29444FEA834848EAEB
:103050000A4848EA4668CE7800230022CDE90823D2
:10306000F309834648EA0008029367D0059B009362
:1030700002466768534608A92046B847002800F072
:10308000C881276A4FB9414604F10C00FFF7F4FAF2
:10309000074690B96FF0020054E03B6998450DD0A7
:1030A0003F68002FF9D1414604F10C00FFF7E4FA24
:1030B00007460028EED0236A3B60276297F817C0C6
:1030C00006F01F08CCF3840CACEB08001FFA80FE5E
:1030D0000028B8BF0EF12000A8EB0C031FFA83FEF6
:1030E000D7E90221B8BF00B2002B0793BEBF0EF193
:1030F00020031BB2079352EA010338D0039BDFF889
:1031000024E39A1A049B4FF0000C63EB01019645EF
:103110007CEB01032BD36B7B97F81AE0734519D135
:10312000029B002B78D0012821DC7868F8B9DFF801
:10313000F0C2944570EB010316D337E0276A27B934
:103140006FF00C0013B0BDE8F08F3B699845B5D027
:103150003F68F4E7B24890427CEB010301D30020C2
:10316000F0E7029B002BFAD0079B0F2B17DCFA7DB0
:10317000B30002F0030203F07C031343FB753946EE
:103180002046FFF7F9FA6B7BBB76029B3BB9FB7DD0
:10319000C3F38402013262F38603FB75D0E76A7BD6
:1031A000BB7E9A42DBD1029B002B35D0B309022BA8
:1031B00032D0039BBB60049BFB60142200210DA84E
:1031C000FDF730FF039B0A93049B0B932B1D0C937D
:1031D0002B7BADF83EB0013BDBB2ADF83C30069B3B
:1031E0008DF84230059B8DF8433094F82C308DF8E3
:1031F00040A083F001038DF844308DF84180A3682E
:103200000AA920469847FB7DC3F38403013303F0EA
:103210001F039B02FB82A2E7FB7DC6F34012B2EBC9
:10322000D31F40F0F980C3F38403434540F0FC8092
:10323000029A2B7BB609002A52D016F0010661D102
:10324000032B40F2F480039BBB60049BFB60FB8A72
:1032500066F30903FB822B7BAE1D033BDBB23246D8
:10326000394604F10C00FFF799FA00280CDA3946C8
:103270002046FFF781FAFB7DC3F38403013303F09B
:103280001F039B02FB8205E7DDE90884AB883B83D3
:103290004FF6FF73C9F12000A9F1200228FA09F1C5
:1032A00004FA00F0014324FA02F211431846C9B2AD
:1032B000FFF7B6F909F10809B9F1400F0346E9D162
:1032C000B8822A7B033AD2B23146FFF7BBF9FB7DC5
:1032D000B882DA43C2F3C01262F3C713FB753EE74C
:1032E00086B92E1D013BDBB23246394604F10C0093
:1032F000FFF754FA0028BADB2A7BB88A013AD2B227
:103300003146E2E7F98AC1F30901013B0429DAB247
:103310005BD8281D002307F11B069A4208D910F834
:1033200001CB06F801C0013101330529DBB2F4D12C
:1033300003990A9104990B91934207F11B010C9197
:1033400038BF043379680D9134BF55FA83F30023F5
:103350000E93FB8AADF83EB0C3F309031A44069BF3
:103360008DF84230059B8DF8433094F82C30ADF841
:103370003C2083F001038DF8443000238DF840A0F9
:103380008DF841807B602A7BB88A013A291DFFF7BE
:1033900059F93B8BB882834203D1A3680AA920461E
:1033A000984720460AA9FFF7FDFDFB7DBA8AC3F3C3
:1033B0008403013303F01F039B02FB823B8B9A4281
:1033C0000CBF00206FF01000BCE67B68002BAFD074
:1033D000052001E01C3033461E68002EFAD1091A80
:1033E000081D2E1D184401EB090CBCF11B0F5FFAE0
:1033F00089F39DD89A429BD916F8013B00F8013B0E
:1034000009F10109EFE76FF009009BE66FF00A0090
:1034100098E66FF00B0095E66FF00D0092E600BFA6
:1034200040420F0080841E006FF00E008AE66FF0AD
:103430000F0087E6EFF3098305494A6B22F001028A
:103440004A63683383F30988002383F31188704744
:1034500000EF00E0302080F3118862B60C4B0D4A7B
:10346000D96821F4E0610904090C0A43DA60D3F851
:10347000FC20094942F08072C3F8FC200A6842F03F
:1034800001020A602022DA7783F82200704700BF29
:1034900000ED00E00003FA05001000E010B5302355
:1034A00083F311880E4B5B6813F4006314D0F1EEC4
:1034B000103AEFF30984683C4FF08073E361094BE5
:1034C000DB6B236684F3098800F098F810B1064B93
:1034D000A36110BD054BFBE783F31188F9E700BF3B
:1034E00000ED00E000EF00E0FF020008020300082A
:1034F00000F1604303F561430901C9B283F8001389
:10350000012200F01F039A4043099B0003F160432E
:1035100003F56143C3F880211A60704700F16040F1
:10352000090100F56D40C9B20176704700230375AB
:10353000826803691B6899689142FBD25A680360EC
:103540004260106058607047002303758268036909
:103550001B6899689142FBD85A680360426010600A
:103560005860704708B50846302383F311880B7DF7
:10357000032B05D0042B0DD02BB983F3118808BD84
:103580008B6900221A604FF0FF338361FFF7CEFF93
:103590000023F2E7D1E9003213605A60F3E700003C
:1035A000FFF7C4BF054BD9680875186802681A6030
:1035B000536001220275D860FCF78CBE38380020B9
:1035C00030B50C4BDD684B1C87B004460FD02B4642
:1035D000094A684600F0D8F82046FFF7E3FF009B51
:1035E00013B1684600F0DAF8A86907B030BDFFF7FC
:1035F000D9FFF9E73838002065350008044B1A6810
:10360000DB6890689B68984294BF00200120704757
:1036100038380020084B10B51C68D86822681A603A
:10362000536001222275DC60FFF78EFF01462046C1
:10363000BDE81040FCF74EBE3838002038B5074CC6
:1036400007490848012300252370656000F020FB2E
:103650000223237085F3118838BD00BF603A002033
:10366000284800083838002008B572B6044B1865A1
:1036700000F0C2F900F0A8FA024B03221A70FEE72C
:1036800038380020603A002000F09AB88B6002239E
:1036900008618B82084670478368A3F1840243F86F
:1036A000142C026943F8442C426943F8402C094A1F
:1036B00043F8242CC26843F8182C022203F80C2C7F
:1036C000002203F80B2C044A43F8102CA3F120002D
:1036D000704700BFED0200083838002008B5FFF73A
:1036E000DBFFBDE80840FFF75BBF0000024BDB6873
:1036F00098610F20FFF756BF38380020302383F33E
:103700001188FFF7F3BF000008B50146302383F3AB
:1037100011880820FFF754FF002383F3118808BDA8
:10372000064BDB6839B1426818605A601360436029
:103730000420FFF745BF4FF0FF30704738380020B6
:103740000368984206D01A68026050609961184672
:10375000FFF726BF7047000010B50A4C23699A682E
:1037600091420CD85A6881600360426010609A6888
:103770005860511A99604FF0FF33A36110BD1B6868
:10378000891AECE73838002010B4C0E9032300237D
:103790005DF8044B4361FFF7DFBF000003688168F9
:1037A0009A680A449A60426813605A600023036072
:1037B000024B4FF0FF329A61704700BF383800204B
:1037C00070B5124DEB692A460133EB6152F8103F98
:1037D000934206D09A68013A9A6030262C69A36811
:1037E00003B170BDD4E900210A605160236083F306
:1037F0001188D4E903312046984786F3118861691E
:103800000029EBD02046FFF7A7FFE7E73838002074
:10381000054A30B5D369D2E908451B1B181945F193
:103820000001C2E9080130BD38380020002070478F
:10383000FEE70000704700004FF0FF3070470000C7
:10384000BFF34F8F024AD368DB07FCD4704700BF39
:103850000020024008B5074B1B7853B9FFF7F0FF73
:10386000054B1A69120641BF044A5A6002F18832B8
:103870005A6008BD783A00200020024023016745C5
:1038800008B5054B1B7833B9FFF7DAFF034A136914
:1038900043F08003136108BD783A00200020024005
:1038A0007F289ABF00F58030C002002070470000DA
:1038B0004FF4006070470000802070477F2808B5F3
:1038C0000BD8FFF7EDFF00F500630268013204D169
:1038D00004308342F9D1012008BD0020FCE700003C
:1038E0007F2810B504461CD8FFF7AAFFFFF7B2FFE8
:1038F0000D4BF322DA6002221A61FFF7D1FF586103
:103900001A6942F040021A614FF40061FFF798FF14
:1039100000F056F9FFF7B4FF2046BDE81040FFF76E
:10392000CDBF002010BD00BF002002402DE9F843AC
:1039300012F00103144606D01F4B4FF451721A6067
:103940000020BDE8F88385181C4A954204D91A4A1C
:1039500040F249311160F3E7FFF77CFFFFF770FF9A
:10396000DFF86880451A4FF00109012C05EB0106CC
:103970000F4603D8FFF784FF0120E2E73B88C8F831
:10398000109033800020FFF75BFFC8F810003388E9
:1039900031F8022B9BB29A420CD0074B4FF458726D
:1039A0001A60074B1E60074B1C60074B1F60FFF738
:1039B00067FFC6E7023CD8E7743A0020000004081D
:1039C000683A0020703A00206C3A00200020024043
:1039D000084908B50B7828B11BB9FFF73BFF012355
:1039E0000B7008BD002BFCD0BDE808400870FFF745
:1039F00047BF00BF783A002008B506484FF41F4182
:103A000000F0E0F8BDE808404FF400514FF080505E
:103A100000F0D8B8000100200846114600F05CBE56
:103A2000084600F06FBE000038B5EFF31185BDBB4E
:103A3000EFF30584C4F308043023C4B183F3118881
:103A4000FFF7E6FE4C014201121A44EAD06464EB2F
:103A500001049300A4001B1844EA927441EB040192
:103A6000C900D80041EA537185F3118838BD83F34A
:103A70001188FFF7CDFE4D014201121A45EAD065CB
:103A800065EB01059300AD001B1845EA927541EB0B
:103A90000501C900D80041EA537184F3118838BD8B
:103AA000FFF7B6FE4B014401241A43EAD06363EBEF
:103AB0000103A2009B00121843EA947341EB030137
:103AC000C900D00041EA527138BD00BF38B5FFF7D8
:103AD000ABFF114C114AC00840EA4170A0FB025EE6
:103AE000C908A0FB040C1CEB050CA1FB04404FF023
:103AF00000035B41A1FB02121CEB040C43EB000032
:103B000011EB0E0142F10002411842F100000909D7
:103B100041EA007038BD00BFCFF753E3A59BC42036
:103B200010B50244064BD2B2904200D110BD441CE5
:103B300000B253F8200041F8040BE0B2F4E700BFF4
:103B4000502800400F4B30B51C6A240407D41C6A6F
:103B500044F440741C621C6A44F400441C620A4C25
:103B6000236843F4807323600244084BD2B290422E
:103B700000D130BD441C00B251F8045B43F8205022
:103B8000E0B2F4E70010024000700040502800400E
:103B900007B5012201A90020FFF7C2FF019803B079
:103BA0005DF804FB13B50446FFF7F2FFA04205D011
:103BB000012201A900200194FFF7C4FF02B010BD4B
:103BC000704700007047000070470000074B45F247
:103BD00055521A6003225A6040F2FF729A604CF606
:103BE000CC421A60024B01221A707047003000402C
:103BF000803A0020034B1B781BB1034B4AF6AA22E4
:103C00001A607047803A002000300040044B1A6868
:103C10002AB902F1804202F50432526A1A607047F2
:103C20007C3A0020024B4FF080725A62704700BF0E
:103C30000010024008B5FFF7E9FF024B1868C0F317
:103C4000407008BD7C3A002070470000FEE700008D
:103C50000A4B0B480B4A90420BD30B4BDA1C121A3F
:103C6000C11E22F003028B4238BF00220021FDF763
:103C7000D9B953F8041B40F8041BECE78C49000841
:103C80005C3C00205C3C00205C3C0020FEE7000027
:103C900070B51B4B01630025044686B058608562F1
:103CA0000E46FFF7D7FB04F11003C4E904334FF0CD
:103CB000FF33A361134BE561D969A5600A462B4622
:103CC000C4E9082304F13401C4E900440E4AE56262
:103CD000256580232046FFF7D9FC0123E0600B4ACD
:103CE0000375009272680192B268CDE90223084B15
:103CF0006846CDE90435FFF7F1FC06B070BD00BFA2
:103D0000603A00203838002034480008394800085C
:103D10008D3C00084B6843608B688360CB68C36050
:103D20000B6943614B6903628B6943620B680360F3
:103D30007047000008B51B4B9A6A42F4FC029A6275
:103D40009A6A22F4FC029A629A6A5A6942F4FC0264
:103D50005A61154A5B6911464FF09040FFF7DAFF50
:103D600002F11C0100F58060FFF7D4FF02F1380179
:103D700000F58060FFF7CEFF02F1540100F580608E
:103D8000FFF7C8FF02F1700100F58060FFF7C2FF86
:103D900002F18C0100F58060FFF7BCFFBDE8084030
:103DA00000F05AB8001002404048000808B500F082
:103DB00093F9FFF743FCBDE80840FFF727BF000079
:103DC0007047000010B5214CA36A63F4FC03A362A2
:103DD000A36A03F4FC03A3624FF0FF32A36A2369D2
:103DE00022612369002323612169E168E260E268BE
:103DF000E360E268E269164942F08052E261E269FA
:103E00000A6842F480720A60226A02F44072B2F5D3
:103E1000407F1EBF4FF4803222622362236A1B045C
:103E200007D4236A43F440732362236A43F40043B4
:103E3000236200F031F9A369064A43F00103A3614C
:103E4000A369136843F02003136010BD0010024003
:103E500000700040000001401E4B1A6842F0010251
:103E60001A601A689007FCD55A6822F003025A605B
:103E70005A6812F00C02FBD1196801F0F9011960BF
:103E80005A601A6842F480321A601A689103FCD5AD
:103E9000114A5A604FF40452DA6230221A631A68E7
:103EA00042F080721A601A689201FCD50B49122206
:103EB0000A600A6802F00702022AFAD15A6842F040
:103EC00002025A605A6802F00C02082AFAD11A6BF0
:103ED0001A6370470010024000241D0000200240B9
:103EE000084A08B5516913680B4003F00103536198
:103EF00023B1054A13680BB150689847BDE80840E4
:103F0000FFF7CCBA00040140843A0020084A08B503
:103F1000516913680B4003F00203536123B1054A52
:103F200093680BB1D0689847BDE80840FFF7B6BA70
:103F300000040140843A0020084A08B5516913681A
:103F40000B4003F00403536123B1054A13690BB11D
:103F500050699847BDE80840FFF7A0BA0004014047
:103F6000843A0020084A08B5516913680B4003F0F1
:103F70000803536123B1054A93690BB1D06998478F
:103F8000BDE80840FFF78ABA00040140843A0020E7
:103F9000084A08B5516913680B4003F010035361D8
:103FA00023B1054A136A0BB1506A9847BDE808402F
:103FB000FFF774BA00040140843A0020174B10B593
:103FC0005A691C68144004F478725A61A30604D537
:103FD000134A936A0BB1D06A9847600604D5104A19
:103FE000136B0BB1506B9847210604D50C4A936BA9
:103FF0000BB1D06B9847E20504D5094A136C0BB19D
:10400000506C9847A30504D5054A936C0BB1D06C4E
:104010009847BDE81040FFF741BA00BF00040140D7
:10402000843A00201A4B10B55A691C68144004F4F5
:104030007C425A61620504D5164A136D0BB1506D6E
:104040009847230504D5134A936D0BB1D06D98475B
:10405000E00404D50F4A136E0BB1506E9847A104CB
:1040600004D50C4A936E0BB1D06E9847620404D508
:10407000084A136F0BB1506F9847230404D5054AC3
:10408000936F0BB1D06F9847BDE81040FFF706BAA9
:1040900000040140843A0020062108B50846FFF7D5
:1040A00027FA06210720FFF723FA06210820FFF749
:1040B0001FFA06210920FFF71BFA06210A20FFF745
:1040C00017FA06211720FFF713FABDE8084006216A
:1040D0002820FFF70DBA000008B5FFF773FE00F0C7
:1040E00067F800F03DF8FFF76BFEBDE8084000F010
:1040F0005DB80000026843681143016003B11847CE
:1041000070470000143000F02FBA00004FF0FF336A
:10411000143000F029BA0000383000F0A5BA0000D1
:104120004FF0FF33383000F09FBA0000143000F039
:10413000F5B900004FF0FF31143000F0EFB9000086
:10414000383000F04FBA00004FF0FF32383000F046
:1041500049BA0000012914BF6FF013000020704716
:1041600000F06CB8044B03600023C0E902334360E5
:1041700001230374704700BFE848000838B5C369DD
:1041800004460D461BB904210844FFF7B3FF294636
:1041900004F1140000F0A6F9002806DA201D4FF4FF
:1041A0000061BDE83840FFF7A5BF38BD00F00EB88C
:1041B0000023054A19460133102BC2E9001102F110
:1041C0000802F8D1704700BF843A00204FF0E02386
:1041D000044A5A6100229A6107221A6108210B20C1
:1041E000FFF79CB93F19010008B5302383F311880C
:1041F000FFF74AFA002383F3118808BD08B5FFF7DB
:10420000F3FFBDE80840FFF749B9000002684368C2
:104210001143016003B1184770470000024A136858
:1042200043F0C0031360704700380140024A13682E
:1042300043F0C003136070470044004037B51D4C85
:104240001D4D2046FFF78EFF009404F114001B491A
:104250000023202200F038F92022009404F13800D5
:10426000174B184900F0B2F9174BC4E91735174C32
:104270000C212520FFF73CF92046FFF773FF04F1DE
:104280001400134900940023202200F01DF904F1CA
:104290003800104B10490094202200F097F90F4B82
:1042A0000C212620C4E9173503B0BDE83040FFF7E4
:1042B0001FB900BF043B002000512502DC3B002059
:1042C0001D4200081C3C002000380140703B0020CB
:1042D000FC3B00202D4200083C3C002000440040F4
:1042E0002DE9F047C66D3768F46934622107054649
:1042F00019D014F0080118BF4FF48071E20748BFCD
:1043000041F02001A30748BF41F04001600748BFCA
:1043100041F08001302383F31188281DFFF776FFD9
:10432000002383F31188E2050AD5302383F3118833
:104330004FF48061281DFFF769FF002383F3118884
:104340004FF030094FF0000A14F0200838D13B0636
:1043500016D54FF0300905F1380A200610D589F33B
:104360001188504600F066F9002836DA0821281D29
:10437000FFF74CFF27F080033360002383F311889D
:10438000790614D5620612D5302383F31188D5E956
:1043900013239A4208D12B6C33B11021281D27F02A
:1043A0004007FFF733FF3760002383F31188E306EC
:1043B00019D5AA6E1369B3B1BDE8F0475069184723
:1043C00089F31188B38C95F8641028461940FFF7DB
:1043D000D5FE8AF31188F469B6E780B2308588F398
:1043E0001188F469B9E7BDE8F087000008B5034813
:1043F000FFF776FFBDE80840FFF750B8043B002008
:1044000008B50348FFF76CFFBDE80840FFF746B862
:10441000703B0020F8B5154682680669AA420B4633
:10442000816938BF8568761AB54204460BD21846B2
:104430002A46FCF7E5FDA3692B44A361A3685B1B37
:10444000A3602846F8BD0CD918463246FCF7D8FDC3
:10445000AF1BE1683A463044FCF7D2FDE3683B44C9
:10446000EBE718462A46FCF7CBFDE368E5E70000DA
:1044700083689342F7B51546044638BF8568D0E98E
:104480000460361AB5420BD22A46FCF7B9FD6369BF
:104490002B446361A36828465B1BA36003B0F0BD97
:1044A0000DD932460191FCF7ABFD0199E068AF1BD5
:1044B0003A463144FCF7A4FDE3683B44E9E72A4669
:1044C000FCF79EFDE368E4E710B50A440024C361ED
:1044D000029B8460C0E90000C0E90511C16002616F
:1044E000036210BD08B5D0E90532934201D182685C
:1044F00082B98268013282605A1C42611970D0E927
:1045000004329A4224BFC36843610021FFF718F9BF
:10451000002008BD4FF0FF30FBE7000070B53023EE
:1045200004460E4683F31188A568A5B1A368A26965
:10453000013BA360531CA36115782269934224BFF9
:10454000E368A361E3690BB120469847002383F336
:104550001188284607E031462046FFF7E1F8002899
:10456000E2DA85F3118870BD2DE9F74F04460E4657
:1045700017469846D0F81C904FF0300A8AF31188FD
:104580004FF0000B154665B12A4631462046FFF72D
:1045900041FF034660B941462046FFF7C1F80028B5
:1045A000F1D0002383F31188781B03B0BDE8F08FAE
:1045B000B9F1000F03D001902046C847019B8BF34F
:1045C0001188ED1A1E448AF31188DCE7C0E9051151
:1045D000C160C3611144009B8260C0E900000161B9
:1045E00003627047F8B504460D461646302383F340
:1045F0001188A768A7B1A368013BA36063695A1C2F
:1046000062611D70D4E904329A4224BFE368636199
:10461000E3690BB120469847002080F3118807E03A
:1046200031462046FFF77CF80028E2DA87F311884C
:10463000F8BD0000D0E905239A4210B501D1826887
:104640007AB98268013282605A1C82611C780369DF
:104650009A4224BFC36883610021FFF771F82046A6
:1046600010BD4FF0FF30FBE72DE9F74F04460E4633
:1046700017469846D0F81C904FF0300A8AF31188FC
:104680004FF0000B154665B12A4631462046FFF72C
:10469000EFFE034660B941462046FFF741F8002887
:1046A000F1D0002383F31188781B03B0BDE8F08FAD
:1046B000B9F1000F03D001902046C847019B8BF34E
:1046C0001188ED1A1E448AF31188DCE70B46014677
:1046D000184600F009B80000024B0A460146186867
:1046E000FFF79AB91811002010B5054C13462CB1EC
:1046F0000A4601460220AFF3008010BD2046FCE7C9
:1047000000000000024B01461868FFF789B900BF9E
:104710001811002010B501390244904201D1002047
:1047200005E0037811F8014FA34201D0181B10BD1A
:104730000130F2E72DE9F041A3B1C91A177801441D
:10474000044603F1FF3C8C42204601D9002009E0D9
:104750000578BD4204F10104F5D10CEB0405D6182F
:10476000A54201D1BDE8F08115F8018D16F801EDE3
:10477000F045F5D0E7E70000034611F8012B03F8F8
:10478000012B002AF9D170476F72672E6172647530
:1047900070696C6F742E663330332D4D3130303785
:1047A0003000000040A2E4F1646891060041A3E5F6
:1047B000F2656992070000004261642043414E495E
:1047C0006661636520696E6465782E008000000074
:1047D00000800000000080000000000000000000D9
:1047E0009D180008DD20000839200008DD180008A9
:1047F000E9180008F51A0008AD180008BD180008EF
:10480000B1180008B9180008B5180008111A0008F6
:10481000C118000801240008B1230008D1180008BD
:10482000E519000863300000244800089038002093
:10483000603A00206D61696E0069646C650000007B
:10484000A001A82A00000000FAAABEAA5000142461
:10485000EFFF0000007700007097090001000000E2
:1048600000000000AAAAAAAA01000000FFFF0000A1
:104870000000000000000000000000000000000038
:10488000AAAAAAAA00000000FFFF00000000000082
:10489000000000000000000000000000AAAAAAAA70
:1048A00000000000FFFF000000000000000000000A
:1048B0000000000000000000AAAAAAAA0000000050
:1048C000FFFF0000000000000000000000000000EA
:1048D00000000000AAAAAAAA00000000FFFF000032
:1048E000000000000000000000000000214100085E
:1048F0000D410008494100083541000841410008C8
:104900002D410008194100080541000855410008E3
:10491000EC0300000000000000980300000000000D
:10492000FE2A0100D20400001C110020000000003B
:104930000000000000000000000000000000000077
:104940000000000000000000000000000000000067
:104950000000000000000000000000000000000057
:104960000000000000000000000000000000000047
:104970000000000000000000000000000000000037
:0C4980000000000000000000000000002B
:00000001FF
