:020000040800F2
:1000000000070020F1010008892C0008412C00089D
:10001000692C0008412C0008612C0008F30100083D
:10002000F3010008F3010008F3010008253D000872
:10003000F3010008F3010008F3010008F3010008D0
:10004000F3010008F3010008F3010008F3010008C0
:10005000F3010008F3010008B1620008D96200084A
:10006000016300082963000851630008F3010008D8
:10007000F3010008F3010008F3010008F301000890
:10008000F3010008F3010008F3010008F52B000854
:10009000212C0008312C0008F301000879630008C6
:1000A000F3010008F3010008F3010008F301000860
:1000B0004D640008F3010008F3010008F301000893
:1000C000F3010008F3010008F3010008F301000840
:1000D000F3010008F3010008F3010008F301000830
:1000E000DD630008F3010008F3010008F3010008D4
:1000F000F3010008F3010008F3010008F301000810
:10010000F3010008F3010008F3010008F3010008FF
:10011000F3010008F3010008F3010008F3010008EF
:10012000F3010008F3010008F3010008F3010008DF
:10013000F3010008F3010008F3010008F3010008CF
:10014000F3010008F3010008F3010008A5580008B6
:10015000F3010008F3010008F3010008F3010008AF
:10016000F3010008F3010008F3010008F30100089F
:10017000F3010008F3010008F3010008F30100088F
:10018000F3010008F3010008F3010008F30100087F
:10019000F3010008F3010008F3010008F30100086F
:1001A000F3010008F3010008F3010008F30100085F
:1001B000F3010008F3010008F3010008F30100084F
:1001C000F3010008F3010008F3010008F30100083F
:1001D000F3010008F3010008F3010008F30100082F
:1001E000651500080000000000000000000000008D
:1001F00002E000F000F8FEE772B6374880F30888A6
:10020000364880F3098836483649086040F20000D5
:10021000CCF200004EF63471CEF200010860BFF35C
:100220004F8FBFF36F8F40F20000C0F2F0004EF628
:100230008851CEF200010860BFF34F8FBFF36F8F7C
:100240004FF00000E1EE100A4EF63C71CEF20001D4
:100250000860062080F31488BFF36F8F04F0EAFF74
:1002600005F0CEFE4FF055301F491B4A91423CBF6E
:1002700041F8040BFAE71D49184A91423CBF41F886
:10028000040BFAE71A491B4A1B4B9A423EBF51F82E
:10029000040B42F8040BF8E700201849184A914271
:1002A0003CBF41F8040BFAE704F0C8FF05F0FCFE80
:1002B000144C154DAC4203DA54F8041B8847F9E797
:1002C00000F042F8114C124DAC4203DA54F8041B12
:1002D0008847F9E704F0B0BF0007002000230020A2
:1002E0000000000808ED00E00001002000070020E9
:1002F0005869000800230020B0230020B02300200C
:100300004C560020E0010008E4010008E401000868
:10031000E40100082DE9F04F2DED108AC1F80CD052
:10032000C3689D46BDEC108ABDE8F08F002383F3BF
:1003300011882846A047002004F086FAFEE704F062
:1003400005FA00DFFEE70000F8B501F071F904F0EE
:100350000BFF074604F05AFF0546A8BB1F4B9F4200
:1003600032D001339F4232D01D4B27F0FF029A4218
:1003700030D1F8B200F012FF2E4642F2107400F0B5
:1003800013FF08B10024264601F03CFD20B10320F4
:1003900000F07AF80024264635B1124B9F4203D074
:1003A00004F02CFF00242646002004F0E7FE0EB1E6
:1003B00000F080F801F098FA00F064FF204600F0A9
:1003C000DFF800F077F8F9E72E460024D7E7044677
:1003D0000126D4E7064641F28834D0E7010007B091
:1003E000000008B0263A09B008B501F0F3F8A0F112
:1003F00020035842584108BD07B541F212030221BB
:1004000001A8ADF8043001F003F903B05DF804FB76
:1004100038B5302383F31188174803680BB104F013
:10042000DFFA164A144800234FF47A7104F0CEFA2A
:10043000002383F31188124C236813B12368013B16
:100440002360636813B16368013B63600D4D2B78D3
:1004500033B963687BB9022001F0B0F932236360DD
:100460002B78032B07D163682BB9022001F0A6F982
:100470004FF47A73636038BDB02300201104000884
:10048000D0240020C8230020084B187003280CD863
:10049000DFE800F008050208022001F085B902201B
:1004A00001F078B9024B00225A607047C82300203F
:1004B000D024002010B501F0A5FC30B1294B032257
:1004C0001A70294B00225A6010BD284B284A1C463E
:1004D00019680131F8D004339342F9D16268254B91
:1004E0009A42F1D9244B9B6803F1006303F58033F2
:1004F0009A42E9D204F056FE04F068FE002001F0B2
:10050000B1F80220FFF7C0FF1C4B1A6C00221A64DE
:10051000196E1A66196E596C5A64596E5A665A6E7B
:100520005A6942F080025A615A6922F080025A6187
:100530005A691A6942F000521A611A6922F000528F
:100540001A611B6972B64FF0E0233021C3F8084DE1
:10055000D4E9003281F311889D4683F3088810475F
:10056000B2E700BFC8230020D0240020000001080B
:1005700020000108FFFF000800230020003802408F
:100580002DE9F04F93B0AC4B00902022FF210AA838
:100590009D6801F053F9A94A1378A3B9A84801212D
:1005A00003601170302383F3118803680BB104F0EA
:1005B00017FAA44AA24800234FF47A7104F006FA0D
:1005C000002383F31188009B13B19F4B009A1A609C
:1005D0009E4A009C1378032B1EBF002313709A4A77
:1005E0004FF0000A18BF5360D3465646D14601204B
:1005F00001F0DAF824B1944B1B68002B00F015824F
:10060000002000F0E7FF0390039B002B01DA00F0CD
:1006100081FE039B002BEDDB012001F0BBF8039B67
:10062000213B162BE3D801A252F823F089060008DB
:10063000B106000845070008EF050008EF050008AF
:10064000EF050008CF0700089F090008B908000857
:100650001B0900084309000869090008EF050008A4
:100660007B090008EF050008ED09000829070008CC
:10067000EF050008310A0008950600082907000860
:10068000EF0500081B0900080220FFF7ADFE002857
:1006900040F0F581009B0221BAF1000F08BF1C4613
:1006A00005A841F21233ADF8143000F0B1FF9EE717
:1006B0004FF47A7000F08EFF071EEBDB0220FFF78D
:1006C00093FE0028E6D0013F052F00F2DA81DFE833
:1006D00007F0030A0D10133605230593042105A81E
:1006E00000F096FF17E054480421F9E75848042128
:1006F000F6E758480421F3E74FF01C08404600F0A5
:10070000B3FF08F104080590042105A800F080FF5C
:10071000B8F12C0FF2D1012000FA07F747EA0B0BD2
:100720005FFA8BFB4FF0000901F0D4F826B10BF013
:100730000B030B2B08BF0024FFF75EFE57E746486C
:100740000421CDE7002EA5D00BF00B030B2BA1D17C
:100750000220FFF749FE074600289BD0012000F049
:1007600081FF0220FFF790FE00261FFA86F8404620
:1007700000F088FF044690B10021404600F09AFF47
:1007800001360028F1D1BA46044641F21213022183
:1007900005A8ADF814303E4600F03AFF27E70120E7
:1007A000FFF772FE2546244B9B68AB4207D92846CB
:1007B00000F05AFF013040F067810435F3E7234B26
:1007C00000251D70204BBA465D603E46ACE7002E0A
:1007D0003FF460AF0BF00B030B2B7FF45BAF0220F9
:1007E000FFF752FE322000F0F5FEB0F10008FFF6F0
:1007F00051AF18F003077FF44DAF0F4A926808EB32
:10080000050393423FF646AFB8F5807F3FF742AF0E
:10081000124B0193B84523DD4FF47A7000F0DAFEF5
:100820000390039A002AFFF635AF019B039A03F861
:10083000012B0137EDE700BF00230020CC2400206E
:10084000B023002011040008D0240020C823002079
:1008500004230020082300200C230020CC230020A8
:10086000C820FFF7C1FD074600283FF413AF1F2D36
:1008700011D8C5F1200242450AAB25F0030028BF7C
:10088000424683490192184400F0B2FF019A804821
:10089000FF2100F0D3FF4FEAA8037D490193C8F37D
:1008A0008702284600F0D2FF064600283FF46DAFCD
:1008B000019B05EB830537E70220FFF795FD002834
:1008C0003FF4E8AE00F016FF00283FF4E3AE002747
:1008D000B846704B9B68BB4218D91F2F11D80A9B92
:1008E00001330ED027F0030312AA134453F8203C1F
:1008F00005934046042205A901F03CFA04378046DE
:10090000E7E7384600F0B0FE0590F2E7CDF8148036
:10091000042105A800F07CFE06E70023642104A85A
:10092000049300F06BFE00287FF4B4AE0220FFF7C2
:100930005BFD00283FF4AEAE049800F0C3FE0590C6
:10094000E6E70023642104A8049300F057FE002882
:100950007FF4A0AE0220FFF747FD00283FF49AAED7
:10096000049800F0BFFEEAE70220FFF73DFD0028F3
:100970003FF490AE00F0CEFEE1E70220FFF734FD39
:1009800000283FF487AE05A9142000F0C9FE042119
:100990000746049004A800F03BFE3946B9E7322030
:1009A00000F018FE071EFFF675AEBB077FF472AEAF
:1009B000384A926807EB090393423FF66BAE022078
:1009C000FFF712FD00283FF465AE27F003074F4400
:1009D000B9453FF4A9AE484600F046FE0421059013
:1009E00005A800F015FE09F10409F1E74FF47A704B
:1009F000FFF7FAFC00283FF44DAE00F07BFE002824
:100A000044D00A9B01330BD008220AA9002000F031
:100A10001DFF00283AD02022FF210AA800F00EFF77
:100A2000FFF7EAFC1C4803F015FF13B0BDE8F08F98
:100A3000002E3FF42FAE0BF00B030B2B7FF42AAEEE
:100A40000023642105A8059300F0D8FD074600287F
:100A50007FF420AE0220FFF7C7FC804600283FF459
:100A600019AEFFF7C9FC41F2883003F0F3FE059898
:100A700000F062FF464600F02DFF3C46B7E5064613
:100A800052E64FF0000905E6BA467EE637467CE6B8
:100A9000CC23002000230020A0860100094A13680F
:100AA00049F2690099B21B0C00FB01331360064B3D
:100AB000186844F2506182B2000C01FB0200186019
:100AC00080B27047182300201423002010B50021A5
:100AD0001022044600F0B2FE034B03CB206061609D
:100AE0001868A06010BD00BF107AFF1FF0B5ADF50B
:100AF000517D6EAC4FF4C47207460D46204600216E
:100B000000F09CFE02F0C8F8244B4FF47A72B0FB60
:100B1000F2F0186093E80700022384E807000DF55F
:100B2000ED702382FFF7D2FF4FF203631C49238449
:100B300006A805F02BFD202384F832310DF2EB26B8
:100B400006AB0DF1380C1A4603CA6245306071607D
:100B5000134606F10806F6D10FAE314601222046B3
:100B600000F0ECFE00230393AB7E029305F1190322
:100B7000019380B20123CDE904600093E97E05A3CF
:100B8000D3E90023384602F09DFC0DF5517DF0BD00
:100B9000AFF300809E6AC421818A46EED8240020EB
:100BA0009C6500082DE9F0412C4C237ADAB0804690
:100BB0000D465BBB27A9284600F0E6FF0746002844
:100BC00042D19DF89D60C82E3ED801464FF4A662E2
:100BD000204600F033FE4FF48073C4F8F8314FF430
:100BE0000073C4F80C334FF44073C4F82034324619
:100BF0000DF19E0104F1090000F0FAFD26449DF874
:100C00009C30777223720BB9EB7E23728122002114
:100C100006AC27A800F012FE0122214627A800F00A
:100C2000F9FF00230393AB7E029305F1190380B211
:100C300001932823CDE904400093E97E05A3D3E97D
:100C40000023404602F03EFC5AB0BDE8F08100BFF0
:100C5000AFF3008026417272DF25D7B72035002020
:100C6000F0B5254E4FF48A7505FB0065F1B096F896
:100C7000D83085F8DC300024D822214685F8E840B9
:100C80003AA800F0DBFD06F1090000F0CFFDD5F831
:100C9000E4308DF8F000C2B206AF06F109010DF1A3
:100CA000F100CDE93A3400F0A3FD394601223AA81B
:100CB00000F0E6FF80B2CDE9047008230127CDE9FA
:100CC000023706F1D803019330230093317A0B48A1
:100CD00007A3D3E9002302F0F5FBA04206DD01F0F3
:100CE000DBFFC5F8E000384671B0F0BD2046FBE7F9
:100CF00078F6339F93CACD8D20350020F034002044
:100D00002DE9F0411D4D1E4E1E4F86B0284602F0C3
:100D100005FC034658B30024CDE90344ADF8144064
:100D2000027B8DF8142099684068029403AA03C2DC
:100D30001B68DFF8548043F00043029301F0AEFFDC
:100D4000821941F10003009402A9384601F042FAE9
:100D5000A04205DD284602F0E5FB88F80040D5E713
:100D600098F80030072B05D8013388F8003006B01A
:100D7000BDE8F081014802F0D5FBF8E7F03400202F
:100D800040420F00583A0020553A002070B50D46F9
:100D900014461E4602F0F2FA50B9022E10D1012C70
:100DA0000ED112A3D3E90023C5E90023012007E0F7
:100DB000282C10D005D8012C09D0052C0FD00020EC
:100DC00070BD302CFBD10BA3D3E90023ECE70BA3C0
:100DD000D3E90023E8E70BA3D3E90023E4E70BA35F
:100DE000D3E90023E0E700BFAFF30080401DA1205E
:100DF00026812A0B78F6339F93CACD8D9E6AC42133
:100E0000818A46EE26417272DF25D7B7F017304A45
:100E100039059E5638B505460E4C0021013500F0C7
:100E200049FCA4F82C55B4F82C0500F02BFC78B143
:100E3000B4F82C0500F036FC014648B9B4F82C058E
:100E400000F038FCB4F82C350133A4F82C35EAE76F
:100E500038BD00BF2035002010B50A4B0A4A1A6081
:100E600003F5805393F870203AB9DC6E2CB120461C
:100E700001F046F8204601F083F9BDE81040034830
:100E800001F03EB8583A00205C660008B04A0020E5
:100E90002DE9F04F8FB000AF05460C4602F06EFA18
:100EA00000284BD1237E022B1BD1E38A012B18D1C2
:100EB00001F0F2FE0646FFF7F1FD03464FF4C8705D
:100EC000DFF8D482B3FBF0F206F5167602FB10339E
:100ED00016FA83F3C8F80030E37E33B9A74B00223B
:100EE0001A703C37BD46BDE8F08F07F1240120465B
:100EF00000F0FEFD0028F4D107F11400FFF7E6FD35
:100F000097F8264007F11401224607F1270005F063
:100F10000BFB0028E2D10F2C08D8984B1C70D8F896
:100F20000030A3F51673C8F80030DAE797F82410FC
:100F30000029D6D0284602F019FAD2E7E38A282BF6
:100F400033D010D8012B2BD0052BCAD1BFF34F8F34
:100F50008B498C4BCA6802F4E0621343CB60BFF349
:100F60004F8F00BFFDE7302BBBD1874EE17E327A39
:100F70009142B6D1607E3146002291F8DC50854224
:100F800000F0AD800132042A01F58A71F5D1326892
:100F900040F6B831FA328A4294BF32603160A0E73D
:100FA00021462846FFF7A2FD9BE721462846FFF78A
:100FB000F9FD96E7B2F8EC507B6005F103094FEAC2
:100FC00099094FEA8902D11DC908A8EBC1039D46C2
:100FD000EB460021584600F031FC04F1EE012A46B0
:100FE0003144584600F004FC7B6813B9012000F03E
:100FF00039FB96F8D20000F045FB044630B9307258
:1010000000F078FB204600F02DFBB0E0D6F8D420AD
:101010003AB996F8D200B6F82C25824201D8FFF7EB
:10102000F9FED6F8D4202A44944208D296F8D20089
:10103000B6F82C250130824201D8FFF7EBFE70682C
:101040005FFA89F2594600F001FC08B9C54679E01B
:10105000726896F8D2002A447260D6F8D42005EB64
:101060000209C6F8D49000F00DFB814509D396F82B
:10107000D220D6F8D4000132001B86F8D220C6F860
:10108000D400FF2D0FD80024347200F033FB20462B
:1010900000F0E8FA00F0B6FE3C4B188108B9FFF703
:1010A00009FAC5461DE7BB6896F8D9000AFB03623A
:1010B000FB68D2F8E41082F8E83001F58061C2F8EC
:1010C000E030C2F8E410FFF7CBFDFFF719FE96F809
:1010D000D920013202F0030286F8D920B6E74FF496
:1010E0008A7A0AFB02F505F1EA013144204600F054
:1010F000FBFDF86000287FF4F4AE3544012285F84A
:10110000E82001F0C9FDD5F8E020D6ED007ADFED4A
:10111000206A801A192838BF192040F6B832904248
:1011200028BF1046B8EE677A07EE900AF8EEE77A25
:1011300067EEA67ADFED176AE7EE267AFCEEE77A2D
:10114000C6ED007A96F8D9307168BB600AFB03F4EB
:10115000321992F8E8505DB1D2F8E4308B42E8469B
:101160003FF428AF002182F8E810C2F8E010C5462D
:101170007368064A9B0A01331381B2E6E934002002
:1011800000ED00E00400FA0520350020D8240020FE
:10119000CDCCCC3D6666663FEC340020014B187028
:1011A000704700BFE424002030B54FF000542C4BB2
:1011B00022689A4285B023D1637D0BB3294A2A481D
:1011C0001370237D03724FF48073C0F8F8314FF42D
:1011D0000073C0F80C3300254FF44073C0F820347E
:1011E0002249C0F8E450C922093000F001FB204632
:1011F000E022294600F022FB0124204605B030BD44
:1012000004F00EF8044608B90024F6E7184A194D10
:10121000136C43F000731364AA6D174B9A42F3D119
:101220002B6E013B7E2BEFD8144A07CA01AB83E833
:1012300007001846032100F0B3FD6B6D83424FF0A9
:101240000003E1D12A6D8A4201BFAB65054B2A6ECE
:101250001A7003BF0A4BEA6D1A601C46CDE700BF47
:101260009AAD44C5E424002020350020160000205B
:1012700000380240006600405041A0B0586600406F
:101280001023002037B51A4D00F0BCFD02236B710E
:10129000184B288119681848012201F097FB002398
:1012A0000193164B164900931648174B4FF4805282
:1012B00002F034F8154B197811B1124802F056F8C3
:1012C00001F0EAFC0446FFF7E9FB4FF4C873B0FBFA
:1012D000F3F202FB130304F5167010FA83F00C4BC3
:1012E000186003F093FF08B10F232B8103B030BDCA
:1012F000D824002010230020583A00208D0D00082B
:10130000E8240020F0340020910E0008E42400209E
:10131000EC3400202DE9F04F2DED028B0FF238292F
:10132000D9E90089834C93B00BAE9FED7E8BFFF71C
:10133000E7FC814FDFF828A200230A93ADF8343090
:101340000B9373604FF0000B5B468DED008B012516
:101350000DF11D0207A938468DF81C508DF81DB0FF
:1013600001F0E2FA9DF81C30002B40F0A5802046E9
:1013700002F004F80646002845D1704F01F08CFCBD
:101380003B6898423FD301F087FC8246FFF786FB1B
:101390004FF4C873B0FBF3F202FB13030AF51670A7
:1013A00010FA83F03860664F97F800B0CBF1100A5E
:1013B000BBF1000F14BF33462B465FFA8AFA0EA822
:1013C0008DF82830FFF782FBBAF1060F28BF4FF0E7
:1013D000060A0EAB03EB0B0152460DF1290000F09B
:1013E00007FA0AAB0393182302930AF10102554B43
:1013F000D2B2CDE90053049220464CA3D3E9002396
:1014000002F002F83E7001F047FC4F4A4F4D13685E
:10141000C31AB3F57A7F2ED3106001F03FFC024669
:101420000B46204602F088F8204601F0A7FF10B3D3
:101430002B7A474E002B14BF03230223737101F054
:101440002BFC0EAF4FF47A730122B0FBF3F0394658
:101450003060304600F024FB182302933D4B01938B
:1014600080B240F25513CDE90370009342464B46DB
:10147000204601F0C9FF2B7A93B101F00DFC002644
:1014800007464FF48A7A95F8D900304400F00300FB
:101490000AFB005393F8E82092B30136042EF2D1F0
:1014A000C82003F0D7F92B7A002B7FF43DAF13B09F
:1014B000BDEC028BBDE8F08FDAF8143083F4804382
:1014C000CAF81430594610220EA800F0B7F90DF1F1
:1014D0001E0308AA0AA9384600F082FF96E8030016
:1014E0000FAB83E803009DF834308DF844300A9B3D
:1014F0000E930EA9DDE90823204602F0F1F921E759
:10150000D3F8E02042B12B68FA2B38BFFA23BA1A7D
:101510000533B2EB430FC0D3FFF7A2FB0028BCD1C9
:10152000BEE700BF0000000000000000401DA12039
:1015300026812A0BF0340020583A0020EC34002099
:10154000E9340020E8340020503A00202035002003
:10155000D8240020543A0020F1C6A7C1D068080F53
:101560000000024008B5054800F0D8FFBDE808407B
:10157000034A0449002004F0B3BF00BF583A0020DA
:10158000784B0020590E000870B50F4B1B780133C3
:10159000DBB2012B0C4611D80C4D29684FF47A733D
:1015A0000E6AA2FB0332014622462846B047844217
:1015B00004D1074B00221A70012070BD4FF4FA705D
:1015C00003F048F90020F8E71C230020F04D00202C
:1015D0006C4B002007B50023024601210DF10700E6
:1015E0008DF80730FFF7D0FF20B19DF8070003B05A
:1015F0005DF804FB4FF0FF30F9E700000A4608B53C
:101600000421FFF7C1FF80F00100C0B2404208BDD5
:1016100030B4054C2368DD69044B0A46AC460146EC
:10162000204630BC604700BFF04D0020A08601007E
:1016300070B503F03FFC094E094D30800024286846
:101640003388834208D903F02FFC2B68044401330C
:10165000B4F5803F2B60F2D370BD00BF6E4B00200D
:10166000404B002003F0D4BC00F1006000F5803056
:101670000068704700F10060920000F5803003F0D0
:101680005FBC0000054B1A68054B1B889B1A834200
:1016900002D9104403F008BC00207047404B0020E2
:1016A0006E4B0020024B1B68184403F005BC00BFC2
:1016B000404B0020024B1B68184403F015BC00BFD0
:1016C000404B002010F003030AD1B0F5047F05D28F
:1016D00000F10050A0F51040D0F8003818467047CF
:1016E0000023FBE700F10050A0F51040D0F8100AED
:1016F00070470000064991F8243033B10023086A8E
:1017000081F824300822FFF7B5BF0120704700BFE1
:10171000444B0020014B1868704700BF002004E0D4
:1017200070B5194B1D68194B0138C5F30B040844FB
:101730002D0C04221E88A6420BD15C680A46013C8F
:10174000824213460FD214F9016F4EB102F8016BB9
:10175000F6E7013A03F10803ECD181420B4602D2CD
:101760002C2203F8012B0A4A05241688AE4204D124
:10177000984284BF967803F8016B013C02F10402A1
:10178000F3D1581A70BD00BF002004E000660008C5
:10179000EC650008022802BF024B4FF080429A61BC
:1017A000704700BF00000240022802BF024B4FF406
:1017B00080429A61704700BF00000240022801BFCA
:1017C000024A536983F4804353617047000002402A
:1017D00070B504464FF47A764CB1412C254628BFAB
:1017E000412506FB05F003F035F8641BF4E770BDF6
:1017F00010B50023934203D0CC5CC4540133F9E705
:1018000010BD000010B5013810F9013F3BB191F94E
:1018100000409C4203D11AB10131013AF4E71AB1F8
:1018200091F90020981A10BD1046FCE703460246C5
:10183000D01A12F9011B0029FAD17047024403465D
:10184000934202D003F8011BFAE770472DE9F843F1
:101850001F4D144695F824200746884652BBDFF8F2
:1018600070909CB395F824302BB92022FF21484674
:101870002F62FFF7E3FF95F82400C0F10802A242AF
:1018800028BF2246D6B24146920005EB8000FFF702
:10189000AFFF95F82430A41B1E44F6B2082E17445F
:1018A0009044E4B285F82460DBD1FFF723FF0028E1
:1018B000D7D108E02B6A03EB82038342CFD0FFF736
:1018C00019FF0028CBD10020BDE8F8830120FBE7F9
:1018D000444B0020024B1A78024B1A70704700BF2D
:1018E0006C4B00201C23002010B5104C104802F057
:1018F00007FB21460E4802F02FFB2468626DD2F8E8
:10190000043843F00203C2F804384FF47A70FFF74A
:101910005FFF0849204602F025FC626DD2F80438CA
:1019200023F00203C2F8043810BD00BF4C67000862
:10193000F04D002054670008704700002DE9F34780
:101940000D46044600219046284640F27912FFF7E2
:1019500075FF234620220021284601F063FF231D46
:1019600002222021284601F05DFF631D032222216F
:10197000284601F057FFA31D03222521284601F028
:1019800051FF04F1080310222821284601F04AFFE4
:1019900004F1100308223821284601F043FF04F126
:1019A000110308224021284601F03CFF04F11203F4
:1019B00008224821284601F035FF04F114032022B3
:1019C0005021284601F02EFF04F118034022702117
:1019D000284601F027FF04F120030822B021284601
:1019E00001F020FF04F121030822B821284601F06C
:1019F00019FF04F12207C0263B463146082228463B
:101A0000083601F00FFFB6F5A07F07F10107F3D10B
:101A100094F832308DF8073031460DF10703082273
:101A2000284601F0FFFE002604F1330A9DF8073036
:101A30004FEAC6099E4209F5A47720D394F83231C3
:101A4000502B28BF50238DF80730B8F1000F08D174
:101A500039460DF107030722284601F0E3FE09F29B
:101A60004F17002604F233149DF807309E4207EB0F
:101A7000C6010DD30731C80802B0BDE8F0870AEBF4
:101A8000060308223946284601F0CCFE0136CDE790
:101A9000A3190822284601F0C5FE0136E4E700003C
:101AA00013B504460846002101602346C0F8031020
:101AB0002022019001F0B6FE0198231D0222202170
:101AC00001F0B0FE0198631D0322222101F0AAFE5D
:101AD0000198A31D0322252101F0A4FE019804F121
:101AE00008031022282101F09DFE072002B010BD3E
:101AF000F7B5047F05460E462CB1838A122B02D916
:101B0000012003B0F0BD00231946072200962846A5
:101B100001F04CFD731C009301220023072128468D
:101B200001F044FDD4B9B31C0093052223460821DB
:101B3000284601F03BFD0D24B378102BE0D8374642
:101B4000B278BB1B934210D32B7FA88A0734E408DA
:101B5000B3B9844294BF00200120D2E7AB8ADB00F6
:101B6000083BDB08B3700824E6E7FB1C0093214622
:101B700000230822284601F019FD08340137DFE769
:101B8000201A18BF0120BCE7F7B5047F05460E46B2
:101B90002CB1838ACA2B02D9012003B0F0BD0023E7
:101BA000194600960822284601F000FD731CD4B99E
:101BB0000822009311462346284601F0F7FC102422
:101BC0007378C82BE8D8012372785F1C013B9342DD
:101BD00010D32B7FA88A0734E408B3B9844294BF9A
:101BE00000200120D9E7AB8ADB00083BDB087370DB
:101BF0000824E5E7F319009321460023082228462C
:101C000001F0D4FC08343B46DEE7201A18BF01205F
:101C1000C3E70000F7B50D460446002116462846E6
:101C20008122FFF70BFE234608220021284601F0FF
:101C3000F9FD94F901206378002AB8BF7F238DF85D
:101C400007309EB90DF1070307220821284601F04D
:101C5000E9FD0F27002602349DF807309E4207EB6E
:101C6000C60105D30731C80803B0F0BD0827F1E766
:101C7000A3190822284601F0D5FD0136ECE7000043
:101C8000F7B50E460546002114463046CE22FFF732
:101C9000D5FD2B4628220021304601F0C3FD2B7ACA
:101CA000C82B28BFC8238DF807308CB90DF1070366
:101CB00008222821304601F0B5FD30242F469DF83A
:101CC00007207B1B934205D3E01DC00803B0F0BD85
:101CD0002824F3E707F1090321460822304601F0E2
:101CE000A1FD08340137EAE7F7B5047F05460E4643
:101CF00034B1838AB3F5827F02D9012003B0F0BDED
:101D00000096012310220021284601F04FFCDCB987
:101D1000B31C0093092223461021284601F046FCFB
:101D200019247388B3F5807FE7D837467288BB1BC8
:101D3000934210D32B7FA88A0734E408B3B98442B6
:101D400094BF00200120D9E7AB8ADB00103BDB0801
:101D500073801024E5E73B1D0093214600230822F1
:101D6000284601F023FC08340137DFE7201A18BFAA
:101D70000120C3E730B5094D0A4491420DD011F856
:101D8000013B5840082340F30004013B2C4013F072
:101D9000FF0384EA5000F6D1EFE730BD2083B8EDB1
:101DA000F7B54FF0FF33DFF854C0DFF854E000EB35
:101DB00081011A4688421CD050F8044B019401AFAF
:101DC000042417F8015B82EA05620825DB18164631
:101DD00005F1FF355241002EBCBF83EA0C0382EAB5
:101DE0000E0215F0FF05F1D1013C14F0FF04E8D11B
:101DF000E0E7D843D14303B0F0BD00BF9336EAA972
:101E0000EBE1F042F7B5384A106851686B4603C3FE
:101E10006A4636493648082304F096FB04460028F3
:101E200033D10A25334A106851686B4603C36A46AA
:101E300031492F48082304F087FB0446002849D085
:101E40000369B3F5702F45D8B0F8661040F2F6324A
:101E500091423FD1294A024402F15C018B4239D3BD
:101E60005C3B234900209E1AFFF784FF3246074659
:101E700004F164010020FFF77DFFA3689F4229D190
:101E8000E368984208BF002524E00369B3F5702F8A
:101E900027D8418B40F2F632914220D1174A0244B2
:101EA00002F110018B4218D3103B114900209D1AFA
:101EB000FFF760FF2A46064604F118010020FFF7ED
:101EC00059FFA3689E4202D1E368984201D00D25D4
:101ED000A8E70025284603B0F0BD1025A2E70C2591
:101EE000A0E70B259EE700BF20660008DCFF0E0080
:101EF000000001082966000890FF0E000800FFF7A7
:101F000010B5037C044613B9006804F005FB2046B5
:101F100010BD00000023BFF35B8FC360BFF35B8F76
:101F2000BFF35B8F8360BFF35B8F7047BFF35B8F43
:101F30000068BFF35B8F704770B505460C30FFF744
:101F4000F5FF05F1080604463046FFF7EFFFA04213
:101F500006D930466D68FFF7E9FF2544281A70BDA1
:101F60003046FFF7E3FF201AF9E7000070B5054699
:101F7000406898B105F10800FFF7D8FF05F10C069D
:101F800004463046FFF7D2FF8442304694BF6D6866
:101F90000025FFF7CBFF013C2C44201A70BD000048
:101FA00038B50C460546FFF7C7FFA04210D305F130
:101FB0000800FFF7BBFF04446868B4FBF0F100FBC6
:101FC0001144BFF35B8F0120AC60BFF35B8F38BD62
:101FD0000020FCE72DE9F041144607460D46FFF7C7
:101FE000C5FF844228BF0446D4B1B84658F80C6BEC
:101FF0004046FFF79BFF3044286040467E68FFF76D
:1020000095FF331A9C4203D86C600120BDE8F08133
:102010006B60A41B3B68AB602044E8600220F5E7DE
:102020002046F3E738B50C460546FFF79FFFA04270
:1020300010D305F10C00FFF779FF04446868B4FB86
:10204000F0F100FB1144BFF35B8F0120EC60BFF3A4
:102050005B8F38BD0020FCE72DE9FF4188466946CB
:102060000746FFF7B7FF6C4606B204EBC60600252D
:10207000B44209D06268206808EB0501FFF7B8FB9D
:10208000636808341D44F3E729463846FFF7CAFF62
:10209000284604B0BDE8F081F8B505460C300F467F
:1020A000FFF744FF05F1080604463046FFF73EFF00
:1020B000A042304688BF6C68FFF738FF201A3860AE
:1020C00020B130462C68FFF731FF2044F8BD0000F6
:1020D00073B5144606460D46FFF72EFF844228BF0F
:1020E00004460190DCB101A93046FFF7D5FF019B02
:1020F00033B93268C5E90233C5E9002401200CE098
:102100009C4238BF01942860019868608442F5D9E8
:102110003368AB60241AEC60022002B070BD204628
:10212000FBE700002DE9FF410F466946FFF7D0FFAE
:102130006C4600B204EBC0050026AC4209D0D4F8CE
:10214000048054F8081BB8194246FFF751FB464477
:10215000F3E7304604B0BDE8F081000038B505462D
:10216000FFF7E0FF044601462846FFF719FF204627
:1021700038BD00000121884238BF084604F0B6B9D6
:1021800008B104F0C9B9704710B4026854681A461F
:1021900023465DF8044B1847002070470020704725
:1021A00070470000002070470E20704700F58050F7
:1021B00090F8D800C0F340007047000000F5805050
:1021C00090F9E0007047000000F58050C0F8DC1086
:1021D00001207047F7B50C68BDF8207014F000546A
:1021E00073D10D7B082D70D8302585F31188456A91
:1021F000AE6876010CD4AC68240108D4AC6814F045
:10220000805460D184F31188204603B0F0BD0124CE
:102210000E6804F1180C002EB8BFF6004FEA0C1C33
:10222000B4BF46F00406760545F80C600E680FFA58
:1022300084FC16F0804F18BF05EB0C1E05EB0C1C40
:102240001EBFDEF8806146F00206CEF880610E7B8C
:10225000CCF8846105EB04158E68C5F88C614E6876
:10226000C5F88861DCF8805145F00105CCF8805153
:1022700041F2780500EB441C660105EB4414AC44C4
:102280000444CCE900230D46083401F10C0C55F848
:1022900004EB44F804EB6545F9D12D8825808419B9
:1022A00004F5805407F0030594F8946026F00B06BB
:1022B000354384F89450002484F31188009700F08B
:1022C00035FD0120A1E70224A2E74FF0FF309CE793
:1022D00013B500F580540191E06EFFF747FE1F280B
:1022E0000AD90199E06E2022FFF7B6FEA0F1200383
:1022F0005842584102B010BD0020FBE708B530231A
:1023000083F3118800F58050C06EFFF703FE0023B1
:1023100083F3118808BD00000022026082814260C0
:102320008260704710B500220023C0E9002300231B
:10233000044603810C30FFF7EFFF204610BD00007C
:10234000F0B5054600F580500C4690F8D83013F0F3
:10235000040FC3F3800108BF114661F3820380F8C4
:10236000D83005EB441303F58453103389B01B793F
:10237000D8074FEA44162FD582B319072ED46846E2
:10238000FFF7D0FF05EB441303F5845303AA03F1D1
:10239000080718685968144603C40833BB4222462C
:1023A000F7D1186820609B88A380DDE90E23CDE972
:1023B00000230123ADF808302B6869461B6C2846C2
:1023C0009847354405F5845510352B791A075CBFBD
:1023D00043F008032B7101E0002AF2D109B0F0BDEF
:1023E0002DE9F0479A4688B0074688469146302343
:1023F00083F3118807F580546846FFF793FFE06E7A
:10240000FFF79AFD1F282AD9E06E20226946FFF7C0
:10241000A5FE202823D103AD444605AB2E4603CEAE
:102420009E4220606160354604F10804F6D13068B0
:102430002060B388A380DDE90023C9E90023BDF84B
:102440000830AAF80030002383F3118853464A4627
:102450004146384608B0BDE8F04700F02BBC0020EC
:1024600080F3118808B0BDE8F08700002DE9F84F2F
:10247000182204460F4604300021FFF7DFF92046FA
:10248000234B40F8283BFFF747FF04F13800FFF7E4
:1024900049FF04F1580804F5825546461835304680
:1024A0002036FFF73FFFAE42F9D104F580554FF4D7
:1024B00080534FF00009C5E91739C5F8588001234A
:1024C000EE6604F5875804F58456C5F8649085F8DF
:1024D000683085F87030183608F118084FF0000A97
:1024E0004FF0000B46E908ABA6F11800FFF714FF08
:1024F000203646F8289C4645F4D185F8E07017B19F
:10250000044800F0C3FB044B63622046BDE8F88F2B
:102510005C660008346600080064004010B5044B97
:10252000197804464A1C1A70FFF7A0FF204610BD18
:10253000744B00202DE9F047002950D0294B2A4F39
:10254000B7FBF1F599428CBF0A231123581EB5FB46
:10255000F3FC03FB1C53C4B22BB102280346F5D88D
:102560000020BDE8F0870CF1FF36B6F5806FF7D29A
:10257000C4EBC40E0EF103034FEAE309C3F3C70330
:10258000A4EB030809F1010A4FF47A755FFA88F0A9
:1025900009FB05555AFA88F8B5FBF8F5B5F5617FE2
:1025A000C1BF0EF1FF33C3F3C703E01AC0B25C1C16
:1025B00050FA84F40CFB04F4B7FBF4F4A142CFD13D
:1025C000013BDBB20F2BCBD80138C0B20728C7D8EC
:1025D0000021107116809170D3700120C1E7084668
:1025E000BFE700BF3F420F0080DE800270B50546A6
:1025F0000E464FF47A746B6A5B6803F00103B342D2
:1026000007D04FF47A7002F025F9013CF3D120464F
:1026100070BD0120FCE7000070B5426A936913F0B9
:10262000700F17D000230C4D936141F2900400EB22
:102630004312224411794E0709D5890707D5416A0B
:1026400055F823608E60117941F004011171013356
:10265000032BECD170BD00BF4866000873B51D4662
:10266000436A16469A68D207044609D59A6801213A
:102670009960C2F34002CDE900650021FFF760FEDA
:10268000636A9A68D1050BD59A684FF48071996096
:10269000C2F34022CDE9006501212046FFF750FE3C
:1026A000636A9A68D2030BD59A684FF480319960B7
:1026B000C2F34042CDE9006502212046FFF740FE0B
:1026C00004F58053D3F8DC0010B103681B69984708
:1026D000204602B0BDE87040FFF79EBFF8B5044643
:1026E000466A002977D106F10C073868800775D053
:1026F00006EB01153868D5F8B00110F0040FD5F8D5
:10270000B0011ABFC00840F00040400DA062D5F8EB
:10271000B0C11CF0020F1CBF40F08040A062D5F891
:10272000B40106EB011100F00F0084F83400D1F879
:10273000B80184F82C00D1F8B801000A84F82D0003
:10274000D1F8B801000C84F82E00D1F8B801000EC1
:1027500084F82F00D1F8BC0184F83000D1F8BC0116
:10276000000A84F83100D1F8BC01000C84F8320072
:10277000D1F8BC11090E84F833103821396004F106
:10278000440004F1280104F1340551F8046B40F8C9
:10279000046BA942F9D109880180C4E90E232146BE
:1027A0000023A4F8403051F8383B20461B6C984772
:1027B00004F5805393F8D820D3F8DC0042F00402EB
:1027C00083F8D82010B103681B6998472046BDE8FC
:1027D000F840FFF721BF06F1100786E7F8BD0000BB
:1027E00010B5044600F05AFA02460B4652EA0301BD
:1027F00002D0013A63F100030449086820B1214680
:10280000BDE81040FFF76ABF10BD00BF704B00204D
:10281000F0B5302181F31188DFF848E000F58351ED
:102820001831002441F2900C00EB441565442E79D8
:1028300077070ED4F6060CD5D1E9007697429E4173
:1028400007D2466A5EF82470B7602E7946F0040617
:102850002E710134032C01F12001E5D1002383F313
:102860001188F0BD4866000808B5302383F311884D
:10287000FFF7D2FE002383F3118808BD2DE9F04154
:10288000436A0446986800F0E050B0F1E05F0E46FD
:1028900022D0F8B1302383F31188002504F5845742
:1028A00041F2900804EB451343441B791A0706D5FF
:1028B0000135032D07F12007F4D1012007E05B0764
:1028C000F6D43946304600F083FA0028F0D10023D0
:1028D00083F31188BDE8F0810120FBE708B53023C0
:1028E00083F3118800F58050C06EFFF725FB0023AD
:1028F00083F3118843090CBF0120002008BD0000AC
:10290000F8B51D46002313700F4606461446FFF720
:10291000E5FF80F00100387025B129463046FFF709
:10292000ADFF2070F8BD00002DE9B8410C461546FA
:102930001F46804600F0B2F90B462178024609B9DD
:10294000287850B14046FFF763FFFFF78DFF3B4605
:102950002A462146FFF7D4FF0120BDE8B8810000D8
:1029600070B5302686F31188174B1A6C42F000724E
:102970001A641A6A42F000721A621A6A22F000722D
:102980001A62002383F3118800F5805494F8D8303C
:1029900013F0010516D1A9B186F311880321132084
:1029A00001F01EFA0321142001F01AFA0321152068
:1029B00001F016FA94F8D83043F0010384F8D830C7
:1029C00085F3118870BD00BF003802402DE9F04743
:1029D00000F5805588B095F8E030012B0446884614
:1029E000164600F28280824F57F823200AB947F832
:1029F0002300D7F800A0C4F81C8084F82060BAF146
:102A0000000F64D095F8E030012B70D001212046F2
:102A1000FFF7A6FF302383F31188626A136823F05F
:102A200002031360626A136843F001031360636A70
:102A300000275F6187F3118801212046FFF7D6FD4B
:102A4000002800F09580E86EFFF764FA04F58359DA
:102A5000BA4609F11809202200216846FEF7EEFE69
:102A600002A8FFF759FCCDF818A06A4609EB070346
:102A70000DF1180E9446BCE80300F4451860596047
:102A8000624603F10803F5D1DCF800001860203736
:102A90009CF804201A71602FDDD195F8D8306FF3BF
:102AA0008203002785F8D8306A4641462046ADF8B3
:102AB0000070ADF802708DF80470FFF73BFD636A9B
:102AC00048BB4FF400421A6008B0BDE8F08741F2FD
:102AD000E800FFF74FFB814610B15146FFF7C6FCF7
:102AE000C7F80090B9F1000F8CD10020ECE73868EE
:102AF00003681B6B98470146002887D13868FFF7A9
:102B00002FFF3868036832465B68414698470028C3
:102B10007FF47CAFE9E761221A609DF802309DF8EE
:102B200003201B06120402F4702203F040731343C7
:102B3000BDF80020C2F3090213439DF804201205DA
:102B4000022E02F4E0020CBF4FF0004100211343BB
:102B5000626A0B43D361636A13225A61626A136823
:102B600023F00103136039462046FFF73FFD08B903
:102B7000636AA6E795F8E03093BB616AD1F800225A
:102B800042F00102C1F80022616AD1F8002222F469
:102B90007C5222F00E02C1F80022616AD1F80022B4
:102BA00042F46062C1F80022626AC2F81432626ABA
:102BB000C2F80432626A41F6FF71C2F80C12626A0E
:102BC000C2F84032626AC2F84432636A0122C3F832
:102BD0001C22626AD2F8003223F00103C2F80032EC
:102BE00095F8D83043F0020385F8D8306CE700BF81
:102BF000704B002008B500F051F850EA010302467E
:102C000002D0421E61F10001044B186810B10B465E
:102C1000FFF724FDBDE8084001F0B8B8704B002074
:102C200008B50020FFF7DCFDBDE8084001F0AEB8B4
:102C300008B50120FFF7D4FDBDE8084001F0A6B8B3
:102C400000B59BB0EFF3098168226846FEF7D0FD1E
:102C5000EFF30583014B9B6BFEE700BF00ED00E047
:102C600008B5FFF7EDFF000000B59BB0EFF3098159
:102C700068226846FEF7BCFDEFF30583014B5B6BF2
:102C8000FEE700BF00ED00E0FEE700000FB408B56E
:102C9000029801F085FDFEE702F004BA02F0E6B901
:102CA0000139C9B202299EBF00EBC1000023C0E96F
:102CB00001337047F8B51B885B0705460E4615D4EF
:102CC000044600F11807BC4210D0636853B12B686A
:102CD0002846DB6B9847A368C1B2324660689847C4
:102CE0000834F0E7A368002BF1D1F9E70120F8BD23
:102CF00073B56C4684E80600014600224E68D5B2E2
:102D00006EB98E685EB900EBC200021D94E8030044
:102D1000013582E803001D70012002B070BD013250
:102D2000032A01F10801E9D10020F6E72DE9F04F6F
:102D300089B00446BDF848700E46054600F11808F3
:102D40004FF0000907F004074FF0000A4FF0000BA6
:102D5000A84538D06B680BB9AB684BB157B923683D
:102D60002046DB6B9847AB68C1B23246686898472B
:102D70000835EDE7B9F1000FFAD1CDE900ABADF8B8
:102D80000890334603AA06F1080E1868596894465D
:102D9000ACE80300083373456246F6D11868CCF8F6
:102DA00000009B88ACF80430FFF778FF0423ADF8EF
:102DB00008302368CDE900011B6C6946204698471E
:102DC0004FF00109D4E7012009B0BDE8F08F000001
:102DD00030B503680968DD0FB5EBD17F23F060449F
:102DE00021F060424FEAD1700BD0002BB8BFA40C89
:102DF0000029B8BF920C944202D034BF01200020B9
:102E000030BD944205D1C1F38070C3F38073834217
:102E1000F6D194422CBF00200120F1E72DE9F041CA
:102E2000456A15B94162BDE8F0814B6823F06047FF
:102E3000C3F38A464FEAD37EC3F3807816EA2306AB
:102E400038BF3E46AC462B465A68BEEBD27F22F0D6
:102E500060440AD0002A18DAA40CB44217D19D426B
:102E60000FD10D60DEE71346EEE7A74207D102F06F
:102E70008044C2F3807242450BD054B1EFE708D2D0
:102E8000EDE7CCF800100B60CDE7B44201D0B442BE
:102E9000E5D81A689C46002AE5D11960C3E700000E
:102EA0002DE9F047089D01F007044FEAD5082244B8
:102EB00005F0070500EBD1004FF47F49944201D1A2
:102EC000BDE8F08704F0070705F0070A57453E46BE
:102ED00038BF5646C6F10806111B8E4228BF0E4663
:102EE000E10808EBD50E415C13F80EC0B94029FA91
:102EF00006F721FA0AF1FFB28CEA010147FA0AF754
:102F000039408CEA010C03F80EC034443544D5E74F
:102F100080EA0120082341F2210201B24000002989
:102F200080B203F1FF33B8BF504013F0FF03F4D178
:102F30007047000038B50C468D18A54200D138BD49
:102F400014F8011BFFF7E4FFF7E7000042684AB1FD
:102F5000136843604389818901339BB2994243815D
:102F600038BF83811046704770B588B02022044670
:102F70000D4668460021FEF761FC20460495FFF7E8
:102F8000E5FF024658B16B46054608AE1C4603CC29
:102F9000B44228606960234605F10805F6D1104661
:102FA00008B070BD082817D909280CD00A280CD001
:102FB0000B280CD00C280CD00D280CD00E2814BFD8
:102FC0004020302070470C2070471020704714209C
:102FD000704718207047202070470000082817D934
:102FE0000C280CD910280CD914280CD918280CD965
:102FF00020280CD930288CBF0F200E2070470920C4
:1030000070470A2070470B2070470C2070470D2036
:10301000704700002DE9F843078C072F04461ED99E
:10302000D0E9029800254FF6FF73C5F12006A5F1FF
:10303000200029FA05F108FA06F628FA00F03143D3
:103040000143C9B21846FFF763FF0835402D034618
:10305000EBD1E1693A46BDE8F843FFF76BBF4FF6A5
:10306000FF70BDE8F883000010B54B6823B9CA8A29
:1030700063F30902CA8210BD04691A681C60036107
:10308000C38A013BC3824A60EFE700002DE9F84F95
:103090001D46CB8A0F46C3F3090105298146924696
:1030A0000B4630D00020AAB207F11A049EB2042EBB
:1030B0001FFA80F80FD8904503F1010306D3FB8A6D
:1030C0000A4462F30903FB8201201AE01AF8006047
:1030D000E6540130EAE79045F1D2A1F1050B1C233B
:1030E0007C68BBFBF3F203FB12BB1FFA8BF6002CD0
:1030F00045D14846FFF72AFF044638B978606FF09B
:103100000200BDE8F88F4FF00008E6E700260660F1
:103110007860ADB24FF0000B454510D90AEB0803BB
:10312000221D13F8011B9155B1B208F101081B29AA
:103130001FFA88F82BD0454506F10106F1D8FB8A25
:10314000C3F30902154465F30903BCE7013292B2E7
:103150001C462368002BF9D16B1F0B441C21B3FBC9
:10316000F1F301339BB29A42D3D2BBF1000FD0D11D
:103170004846FFF7EBFE20B9C4F800B0BFE70122D4
:10318000E7E7C0F800B05E4620600446C1E7454569
:10319000D5D94846FFF7DAFE08B92060AFE7C0F896
:1031A00000B0002620600446B6E700002DE9F04F8D
:1031B0002DED028B1C4683B05B6901920746884661
:1031C000002B00F0A780238C2BB1E269002A00F0CD
:1031D000A180072B35D807F10C00FFF7B7FE054695
:1031E00038B96FF00205284603B0BDEC028BBDE88C
:1031F000F08F14220021FEF721FB228CE16905F1FA
:103200000800FEF7F5FA208C013080B2FFF7E6FEE9
:10321000FFF7C8FE013880B220840130287463694A
:10322000228C1B782A4403F01F0363F03F0348F00D
:1032300000411372384669602946FFF7EFFD01250A
:10324000D1E702339BB20722C18A0633B3FBF2F304
:10325000828A521A9BB292B29342C2D800F10C03F6
:103260004FF0000908EE103A4FF0800A4E464D46E6
:1032700018EE100AFFF76AFE83460028B1D0142228
:103280000021FEF7DBFA002E3AD1019BABF80830A3
:1032900002220BF1080E1FFA82FC0CF10100BCF1B6
:1032A000060F218C80B201D88E422BD3FFF796FEF9
:1032B000FFF778FE62691278013802F01F028E4231
:1032C00008BF4FF0400A42EA49121BFA80F14AEA6D
:1032D000020A013048F0004281F808A08BF8100083
:1032E000CBF8042059463846FFF798FD238C01356A
:1032F000B3422DB289F001094FF0000AB8D172E74C
:103300000022C6E7E169895D0EF802100136B6B207
:103310000132C0E76FF0010565E70000F8B515461A
:103320000E463022002104461F46FEF787FA069B10
:103330006360B5F5001F079BA76034BF6A094FF6AD
:10334000FF72A36297B2E66104F1100000239A4273
:1033500006D800230360A782E3822383E360F8BDDD
:103360000660013330462036F1E7000003781BB9D0
:103370004BB2002BC8BF0170704700000078704747
:10338000F8B50C46C969074611B9238C002B37D113
:10339000257E1F2D34D8387828BB228C072A2CD8BC
:1033A000268A36F003032BD14FF6FF70FFF7C2FDDC
:1033B00020F001003102400441EA0561400C41EA7D
:1033C00040254FF6FF72234629463846FFF7EEFEAA
:1033D000002807DD626913780133DBB21F2B88BF39
:1033E00000231370F8BD218A2D0645EA0125054307
:1033F0002046FFF70FFE0246E5E76FF00300F1E716
:103400006FF00100EEE7000070B58AB00446164682
:103410000021282268461D46FEF710FABDF8383014
:10342000ADF810300F9B05939DF840308DF81830A3
:10343000119B07936946BDF84830ADF8203020460F
:10344000CDE90265FFF79CFF0AB070BD2DE9F041A0
:10345000D36905460C4616460BB9138C5BBB377E09
:103460001F2F28D895F80080B8F1000F26D03046DD
:10347000FFF7D0FD3378210241EAC33141EA080168
:10348000338A41EA076141EA03410246334641F08B
:1034900080012846FFF78AFE00280ADD3378012BD9
:1034A00007D1726913780133DBB21F2B88BF002369
:1034B0001370BDE8F0816FF00100FAE76FF00300D0
:1034C000F7E70000F0B58BB004460D461746002123
:1034D000282268461E46FEF7B1F99DF84C305A1E68
:1034E000534253418DF800309DF84030ADF8103014
:1034F000119B05939DF848308DF81830149B079365
:103500006A46BDF85430ADF8203029462046CDE952
:103510000276FFF79BFF0BB0F0BD0000406A00B1E0
:1035200004307047436A1A68426202691A60036194
:10353000C38A013BC38270472DE9F041D0F8208057
:10354000194E14461D464146002709B9BDE8F081D1
:10355000D1E90223A21A65EB0303964277EB03033A
:103560001ED2036A8B420DD1FFF77EFD036A1B68F2
:10357000036203690B60C38A0161016A013BC38274
:103580008846E2E7FFF770FD0B68C8F80030036972
:103590000B60C38A0161013BC382D8F80010D4E7F5
:1035A00088460968D1E700BF80841E002DE9F04FEE
:1035B0008BB00D46DDF8509014469B46804600289F
:1035C00000F01981B9F1000F00F01581531E3F2B57
:1035D00000F21181012A03D1BBF1000F40F00B81F1
:1035E0000023CDE90833B8F81430B5EBC30F4FEA28
:1035F000C30703D300200BB0BDE8F08F2B199F4207
:10360000D8F80C303ABF7F1BFFB227461BB9D8F859
:103610001030002B7AD0272D4ED8C5F12806B7429E
:103620004FF000032CBFF6B23E4600932946D8F86F
:10363000080008AB3246FFF733FCA7EB060A354417
:103640005FFA8AFAB8F8143003F10053053BDB0047
:103650000493D8F80C3003932821039B13B1BAF1DB
:10366000000F2CD1D8F8100040B1BAF1000F05D0EE
:10367000009608AB5246691AFFF712FC38B2002FC9
:10368000B8D066070AD00AAB03EBD401624211F846
:10369000083C02F00702134101F8083C082C3CD911
:1036A000102C40F2B580202C40F2B780BBF1000F07
:1036B00000F09C80082334E0BA460026C2E7049B51
:1036C000E02B28BFE02306930B44AB42059314D9AB
:1036D0005A1B03980096924534BF5246D2B2691ADB
:1036E00008AB04300792FFF7DBFB079A1644AAEBFE
:1036F000020A1544F6B25FFA8AFA049B069A059903
:103700009B1A0493039B1B680393A6E70093D8F8C6
:10371000080008AB3A462946AEE7BBF1000F13D0CC
:103720000123B4EBC30F6CD0082C12D89DF82030C5
:10373000621E23FA02F2D50706D54FF0FF3202FAD5
:1037400004F423438DF820309DF8203089F80030B0
:1037500051E7102C12D8BDF82030621E23FA02F275
:10376000D10706D54FF0FF3202FA04F42343ADF837
:103770002030BDF82030A9F800303CE7202C0FD8CD
:103780000899631E21FA03F3DA0705D54FF0FF32DB
:1037900002FA04F40C430894089BC9F800302AE7A5
:1037A000402C2BD0DDE90865611EC4F12102A4F193
:1037B000210326FA01F105FA02F225FA03F3114377
:1037C0001943CB0712D50122A4F12003C4F1200133
:1037D00002FA03F322FA01F1A240524243EA010342
:1037E00063EB430332432B43CDE90823DDE9082390
:1037F000C9E90023FFE66FF00100FCE66FF0080066
:10380000F9E6082CA0D9102CB3D9202CEED8C3E7A8
:10381000BBF1000FADD0022383E7BBF1000FBBD09B
:1038200004237EE730B5012A144638BF0124402C1A
:1038300085B028BF40240025012ACDE9025518D8BB
:103840001B788DF8083063070AD004AB03EBD4056E
:10385000624215F8083C02F00702934005F8083C64
:10386000009103462246002102A8FFF719FB05B08C
:1038700030BD082AE4D9102A03D81B88ADF80830D7
:10388000E1E7202A8DBFD3E900231B680293CDE92D
:103890000223D8E710B5CB681BB98B600B618B8214
:1038A00010BD04691A681C600361C38A013BC382AE
:1038B000CA60F0E703064CBFC0F3C0300220704777
:1038C00008B50246FFF7F6FF022806D15306C2F3F9
:1038D0000F2001D100F0030008BDC2F30740FBE751
:1038E0002DE9F04F93B0CDE903230A680446104652
:1038F000FFF7E0FF022814BFC2F306260026002AC5
:103900000D46824680F2F78112F0C04940F0F38103
:10391000097B002900F0EF81022803D02378B3420D
:1039200040F0EC81C2F304630693104602F07F037B
:103930000593FFF7C5FF059B29444FEA834848EAF2
:103940000A4848EA4668CE7800230022CDE90823D9
:10395000F309834648EA0008029367D0059B009369
:1039600002466768534608A92046B847002800F079
:10397000C881276A4FB9414604F10C00FFF7F4FAF9
:10398000074690B96FF0020054E03B6998450DD0AE
:103990003F68002FF9D1414604F10C00FFF7E4FA2B
:1039A00007460028EED0236A3B60276297F817C0CD
:1039B00006F01F08CCF3840CACEB08001FFA80FE65
:1039C0000028B8BF0EF12000A8EB0C031FFA83FEFD
:1039D000D7E90221B8BF00B2002B0793BEBF0EF19A
:1039E00020031BB2079352EA010338D0039BDFF890
:1039F00024E39A1A049B4FF0000C63EB01019645F7
:103A00007CEB01032BD36B7B97F81AE0734519D13C
:103A1000029B002B78D0012821DC7868F8B9DFF808
:103A2000F0C2944570EB010316D337E0276A27B93B
:103A30006FF00C0013B0BDE8F08F3B699845B5D02E
:103A40003F68F4E7B24890427CEB010301D30020C9
:103A5000F0E7029B002BFAD0079B0F2B17DCFA7DB7
:103A6000B30002F0030203F07C031343FB753946F5
:103A70002046FFF7F9FA6B7BBB76029B3BB9FB7DD7
:103A8000C3F38402013262F38603FB75D0E76A7BDD
:103A9000BB7E9A42DBD1029B002B35D0B309022BAF
:103AA00032D0039BBB60049BFB60142200210DA855
:103AB000FDF7C4FE039B0A93049B0B932B1D0C93F1
:103AC0002B7BADF83EB0013BDBB2ADF83C30069B42
:103AD0008DF84230059B8DF8433094F82C308DF8EA
:103AE00040A083F001038DF844308DF84180A36835
:103AF0000AA920469847FB7DC3F38403013303F0F2
:103B00001F039B02FB82A2E7FB7DC6F34012B2EBD0
:103B1000D31F40F0F980C3F38403434540F0FC8099
:103B2000029A2B7BB609002A52D016F0010661D109
:103B3000032B40F2F480039BBB60049BFB60FB8A79
:103B400066F30903FB822B7BAE1D033BDBB23246DF
:103B5000394604F10C00FFF799FA00280CDA3946CF
:103B60002046FFF781FAFB7DC3F38403013303F0A2
:103B70001F039B02FB8205E7DDE90884AB883B83DA
:103B80004FF6FF73C9F12000A9F1200228FA09F1CC
:103B900004FA00F0014324FA02F211431846C9B2B4
:103BA000FFF7B6F909F10809B9F1400F0346E9D169
:103BB000B8822A7B033AD2B23146FFF7BBF9FB7DCC
:103BC000B882DA43C2F3C01262F3C713FB753EE753
:103BD00086B92E1D013BDBB23246394604F10C009A
:103BE000FFF754FA0028BADB2A7BB88A013AD2B22E
:103BF0003146E2E7F98AC1F30901013B0429DAB24F
:103C00005BD8281D002307F11B069A4208D910F83B
:103C100001CB06F801C0013101330529DBB2F4D133
:103C200003990A9104990B91934207F11B010C919E
:103C300038BF043379680D9134BF55FA83F30023FC
:103C40000E93FB8AADF83EB0C3F309031A44069BFA
:103C50008DF84230059B8DF8433094F82C30ADF848
:103C60003C2083F001038DF8443000238DF840A000
:103C70008DF841807B602A7BB88A013A291DFFF7C5
:103C800059F93B8BB882834203D1A3680AA9204625
:103C9000984720460AA9FFF7FDFDFB7DBA8AC3F3CA
:103CA0008403013303F01F039B02FB823B8B9A4288
:103CB0000CBF00206FF01000BCE67B68002BAFD07B
:103CC000052001E01C3033461E68002EFAD1091A87
:103CD000081D2E1D184401EB090CBCF11B0F5FFAE7
:103CE00089F39DD89A429BD916F8013B00F8013B15
:103CF00009F10109EFE76FF009009BE66FF00A0098
:103D000098E66FF00B0095E66FF00D0092E600BFAD
:103D100040420F0080841E006FF00E008AE66FF0B4
:103D20000F0087E6EFF3098305494A6B22F0010291
:103D30004A63683383F30988002383F3118870474B
:103D400000EF00E0302080F3118862B60C4B0D4A82
:103D5000D96821F4E0610904090C0A43DA60D3F858
:103D6000FC20094942F08072C3F8FC200A6842F046
:103D700001020A602022DA7783F82200704700BF30
:103D800000ED00E00003FA05001000E010B530235C
:103D900083F311880E4B5B6813F4006314D0F1EECB
:103DA000103AEFF30984683C4FF08073E361094BEC
:103DB000DB6B236684F3098800F0BCFC10B1064B72
:103DC000A36110BD054BFBE783F31188F9E700BF42
:103DD00000ED00E000EF00E03F03000842030008B0
:103DE00000F1604303F561430901C9B283F8001390
:103DF000012200F01F039A4043099B0003F1604336
:103E000003F56143C3F880211A6070470268436874
:103E10001143016003B118477047000013B5446BAC
:103E2000D4F894341A681178042915D1217C022918
:103E300012D11979128901238B4013420CD101A9A7
:103E400004F14C0001F098FFD4F89444019B2179CF
:103E50000246206800F0D0F902B010BD143001F025
:103E60001BBF00004FF0FF33143001F015BF0000FE
:103E70004C3001F0EDBF00004FF0FF334C3001F04B
:103E8000E7BF0000143001F0E9BE00004FF0FF3141
:103E9000143001F0E3BE00004C3001F0B9BF000067
:103EA0004FF0FF324C3001F0B3BF000000207047EC
:103EB00010B5D0F894341A6811780429044617D143
:103EC000017C022914D15979528901238B40134274
:103ED0000ED1143001F07CFE024648B1D4F894446F
:103EE0004FF4807361792068BDE8104000F072B92A
:103EF00010BD0000406BFFF7DBBF00007047000003
:103F00007FB5124B036000234360C0E902330125F3
:103F100002260F4B057404460290019300F18402BF
:103F2000294600964FF48073143001F02DFE094BA2
:103F30000294CDE9006304F523724FF4807329469F
:103F400004F14C0001F0F4FE04B070BDA06600085E
:103F5000F53E00081D3E00080B68302282F31188F0
:103F60000A7903EB820290614A79093243F8220010
:103F70008A7912B103EB820398610223C0F894148A
:103F80000374002080F311887047000038B5037F68
:103F9000044613B190F85430ABB9201D012502211D
:103FA000FFF734FF04F1140025776FF0010100F0F2
:103FB00079FC84F8545004F14C006FF00101BDE825
:103FC000384000F06FBC38BD10B501210446043004
:103FD000FFF71CFF0023237784F8543010BD000046
:103FE00038B504460025143001F0E6FD04F14C001C
:103FF000257701F0B5FE201D84F854500121FFF70C
:1040000005FF2046BDE83840FFF752BF90F8443026
:1040100003F06003202B07D190F84520212A4FF0B0
:10402000000303D81F2A06D800207047222AFBD19C
:10403000C0E90E3303E0034A82630722C2630364CC
:10404000012070471D23002037B5D0F894341A683A
:104050001178042904461AD1017C022917D1197953
:10406000128901238B40134211D100F14C052846DF
:1040700001F036FF58B101A9284601F07DFED4F8C1
:104080009444019B21790246206800F0B5F803B002
:1040900030BD0000F0B500EB810385B09E69044699
:1040A0000D46FEB1302383F3118804EB8507301DE4
:1040B0000821FFF7ABFEFB685B691B6806F14C004B
:1040C0001BB1019001F066FE019803A901F054FEB6
:1040D000024648B1039B2946204600F08DF8002394
:1040E00083F3118805B0F0BDFB685A691268002A95
:1040F000F5D01B8A013B1340F1D104F14402EAE7F9
:10410000093138B550F82140DCB1302383F31188F0
:10411000D4F894241368527903EB8203DB689B691B
:104120005D6845B104216018FFF770FE294604F16F
:10413000140001F057FD2046FFF7BAFE002383F379
:10414000118838BD7047000001F0CCB8012303701E
:104150000023C0E90133C36183620362C362436227
:104160000363704738B50446302383F31188002574
:10417000C0E90355C0E90555416001F0C3F80223C9
:10418000237085F31188284638BD000070B500EB18
:10419000810305465069DA600E46144618B11022B4
:1041A0000021FDF74BFBA06918B110220021FDF79B
:1041B00045FB31462846BDE8704001F06DB900006E
:1041C000826802F0011282600022C0E9042282614A
:1041D00001F0EEB9F0B400EB81044789E4680125F1
:1041E000A4698D403D43458123600023A260636044
:1041F000F0BC01F009BA0000F0B400EB81040789BB
:10420000E468012564698D403D43058123600023F6
:10421000A2606360F0BC01F083BA000070B50223B5
:10422000002504460370C0E90255C0E90455C56481
:10423000856180F8345001F0CBF863681B6823B1C6
:1042400029462046BDE87040184770BD0378052B0D
:1042500010B504460AD080F8503005230370436837
:104260001B680BB1042198470023A36010BD000018
:104270000178052906D190F85020436802701B6828
:1042800003B118477047000070B590F83430044609
:1042900013B1002380F8343004F14402204601F0C9
:1042A000A9F963689B68B3B994F8443013F06005CA
:1042B00035D00021204601F049FC0021204601F0C4
:1042C0003BFC63681B6813B1062120469847062310
:1042D00084F8343070BD204698470028E4D0B4F804
:1042E0004A30E26B9A4288BFE36394F94430E56B4D
:1042F000002B4FF0300380F20381002D00F0F2809C
:10430000092284F8342083F311880021D4E90E2394
:104310002046FFF771FF002383F31188DAE794F852
:10432000452003F07F0343EA022340F20232934226
:1043300000F0C58021D8B3F5807F48D00DD8012B7F
:104340003FD0022B00F09380002BB2D104F14C023D
:10435000A2630222E2632364C1E7B3F5817F00F028
:104360009B80B3F5407FA4D194F84630012BA0D1B7
:10437000B4F84C3043F0020332E0B3F5006F4DD097
:1043800017D8B3F5A06F31D0A3F5C063012B90D837
:10439000636894F846205E6894F84710B4F8483093
:1043A0002046B047002884D04368A3630368E363D2
:1043B0001AE0B3F5106F36D040F6024293427FF414
:1043C00078AF5C4BA3630223E3630023C3E794F855
:1043D0004630012B7FF46DAFB4F84C3023F002036C
:1043E000C4E90E55A4F84C30256478E7B4F844309D
:1043F000B3F5A06F0ED194F8463084F84E302046C5
:1044000001F03EF863681B6813B10121204698470C
:10441000032323700023C4E90E339CE704F14F0308
:10442000A3630123C3E72378042B10D1302383F344
:1044300011882046FFF7C4FE85F3118803216368C5
:1044400084F84F5021701B680BB12046984794F8B0
:104450004630002BDED084F84F300423237063688D
:104460001B68002BD6D0022120469847D2E794F84B
:1044700048301D0603F00F0120460AD501F0ACF8C4
:10448000012804D002287FF414AF2B4B9AE72B4B62
:1044900098E701F093F8F3E794F84630002B7FF4A7
:1044A00008AF94F8483013F00F01B3D01A06204635
:1044B00002D501F05FFBADE701F052FBAAE794F8EB
:1044C0004630002B7FF4F5AE94F8483013F00F011E
:1044D000A0D01B06204602D501F038FB9AE701F078
:1044E0002BFB97E7142284F8342083F311882B46A2
:1044F0002A4629462046FFF76DFE85F31188E9E636
:104500005DB1152284F8342083F311880021D4E9A9
:104510000E232046FFF75EFEFDE60B2284F83420D2
:1045200083F311882B462A4629462046FFF764FE6E
:10453000E3E700BFD0660008C8660008CC66000844
:1045400038B590F834300446002B3ED0063BDAB242
:104550000F2A34D80F2B32D8DFE803F03731310877
:10456000223231313131313131313737C56BB0F829
:104570004A309D4214D2C3681B8AB5FBF3F203FB99
:1045800012556DB9302383F311882B462A462946EC
:10459000FFF732FE85F311880A2384F834300EE0E9
:1045A000142384F83430302383F3118800231A460F
:1045B00019462046FFF70EFE002383F3118838BD0D
:1045C000036C03B198470023E7E70021204601F080
:1045D000BDFA0021204601F0AFFA63681B6813B1F1
:1045E0000621204698470623D7E7000010B590F82B
:1045F0003430142B044629D017D8062B05D001D807
:104600001BB110BD093B022BFBD80021204601F055
:104610009DFA0021204601F08FFA63681B6813B1F0
:10462000062120469847062319E0152BE9D10B23D4
:1046300080F83430302383F3118800231A4619465A
:10464000FFF7DAFD002383F31188DAE7C3689B697B
:104650005B68002BD5D1036C03B19847002384F825
:104660003430CEE700230375826803691B689968BC
:104670009142FBD25A6803604260106058607047F4
:1046800000230375826803691B6899689142FBD80F
:104690005A680360426010605860704708B5084669
:1046A000302383F311880B7D032B05D0042B0DD011
:1046B0002BB983F3118808BD8B6900221A604FF073
:1046C000FF338361FFF7CEFF0023F2E7D1E9003229
:1046D00013605A60F3E70000FFF7C4BF054BD968C9
:1046E0000875186802681A60536001220275D86064
:1046F000FBF710BE804B002030B50C4BDD684B1C27
:1047000087B004460FD02B46094A684600F05EF990
:104710002046FFF7E3FF009B13B1684600F060F905
:10472000A86907B030BDFFF7D9FFF9E7804B00203B
:104730009D460008044B1A68DB6890689B689842A5
:1047400094BF002001207047804B0020084B10B51B
:104750001C68D86822681A60536001222275DC60E8
:10476000FFF78EFF01462046BDE81040FBF7D2BDA3
:10477000804B002038B5074C074908480123002525
:104780002370656001F0E4FB0223237085F3118838
:1047900038BD00BFE84D0020D8660008804B0020DF
:1047A00008B572B6044B186500F046FC00F0F8FC42
:1047B000024B03221A70FEE7804B0020E84D0020D8
:1047C00000F044B9034A516853685B1A9842FBD819
:1047D000704700BF001000E08B60022308618B82ED
:1047E000084670478368A3F1840243F8142C0269D9
:1047F00043F8442C426943F8402C094A43F8242CDE
:10480000C26843F8182C022203F80C2C002203F88B
:104810000B2C044A43F8102CA3F12000704700BF72
:104820002D030008804B002008B5FFF7DBFFBDE833
:104830000840FFF751BF0000024BDB6898610F2072
:10484000FFF74CBF804B0020302383F31188FFF724
:10485000F3BF000008B50146302383F31188082018
:10486000FFF74AFF002383F3118808BD064BDB687E
:1048700039B1426818605A60136043600420FFF742
:104880003BBF4FF0FF307047804B002003689842D9
:1048900006D01A680260506099611846FFF71CBF85
:1048A0007047000038B504460D462068844200D1A8
:1048B00038BD036823605C608561FFF70DFFF4E796
:1048C00010B503689C68A2420CD85C688A600B60D3
:1048D0004C602160596099688A1A9A604FF0FF33E2
:1048E000836010BD1B68121BECE700000A2938BF6B
:1048F0000A2170B504460D460A26601901F022FB14
:1049000001F00EFB041BA54203D8751C2E4604467D
:10491000F3E70A2E04D9BDE87040012001F058BB2E
:1049200070BD0000F8B5144B0D46D96103F11001BC
:1049300041600A2A1969826038BF0A220160486012
:104940001861A818144601F0EFFA0A2701F0E8FAF6
:10495000431BA342064606D37C1C281901F0F2FA39
:1049600027463546F2E70A2F04D9BDE8F840012072
:1049700001F02EBBF8BD00BF804B0020F8B5064605
:104980000D4601F0CDFA0F4A134653F8107F9F42AF
:1049900006D12A4601463046BDE8F840FFF7C2BFBF
:1049A000D169BB68441A2C1928BF2C46A34202D9EE
:1049B0002946FFF79BFF224631460348BDE8F840F1
:1049C000FFF77EBF804B0020904B002010B4C0E961
:1049D000032300235DF8044B4361FFF7CFBF0000C2
:1049E00010B5194C236998420DD0D0E90032816886
:1049F00013605A609A680A449A60002303604FF07B
:104A0000FF33A36110BD2346026843F8102F5360A3
:104A10000022026022699A4203D1BDE8104001F0F1
:104A20008BBA936881680B44936001F079FA22692C
:104A3000E1699268441AA242E4D91144BDE81040E9
:104A4000091AFFF753BF00BF804B00202DE9F04744
:104A5000DFF8BC8008F110072C4ED8F8105001F098
:104A60005FFAD8F81C40AA68031B9A423ED8144447
:104A7000D5E900324FF00009C8F81C4013605A60B5
:104A8000C5F80090D8F81030B34201D101F054FAC3
:104A900089F31188D5E9033128469847302383F3F9
:104AA00011886B69002BD8D001F03AFA6A69A0EB43
:104AB00004094A4582460DD2022001F089FA0022FB
:104AC000D8F81030B34208D151462846BDE8F04727
:104AD000FFF728BF121A2244F2E712EB090938BF88
:104AE0004A4629463846FFF7EBFEB5E7D8F81030BE
:104AF000B34208D01444211AC8F81C00A960BDE8CC
:104B0000F047FFF7F3BEBDE8F08700BF904B0020F1
:104B1000804B002038B501F003FA054AD2E9084578
:104B2000031B181945F10001C2E9080138BD00BF97
:104B3000804B002000207047FEE700007047000017
:104B40004FF0FF307047000002290CD0032904D039
:104B50000129074818BF00207047032A05D80548D7
:104B600000EBC2007047044870470020704700BF48
:104B7000B06700082C2300206467000870B59AB065
:104B80000546084601A9144600F0C2F801A8FCF742
:104B90004DFE431C5B00C5E9003400222370032353
:104BA0006370C6B201AB02341046D1B28E4204F13A
:104BB000020401D81AB070BD13F8011B04F8021CDE
:104BC00004F8010C0132F0E708B5302383F31188B3
:104BD0000348FFF739FA002383F3118808BD00BFAB
:104BE000F04D002090F8443003F01F02012A07D155
:104BF00090F845200B2A03D10023C0E90E3315E0BD
:104C000003F06003202B08D1B0F848302BB990F89E
:104C10004520212A03D81F2A04D8FFF7F7B9222AF2
:104C2000EBD0FAE7034A82630722C26303640120E0
:104C3000704700BF2423002007B5052917D8DFE8F7
:104C400001F0191603191920302383F31188104A33
:104C500001900121FFF79AFA01980E4A0221FFF70D
:104C600095FA0D48FFF7BCF9002383F3118803B0D0
:104C70005DF804FB302383F311880748FFF786F9BA
:104C8000F2E7302383F311880348FFF79DF9EBE740
:104C90000467000828670008F04D002038B50C4D67
:104CA0000C4C0D492A4604F10800FFF767FF05F197
:104CB000CA0204F110000949FFF760FF05F5CA7246
:104CC00004F118000649BDE83840FFF757BF00BFA0
:104CD000B85200202C230020E4660008EE6600088D
:104CE000F966000870B5044608460D46FCF79EFDBF
:104CF000C6B22046013403780BB9184670BD32465F
:104D00002946FCF77FFD0028F3D10120F6E70000DB
:104D10002DE9F04705460C46FCF788FD2B49C6B245
:104D20002846FFF7DFFF08B10B36F6B228492846C0
:104D3000FFF7D8FF08B11036F6B2632E0BD8DFF8B4
:104D40008C80DFF88C90234FDFF894A02E7846B942
:104D50002670BDE8F08729462046BDE8F04701F0FF
:104D600015BC252E2ED1072241462846FCF74AFDC8
:104D700070B9194B224603F1100153F8040B42F8A5
:104D8000040B8B42F9D11B88138007351234DDE701
:104D9000082249462846FCF735FD98B90F4BA21C5E
:104DA000197809090232C95D02F8041C13F8011BC5
:104DB00001F00F015345C95D02F8031CF0D118340E
:104DC0000835C3E704F8016B0135BFE7D067000879
:104DD000F9660008D8670008AA650008107AFF1F66
:104DE0001C7AFF1FBFF34F8F024AD368DB03FCD44A
:104DF000704700BF003C024008B5094B1B7873B9EF
:104E0000FFF7F0FF074B1A69002ABFBF064A5A6036
:104E100002F188325A601A6822F480621A6008BD72
:104E200016550020003C02402301674508B50B4B96
:104E30001B7893B9FFF7D6FF094B1A6942F000427D
:104E40001A611A6842F480521A601A6822F4805279
:104E50001A601A6842F480621A6008BD1655002074
:104E6000003C02400B28F0B516D80C4C0C492378B6
:104E70007BB90C4D0E460C234FF0006255F8047BB5
:104E800046F8042B013B13F0FF033A44F6D101230B
:104E9000237051F82000F0BD0020FCE748550020A9
:104EA00018550020EC670008014B53F820007047AC
:104EB000EC6700080C2070470B2810B5044601D998
:104EC000002010BDFFF7CEFF064B53F824301844E6
:104ED000C21A0BB90120F4E712680132F0D1043B89
:104EE000F6E700BFEC6700080B2810B5044621D890
:104EF000FFF778FFFFF780FF0F4AF323D360C3006B
:104F0000DBB243F4007343F002031361136943F40B
:104F100080331361FFF766FFFFF7A4FF074B53F8D9
:104F2000241000F039F9FFF781FF2046BDE810405A
:104F3000FFF7C2BF002010BD003C0240EC67000834
:104F4000F8B512F00103144642D18218B2F1016F94
:104F500057D82D4B1B6813F0010352D02B4DFFF790
:104F60004BFFF323EB60FFF73DFF40F20127032CDB
:104F700015D824F001046618244C401A40F2011799
:104F8000B142236900EB010524D123F00103236121
:104F9000FFF74CFF0120F8BD043C0430E7E783072E
:104FA000E7D12B6923F440732B612B693B432B61C1
:104FB00051F8046B0660BFF34F8FFFF713FF0368D0
:104FC0009E42E9D02B6923F001032B61FFF72EFFEE
:104FD0000020E0E723F44073236123693B4323610E
:104FE0000B882B80BFF34F8FFFF7FCFE2D8831F825
:104FF000023BADB2AB42C3D0236923F0010323616E
:10500000E4E71846C7E700BF00380240003C024012
:10501000084908B50B7828B11BB9FFF7EDFE01234D
:105020000B7008BD002BFCD0BDE808400870FFF7EE
:10503000FDBE00BF1655002008B50649064800F021
:10504000ADF8BDE808404FF480314FF0805000F0DB
:10505000A5B800BF00FF010000010020084611466E
:1050600001F044BA084601F057BA000038B5EFF332
:1050700011859DB9EFF30584C4F30804302334B1DE
:1050800083F31188FFF746FD85F3118838BD83F35C
:105090001188FFF73FFD84F3118838BDBDE8384023
:1050A000FFF738BD38B5FFF7E1FF114C114AC008D2
:1050B00040EA4170A0FB025EC908A0FB040C1CEB97
:1050C000050CA1FB04404FF000035B41A1FB021261
:1050D0001CEB040C43EB000011EB0E0142F100024B
:1050E000411842F10000090941EA007038BD00BFD3
:1050F000CFF753E3A59BC42010B50244064BD2B2B0
:10510000904200D110BD441C00B253F8200041F879
:10511000040BE0B2F4E700BF502800400F4B30B55D
:105120001C6F240407D41C6F44F400741C671C6FAC
:1051300044F400441C670A4C236843F480732360E2
:105140000244084BD2B2904200D130BD441C00B2A0
:1051500051F8045B43F82050E0B2F4E70038024015
:10516000007000405028004007B5012201A900202E
:10517000FFF7C2FF019803B05DF804FB13B50446C6
:10518000FFF7F2FFA04205D0012201A900200194FF
:10519000FFF7C4FF02B010BD704700007047000069
:1051A00070470000074B45F255521A6003225A60BF
:1051B00040F2FF729A604CF6CC421A60024B012218
:1051C0001A7070470030004050550020034B1B7888
:1051D0001BB1034B4AF6AA221A60704750550020B3
:1051E00000300040034B1A681AB9034AD2F87428F9
:1051F0001A6070474C55002000300240024B4FF0BF
:105200008072C3F8742870470030024008B5FFF779
:10521000E9FF024B1868C0F3407008BD4C550020F0
:1052200008B5FFF7DFFF024B1868C0F3007008BD38
:105230004C55002070470000FEE700000A4B0B4869
:105240000B4A90420BD30B4BDA1C121AC11E22F0F0
:1052500003028B4238BF00220021FCF7EFBA53F85B
:10526000041B40F8041BECE7086A00084C560020B9
:105270004C5600204C56002070B5D0E915439E686E
:1052800000224FF0FF3504EB42135101D3F800091F
:105290000028BEBFD3F8000940F08040C3F80009E1
:1052A000D3F8000B0028BEBFD3F8000B40F08040BD
:1052B000C3F8000B013263189642C3F80859C3F8CB
:1052C000085BE0D24FF00113C4F81C3870BD000039
:1052D000890141F02001016103699B06FCD4122081
:1052E000FFF770BA10B5054C2046FEF72FFF4FF0C0
:1052F000A0436365024BA36510BD00BF5455002059
:105300004068000870B50378012B054650D12A4B40
:10531000446D98421BD1294B5A6B42F080025A636C
:105320005A6D42F080025A655A6D5A6942F0800205
:105330005A615A6922F080025A610E2143205B694A
:10534000FEF74EFD1E4BE3601E4BC4F800380023F1
:10535000C4F8003EC02323606E6D4FF40413A363B2
:105360003369002BFCDA012333610C20FFF72AFAA2
:105370003369DB07FCD41220FFF724FA3369002BD2
:10538000FCDA0026A6602846FFF776FF6B68C4F8B3
:105390001068DB68C4F81468C4F81C684BB90A4B81
:1053A000A3614FF0FF336361A36843F00103A3607F
:1053B00070BD064BF4E700BF545500200038024092
:1053C0004014004003002002003C30C0083C30C0C4
:1053D000F8B5446D054600212046FFF779FFA96D19
:1053E00000234FF001128F68C4F834384FF0006684
:1053F000C4F81C284FF0FF3004EB431201339F42E6
:10540000C2F80069C2F8006BC2F80809C2F8080BBC
:10541000F2D20B686A6DEB65636210231361166943
:1054200016F01006FBD11220FFF7CCF9D4F80038A3
:1054300023F4FE63C4F80038A36943F4402343F027
:105440001003A3610923C4F81038C4F814380A4BB8
:10545000EB604FF0C043C4F8103B084BC4F8003B6E
:10546000C4F81069C4F80039EB6D03F1100243F47D
:105470008013EA65A362F8BD1C6800084080001034
:10548000426D90F84E10D2F8003823F4FE6343EAE0
:105490000113C2F8003870472DE9F84300EB81038F
:1054A000456DDA68166806F00306731E022B05EBDD
:1054B00041130C4680460FFA81F94FEA41104FF034
:1054C0000001C3F8101B4FF0010104F1100398BF55
:1054D000B60401FA03F391698EBF334E06F180568C
:1054E00006F5004600293AD0578A04F158014901CF
:1054F00037436F50D5F81C180B43C5F81C382B18D0
:105500000021C3F8101953690127611EA7409BB3FE
:10551000138A928B9B08012A88BF5343D8F85C20DA
:10552000981842EA034301F1400205EB8202C8F8F1
:105530005C00214653602846FFF7CAFE08EB89004D
:10554000C3681B8A43EA8453483464011E432E51C6
:10555000D5F81C381F43C5F81C78BDE8F88305EB67
:105560004917D7F8001B21F40041C7F8001BD5F8F4
:105570001C1821EA0303C0E704F13F0305EB830392
:105580000A4A5A6028462146FFF7A2FE05EB491059
:10559000D0F8003923F40043C0F80039D5F81C389E
:1055A00023EA0707D7E700BF0080001000040002CD
:1055B000826D1268C265FFF75FBE00005831436D0F
:1055C00049015B5813F4004004D013F4001F0CBFD2
:1055D00002200120704700004831436D49015B58AB
:1055E00013F4004004D013F4001F0CBF022001206C
:1055F0007047000000EB8101CB68196A0B681360EB
:105600004B6853607047000000EB810330B5DD68E4
:10561000AA691368D36019B9402B84BF4023136073
:105620006B8A1468426D1C44013CB4FBF3F4634381
:10563000033323F0030302EB411043EAC44343F076
:10564000C043C0F8103B2B6803F00303012B09B2E1
:105650000ED1D2F8083802EB411013F4807FD0F855
:10566000003B14BF43F0805343F00053C0F8003BAD
:1056700002EB4112D2F8003B43F00443C2F8003B76
:1056800030BD00002DE9F041244D6E6D06EB401356
:105690000446D3F8087BC3F8087B38070AD5D6F848
:1056A0001438190706D505EB84032146DB68284624
:1056B0005B689847FA071FD5D6F81438DB071BD567
:1056C00005EB8403D968CCB98B69488A5A68B2FB68
:1056D000F0F600FB16228AB91868DA6890420DD2FB
:1056E000121AC3E90024302383F311880B482146A2
:1056F000FFF78AFF84F31188BDE8F081012303FAE4
:1057000004F26B8923EA02036B81CB68002BF3D090
:1057100021460248BDE8F041184700BF545500201B
:1057200000EB810370B5DD68436D6C692668E66047
:105730004A0156BB1A444FF40020C2F810092A68E7
:1057400002F00302012A0AB20ED1D3F8080803EBD3
:10575000421410F4807FD4F8000914BF40F0805048
:1057600040F00050C4F8000903EB4212D2F80009DF
:1057700040F00440C2F80009D3F83408012202FACC
:1057800001F10143C3F8341870BD19B9402E84BF2C
:105790004020206020682E8A8419013CB4FBF6F476
:1057A00040EAC44040F000501A44C6E72DE9F843EF
:1057B0003B4D6E6D06EB40130446D3F80889C3F8E1
:1057C000088918F0010F4FEA40171AD0D6F81038A0
:1057D000DB0716D505EB8003D9684B691868DA68D2
:1057E000904230D2121A4FF000091A60C3F80490A8
:1057F000302383F3118821462846FFF791FF89F370
:10580000118818F0800F1CD0D6F834380126A64035
:10581000334216D005EB84036D6DD3F80CC0DCF871
:1058200014200134E4B2D2F800E005EB04342F4434
:105830005168714515D3D5F8343823EA0606C5F802
:105840003468BDE8F883012303FA04F22B8923EAC4
:1058500002032B818B68002BD3D021462846984722
:10586000CFE7BCF81000AEEB0103834228BF03462C
:10587000D7F8180980B2B3EB800FE2D89068A0F196
:10588000040959F8048FC4F80080A0EB0908984473
:10589000B8F1040FF5D818440B4490605360C7E783
:1058A000545500202DE9F74FA24C656D6E69AB6928
:1058B0001E4016F480586E6107D02046FEF7AEFCFD
:1058C00003B0BDE8F04FFEF761BA002E12DAD5F84A
:1058D000003E98489B071EBFD5F8003E23F0030307
:1058E000C5F8003ED5F8043823F00103C5F80438A4
:1058F000FEF7BEFC370505D58E48FFF7BDFC8D4889
:10590000FEF7A4FCB0040CD5D5F8083813F0060F48
:10591000EB6823F470530CBF43F4105343F4A053CB
:10592000EB6031071BD56368DB681BB9AB6923F0FB
:105930000803AB612378052B0CD1D5F8003E7D48D8
:105940009A071EBFD5F8003E23F00303C5F8003EBA
:10595000FEF78EFC6368DB680BB176489847F3026C
:1059600074D4B70227D5D4F85490DFF8C8B1002713
:105970004FF0010A09EB4712D2F8003B03F4402331
:10598000B3F5802F11D1D2F8003B002B0DDA6289DC
:105990000AFA07F322EA0303638104EB8703DB6857
:1059A000DB6813B1394658469847A36D01379B68A9
:1059B000FFB29F42DED9F00617D5676D3A6AC2F38F
:1059C0000A1002F00F0302F4F012B2F5802F00F07B
:1059D0008580B2F5402F08D104EB83030022DB68F9
:1059E0001B6A07F5805790426AD13003D5F81848F2
:1059F00013D5E10302D50020FFF744FEA20302D530
:105A00000120FFF73FFE630302D50220FFF73AFEB5
:105A1000270302D50320FFF735FE75037FF550AF4E
:105A2000E00702D50020FFF7C1FEA10702D5012043
:105A3000FFF7BCFE620702D50220FFF7B7FE23077F
:105A40007FF53EAF0320FFF7B1FE39E7636DDFF866
:105A5000E4A0019300274FF00109A36D9B685FFA52
:105A600087FB9B453FF67DAF019B03EB4B13D3F8C0
:105A7000001901F44021B1F5802F1FD1D3F800198E
:105A800000291BDAD3F8001941F09041C3F800193E
:105A9000D3F800190029FBDB5946606DFFF718FCAD
:105AA000218909FA0BF321EA0303238104EB8B0319
:105AB000DB689B6813B15946504698470137CCE7DD
:105AC000910708BFD7F80080072A98BF03F8018B19
:105AD00002F1010298BF4FEA182884E7023304EB71
:105AE000830207F580575268D2F818C0DCF8082006
:105AF000DCE9001CA1EB0C0C002188420AD104EB6C
:105B0000830463689B699A6802449A605A680244F5
:105B10005A606AE711F0030F08BFD7F800808C4580
:105B200088BF02F8018B01F1010188BF4FEA1828F4
:105B3000E3E700BF54550020436D03EB4111D1F85A
:105B4000003B43F40013C1F8003B7047436D03EB87
:105B50004111D1F8003943F40013C1F800397047FE
:105B6000436D03EB4111D1F8003B23F40013C1F85E
:105B7000003B7047436D03EB4111D1F8003923F42A
:105B80000013C1F80039704730B5039C017204332B
:105B900004FB0325C0E90653049B03630021059B16
:105BA000C160C0E90000C0E90422C0E90842C0E9C0
:105BB0000A11436330BD0000416A0022C0E90411AC
:105BC000C0E90A22C2606FF00101FEF76BBE00005F
:105BD000D0E90432934201D1C2680AB9181D704756
:105BE0000020704703691960C2680132C260C2694F
:105BF000134482690361934224BF436A0361002115
:105C0000FEF744BE38B504460D46E3683BB1626911
:105C1000131D1268A3621344E362002007E0237A95
:105C200033B929462046FEF721FE0028EDDA38BDBB
:105C30006FF00100FBE70000C368C269013BC3606D
:105C40004369134482694361934224BF436A4361B9
:105C500000238362036B03B11847704770B530238C
:105C6000044683F31188866A3EB9FFF7CBFF0546E9
:105C700018B186F31188284670BDA36AE26A13F84A
:105C8000015BA362934202D32046FFF7D5FF0023B6
:105C900083F31188EFE700002DE9F84F04460E4624
:105CA000174698464FF0300989F311880025AA4617
:105CB000D4F828B0BBF1000F09D141462046FFF7C8
:105CC000A1FF20B18BF311882846BDE8F88FD4E9F5
:105CD0000A12A7EB050B521A934528BF9346BBF156
:105CE000400F1BD9334601F1400251F8040B43F831
:105CF000040B9142F9D1A36A40334036A362403588
:105D0000D4E90A239A4202D32046FFF795FF8AF38B
:105D10001188BD42D8D289F31188C9E730465A4666
:105D2000FBF766FDA36A5B445E44A3625D44E7E75C
:105D300010B5029C0172043303FB0421C0E9061371
:105D40000023C0E90A33039B0363049BC460C0E9DA
:105D50000000C0E90422C0E90842436310BD00000E
:105D6000026AC260426AC0E904220022C0E90A2233
:105D70006FF00101FEF796BDD0E904239A4201D1EC
:105D8000C26822B9184650F8043B0B6070470023E4
:105D90001846FAE7C368C2690133C3604369134414
:105DA00082694361934224BF436A43610021FEF745
:105DB0006DBD000038B504460D46E3683BB123696C
:105DC0001A1DA262E2691344E362002007E0237A0D
:105DD00033B929462046FEF749FD0028EDDA38BDE3
:105DE0006FF00100FBE7000003691960C268013A27
:105DF000C260C269134482690361934224BF436A4B
:105E0000036100238362036B03B1184770470000EE
:105E100070B530230D460446114683F31188866A17
:105E20002EB9FFF7C7FF10B186F3118870BDA36AC2
:105E30001D70A36AE26A01339342A36204D3E1694D
:105E400020460439FFF7D0FF002080F31188EDE7EA
:105E50002DE9F84F04460D46904699464FF0300A1A
:105E60008AF311880026B346A76A4FB949462046EF
:105E7000FFF7A0FF20B187F311883046BDE8F88F07
:105E8000D4E90A073A1AA8EB0607974228BF174633
:105E9000402F1BD905F1400355F8042B40F8042B83
:105EA0009D42F9D1A36A4033A3624036D4E90A2364
:105EB0009A4204D3E16920460439FFF795FF8BF33A
:105EC00011884645D9D28AF31188CDE729463A464A
:105ED000FBF78EFCA36A3B443D44A3623E44E5E7E6
:105EE000D0E904239A4217D1C3689BB1836A8BB16E
:105EF000043B9B1A0ED01360C368013BC360C369A7
:105F00001A44836902619A4224BF436A03610023F1
:105F100083620123184670470023FBE700F0D2B8E4
:105F20004FF08043586A70474FF080430022586317
:105F30001A610222DA6070474FF080430022DA6073
:105F4000704700004FF0804358637047FEE7000041
:105F500070B51B4B01630025044686B0586085620E
:105F60000E46FDF7EFFE04F11003C4E904334FF0D1
:105F7000FF33C4E90635C4E90044A560E562FFF7D4
:105F8000CFFF2B460246C4E9082304F134010D4A31
:105F9000256580232046FEF71FFC0123E0600A4AA6
:105FA0000375009272680192B268CDE90223074B33
:105FB0006846CDE90435FEF737FC06B070BD00BF7A
:105FC000E84D00204C680008516800084D5F00084B
:105FD000024AD36A1843D062704700BF804B00204A
:105FE0004B6843608B688360CB68C3600B69436117
:105FF0004B6903628B6943620B6803607047000062
:1060000008B5264B26481A6940F2FF110A431A6167
:106010001A6922F4FF7222F001021A611A691A6BDE
:106020000A431A631A6D0A431A651E4A1B6D11460C
:10603000FFF7D6FF02F11C0100F58060FFF7D0FFEB
:1060400002F1380100F58060FFF7CAFF02F1540148
:1060500000F58060FFF7C4FF02F1700100F5806079
:10606000FFF7BEFF02F18C0100F58060FFF7B8FF7B
:1060700002F1A80100F58060FFF7B2FF02F1C40150
:1060800000F58060FFF7ACFF02F1E00100F58060F1
:10609000FFF7A6FFBDE8084000F090B800380240C6
:1060A000000002405868000808B500F0FBF9FEF750
:1060B00061FBFFF797F8BDE80840FEF7EFBD000071
:1060C000704700000F4B1A6C42F001021A641A6EFE
:1060D00042F001021A660C4A1B6E936843F00103FA
:1060E00093604FF0804353229A624FF0FF32DA629E
:1060F00000229A615A63DA605A6001225A611A607A
:10610000704700BF00380240002004E04FF080429A
:1061100008B51169D3680B40D9B2C9439B07116117
:1061200007D5302383F31188FEF74AFB002383F35E
:10613000118808BD1F4B1A696FEAC2526FEAD2522A
:106140001A611A69C2F308021A614FF0FF301A6926
:106150005A69586100215A6959615A691A6A62F08C
:1061600080521A621A6A02F080521A621A6A5A6AD5
:1061700058625A6A59625A6A1A6C42F080521A641A
:106180001A6E42F080521A661A6E0B4A106840F47A
:1061900080701060186F00F44070B0F5007F1EBF73
:1061A0004FF4803018671967536823F40073536005
:1061B00000F054B90038024000700040334B4FF0FB
:1061C00080521A64324A4FF4404111601A6842F01A
:1061D00001021A601A689107FCD59A6822F003023E
:1061E0009A602A4B9A6812F00C02FBD1196801F0F0
:1061F000F90119609A601A6842F480321A601A68CC
:106200009203FCD55A6F42F001025A671F4B5A6F36
:106210009007FCD51F4A5A601A6842F080721A60D3
:106220001B4A53685904FCD5184B1A689201FCD5D7
:10623000194A9A60194B1A68194B9A42194B21D185
:10624000194A1168194A91421CD140F205121A608C
:10625000144A136803F00F03052BFAD10B4B9A680D
:1062600042F002029A609A6802F00C02082AFAD1FF
:106270005A6C42F480425A645A6E42F480425A6622
:106280005B6E704740F20572E1E700BF00380240E4
:10629000007000400854400700948838002004E053
:1062A00011640020003C024000ED00E041C20F41BB
:1062B000074A08B5536903F00103536123B1054A46
:1062C00013680BB150689847BDE80840FDF75EBD04
:1062D000003C0140CC550020074A08B5536903F043
:1062E0000203536123B1054A93680BB1D068984704
:1062F000BDE80840FDF74ABD003C0140CC550020F8
:10630000074A08B5536903F00403536123B1054AF2
:1063100013690BB150699847BDE80840FDF736BDD9
:10632000003C0140CC550020074A08B5536903F0F2
:106330000803536123B1054A93690BB1D0699847AB
:10634000BDE80840FDF722BD003C0140CC550020CF
:10635000074A08B5536903F01003536123B1054A96
:10636000136A0BB1506A9847BDE80840FDF70EBDAF
:10637000003C0140CC550020164B10B55C6904F47C
:1063800078725A61A30604D5134A936A0BB1D06A96
:106390009847600604D5104A136B0BB1506B9847B1
:1063A000210604D50C4A936B0BB1D06B9847E205DC
:1063B00004D5094A136C0BB1506C9847A30504D55A
:1063C000054A936C0BB1D06C9847BDE81040FDF7BF
:1063D000DDBC00BF003C0140CC550020194B10B57E
:1063E0005C6904F47C425A61620504D5164A136D57
:1063F0000BB1506D9847230504D5134A936D0BB12B
:10640000D06D9847E00404D50F4A136E0BB1506E5F
:106410009847A10404D50C4A936E0BB1D06E9847EF
:10642000620404D5084A136F0BB1506F98472304D8
:1064300004D5054A936F0BB1D06F9847BDE8104063
:10644000FDF7A4BC003C0140CC55002008B5FFF787
:106450005DFEBDE80840FDF799BC0000062108B5C7
:106460000846FDF7BDFC06210720FDF7B9FC062113
:106470000820FDF7B5FC06210920FDF7B1FC062137
:106480000A20FDF7ADFC06211720FDF7A9FC062127
:106490002820FDF7A5FCBDE8084007211C20FDF7DA
:1064A0009FBC000008B5FFF745FE00F00BF8FDF7B4
:1064B0004BFEFDF723FDFFF703FEBDE80840FFF7A5
:1064C0002DBD00000023054A19460133102BC2E9F7
:1064D000001102F10802F8D1704700BFCC5500202E
:1064E0000B460146184600F009B80000024B0A4668
:1064F00001461868FEF7B2BD4C23002010B5054CCC
:1065000013462CB10A4601460220AFF3008010BDAD
:106510002046FCE700000000024B01461868FEF729
:10652000A1BD00BF4C23002010B5013902449042A8
:1065300001D1002005E0037811F8014FA34201D0FA
:10654000181B10BD0130F2E72DE9F041A3B1C91AC3
:1065500017780144044603F1FF3C8C42204601D9E0
:10656000002009E00578BD4204F10104F5D10CEBEF
:106570000405D618A54201D1BDE8F08115F8018DBA
:1065800016F801EDF045F5D0E7E70000034611F8F5
:10659000012B03F8012B002AF9D170476F72672E87
:1065A0006172647570696C6F742E663430352D4D70
:1065B0006174656B41697273706565640000000009
:1065C00053544D3332463F3F3F0053544D333246D0
:1065D0003430780053544D333246343278005354BB
:1065E0004D33324634343658580000000120330011
:1065F0000010410001105A0003105900071031002B
:1066000000000000C065000813040000CA6500080F
:1066100019040000D465000821040000DE650008AC
:1066200040A2E4F1646891060041A3E5F265699235
:10663000070000004261642043414E496661636582
:1066400020696E6465782E008000000000800000E4
:106650000000800000000000000000008921000808
:10666000CD29000829290008C9210008D5210008E2
:10667000E123000899210008A92100089D210008B4
:10668000A5210008A1210008FD220008AD21000875
:10669000F12C0008A12C0008BD210008D12200081F
:1066A00000000000793E0008653E0008A13E000899
:1066B0008D3E0008993E0008853E0008713E0008A6
:1066C0005D3E0008AD3E0008000000000100000033
:1066D0000000000063300000D4660008D84B0020A2
:1066E000E84D00204172647550696C6F740025425A
:1066F0004F415244252D424C002553455249414CAF
:106700002500000002000000000000009540000885
:1067100001410008400040008852002098520020AB
:106720000200000000000000030000000000000064
:10673000454100080000000010000000A8520020A1
:10674000000000000100000000000000545500207F
:1067500001010200394C0008494B0008E54B0008D4
:10676000C94B0008430000006C67000809024300A1
:10677000020100C0320904000001020201000524E8
:106780000010010524010001042402020524060072
:1067900001070582030800FF09040100020A000046
:1067A00000070501024000000705810240000000CB
:1067B00012000000B867000812011001020000403A
:1067C00009124157000201020301000004030904F9
:1067D00025424F415244250030313233343536376B
:1067E0003839414243444546000000000040000063
:1067F00000400000004000000040000000000100D8
:106800000000020000000200000002000000020080
:106810000000020000000200000002000000000072
:106820008942000841450008ED450008400040004D
:10683000B4550020B455002001000000C4550020CC
:106840008000000040010000030000006D61696EDF
:106850000069646C65000000AA01A8120000000035
:10686000AAAAAAAA55011400FFBF00008877000059
:1068700070A70A0000000A0100000000AAAAAAAA44
:1068800000000001FFFF0000000000009900000070
:106890000000A01600000000AAAAAAA6000050113D
:1068A000FFDF00000000000000770800200000006B
:1068B00000000000AAAAAAAA10000000FFFF000022
:1068C00000080000000000000000000000000000C0
:1068D000AAAAAAAA00000000FFFF00000000000012
:1068E000000000000000000000000000AAAAAAAA00
:1068F00000000000FFFF000000000000000000009A
:106900000000000000000000AAAAAAAA00000000DF
:10691000FFFF000000000000000000000000000079
:10692000000000000A00000000000000030000005A
:106930000000000000000000000000000000000057
:106940000000000000000000000000000000000047
:106950000000000000000000F6030000000000003E
:1069600000000F000000000040420F00FE2A01005E
:10697000D2040000FF00960000000008009600000E
:106980000000080004000000CC67000800000000C0
:1069900000000000000000000000000000000000F7
:1069A0000000000050230020000000000000000054
:1069B00000000000000000000000000000000000D7
:1069C00000000000000000000000000000000000C7
:1069D00000000000000000000000000000000000B7
:1069E00000000000000000000000000000000000A7
:1069F0000000000000000000000000000000000097
:086A000000000000000000008E
:00000001FF
