:020000040800F2
:1000000000070020110200086D2D0008252D0008B2
:100010004D2D0008252D0008452D0008130200086D
:10002000130200081302000813020008093E00082A
:10003000130200081302000813020008130200084C
:10004000130200081302000813020008130200083C
:100050001302000813020008D5640008FD640008BC
:10006000256500084D650008756500081302000845
:10007000130200081302000813020008130200080C
:10008000130200081302000813020008D92C00080C
:10009000052D0008152D0008130200089D650008B5
:1000A00013020008130200081302000813020008DC
:1000B000716600081302000813020008130200080A
:1000C00013020008130200081302000813020008BC
:1000D00013020008130200081302000813020008AC
:1000E000016600081302000813020008130200084A
:1000F000130200081302000813020008130200088C
:10010000130200081302000813020008130200087B
:10011000130200081302000813020008130200086B
:10012000130200081302000813020008130200085B
:10013000130200081302000813020008130200084B
:10014000130200081302000813020008B15A000845
:10015000130200081302000813020008130200082B
:10016000130200081302000813020008130200081B
:10017000130200081302000813020008130200080B
:1001800013020008130200081302000813020008FB
:1001900013020008130200081302000813020008EB
:1001A00013020008130200081302000813020008DB
:1001B00013020008130200081302000813020008CB
:1001C00013020008130200081302000813020008BB
:1001D00013020008130200081302000813020008AB
:1001E000130200081302000813020008130200089B
:1001F000130200081302000813020008130200088B
:100200003916000800000000000000000000000097
:1002100002E000F000F8FEE772B6374880F3088885
:10022000364880F3098836483649086040F20000B5
:10023000CCF200004EF63471CEF200010860BFF33C
:100240004F8FBFF36F8F40F20000C0F2F0004EF608
:100250008851CEF200010860BFF34F8FBFF36F8F5C
:100260004FF00000E1EE100A4EF63C71CEF20001B4
:100270000860062080F31488BFF36F8F05F076F8CE
:1002800005F0D8FF4FF055301F491B4A91423CBF43
:1002900041F8040BFAE71D49184A91423CBF41F866
:1002A000040BFAE71A491B4A1B4B9A423EBF51F80E
:1002B000040B42F8040BF8E700201849184A914251
:1002C0003CBF41F8040BFAE705F08EF806F006F89B
:1002D000144C154DAC4203DA54F8041B8847F9E777
:1002E00000F042F8114C124DAC4203DA54F8041BF2
:1002F0008847F9E705F076B80007002000230020C2
:100300000000000808ED00E00001002000070020C8
:10031000306B000800230020CC230020D0230020D5
:1003200074560020000200080402000804020008BD
:10033000040200082DE9F04F2DED108AC1F80CD011
:10034000D0F80CD0BDEC108ABDE8F08F002383F309
:1003500011882846A047002004F0F4FAFEE704F0D4
:1003600073FA00DFFEE70000F8B501F0CBF904F006
:1003700077FF074604F0E6FF0546002839D1234BF6
:100380009F4236D001339F4236D0214B27F0FF02E7
:100390009A4234D1F8B200F06BFF2E4642F210744C
:1003A00000F06CFF08B10024264601F09BFD20B14F
:1003B000032000F083F80024264635B1154B9F42F8
:1003C00003D004F0B7FF00242646002004F052FFBB
:1003D000114B1B695B0416D40EB100F085F801F0D7
:1003E000F3FA00F0B9FF204600F01EF900F07CF8A7
:1003F000F9E72E460024D3E704460126D0E7064657
:100400004FF47A74CCE70024E9E700BF010007B09D
:10041000000008B0263A09B00008024008B501F013
:1004200043F9A0F120035842584108BD07B541F2F5
:100430001203022101A8ADF8043001F053F903B012
:100440005DF804FB38B5302383F31188174803683F
:100450000BB104F043FB164A144800234FF47A71A1
:1004600004F032FB002383F31188124C236813B18C
:100470002368013B2360636813B16368013B6360D9
:100480000D4D2B7833B963687BB9022001F006FA71
:10049000322363602B78032B07D163682BB90220CA
:1004A00001F0FCF94FF47A73636038BDD02300206B
:1004B00045040008F0240020E8230020084B1870B1
:1004C00003280CD8DFE800F008050208022001F03C
:1004D000DDB9022001F0D0B9024B00225A6070470A
:1004E000E8230020F0240020F8B501F0FBFC30B137
:1004F000454B03221A70454B00225A60F8BD444B0D
:10050000444A1C4619680131F8D004339342F9D1AA
:100510006268414B9A42F1D9404B9B6803F10063FA
:1005200003F580339A42E9D204F0D8FE04F0EAFEE3
:10053000002001F001F90220FFF7C0FF384B002135
:100540001A6C19641A6E19661A6E5A6C59645A6ECE
:1005500059665A6E5A6942F080025A615A6922F00D
:1005600080025A615A691A6942F000521A611A6986
:1005700022F000521A611B6972B64FF0E023C3F8F3
:10058000084DD4E90004BFF34F8FBFF36F8F254AA6
:10059000C2F88410BFF34F8F536923F48033536143
:1005A000BFF34F8FD2F88030C3F3C905C3F34E3386
:1005B0005B0143F6E07603EA060C29464CEA8177B4
:1005C0000139C2F87472F9D2203B13F1200FF2D135
:1005D000BFF34F8FBFF36F8FBFF34F8FBFF36F8F9B
:1005E000536923F4003353610023C2F85032BFF340
:1005F0004F8FBFF36F8F302383F31188854680F3CD
:10060000088820477AE700BFE8230020F024002074
:100610000000010820000108FFFF0008002300205F
:100620000038024000ED00E02DE9F04F93B0B74BE9
:1006300000902022FF210AA89D6801F06FF9B44ABA
:100640001378A3B9B348012103601170302383F3F9
:10065000118803680BB104F041FAAF4AAD4800239A
:100660004FF47A7104F030FA002383F31188009B71
:1006700013B1AA4B009A1A60A94A009C1378032B65
:100680001EBF00231370A54A4FF0000A18BF536025
:10069000D3465646D146012001F0F8F824B19F4BCD
:1006A0001B68002B00F02B82002000F0FDFF039060
:1006B000039B002B01DA00F097FE039B002BEDDB80
:1006C000012001F0D9F8039B213B1F2BE3D801A2A5
:1006D00052F823F0550700087D07000811080008AC
:1006E000970600089706000897060008A308000868
:1006F000730A00088D090008EF090008170A0008AE
:100700003D0A0008970600084F0A000897060008EF
:10071000C10A0008F507000897060008050B000845
:1007200061070008F507000897060008EF090008B0
:100730009706000897060008970600089706000825
:100740009706000897060008970600089706000815
:10075000110800080220FFF761FE002840F0F9812F
:10076000009B0221BAF1000F08BF1C4605A841F208
:100770001233ADF8143000F0B5FF8CE74FF47A7007
:1007800000F092FF071EEBDB0220FFF747FE002878
:10079000E6D0013F052F00F2DE81DFE807F0030A13
:1007A0000D10133605230593042105A800F09AFFC8
:1007B00017E056480421F9E75A480421F6E75A4859
:1007C0000421F3E74FF01C08404600F0B7FF08F1A2
:1007D00004080590042105A800F084FFB8F12C0F4F
:1007E000F2D1012000FA07F747EA0B0B5FFA8BFB07
:1007F0004FF0000901F0DEF826B10BF00B030B2BD4
:1008000008BF0024FFF712FE45E748480421CDE762
:10081000002EA5D00BF00B030B2BA1D10220FFF76C
:10082000FDFD074600289BD0012000F085FF022037
:10083000FFF744FE00261FFA86F8404600F08CFFC2
:100840000446B0B10399A1F14002514251414046E2
:1008500000F09AFF01360028EDD1BA46044641F275
:100860001213022105A8ADF814303E4600F03AFFFD
:1008700011E70120FFF722FE2546244B9B68AB427F
:1008800007D9284600F05AFF013040F0678104354F
:10089000F3E7234B00251D70204BBA465D603E46B2
:1008A000A8E7002E3FF45CAF0BF00B030B2B7FF49B
:1008B00057AF0220FFF702FE322000F0F5FEB0F144
:1008C0000008FFF64DAF18F003077FF449AF0F4A59
:1008D000926808EB050393423FF642AFB8F5807F7C
:1008E0003FF73EAF124B0193B84523DD4FF47A70CA
:1008F00000F0DAFE0390039A002AFFF631AF019B65
:10090000039A03F8012B0137EDE700BF0023002015
:10091000EC240020D023002045040008F02400200F
:10092000E823002004230020082300200C230020BB
:10093000EC230020C820FFF771FD074600283FF494
:100940000FAF1F2D11D8C5F1200242450AAB25F08B
:10095000030028BF424683490192184400F0B8FFC3
:10096000019A8048FF2100F0D9FF4FEAA8037D4992
:100970000193C8F38702284600F0D8FF06460028F6
:100980003FF46DAF019B05EB830533E70220FFF7D2
:1009900045FD00283FF4E4AE00F016FF00283FF4C8
:1009A000DFAE0027B846704B9B68BB4218D91F2F9B
:1009B00011D80A9B01330ED027F0030312AA134467
:1009C00053F8203C05934046042205A901F042FA61
:1009D00004378046E7E7384600F0B0FE0590F2E7BE
:1009E000CDF81480042105A800F07CFE02E7002366
:1009F000642104A8049300F06BFE00287FF4B0AEDD
:100A00000220FFF70BFD00283FF4AAAE049800F087
:100A1000C3FE0590E6E70023642104A8049300F0D8
:100A200057FE00287FF49CAE0220FFF7F7FC002859
:100A30003FF496AE049800F0BFFEEAE70220FFF70D
:100A4000EDFC00283FF48CAE00F0CEFEE1E7022082
:100A5000FFF7E4FC00283FF483AE05A9142000F062
:100A6000C9FE04210746049004A800F03BFE394665
:100A7000B9E7322000F018FE071EFFF671AEBB0783
:100A80007FF46EAE384A926807EB090393423FF653
:100A900067AE0220FFF7C2FC00283FF461AE27F0EA
:100AA00003074F44B9453FF4A5AE484600F046FE63
:100AB0000421059005A800F015FE09F10409F1E7ED
:100AC0004FF47A70FFF7AAFC00283FF449AE00F01B
:100AD0007BFE002844D00A9B01330BD008220AA9D0
:100AE000002000F023FF00283AD02022FF210AA88E
:100AF00000F014FFFFF79AFC1C4803F029FF13B025
:100B0000BDE8F08F002E3FF42BAE0BF00B030B2B48
:100B10007FF426AE0023642105A8059300F0D8FDDC
:100B2000074600287FF41CAE0220FFF777FC8046C2
:100B300000283FF415AEFFF779FC41F2883003F04E
:100B400007FF059800F068FF464600F033FF3C467B
:100B5000A1E506464EE64FF0000901E6BA467EE6FC
:100B600037467CE6EC23002000230020A08601000D
:100B7000094A136849F2690099B21B0C00FB013362
:100B80001360064B186844F2506182B2000C01FBFE
:100B90000200186080B27047182300201423002040
:100BA00010B500211022044600F0B8FE034B03CB21
:100BB000206061601868A06010BD00BF107AF01F4F
:100BC000F0B5ADF54F7D6CAC4FF4C47207460D46E1
:100BD0002046002100F0A2FE02F0D0F8244B4FF492
:100BE0007A72B0FBF2F0186093E80700022384E801
:100BF00007000DF5E9702382FFF7D2FF40F20443AE
:100C00001C49238406A805F0D3FD182384F832314B
:100C10000DF2E3266B440DF1300C1A4603CA62450F
:100C200030607160134606F10806F6D10DAE31460C
:100C30000122204600F0F2FE00230393AB7E0293D4
:100C400005F11903019380B20123CDE904600093FB
:100C5000E97E05A3D3E90023384602F0A5FC0DF593
:100C60004F7DF0BDAFF300809E6AC421818A46EEBD
:100C7000F8240020C06700082DE9F0412C4C237AAD
:100C8000DAB080460D465BBB27A9284600F0ECFF92
:100C90000746002842D19DF89D60C82E3ED80146E7
:100CA0004FF4A662204600F039FE4FF48073C4F87A
:100CB000F8314FF40073C4F80C334FF44073C4F8A8
:100CC000203432460DF19E0104F1090000F000FECF
:100CD00026449DF89C30777223720BB9EB7E237209
:100CE0008122002106AC27A800F018FE012221462F
:100CF00027A800F0FFFF00230393AB7E029305F1CA
:100D0000190380B201932823CDE904400093E97EC2
:100D100005A3D3E90023404602F046FC5AB0BDE8E3
:100D2000F08100BFAFF3008026417272DF25D7B794
:100D300040350020F0B5254E4FF48A7505FB00655F
:100D4000F1B096F8D83085F8DC300024D82221465E
:100D500085F8E8403AA800F0E1FD06F1090000F04E
:100D6000D5FDD5F8E4308DF8F000C2B206AF06F13B
:100D700009010DF1F100CDE93A3400F0A9FD394641
:100D800001223AA800F0ECFF80B2CDE904700823FC
:100D90000127CDE9023706F1D803019330230093F0
:100DA000317A0B4807A3D3E9002302F0FDFBA042F0
:100DB00006DD01F0E3FFC5F8E000384671B0F0BD94
:100DC0002046FBE778F6339F93CACD8D403500204F
:100DD000103500202DE9F0411D4D1E4E1E4F86B0EE
:100DE000284602F00DFC034658B30024CDE9034425
:100DF000ADF81440027B8DF8142099684068029485
:100E000003AA03C21B68DFF8548043F00043029337
:100E100001F0B6FF821941F10003009402A938469F
:100E200001F04CFAA04205DD284602F0EDFB88F8FF
:100E30000040D5E798F80030072B05D8013388F833
:100E4000003006B0BDE8F081014802F0DDFBF8E7B4
:100E50001035002040420F00783A0020753A0020FB
:100E600070B50D4614461E4602F0FAFA50B9022E2D
:100E700010D1012C0ED112A3D3E90023C5E9002320
:100E8000012007E0282C10D005D8012C09D0052C12
:100E90000FD0002070BD302CFBD10BA3D3E9002371
:100EA000ECE70BA3D3E90023E8E70BA3D3E9002386
:100EB000E4E70BA3D3E90023E0E700BFAFF3008032
:100EC000401DA12026812A0B78F6339F93CACD8D31
:100ED0009E6AC421818A46EE26417272DF25D7B709
:100EE000F017304A39059E5638B505460E4C00219C
:100EF000013500F049FCA4F82C55B4F82C0500F09D
:100F00002BFC78B1B4F82C0500F036FC014648B94A
:100F1000B4F82C0500F038FCB4F82C350133A4F8F3
:100F20002C35EAE738BD00BF4035002010B50A4B2C
:100F30000A4A1A6003F5805393F870203AB9DC6EC0
:100F40002CB1204601F050F8204601F08DF9BDE8A3
:100F50001040034801F048B8783A0020446800087F
:100F6000D04A00202DE9F04F8FB000AF05460C4667
:100F700002F076FA00284BD1237E022B1BD1E38AA4
:100F8000012B18D101F0FAFE0646FFF7F1FD0346EA
:100F90004FF4C870DFF8D482B3FBF0F206F5167692
:100FA00002FB103316FA83F3C8F80030E37E33B93E
:100FB000A74B00221A703C37BD46BDE8F08F07F101
:100FC0002401204600F004FE0028F4D107F11400AB
:100FD000FFF7E6FD97F8264007F11401224607F1D6
:100FE000270005F0B3FB0028E2D10F2C08D8984B5E
:100FF0001C70D8F80030A3F51673C8F80030DAE793
:1010000097F824100029D6D0284602F021FAD2E71A
:10101000E38A282B33D010D8012B2BD0052BCAD133
:10102000BFF34F8F8B498C4BCA6802F4E0621343C5
:10103000CB60BFF34F8F00BFFDE7302BBBD1874E96
:10104000E17E327A9142B6D1607E3146002291F83B
:10105000DC50854200F0AD800132042A01F58A712E
:10106000F5D1326840F6B831FA328A4294BF326024
:101070003160A0E721462846FFF7A2FD9BE7214605
:101080002846FFF7F9FD96E7B2F8EC507B6005F1D2
:1010900003094FEA99094FEA8902D11DC908A8EB53
:1010A000C1039D46EB460021584600F037FC04F191
:1010B000EE012A463144584600F00AFC7B6813B919
:1010C000012000F039FB96F8D20000F045FB044601
:1010D00030B9307200F078FB204600F02DFBB0E014
:1010E000D6F8D4203AB996F8D200B6F82C25824228
:1010F00001D8FFF7F9FED6F8D4202A44944208D24A
:1011000096F8D200B6F82C250130824201D8FFF7BC
:10111000EBFE70685FFA89F2594600F007FC08B9E7
:10112000C54679E0726896F8D2002A447260D6F813
:10113000D42005EB0209C6F8D49000F00DFB8145E0
:1011400009D396F8D220D6F8D4000132001B86F8D5
:10115000D220C6F8D400FF2D0FD80024347200F03E
:1011600033FB204600F0E8FA00F0BCFE3C4B18814F
:1011700008B9FFF7B9F9C5461DE7BB6896F8D9006D
:101180000AFB0362FB68D2F8E41082F8E83001F54C
:101190008061C2F8E030C2F8E410FFF7CBFDFFF742
:1011A00019FE96F8D920013202F0030286F8D92000
:1011B000B6E74FF48A7A0AFB02F505F1EA013144F9
:1011C000204600F001FEF86000287FF4F4AE3544BC
:1011D000012285F8E82001F0D1FDD5F8E020D6ED18
:1011E000007ADFED206A801A192838BF192040F6EE
:1011F000B832904228BF1046B8EE677A07EE900AE0
:10120000F8EEE77A67EEA67ADFED176AE7EE267A60
:10121000FCEEE77AC6ED007A96F8D9307168BB60CB
:101220000AFB03F4321992F8E8505DB1D2F8E430C9
:101230008B42E8463FF428AF002182F8E810C2F85C
:10124000E010C5467368064A9B0A01331381B2E673
:101250000935002000ED00E00400FA0540350020CB
:10126000F8240020CDCCCC3D6666663F0C350020CE
:10127000014B1870704700BF0425002030B54FF0B7
:1012800000542C4B22689A4285B023D1637D0BB366
:10129000294A2A481370237D03724FF48073C0F8E3
:1012A000F8314FF40073C0F80C3300254FF440734D
:1012B000C0F820342249C0F8E450C922093000F0B7
:1012C00007FB2046E022294600F028FB01242046A7
:1012D00005B030BD04F040F8044608B90024F6E734
:1012E000184A194D136C43F000731364AA6D174B21
:1012F0009A42F3D12B6E013B7E2BEFD8144A07CADA
:1013000001AB83E807001846032100F0B9FD6B6DBF
:1013100083424FF00003E1D12A6D8A4201BFAB65E1
:10132000054B2A6E1A7003BF0A4BEA6D1A601C4601
:10133000CDE700BF9AAD44C504250020403500200C
:101340001600002000380240006600405041A0B066
:10135000586600401023002037B51A4D00F0C2FD3A
:1013600002236B71184B288119681848012201F07B
:101370009FFB00230193164B164900931648174B09
:101380004FF4805202F03CF8154B197811B1124815
:1013900002F05EF801F0F2FC0446FFF7E9FB4FF4BF
:1013A000C873B0FBF3F202FB130304F5167010FAD6
:1013B00083F00C4B186003F0C5FF08B10F232B819D
:1013C00003B030BDF824002010230020783A00201C
:1013D000610E00080825002010350020650F000868
:1013E000042500200C3500202DE9F04F2DED028B57
:1013F0000FF23829D9E90089834C93B00BAE9FEDE9
:101400007E8BFFF7E7FC814FDFF828A200230A93C9
:10141000ADF834300B9373604FF0000B5B468DEDED
:10142000008B01250DF11D0207A938468DF81C50CF
:101430008DF81DB001F0EAFA9DF81C30002B40F049
:10144000A580204602F00CF80646002845D1704FD2
:1014500001F094FC3B6898423FD301F08FFC824638
:10146000FFF786FB4FF4C873B0FBF3F202FB1303E4
:101470000AF5167010FA83F03860664F97F800B0DE
:10148000CBF1100ABBF1000F14BF33462B465FFAB5
:101490008AFA0EA88DF82830FFF782FBBAF1060F02
:1014A00028BF4FF0060A0EAB03EB0B0152460DF1BD
:1014B000290000F00DFA0AAB0393182302930AF1F6
:1014C0000102554BD2B2CDE90053049220464CA301
:1014D000D3E9002302F00AF83E7001F04FFC4F4AB6
:1014E0004F4D1368C31AB3F57A7F2ED3106001F005
:1014F00047FC02460B46204602F090F8204601F0D9
:10150000AFFF10B32B7A474E002B14BF03230223E7
:10151000737101F033FC0EAF4FF47A730122B0FB0C
:10152000F3F039463060304600F02AFB182302936E
:101530003D4B019380B240F25513CDE90370009307
:1015400042464B46204601F0D1FF2B7A93B101F081
:1015500015FC002607464FF48A7A95F8D9003044E6
:1015600000F003000AFB005393F8E82092B3013621
:10157000042EF2D1C82003F0EBF92B7A002B7FF474
:101580003DAF13B0BDEC028BBDE8F08FDAF814303C
:1015900083F04003CAF81430594610220EA800F018
:1015A000BDF90DF11E0308AA0AA9384600F08CFF08
:1015B00096E803000FAB83E803009DF834308DF804
:1015C00044300A9B0E930EA9DDE90823204602F061
:1015D000F9F921E7D3F8E02042B12B68FA2B38BFA4
:1015E000FA23BA1A0533B2EB430FC0D3FFF7A2FBBD
:1015F0000028BCD1BEE700BF0000000000000000D2
:10160000401DA12026812A0B10350020783A0020A9
:101610000C3500200935002008350020703A0020E4
:1016200040350020F8240020743A0020F1C6A7C1FC
:10163000D068080F0000024008B5054800F0E2FF3E
:10164000BDE80840034A0449002005F05BB800BF2C
:10165000783A0020984B00202D0F000870B50F4BF2
:101660001B780133DBB2012B0C4611D80C4D2968D5
:101670004FF47A730E6AA2FB0332014622462846D3
:10168000B047844204D1074B00221A70012070BD7C
:101690004FF4FA7003F05CF90020F8E71C230020F7
:1016A000104E00208C4B002007B50023024601217C
:1016B0000DF107008DF80730FFF7D0FF20B19DF83E
:1016C000070003B05DF804FB4FF0FF30F9E70000BE
:1016D0000A4608B50421FFF7C1FF80F00100C0B23F
:1016E000404208BD30B4054C2368DD69044B0A460E
:1016F000AC460146204630BC604700BF104E00207B
:10170000A086010070B503F043FC094E094D3080FE
:10171000002428683388834208D903F033FC2B68FF
:1017200004440133B4F5803F2B60F2D370BD00BF99
:101730008E4B0020604B002003F0DABC00F100600B
:1017400000F580300068704700F10060920000F5FD
:10175000803003F063BC0000054B1A68054B1B8802
:101760009B1A834202D9104403F00CBC002070473E
:10177000604B00208E4B0020024B1B68184403F086
:1017800009BC00BF604B0020024B1B68184403F0EB
:1017900019BC00BF604B002010F003030AD1B0F564
:1017A000047F05D200F10050A0F57920D0F8003870
:1017B000184670470023FBE700F10050A0F57920A0
:1017C000D0F8100A70470000064991F8243033B170
:1017D0000023086A81F824300822FFF7B5BF0120F2
:1017E000704700BF644B0020014B1868704700BF72
:1017F000002004E0F0B51E4B1D6801382E0C0A18BD
:101800001C48C5F30B04032335460788A7420BD1B8
:1018100044680B46013C934218461BD214F9010F51
:1018200048B103F8010BF6E7013B00F10800ECD1E9
:1018300091420ED20B4618462C24B6F5805F00F874
:10184000014B0AD1824202D94122981C5A70401A97
:10185000F0BD0846B6F5805FF9D041F201039D4224
:10186000F5D18242F3D95A2300F8013BEFE700BFDC
:10187000002004E020230020022802BF024B4FF486
:1018800080029A61704700BF00000240022802BF38
:10189000014B40229A61704700000240022801BFBC
:1018A000024A536983F040035361704700000240CD
:1018B00070B504464FF47A764CB1412C254628BFCA
:1018C000412506FB05F003F043F8641BF4E770BD07
:1018D00010B50023934203D0CC5CC4540133F9E724
:1018E00010BD000010B5013810F9013F3BB191F96E
:1018F00000409C4203D11AB10131013AF4E71AB118
:1019000091F90020981A10BD1046FCE703460246E4
:10191000D01A12F9011B0029FAD17047024403467C
:10192000934202D003F8011BFAE770472DE9F84310
:101930001F4D144695F824200746884652BBDFF811
:1019400070909CB395F824302BB92022FF21484693
:101950002F62FFF7E3FF95F82400C0F10802A242CE
:1019600028BF2246D6B24146920005EB8000FFF721
:10197000AFFF95F82430A41B1E44F6B2082E17447E
:101980009044E4B285F82460DBD1FFF71DFF002806
:10199000D7D108E02B6A03EB82038342CFD0FFF755
:1019A00013FF0028CBD10020BDE8F8830120FBE71E
:1019B000644B0020024B1A78024B1A70704700BF2C
:1019C0008C4B00201C23002010B5104C104802F056
:1019D0000DFB21460E4802F035FB2468E26ED2F87A
:1019E000043843F00203C2F804384FF47A70FFF76A
:1019F0005FFF0849204602F02DFCE26ED2F8043861
:101A000023F00203C2F8043810BD00BF3469000897
:101A1000104E00203C690008704700002DE9F34794
:101A20000D46044600219046284640F27912FFF701
:101A300075FF234620220021284601F065FF231D63
:101A400002222021284601F05FFF631D032222218C
:101A5000284601F059FFA31D03222521284601F045
:101A600053FF04F1080310222821284601F04CFFFF
:101A700004F1100308223821284601F045FF04F143
:101A8000110308224021284601F03EFF04F1120311
:101A900008224821284601F037FF04F114032022D0
:101AA0005021284601F030FF04F118034022702134
:101AB000284601F029FF04F120030822B02128461E
:101AC00001F022FF04F121030822B821284601F089
:101AD0001BFF04F12207C0263B4631460822284658
:101AE000083601F011FFB6F5A07F07F10107F3D129
:101AF00094F832308DF8073031460DF10703082293
:101B0000284601F001FF002604F1330A9DF8073052
:101B10004FEAC6099E4209F5A47720D394F83231E2
:101B2000502B28BF50238DF80730B8F1000F08D193
:101B300039460DF107030722284601F0E5FE09F2B8
:101B40004F17002604F233149DF807309E4207EB2E
:101B5000C6010DD30731C80802B0BDE8F0870AEB13
:101B6000060308223946284601F0CEFE0136CDE7AD
:101B7000A3190822284601F0C7FE0136E4E7000059
:101B800013B504460846002101602346C0F803103F
:101B90002022019001F0B8FE0198231D022220218D
:101BA00001F0B2FE0198631D0322222101F0ACFE78
:101BB0000198A31D0322252101F0A6FE019804F13E
:101BC00008031022282101F09FFE072002B010BD5B
:101BD000F7B5047F05460E462CB1838A122B02D935
:101BE000012003B0F0BD00231946072200962846C5
:101BF00001F04EFD731C00930122002307212846AB
:101C000001F046FDD4B9B31C0093052223460821F8
:101C1000284601F03DFD0D24B378102BE0D837465F
:101C2000B278BB1B934210D32B7FA88A0734E408F9
:101C3000B3B9844294BF00200120D2E7AB8ADB0015
:101C4000083BDB08B3700824E6E7FB1C0093214641
:101C500000230822284601F01BFD08340137DFE786
:101C6000201A18BF0120BCE7F7B5047F05460E46D1
:101C70002CB1838ACA2B02D9012003B0F0BD002306
:101C8000194600960822284601F002FD731CD4B9BB
:101C90000822009311462346284601F0F9FC10243F
:101CA0007378C82BE8D8012372785F1C013B9342FC
:101CB00010D32B7FA88A0734E408B3B9844294BFB9
:101CC00000200120D9E7AB8ADB00083BDB087370FA
:101CD0000824E5E7F319009321460023082228464B
:101CE00001F0D6FC08343B46DEE7201A18BF01207D
:101CF000C3E70000F7B50D46044600211646284606
:101D00008122FFF70BFE234608220021284601F01E
:101D1000FBFD94F901206378002AB8BF7F238DF87A
:101D200007309EB90DF1070307220821284601F06C
:101D3000EBFD0F27002602349DF807309E4207EB8B
:101D4000C60105D30731C80803B0F0BD0827F1E785
:101D5000A3190822284601F0D7FD0136ECE7000060
:101D6000F7B50E460546002114463046CE22FFF751
:101D7000D5FD2B4628220021304601F0C5FD2B7AE7
:101D8000C82B28BFC8238DF807308CB90DF1070385
:101D900008222821304601F0B7FD30242F469DF857
:101DA00007207B1B934205D3E01DC00803B0F0BDA4
:101DB0002824F3E707F1090321460822304601F001
:101DC000A3FD08340137EAE7F7B5047F05460E4660
:101DD00034B1838AB3F5827F02D9012003B0F0BD0C
:101DE0000096012310220021284601F051FCDCB9A5
:101DF000B31C0093092223461021284601F048FC19
:101E000019247388B3F5807FE7D837467288BB1BE7
:101E1000934210D32B7FA88A0734E408B3B98442D5
:101E200094BF00200120D9E7AB8ADB00103BDB0820
:101E300073801024E5E73B1D009321460023082210
:101E4000284601F025FC08340137DFE7201A18BFC7
:101E50000120C3E730B5094D0A4491420DD011F875
:101E6000013B5840082340F30004013B2C4013F091
:101E7000FF0384EA5000F6D1EFE730BD2083B8EDD0
:101E8000F7B54FF0FF33DFF854C0DFF854E000EB54
:101E900081011A4688421CD050F8044B019401AFCE
:101EA000042417F8015B82EA05620825DB18164650
:101EB00005F1FF355241002EBCBF83EA0C0382EAD4
:101EC0000E0215F0FF05F1D1013C14F0FF04E8D13A
:101ED000E0E7D843D14303B0F0BD00BF9336EAA991
:101EE000EBE1F042F7B53A4A106851686B4603C31C
:101EF0006A4638493848082304F038FC044600286C
:101F000035D10A25354A106851686B4603C36A46C5
:101F100033493148082304F029FC044600284DD0F9
:101F20000369B3F5E02F49D8B0F8662040F20441C8
:101F30008A4201D0552A41D12A4A224402F15C0149
:101F40008B423BD35C3B244900209E1AFFF782FF63
:101F50003246074604F164010020FFF77BFFA368C7
:101F60009F422BD1E368984208BF002526E0036911
:101F7000B3F5E02F29D8428B40F204418A4201D0C8
:101F8000552A20D1174A224402F110018B4218D35E
:101F9000103B114900209D1AFFF75CFF2A460646B8
:101FA00004F118010020FFF755FFA3689E4202D1FB
:101FB000E368984201D00D25A4E70025284603B028
:101FC000F0BD10259EE70C259CE70B259AE700BF86
:101FD00008680008DCFF060000000108116800081E
:101FE00090FF06000800FFF710B5037C044613B904
:101FF000006804F0A3FB204610BD00000023BFF3DF
:102000005B8FC360BFF35B8FBFF35B8F8360BFF3F6
:102010005B8F7047BFF35B8F0068BFF35B8F7047C8
:1020200070B505460C30FFF7F5FF05F108060446CC
:102030003046FFF7EFFFA04206D930466D68FFF744
:10204000E9FF2544281A70BD3046FFF7E3FF201A48
:10205000F9E7000070B50546406898B105F1080041
:10206000FFF7D8FF05F10C0604463046FFF7D2FF14
:102070008442304694BF6D680025FFF7CBFF013CDA
:102080002C44201A70BD000038B50C460546FFF7F9
:10209000C7FFA04210D305F10800FFF7BBFF0444BF
:1020A0006868B4FBF0F100FB1144BFF35B8F0120C3
:1020B000AC60BFF35B8F38BD0020FCE72DE9F04139
:1020C000144607460D46FFF7C5FF844228BF044665
:1020D000D4B1B84658F80C6B4046FFF79BFF30442C
:1020E000286040467E68FFF795FF331A9C4203D86C
:1020F0006C600120BDE8F0816B60A41B3B68AB60A5
:102100002044E8600220F5E72046F3E738B50C46A6
:102110000546FFF79FFFA04210D305F10C00FFF723
:1021200079FF04446868B4FBF0F100FB1144BFF38D
:102130005B8F0120EC60BFF35B8F38BD0020FCE7B4
:102140002DE9FF41884669460746FFF7B7FF6C4611
:1021500006B204EBC6060025B44209D062682068C6
:1021600008EB0501FFF7B4FB636808341D44F3E78F
:1021700029463846FFF7CAFF284604B0BDE8F0817B
:10218000F8B505460C300F46FFF744FF05F1080689
:1021900004463046FFF73EFFA042304688BF6C68D9
:1021A000FFF738FF201A386020B130462C68FFF75F
:1021B00031FF2044F8BD000073B5144606460D46B5
:1021C000FFF72EFF844228BF04460190DCB101A92D
:1021D0003046FFF7D5FF019B33B93268C5E90233BA
:1021E000C5E9002401200CE09C4238BF019428601E
:1021F000019868608442F5D93368AB60241AEC60BA
:10220000022002B070BD2046FBE700002DE9FF412F
:102210000F466946FFF7D0FF6C4600B204EBC005DD
:102220000026AC4209D0D4F8048054F8081BB81931
:102230004246FFF74DFB4644F3E7304604B0BDE8A5
:10224000F081000038B50546FFF7E0FF044601467F
:102250002846FFF719FF204638BD000001218842BB
:1022600038BF084604F054BA08B104F067BA7047A2
:1022700010B4026854681A4623465DF8044B1847A8
:102280000020704700207047704700000020704712
:102290000E20704700F5805090F8D800C0F3400041
:1022A0007047000000F5805090F9E0007047000092
:1022B00000F58050C0F8DC1001207047F7B50C68BD
:1022C000BDF8207014F0005473D10D7B082D70D828
:1022D000302585F31188456AAE6876010CD4AC6868
:1022E000240108D4AC6814F0805460D184F31188C0
:1022F000204603B0F0BD01240E6804F1180C002E36
:10230000B8BFF6004FEA0C1CB4BF46F004067605D1
:1023100045F80C600E680FFA84FC16F0804F18BF69
:1023200005EB0C1E05EB0C1C1EBFDEF8806146F0B1
:102330000206CEF880610E7BCCF8846105EB0415B3
:102340008E68C5F88C614E68C5F88861DCF88051EC
:1023500045F00105CCF8805141F2780500EB441CB2
:10236000660105EB4414AC440444CCE900230D465B
:10237000083401F10C0C55F804EB44F804EB654506
:10238000F9D12D882580841904F5805407F00305C0
:1023900094F8946026F00B06354384F8945000249A
:1023A00084F31188009700F033FD0120A1E7022497
:1023B000A2E74FF0FF309CE713B500F58054019180
:1023C000E06EFFF747FE1F280AD90199E06E202230
:1023D000FFF7B6FEA0F120035842584102B010BDED
:1023E0000020FBE708B5302383F3118800F5805007
:1023F000C06EFFF703FE002383F3118808BD0000C1
:1024000000220260828142608260704710B5002223
:102410000023C0E900230023044603810C30FFF7AA
:10242000EFFF204610BD0000F0B5054600F58050D6
:102430000C4690F8D83013F0040FC3F3800108BFA6
:10244000114661F3820380F8D83005EB441303F59D
:102450008453103389B01B79D8074FEA44162FD51F
:1024600082B319072ED46846FFF7D0FF05EB44135B
:1024700003F5845303AA03F1080718685968144642
:1024800003C40833BB422246F7D1186820609B88FA
:10249000A380DDE90E23CDE900230123ADF8083048
:1024A0002B6869461B6C28469847354405F58455CA
:1024B00010352B791A075CBF43F008032B7101E03C
:1024C000002AF2D109B0F0BD2DE9F0479A4688B054
:1024D000074688469146302383F3118807F58054D8
:1024E0006846FFF793FFE06EFFF79AFD1F282AD991
:1024F000E06E20226946FFF7A5FE202823D103AD18
:10250000444605AB2E4603CE9E42206061603546B0
:1025100004F10804F6D130682060B388A380DDE9B7
:102520000023C9E90023BDF80830AAF800300023D1
:1025300083F3118853464A464146384608B0BDE801
:10254000F04700F029BC002080F3118808B0BDE8F6
:10255000F08700002DE9F84F182204460F4604309A
:102560000021FFF7DBF92046234B40F8283BFFF71B
:1025700047FF04F13800FFF749FF04F1580804F55C
:1025800082554646183530462036FFF73FFFAE42AB
:10259000F9D104F580554FF480534FF00009C5E997
:1025A0001739C5F858800123EE6604F5875804F5FD
:1025B0008456C5F8649085F8683085F87030183610
:1025C00008F118084FF0000A4FF0000B46E908AB7D
:1025D000A6F11800FFF714FF203646F8289C464560
:1025E000F4D185F8E07017B1044800F0C1FB044B4A
:1025F00063622046BDE8F88F446800081C68000844
:102600000064004010B5044B197804464A1C1A7047
:10261000FFF7A0FF204610BD944B00202DE9F043AA
:1026200000294FD0284B2948B0FBF1F099428CBFCC
:102630000A2311235D1EB0FBF3F703FB1703ECB273
:102640002BB1022D2B46F5D80020BDE8F0837E1E6D
:10265000B6F5806FF8D2C4EBC40C0CF103034FEA5B
:10266000E308C3F3C703A4EB030E08F101094FF419
:102670007A755FFA8EF008FB055559FA8EFEB5FBA8
:10268000FEF5B5F5617FC1BF0CF1FF33C3F3C7039E
:10269000E01AC0B25C1C50FA84F40C4D7C43B5FBCC
:1026A000F4F4A142D0D1013BDBB20F2BCCD80138DE
:1026B000C0B20728C8D80021107116809170D3705D
:1026C0000120C2E70846C0E73F420F0080F9370308
:1026D00070B505460E464FF47A746B6A5B6803F07A
:1026E0000103B34207D04FF47A7002F031F9013C94
:1026F000F3D1204670BD0120FCE7000070B5426AAE
:10270000936913F0700F17D000230C4D936141F2C1
:10271000900400EB4312224411794E0709D5890732
:1027200007D5416A55F823608E60117941F00401A4
:1027300011710133032BECD170BD00BF306800086C
:1027400073B51D46436A16469A68D207044609D5F2
:102750009A6801219960C2F34002CDE90065002129
:10276000FFF762FE636A9A68D1050BD59A684FF449
:1027700080719960C2F34022CDE9006501212046B5
:10278000FFF752FE636A9A68D2030BD59A684FF43A
:1027900080319960C2F34042CDE9006502212046B4
:1027A000FFF742FE04F58053D3F8DC0010B1036854
:1027B0001B699847204602B0BDE87040FFF79EBFF6
:1027C000F8B50446466A002977D106F10C07386847
:1027D000800775D006EB01153868D5F8B00110F008
:1027E000040FD5F8B0011ABFC00840F00040400DFA
:1027F000A062D5F8B0C11CF0020F1CBF40F08040B1
:10280000A062D5F8B40106EB011100F00F0084F8C6
:102810003400D1F8B80184F82C00D1F8B801000ACE
:1028200084F82D00D1F8B801000C84F82E00D1F8FE
:10283000B801000E84F82F00D1F8BC0184F83000F4
:10284000D1F8BC01000A84F83100D1F8BC01000CB9
:1028500084F83200D1F8BC11090E84F83310382105
:10286000396004F1440004F1280104F1340551F801
:10287000046B40F8046BA942F9D109880180C4E9CE
:102880000E2321460023A4F8403051F8383B20465F
:102890001B6C984704F5805393F8D820D3F8DC00DC
:1028A00042F0040283F8D82010B103681B699847EE
:1028B0002046BDE8F840FFF721BF06F1100786E784
:1028C000F8BD000010B5044600F05AFA02460B4667
:1028D00052EA030102D0013A63F100030449086897
:1028E00020B12146BDE81040FFF76ABF10BD00BF10
:1028F000904B0020F0B5302181F31188DFF848E0DB
:1029000000F583511831002441F2900C00EB44157E
:1029100065442E7977070ED4F6060CD5D1E90076FA
:1029200097429E4107D2466A5EF82470B7602E79BE
:1029300046F004062E710134032C01F12001E5D18B
:10294000002383F31188F0BD3068000808B53023F8
:1029500083F31188FFF7D2FE002383F3118808BDAB
:102960002DE9F041436A0446986800F0E050B0F168
:10297000E05F0E4622D0F8B1302383F311880025A2
:1029800004F5845741F2900804EB451343441B7946
:102990001A0706D50135032D07F12007F4D10120D0
:1029A00007E05B07F6D43946304600F083FA00288A
:1029B000F0D1002383F31188BDE8F0810120FBE70B
:1029C00008B5302383F3118800F58050C06EFFF7FF
:1029D00027FB002383F3118843090CBF012000204B
:1029E00008BD0000F8B51D46002313700F460646CB
:1029F0001446FFF7E5FF80F00100387025B1294645
:102A00003046FFF7ADFF2070F8BD00002DE9B8415A
:102A10000C4615461F46804600F0B2F90B46217859
:102A2000024609B9287850B14046FFF763FFFFF727
:102A30008DFF3B462A462146FFF7D4FF0120BDE823
:102A4000B881000070B5302686F31188174B1A6CD8
:102A500042F000721A641A6A42F000721A621A6A2C
:102A600022F000721A62002383F3118800F580546B
:102A700094F8D83013F0010516D1A9B186F3118866
:102A80000321132001F022FA0321142001F01EFA81
:102A90000321152001F01AFA94F8D83043F001030D
:102AA00084F8D83085F3118870BD00BF003802402B
:102AB0002DE9F04700F5805588B095F8E030012BFE
:102AC00004468846164600F28280824F57F823203B
:102AD0000AB947F82300D7F800A0C4F81C8084F88E
:102AE0002060BAF1000F64D095F8E030012B70D06F
:102AF00001212046FFF7A6FF302383F31188626A85
:102B0000136823F002031360626A136843F0010341
:102B10001360636A00275F6187F3118801212046F3
:102B2000FFF7D6FD002800F09580E86EFFF766FA03
:102B300004F58359BA4609F1180920220021684694
:102B4000FEF7ECFE02A8FFF75BFCCDF818A06A4682
:102B500009EB07030DF1180E9446BCE80300F44599
:102B600018605960624603F10803F5D1DCF80000F3
:102B7000186020379CF804201A71602FDDD195F879
:102B8000D8306FF38203002785F8D8306A46414673
:102B90002046ADF80070ADF802708DF80470FFF7B4
:102BA0003DFD636A48BB4FF400421A6008B0BDE8BF
:102BB000F08741F2E800FFF751FB814610B1514622
:102BC000FFF7C8FCC7F80090B9F1000F8CD10020C6
:102BD000ECE7386803681B6B98470146002887D1EB
:102BE0003868FFF72FFF3868036832465B68414654
:102BF000984700287FF47CAFE9E761221A609DF8CE
:102C000002309DF803201B06120402F4702203F028
:102C100040731343BDF80020C2F3090213439DF82B
:102C200004201205022E02F4E0020CBF4FF0004116
:102C300000211343626A0B43D361636A13225A6112
:102C4000626A136823F00103136039462046FFF7D8
:102C50003FFD08B9636AA6E795F8E03093BB616A67
:102C6000D1F8002242F00102C1F80022616AD1F8D5
:102C7000002222F47C5222F00E02C1F80022616A86
:102C8000D1F8002242F46062C1F80022626AC2F800
:102C90001432626AC2F80432626A41F6FF71C2F805
:102CA0000C12626AC2F84032626AC2F84432636A45
:102CB0000122C3F81C22626AD2F8003223F0010319
:102CC000C2F8003295F8D83043F0020385F8D830C6
:102CD0006CE700BF904B002008B500F051F850EAB7
:102CE0000103024602D0421E61F10001044B186844
:102CF00010B10B46FFF724FDBDE8084001F0BCB859
:102D0000904B002008B50020FFF7DCFDBDE808402F
:102D100001F0B2B808B50120FFF7D4FDBDE80840C6
:102D200001F0AAB800B59BB0EFF3098168226846AC
:102D3000FEF7CEFDEFF30583014B9B6BFEE700BF73
:102D400000ED00E008B5FFF7EDFF000000B59BB017
:102D5000EFF3098168226846FEF7BAFDEFF30583B9
:102D6000014B5B6BFEE700BF00ED00E0FEE70000FB
:102D70000FB408B5029801F091FDFEE702F00EBA1B
:102D800002F0F0B90139C9B202299EBF00EBC100BF
:102D90000023C0E901337047F8B51B885B0705467F
:102DA0000E4615D4044600F11807BC4210D06368E3
:102DB00053B12B682846DB6B9847A368C1B23246F3
:102DC000606898470834F0E7A368002BF1D1F9E771
:102DD0000120F8BD73B56C4684E806000146002268
:102DE0004E68D5B26EB98E685EB900EBC200021DA6
:102DF00094E80300013582E803001D70012002B051
:102E000070BD0132032A01F10801E9D10020F6E783
:102E10002DE9F04F89B00446BDF848700E460546CE
:102E200000F118084FF0000907F004074FF0000AFE
:102E30004FF0000BA84538D06B680BB9AB684BB1AD
:102E400057B923682046DB6B9847AB68C1B232465E
:102E5000686898470835EDE7B9F1000FFAD1CDE978
:102E600000ABADF80890334603AA06F1080E1868C7
:102E700059689446ACE80300083373456246F6D1BE
:102E80001868CCF800009B88ACF80430FFF778FF96
:102E90000423ADF808302368CDE900011B6C6946B6
:102EA000204698474FF00109D4E7012009B0BDE85A
:102EB000F08F000030B503680968DD0FB5EBD17FF6
:102EC00023F0604421F060424FEAD1700BD0002B18
:102ED000B8BFA40C0029B8BF920C944202D034BFF2
:102EE0000120002030BD944205D1C1F38070C3F3AE
:102EF00080738342F6D194422CBF00200120F1E779
:102F00002DE9F041456A15B94162BDE8F0814B6891
:102F100023F06047C3F38A464FEAD37EC3F3807839
:102F200016EA230638BF3E46AC462B465A68BEEB2F
:102F3000D27F22F060440AD0002A18DAA40CB442EE
:102F400017D19D420FD10D60DEE71346EEE7A74291
:102F500007D102F08044C2F3807242450BD054B1D5
:102F6000EFE708D2EDE7CCF800100B60CDE7B442F4
:102F700001D0B442E5D81A689C46002AE5D1196010
:102F8000C3E700002DE9F047089D01F007044FEA70
:102F9000D508224405F0070500EBD1004FF47F4926
:102FA000944201D1BDE8F08704F0070705F0070A55
:102FB00057453E4638BF5646C6F10806111B8E429D
:102FC00028BF0E46E10808EBD50E415C13F80EC091
:102FD000B94029FA06F721FA0AF1FFB28CEA010199
:102FE00047FA0AF739408CEA010C03F80EC0344462
:102FF0003544D5E780EA0120082341F2210201B2DD
:103000004000002980B203F1FF33B8BF504013F0F5
:10301000FF03F4D17047000038B50C468D18A54267
:1030200000D138BD14F8011BFFF7E4FFF7E70000FB
:1030300042684AB1136843604389818901339BB276
:103040009942438138BF83811046704770B588B07C
:10305000202204460D4668460021FEF75FFC20460C
:103060000495FFF7E5FF024658B16B46054608AEEA
:103070001C4603CCB44228606960234605F108056C
:10308000F6D1104608B070BD082817D909280CD011
:103090000A280CD00B280CD00C280CD00D280CD0F2
:1030A0000E2814BF4020302070470C20704710209D
:1030B0007047142070471820704720207047000088
:1030C000082817D90C280CD910280CD914280CD989
:1030D00018280CD920280CD930288CBF0F200E209E
:1030E0007047092070470A2070470B2070470C205A
:1030F00070470D20704700002DE9F843078C072F1B
:1031000004461ED9D0E9029800254FF6FF73C5F199
:103110002006A5F1200029FA05F108FA06F628FA9A
:1031200000F031430143C9B21846FFF763FF083589
:10313000402D0346EBD1E1693A46BDE8F843FFF77D
:103140006BBF4FF6FF70BDE8F883000010B54B6809
:1031500023B9CA8A63F30902CA8210BD04691A68D6
:103160001C600361C38A013BC3824A60EFE7000031
:103170002DE9F84F1D46CB8A0F46C3F309010529F7
:10318000814692460B4630D00020AAB207F11A04BD
:103190009EB2042E1FFA80F80FD8904503F1010368
:1031A00006D3FB8A0A4462F30903FB8201201AE07A
:1031B0001AF80060E6540130EAE79045F1D2A1F137
:1031C000050B1C237C68BBFBF3F203FB12BB1FFA4D
:1031D0008BF6002C45D14846FFF72AFF044638B944
:1031E00078606FF00200BDE8F88F4FF00008E6E766
:1031F000002606607860ADB24FF0000B454510D94F
:103200000AEB0803221D13F8011B9155B1B208F116
:1032100001081B291FFA88F82BD0454506F1010645
:10322000F1D8FB8AC3F30902154465F30903BCE72F
:10323000013292B21C462368002BF9D16B1F0B445C
:103240001C21B3FBF1F301339BB29A42D3D2BBF101
:10325000000FD0D14846FFF7EBFE20B9C4F800B00C
:10326000BFE70122E7E7C0F800B05E4620600446F1
:10327000C1E74545D5D94846FFF7DAFE08B92060D1
:10328000AFE7C0F800B0002620600446B6E70000B3
:103290002DE9F04F2DED028B1C4683B05B69019246
:1032A00007468846002B00F0A780238C2BB1E269EB
:1032B000002A00F0A180072B35D807F10C00FFF79A
:1032C000B7FE054638B96FF00205284603B0BDECDD
:1032D000028BBDE8F08F14220021FEF71FFB228C29
:1032E000E16905F10800FEF7F3FA208C013080B2A5
:1032F000FFF7E6FEFFF7C8FE013880B220840130F8
:1033000028746369228C1B782A4403F01F0363F03E
:103310003F0348F000411372384669602946FFF7C1
:10332000EFFD0125D1E702339BB20722C18A0633A4
:10333000B3FBF2F3828A521A9BB292B29342C2D882
:1033400000F10C034FF0000908EE103A4FF0800A2C
:103350004E464D4618EE100AFFF76AFE83460028D7
:10336000B1D014220021FEF7D9FA002E3AD1019BE8
:10337000ABF8083002220BF1080E1FFA82FC0CF1A8
:103380000100BCF1060F218C80B201D88E422BD3F4
:10339000FFF796FEFFF778FE62691278013802F0B7
:1033A0001F028E4208BF4FF0400A42EA49121BFA40
:1033B00080F14AEA020A013048F0004281F808A090
:1033C0008BF81000CBF8042059463846FFF798FDDB
:1033D000238C0135B3422DB289F001094FF0000A68
:1033E000B8D172E70022C6E7E169895D0EF80210E4
:1033F0000136B6B20132C0E76FF0010565E70000A3
:10340000F8B515460E463022002104461F46FEF749
:1034100085FA069B6360B5F5001F079BA76034BF64
:103420006A094FF6FF72A36297B2E66104F11000D9
:1034300000239A4206D800230360A782E3822383F5
:10344000E360F8BD0660013330462036F1E7000046
:1034500003781BB94BB2002BC8BF01707047000046
:1034600000787047F8B50C46C969074611B9238C36
:10347000002B37D1257E1F2D34D8387828BB228CDD
:10348000072A2CD8268A36F003032BD14FF6FF707B
:10349000FFF7C2FD20F001003102400441EA05615E
:1034A000400C41EA40254FF6FF7223462946384634
:1034B000FFF7EEFE002807DD626913780133DBB207
:1034C0001F2B88BF00231370F8BD218A2D0645EA03
:1034D000012505432046FFF70FFE0246E5E76FF0A2
:1034E0000300F1E76FF00100EEE7000070B58AB06D
:1034F000044616460021282268461D46FEF70EFAAD
:10350000BDF83830ADF810300F9B05939DF8403072
:103510008DF81830119B07936946BDF84830ADF817
:1035200020302046CDE90265FFF79CFF0AB070BD50
:103530002DE9F041D36905460C4616460BB9138CAC
:103540005BBB377E1F2F28D895F80080B8F1000F9D
:1035500026D03046FFF7D0FD3378210241EAC3314F
:1035600041EA0801338A41EA076141EA0341024620
:10357000334641F080012846FFF78AFE00280ADD25
:103580003378012B07D1726913780133DBB21F2B1B
:1035900088BF00231370BDE8F0816FF00100FAE7E7
:1035A0006FF00300F7E70000F0B58BB004460D465E
:1035B00017460021282268461E46FEF7AFF99DF8FF
:1035C0004C305A1E534253418DF800309DF8403024
:1035D000ADF81030119B05939DF848308DF81830E8
:1035E000149B07936A46BDF85430ADF82030294645
:1035F0002046CDE90276FFF79BFF0BB0F0BD00003F
:10360000406A00B104307047436A1A684262026936
:103610001A600361C38A013BC38270472DE9F04100
:10362000D0F82080194E14461D464146002709B99E
:10363000BDE8F081D1E90223A21A65EB03039642AB
:1036400077EB03031ED2036A8B420DD1FFF77EFD99
:10365000036A1B68036203690B60C38A0161016A24
:10366000013BC3828846E2E7FFF770FD0B68C8F8AC
:10367000003003690B60C38A0161013BC382D8F843
:103680000010D4E788460968D1E700BF80841E0097
:103690002DE9F04F8BB00D46DDF8509014469B4657
:1036A0008046002800F01981B9F1000F00F0158163
:1036B000531E3F2B00F21181012A03D1BBF1000FF1
:1036C00040F00B810023CDE90833B8F81430B5EB96
:1036D000C30F4FEAC30703D300200BB0BDE8F08F40
:1036E0002B199F42D8F80C303ABF7F1BFFB22746F8
:1036F0001BB9D8F81030002B7AD0272D4ED8C5F141
:103700002806B7424FF000032CBFF6B23E460093A6
:103710002946D8F8080008AB3246FFF733FCA7EB80
:10372000060A35445FFA8AFAB8F8143003F10053F8
:10373000053BDB000493D8F80C3003932821039B4E
:1037400013B1BAF1000F2CD1D8F8100040B1BAF182
:10375000000F05D0009608AB5246691AFFF712FC1D
:1037600038B2002FB8D066070AD00AAB03EBD401F9
:10377000624211F8083C02F00702134101F8083CCC
:10378000082C3CD9102C40F2B580202C40F2B78098
:10379000BBF1000F00F09C80082334E0BA460026FD
:1037A000C2E7049BE02B28BFE02306930B44AB4207
:1037B000059314D95A1B03980096924534BF52467C
:1037C000D2B2691A08AB04300792FFF7DBFB079A05
:1037D0001644AAEB020A1544F6B25FFA8AFA049B71
:1037E000069A05999B1A0493039B1B680393A6E70B
:1037F0000093D8F8080008AB3A462946AEE7BBF17B
:10380000000F13D00123B4EBC30F6CD0082C12D8D7
:103810009DF82030621E23FA02F2D50706D54FF03C
:10382000FF3202FA04F423438DF820309DF8203053
:1038300089F8003051E7102C12D8BDF82030621EF4
:1038400023FA02F2D10706D54FF0FF3202FA04F450
:103850002343ADF82030BDF82030A9F800303CE714
:10386000202C0FD80899631E21FA03F3DA0705D537
:103870004FF0FF3202FA04F40C430894089BC9F895
:1038800000302AE7402C2BD0DDE90865611EC4F129
:103890002102A4F1210326FA01F105FA02F225FA28
:1038A00003F311431943CB0712D50122A4F12003DE
:1038B000C4F1200102FA03F322FA01F1A2405242BC
:1038C00043EA010363EB430332432B43CDE908236F
:1038D000DDE90823C9E90023FFE66FF00100FCE6FB
:1038E0006FF00800F9E6082CA0D9102CB3D9202CD1
:1038F000EED8C3E7BBF1000FADD0022383E7BBF1E5
:10390000000FBBD004237EE730B5012A144638BF30
:103910000124402C85B028BF40240025012ACDE990
:10392000025518D81B788DF8083063070AD004AB0D
:1039300003EBD405624215F8083C02F007029340FD
:1039400005F8083C009103462246002102A8FFF733
:1039500019FB05B030BD082AE4D9102A03D81B880A
:10396000ADF80830E1E7202A8DBFD3E900231B68BA
:103970000293CDE90223D8E710B5CB681BB98B6061
:103980000B618B8210BD04691A681C600361C38AD5
:10399000013BC382CA60F0E703064CBFC0F3C030EE
:1039A0000220704708B50246FFF7F6FF022806D14D
:1039B0005306C2F30F2001D100F0030008BDC2F38B
:1039C0000740FBE72DE9F04F93B0CDE903230A68E8
:1039D00004461046FFF7E0FF022814BFC2F3062694
:1039E0000026002A0D46824680F2F78112F0C04977
:1039F00040F0F381097B002900F0EF81022803D019
:103A00002378B34240F0EC81C2F30463069310467E
:103A100002F07F030593FFF7C5FF059B29444FEA9A
:103A2000834848EA0A4848EA4668CE7800230022DC
:103A3000CDE90823F309834648EA0008029367D0DA
:103A4000059B009302466768534608A92046B8477D
:103A5000002800F0C881276A4FB9414604F10C00E4
:103A6000FFF7F4FA074690B96FF0020054E03B69A3
:103A700098450DD03F68002FF9D1414604F10C0064
:103A8000FFF7E4FA07460028EED0236A3B6027627E
:103A900097F817C006F01F08CCF3840CACEB0800B5
:103AA0001FFA80FE0028B8BF0EF12000A8EB0C031F
:103AB0001FFA83FED7E90221B8BF00B2002B07939B
:103AC000BEBF0EF120031BB2079352EA010338D0A8
:103AD000039BDFF824E39A1A049B4FF0000C63EB7E
:103AE000010196457CEB01032BD36B7B97F81AE021
:103AF000734519D1029B002B78D0012821DC78680E
:103B0000F8B9DFF8F0C2944570EB010316D337E043
:103B1000276A27B96FF00C0013B0BDE8F08F3B693E
:103B20009845B5D03F68F4E7B24890427CEB01037A
:103B300001D30020F0E7029B002BFAD0079B0F2B4C
:103B400017DCFA7DB30002F0030203F07C03134399
:103B5000FB7539462046FFF7F9FA6B7BBB76029B73
:103B60003BB9FB7DC3F38402013262F38603FB752C
:103B7000D0E76A7BBB7E9A42DBD1029B002B35D01B
:103B8000B309022B32D0039BBB60049BFB60142261
:103B900000210DA8FDF7C2FE039B0A93049B0B9323
:103BA0002B1D0C932B7BADF83EB0013BDBB2ADF887
:103BB0003C30069B8DF84230059B8DF8433094F8DD
:103BC0002C308DF840A083F001038DF844308DF83F
:103BD0004180A3680AA920469847FB7DC3F384036C
:103BE000013303F01F039B02FB82A2E7FB7DC6F3B8
:103BF0004012B2EBD31F40F0F980C3F38403434576
:103C000040F0FC80029A2B7BB609002A52D016F0B5
:103C1000010661D1032B40F2F480039BBB60049B3F
:103C2000FB60FB8A66F30903FB822B7BAE1D033B23
:103C3000DBB23246394604F10C00FFF799FA00284E
:103C40000CDA39462046FFF781FAFB7DC3F3840383
:103C5000013303F01F039B02FB8205E7DDE90884C3
:103C6000AB883B834FF6FF73C9F12000A9F1200216
:103C700028FA09F104FA00F0014324FA02F2114390
:103C80001846C9B2FFF7B6F909F10809B9F1400FB2
:103C90000346E9D1B8822A7B033AD2B23146FFF714
:103CA000BBF9FB7DB882DA43C2F3C01262F3C713DB
:103CB000FB753EE786B92E1D013BDBB23246394625
:103CC00004F10C00FFF754FA0028BADB2A7BB88A0B
:103CD000013AD2B23146E2E7F98AC1F30901013B68
:103CE0000429DAB25BD8281D002307F11B069A428B
:103CF00008D910F801CB06F801C0013101330529BC
:103D0000DBB2F4D103990A9104990B91934207F124
:103D10001B010C9138BF043379680D9134BF55FAFB
:103D200083F300230E93FB8AADF83EB0C3F309037F
:103D30001A44069B8DF84230059B8DF8433094F869
:103D40002C30ADF83C2083F001038DF84430002383
:103D50008DF840A08DF841807B602A7BB88A013ABB
:103D6000291DFFF759F93B8BB882834203D1A36821
:103D70000AA92046984720460AA9FFF7FDFDFB7DCA
:103D8000BA8AC3F38403013303F01F039B02FB824F
:103D90003B8B9A420CBF00206FF01000BCE67B68A2
:103DA000002BAFD0052001E01C3033461E68002EEA
:103DB000FAD1091A081D2E1D184401EB090CBCF19B
:103DC0001B0F5FFA89F39DD89A429BD916F8013BE5
:103DD00000F8013B09F10109EFE76FF009009BE6EC
:103DE0006FF00A0098E66FF00B0095E66FF00D009B
:103DF00092E600BF40420F0080841E006FF00E006C
:103E00008AE66FF00F0087E6EFF3098305494A6BF6
:103E100022F001024A63683383F30988002383F3A5
:103E20001188704700EF00E0302080F3118862B6FF
:103E30000D4B0E4AD96821F4E0610904090C0A43CC
:103E4000DA60D3F8FC200A4942F08072C3F8FC2003
:103E5000084AC2F8B01F116841F001011160202228
:103E6000DA7783F82200704700ED00E00003FA05DE
:103E700055CEACC5001000E010B5302383F3118897
:103E80000E4B5B6813F4006314D0F1EE103AEFF3BD
:103E90000984683C4FF08073E361094BDB6B236658
:103EA00084F3098800F0C4FC10B1064BA36110BD77
:103EB000054BFBE783F31188F9E700BF00ED00E055
:103EC00000EF00E05F0300086203000800F16043B8
:103ED00003F561430901C9B283F80013012200F020
:103EE0001F039A4043099B0003F1604303F56143BC
:103EF000C3F880211A60704702684368114301606B
:103F000003B118477047000013B5446BD4F89434DC
:103F10001A681178042915D1217C022912D1197946
:103F2000128901238B4013420CD101A904F14C00EA
:103F300002F03CF8D4F89444019B217902462068B1
:103F400000F0D6F902B010BD143001F0BFBF000080
:103F50004FF0FF33143001F0B9BF00004C3002F0D5
:103F600091B800004FF0FF334C3002F08BB80000E6
:103F7000143001F08DBF00004FF0FF31143001F01C
:103F800087BF00004C3002F05DB800004FF0FF32F8
:103F90004C3002F057B800000020704710B5D0F840
:103FA00094341A6811780429044617D1017C022937
:103FB00014D15979528901238B4013420ED1143008
:103FC00001F020FF024648B1D4F894444FF48073C6
:103FD00061792068BDE8104000F078B910BD00009C
:103FE000406BFFF7DBBF0000704700007FB5124B4E
:103FF000036000234360C0E90233012502260F4B12
:10400000057404460290019300F18402294600964B
:104010004FF48073143001F0D1FE094B0294CDE9C6
:10402000006304F523724FF48073294604F14C00B9
:1040300001F098FF04B070BD88680008E13F0008F7
:10404000093F00080B68302282F311880A7903EBDC
:10405000820210624A790D3243F822008A7912B145
:1040600003EB820318620223C0F894140374002047
:1040700080F311887047000038B5037F044613B100
:1040800090F85430ABB9201D01250221FFF734FF11
:1040900004F1140025776FF0010100F081FC84F831
:1040A000545004F14C006FF00101BDE8384000F0BD
:1040B00077BC38BD10B5012104460430FFF71CFF62
:1040C0000023237784F8543010BD000038B504462F
:1040D0000025143001F08AFE04F14C00257701F030
:1040E00059FF201D84F854500121FFF705FF204699
:1040F000BDE83840FFF752BF90F85C3003F0600332
:10410000202B07D190F85D20212A4FF0000303D81F
:104110001F2A06D800207047222AFBD1C0E9143399
:1041200003E0034A02650722426583650120704768
:104130003823002037B5D0F894341A681178042950
:1041400004461AD1017C022917D119791289012359
:104150008B40134211D100F14C05284601F0DAFFE3
:1041600058B101A9284601F021FFD4F89444019BDD
:1041700021790246206800F0BBF803B030BD000092
:10418000F0B500EB810385B01E6A04460D46FEB112
:10419000302383F3118804EB8507301D0821FFF7D6
:1041A000ABFEFB685B691B6806F14C001BB101901C
:1041B00001F00AFF019803A901F0F8FE024648B198
:1041C000039B2946204600F093F8002383F31188CF
:1041D00005B0F0BDFB685A691268002AF5D01B8A49
:1041E000013B1340F1D104F15C02EAE70D3138B52F
:1041F00050F82140DCB1302383F31188D4F89424A3
:104200001368527903EB8203DB689B695D6845B1F3
:1042100004216018FFF770FE294604F1140001F034
:10422000FBFD2046FFF7BAFE002383F3118838BD5B
:104230007047000001F05CB910B501230446282244
:1042400000F8243B0021FDF769FB0023C4E901339A
:1042500010BD000038B50446302383F311880025D3
:10426000C0E90355C0E90555C0E90755416001F0B3
:104270004FF90223237085F31188284638BD0000CA
:1042800070B500EB810305465069DA600E461446AE
:1042900018B110220021FDF741FBA06918B11022CE
:1042A0000021FDF73BFB31462846BDE8704001F098
:1042B000F9B90000826802F0011282600022C0E9B0
:1042C0000422C0E90622026201F078BAF0B400EBE1
:1042D00081044789E4680125A4698D403D434581F7
:1042E00023600023A2606360F0BC01F093BA000079
:1042F000F0B400EB81040789E468012564698D400E
:104300003D43058123600023A2606360F0BC01F09F
:104310000DBB000070B50223002504460370C0E900
:104320000255C0E90455C0E906554566056280F8A6
:104330004C5001F053F963681B6823B129462046AD
:10434000BDE87040184770BD0378052B10B50446D2
:104350000AD080F868300523037043681B680BB1EE
:10436000042198470023A36010BD000001780529AF
:1043700006D190F86820436802701B6803B11847A3
:104380007047000070B590F84C30044613B100231C
:1043900080F84C3004F15C02204601F031FA636889
:1043A0009B68B3B994F85C3013F0600535D00021F8
:1043B000204601F0E5FC0021204601F0D7FC6368AF
:1043C0001B6813B1062120469847062384F84C3019
:1043D00070BD204698470028E4D0B4F86230626D82
:1043E0009A4288BF636594F95C30656D002B4FF08D
:1043F000300380F20381002D00F0F280092284F85E
:104400004C2083F311880021D4E914232046FFF7C0
:104410006FFF002383F31188DAE794F85D2003F03F
:104420007F0343EA022340F20232934200F0C58048
:1044300021D8B3F5807F48D00DD8012B3FD0022B77
:1044400000F09380002BB2D104F1640222650222B5
:104450006265A365C1E7B3F5817F00F09B80B3F58A
:10446000407FA4D194F85E30012BA0D1B4F8643021
:1044700043F0020332E0B3F5006F4DD017D8B3F527
:10448000A06F31D0A3F5C063012B90D8636894F876
:104490005E205E6894F85F10B4F860302046B04744
:1044A000002884D043682365036863651AE0B3F588
:1044B000106F36D040F6024293427FF478AF5C4BE7
:1044C0002365022363650023C3E794F85E30012B64
:1044D0007FF46DAFB4F8643023F00203C4E91455DF
:1044E000A4F86430A56578E7B4F85C30B3F5A06F44
:1044F0000ED194F85E3084F86630204601F0C6F89C
:1045000063681B6813B10121204698470323237079
:104510000023C4E914339CE704F1670323650123F6
:10452000C3E72378042B10D1302383F3118820466E
:10453000FFF7C0FE85F311880321636884F8675094
:1045400021701B680BB12046984794F85E30002B11
:10455000DED084F867300423237063681B68002B67
:10456000D6D0022120469847D2E794F860301D0645
:1045700003F00F0120460AD501F034F9012804D0D8
:1045800002287FF414AF2B4B9AE72B4B98E701F0EE
:104590001BF9F3E794F85E30002B7FF408AF94F832
:1045A000603013F00F01B3D01A06204602D501F097
:1045B000FBFBADE701F0EEFBAAE794F85E30002BC1
:1045C0007FF4F5AE94F8603013F00F01A0D01B0615
:1045D000204602D501F0D4FB9AE701F0C7FB97E72C
:1045E000142284F84C2083F311882B462A4629464E
:1045F0002046FFF76BFE85F31188E9E65DB11522D1
:1046000084F84C2083F311880021D4E91423204638
:10461000FFF75CFEFDE60B2284F84C2083F3118843
:104620002B462A4629462046FFF762FEE3E700BFF5
:10463000B8680008B0680008B468000838B590F899
:104640004C300446002B3ED0063BDAB20F2A34D859
:104650000F2B32D8DFE803F0373131082232313105
:104660003131313131313737456DB0F862309D42EB
:1046700014D2C3681B8AB5FBF3F203FB12556DB964
:10468000302383F311882B462A462946FFF730FE54
:1046900085F311880A2384F84C300EE0142384F843
:1046A0004C30302383F3118800231A4619462046E4
:1046B000FFF70CFE002383F3118838BD836D03B12F
:1046C00098470023E7E70021204601F059FB00212D
:1046D000204601F04BFB63681B6813B1062120469E
:1046E00098470623D7E7000010B590F84C30142BFC
:1046F000044629D017D8062B05D001D81BB110BD10
:10470000093B022BFBD80021204601F039FB002198
:10471000204601F02BFB63681B6813B1062120467D
:104720009847062319E0152BE9D10B2380F84C306C
:10473000302383F3118800231A461946FFF7D8FD6A
:10474000002383F31188DAE7C3689B695B68002B59
:10475000D5D1836D03B19847002384F84C30CEE760
:1047600000230375826803691B6899689142FBD234
:104770005A680360426010605860704700230375F8
:10478000826803691B6899689142FBD85A68036084
:10479000426010605860704708B50846302383F3C4
:1047A00011880B7D032B05D0042B0DD02BB983F37F
:1047B000118808BD8B6900221A604FF0FF338361B6
:1047C000FFF7CEFF0023F2E7D1E9003213605A6011
:1047D000F3E70000FFF7C4BF054BD96808751868F8
:1047E00002681A60536001220275D860FBF7A2BD0F
:1047F000A04B002030B50C4BDD684B1C87B0044645
:104800000FD02B46094A684600F05EF92046FFF7B4
:10481000E3FF009B13B1684600F060F9A86907B098
:1048200030BDFFF7D9FFF9E7A04B002099470008FA
:10483000044B1A68DB6890689B68984294BF00201C
:1048400001207047A04B0020084B10B51C68D868A9
:1048500022681A60536001222275DC60FFF78EFF28
:1048600001462046BDE81040FBF764BDA04B002088
:1048700038B5074C074908480123002523706560B7
:1048800001F080FC0223237085F3118838BD00BF3E
:10489000084E0020C0680008A04B002008B572B682
:1048A000044B186500F038FC00F016FD024B0322A3
:1048B0001A70FEE7A04B0020084E002000F044B91B
:1048C000034A516853685B1A9842FBD8704700BF8F
:1048D000001000E08B60022308618B82084670475D
:1048E0008368A3F1840243F8142C026943F8442C32
:1048F000426943F8402C094A43F8242CC26843F823
:10490000182C022203F80C2C002203F80B2C044A6A
:1049100043F8102CA3F12000704700BF4D0300089E
:10492000A04B002008B5FFF7DBFFBDE80840FFF70C
:1049300051BF0000024BDB6898610F20FFF74CBFAE
:10494000A04B0020302383F31188FFF7F3BF000052
:1049500008B50146302383F311880820FFF74AFF8A
:10496000002383F3118808BD064BDB6839B1426828
:1049700018605A60136043600420FFF73BBF4FF09C
:10498000FF307047A04B00200368984206D01A6899
:104990000260506099611846FFF71CBF7047000025
:1049A00038B504460D462068844200D138BD0368FE
:1049B00023605C608561FFF70DFFF4E710B50368C5
:1049C0009C68A2420CD85C688A600B604C602160D5
:1049D000596099688A1A9A604FF0FF33836010BD5E
:1049E0001B68121BECE700000A2938BF0A2170B5CA
:1049F00004460D460A26601901F0BEFB01F0AAFB31
:104A0000041BA54203D8751C2E460446F3E70A2E64
:104A100004D9BDE87040012001F0F4BB70BD000076
:104A2000F8B5144B0D46D96103F1100141600A2A13
:104A30001969826038BF0A22016048601861A818AD
:104A4000144601F08BFB0A2701F084FB431BA342B1
:104A5000064606D37C1C281901F08EFB27463546F6
:104A6000F2E70A2F04D9BDE8F840012001F0CABBE3
:104A7000F8BD00BFA04B0020F8B506460D4601F07A
:104A800069FB0F4A134653F8107F9F4206D12A460E
:104A900001463046BDE8F840FFF7C2BFD169BB68A8
:104AA000441A2C1928BF2C46A34202D92946FFF7E5
:104AB0009BFF224631460348BDE8F840FFF77EBF22
:104AC000A04B0020B04B002010B4C0E9032300230A
:104AD0005DF8044B4361FFF7CFBF000010B5194CE0
:104AE000236998420DD0D0E90032816813605A6082
:104AF0009A680A449A60002303604FF0FF33A36171
:104B000010BD2346026843F8102F53600022026054
:104B100022699A4203D1BDE8104001F027BB936897
:104B200081680B44936001F015FB2269E16992688A
:104B3000441AA242E4D91144BDE81040091AFFF713
:104B400053BF00BFA04B00202DE9F047DFF8BC8029
:104B500008F110072C4ED8F8105001F0FBFAD8F8E5
:104B60001C40AA68031B9A423ED81444D5E900327F
:104B70004FF00009C8F81C4013605A60C5F8009057
:104B8000D8F81030B34201D101F0F0FA89F311885E
:104B9000D5E9033128469847302383F311886B69A0
:104BA000002BD8D001F0D6FA6A69A0EB04094A4577
:104BB00082460DD2022001F025FB0022D8F81030E9
:104BC000B34208D151462846BDE8F047FFF728BF59
:104BD000121A2244F2E712EB090938BF4A46294665
:104BE0003846FFF7EBFEB5E7D8F81030B34208D0EF
:104BF0001444211AC8F81C00A960BDE8F047FFF76B
:104C0000F3BEBDE8F08700BFB04B0020A04B0020F2
:104C100038B501F09FFA054AD2E90845031B181977
:104C200045F10001C2E9080138BD00BFA04B0020DA
:104C300000207047FEE70000704700004FF0FF3093
:104C40007047000002290CD0032904D0012907482D
:104C500018BF00207047032A05D8054800EBC200A2
:104C60007047044870470020704700BF98690008EB
:104C7000482300204C69000870B59AB005460846E4
:104C800001A9144600F0C2F801A8FCF73FFE431C3E
:104C90005B00C5E900340022237003236370C6B2B1
:104CA00001AB02341046D1B28E4204F1020401D8A5
:104CB0001AB070BD13F8011B04F8021C04F8010CB3
:104CC0000132F0E708B5302383F311880348FFF77A
:104CD00031FA002383F3118808BD00BF104E002075
:104CE00090F85C3003F01F02012A07D190F85D2094
:104CF0000B2A03D10023C0E9143315E003F060034D
:104D0000202B08D1B0F860302BB990F85D20212A13
:104D100003D81F2A04D8FFF7EFB9222AEBD0FAE70D
:104D2000034A02650722426583650120704700BF80
:104D30003F23002007B5052917D8DFE801F0191631
:104D400003191920302383F31188104A019001219F
:104D5000FFF796FA01980E4A0221FFF791FA0D48E3
:104D6000FFF7B4F9002383F3118803B05DF804FB67
:104D7000302383F311880748FFF77EF9F2E73023E9
:104D800083F311880348FFF795F9EBE7EC68000817
:104D900010690008104E002038B50C4D0C4C0D4920
:104DA0002A4604F10800FFF767FF05F1CA0204F183
:104DB00010000949FFF760FF05F5CA7204F11800F9
:104DC0000649BDE83840FFF757BF00BFD852002062
:104DD00048230020CC680008D6680008E168000875
:104DE00070B5044608460D46FCF790FDC6B2204655
:104DF000013403780BB9184670BD32462946FCF7DA
:104E000071FD0028F3D10120F6E700002DE9F84FED
:104E100005460C46FCF77AFD2B49C6B22846FFF73B
:104E2000DFFF08B10336F6B228492846FFF7D8FF5E
:104E300008B11036F6B2632E0DD8DFF88C80DFF89B
:104E40008C90234FDFF890A0DFF890B02E7846B911
:104E50002670BDE8F88F29462046BDE8F84F01F0DE
:104E6000A7BC252E2BD1072241462846FCF73AFD48
:104E700058B9DBF800302360DBF804306360BBF81E
:104E80000830238107350A34E0E7082249462846DE
:104E9000FCF728FD98B90F4BA21C197809090232BA
:104EA000C95D02F8041C13F8011B01F00F01534502
:104EB000C95D02F8031CF0D118340835C6E704F8C0
:104EC000016B0135C2E700BFB8690008E16800085E
:104ED000C0690008107AF01F1C7AF01FCE67000826
:104EE000BFF34F8F024AD368DB03FCD4704700BF87
:104EF000003C024008B5074B1B7853B9FFF7F0FFA1
:104F0000054B1A69002ABFBF044A5A6002F1883271
:104F10005A6008BD36550020003C02402301674519
:104F200008B5054B1B7833B9FFF7DAFF034A13695D
:104F300043F00043136108BD36550020003C024099
:104F40000728F0B516D80C4C0C4923787BB90C4DCA
:104F50000E4608234FF0006255F8047B46F8042BF8
:104F6000013B13F0FF033A44F6D10123237051F8BB
:104F70002000F0BD0020FCE75855002038550020E7
:104F8000D4690008014B53F820007047D469000829
:104F900008207047072810B5044601D9002010BD2D
:104FA000FFF7CEFF064B53F824301844C21A0BB952
:104FB0000120F4E712680132F0D1043BF6E700BFAC
:104FC000D4690008072810B5044621D8FFF788FFE8
:104FD000FFF790FF0F4AF323D360C300DBB243F423
:104FE000007343F002031361136943F480331361C8
:104FF000FFF776FFFFF7A4FF074B53F8241000F0EC
:1050000047F9FFF78DFF2046BDE81040FFF7C2BF0C
:10501000002010BD003C0240D4690008F8B512F031
:105020000103144642D185182E4A954257D82E4B7B
:105030001B6813F0010352D02C4DFFF75BFFF323E5
:10504000EB60FFF74DFF40F20127032C15D824F049
:1050500001046618254C401A40F20117B142236939
:1050600000EB010524D123F001032361FFF758FF72
:105070000120F8BD043C0430E7E78307E7D12B6942
:1050800023F440732B612B693B432B6151F8046B74
:105090000660BFF34F8FFFF723FF03689E42E9D0FE
:1050A0002B6923F001032B61FFF73AFF0020E0E7B3
:1050B00023F44073236123693B4323610B882B80D6
:1050C000BFF34F8FFFF70CFF2D8831F8023BADB2D5
:1050D000AB42C3D0236923F001032361E4E7184600
:1050E000C7E700BF0000080800380240003C02404B
:1050F000084908B50B7828B11BB9FFF7FBFE01235F
:105100000B7008BD002BFCD0BDE808400870FFF70D
:1051100007BF00BF3655002008B50B484FF47F414C
:1051200000F0C8F809484FF4303100F0C3F80848DF
:105130004FF4804100F0BEF8BDE808404FF47051D4
:105140004FF4805000F0B6B80001002000000120AC
:1051500000C003200846114601F0DABA084601F003
:10516000EDBA000038B5EFF311859DB9EFF3058472
:10517000C4F30804302334B183F31188FFF748FDEA
:1051800085F3118838BD83F31188FFF741FD84F35F
:10519000118838BDBDE83840FFF73ABD38B5FFF794
:1051A000E1FF114C114AC00840EA4170A0FB025EC9
:1051B000C908A0FB040C1CEB050CA1FB04404FF03C
:1051C00000035B41A1FB02121CEB040C43EB00004B
:1051D00011EB0E0142F10002411842F100000909F1
:1051E00041EA007038BD00BFCFF753E3A59BC42050
:1051F00010B50244064BD2B2904200D110BD441CFF
:1052000000B253F8200041F8040BE0B2F4E700BF0D
:10521000502800400F4B30B51C6F240407D41C6F7E
:1052200044F400741C671C6F44F400441C670A4C6F
:10523000236843F4807323600244084BD2B2904247
:1052400000D130BD441C00B251F8045B43F820503B
:10525000E0B2F4E7003802400070004050280040FF
:1052600007B5012201A90020FFF7C2FF019803B092
:105270005DF804FB13B50446FFF7F2FFA04205D02A
:10528000012201A900200194FFF7C4FF02B010BD64
:105290000144BFF34F8F064B884204D3BFF34F8FB7
:1052A000BFF36F8F7047C3F85C022030F4E700BF94
:1052B00000ED00E00144BFF34F8F064B884204D35A
:1052C000BFF34F8FBFF36F8F7047C3F8700220306A
:1052D000F4E700BF00ED00E070470000074B45F227
:1052E00055521A6003225A6040F2FF729A604CF6DF
:1052F000CC421A60024B01221A7070470030004005
:1053000060550020034B1B781BB1034B4AF6AA22C1
:105310001A6070476055002000300040034B1A6847
:105320001AB9034AD2F874281A6070475C550020F5
:1053300000300240024B4FF08072C3F8742870476F
:105340000030024008B5FFF7E9FF024B1868C0F3D0
:10535000407008BD5C55002008B5FFF7DFFF024B29
:105360001868C0F3007008BD5C55002070B5BFF32D
:105370004F8FBFF36F8F1A4A0021C2F85012BFF34C
:105380004F8FBFF36F8F536943F400335361BFF303
:105390004F8FBFF36F8FC2F88410BFF34F8FD2F8D7
:1053A0008030C3F3C900C3F34E335B0143F6E074AE
:1053B00003EA0406014646EA81750139C2F86052E3
:1053C000F9D2203B13F1200FF2D1BFF34F8F536975
:1053D00043F480335361BFF34F8FBFF36F8F70BDC2
:1053E00000ED00E0FEE7000070B5214B2148224AA5
:1053F000904237D3214BDA1C121AC11E22F003024D
:105400008B4238BF00220021FCF788FA1C4A002397
:10541000C2F88430BFF34F8FD2F88030C3F3C90095
:10542000C3F34E335B0143F6E07403EA040601461E
:1054300046EA81750139C2F86C52F9D2203B13F16A
:10544000200FF2D1BFF34F8FBFF36F8FBFF34F8F9A
:10545000BFF36F8F0023C2F85032BFF34F8FBFF3FB
:105460006F8F70BD53F8041B40F8041BC0E700BFEA
:10547000FC6B0008745600207456002074560020FF
:1054800000ED00E070B5D0E91B439E6800224FF0AC
:10549000FF3504EB42135101D3F800090028BEBFC9
:1054A000D3F8000940F08040C3F80009D3F8000B9E
:1054B0000028BEBFD3F8000B40F08040C3F8000BBB
:1054C000013263189642C3F80859C3F8085BE0D26A
:1054D0004FF00113C4F81C3870BD0000890141F081
:1054E0002001016103699B06FCD41220FFF7E8B993
:1054F00010B5054C2046FEF79FFE4FF0A043E36633
:10550000024B236710BD00BF64550020186A0008D5
:1055100070B50378012B054650D12A4BC46E9842D2
:105520001BD1294B5A6B42F080025A635A6D42F0EC
:1055300080025A655A6D5A6942F080025A615A696E
:1055400022F080025A610E2143205B69FEF7BEFC07
:105550001E4BE3601E4BC4F800380023C4F8003E25
:10556000C0232360EE6E4FF40413A3633369002B52
:10557000FCDA012333610C20FFF7A2F93369DB0762
:10558000FCD41220FFF79CF93369002BFCDA0026CB
:10559000A6602846FFF776FF6B68C4F81068DB68E2
:1055A000C4F81468C4F81C684BB90A4BA3614FF0E7
:1055B000FF336361A36843F00103A36070BD064B32
:1055C000F4E700BF6455002000380240401400405A
:1055D00003002002003C30C0083C30C0F8B5C46E67
:1055E000054600212046FFF779FF296F00234FF081
:1055F00001128F68C4F834384FF00066C4F81C28D4
:105600004FF0FF3004EB431201339F42C2F80069B0
:10561000C2F8006BC2F80809C2F8080BF2D20B6896
:10562000EA6E6B67636210231361166916F0100649
:10563000FBD11220FFF744F9D4F8003823F4FE63BD
:10564000C4F80038A36943F4402343F01003A36176
:105650000923C4F81038C4F814380A4BEB604FF033
:10566000C043C4F8103B084BC4F8003BC4F81069B1
:10567000C4F800396B6F03F1100243F480136A67BA
:10568000A362F8BDF469000840800010C26E90F873
:105690006610D2F8003823F4FE6343EA0113C2F81F
:1056A000003870472DE9F84300EB8103C56EDA68D6
:1056B000166806F00306731E022B05EB41130C4619
:1056C00080460FFA81F94FEA41104FF00001C3F80C
:1056D000101B4FF0010104F1100398BFB60401FA4A
:1056E00003F391698EBF334E06F1805606F50046EE
:1056F00000293AD0578A04F15801490137436F50C5
:10570000D5F81C180B43C5F81C382B180021C3F81A
:10571000101953690127611EA7409BB3138A928B0E
:105720009B08012A88BF5343D8F87420981842EA8E
:10573000034301F1400205EB8202C8F874002146E0
:1057400053602846FFF7CAFE08EB8900C3681B8A2E
:1057500043EA8453483464011E432E51D5F81C3863
:105760001F43C5F81C78BDE8F88305EB4917D7F847
:10577000001B21F40041C7F8001BD5F81C1821EAD2
:105780000303C0E704F13F0305EB83030A4A5A60B1
:1057900028462146FFF7A2FE05EB4910D0F8003954
:1057A00023F40043C0F80039D5F81C3823EA070772
:1057B000D7E700BF0080001000040002026F1268EB
:1057C0004267FFF75FBE00005831C36E49015B5866
:1057D00013F4004004D013F4001F0CBF022001207A
:1057E000704700004831C36E49015B5813F4004014
:1057F00004D013F4001F0CBF0220012070470000EA
:1058000000EB8101CB68196A0B6813604B68536029
:105810007047000000EB810330B5DD68AA691368AA
:10582000D36019B9402B84BF402313606B8A14687E
:10583000C26E1C44013CB4FBF3F46343033323F016
:10584000030302EB411043EAC44343F0C043C0F8F2
:10585000103B2B6803F00303012B09B20ED1D2F8E1
:10586000083802EB411013F4807FD0F8003B14BFDE
:1058700043F0805343F00053C0F8003B02EB411269
:10588000D2F8003B43F00443C2F8003B30BD0000B7
:105890002DE9F041244DEE6E06EB40130446D3F89B
:1058A000087BC3F8087B38070AD5D6F814381907DF
:1058B00006D505EB84032146DB6828465B689847DC
:1058C000FA071FD5D6F81438DB071BD505EB840380
:1058D000D968CCB98B69488A5A68B2FBF0F600FBEC
:1058E00016228AB91868DA6890420DD2121AC3E9F2
:1058F0000024302383F311880B482146FFF78AFFE9
:1059000084F31188BDE8F081012303FA04F26B8966
:1059100023EA02036B81CB68002BF3D021460248B7
:10592000BDE8F041184700BF6455002000EB81033B
:1059300070B5DD68C36E6C692668E6604A0156BBC7
:105940001A444FF40020C2F810092A6802F003023A
:10595000012A0AB20ED1D3F8080803EB421410F45E
:10596000807FD4F8000914BF40F0805040F0005010
:10597000C4F8000903EB4212D2F8000940F00440D9
:10598000C2F80009D3F83408012202FA01F10143F8
:10599000C3F8341870BD19B9402E84BF4020206070
:1059A00020682E8A8419013CB4FBF6F440EAC44016
:1059B00040F000501A44C6E72DE9F8433B4DEE6E27
:1059C00006EB40130446D3F80889C3F8088918F099
:1059D000010F4FEA40171AD0D6F81038DB0716D55A
:1059E00005EB8003D9684B691868DA68904230D2B9
:1059F000121A4FF000091A60C3F80490302383F3A1
:105A0000118821462846FFF791FF89F3118818F085
:105A1000800F1CD0D6F834380126A640334216D069
:105A200005EB8403ED6ED3F80CC0DCF814200134D0
:105A3000E4B2D2F800E005EB04342F44516871451C
:105A400015D3D5F8343823EA0606C5F83468BDE81E
:105A5000F883012303FA04F22B8923EA02032B8142
:105A60008B68002BD3D0214628469847CFE7BCF857
:105A70001000AEEB0103834228BF0346D7F8180994
:105A800080B2B3EB800FE2D89068A0F1040959F816
:105A9000048FC4F80080A0EB09089844B8F1040F03
:105AA000F5D818440B4490605360C7E76455002054
:105AB0002DE9F74FAC4CE56E6E69AB691E4016F4EC
:105AC00080586E6107D02046FEF724FC03B0BDE885
:105AD000F04FFEF7D1B9002E12DAD5F8003EA248F9
:105AE0009B071EBFD5F8003E23F00303C5F8003E18
:105AF000D5F8043823F00103C5F80438FEF736FC66
:105B0000370505D59848FFF7BDFC9748FEF71CFC04
:105B1000B0040CD5D5F8083813F0060FEB6823F461
:105B200070530CBF43F4105343F4A053EB603107A0
:105B30001BD56368DB681BB9AB6923F00803AB6155
:105B40002378052B0CD1D5F8003E87489A071EBF55
:105B5000D5F8003E23F00303C5F8003EFEF706FC2F
:105B60006368DB680BB180489847F30200F18980D5
:105B7000B70227D5D4F86C90DFF8ECB100274FF0CE
:105B8000010A09EB4712D2F8003B03F44023B3F5B6
:105B9000802F11D1D2F8003B002B0DDA62890AFA6E
:105BA00007F322EA0303638104EB8703DB68DB6806
:105BB00013B1394658469847236F01379B68FFB2A7
:105BC0009F42DED9F00617D5E76E3A6AC2F30A1093
:105BD00002F00F0302F4F012B2F5802F00F099806A
:105BE000B2F5402F08D104EB83030022DB681B6A67
:105BF00007F5805790427ED13303D5F818481DD55C
:105C0000E70302D50020FFF743FEA50302D50120DC
:105C1000FFF73EFE600302D50220FFF739FE2103A5
:105C200002D50320FFF734FEE20202D50420FFF77D
:105C30002FFEA30202D50520FFF72AFE77037FF58A
:105C400045AFE60702D50020FFF7B6FEA50702D54F
:105C50000120FFF7B1FE600702D50220FFF7ACFE7E
:105C6000210702D50320FFF7A7FEE20602D5042094
:105C7000FFF7A2FEA3067FF529AF0520FFF79CFEE4
:105C800024E7E36EDFF8E0A0019300274FF001095D
:105C9000236F9B685FFA87FB9B453FF669AF019BCB
:105CA00003EB4B13D3F8001901F44021B1F5802F19
:105CB0001FD1D3F8001900291BDAD3F8001941F0DD
:105CC0009041C3F80019D3F800190029FBDB5946AD
:105CD000E06EFFF703FC218909FA0BF321EA0303C5
:105CE000238104EB8B03DB689B6813B15946504654
:105CF00098470137CCE7910708BFD7F80080072AFB
:105D000098BF03F8018B02F1010298BF4FEA1828EF
:105D100070E7023304EB830207F580575268D2F82C
:105D200018C0DCF80820DCE9001CA1EB0C0C0021F9
:105D300088420AD104EB830463689B699A68024431
:105D40009A605A6802445A6056E711F0030F08BF80
:105D5000D7F800808C4588BF02F8018B01F1010162
:105D600088BF4FEA1828E3E764550020C36E03EBB1
:105D70004111D1F8003B43F40013C1F8003B7047D8
:105D8000C36E03EB4111D1F8003943F40013C1F89D
:105D900000397047C36E03EB4111D1F8003B23F487
:105DA0000013C1F8003B7047C36E03EB4111D1F8FB
:105DB000003923F40013C1F80039704730B5039C53
:105DC0000172043304FB0325C0E90653049B0363FB
:105DD0000021059BC160C0E90000C0E90422C0E9C0
:105DE0000842C0E90A11436330BD0000416A002245
:105DF000C0E90411C0E90A22C2606FF00101FEF798
:105E0000CFBD0000D0E90432934201D1C2680AB983
:105E1000181D70470020704703691960C26801327D
:105E2000C260C269134482690361934224BF436A1A
:105E300003610021FEF7A8BD38B504460D46E368AE
:105E40003BB16269131D1268A3621344E362002030
:105E500007E0237A33B929462046FEF785FD00285E
:105E6000EDDA38BD6FF00100FBE70000C368C269DE
:105E7000013BC3604369134482694361934224BF79
:105E8000436A436100238362036B03B11847704781
:105E900070B53023044683F31188866A3EB9FFF754
:105EA000CBFF054618B186F31188284670BDA36A5A
:105EB000E26A13F8015BA362934202D32046FFF724
:105EC000D5FF002383F31188EFE700002DE9F84F99
:105ED00004460E46174698464FF0300989F311885C
:105EE0000025AA46D4F828B0BBF1000F09D14146DD
:105EF0002046FFF7A1FF20B18BF311882846BDE8AB
:105F0000F88FD4E90A12A7EB050B521A934528BF64
:105F10009346BBF1400F1BD9334601F1400251F8C3
:105F2000040B43F8040B9142F9D1A36A4033403685
:105F3000A3624035D4E90A239A4202D32046FFF7F0
:105F400095FF8AF31188BD42D8D289F31188C9E739
:105F500030465A46FBF7BCFCA36A5B445E44A3622E
:105F60005D44E7E710B5029C0172043303FB042192
:105F7000C0E906130023C0E90A33039B0363049BB3
:105F8000C460C0E90000C0E90422C0E908424363DC
:105F900010BD0000026AC260426AC0E90422002209
:105FA000C0E90A226FF00101FEF7FABCD0E9042330
:105FB0009A4201D1C26822B9184650F8043B0B60DE
:105FC000704700231846FAE7C368C2690133C3600B
:105FD0004369134482694361934224BF436A436126
:105FE0000021FEF7D1BC000038B504460D46E36839
:105FF0003BB123691A1DA262E2691344E3620020E7
:1060000007E0237A33B929462046FEF7ADFC002885
:10601000EDDA38BD6FF00100FBE70000036919609D
:10602000C268013AC260C269134482690361934243
:1060300024BF436A036100238362036B03B11847E3
:106040007047000070B530230D460446114683F3B7
:106050001188866A2EB9FFF7C7FF10B186F3118841
:1060600070BDA36A1D70A36AE26A01339342A36202
:1060700004D3E16920460439FFF7D0FF002080F304
:106080001188EDE72DE9F84F04460D4690469946F4
:106090004FF0300A8AF311880026B346A76A4FB939
:1060A00049462046FFF7A0FF20B187F3118830460C
:1060B000BDE8F88FD4E90A073A1AA8EB0607974219
:1060C00028BF1746402F1BD905F1400355F8042B74
:1060D00040F8042B9D42F9D1A36A4033A3624036B5
:1060E000D4E90A239A4204D3E16920460439FFF730
:1060F00095FF8BF311884645D9D28AF31188CDE7F5
:1061000029463A46FBF7E4FBA36A3B443D44A362BD
:106110003E44E5E7D0E904239A4217D1C3689BB116
:10612000836A8BB1043B9B1A0ED01360C368013B9A
:10613000C360C3691A44836902619A4224BF436AF7
:106140000361002383620123184670470023FBE7A5
:1061500000F0D2B84FF08043586A70474FF0804348
:10616000002258631A610222DA6070474FF08043C0
:106170000022DA60704700004FF080435863704798
:10618000FEE7000070B51B4B01630025044686B096
:10619000586085620E46FDF747FE04F11003C4E91E
:1061A00004334FF0FF33C4E90635C4E90044A56069
:1061B000E562FFF7CFFF2B460246C4E9082304F14E
:1061C00034010D4A256580232046FEF783FB012319
:1061D000E0600A4A0375009272680192B268CDE9E4
:1061E0000223074B6846CDE90435FEF79BFB06B05A
:1061F00070BD00BF084E0020246A0008296A00080C
:1062000081610008024AD36A1843D062704700BF18
:10621000A04B00204B6843608B688360CB68C360F1
:106220000B6943614B6903628B6943620B680360CE
:106230007047000008B5264B26481A6940F2FF1146
:106240000A431A611A6922F4FF7222F001021A61EC
:106250001A691A6B0A431A631A6D0A431A651E4AB1
:106260001B6D1146FFF7D6FF02F11C0100F580609F
:10627000FFF7D0FF02F1380100F58060FFF7CAFF99
:1062800002F1540100F58060FFF7C4FF02F17001D4
:1062900000F58060FFF7BEFF02F18C0100F5806021
:1062A000FFF7B8FF02F1A80100F58060FFF7B2FF29
:1062B00002F1C40100F58060FFF7ACFF02F1E001DC
:1062C00000F58060FFF7A6FFBDE8084000F088B841
:1062D0000038024000000240306A000808B500F0B3
:1062E000F3F9FEF7C5FAFFF719F8BDE80840FEF725
:1062F00053BD0000704700000F4B1A6C42F00102C2
:106300001A641A6E42F001021A660C4A1B6E9368F8
:1063100043F0010393604FF080436B229A624FF089
:10632000FF32DA6200229A615A63DA605A6001220F
:106330005A611A60704700BF00380240002004E034
:106340004FF0804208B51169D3680B40D9B2C943F8
:106350009B07116107D5302383F31188FEF7AEFA4E
:10636000002383F3118808BD1B4B1A696FEAC252E0
:106370006FEAD2521A611A69C2F308021A614FF029
:10638000FF301A695A69586100215A6959615A697E
:106390001A6A62F080521A621A6A02F080521A6215
:1063A0001A6A5A6A58625A6A59625A6A0B4A1068DB
:1063B00040F480701060186F00F44070B0F5007FFA
:1063C0001EBF4FF4803018671967536823F40073B9
:1063D000536000F055B900BF003802400070004023
:1063E000364B374A1A64374A4FF4404111601A68F5
:1063F00042F001021A601A689207FCD59A6822F0EE
:1064000003029A602D4B9A6812F00C02FBD11968B6
:1064100001F0F90119609A601A6842F480321A603A
:106420001A689003FCD55A6F42F001025A67234B59
:106430005A6F9107FCD5244A5A601A6842F080725C
:106440001A60204B5A685204FCD51A6842F4803214
:106450001A605A68D003FCD51A6842F400321A60F8
:10646000184A53689903FCD5144B1A689201FCD55D
:10647000164A9A6040F20112C3F88C200022C3F839
:106480009020134A40F207331360136803F00F03A0
:10649000072BFAD1094B9A6842F002029A609A6877
:1064A00002F00C02082AFAD15A6C42F480425A6473
:1064B0005A6E42F480425A665B6E70470038024062
:1064C0000004001000700040106C400900948838EF
:1064D000003C0240074A08B5536903F001035361C9
:1064E00023B1054A13680BB150689847BDE80840CE
:1064F000FDF7C2BC003C0140F4550020074A08B536
:10650000536903F00203536123B1054A93680BB149
:10651000D0689847BDE80840FDF7AEBC003C01409C
:10652000F4550020074A08B5536903F0040353618A
:1065300023B1054A13690BB150699847BDE808407B
:10654000FDF79ABC003C0140F4550020074A08B50D
:10655000536903F00803536123B1054A93690BB1F2
:10656000D0699847BDE80840FDF786BC003C014073
:10657000F4550020074A08B5536903F0100353612E
:1065800023B1054A136A0BB1506A9847BDE8084029
:10659000FDF772BC003C0140F4550020164B10B5CD
:1065A0005C6904F478725A61A30604D5134A936AAD
:1065B0000BB1D06A9847600604D5104A136B0BB133
:1065C000506B9847210604D50C4A936B0BB1D06BE6
:1065D0009847E20504D5094A136C0BB1506C9847F3
:1065E000A30504D5054A936C0BB1D06C9847BDE860
:1065F0001040FDF741BC00BF003C0140F4550020B5
:10660000194B10B55C6904F47C425A61620504D5EB
:10661000164A136D0BB1506D9847230504D5134AE4
:10662000936D0BB1D06D9847E00404D50F4A136EFB
:106630000BB1506E9847A10404D50C4A936E0BB170
:10664000D06E9847620404D5084A136F0BB1506F9F
:106650009847230404D5054A936F0BB1D06F984730
:10666000BDE81040FDF708BC003C0140F455002097
:1066700008B5FFF765FEBDE80840FDF7FDBB00006B
:10668000062108B50846FDF721FC06210720FDF785
:106690001DFC06210820FDF719FC06210920FDF745
:1066A00015FC06210A20FDF711FC06211720FDF735
:1066B0000DFC06212820FDF709FCBDE80840072154
:1066C0001C20FDF703BC000008B5FFF74DFE00F0ED
:1066D0000BF8FDF7AFFDFDF787FCFFF70BFEBDE8FC
:1066E0000840FFF735BD00000023054A1946013375
:1066F000102BC2E9001102F10802F8D1704700BF67
:10670000F45500200B460146184600F009B8000079
:10671000024B0A4601461868FEF71CBD682300209C
:1067200010B5054C13462CB10A4601460220AFF3C2
:10673000008010BD2046FCE700000000024B01462F
:106740001868FEF70BBD00BF6823002010B50139A3
:106750000244904201D1002005E0037811F8014F76
:10676000A34201D0181B10BD0130F2E72DE9F04122
:10677000A3B1C91A17780144044603F1FF3C8C42C7
:10678000204601D9002009E00578BD4204F101044A
:10679000F5D10CEB0405D618A54201D1BDE8F08176
:1067A00015F8018D16F801EDF045F5D0E7E700008A
:1067B000034611F8012B03F8012B002AF9D1704789
:1067C0006F72672E6172647570696C6F742E467299
:1067D0006565666C7952544B0000000053544D338C
:1067E00032463F3F3F3F3F3F0053544D33324637E1
:1067F0005B347C355D780053544D333246375B361D
:106800007C375D780000000040A2E4F164689106E6
:106810000041A3E5F265699207000000426164202F
:1068200043414E496661636520696E6465782E0058
:1068300080000000008000000000800000000000D8
:106840000000000071220008B12A00080D2A00088B
:10685000B1220008BD220008C924000881220008D6
:1068600091220008852200088D2200088922000854
:10687000E523000895220008D52D0008852D000885
:10688000A5220008B923000800000000653F0008A9
:10689000513F00088D3F0008793F0008853F000800
:1068A000713F00085D3F0008493F0008993F00081C
:1068B0000000000001000000000000006330000044
:1068C000BC680008F84B0020084E00204172647537
:1068D00050696C6F740025424F415244252D424C43
:1068E000002553455249414C25000000020000009C
:1068F0000000000081410008ED4100084000400018
:10690000A8520020B8520020020000000000000041
:1069100003000000000000003142000800000000F9
:1069200010000000C852002000000000010000001C
:10693000000000006455002001010200354D0008F0
:10694000454C0008E14C0008C54C0008430000001D
:106950005469000809024300020100C03209040022
:1069600000010202010005240010010524010001BC
:10697000042402020524060001070582030800FF23
:1069800009040100020A000000070501024000009E
:10699000070581024000000012000000A069000805
:1069A00012011001020000400912415700020102C9
:1069B000030100000403090425424F41524425000D
:1069C0003031323334353637383941424344454625
:1069D00000000000004000000040000000400000F7
:1069E0000040000000000100000002000000020062
:1069F0000000020000000000854300083D4600083A
:106A0000E946000840004000DC550020DC5500202D
:106A100001000000EC550020800000004001000053
:106A2000050000006D61696E0069646C650000001E
:106A30000010806A00000000AAAAAAAA0000006450
:106A4000FFFF00000000000000A00A0000000A0094
:106A500000000000AAAAAAAA00000000FFFF000090
:106A6000000000009900000000400000000000004D
:106A7000AAAAAAAA00000020FFFF00000000000050
:106A8000000000000000000000000000AAAAAAAA5E
:106A900000000000FFFF00000000000000000000F8
:106AA0000000000000000000AAAAAAAA000000003E
:106AB000FFFF0000000000000000000000000000D8
:106AC00000000000AAAAAAAA00000000FFFF000020
:106AD00000000000000000000000000000000000B6
:106AE000AAAAAAAA00000000FFFF00000000000000
:106AF0000000000000000000000000000A0000008C
:106B00000000000003000000000000000000000082
:106B10000000000000000000000000000000000075
:106B20000000000000000000000000000000000065
:106B30000404000000000000000007000000000046
:106B400040420F00FE2A0100D2040000FF000000B6
:106B500000000000DC67000849040000E967000845
:106B600051040000F76700080096000000000800CC
:106B7000960000000008000004000000B46900084E
:106B80000000000000000000000000000000000005
:106B900000000000000000006C2300200000000046
:106BA00000000000000000000000000000000000E5
:106BB00000000000000000000000000000000000D5
:106BC00000000000000000000000000000000000C5
:106BD00000000000000000000000000000000000B5
:106BE00000000000000000000000000000000000A5
:0C6BF00000000000000000000000000099
:00000001FF
