:020000040800F2
:1000000000070020E1010008CD1E0008851E000841
:10001000AD1E0008851E0008A51E0008E3010008AB
:10002000E3010008E3010008E3010008ED410008D6
:10003000E3010008E3010008E3010008E301000810
:10004000E3010008E3010008E3010008E301000800
:10005000E3010008E30100087D460008A54600080A
:10006000CD460008F54600081D470008E3010008DA
:10007000E3010008E3010008E3010008E3010008D0
:10008000E3010008E3010008E3010008F12E000885
:100090005D2F0008B12F0008053000084547000813
:1000A000E3010008E3010008E3010008E3010008A0
:1000B0002D480008E3010008E3010008E3010008FF
:1000C000E3010008E3010008E3010008E301000880
:1000D000E3010008E3010008E301000819480008F3
:1000E000A9470008E3010008E3010008E301000854
:1000F000E3010008E3010008E3010008E301000850
:10010000E3010008E3010008E3010008E30100083F
:10011000E3010008E3010008E3010008E30100082F
:10012000E3010008E3010008E3010008E30100081F
:10013000E3010008E3010008E3010008E30100080F
:10014000E3010008E3010008E3010008E3010008FF
:10015000E3010008E3010008E3010008E3010008EF
:10016000E3010008E3010008E3010008E3010008DF
:10017000E3010008E3010008E3010008E3010008CF
:10018000E3010008E3010008E3010008E3010008BF
:10019000E3010008E3010008E3010008E3010008AF
:1001A000E3010008E3010008E3010008E30100089F
:1001B000E3010008E3010008E3010008E30100088F
:1001C000E3010008E3010008E3010008E30100087F
:1001D000E3010008E3010008E3010008E30100086F
:1001E00002E000F000F8FEE772B6374880F30888B6
:1001F000364880F3098836483649086040F20000E6
:10020000CCF200004EF63471CEF200010860BFF36C
:100210004F8FBFF36F8F40F20000C0F2F0004EF638
:100220008851CEF200010860BFF34F8FBFF36F8F8C
:100230004FF00000E1EE100A4EF63C71CEF20001E4
:100240000860062080F31488BFF36F8F04F02CF849
:1002500004F0BEF84FF055301F491B4A91423CBF95
:1002600041F8040BFAE71D49184A91423CBF41F896
:10027000040BFAE71A491B4A1B4B9A423EBF51F83E
:10028000040B42F8040BF8E700201849184A914281
:100290003CBF41F8040BFAE704F00AF804F0ECF86C
:1002A000144C154DAC4203DA54F8041B8847F9E7A7
:1002B00000F042F8114C124DAC4203DA54F8041B22
:1002C0008847F9E703F0F2BF000700200023002071
:1002D0000000000808ED00E00001002000070020F9
:1002E000584B0008002300202C230020302300203E
:1002F000A83C0020E0010008E0010008E00100083F
:10030000E00100082DE9F04F2DED108AC1F80CD066
:10031000C3689D46BDEC108ABDE8F08F002383F3CF
:1003200011882846A047002003F0D6FBFEE703F023
:100330006FFB00DFFEE70000F8B501F065F903F0A0
:10034000F3FE074603F03EFF0546A8BB1F4B9F4246
:1003500032D001339F4232D01D4B27F0FF029A4228
:1003600030D1F8B200F0C8FE2E4642F2107400F010
:10037000C9FE08B10024264601F006FD20B1032085
:1003800000F07AF80024264635B1124B9F4203D084
:1003900003F010FF00242646002003F0CFFE0EB12C
:1003A00000F080F801F066FA00F00EFF204600F041
:1003B000CDF800F077F8F9E72E460024D7E7044699
:1003C0000126D4E7064641F28834D0E7010007B0A1
:1003D000000008B0263A09B008B501F0E1F8A0F134
:1003E00020035842584108BD07B541F212030221CB
:1003F00001A8ADF8043001F0F1F803B05DF804FB9A
:1004000038B5302383F31188174803680BB103F024
:100410002FFC164A144800234FF47A7103F01EFC97
:10042000002383F31188124C236813B12368013B26
:100430002360636813B16368013B63600D4D2B78E3
:1004400033B963687BB9022001F0A2F932236360FB
:100450002B78032B07D163682BB9022001F098F9A0
:100460004FF47A73636038BD302300200104000824
:100470005024002048230020084B187003280CD873
:10048000DFE800F008050208022001F079B9022037
:1004900001F06CB9024B00225A60704748230020DB
:1004A0005024002010B501F06FFC30B1204B032226
:1004B0001A70204B00225A6010BD1F4B1F4A1C4669
:1004C00019680131F8D004339342F9D162681C4BAA
:1004D0009A42F1D91B4B9B6803F1006303F580330B
:1004E0009A42E9D203F03AFE03F04CFE002001F0FC
:1004F000A5F80220FFF7C0FF134B1A6C00221A6404
:10050000196E1A66196E596C5A64596E5A665B6E8A
:1005100072B64FF0E0233021C3F8084DD4E9003221
:1005200081F311889D4683F308881047C4E700BF14
:10053000482300205024002000000108200001086A
:10054000FFFF000800230020003802402DE9F04F93
:1005500093B0AC4B00902022FF210AA89D6801F0C7
:1005600033F9A94A1378A3B9A8480121036011708F
:10057000302383F3118803680BB103F079FBA44A9D
:10058000A24800234FF47A7103F068FB002383F341
:100590001188009B13B19F4B009A1A609E4A009CE1
:1005A0001378032B1EBF002313709A4A4FF0000AE2
:1005B00018BF5360D3465646D146012001F0E0F8FB
:1005C00024B1944B1B68002B00F01582002000F032
:1005D000E7FF0390039B002B01DA00F0A9FE039BC9
:1005E000002BEDDB012001F0C1F8039B213B162B12
:1005F000E3D801A252F823F0550600087D06000852
:1006000011070008BB050008BB050008BB05000872
:100610009B0700086B09000885080008E708000828
:100620000F09000835090008BB0500084709000844
:10063000BB050008B9090008F5060008BB0500085D
:10064000FD09000861060008F5060008BB05000862
:10065000E70800080220FFF7BFFE002840F0F58100
:10066000009B0221BAF1000F08BF1C4605A841F209
:100670001233ADF8143000F0B1FF9EE74FF47A70FA
:1006800000F08EFF071EEBDB0220FFF7A5FE00281F
:10069000E6D0013F052F00F2DA81DFE807F0030A18
:1006A0000D10133605230593042105A800F096FFCD
:1006B00017E054480421F9E758480421F6E7584860
:1006C0000421F3E74FF01C08404600F0B9FF08F1A1
:1006D00004080590042105A800F080FFB8F12C0F54
:1006E000F2D1012000FA07F747EA0B0B5FFA8BFB08
:1006F0004FF0000901F0B4F826B10BF00B030B2BFF
:1007000008BF0024FFF770FE57E746480421CDE7F5
:10071000002EA5D00BF00B030B2BA1D10220FFF76D
:100720005BFE074600289BD0012000F087FF0220D7
:10073000FFF7A2FE00261FFA86F8404600F08EFF63
:10074000044690B10021404600F0A0FF0136002889
:10075000F1D1BA46044641F21213022105A8ADF8C0
:1007600014303E4600F03AFF27E70120FFF784FEF1
:100770002546244B9B68AB4207D9284600F060FF12
:10078000013040F067810435F3E7234B00251D70ED
:10079000204BBA465D603E46ACE7002E3FF460AFAA
:1007A0000BF00B030B2B7FF45BAF0220FFF764FE13
:1007B000322000F0F5FEB0F10008FFF651AF18F05E
:1007C00003077FF44DAF0F4A926808EB050393428D
:1007D0003FF646AFB8F5807F3FF742AF124B01932B
:1007E000B84523DD4FF47A7000F0DAFE0390039AE7
:1007F000002AFFF635AF019B039A03F8012B01375E
:10080000EDE700BF002300204C240020302300200F
:100810000104000850240020482300200423002065
:10082000082300200C2300204C230020C820FFF7C1
:10083000D3FD074600283FF413AF1F2D11D8C5F193
:10084000200242450AAB25F0030028BF42468349F7
:100850000192184400F0A6FF019A8048FF2100F0A1
:10086000B3FF4FEAA8037D490193C8F387022846E6
:1008700000F0B2FF064600283FF46DAF019B05EB88
:10088000830537E70220FFF7A7FD00283FF4E8AE15
:1008900000F01CFF00283FF4E3AE0027B846704B81
:1008A0009B68BB4218D91F2F11D80A9B01330ED069
:1008B00027F0030312AA134453F8203C0593404643
:1008C000042205A901F018FA04378046E7E7384604
:1008D00000F0B6FE0590F2E7CDF81480042105A8DB
:1008E00000F07CFE06E70023642104A8049300F0D6
:1008F0006BFE00287FF4B4AE0220FFF76DFD0028E8
:100900003FF4AEAE049800F0C9FE0590E6E7002380
:10091000642104A8049300F057FE00287FF4A0AEE1
:100920000220FFF759FD00283FF49AAE049800F02A
:10093000C5FEEAE70220FFF74FFD00283FF490AE26
:1009400000F0D4FEE1E70220FFF746FD00283FF467
:1009500087AE05A9142000F0CFFE042107460490BD
:1009600004A800F03BFE3946B9E7322000F018FE3B
:10097000071EFFF675AEBB077FF472AE384A926869
:1009800007EB090393423FF66BAE0220FFF724FD0D
:1009900000283FF465AE27F003074F44B9453FF404
:1009A000A9AE484600F04CFE0421059005A800F0D1
:1009B00015FE09F10409F1E74FF47A70FFF70CFD19
:1009C00000283FF44DAE00F081FE002844D00A9B81
:1009D00001330BD008220AA9002000F0FDFE0028F8
:1009E0003AD02022FF210AA800F0EEFEFFF7FCFC1F
:1009F0001C4803F077F813B0BDE8F08F002E3FF4E9
:100A00002FAE0BF00B030B2B7FF42AAE00236421D7
:100A100005A8059300F0D8FD074600287FF420AE16
:100A20000220FFF7D9FC804600283FF419AEFFF7FB
:100A3000DBFC41F2883003F055F8059800F026FF02
:100A4000464600F00DFF3C46B7E5064652E64FF03D
:100A5000000905E6BA467EE637467CE64C230020D0
:100A600000230020A0860100094A136849F26900AA
:100A700099B21B0C00FB01331360064B186844F25B
:100A8000506182B2000C01FB0200186080B2704716
:100A9000202300201C23002010B500211022044632
:100AA00000F092FE034B03CB206061601868A060E9
:100AB00010BD00BF107AFF1FF0B5ADF5517D6EACD3
:100AC0004FF4C47207460D462046002100F07CFE1C
:100AD00001F0FEF9264B4FF47A72B0FBF2F0186089
:100AE00093E80700022384E807000DF5ED702382E8
:100AF000FFF7D2FF41F615131E49238407A803F020
:100B000015FF1D2384F832310DF2EB2207AB0DF1F6
:100B1000340C1E4603CE664510605160334602F128
:100B20000802F6D130681060337913710FAE314688
:100B30000122204600F0C4FE00230393AB7E029303
:100B400005F11903019380B20123CDE904600093FC
:100B5000E97E05A3D3E90023384601F011FD0DF528
:100B6000517DF0BDAFF300809E6AC421818A46EEBC
:100B7000582400203C4900082DE9F041264D2B7AED
:100B8000DAB080460C46FBB927A9204600F0BEFF2C
:100B90000746002836D19DF89D60C82E32D8014600
:100BA0004FF4FA72284600F00FFE32460DF19E0116
:100BB00005F1090000F0F6FD2E449DF89C30777297
:100BC0002B720BB9E37E2B728122002106AD27A880
:100BD00000F0FAFD0122294627A800F0DDFF0023DE
:100BE0000393A37E029304F1190380B20193282397
:100BF000CDE904500093E17E05A3D3E900234046EC
:100C000001F0BEFC5AB0BDE8F08100BFAFF3008038
:100C100026417272DF25D7B7A0340020F0B5254EEB
:100C20004FF48A7505FB0065F1B096F8D83085F869
:100C3000DC300024D822214685F8E8403AA800F0AC
:100C4000C3FD06F1090000F0B7FDD5F8E4308DF8DA
:100C5000F000C2B206AF06F109010DF1F100CDE9D5
:100C60003A3400F09FFD394601223AA800F0CAFF4D
:100C700080B2CDE9047008230127CDE9023706F1DF
:100C8000D803019330230093317A0B4807A3D3E9AB
:100C9000002301F075FCA04206DD01F019F9C5F84A
:100CA000E000384671B0F0BD2046FBE778F6339F90
:100CB00093CACD8DA034002070340020F0B51E4EB4
:100CC0001E4F1F4D85B0304601F086FC044660B3D0
:100CD00010220021684600F077FD227B6068A16841
:100CE0004FF0000362F303038DF8003002AB03C33F
:100CF000019B226862F31C0301939DF8003043F0CE
:100D000020038DF8003000236A461946384602F069
:100D1000DFFB044620B9304601F062FC2C70D2E7BC
:100D20002B78072B03D801332B7005B0F0BD024898
:100D300001F056FCF9E700BF70340020E0360020D7
:100D40009936002070B50D4614461E4601F074FB1E
:100D500050B9022E10D1012C0ED112A3D3E90023D9
:100D6000C5E90023012007E0282C10D005D8012C6C
:100D700009D0052C0FD0002070BD302CFBD10BA367
:100D8000D3E90023ECE70BA3D3E90023E8E70BA3A7
:100D9000D3E90023E4E70BA3D3E90023E0E700BF96
:100DA000AFF30080401DA12026812A0B78F6339FE7
:100DB00093CACD8D9E6AC421818A46EE2641727205
:100DC000DF25D7B7F017304A39059E5638B50546A6
:100DD0000E4C0021013500F059FCA4F8F051B4F894
:100DE000F00100F03BFC78B1B4F8F00100F046FCF3
:100DF000014648B9B4F8F00100F048FCB4F8F0310D
:100E00000133A4F8F031EAE738BD00BFA034002078
:100E10002DE9F04F8DB000AF04460D4601F00CFBFC
:100E2000002849D12B7E022B1BD1EB8A012B18D134
:100E300001F04EF80646FFF717FE03464FF4C87060
:100E4000DFF8B082B3FBF0F206F5167602FB103342
:100E500016FA83F3C8F80030EB7E33B99E4B0022BC
:100E60001A703437BD46BDE8F08F07F11C012846E3
:100E700000F000FE0028F4D107F10C00FFF70CFE93
:100E8000BD7F07F10C012A4607F11F0003F01CFD8E
:100E90000028E3D10F2D08D88F4B1D70D8F80030F3
:100EA000A3F51673C8F80030DBE7397F0029D8D0E6
:100EB000204601F0B9FAD4E7EB8A282B6CD010D881
:100EC000012B64D0052BCCD1BFF34F8F8349844BCA
:100ED000CA6802F4E0621343CB60BFF34F8F00BFD8
:100EE000FDE7302BBDD17F4CEA7E237A9A42B8D100
:100EF00094F8DC206B7E9A4240F0E58004F1EA0130
:100F0000284600F0B3FE06460028AAD1012384F843
:100F1000E83000F0DDFFD4F8E030D4ED007ADFED0A
:100F2000726AC01A192838BF192040F6B83398429F
:100F300028BF1846B8EE677A07EE900AF8EEE77A0F
:100F400067EEA67ADFED696AE7EE267AFCEEE77ACD
:100F5000C4ED007A94F8D9307B604FF48A7202FBBA
:100F600003F56219606892F8E83053B1D2F8E430C2
:100F70008342E94615D0002382F8E830C2F8E03019
:100F8000CD4663685A4A9B0A0133138169E72946B3
:100F90002046FFF791FD64E729462046FFF7ECFD68
:100FA0005FE7B2F8EC803B6008F1030A4FEA9A0A67
:100FB0004FEA8A02D11DC908A9EBC1039D46EB4641
:100FC0000021584600F000FC05F1EE0142462144A4
:100FD000584600F0E7FB3B6813B9012000F02EFBF8
:100FE00094F8D20000F03AFB054630B9207200F0C8
:100FF0006DFB284600F022FBC2E7D4F8D4303BB9A1
:1010000094F8D200B4F8F031834201D8FFF7DEFE45
:10101000D4F8D43043449D4208D294F8D200B4F8B6
:10102000F0310130834201D8FFF7D0FE60685FFAEB
:101030008AF2594600F0D0FB08B9CD468AE76368CA
:1010400094F8D20043446360D4F8D43008EB030A28
:10105000C4F8D4A000F002FB824509D394F8D23042
:10106000D4F8D4000133401B84F8D230C4F8D40043
:10107000B8F1FF0F0FD80025257200F027FB284696
:1010800000F0DCFA00F080FE194B188108B9FFF778
:1010900009FACD46E5E67B6894F8D9004FF48A72E8
:1010A00002FB0343D3F8E42083F8E86002F5807282
:1010B000C3F8E060C3F8E420FFF7B0FDFFF7FEFDE2
:1010C00084F8D960B9E7236840F6B832FA3393421E
:1010D00094BF23602260C4E66934002000ED00E084
:1010E0000400FA05A0340020CDCCCC3D6666663FF6
:1010F000582400206C340020014B1870704700BF4A
:101100006424002030B54FF00054264B22689A42E8
:1011100085B017D1637DABB1234A24481370237D7A
:10112000037200252249C0F8E450C922093000F0BA
:1011300039FB2046E022294600F046FB01242046E8
:1011400005B030BD03F048F8044608B90024F6E7BE
:10115000184A194D136C43F000731364AA6D174BB2
:101160009A42F3D12B6E013B7E2BEFD8144A07CA6B
:1011700001AB83E807001846032100F0D3FD6B6D37
:1011800083424FF00003E1D12A6D8A4201BFAB6573
:10119000054B2A6E1A7003BF0A4BEA6D1A601C4693
:1011A000CDE700BF9AAD44C564240020A0340020E0
:1011B0001600002000380240006600405041A0B0F8
:1011C00058660040182300202DE9FF474C4C00F0E2
:1011D000DBFD02236371002302934A4B2081D3F885
:1011E00000C0BCF57A7F12D3474B484FB7FBFCF6E3
:1011F0009C458CBF0A231123581EB6FBF3F503FB55
:101200001562C1B2002A3ED002280346F4D89DF8E8
:101210000B303F493F485A1E9DF80A30013B1B04E2
:1012200043EA0253BDF80820013A13434B6002F031
:101230003FF900230193384B384900933848394B24
:101240004FF4805201F0C8F8374B197811B1344887
:1012500001F0EAF800F03CFE0546FFF705FC4FF40C
:10126000C873B0FBF3F202FB130305F5167010FA16
:1012700083F02E4B186002F0A5FF08B10F232381E5
:1012800004B0BDE8F0876B1EB3F5806FBFD2C1EB31
:10129000C10E0EF103034FEAE309C3F3C703A1EB49
:1012A000030809F1010A4FF47A705FFA88F609FB26
:1012B00000005AFA88F8B0FBF8F0B0F5617F08D961
:1012C0000EF1FF33C3F3C703C91ACEB2591E0F295B
:1012D00014D8721E072A8CBF00220122991901FB23
:1012E0000551B7FBF1F7BC4591D1002A8FD0ADF87D
:1012F00008508DF80A308DF80B6088E71346EDE74B
:1013000058240020182300203F420F0080DE800276
:1013100010230020E0360020450D0008682400203E
:1013200070340020110E0008642400206C3400206A
:101330002DE9F04F7EA7D7E900670FF2FC19D9E934
:101340000089754D93B00DF1300AFFF7B7FC1822F4
:101350000021504600F038FADFF8E4B16F4C00236A
:1013600019465246584602F0DBF8014650BB10229F
:1013700008A800F029FA636983F00103636100F0B3
:10138000A9FD0B4612A9024611E903000DF1240C38
:101390008CE803009DF83410C1F3030089064CBFAC
:1013A0000E99BDF838C08DF82C0046BFC1F31C0C57
:1013B0004CF00041CCF30A010891284608A901F03D
:1013C000EDFACCE7284601F037F80446002848D16A
:1013D000DFF870B100F07CFDDBF80030984240D3BC
:1013E00000F076FD0790FFF73FFB079A8DF820404D
:1013F00003464FF4C87002F51672B3FBF0F101FB1F
:10140000103312FA83F3CBF80030DFF83CB19BF8CD
:10141000001011B901238DF8203050460791FFF7D5
:101420003BFB0799C1F11004E4B2062C28BF062447
:10143000224651440DF1210000F0B4F908AB0393AA
:10144000182302930134364B0193E4B20123009335
:1014500004943B463246284601F034F800238BF8CA
:10146000003000F035FD2F4A2F4C1368C31AB3F536
:101470007A7F30D3106000F02DFD02460B462846DF
:1014800001F0B8F8284600F0D7FF20B3237ADFF840
:10149000BCB0002B14BF032302238BF8053000F0EF
:1014A00017FD4FF47A730122B0FBF3F05146CBF8ED
:1014B0000000584600F0B6FA182302931B4B019324
:1014C00080B240F25513CDE903A0009342464B464B
:1014D000284600F0F7FF237A9BB100F0F9FC94F85E
:1014E000E83073B9D4F8E03043B1C01A2368FA2B5E
:1014F00038BFFA230533B0EB430F02D30020FFF7C8
:101500008DFBC82002F0EEFA237A002B7FF41BAF8C
:1015100013B0BDE8F08F00BF70340020000402401B
:101520006834002094360020A03400209836002033
:10153000401DA12026812A0BF1C6A7C1D068080F43
:10154000E03600206C34002069340020582400204C
:1015500070B5104B1B780133DBB2012B0C4612D84F
:101560000D4B1D6829684FF47A730E6AA2FB033293
:10157000014622462846B047844204D1074B002248
:101580001A70012070BD4FF4FA7002F0ABFA00201F
:10159000F8E700BF2423002028230020DC360020A9
:1015A00007B50023024601210DF107008DF8073031
:1015B000FFF7CEFF20B19DF8070003B05DF804FBF4
:1015C0004FF0FF30F9E700000A4608B50421FFF7A5
:1015D000BFFF80F00100C0B2404208BD30B4074BED
:1015E0000A461978064B53F821402368DD69054BFC
:1015F0000146AC46204630BC604700BFDC360020C8
:1016000028230020A086010070B502F04DFC094E91
:10161000094D3080002428683388834208D902F0BD
:101620003DFC2B6804440133B4F5803F2B60F2D3BA
:1016300070BD00BFDE3600209C36002002F0E2BC08
:1016400000F1006000F580300068704700F1006034
:10165000920000F5803002F06DBC0000054B1A6866
:10166000054B1B889B1A834202D9104402F016BC1A
:10167000002070479C360020DE360020024B1B689D
:10168000184402F013BC00BF9C360020024B1B68BC
:10169000184402F023BC00BF9C36002010F0030366
:1016A0000AD1B0F5047F05D200F10050A0F510403A
:1016B000D0F80038184670470023FBE700F10050CF
:1016C000A0F51040D0F8100A70470000064991F8C4
:1016D000243033B10023086A81F824300822FFF750
:1016E000B5BF0120704700BFA0360020014B18682D
:1016F000704700BF002004E070B5194B1D68194BFE
:101700000138C5F30B0408442D0C04221E88A642A0
:101710000BD15C680A46013C824213460FD214F991
:10172000016F4EB102F8016BF6E7013A03F10803CD
:10173000ECD181420B4602D22C2203F8012B0A4A3B
:1017400005241688AE4204D1984284BF967803F8E7
:10175000016B013C02F10402F3D1581A70BD00BFC5
:10176000002004E09C49000888490008022802BFC4
:10177000024B4FF480329A61704700BF0004024070
:10178000022802BF014B01229A6170470004024007
:10179000022801BF024A536983F001035361704775
:1017A0000004024010B50023934203D0CC5CC45423
:1017B0000133F9E710BD000003460246D01A12F9C2
:1017C000011B0029FAD1704702440346934202D01C
:1017D00003F8011BFAE770472DE9F8431F4D144643
:1017E00095F824200746884652BBDFF870909CB3DA
:1017F00095F824302BB92022FF2148462F62FFF7AD
:10180000E3FF95F82400C0F10802A24228BF224657
:10181000D6B24146920005EB8000FFF7C3FF95F872
:101820002430A41B1E44F6B2082E17449044E4B2A0
:1018300085F82460DBD1FFF749FF0028D7D108E005
:101840002B6A03EB82038342CFD0FFF73FFF0028D0
:10185000CBD10020BDE8F8830120FBE7A0360020B3
:10186000024B1A78024B1A70704700BFDC3600201A
:101870002423002003494FF4E1330B60024B186826
:1018800002F02CB8C836002028230020094B10B5E0
:101890001422044600211846FFF796FF064A074B1C
:1018A000127804600146BDE8104053F8220002F0AF
:1018B00015B800BFC8360020DC36002028230020E1
:1018C0002DE9F3470D46044600219046284640F294
:1018D0007912FFF779FF234620220021284600F0E5
:1018E000FFFF231D02222021284600F0F9FF631D7F
:1018F00003222221284600F0F3FFA31D0322252105
:10190000284600F0EDFF04F10803102228212846A4
:1019100000F0E6FF04F1100308223821284600F009
:10192000DFFF04F1110308224021284600F0D8FF10
:1019300004F1120308224821284600F0D1FF04F1E7
:10194000140320225021284600F0CAFF04F1180396
:1019500040227021284600F0C3FF04F12003082232
:10196000B021284600F0BCFF04F121030822B82171
:10197000284600F0B5FF04F12207C0263B46314659
:1019800008222846083600F0ABFFB6F5A07F07F125
:101990000107F3D194F832308DF8073031460DF15C
:1019A00007030822284600F09BFF002604F1330AB3
:1019B0009DF807304FEAC6099E4209F5A47720D367
:1019C00094F83231502B28BF50238DF80730B8F1EE
:1019D000000F08D139460DF107030722284600F011
:1019E0007FFF09F24F17002604F233149DF80730E9
:1019F0009E4207EBC6010DD30731C80802B0BDE80F
:101A0000F0870AEB060308223946284600F068FFF3
:101A10000136CDE7A3190822284600F061FF013600
:101A2000E4E7000013B504460846002101602346A0
:101A3000C0F803102022019000F052FF0198231DEE
:101A40000222202100F04CFF0198631D0322222175
:101A500000F046FF0198A31D0322252100F040FF5E
:101A6000019804F108031022282100F039FF072013
:101A700002B010BDF7B5047F05460E462CB1838A2F
:101A8000122B02D9012003B0F0BD00231946072212
:101A90000096284600F0E8FD731C00930122002305
:101AA0000721284600F0E0FDD4B9B31C00930522BD
:101AB00023460821284600F0D7FD0D24B378102BCB
:101AC000E0D83746B278BB1B934210D32B7FA88A4D
:101AD0000734E408B3B9844294BF00200120D2E760
:101AE000AB8ADB00083BDB08B3700824E6E7FB1C8D
:101AF0000093214600230822284600F0B5FD083453
:101B00000137DFE7201A18BF0120BCE7F7B5047FD3
:101B100005460E462CB1838ACA2B02D9012003B098
:101B2000F0BD0023194600960822284600F09CFDCF
:101B3000731CD4B90822009311462346284600F0AE
:101B400093FD10247378C82BE8D8012372785F1CAA
:101B5000013B934210D32B7FA88A0734E408B3B922
:101B6000844294BF00200120D9E7AB8ADB00083B08
:101B7000DB0873700824E5E7F3190093214600237E
:101B80000822284600F070FD08343B46DEE7201AA4
:101B900018BF0120C3E70000F7B50D460446002139
:101BA000164628468122FFF70FFE23460822002111
:101BB000284600F095FE94F901206378002AB8BF0A
:101BC0007F238DF807309EB90DF107030722082106
:101BD000284600F085FE0F27002602349DF80730C6
:101BE0009E4207EBC60105D30731C80803B0F0BD1C
:101BF0000827F1E7A3190822284600F071FE0136F4
:101C0000ECE70000F7B50E460546002114463046C5
:101C1000CE22FFF7D9FD2B4628220021304600F0C6
:101C20005FFE2B7AC82B28BFC8238DF807308CB9EC
:101C30000DF1070308222821304600F051FE302420
:101C40002F469DF807207B1B934205D3E01DC0085B
:101C500003B0F0BD2824F3E707F109032146082269
:101C6000304600F03DFE08340137EAE7F7B5047F5F
:101C700005460E4634B1838AB3F5827F02D901202E
:101C800003B0F0BD0096012310220021284600F089
:101C9000EBFCDCB9B31C0093092223461021284633
:101CA00000F0E2FC19247388B3F5807FE7D837464B
:101CB0007288BB1B934210D32B7FA88A0734E40899
:101CC000B3B9844294BF00200120D9E7AB8ADB007E
:101CD000103BDB0873801024E5E73B1D0093214691
:101CE00000230822284600F0BFFC08340137DFE754
:101CF000201A18BF0120C3E730B5094D0A449142AC
:101D00000DD011F8013B5840082340F30004013B7B
:101D10002C4013F0FF0384EA5000F6D1EFE730BD0A
:101D20002083B8EDF7B54FF0FF33DFF854C0DFF88C
:101D300054E000EB81011A4688421CD050F8044B55
:101D4000019401AF042417F8015B82EA05620825BB
:101D5000DB18164605F1FF355241002EBCBF83EA61
:101D60000C0382EA0E0215F0FF05F1D1013C14F0DC
:101D7000FF04E8D1E0E7D843D14303B0F0BD00BF92
:101D80009336EAA9EBE1F042F7B5384A106851689A
:101D90006B4603C36A4636493648082302F0A4FD61
:101DA0000446002833D10A25334A106851686B462F
:101DB00003C36A4631492F48082302F095FD0446C3
:101DC000002849D00369B3F5702F45D8B0F86610E4
:101DD00041F2195291423FD1294A024402F15C0179
:101DE0008B4239D35C3B234900209E1AFFF784FFC6
:101DF0003246074604F164010020FFF77DFFA36827
:101E00009F4229D1E368984208BF002524E0036976
:101E1000B3F5702F27D8418B41F21952914220D14E
:101E2000174A024402F110018B4218D3103B1149AA
:101E300000209D1AFFF760FF2A46064604F11801AC
:101E40000020FFF759FFA3689E4202D1E368984241
:101E500001D00D25A8E70025284603B0F0BD1025C8
:101E6000A2E70C25A0E70B259EE700BFBC490008B0
:101E7000DCFF0E0000000108C549000890FF0E00BD
:101E80000800FFF700B59BB0EFF3098168226846B0
:101E9000FFF788FCEFF30583014B9B6BFEE700BF68
:101EA00000ED00E008B5FFF7EDFF000000B59BB0C6
:101EB000EFF3098168226846FFF774FCEFF30583AE
:101EC000014B5B6BFEE700BF00ED00E0FEE70000AA
:101ED00002F0C8B802F0AAB82DE9F041456A15B978
:101EE0004162BDE8F0814B6823F06047C3F38A4646
:101EF0004FEAD37EC3F3807816EA230638BF3E4606
:101F0000AC462B465A68BEEBD27F22F060440AD022
:101F1000002A18DAA40CB44217D19D420FD10D60EB
:101F2000DEE71346EEE7A74207D102F08044C2F392
:101F3000807242450BD054B1EFE708D2EDE7CCF800
:101F400000100B60CDE7B44201D0B442E5D81A6866
:101F50009C46002AE5D11960C3E700002DE9F0474F
:101F6000089D01F007044FEAD508224405F0070553
:101F700000EBD1004FF47F49944201D1BDE8F087D6
:101F800004F0070705F0070A57453E4638BF564696
:101F9000C6F10806111B8E4228BF0E46E10808EB69
:101FA000D50E415C13F80EC0B94029FA06F721FAA4
:101FB0000AF1FFB28CEA010147FA0AF739408CEACC
:101FC000010C03F80EC034443544D5E780EA012003
:101FD000082341F2210201B24000002980B203F13E
:101FE000FF33B8BF504013F0FF03F4D17047000037
:101FF00038B50C468D18A54200D138BD14F8011B28
:10200000FFF7E4FFF7E7000042684AB11368436056
:102010004389818901339BB29942438138BF8381CF
:102020001046704770B588B0202204460D466846B9
:102030000021FFF7C9FB20460495FFF7E5FF0246A4
:1020400058B16B46054608AE1C4603CCB442286026
:102050006960234605F10805F6D1104608B070BD49
:10206000082817D909280CD00A280CD00B280CD026
:102070000C280CD00D280CD00E2814BF4020302086
:1020800070470C20704710207047142070471820AC
:102090007047202070470000082817D90C280CD959
:1020A00010280CD914280CD918280CD920280CD9A0
:1020B00030288CBF0F200E207047092070470A205F
:1020C00070470B2070470C2070470D2070470000B0
:1020D0002DE9F843078C072F04461ED9D0E9029852
:1020E00000254FF6FF73C5F12006A5F1200029FA5F
:1020F00005F108FA06F628FA00F031430143C9B2A7
:102100001846FFF763FF0835402D0346EBD1E16920
:102110003A46BDE8F843FFF76BBF4FF6FF70BDE8E6
:10212000F883000010B54B6823B9CA8A63F309022B
:10213000CA8210BD04691A681C600361C38A013B2E
:10214000C3824A60EFE700002DE9F84F1D46CB8AB5
:102150000F46C3F309010529814692460B4630D04C
:102160000020AAB207F11A049EB2042E1FFA80F8CA
:102170000FD8904503F1010306D3FB8A0A4462F3AA
:102180000903FB8201201AE01AF80060E6540130CE
:10219000EAE79045F1D2A1F1050B1C237C68BBFB5B
:1021A000F3F203FB12BB1FFA8BF6002C45D1484615
:1021B000FFF72AFF044638B978606FF00200BDE8E7
:1021C000F88F4FF00008E6E7002606607860ADB2B1
:1021D0004FF0000B454510D90AEB0803221D13F8F8
:1021E000011B9155B1B208F101081B291FFA88F8AB
:1021F0002BD0454506F10106F1D8FB8AC3F309024D
:10220000154465F30903BCE7013292B21C4623680A
:10221000002BF9D16B1F0B441C21B3FBF1F30133ED
:102220009BB29A42D3D2BBF1000FD0D14846FFF700
:10223000EBFE20B9C4F800B0BFE70122E7E7C0F821
:1022400000B05E4620600446C1E74545D5D9484602
:10225000FFF7DAFE08B92060AFE7C0F800B000264B
:1022600020600446B6E700002DE9F04F2DED028B0B
:102270001C4683B05B69019207468846002B00F03C
:10228000A780238C2BB1E269002A00F0A180072BE4
:1022900035D807F10C00FFF7B7FE054638B96FF0E7
:1022A0000205284603B0BDEC028BBDE8F08F142276
:1022B0000021FFF789FA228CE16905F10800FFF798
:1022C00071FA208C013080B2FFF7E6FEFFF7C8FEFE
:1022D000013880B22084013028746369228C1B7815
:1022E0002A4403F01F0363F03F0348F000411372D8
:1022F000384669602946FFF7EFFD0125D1E7023333
:102300009BB20722C18A0633B3FBF2F3828A521AC8
:102310009BB292B29342C2D800F10C034FF0000975
:1023200008EE103A4FF0800A4E464D4618EE100A5D
:10233000FFF76AFE83460028B1D014220021FFF780
:1023400043FA002E3AD1019BABF8083002220BF180
:10235000080E1FFA82FC0CF10100BCF1060F218C63
:1023600080B201D88E422BD3FFF796FEFFF778FE9E
:1023700062691278013802F01F028E4208BF4FF0E6
:10238000400A42EA49121BFA80F14AEA020A013085
:1023900048F0004281F808A08BF81000CBF8042028
:1023A00059463846FFF798FD238C0135B3422DB2CC
:1023B00089F001094FF0000AB8D172E70022C6E7A0
:1023C000E169895D0EF802100136B6B20132C0E74C
:1023D0006FF0010565E70000F8B515460E4630229E
:1023E000002104461F46FFF7EFF9069B6360B5F531
:1023F000001F079BA76034BF6A094FF6FF72A362F4
:1024000097B2E66104F1100000239A4206D8002337
:102410000360A782E3822383E360F8BD0660013393
:1024200030462036F1E7000003781BB94BB2002B91
:10243000C8BF01707047000000787047F8B50C46BF
:10244000C969074611B9238C002B37D1257E1F2D72
:1024500034D8387828BB228C072A2CD8268A36F024
:1024600003032BD14FF6FF70FFF7C2FD20F00100F0
:102470003102400441EA0561400C41EA40254FF633
:10248000FF72234629463846FFF7EEFE002807DD97
:10249000626913780133DBB21F2B88BF00231370EE
:1024A000F8BD218A2D0645EA012505432046FFF7A0
:1024B0000FFE0246E5E76FF00300F1E76FF0010061
:1024C000EEE7000070B58AB00446164600212822C7
:1024D00068461D46FFF778F9BDF83830ADF8103082
:1024E0000F9B05939DF840308DF81830119B079392
:1024F0006946BDF84830ADF820302046CDE9026588
:10250000FFF79CFF0AB070BD2DE9F041D369054685
:102510000C4616460BB9138C5BBB377E1F2F28D891
:1025200095F80080B8F1000F26D03046FFF7D0FDB7
:102530003378210241EAC33141EA0801338A41EA92
:10254000076141EA03410246334641F080012846D3
:10255000FFF78AFE00280ADD3378012B07D1726964
:1025600013780133DBB21F2B88BF00231370BDE843
:10257000F0816FF00100FAE76FF00300F7E7000069
:10258000F0B58BB004460D46174600212822684658
:102590001E46FFF719F99DF84C305A1E534253411D
:1025A0008DF800309DF84030ADF81030119B059348
:1025B0009DF848308DF81830149B07936A46BDF893
:1025C0005430ADF8203029462046CDE90276FFF799
:1025D0009BFF0BB0F0BD0000406A00B104307047B3
:1025E000436A1A68426202691A600361C38A013B46
:1025F000C38270472DE9F041D0F82080194E14466F
:102600001D464146002709B9BDE8F081D1E9022302
:10261000A21A65EB0303964277EB03031ED2036A0B
:102620008B420DD1FFF77EFD036A1B6803620369CD
:102630000B60C38A0161016A013BC3828846E2E7FD
:10264000FFF770FD0B68C8F8003003690B60C38AA0
:102650000161013BC382D8F80010D4E788460968BD
:10266000D1E700BF80841E002DE9F04F8BB00D46EE
:10267000DDF8509014469B468046002800F01981F2
:10268000B9F1000F00F01581531E3F2B00F21181AC
:10269000012A03D1BBF1000F40F00B810023CDE9EB
:1026A0000833B8F81430B5EBC30F4FEAC30703D3B0
:1026B00000200BB0BDE8F08F2B199F42D8F80C30EA
:1026C0003ABF7F1BFFB227461BB9D8F81030002B4A
:1026D0007AD0272D4ED8C5F12806B7424FF0000317
:1026E0002CBFF6B23E4600932946D8F8080008AB46
:1026F0003246FFF733FCA7EB060A35445FFA8AFA45
:10270000B8F8143003F10053053BDB000493D8F80C
:102710000C3003932821039B13B1BAF1000F2CD185
:10272000D8F8100040B1BAF1000F05D0009608AB00
:102730005246691AFFF712FC38B2002FB8D066076C
:102740000AD00AAB03EBD401624211F8083C02F054
:102750000702134101F8083C082C3CD9102C40F228
:10276000B580202C40F2B780BBF1000F00F09C80B8
:10277000082334E0BA460026C2E7049BE02B28BFBA
:10278000E02306930B44AB42059314D95A1B0398DC
:102790000096924534BF5246D2B2691A08AB043053
:1027A0000792FFF7DBFB079A1644AAEB020A1544CF
:1027B000F6B25FFA8AFA049B069A05999B1A04936B
:1027C000039B1B680393A6E70093D8F8080008ABA7
:1027D0003A462946AEE7BBF1000F13D00123B4EB14
:1027E000C30F6CD0082C12D89DF82030621E23FA3B
:1027F00002F2D50706D54FF0FF3202FA04F4234364
:102800008DF820309DF8203089F8003051E7102CE9
:1028100012D8BDF82030621E23FA02F2D10706D585
:102820004FF0FF3202FA04F42343ADF82030BDF834
:102830002030A9F800303CE7202C0FD80899631EFF
:1028400021FA03F3DA0705D54FF0FF3202FA04F458
:102850000C430894089BC9F800302AE7402C2BD081
:10286000DDE90865611EC4F12102A4F1210326FA05
:1028700001F105FA02F225FA03F311431943CB07DC
:1028800012D50122A4F12003C4F1200102FA03F3BE
:1028900022FA01F1A240524243EA010363EB4303EF
:1028A00032432B43CDE90823DDE90823C9E900239E
:1028B000FFE66FF00100FCE66FF00800F9E6082C77
:1028C000A0D9102CB3D9202CEED8C3E7BBF1000F50
:1028D000ADD0022383E7BBF1000FBBD004237EE71A
:1028E00030B5012A144638BF0124402C85B028BFDA
:1028F00040240025012ACDE9025518D81B788DF80F
:10290000083063070AD004AB03EBD405624215F824
:10291000083C02F00702934005F8083C009103468A
:102920002246002102A8FFF719FB05B030BD082A96
:10293000E4D9102A03D81B88ADF80830E1E7202A33
:102940008DBFD3E900231B680293CDE90223D8E7AA
:1029500010B5CB681BB98B600B618B8210BD04690D
:102960001A681C600361C38A013BC382CA60F0E736
:1029700003064CBFC0F3C0300220704708B50246C2
:10298000FFF7F6FF022806D15306C2F30F2001D14C
:1029900000F0030008BDC2F30740FBE72DE9F04F4C
:1029A00093B0CDE903230A6804461046FFF7E0FF21
:1029B000022814BFC2F306260026002A0D468246CE
:1029C00080F2F78112F0C04940F0F381097B0029C1
:1029D00000F0EF81022803D02378B34240F0EC816D
:1029E000C2F304630693104602F07F030593FFF7DA
:1029F000C5FF059B29444FEA834848EA0A4848EA4C
:102A00004668CE7800230022CDE90823F3098346E7
:102A100048EA0008029367D0059B00930246676866
:102A2000534608A92046B847002800F0C881276A05
:102A30004FB9414604F10C00FFF7F4FA074690B98C
:102A40006FF0020054E03B6998450DD03F68002FBD
:102A5000F9D1414604F10C00FFF7E4FA07460028DB
:102A6000EED0236A3B60276297F817C006F01F0874
:102A7000CCF3840CACEB08001FFA80FE0028B8BF32
:102A80000EF12000A8EB0C031FFA83FED7E9022108
:102A9000B8BF00B2002B0793BEBF0EF120031BB2DC
:102AA000079352EA010338D0039BDFF824E39A1A14
:102AB000049B4FF0000C63EB010196457CEB010396
:102AC0002BD36B7B97F81AE0734519D1029B002B2F
:102AD00078D0012821DC7868F8B9DFF8F0C2944595
:102AE00070EB010316D337E0276A27B96FF00C00AB
:102AF00013B0BDE8F08F3B699845B5D03F68F4E767
:102B0000B24890427CEB010301D30020F0E7029B26
:102B1000002BFAD0079B0F2B17DCFA7DB30002F0D5
:102B2000030203F07C031343FB7539462046FFF78D
:102B3000F9FA6B7BBB76029B3BB9FB7DC3F3840246
:102B4000013262F38603FB75D0E76A7BBB7E9A4253
:102B5000DBD1029B002B35D0B309022B32D0039B73
:102B6000BB60049BFB60142200210DA8FEF72CFE25
:102B7000039B0A93049B0B932B1D0C932B7BADF8AB
:102B80003EB0013BDBB2ADF83C30069B8DF84230E5
:102B9000059B8DF8433094F82C308DF840A083F0DD
:102BA00001038DF844308DF84180A3680AA92046BE
:102BB0009847FB7DC3F38403013303F01F039B029B
:102BC000FB82A2E7FB7DC6F34012B2EBD31F40F0BD
:102BD000F980C3F38403434540F0FC80029A2B7BC9
:102BE000B609002A52D016F0010661D1032B40F23B
:102BF000F480039BBB60049BFB60FB8A66F30903C4
:102C0000FB822B7BAE1D033BDBB23246394604F11F
:102C10000C00FFF799FA00280CDA39462046FFF736
:102C200081FAFB7DC3F38403013303F01F039B028E
:102C3000FB8205E7DDE90884AB883B834FF6FF7331
:102C4000C9F12000A9F1200228FA09F104FA00F0E4
:102C5000014324FA02F211431846C9B2FFF7B6F94C
:102C600009F10809B9F1400F0346E9D1B8822A7B7E
:102C7000033AD2B23146FFF7BBF9FB7DB882DA43A3
:102C8000C2F3C01262F3C713FB753EE786B92E1D6F
:102C9000013BDBB23246394604F10C00FFF754FA2F
:102CA0000028BADB2A7BB88A013AD2B23146E2E781
:102CB000F98AC1F30901013B0429DAB25BD8281D66
:102CC000002307F11B069A4208D910F801CB06F839
:102CD00001C0013101330529DBB2F4D103990A9116
:102CE00004990B91934207F11B010C9138BF0433F7
:102CF00079680D9134BF55FA83F300230E93FB8A54
:102D0000ADF83EB0C3F309031A44069B8DF8423078
:102D1000059B8DF8433094F82C30ADF83C2083F0BF
:102D200001038DF8443000238DF840A08DF84180D8
:102D30007B602A7BB88A013A291DFFF759F93B8B42
:102D4000B882834203D1A3680AA920469847204647
:102D50000AA9FFF7FDFDFB7DBA8AC3F384030133A3
:102D600003F01F039B02FB823B8B9A420CBF0020A7
:102D70006FF01000BCE67B68002BAFD0052001E0AF
:102D80001C3033461E68002EFAD1091A081D2E1D6C
:102D9000184401EB090CBCF11B0F5FFA89F39DD8B5
:102DA0009A429BD916F8013B00F8013B09F1010951
:102DB000EFE76FF009009BE66FF00A0098E66FF00E
:102DC0000B0095E66FF00D0092E600BF40420F0049
:102DD00080841E006FF00E008AE66FF00F0087E619
:102DE000404BF0B51C6C404E44F000741C641D6EEA
:102DF00045F000751D661B6E3C4B9B6AD3F8005274
:102E0000354045F00105C3F80052D3F80042344084
:102E100044EA002040F00100C3F80002002952D02B
:102E20000020C3F81C020546C3F80402C3F80C02D4
:102E3000C3F8140203EBC00401301C28C4F840524C
:102E4000C4F84452F6D100254FF0010C967814884E
:102E5000F70748BFD3F804720CFA04F044BF0743E5
:102E6000C3F80472B70742BFD3F80C720743C3F824
:102E70000C72760742BFD3F814620643C3F814629B
:102E800003EBC4045668C4F840629668C4F8446210
:102E9000D3F81C4201352043A942C3F81C0202F1B9
:102EA0000C02D3D1D3F8002222F00102C3F8002291
:102EB0000C4B1A6C22F000721A641A6E22F0007227
:102EC0001A661B6EF0BD0122C3F84012C3F844120B
:102ED000C3F80412C3F81412C3F80C22C3F81C225E
:102EE000E0E700BF003802400000FFFFE0360020AE
:102EF000184A916A08B58B688B6013F0010104D001
:102F000013F00C0F18BF4FF48031D80506D513F419
:102F1000406F14BF41F4003141F00201D80306D5DF
:102F200013F4402F14BF41F4802141F00401D36910
:102F30000BB108489847302383F3118806480021D5
:102F400000F0F8FD002383F31188BDE8084001F08C
:102F500081B900BFE0360020E836002038B5124CB9
:102F6000A36ADD68AA0712D05A6922F002025A61E8
:102F7000A36913B1012120469847302383F31188B8
:102F80000A48002100F0D6FD002383F31188EB06E8
:102F900006D5A36A1021D960236A0BB1024898476D
:102FA000BDE8384001F056B9E0360020F036002088
:102FB00038B5124CA36A1D69AA0712D05A6922F0CB
:102FC00010025A61A36913B10221204698473023A9
:102FD00083F311880A48002100F0ACFD002383F33D
:102FE0001188EB0606D5A36A10211961236A0BB17B
:102FF00002489847BDE8384001F02CB9E03600207F
:10300000F036002038B50F4CA36A5D685D602A0772
:103010000AD5042222701A6822F002021A60636A3A
:1030200013B10021204698476B0706D5A36A99691A
:10303000236A13B1034809049847BDE8384001F0FA
:1030400009B900BFE036002010B50E4C204600F054
:103050001DFA0D4BA3620B21132000F0FFF90B2189
:10306000142000F0FBF90B21152000F0F7F90B21DB
:10307000162000F0F3F90022BDE8104011460E20A2
:10308000FFF7AEBEE036002000640040114B9842CE
:1030900010B5044609D1104B1A6C42F000721A6444
:1030A0001A6E42F000721A661B6EA36A01221A6041
:1030B000A36A5A68D20707D5626851681268D96155
:1030C0001A60064A5A6110BD0121082000F076FC02
:1030D000EEE700BFE0360020003802405B870100C9
:1030E00003291AD8DFE801F0020A0F14836A9B68EB
:1030F00013F0E05F14BF012000207047836A9868D6
:10310000C0F380607047836A9868C0F3C0607047FE
:10311000836A9868C0F30070704700207047000011
:1031200010B5032925D8DFE801F00225292D836A8F
:103130009968C1F30161183103EB0113107884061B
:103140004CBF54689488C0F300114FEA410148BF56
:1031500041EAC40100F00F004CBF41F0040141EA14
:103160004451586041F001019068D2689860DA607B
:10317000196010BD836A03F5C073DFE7836A03F546
:10318000C873DBE7836A03F5D073D7E701290AD058
:1031900002290FD081B9836ADA68920701D11869D0
:1031A00003E001207047836AD86810F0030018BF5D
:1031B00001207047836AF2E70020704710B539B9E3
:1031C000836AD96889071BD11B699C0704D110BD8C
:1031D000012915D00229FAD1816AD1F8C031D1F87C
:1031E000C441D1F8C8011061D1F8CC015061202050
:1031F00008610869800717D1486940F0100012E0A3
:10320000816AD1F8B031D1F8B441D1F8B801106178
:10321000D1F8BC0150612020C860C868800703D184
:10322000486940F002004861C3F34000C3F38001E5
:10323000000140EA4111107920F030000143117182
:1032400089064BBF91681189DB085B0D4CBF63F3A6
:103250001C0163F30A01137948BF916064F303030F
:1032600013714FEA14234FEA144458BF11811370AD
:103270005480ACE7026843681143016003B118470A
:1032800070470000024AD36843F0C003D360704720
:103290000048004010B5054C054A0021204600F0CA
:1032A000FBFA044A044BC4E9972310BD0C370020F5
:1032B000853200080048004080DE8002234A037CFB
:1032C000002918BF0A46012B30B5C0F868220CD17E
:1032D0001F4B984209D11F4B196C41F4802119648E
:1032E000196E41F4802119661B6EB2F904501468FE
:1032F000D0F86032D0F85C12002D03EB5403B3FB1E
:10330000F4F3BEBF23F0070503F0070343EA4503C8
:1033100094888B60D38843F040030B61138943F09A
:1033200001034B6144F4045343F02C03CB6004F4D9
:10333000A05400230B60B4F5806F0B684B680CBF82
:103340007F23FF2380F8643230BD00BFD0490008DE
:103350000C370020003802402DE9F041D0F85C62C3
:10336000F7683368DA0504469DB20DD5302383F340
:1033700011884FF480610430FFF77CFF6FF4807395
:103380003360002383F31188302383F3118804F121
:10339000040815F02F033AD183F31188380615D5A8
:1033A000290613D5302383F3118804F1380000F087
:1033B000EFF900284EDA0821201DFFF75BFF4FF6DA
:1033C0007F733B40F360002383F311887A0616D5A0
:1033D0006B0614D5302383F31188D4E913239A4262
:1033E0000AD1236C43B127F040073F041021201D70
:1033F0003F0CFFF73FFFF760002383F31188D4F8F9
:103400006822D36843B3BDE8F041106918472B0721
:1034100014D015F0080F0CBF00214FF48071E8079D
:1034200048BF41F02001AA0748BF41F040016B07A7
:1034300048BF41F080014046FFF71CFFAD067368AE
:1034400005D594F864122046194000F055FA356805
:10345000ADB29EE77060B6E7BDE8F08100F1604371
:1034600003F561430901C9B283F80013012200F09A
:103470001F039A4043099B0003F1604303F5614336
:10348000C3F880211A607047FFF7DEBD012300F109
:103490000802C0E90222037000F110020023C0E913
:1034A0000422C0E90633C0E90833436070470000D6
:1034B00010B53023044683F3118802230370416062
:1034C000FFF7E4FD04232370002080F3118810BD72
:1034D0002DE9F0411F4604460D461646302383F37E
:1034E000118800F108082378052B0DD029462046C5
:1034F000FFF7F6FD40B1204632462946FFF710FEA1
:10350000002080F3118808E03946404600F0F6FAC2
:103510000028E8D0002383F31188BDE8F081000083
:103520002DE9F0411F4604460D461646302383F32D
:10353000118800F110082378052B0DD0294620466C
:10354000FFF724FE40B1204632462946FFF736FEFB
:10355000002080F3118808E03946404600F0CEFA9A
:103560000028E8D0002383F31188BDE8F081000033
:10357000F8B5154682680669AA420B46816938BFCC
:103580008568761AB54204460BD218462A46FEF7DD
:1035900009F9A3692B44A361A3685B1BA3602846B8
:1035A000F8BD0CD918463246FEF7FCF8AF1BE168AF
:1035B0003A463044FEF7F6F8E3683B44EBE718463A
:1035C0002A46FEF7EFF8E368E5E7000083689342D8
:1035D000F7B51546044638BF8568D0E90460361A49
:1035E000B5420BD22A46FEF7DDF863692B446361CE
:1035F000A36828465B1BA36003B0F0BD0DD932461B
:103600000191FEF7CFF80199E068AF1B3A463144CB
:10361000FEF7C8F8E3683B44E9E72A46FEF7C2F83C
:10362000E368E4E710B50A440024C361029B8460A8
:10363000C0E90000C0E90511C1600261036210BD6C
:1036400008B5D0E90532934201D1826882B9826817
:10365000013282605A1C42611970D0E904329A42E8
:1036600024BFC3684361002100F058FA002008BD60
:103670004FF0FF30FBE7000070B5302304460E46E4
:1036800083F31188A568A5B1A368A269013BA36073
:10369000531CA36115782269934224BFE368A36198
:1036A000E3690BB120469847002383F3118828462D
:1036B00007E03146204600F021FA0028E2DA85F3DF
:1036C000118870BD2DE9F74F04460E4617469846FF
:1036D000D0F81C904FF0300A8AF311884FF0000B9D
:1036E000154665B12A4631462046FFF741FF03469D
:1036F00060B94146204600F001FA0028F1D00023CD
:1037000083F31188781B03B0BDE8F08FB9F1000F87
:1037100003D001902046C847019B8BF31188ED1A16
:103720001E448AF31188DCE7C0E90511C160C3615A
:103730001144009B8260C0E9000001610362704790
:10374000F8B504460D461646302383F31188A76862
:10375000A7B1A368013BA36063695A1C62611D7035
:10376000D4E904329A4224BFE3686361E3690BB190
:1037700020469847002080F3118807E03146204614
:1037800000F0BCF90028E2DA87F31188F8BD0000E8
:10379000D0E905239A4210B501D182687AB98268CE
:1037A000013282605A1C82611C7803699A4224BFEC
:1037B000C3688361002100F0B1F9204610BD4FF0CD
:1037C000FF30FBE72DE9F74F04460E4617469846B3
:1037D000D0F81C904FF0300A8AF311884FF0000B9C
:1037E000154665B12A4631462046FFF7EFFE0346EF
:1037F00060B94146204600F081F90028F1D000234D
:1038000083F31188781B03B0BDE8F08FB9F1000F86
:1038100003D001902046C847019B8BF31188ED1A15
:103820001E448AF31188DCE7026843681143016093
:1038300003B11847704700001430FFF743BF000082
:103840004FF0FF331430FFF73DBF00003830FFF773
:10385000B9BF00004FF0FF333830FFF7B3BF0000AF
:103860001430FFF709BF00004FF0FF311430FFF7AD
:1038700003BF00003830FFF763BF00004FF0FF3296
:103880003830FFF75DBF0000012914BF6FF013004F
:1038900000207047FFF7FEBC37B515460E4A0260A0
:1038A00000224260C0E902220122044602740B4653
:1038B000009000F15C014FF480721430FFF7B2FE0B
:1038C00000942B464FF4807204F5AE7104F1380079
:1038D000FFF72AFF03B030BDE449000810B53023DC
:1038E000044683F31188FFF7E9FC022323740020C8
:1038F00080F3118810BD000038B5C36904460D4639
:103900001BB904210844FFF78FFF294604F1140076
:10391000FFF796FE002806DA201D4FF40061BDE88F
:103920003840FFF781BF38BD002303758268036903
:103930001B6899689142FBD25A680360426010602C
:103940005860704700230375826803691B68996893
:103950009142FBD85A68036042601060586070471B
:1039600008B50846302383F311880B7D032B05D05F
:10397000042B0DD02BB983F3118808BD8B6900226D
:103980001A604FF0FF338361FFF7CEFF0023F2E7A9
:10399000D1E9003213605A60F3E70000FFF7C4BFBB
:1039A000054BD9680875186802681A6053600122CF
:1039B0000275D860FCF7A6BC7839002030B50C4BF6
:1039C000DD684B1C87B004460FD02B46094A684679
:1039D00000F044F92046FFF7E3FF009B13B168466F
:1039E00000F046F9A86907B030BDFFF7D9FFF9E745
:1039F0007839002061390008044B1A68DB68906848
:103A00009B68984294BF00200120704778390020BD
:103A1000084B10B51C68D86822681A6053600122F0
:103A20002275DC60FFF78EFF01462046BDE810409E
:103A3000FCF768BC7839002038B5074C07490848BE
:103A4000012300252370656000F06AFC02232370C7
:103A500085F3118838BD00BFE03B0020104A000804
:103A60007839002000F03AB98B60022308618B821C
:103A7000084670478368A3F1840243F8142C026956
:103A800043F8442C426943F8402C094A43F8242C5B
:103A9000C26843F8182C022203F80C2C002203F809
:103AA0000B2C044A43F8102CA3F12000704700BFF0
:103AB0001D0300087839002008B5FFF7DBFFBDE8DB
:103AC0000840FFF76BBF0000024BDB6898610F20D6
:103AD000FFF766BF78390020302383F31188FFF7A2
:103AE000F3BF000008B50146302383F31188082096
:103AF000FFF764FF002383F3118808BD064BDB68E2
:103B000039B1426818605A60136043600420FFF7BF
:103B100055BF4FF0FF307047783900200368984256
:103B200006D01A680260506099611846FFF736BFE8
:103B30007047000038B504460D462068844200D125
:103B400038BD036823605C608561FFF727FFF4E7F9
:103B500010B503689C68A2420CD85C688A600B6050
:103B60004C602160596099688A1A9A604FF0FF335F
:103B7000836010BD1B68121BECE700000A2938BFE8
:103B80000A2170B504460D460A26601900F0C2FBF2
:103B900000F0AEFB041BA54203D8751C2E4604465C
:103BA000F3E70A2E04D9BDE87040012000F0F8BB0D
:103BB00070BD0000F8B5144B0D46D96103F110013A
:103BC00041600A2A1969826038BF0A220160486090
:103BD0001861A818144600F08FFB0A2700F088FB34
:103BE000431BA342064606D37C1C281900F092FB17
:103BF00027463546F2E70A2F04D9BDE8F8400120F0
:103C000000F0CEBBF8BD00BF78390020F8B50646FD
:103C10000D4600F06DFB0F4A134653F8107F9F428C
:103C200006D12A4601463046BDE8F840FFF7C2BF3C
:103C3000D169BB68441A2C1928BF2C46A34202D96B
:103C40002946FFF79BFF224631460348BDE8F8406E
:103C5000FFF77EBF783900208839002010B4C0E912
:103C6000032300235DF8044B4361FFF7CFBF00003F
:103C700010B5194C236998420DD0D0E90032816803
:103C800013605A609A680A449A60002303604FF0F8
:103C9000FF33A36110BD2346026843F8102F536021
:103CA0000022026022699A4203D1BDE8104000F070
:103CB0002BBB936881680B44936000F019FB226969
:103CC000E1699268441AA242E4D91144BDE8104067
:103CD000091AFFF753BF00BF783900202DE9F047DC
:103CE000DFF8BC8008F110072C4ED8F8105000F017
:103CF000FFFAD8F81C40AA68031B9A423ED8144425
:103D0000D5E900324FF00009C8F81C4013605A6032
:103D1000C5F80090D8F81030B34201D100F0F4FAA1
:103D200089F31188D5E9033128469847302383F376
:103D300011886B69002BD8D000F0DAFA6A69A0EB21
:103D400004094A4582460DD2022000F029FB0022D8
:103D5000D8F81030B34208D151462846BDE8F047A4
:103D6000FFF728BF121A2244F2E712EB090938BF05
:103D70004A4629463846FFF7EBFEB5E7D8F810303B
:103D8000B34208D01444211AC8F81C00A960BDE849
:103D9000F047FFF7F3BEBDE8F08700BF8839002089
:103DA0007839002038B500F0A3FA054AD2E9084571
:103DB000031B181945F10001C2E9080138BD00BF15
:103DC0007839002000207047FEE7000070470000AF
:103DD0004FF0FF3070470000BFF34F8F024AD368A7
:103DE000DB03FCD4704700BF003C024008B5094B20
:103DF0001B7873B9FFF7F0FF074B1A69002ABFBFA2
:103E0000064A5A6002F188325A601A6822F48062C7
:103E10001A6008BDE83B0020003C024023016745D2
:103E200008B50B4B1B7893B9FFF7D6FF094B1A69FE
:103E300042F000421A611A6842F480521A601A680D
:103E400022F480521A601A6842F480621A6008BD37
:103E5000E83B0020003C02400B28F0B516D80C4C83
:103E60000C4923787BB90C4D0E460C234FF00062B1
:103E700055F8047B46F8042B013B13F0FF033A444A
:103E8000F6D10123237051F82000F0BD0020FCE79B
:103E90001C3C0020EC3B00201C4A0008014B53F85E
:103EA000200070471C4A00080C2070470B2810B5F2
:103EB000044601D9002010BDFFF7CEFF064B53F892
:103EC00024301844C21A0BB90120F4E712680132F9
:103ED000F0D1043BF6E700BF1C4A00080B2810B5E0
:103EE000044621D8FFF778FFFFF780FF0F4AF3233E
:103EF000D360C300DBB243F4007343F002031361E9
:103F0000136943F480331361FFF766FFFFF7A4FFE3
:103F1000074B53F8241000F01FF9FFF781FF2046EC
:103F2000BDE81040FFF7C2BF002010BD003C0240BA
:103F30001C4A0008F8B512F00103144642D1821859
:103F4000B2F1016F57D82D4B1B6813F0010352D00B
:103F50002B4DFFF74BFFF323EB60FFF73DFF40F2E4
:103F60000127032C15D824F001046618244C401AAC
:103F700040F20117B142236900EB010524D123F07F
:103F800001032361FFF74CFF0120F8BD043C04301E
:103F9000E7E78307E7D12B6923F440732B612B6993
:103FA0003B432B6151F8046B0660BFF34F8FFFF763
:103FB00013FF03689E42E9D02B6923F001032B61B4
:103FC000FFF72EFF0020E0E723F44073236123690D
:103FD0003B4323610B882B80BFF34F8FFFF7FCFE21
:103FE0002D8831F8023BADB2AB42C3D0236923F038
:103FF00001032361E4E71846C7E700BF0038024029
:10400000003C0240084908B50B7828B11BB9FFF7FE
:10401000EDFE01230B7008BD002BFCD0BDE808406D
:104020000870FFF7FDBE00BFE83B002038B5EFF396
:1040300011859DB9EFF30584C4F30804302334B12E
:1040400083F31188FFF7AEFE85F3118838BD83F343
:104050001188FFF7A7FE84F3118838BDBDE838400A
:10406000FFF7A0BE38B5FFF7E1FF114C114AC008B9
:1040700040EA4170A0FB025EC908A0FB040C1CEBE7
:10408000050CA1FB04404FF000035B41A1FB0212B1
:104090001CEB040C43EB000011EB0E0142F100029B
:1040A000411842F10000090941EA007038BD00BF23
:1040B000CFF753E3A59BC42010B50244064BD2B200
:1040C000904200D110BD441C00B253F8200041F8CA
:1040D000040BE0B2F4E700BF502800400F4B30B5AE
:1040E0001C6F240407D41C6F44F400741C671C6FFD
:1040F00044F400441C670A4C236843F48073236033
:104100000244084BD2B2904200D130BD441C00B2F0
:1041100051F8045B43F82050E0B2F4E70038024065
:10412000007000405028004007B5012201A900207E
:10413000FFF7C2FF019803B05DF804FB13B5044616
:10414000FFF7F2FFA04205D0012201A9002001944F
:10415000FFF7C4FF02B010BD70470000074B45F2E7
:1041600055521A6003225A6040F2FF729A604CF670
:10417000CC421A60024B01221A7070470030004096
:10418000243C0020034B1B781BB1034B4AF6AA22A8
:104190001A607047243C002000300040034B1A682E
:1041A0001AB9034AD2F874281A607047203C0020DC
:1041B00000300240024B4FF08072C3F87428704701
:1041C0000030024008B5FFF7E9FF024B1868C0F362
:1041D000407008BD203C002008B5FFF7DFFF024B10
:1041E0001868C0F3007008BD203C0020EFF309837D
:1041F00005494A6B22F001024A63683383F3098858
:10420000002383F31188704700EF00E0302080F333
:10421000118862B60C4B0D4AD96821F4E06109049B
:10422000090C0A43DA60D3F8FC20094942F0807295
:10423000C3F8FC200A6842F001020A602022DA7703
:1042400083F82200704700BF00ED00E00003FA058C
:10425000001000E010B5302383F311880E4B5B682B
:1042600013F4006314D0F1EE103AEFF30984683CC4
:104270004FF08073E361094BDB6B236684F309889D
:10428000FFF7BAFB10B1064BA36110BD054BFBE76E
:1042900083F31188F9E700BF00ED00E000EF00E0D4
:1042A0002F0300083203000870470000FEE70000FB
:1042B0000A4B0B480B4A90420BD30B4BDA1C121AD9
:1042C000C11E22F003028B4238BF00220021FDF7FD
:1042D0007BBA53F8041B40F8041BECE7844B00083E
:1042E000A83C0020A83C0020A83C002000F0D0B84A
:1042F0004FF08043586A70474FF080430022586364
:104300001A610222DA6070474FF080430022DA60BF
:10431000704700004FF0804358637047FEE700008D
:1043200070B51B4B01630025044686B0586085625A
:104330000E46FFF76BFF04F11003C4E904334FF09E
:10434000FF33C4E90635C4E90044A560E562FFF720
:10435000CFFF2B460246C4E9082304F134010D4A7D
:10436000256580232046FFF77FFB0123E0600A4A92
:104370000375009272680192B268CDE90223074B7F
:104380006846CDE90435FFF797FB06B070BD00BF66
:10439000E03B00204C4A0008514A00081D43000839
:1043A000024AD36A1843D062704700BF78390020B0
:1043B0004B6843608B688360CB68C3600B69436163
:1043C0004B6903628B6943620B68036070470000AE
:1043D00008B5264B26481A6940F2FF110A431A61B4
:1043E0001A6922F4FF7222F001021A611A691A6B2B
:1043F0000A431A631A6D0A431A651E4A1B6D114659
:10440000FFF7D6FF02F11C0100F58060FFF7D0FF37
:1044100002F1380100F58060FFF7CAFF02F1540194
:1044200000F58060FFF7C4FF02F1700100F58060C5
:10443000FFF7BEFF02F18C0100F58060FFF7B8FFC7
:1044400002F1A80100F58060FFF7B2FF02F1C4019C
:1044500000F58060FFF7ACFF02F1E00100F580603D
:10446000FFF7A6FFBDE8084000F08EB80038024014
:1044700000000240584A000808B500F007FAFFF7AC
:10448000DBFABDE80840FFF789BE00007047000076
:104490000F4B1A6C42F001021A641A6E42F00102CC
:1044A0001A660C4A1B6E936843F0010393604FF049
:1044B000804353229A624FF0FF32DA6200229A61FF
:1044C0005A63DA605A6001225A611A60704700BF6D
:1044D00000380240002004E04FF0804208B5116926
:1044E000D3680B40D9B2C9439B07116107D530236C
:1044F00083F31188FFF7B6FA002383F3118808BD10
:104500001F4B1A696FEAC2526FEAD2521A611A69D6
:10451000C2F308021A614FF0FF301A695A695861F4
:1045200000215A6959615A691A6A62F080521A6206
:104530001A6A02F080521A621A6A5A6A58625A6AF1
:1045400059625A6A1A6C42F080521A641A6E42F02A
:1045500080521A661A6E0B4A106840F48070106020
:10456000186F00F44070B0F5007F1EBF4FF480302C
:1045700018671967536823F40073536000F05EB93D
:104580000038024000700040334B4FF080521A64F4
:10459000324A4FF4404111601A6842F001021A6039
:1045A0001A689107FCD59A6822F003029A602A4B98
:1045B0009A6812F00C02FBD1196801F0F901196038
:1045C0009A601A6842F480321A601A689203FCD525
:1045D0005A6F42F001025A671F4B5A6F9007FCD581
:1045E0001F4A5A601A6842F080721A601B4A536868
:1045F0005904FCD5184B1A689201FCD5194A9A60E7
:10460000194B1A68194B9A42194B21D1194A116852
:10461000194A91421CD140F205121A60144A1368DB
:1046200003F00F03052BFAD10B4B9A6842F00202FC
:104630009A609A6802F00C02082AFAD15A6C42F485
:1046400080425A645A6E42F480425A665B6E7047EA
:1046500040F20572E1E700BF003802400070004000
:104660001054400700948838002004E011640020B2
:10467000003C024000ED00E041C20F41074A08B58E
:10468000536903F00103536123B1054A13680BB169
:1046900050689847BDE80840FFF7DCBD003C01408A
:1046A000283C0020074A08B5536903F00203536110
:1046B00023B1054A93680BB1D0689847BDE808401C
:1046C000FFF7C8BD003C0140283C0020074A08B560
:1046D000536903F00403536123B1054A13690BB115
:1046E00050699847BDE80840FFF7B4BD003C014061
:1046F000283C0020074A08B5536903F008035361BA
:1047000023B1054A93690BB1D0699847BDE80840C9
:10471000FFF7A0BD003C0140283C0020074A08B537
:10472000536903F01003536123B1054A136A0BB1B7
:10473000506A9847BDE80840FFF78CBD003C014037
:10474000283C0020164B10B55C6904F478725A615D
:10475000A30604D5134A936A0BB1D06A9847600642
:1047600004D5104A136B0BB1506B9847210604D542
:104770000C4A936B0BB1D06B9847E20504D5094AFC
:10478000136C0BB1506C9847A30504D5054A936C84
:104790000BB1D06C9847BDE81040FFF75BBD00BF80
:1047A000003C0140283C0020194B10B55C6904F422
:1047B0007C425A61620504D5164A136D0BB1506DE7
:1047C0009847230504D5134A936D0BB1D06D9847D4
:1047D000E00404D50F4A136E0BB1506E9847A10444
:1047E00004D50C4A936E0BB1D06E9847620404D581
:1047F000084A136F0BB1506F9847230404D5054A3C
:10480000936F0BB1D06F9847BDE81040FFF722BD02
:10481000003C0140283C002008B50348FEF79CFD01
:10482000BDE80840FFF716BD0C37002008B5FFF7BC
:1048300053FEBDE80840FFF70DBD0000062108B596
:104840000846FEF70BFE06210720FEF707FE0621AD
:104850000820FEF703FE06210920FEF7FFFD0621D2
:104860000A20FEF7FBFD06211720FEF7F7FD0621C3
:104870002820FEF7F3FD07211C20FEF7EFFDBDE821
:1048800008400C212720FEF7E9BD000008B5FFF71E
:1048900037FE00F00BF8FEF7F7FDFEF7FBFFFFF722
:1048A000F5FDBDE80840FFF721BD00000023054AE3
:1048B00019460133102BC2E9001102F10802F8D1A8
:1048C000704700BF283C002010B5013902449042D7
:1048D00001D1002005E0037811F8014FA34201D077
:1048E000181B10BD0130F2E72DE9F041A3B1C91A40
:1048F00017780144044603F1FF3C8C42204601D95D
:10490000002009E00578BD4204F10104F5D10CEB6B
:104910000405D618A54201D1BDE8F08115F8018D36
:1049200016F801EDF045F5D0E7E70000034611F871
:10493000012B03F8012B002AF9D170476F72672E03
:104940006172647570696C6F742E663430355F48BF
:104950006F6C7962726F504D5500000053544D33A7
:1049600032463F3F3F0053544D3332463430780097
:1049700053544D3332463432780053544D3332461B
:104980003434365858000000012033000010410034
:1049900001105A00031059000710310000000000F8
:1049A0005C4900081304000066490008190400006F
:1049B00070490008210400007A49000840A2E4F18F
:1049C000646891060041A3E5F26569920700000062
:1049D0000096000000000000000000000000000041
:1049E00000000000000000005538000841380008B1
:1049F0007D380008693800087538000861380008FB
:104A00004D38000839380008893800086330000044
:104A10000C4A0008D0390020E03B00200040000094
:104A200000400000004000000040000000000100C5
:104A3000000002000000020000000200000002006E
:104A40000000020000000200000002006D61696EBB
:104A50000069646C650000000000806A00000000CE
:104A6000AAAAAA6A00000024FF7F0000000000003C
:104A7000009009000101000000000000AAA9AAAAF4
:104A800000000000EEFF0000000000000000000039
:104A90000000A00000000000AAAAAAAA000050007E
:104AA000FFFF000000000000007700000000000091
:104AB00000000000AAAAAAAA00000000FFFF000050
:104AC00000000000000000000000000000000000E6
:104AD000AAAAAAAA00000000FFFF00000000000030
:104AE000000000000000000000000000AAAAAAAA1E
:104AF00000000000FFFF00000000000000000000B8
:104B00000000000000000000AAAAAAAA00000000FD
:104B1000FFFF000000000000000000000000000097
:104B2000000000000A000000000000000300000078
:104B30000000000000000000000000000000000075
:104B40000000000000000000000000000000000065
:104B50000000000000000000191500000000000027
:104B600000000F00000000006400000000000000D2
:104B700040420F00FE2A0100D2040000FF000000A6
:044B80000C370020CE
:00000001FF
