:020000040800F2
:1000000000070020F1010008912700084927000897
:10001000712700084927000869270008F301000834
:10002000F3010008F3010008F30100081938000883
:10003000F3010008F3010008F3010008F3010008D0
:10004000F3010008F3010008F3010008F3010008C0
:10005000F3010008F30100080D3B0008353B0008E0
:100060005D3B0008853B0008AD3B0008F30100083C
:10007000F3010008F3010008F3010008F301000890
:10008000F3010008F3010008F3010008F301000880
:10009000F3010008F92600080D270008D53B0008E9
:1000A000F3010008F3010008F3010008F301000860
:1000B000A93C0008F3010008F3010008F30100085F
:1000C000F3010008F3010008F3010008F301000840
:1000D000F3010008F3010008F3010008F301000830
:1000E000393C0008F3010008F3010008F30100089F
:1000F000F3010008F3010008F3010008F301000810
:10010000F3010008F3010008F3010008F3010008FF
:10011000F3010008F3010008F3010008F3010008EF
:10012000F3010008F3010008F3010008F3010008DF
:10013000F3010008F3010008F3010008F3010008CF
:10014000F3010008F3010008F3010008F3010008BF
:10015000F3010008F3010008F3010008F3010008AF
:10016000F3010008F3010008F3010008F30100089F
:10017000F3010008F3010008F3010008F30100088F
:10018000F3010008F3010008F3010008F30100087F
:10019000F3010008F30100082127000835270008B3
:1001A000F3010008F3010008F3010008F30100085F
:1001B000F3010008F3010008F3010008F30100084F
:1001C000F3010008F3010008F3010008F30100083F
:1001D000F3010008F3010008F3010008F30100082F
:1001E000A50F000800000000000000000000000053
:1001F00002E000F000F8FEE772B6374880F30888A6
:10020000364880F3098836483649086040F20000D5
:10021000CCF200004EF63471CEF200010860BFF35C
:100220004F8FBFF36F8F40F20000C0F2F0004EF628
:100230008851CEF200010860BFF34F8FBFF36F8F7C
:100240004FF00000E1EE100A4EF63C71CEF20001D4
:100250000860062080F31488BFF36F8F04F0C6F99E
:1002600004F0A6FA4FF055301F491B4A91423CBF9B
:1002700041F8040BFAE71D49184A91423CBF41F886
:10028000040BFAE71A491B4A1B4B9A423EBF51F82E
:10029000040B42F8040BF8E700201849184A914271
:1002A0003CBF41F8040BFAE704F0A4F904F0C6FAE5
:1002B000144C154DAC4203DA54F8041B8847F9E797
:1002C00000F042F8114C124DAC4203DA54F8041B12
:1002D0008847F9E704F08CB90007002000230020CC
:1002E0000000000808ED00E00001002000070020E9
:1002F000E84A000800230020A4230020A8230020AF
:1003000024660020E0010008E4010008E401000880
:10031000E40100082DE9F04F2DED108AC1F80CD052
:10032000C3689D46BDEC108ABDE8F08F002383F3BF
:1003300011882846A047002003F0F4FDFEE703F0F3
:100340007DFD00DFFEE70000F8B500F041FE04F09F
:10035000EFF8074604F040F90546C0BB294B9F4221
:1003600035D001339F4235D0274B27F0FF029A4208
:1003700033D1F8B200F058FC2E4642F2107400F06F
:1003800059FC08B10024264601F01AF948B30320AD
:1003900000F03EF80024264635B11C4B9F4203D0A6
:1003A00004F012F900242646002004F0CBF80EB128
:1003B00000F044F800F072FC02F0F2F90546C4B90E
:1003C00000F0C0FC4FF47A7003F0B2FDF7E72E4660
:1003D0000024D4E704460126D1E7064640F6C414BB
:1003E000CDE740F6C4139C4204BF4FF47A74012653
:1003F000D2E702F0D5F9431BA342E1D900F01EF881
:10040000DAE700BF010007B0000008B0263A09B0E3
:10041000084B187003280CD8DFE800F00805020824
:10042000022000F033BE022000F026BE024B002264
:100430005A607047A8230020AC23002010B501F0BB
:10044000BFF830B1234B03221A70234B00225A60AD
:1004500010BD224B224A1C4619680131F8D00433E2
:100460009342F9D16268A242F2D31E4B9B6803F11A
:10047000006303F510439A42EAD204F077F804F0DF
:1004800089F8002000F0BEFD0220FFF7C1FF164BE7
:100490009A6D00229A65996F9A67996FD96DDA659E
:1004A000D96FDA67D96F196E1A66D3F88010C3F85E
:1004B0008020D3F8803072B64FF0E0233021C3F8AB
:1004C000084DD4E9003281F311889D4683F30888F2
:1004D0001047BDE7A8230020AC23002000900008AF
:1004E000209000080023002000100240094A1368F1
:1004F00049F2690099B21B0C00FB01331360064BF3
:10050000186844F2506182B2000C01FB02001860CE
:1005100080B27047142300201023002010B5002162
:100520001022044600F0CEFD034B03CB2060616037
:100530001868A06010BD00BF9075FF1FF0B5ADF545
:10054000517D6EAC4FF4C47207460D462046002123
:1005500000F0B8FD02F024F9264B4FF47A72B0FB9C
:10056000F2F0186093E80700022384E807000DF515
:10057000ED702382FFF7D2FF49F204231E49238442
:1005800007A804F0C1F91D2384F832310DF2EB22E3
:1005900007AB0DF1340C1E4603CE6645106051606A
:1005A000334602F10802F6D13068106033791371D6
:1005B0000FAE31460122204600F0D0FD0023039308
:1005C000AB7E029305F11903019380B20123CDE9BB
:1005D00004600093E97E05A3D3E90023384602F0C6
:1005E000EBFC0DF5517DF0BDAFF300809E6AC42198
:1005F000818A46EEB4230020184900082DE9F04115
:100600002C4C237ADAB080460D465BBB27A92846DE
:1006100000F0CAFE0746002842D19DF89D60C82E12
:100620003ED801464FF4A662204600F04BFD4FF441
:100630008073C4F8F8314FF40073C4F80C334FF4EE
:100640004073C4F8203432460DF19E0104F10900D4
:1006500000F026FD26449DF89C30777223720BB97A
:10066000EB7E23728122002106AC27A800F02AFD30
:100670000122214627A800F0DDFE00230393AB7E74
:10068000029305F1190380B201932823CDE90440B8
:100690000093E97E05A3D3E90023404602F08CFCD9
:1006A0005AB0BDE8F08100BFAFF3008026417272FE
:1006B000DF25D7B7FC330020F0B5254E4FF48A75FF
:1006C00005FB0065F1B096F8D83085F8DC300024E1
:1006D000D822214685F8E8403AA800F0F3FC06F15C
:1006E000090000F0E7FCD5F8E4308DF8F000C2B264
:1006F00006AF06F109010DF1F100CDE93A3400F041
:10070000CFFC394601223AA800F0CAFE80B2CDE9FA
:10071000047008230127CDE9023706F1D8030193BD
:1007200030230093317A0B4807A3D3E9002302F06A
:1007300043FCA04206DD02F033F8C5F8E00038467D
:1007400071B0F0BD2046FBE778F6339F93CACD8D9C
:10075000FC330020CC3300202DE9F04F274FDFF889
:10076000A880274E87B0384602F052FC0346002886
:100770003DD00024CDE90344ADF81440027B8DF850
:10078000142099684068029403AA03C21B681D4D97
:1007900043F000430293A146A2462B68D3F810B061
:1007A00002F000F810EB080241F100032846CDF8F2
:1007B00000A002A9D84704F2345440F66823002868
:1007C000C8BF49F0010905F5A6559C4205F1100581
:1007D000E3D1B9F1000F05D0384602F01DFC86F8D0
:1007E00000A0C0E73378072B04D80133337007B07B
:1007F000BDE8F08F014802F00FFCF8E7CC33002091
:10080000313900203839002040420F0070B50D46C4
:1008100014461E4602F02CFB50B9022E10D1012CBA
:100820000ED112A3D3E90023C5E90023012007E07C
:10083000282C10D005D8012C09D0052C0FD0002071
:1008400070BD302CFBD10BA3D3E90023ECE70BA345
:10085000D3E90023E8E70BA3D3E90023E4E70BA3E4
:10086000D3E90023E0E700BFAFF30080401DA120E3
:1008700026812A0B78F6339F93CACD8D9E6AC421B8
:10088000818A46EE26417272DF25D7B7F017304ACB
:1008900039059E5638B505460E4C0021013500F04D
:1008A000D3FBA4F82C55B4F82C0500F0B5FB78B1B7
:1008B000B4F82C0500F0C0FB014648B9B4F82C058B
:1008C00000F0C2FBB4F82C350133A4F82C35EAE76C
:1008D00038BD00BFFC330020F8B50E4C0E4F022689
:1008E000A4F5805343F8407C237E3BB965692DB164
:1008F000284600F0E3FE284601F01AF8204600F0F2
:10090000DDFEA4F5A654012EA4F1100400D1F8BD1B
:100910000126E5E7485E0020784900082DE9F04F00
:100920008FB000AF05460C4602F0A2FA00284BD16A
:10093000237E022B1BD1E38A012B18D101F030FF5B
:100940000646FFF7D3FD03464FF4C870DFF8D482A4
:10095000B3FBF0F206F5167602FB103316FA83F3BA
:10096000C8F80030E37E33B9A74B00221A703C3739
:10097000BD46BDE8F08F07F12401204600F0C8FC19
:100980000028F4D107F11400FFF7C8FD97F82640BE
:1009900007F11401224607F1270003F083FF002826
:1009A000E2D10F2C08D8984B1C70D8F80030A3F572
:1009B0001673C8F80030DAE797F824100029D6D06B
:1009C000284602F04DFAD2E7E38A282B33D010D81C
:1009D000012B2BD0052BCAD1BFF34F8F8B498C4BEA
:1009E000CA6802F4E0621343CB60BFF34F8F00BFCD
:1009F000FDE7302BBBD1874EE17E327A9142B6D1F2
:100A0000607E3146002291F8DC50854200F0AD80D6
:100A10000132042A01F58A71F5D1326840F6B83105
:100A2000FA328A4294BF32603160A0E721462846FC
:100A3000FFF784FD9BE721462846FFF7DFFD96E799
:100A4000B2F8EC507B6005F103094FEA99094FEACF
:100A50008902D11DC908A8EBC1039D46EB460021C0
:100A6000584600F02FFB04F1EE012A463144584667
:100A700000F016FB7B6813B9012000F0C3FA96F86A
:100A8000D20000F0C9FA044630B9307200F0E4FA3E
:100A9000204600F0B7FAB0E0D6F8D4203AB996F87C
:100AA000D200B6F82C25824201D8FFF7F3FED6F823
:100AB000D4202A44944208D296F8D200B6F82C25C5
:100AC0000130824201D8FFF7E5FE70685FFA89F2D3
:100AD000594600F0FFFA08B9C54679E0726896F801
:100AE000D2002A447260D6F8D42005EB0209C6F879
:100AF000D49000F091FA814509D396F8D220D6F827
:100B0000D4000132001B86F8D220C6F8D400FF2D95
:100B10000FD80024347200F09FFA204600F072FAD9
:100B200000F04EFD3C4B188108B9FFF787FCC54625
:100B30001DE7BB6896F8D9000AFB0362FB68D2F890
:100B4000E41082F8E83001F58061C2F8E030C2F8C4
:100B5000E410FFF7B1FDFFF7FFFD96F8D920013251
:100B600002F0030286F8D920B6E74FF48A7A0AFB2E
:100B700002F505F1EA013144204600F0C5FCF860B9
:100B800000287FF4F4AE3544012285F8E82001F016
:100B900007FED5F8E020D6ED007ADFED206A801A56
:100BA000192838BF192040F6B832904228BF1046A5
:100BB000B8EE677A07EE900AF8EEE77A67EEA67A63
:100BC000DFED176AE7EE267AFCEEE77AC6ED007AEB
:100BD00096F8D9307168BB600AFB03F4321992F8B9
:100BE000E8505DB1D2F8E4308B42E8463FF428AFDC
:100BF000002182F8E810C2F8E010C5467368064A82
:100C00009B0A01331381B2E6C533002000ED00E0FA
:100C10000400FA05FC330020B4230020CDCCCC3DE9
:100C20006666663FC8330020014B1870704700BFEE
:100C3000C023002038B54FF00054144B22689A426C
:100C400021D1607DF0B1124B124918701248237DFA
:100C500003724FF48073C0F8F8314FF40073C0F89A
:100C60000C3300254FF44073C0F82034C0F8E45032
:100C7000C922093000F014FAE0222946204600F08B
:100C800021FA012038BD0020FCE700BF9AAD44C521
:100C9000C023002016000020FC33002037B500F0F0
:100CA0008FFC1F4C1F4D2049288102236B71236844
:100CB000204604F580545B6801229847D4F8D0346C
:100CC00019495B68012204F59A6098470023019353
:100CD000164B174900931748174B4FF4805202F0F8
:100CE00097F8164B197811B1124802F0B9F801F0D3
:100CF00057FD0446FFF7FAFB4FF4C873B0FBF3F25D
:100D000002FB130304F5167010FA83F00C4B186005
:100D100003F062FC08B10F232B8103B030BD00BF8C
:100D200038390020B423002040420F000D0800088D
:100D3000C4230020CC3300201D090008C02300205C
:100D4000C83300202DE9F04F2DED028B002593B024
:100D50000DF12C089FED838BDFF84492FFF7FCFC2C
:100D60000A95ADF834500B95C8F804500026834C12
:100D7000DFF80CB2374601238DF81C3023688DF85C
:100D80001D508DED008B0DF11D02D3F808A007A9B1
:100D900000232046D0479DF81CA0BAF1000F24D0B4
:100DA000D9F8143083F40053C9F81430102200210C
:100DB0000EA800F087F9236808AA5F690AA90DF157
:100DC0001E032046B84798E803000FAB83E80300F2
:100DD0009DF834308DF844300A9B0E930EA9DDE95E
:100DE0000823584602F0F6FA574606F2345640F603
:100DF000682304F5A6549E4204F11004BBD1002FD1
:100E0000B4D15F4802F034F800283FD15D4E01F0C4
:100E1000C7FC3368984239D301F0C2FC0446FFF79F
:100E200065FB4FF4C873B0FBF3F202FB130304F548
:100E3000167010FA83F03060534E8DF828703778B2
:100E400017B901238DF82830C7F11004E4B20EA8B9
:100E5000FFF764FB062C28BF06240EAB2246D919E7
:100E60000DF1290000F01CF90AAB0393182302933B
:100E70000134464B0193E4B20123009340480494AB
:100E80003AA3D3E9002302F039F8357001F088FC69
:100E90003F4A404C1368C31AB3F57A7F2FD31060D2
:100EA00001F080FC02460B46354802F0BFF834489A
:100EB00001F0DEFF18B3237A374E002B14BF032353
:100EC0000223737101F06CFC0EAF4FF47A730122B0
:100ED000B0FBF3F039463060304600F0F1F91823EA
:100EE00002932E4B019380B240F25513CDE903706B
:100EF000009323481FA3D3E9002301F0FFFF237AC7
:100F000093B101F04DFC002607464FF48A7894F81F
:100F1000D900304400F0030008FB004393F8E820B8
:100F200072B10136042EF2D1C82003F001F8237A01
:100F3000002B7FF40DAF13B0BDEC028BBDE8F08F3A
:100F4000D3F8E02042B12368FA2B38BFFA23BA1A4B
:100F50000533B2EB430FE4D3FFF7AEFB0028E0D13B
:100F6000E2E700BF0000000000000000401DA120DB
:100F700026812A0BF1C6A7C1D068080F3839002096
:100F8000CC330020C8330020C5330020C4330020F8
:100F90002C390020FC330020B423002030390020FD
:100FA0000008004808B5064800F0D2FE054800F0E9
:100FB000CFFEBDE80840044A0449002003F056BCB7
:100FC00038390020084E002014630020D90800089A
:100FD00070B503F049F9094E094D308000242868A6
:100FE0003388834208D903F03BF92B68044401336A
:100FF000B4F5104F2B60F2D370BD00BF0463002026
:10100000D862002003F0EAB900F10060920000F518
:10101000104003F06DB90000054B1A68054B1B88A2
:101020009B1A834202D9104403F01AB9002070477A
:10103000D862002004630020024B1B68184403F0B0
:1010400017B900BFD8620020024B1B68184403F098
:1010500021B900BFD8620020064991F8243033B18D
:101060000023086A81F824300822FFF7CDBF012051
:10107000704700BFDC620020022802BF024B4FF025
:1010800000529A61704700BF00080048022802BF62
:10109000024B4FF400529A61704700BF00080048AD
:1010A00010B50023934203D0CC5CC4540133F9E75C
:1010B00010BD000003460246D01A12F9011B002998
:1010C000FAD1704702440346934202D003F8011B51
:1010D000FAE770472DE9F8431F4D144695F8242090
:1010E0000746884652BBDFF870909CB395F82430D1
:1010F0002BB92022FF2148462F62FFF7E3FF95F826
:101100002400C0F10802A24228BF2246D6B24146BE
:10111000920005EB8000FFF7C3FF95F82430A41B75
:101120001E44F6B2082E17449044E4B285F82460B9
:10113000DBD1FFF791FF0028D7D108E02B6A03EB42
:1011400082038342CFD0FFF787FF0028CBD1002056
:10115000BDE8F8830120FBE7DC6200202DE9F347BE
:101160000D46044600219046284640F27912FFF7CA
:10117000A9FF234620220021284602F0CDF8231D96
:1011800002222021284602F0C7F8631D03222221F3
:10119000284602F0C1F8A31D03222521284602F0AB
:1011A000BBF804F1080310222821284602F0B4F805
:1011B00004F1100308223821284602F0ADF804F1AA
:1011C000110308224021284602F0A6F804F1120378
:1011D00008224821284602F09FF804F11403202237
:1011E0005021284602F098F804F11803402270219B
:1011F000284602F091F804F120030822B021284685
:1012000002F08AF804F121030822B821284602F0EE
:1012100083F804F12207C0263B46314608222846BF
:10122000083602F079F8B6F5A07F07F10107F3D18F
:1012300094F832308DF8073031460DF1070308225B
:10124000284602F069F8002604F1330A9DF80730B9
:101250004FEAC6099E4209F5A47720D394F83231AB
:10126000502B28BF50238DF80730B8F1000F08D15C
:1012700039460DF107030722284602F04DF809F21E
:101280004F17002604F233149DF807309E4207EBF7
:10129000C6010DD30731C80802B0BDE8F0870AEBDC
:1012A000060308223946284602F036F80136CDE713
:1012B000A3190822284602F02FF80136E4E70000BF
:1012C00013B504460846002101602346C0F8031008
:1012D0002022019002F020F80198231D02222021F3
:1012E00002F01AF80198631D0322222102F014F87B
:1012F0000198A31D0322252102F00EF8019804F1A4
:1013000008031022282102F007F8072002B010BDC0
:10131000F7B5047F05460E462CB1838A122B02D9FD
:10132000012003B0F0BD002319460722009628468D
:1013300001F0B6FE731C009301220023072128460A
:1013400001F0AEFED4B9B31C009305222346082158
:10135000284601F0A5FE0D24B378102BE0D83746BF
:10136000B278BB1B934210D32B7FA88A0734E408C2
:10137000B3B9844294BF00200120D2E7AB8ADB00DE
:10138000083BDB08B3700824E6E7FB1C009321460A
:1013900000230822284601F083FE08340137DFE7E6
:1013A000201A18BF0120BCE7F7B5047F05460E469A
:1013B0002CB1838ACA2B02D9012003B0F0BD0023CF
:1013C000194600960822284601F06AFE731CD4B91B
:1013D0000822009311462346284601F061FE10249E
:1013E0007378C82BE8D8012372785F1C013B9342C5
:1013F00010D32B7FA88A0734E408B3B9844294BF82
:1014000000200120D9E7AB8ADB00083BDB087370C2
:101410000824E5E7F3190093214600230822284613
:1014200001F03EFE08343B46DEE7201A18BF0120DB
:10143000C3E70000F7B50D460446002116462846CE
:101440008122FFF73FFE234608220021284601F0B3
:1014500063FF94F901206378002AB8BF7F238DF8D9
:1014600007309EB90DF1070307220821284601F035
:1014700053FF0F27002602349DF807309E4207EBEA
:10148000C60105D30731C80803B0F0BD0827F1E74E
:10149000A3190822284601F03FFF0136ECE70000BF
:1014A000F7B50E460546002114463046CE22FFF71A
:1014B00009FE2B4628220021304601F02DFF2B7A11
:1014C000C82B28BFC8238DF807308CB90DF107034E
:1014D00008222821304601F01FFF30242F469DF8B6
:1014E00007207B1B934205D3E01DC00803B0F0BD6D
:1014F0002824F3E707F1090321460822304601F0CA
:101500000BFF08340137EAE7F7B5047F05460E46BE
:1015100034B1838AB3F5827F02D9012003B0F0BDD4
:101520000096012310220021284601F0B9FDDCB904
:10153000B31C0093092223461021284601F0B0FD78
:1015400019247388B3F5807FE7D837467288BB1BB0
:10155000934210D32B7FA88A0734E408B3B984429E
:1015600094BF00200120D9E7AB8ADB00103BDB08E9
:1015700073801024E5E73B1D0093214600230822D9
:10158000284601F08DFD08340137DFE7201A18BF27
:101590000120C3E730B5094D0A4491420DD011F83E
:1015A000013B5840082340F30004013B2C4013F05A
:1015B000FF0384EA5000F6D1EFE730BD2083B8ED99
:1015C000F7B5384A106851686B4603C36A46364916
:1015D0003648082303F076F90446002833D10A255B
:1015E000334A106851686B4603C36A4631492F4835
:1015F000082303F067F90446002849D00369B3F5CE
:10160000EE2F45D8B0F8661040F2924291423FD199
:10161000294A024402F15C018B4239D35C3B2349E5
:1016200000209E1AFFF7B6FF3246074604F1640118
:101630000020FFF7AFFFA3689F4229D1E3689842DB
:1016400008BF002524E00369B3F5EE2F27D8418BAE
:1016500040F29242914220D1174A024402F1100115
:101660008B4218D3103B114900209D1AFFF792FFBF
:101670002A46064604F118010020FFF78BFFA368F5
:101680009E4202D1E368984201D00D25A8E70025CB
:10169000284603B0F0BD1025A2E70C25A0E70B25D6
:1016A0009EE700BF38490008DC6F07000090000883
:1016B00041490008906F07000870FFF710B5037CE0
:1016C000044613B9006803F0E5F8204610BD000099
:1016D0000023BFF35B8FC360BFF35B8FBFF35B8FF0
:1016E0008360BFF35B8F7047BFF35B8F0068BFF30E
:1016F0005B8F704770B505460C30FFF7F5FF05F1BD
:10170000080604463046FFF7EFFFA04206D93046F0
:101710006D68FFF7E9FF2544281A70BD3046FFF7D2
:10172000E3FF201AF9E7000070B50546406898B15C
:1017300005F10800FFF7D8FF05F10C060446304616
:10174000FFF7D2FF8442304694BF6D680025FFF753
:10175000CBFF013C2C44201A70BD000038B50C466C
:101760000546FFF7C7FFA04210D305F10800FFF7B9
:10177000BBFF04446868B4FBF0F100FB1144BFF305
:101780005B8F0120AC60BFF35B8F38BD0020FCE7AE
:101790002DE9F041144607460D46FFF7C5FF844288
:1017A00028BF0446D4B1B84658F80C6B4046FFF742
:1017B0009BFF3044286040467E68FFF795FF331A50
:1017C0009C4203D86C600120BDE8F0816B60A41BD3
:1017D0003B68AB602044E8600220F5E72046F3E771
:1017E00038B50C460546FFF79FFFA04210D305F120
:1017F0000C00FFF779FF04446868B4FBF0F100FBCC
:101800001144BFF35B8F0120EC60BFF35B8F38BDE9
:101810000020FCE72DE9FF41884669460746FFF7AF
:10182000B7FF6C4606B204EBC6060025B44209D0E9
:101830006268206808EB0501FFF732FC6368083432
:101840001D44F3E729463846FFF7CAFF284604B08F
:10185000BDE8F081F8B505460C300F46FFF744FFB0
:1018600005F1080604463046FFF73EFFA042304629
:1018700088BF6C68FFF738FF201A386020B1304607
:101880002C68FFF731FF2044F8BD000073B5144603
:1018900006460D46FFF72EFF844228BF04460190FE
:1018A000DCB101A93046FFF7D5FF019B33B932689F
:1018B000C5E90233C5E9002401200CE09C4238BF91
:1018C00001942860019868608442F5D93368AB6060
:1018D000241AEC60022002B070BD2046FBE7000035
:1018E0002DE9FF410F466946FFF7D0FF6C4600B275
:1018F00004EBC0050026AC4209D0D4F8048054F8AB
:10190000081BB8194246FFF7CBFB4644F3E73046C5
:1019100004B0BDE8F081000038B50546FFF7E0FFF0
:10192000044601462846FFF719FF204638BD00004F
:1019300008B102F0AFBF70477047000010B4134603
:10194000026814680022A4465DF8044B604700005A
:1019500000F5805090F869047047000000F5805051
:1019600090F862047047000000F5805090F9680418
:101970007047000050207047302383F3118800F532
:101980008052D2F8AC34D2F8A8041844D2F8A43467
:101990001844D2F88C341844D2F89C341844D2F845
:1019A00098341844002383F31188704700F5805061
:1019B000C0F86414012070472DE9FF470C4600F57C
:1019C0008051054691F86204BDF8308098B1D1F895
:1019D00088040130C1F888042068860006D4207B82
:1019E00008280BD9667B0EB10F2807D9D1F88C34A3
:1019F0000133C1F88C344FF0FF30AAE0302080F37F
:101A00001188E86BD0F8C47017F4001713D0D1F820
:101A100090040130C1F89004D1F89414002940F0EA
:101A20009B80CDF800802146284600F003FF00236C
:101A300083F311888DE0D0F8C460686BC6F301466B
:101A40004FF0480919FB060920680028B4BF40F090
:101A5000804C4FEA804CC9F800C02068400044BF69
:101A60004CF00050C9F8000094F80CC0300640EA71
:101A70000C40C9F8040094F80DC04FEA461ABCF1B6
:101A8000000F27D040F44010C9F80400D1F8C0047A
:101A90000130C1F8C00405EB0A0101F58351087F4C
:101AA00040F020000877207BCDE9022300F014FFEE
:101AB000DDE9022303308010F9B2814207F101070A
:101AC00010DA04EB810C09EB8101DCF804C0C1F8E9
:101AD00008C0F1E705EB0A0101F58351087F6CF3BB
:101AE0004510DFE7E96B0120B040C1F8CC0006F1FA
:101AF000830105EB4111C1E9002305EB461101F516
:101B000083512046083104F10C0750F804CB41F80A
:101B100004CBB842F9D100880880AA4441F2780188
:101B20004AF801600AF5805A08F003019AF87C002F
:101B300041F0100120F01F0001438AF87C100021C1
:101B400081F31188CDF800802146284600F072FE0E
:101B5000012004B0BDE8F087002068E738B5C26B0B
:101B6000936923F001039361044600F019FE0546D2
:101B7000E36B9B69DB0706D500F012FE431BFA2BD3
:101B8000F6D9002004E004F58054012084F86204B2
:101B900038BD000013B500F580540191606DFFF76A
:101BA000C3FD1F280AD90199606D2022FFF732FE7C
:101BB000A0F120035842584102B010BD0020FBE7BD
:101BC00008B5302383F3118800F58050406DFFF78E
:101BD0007FFD002383F3118808BD0000002202600E
:101BE000828142608260704710B500220023C0E904
:101BF00000230023044603810C30FFF7EFFF20464B
:101C000010BD00002DE9F0479A4688B00746884687
:101C10009146302383F3118807F580546846FFF717
:101C2000E3FF606DFFF766FD1F282DD9606D202250
:101C30006946FFF771FE202826D194F862341BB361
:101C400003AD444605AB2E4603CE9E422060616044
:101C5000354604F10804F6D130682060B388A380CB
:101C6000DDE90023C9E90023BDF80830AAF80030F7
:101C7000002383F3118853464A464146384608B04C
:101C8000BDE8F04700F09ABD002080F3118808B04D
:101C9000BDE8F0872DE9F84F0646354688461822FC
:101CA00000210430FFF70EFA264B45F8403B06F5BD
:101CB00082572C4620462034FFF796FFA742F9D1E1
:101CC00006F580544FF4805325640025C4E911358E
:101CD00001236765E56484F8503084F8583006F5D0
:101CE000845706F5A4594FF0000A4FF0000B47E95E
:101CF00008ABA7F11800FFF771FF203747F8285C01
:101D00004F45F4D1B8F1010F84F86884A4F86A54FF
:101D1000A4F86C54A4F86E5484F87054A4F8725467
:101D2000A4F87454A4F8765484F8785402D9064878
:101D300000F030FD054B53F82830F3633046BDE822
:101D4000F88F00BF784900084C490008684900082E
:101D500010B5044B197804464A1C1A70FFF79AFF15
:101D6000204610BD116300202DE9F84315460C46AE
:101D700000295CD0022001F0C3FE2E49B0FBF4F72D
:101D80008C428CBF0A2111214B1EB7FBF1F601FBDF
:101D90001671DAB221B1022B1946F5D8002032E0D3
:101DA000731EB3F5806FF9D2C2EBC20808F10301CC
:101DB0004FEAE10EC1F3C701A2EB010C0EF10109DC
:101DC0004FF47A735FFA8CF70EFB033E59FA8CFCE2
:101DD000BEFBFCFCBCF5617F17DC1FFA8CF34A1CD0
:101DE00057FA82F27243B0FBF2F08442D6D14A1E17
:101DF0000F2AD3D87A1E072AD0D801202B806E80D4
:101E000028716971AF71BDE8F88308F1FF314FEABD
:101E1000E10CC1F3C701521A0CF1010ED7B20CFB51
:101E200003335EFA82F2B3FBF2F39BB2D7E70846C4
:101E3000E9E700BF3F420F0030B50D4B0D4D0520C7
:101E40001C786C438C420ED159785180997851712D
:101E5000D9789171197911715B7903EB83035B0078
:101E60001380012030BD013803F10603E8D1F9E702
:101E7000BC49000840420F0038B500F58053114AB4
:101E800093F86834D55C4FF45472554305F18043A0
:101E900003F52443044600211846FFF713F90A4BC3
:101EA00060622B44A362094B2B44E362084B2B4432
:101EB0002363084B2B446363E36B0022C3F8C02009
:101EC00038BD00BF6049000870A40040B0A40040C5
:101ED00088A5004078A600402DE9F04700F5805520
:101EE0001F4695F86834022B88B004468946904610
:101EF00004D90026304608B0BDE8F087A54A52F85C
:101F0000231009B942F82300A348C4F81C900178B3
:101F100084F8207099B9302383F311889F4B9A6D10
:101F200042F000729A659A6B42F000729A639A6B63
:101F300022F000729A630123037081F3118895F8EF
:101F40006134CBB9302383F31188954A95F868340E
:101F5000D35C012B2AD0022B2FD03BB903211520B3
:101F600001F0E2FE0321162001F0DEFE012385F8D8
:101F70006134002383F31188302383F31188E26BEB
:101F8000936923F01003936100F00AFC8246E36B2F
:101F90009E6916F0080617D000F002FCA0EB0A03B9
:101FA000FA2BF4D9002686F31188A3E703215620E3
:101FB00001F0BAFE03215720D6E70321582001F093
:101FC000B3FE03215920CFE79A6942F001029A61DA
:101FD00000F0E6FB8246E36B9A69D00706D400F076
:101FE000DFFBA0EB0A03FA2BF5D9DBE79A6942F095
:101FF00002029A61E36B4FF0000AC3F854A08AF31F
:102000001188686DFFF764FB202200216846FFF706
:1020100059F802A8FFF7E2FD04F58353CDF818A0A4
:102020006A4633440DF1180E9446BCE80300F445AB
:1020300018605960624603F10803F5D1DCF800002E
:10204000186020369CF804201A71B6F5806FDBD139
:10205000002304F5A35285F8603485F863340A320E
:1020600049462046FFF780FE064690B9E26B936929
:1020700023F00103936100F093FB0546E36B9B693A
:10208000D9077FF536AF00F08BFB431BFA2BF5D950
:102090002FE795F86E34C5F87C94591E95F86F3487
:1020A000E26B013B1B0243EA416395F8701401396E
:1020B0000B43B5F86C14013943EA0143D361B8F11D
:1020C000000F36D004F5A352123241462046FFF7E6
:1020D000B3FE90B9E26B936923F00103936100F0C2
:1020E0005FFB0546E36B9B69DA077FF502AF00F003
:1020F00057FB431BFA2BF5D9FBE695F87724C5F877
:102100008084511E95F87824E36B013A120142EA6B
:10211000012295F8761401390A43B5F8741401398F
:1021200042EA014242F40002DA60E36B4FF42062BB
:102130009A642046FFF7A0FE002385F86934E36B1C
:102140006FF040421A65E36B164A5A65E36B44220E
:102150009A65E36B0722C3F8DC20E36B0322974206
:10216000DA653FF4C7AEE26B936923F00103936134
:1021700000F016FB0746E36B9B69DB0705D500F013
:102180000FFBC31BFA2BF6D9B3E6012385F86234A3
:10219000B0E600BF0863002010630020001002407A
:1021A000604900089B0008002DE9F04F00F5A55795
:1021B0008BB00546904699464FF0000B41F2780AE5
:1021C0001037EB6BD3F8D43023FA0BF3DC0753D57D
:1021D00005EB4B1151444FEA4B120B7918074BD4C6
:1021E00005F58056D6F894340133C6F89434C7E91F
:1021F00000890B79990648BFD6F8C43405EB020173
:1022000048BF0133514448BFC6F8C4340B7943F08A
:1022100008030B71DB0724D596F863340BB302A8CF
:10222000019205F58354FFF7DFFC019A083414444A
:1022300005AB04F1080C206861681A4603C2083433
:1022400064451346F7D120681060A2889A80012364
:10225000ADF810302B68CDE902891B6C02A9284625
:102260009847D6F8B834D6F864040133C6F8B834C1
:1022700010B103681B6998470BF1010BBBF1200FEC
:102280009FD10BB0BDE8F08F2DE9F04F8DB0044623
:102290000F4600F087FA82468946002F56D1E36B3D
:1022A000D3F89020920141BF04F58051D1F8A824C1
:1022B0000132C1F8A824D3F89020160703D10020DA
:1022C0000DB0BDE8F08FD3F89050E66AC5F3012554
:1022D000482303FB0566E8464046FFF77FFC32686B
:1022E00051004ABF22F06043C2F38A4343F00043E7
:1022F000920048BF43F080430093736813F40013C7
:102300001FBF04F5805201238DF80D30D2F8C83478
:102310000EBF8DF80D300133C2F8C834F38803F0D6
:102320000F038DF80C304FF0000B9DF80C0000F0FF
:10233000D3FA5FFA8BF3984220D9F2180CA90B4418
:10234000127A03F82C2C0BF1010BEEE7012FB6D11A
:10235000E36BD3F89820950141BF04F58051D1F883
:10236000A8240132C1F8A824D3F898201007A6D0D9
:10237000D3F89850266BC5F30125A9E7EFB9E36BB5
:10238000C3F8945004A8FFF72FFC98E80F0007AD9E
:1023900007C52B800023ADF8183023682046CDE90F
:1023A00004A91B6C04A9984704F5805458B1D4F8CB
:1023B000A0340133C4F8A03482E7012F04BFE36BDB
:1023C000C3F89C50DEE7D4F8A4340133C4F8A43435
:1023D000012075E72DE9F04105460F4600F58054D0
:1023E000012639462846FFF74FFF10B184F8636491
:1023F000F7E7D4F8B834D4F864040133C4F8B83437
:1024000020B10368BDE8F0411B691847BDE8F081C1
:10241000F0B5C36B1A6C12F47F0F2BD000F580540B
:102420001B6CC4F8BC3441F27805002347194FF007
:10243000010C00EB43122A445E01117911F0020FE6
:1024400015D0490713D4B959C66BD6F8C8E00CFAB1
:1024500001F111EA0E0F0AD0C6F8D010117941F03F
:1024600004011171D4F89C240132C4F89C24013376
:10247000202BDED1F0BD00002B4B70B51E561B5C2F
:10248000012B2FD8294D2A4A55F8233052F82640DF
:102490000BB341B3236D1A060FD58023236500F0DB
:1024A00081F950EA01020B4602D0013861F10003C4
:1024B000024655F82600FFF777FE236D1B032CD547
:1024C00055F826304FF4002203F58053226501228F
:1024D00083F8692421E001232365082323654FF451
:1024E0008063236570BD236DDA0702D4236D9B07DB
:1024F00006D5032355F8260023650021FFF76AFF60
:10250000236D180702D4236DD90606D5182355F874
:10251000260023650121FFF75DFF55F82600BDE881
:102520007040FFF775BF00BF6449000808630020D2
:102530006849000808B5302383F31188FFF768FF66
:10254000002383F3118808BDC36BD3F8C40080F463
:102550000010C0F34050704708B5302383F3118852
:1025600000F58050406DFFF7C5F8002383F3118814
:1025700043090CBF0120002008BD000000F5805376
:1025800093F8692462B1C16B8A6922F001028A6101
:10259000D3F8AC240132C3F8AC24002283F86924B8
:1025A000704700002DE9F743302181F311880025A1
:1025B00000F5835141F2780E4FF0010800F5805C80
:1025C00000EB45147444267977071CD4F6061AD517
:1025D000D0F83C908E69D9F8C87008FA06F63E42E9
:1025E00011D04F6801970F689742019F9F410AD20F
:1025F000C9F8D060267946F004062671DCF89844C4
:102600000134CCF898440135202D01F12001D7D1B7
:10261000002383F3118803B0BDE8F083F8B51E46AC
:10262000002313700F4605461446FFF795FF80F010
:10263000010038701EB12846FFF786FF2070F8BDF4
:102640002DE9F04F85B09946DDE90EA30D460293C2
:102650001378019391F800B08046164600F0A2F876
:102660002B7804460F4613B93378002B41D022460D
:102670003B464046FFF796FFFFF75CFFFFF77EFF04
:102680004B4632462946FFF7C9FF2B7833B1BBF1E1
:10269000000F03D0012005B0BDE8F08F337813B1EF
:1026A000019B002BF6D108F580530393029B544500
:1026B00077EB03031DD2039BD3F86404C8B103680E
:1026C000AAEB04011B6898474B4632462946404610
:1026D000FFF7A4FF2B7813B1BBF1000FDAD13378E9
:1026E00013B1019B002BD5D100F05CF804460F46D6
:1026F000DCE70020CFE7000008B500210846FFF71F
:10270000BBFEBDE8084001F0BBB8000008B50121E0
:102710000020FFF7B1FEBDE8084001F0B1B80000AD
:1027200008B500210120FFF7A7FEBDE8084001F031
:10273000A7B8000008B501210846FFF79DFEBDE8D7
:10274000084001F09DB8000000B59BB0EFF309818F
:1027500068226846FEF7A4FCEFF30583014B9B6BF0
:10276000FEE700BF00ED00E008B5FFF7EDFF000059
:1027700000B59BB0EFF3098168226846FEF790FC34
:10278000EFF30583014B5B6BFEE700BF00ED00E05C
:10279000FEE700000FB408B5029801F079FBFEE7F0
:1027A00001F062BE01F044BE0139C9B202299EBFE8
:1027B00000EBC1000023C0E901337047F8B51B8866
:1027C0005B0705460E4615D4044600F11807BC42C7
:1027D00010D0636853B12B682846DB6B9847A36819
:1027E000C1B23246606898470834F0E7A368002B0E
:1027F000F1D1F9E70120F8BD73B56C4684E8060015
:10280000014600224E68D5B26EB98E685EB900EB03
:10281000C200021D94E80300013582E803001D7028
:10282000012002B070BD0132032A01F10801E9D193
:102830000020F6E72DE9F04F89B00446BDF8487056
:102840000E46054600F118084FF0000907F004078E
:102850004FF0000A4FF0000BA84538D06B680BB959
:10286000AB684BB157B923682046DB6B9847AB6820
:10287000C1B23246686898470835EDE7B9F1000FF4
:10288000FAD1CDE900ABADF80890334603AA06F1C2
:10289000080E186859689446ACE80300083373457D
:1028A0006246F6D11868CCF800009B88ACF804307A
:1028B000FFF778FF0423ADF808302368CDE9000165
:1028C0001B6C6946204698474FF00109D4E7012068
:1028D00009B0BDE8F08F0000082817D909280CD0EE
:1028E0000A280CD00B280CD00C280CD00D280CD0AA
:1028F0000E2814BF4020302070470C207047102055
:10290000704714207047182070472020704700003F
:102910002DE9F041456A15B94162BDE8F0814B6887
:1029200023F06047C3F38A464FEAD37EC3F380782F
:1029300016EA230638BF3E46AC462B465A68BEEB25
:10294000D27F22F060440AD0002A18DAA40CB442E4
:1029500017D19D420FD10D60DEE71346EEE7A74287
:1029600007D102F08044C2F3807242450BD054B1CB
:10297000EFE708D2EDE7CCF800100B60CDE7B442EA
:1029800001D0B442E5D81A689C46002AE5D1196006
:10299000C3E700002DE9F047089D01F007044FEA66
:1029A000D508224405F0070500EBD1004FF47F491C
:1029B000944201D1BDE8F08704F0070705F0070A4B
:1029C00057453E4638BF5646C6F10806111B8E4293
:1029D00028BF0E46E10808EBD50E415C13F80EC087
:1029E000B94029FA06F721FA0AF1FFB28CEA01018F
:1029F00047FA0AF739408CEA010C03F80EC0344458
:102A00003544D5E780EA0120082341F2210201B2D2
:102A10004000002980B203F1FF33B8BF504013F0EB
:102A2000FF03F4D17047000038B50C468D18A5425D
:102A300000D138BD14F8011BFFF7E4FFF7E70000F1
:102A400042684AB1136843604389818901339BB26C
:102A50009942438138BF83811046704770B588B072
:102A6000202204460D4668460021FEF72BFB204637
:102A70000495FFF7E5FF024658B16B46054608AEE0
:102A80001C4603CCB44228606960234605F1080562
:102A9000F6D1104608B070BD082817D909280CD007
:102AA0000A280CD00B280CD00C280CD00D280CD0E8
:102AB0000E2814BF4020302070470C207047102093
:102AC000704714207047182070472020704700007E
:102AD000082817D90C280CD910280CD914280CD97F
:102AE00018280CD920280CD930288CBF0F200E2094
:102AF0007047092070470A2070470B2070470C2050
:102B000070470D20704700002DE9F843078C072F10
:102B100004461ED9D0E9029800254FF6FF73C5F18F
:102B20002006A5F1200029FA05F108FA06F628FA90
:102B300000F031430143C9B21846FFF763FF08357F
:102B4000402D0346EBD1E1693A46BDE8F843FFF773
:102B50006BBF4FF6FF70BDE8F883000010B54B68FF
:102B600023B9CA8A63F30902CA8210BD04691A68CC
:102B70001C600361C38A013BC3824A60EFE7000027
:102B80002DE9F84F1D46CB8A0F46C3F309010529ED
:102B9000814692460B4630D00020AAB207F11A04B3
:102BA0009EB2042E1FFA80F80FD8904503F101035E
:102BB00006D3FB8A0A4462F30903FB8201201AE070
:102BC0001AF80060E6540130EAE79045F1D2A1F12D
:102BD000050B1C237C68BBFBF3F203FB12BB1FFA43
:102BE0008BF6002C45D14846FFF72AFF044638B93A
:102BF00078606FF00200BDE8F88F4FF00008E6E75C
:102C0000002606607860ADB24FF0000B454510D944
:102C10000AEB0803221D13F8011B9155B1B208F10C
:102C200001081B291FFA88F82BD0454506F101063B
:102C3000F1D8FB8AC3F30902154465F30903BCE725
:102C4000013292B21C462368002BF9D16B1F0B4452
:102C50001C21B3FBF1F301339BB29A42D3D2BBF1F7
:102C6000000FD0D14846FFF7EBFE20B9C4F800B002
:102C7000BFE70122E7E7C0F800B05E4620600446E7
:102C8000C1E74545D5D94846FFF7DAFE08B92060C7
:102C9000AFE7C0F800B0002620600446B6E70000A9
:102CA0002DE9F04F2DED028B1C4683B05B6901923C
:102CB00007468846002B00F0A780238C2BB1E269E1
:102CC000002A00F0A180072B35D807F10C00FFF790
:102CD000B7FE054638B96FF00205284603B0BDECD3
:102CE000028BBDE8F08F14220021FEF7EBF9228C55
:102CF000E16905F10800FEF7D3F9208C013080B2BC
:102D0000FFF7E6FEFFF7C8FE013880B220840130ED
:102D100028746369228C1B782A4403F01F0363F034
:102D20003F0348F000411372384669602946FFF7B7
:102D3000EFFD0125D1E702339BB20722C18A06339A
:102D4000B3FBF2F3828A521A9BB292B29342C2D878
:102D500000F10C034FF0000908EE103A4FF0800A22
:102D60004E464D4618EE100AFFF76AFE83460028CD
:102D7000B1D014220021FEF7A5F9002E3AD1019B13
:102D8000ABF8083002220BF1080E1FFA82FC0CF19E
:102D90000100BCF1060F218C80B201D88E422BD3EA
:102DA000FFF796FEFFF778FE62691278013802F0AD
:102DB0001F028E4208BF4FF0400A42EA49121BFA36
:102DC00080F14AEA020A013048F0004281F808A086
:102DD0008BF81000CBF8042059463846FFF798FDD1
:102DE000238C0135B3422DB289F001094FF0000A5E
:102DF000B8D172E70022C6E7E169895D0EF80210DA
:102E00000136B6B20132C0E76FF0010565E7000098
:102E1000F8B515460E463022002104461F46FEF73F
:102E200051F9069B6360B5F5001F079BA76034BF8F
:102E30006A094FF6FF72A36297B2E66104F11000CF
:102E400000239A4206D800230360A782E3822383EB
:102E5000E360F8BD0660013330462036F1E700003C
:102E600003781BB94BB2002BC8BF0170704700003C
:102E700000787047F8B50C46C969074611B9238C2C
:102E8000002B37D1257E1F2D34D8387828BB228CD3
:102E9000072A2CD8268A36F003032BD14FF6FF7071
:102EA000FFF7C2FD20F001003102400441EA056154
:102EB000400C41EA40254FF6FF722346294638462A
:102EC000FFF7EEFE002807DD626913780133DBB2FD
:102ED0001F2B88BF00231370F8BD218A2D0645EAF9
:102EE000012505432046FFF70FFE0246E5E76FF098
:102EF0000300F1E76FF00100EEE7000070B58AB063
:102F0000044616460021282268461D46FEF7DAF8D8
:102F1000BDF83830ADF810300F9B05939DF8403068
:102F20008DF81830119B07936946BDF84830ADF80D
:102F300020302046CDE90265FFF79CFF0AB070BD46
:102F40002DE9F041D36905460C4616460BB9138CA2
:102F50005BBB377E1F2F28D895F80080B8F1000F93
:102F600026D03046FFF7D0FD3378210241EAC33145
:102F700041EA0801338A41EA076141EA0341024616
:102F8000334641F080012846FFF78AFE00280ADD1B
:102F90003378012B07D1726913780133DBB21F2B11
:102FA00088BF00231370BDE8F0816FF00100FAE7DD
:102FB0006FF00300F7E70000F0B58BB004460D4654
:102FC00017460021282268461E46FEF77BF89DF82A
:102FD0004C305A1E534253418DF800309DF840301A
:102FE000ADF81030119B05939DF848308DF81830DE
:102FF000149B07936A46BDF85430ADF8203029463B
:103000002046CDE90276FFF79BFF0BB0F0BD000034
:10301000406A00B104307047436A1A68426202692C
:103020001A600361C38A013BC38270472DE9F041F6
:10303000D0F82080194E14461D464146002709B994
:10304000BDE8F081D1E90223A21A65EB03039642A1
:1030500077EB03031ED2036A8B420DD1FFF77EFD8F
:10306000036A1B68036203690B60C38A0161016A1A
:10307000013BC3828846E2E7FFF770FD0B68C8F8A2
:10308000003003690B60C38A0161013BC382D8F839
:103090000010D4E788460968D1E700BF80841E008D
:1030A0002DE9F04F8BB00D46DDF8509014469B464D
:1030B0008046002800F01981B9F1000F00F0158159
:1030C000531E3F2B00F21181012A03D1BBF1000FE7
:1030D00040F00B810023CDE90833B8F81430B5EB8C
:1030E000C30F4FEAC30703D300200BB0BDE8F08F36
:1030F0002B199F42D8F80C303ABF7F1BFFB22746EE
:103100001BB9D8F81030002B7AD0272D4ED8C5F136
:103110002806B7424FF000032CBFF6B23E4600939C
:103120002946D8F8080008AB3246FFF733FCA7EB76
:10313000060A35445FFA8AFAB8F8143003F10053EE
:10314000053BDB000493D8F80C3003932821039B44
:1031500013B1BAF1000F2CD1D8F8100040B1BAF178
:10316000000F05D0009608AB5246691AFFF712FC13
:1031700038B2002FB8D066070AD00AAB03EBD401EF
:10318000624211F8083C02F00702134101F8083CC2
:10319000082C3CD9102C40F2B580202C40F2B7808E
:1031A000BBF1000F00F09C80082334E0BA460026F3
:1031B000C2E7049BE02B28BFE02306930B44AB42FD
:1031C000059314D95A1B03980096924534BF524672
:1031D000D2B2691A08AB04300792FFF7DBFB079AFB
:1031E0001644AAEB020A1544F6B25FFA8AFA049B67
:1031F000069A05999B1A0493039B1B680393A6E701
:103200000093D8F8080008AB3A462946AEE7BBF170
:10321000000F13D00123B4EBC30F6CD0082C12D8CD
:103220009DF82030621E23FA02F2D50706D54FF032
:10323000FF3202FA04F423438DF820309DF8203049
:1032400089F8003051E7102C12D8BDF82030621EEA
:1032500023FA02F2D10706D54FF0FF3202FA04F446
:103260002343ADF82030BDF82030A9F800303CE70A
:10327000202C0FD80899631E21FA03F3DA0705D52D
:103280004FF0FF3202FA04F40C430894089BC9F88B
:1032900000302AE7402C2BD0DDE90865611EC4F11F
:1032A0002102A4F1210326FA01F105FA02F225FA1E
:1032B00003F311431943CB0712D50122A4F12003D4
:1032C000C4F1200102FA03F322FA01F1A2405242B2
:1032D00043EA010363EB430332432B43CDE9082365
:1032E000DDE90823C9E90023FFE66FF00100FCE6F1
:1032F0006FF00800F9E6082CA0D9102CB3D9202CC7
:10330000EED8C3E7BBF1000FADD0022383E7BBF1DA
:10331000000FBBD004237EE730B5012A144638BF26
:103320000124402C85B028BF40240025012ACDE986
:10333000025518D81B788DF8083063070AD004AB03
:1033400003EBD405624215F8083C02F007029340F3
:1033500005F8083C009103462246002102A8FFF729
:1033600019FB05B030BD082AE4D9102A03D81B8800
:10337000ADF80830E1E7202A8DBFD3E900231B68B0
:103380000293CDE90223D8E710B5CB681BB98B6057
:103390000B618B8210BD04691A681C600361C38ACB
:1033A000013BC382CA60F0E703064CBFC0F3C030E4
:1033B0000220704708B50246FFF7F6FF022806D143
:1033C0005306C2F30F2001D100F0030008BDC2F381
:1033D0000740FBE72DE9F04F93B0CDE903230A68DE
:1033E00004461046FFF7E0FF022814BFC2F306268A
:1033F0000026002A0D46824680F2F78112F0C0496D
:1034000040F0F381097B002900F0EF81022803D00E
:103410002378B34240F0EC81C2F304630693104674
:1034200002F07F030593FFF7C5FF059B29444FEA90
:10343000834848EA0A4848EA4668CE7800230022D2
:10344000CDE90823F309834648EA0008029367D0D0
:10345000059B009302466768534608A92046B84773
:10346000002800F0C881276A4FB9414604F10C00DA
:10347000FFF7F4FA074690B96FF0020054E03B6999
:1034800098450DD03F68002FF9D1414604F10C005A
:10349000FFF7E4FA07460028EED0236A3B60276274
:1034A00097F817C006F01F08CCF3840CACEB0800AB
:1034B0001FFA80FE0028B8BF0EF12000A8EB0C0315
:1034C0001FFA83FED7E90221B8BF00B2002B079391
:1034D000BEBF0EF120031BB2079352EA010338D09E
:1034E000039BDFF824E39A1A049B4FF0000C63EB74
:1034F000010196457CEB01032BD36B7B97F81AE017
:10350000734519D1029B002B78D0012821DC786803
:10351000F8B9DFF8F0C2944570EB010316D337E039
:10352000276A27B96FF00C0013B0BDE8F08F3B6934
:103530009845B5D03F68F4E7B24890427CEB010370
:1035400001D30020F0E7029B002BFAD0079B0F2B42
:1035500017DCFA7DB30002F0030203F07C0313438F
:10356000FB7539462046FFF7F9FA6B7BBB76029B69
:103570003BB9FB7DC3F38402013262F38603FB7522
:10358000D0E76A7BBB7E9A42DBD1029B002B35D011
:10359000B309022B32D0039BBB60049BFB60142257
:1035A00000210DA8FDF78EFD039B0A93049B0B934E
:1035B0002B1D0C932B7BADF83EB0013BDBB2ADF87D
:1035C0003C30069B8DF84230059B8DF8433094F8D3
:1035D0002C308DF840A083F001038DF844308DF835
:1035E0004180A3680AA920469847FB7DC3F3840362
:1035F000013303F01F039B02FB82A2E7FB7DC6F3AE
:103600004012B2EBD31F40F0F980C3F3840343456B
:1036100040F0FC80029A2B7BB609002A52D016F0AB
:10362000010661D1032B40F2F480039BBB60049B35
:10363000FB60FB8A66F30903FB822B7BAE1D033B19
:10364000DBB23246394604F10C00FFF799FA002844
:103650000CDA39462046FFF781FAFB7DC3F3840379
:10366000013303F01F039B02FB8205E7DDE90884B9
:10367000AB883B834FF6FF73C9F12000A9F120020C
:1036800028FA09F104FA00F0014324FA02F2114386
:103690001846C9B2FFF7B6F909F10809B9F1400FA8
:1036A0000346E9D1B8822A7B033AD2B23146FFF70A
:1036B000BBF9FB7DB882DA43C2F3C01262F3C713D1
:1036C000FB753EE786B92E1D013BDBB2324639461B
:1036D00004F10C00FFF754FA0028BADB2A7BB88A01
:1036E000013AD2B23146E2E7F98AC1F30901013B5E
:1036F0000429DAB25BD8281D002307F11B069A4281
:1037000008D910F801CB06F801C0013101330529B1
:10371000DBB2F4D103990A9104990B91934207F11A
:103720001B010C9138BF043379680D9134BF55FAF1
:1037300083F300230E93FB8AADF83EB0C3F3090375
:103740001A44069B8DF84230059B8DF8433094F85F
:103750002C30ADF83C2083F001038DF84430002379
:103760008DF840A08DF841807B602A7BB88A013AB1
:10377000291DFFF759F93B8BB882834203D1A36817
:103780000AA92046984720460AA9FFF7FDFDFB7DC0
:10379000BA8AC3F38403013303F01F039B02FB8245
:1037A0003B8B9A420CBF00206FF01000BCE67B6898
:1037B000002BAFD0052001E01C3033461E68002EE0
:1037C000FAD1091A081D2E1D184401EB090CBCF191
:1037D0001B0F5FFA89F39DD89A429BD916F8013BDB
:1037E00000F8013B09F10109EFE76FF009009BE6E2
:1037F0006FF00A0098E66FF00B0095E66FF00D0091
:1038000092E600BF40420F0080841E006FF00E0061
:103810008AE66FF00F0087E6EFF3098305494A6BEC
:1038200022F001024A63683383F30988002383F39B
:103830001188704700EF00E0302080F3118862B6F5
:103840000C4B0D4AD96821F4E0610904090C0A43C4
:10385000DA60D3F8FC20094942F08072C3F8FC20FA
:103860000A6842F001020A602022DA7783F8220017
:10387000704700BF00ED00E00003FA05001000E013
:1038800010B5302383F311880E4B5B6813F400638B
:1038900014D0F1EE103AEFF30984683C4FF08073D6
:1038A000E361094BDB6B236684F3098800F0BAFA05
:1038B00010B1064BA36110BD054BFBE783F31188E4
:1038C000F9E700BF00ED00E000EF00E03F03000873
:1038D00042030008434B4FF4007270B51A605A69F6
:1038E00012F4C06FFBD1404B9A6802F00C02042A1C
:1038F00020D01A6842F480721A601A685205FCD50A
:1039000001229A609A6802F00C02042AFAD137491F
:10391000374A0A600A6812F00F02FBD1C3F89820F8
:1039200063221A601A689603FCD42E4A4FF4807101
:10393000C2F88010C468E50306D51A6842F48032E4
:103940001A601A689103FCD5C269D20709D5D3F869
:10395000982042F00102C3F89820D3F898209607E7
:10396000FBD54269DA6044F480721A6004F0807119
:1039700011B11A689501FBD5996802691B4E22F0B6
:10398000030501F0030129439960856935603168B9
:1039900069400907FBD1134905680D6046684E6010
:1039A0008068C1F880006E0417D448698505FCD48E
:1039B000996802F0030021F003010143996092002D
:1039C0009968514011F00C0FFAD1E2055EBF1A68F8
:1039D00022F480721A60002070BD48698005FCD511
:1039E000E6E700BF007000400010024000200240E7
:1039F0000006040008B500F083F9BDE8084000F0B7
:103A00005BB9000010B5394C3948A36A4FF0FF325A
:103A1000A262A36A0023A362A16AE16A61F07F0146
:103A2000E162E16A01F07F01E162E16A216B2263F8
:103A3000216B2363216BA16BA263A16BA363A16BB9
:103A4000E16BE263E16BE363E16B216C2264226C66
:103A50002364226C226E42F001022266D4F8802098
:103A600022F00102C4F88020D4F88020A26D42F038
:103A70008052A265A26F22F08052A267A26F1D4AF7
:103A80004FF400419160D360136253629362D3623A
:103A9000136353639363D363136453649364D36472
:103AA00013655365116841F480711160D4F890205A
:103AB00012F4407F1EBF4FF48032C4F89020C4F847
:103AC00090300D4A0023A360C4F88820C4F89C30CD
:103AD000FFF700FF10B1094800F0DAF9D4F8903090
:103AE00023F00323C4F8903010BD00BF0010024043
:103AF000E44900080070004055010051DC4900080D
:103B0000014B53F82000704718230020074A08B5DE
:103B1000536903F00103536123B1054A13680BB1E4
:103B200050689847BDE80840FFF7AABE000401406E
:103B3000A4650020074A08B5536903F002035361E6
:103B400023B1054A93680BB1D0689847BDE8084097
:103B5000FFF796BE00040140A4650020074A08B59F
:103B6000536903F00403536123B1054A13690BB190
:103B700050699847BDE80840FFF782BE0004014045
:103B8000A4650020074A08B5536903F00803536190
:103B900023B1054A93690BB1D0699847BDE8084045
:103BA000FFF76EBE00040140A4650020074A08B577
:103BB000536903F01003536123B1054A136A0BB133
:103BC000506A9847BDE80840FFF75ABE000401401C
:103BD000A4650020164B10B55C6904F478725A6134
:103BE000A30604D5134A936A0BB1D06A98476006BE
:103BF00004D5104A136B0BB1506B9847210604D5BE
:103C00000C4A936B0BB1D06B9847E20504D5094A77
:103C1000136C0BB1506C9847A30504D5054A936CFF
:103C20000BB1D06C9847BDE81040FFF729BE00BF2C
:103C300000040140A4650020194B10B55C6904F430
:103C40007C425A61620504D5164A136D0BB1506D62
:103C50009847230504D5134A936D0BB1D06D98474F
:103C6000E00404D50F4A136E0BB1506E9847A104BF
:103C700004D50C4A936E0BB1D06E9847620404D5FC
:103C8000084A136F0BB1506F9847230404D5054AB7
:103C9000936F0BB1D06F9847BDE81040FFF7F0BDB0
:103CA00000040140A465002008B500F0FBFCBDE85D
:103CB0000840FFF7E5BD0000062108B5084600F002
:103CC00033F80621072000F02FF80621082000F025
:103CD0002BF80621092000F027F806210A2000F021
:103CE00023F80621172000F01FF80621282000F0F5
:103CF0001BF8BDE8084007211C2000F015B80000A3
:103D00004FF0E023002258684FF0FF31930003F199
:103D1000604303F5614301329042C3F88010C3F859
:103D20008011F3D27047000000F1604303F5614356
:103D30000901C9B283F80013012200F01F039A4061
:103D400043099B0003F1604303F56143C3F88021FD
:103D50001A60704700230375826803691B689968BD
:103D60009142FBD25A68036042601060586070470D
:103D700000230375826803691B6899689142FBD828
:103D80005A680360426010605860704708B5084682
:103D9000302383F311880B7D032B05D0042B0DD02A
:103DA0002BB983F3118808BD8B6900221A604FF08C
:103DB000FF338361FFF7CEFF0023F2E7D1E9003242
:103DC00013605A60F3E70000FFF7C4BF054BD968E2
:103DD0000875186802681A60536001220275D8607D
:103DE000FCF798BA1863002030B50C4BDD684B1C0B
:103DF00087B004460FD02B46094A684600F02AF9DE
:103E00002046FFF7E3FF009B13B1684600F02CF952
:103E1000A86907B030BDFFF7D9FFF9E718630020A4
:103E20008D3D0008044B1A68DB6890689B689842D7
:103E300094BF00200120704718630020084B10B584
:103E40001C68D86822681A60536001222275DC6001
:103E5000FFF78EFF01462046BDE81040FCF75ABA36
:103E60001863002038B5074C07490848012300258E
:103E70002370656000F044FC0223237085F31188F1
:103E800038BD00BF80650020084A00081863002084
:103E900008B572B6044B186500F0B4FA00F064FB84
:103EA000024B03221A70FEE7186300208065002091
:103EB00000F010B98B60022308618B8208467047BE
:103EC0008368A3F1840243F8142C026943F8442C5C
:103ED000426943F8402C094A43F8242CC26843F84D
:103EE000182C022203F80C2C002203F80B2C044A95
:103EF00043F8102CA3F12000704700BF2D030008E9
:103F00001863002008B5FFF7DBFFBDE80840FFF7A6
:103F10005BBF0000024BDB6898610F20FFF756BFC4
:103F200018630020302383F31188FFF7F3BF0000EC
:103F300008B50146302383F311880820FFF754FFAA
:103F4000002383F3118808BD10B503689C68A24262
:103F50000CD85C688A600B604C602160596099687D
:103F60008A1A9A604FF0FF33836010BD1B68121BE2
:103F7000ECE700000A2938BF0A2170B504460D4657
:103F80000A26601900F0B6FB00F0A2FB041BA54254
:103F900003D8751C2E460446F3E70A2E04D9BDE863
:103FA0007040012000F0ECBB70BD0000F8B5144B70
:103FB0000D46D96103F1100141600A2A1969826036
:103FC00038BF0A22016048601861A818144600F042
:103FD00083FB0A2700F07CFB431BA342064606D363
:103FE0007C1C281900F086FB27463546F2E70A2F8D
:103FF00004D9BDE8F840012000F0C2BBF8BD00BF05
:1040000018630020F8B506460D4600F061FB0F4A24
:10401000134653F8107F9F4206D12A460146304688
:10402000BDE8F840FFF7C2BFD169BB68441A2C193C
:1040300028BF2C46A34202D92946FFF79BFF224600
:1040400031460348BDE8F840FFF77EBF1863002003
:104050002863002010B4C0E9032300235DF8044B5B
:104060004361FFF7CFBF000010B5194C2369984298
:104070000DD0D0E90032816813605A609A680A4412
:104080009A60002303604FF0FF33A36110BD234605
:10409000026843F8102F53600022026022699A429E
:1040A00003D1BDE8104000F01FBB936881680B444A
:1040B000936000F00DFB2269E1699268441AA24204
:1040C000E4D91144BDE81040091AFFF753BF00BFFF
:1040D000186300202DE9F047DFF8BC8008F11007D5
:1040E0002C4ED8F8105000F0F3FAD8F81C40AA680B
:1040F000031B9A423ED81444D5E900324FF0000920
:10410000C8F81C4013605A60C5F80090D8F8103009
:10411000B34201D100F0E8FA89F31188D5E90331FF
:1041200028469847302383F311886B69002BD8D039
:1041300000F0CEFA6A69A0EB04094A4582460DD226
:10414000022000F01DFB0022D8F81030B34208D145
:1041500051462846BDE8F047FFF728BF121A22440F
:10416000F2E712EB090938BF4A4629463846FFF7FD
:10417000EBFEB5E7D8F81030B34208D01444211A4A
:10418000C8F81C00A960BDE8F047FFF7F3BEBDE822
:10419000F08700BF286300201863002038B500F0C6
:1041A00097FA054AD2E90845031B181945F10001A1
:1041B000C2E9080138BD00BF186300200020704725
:1041C000FEE70000704700004FF0FF30704700002E
:1041D000BFF34F8F024A1369DB03FCD4704700BF63
:1041E0000020024008B5094B1B7873B9FFF7F0FFB8
:1041F000074B5A69002ABFBF064A9A6002F188320B
:104200009A601A6822F480621A6008BD98650020DE
:10421000002002402301674508B50B4B1B7893B97A
:10422000FFF7D6FF094B5A6942F000425A611A68FB
:1042300042F480521A601A6822F480521A601A6896
:1042400042F480621A6008BD986500200020024098
:10425000FF289ABF00F58030C002002070470000A0
:104260004FF40060704700004FF48070704700000A
:10427000FF2808B50BD8FFF7EBFF00F500630268D5
:10428000013204D104308342F9D1012008BD00205D
:10429000FCE70000FF2838B5044624D8FFF798FF54
:1042A000FFF7A0FF114AF323136102235361C300F8
:1042B0005169C50903F47E7343EAC5230B43536177
:1042C000536943F480335361FFF782FF4FF4006179
:1042D000FFF7BEFF00F044F9FFF79EFF2046BDE860
:1042E0003840FFF7C5BF002038BD00BF00200240A6
:1042F0002DE9F84340EA020313F00703144606D001
:10430000304B40F282321A600020BDE8F8838518F5
:104310002D4A95420CD92B4A40F287311160F3E7C0
:10432000031D1B684A68934208D1083C08300831D5
:10433000072C14D902680B689A42F1D0FFF752FF9C
:10434000FFF746FF214E08314FF001084FF00009FA
:10435000012CA1F1080706D8FFF75EFF01E0002C51
:10436000ECD10120D1E7C6F81480054651F8083C8D
:1043700045F8043B51F8043C4360FFF729FF3369DB
:1043800043F001033361C6F81490026851F8083C09
:104390009A420CD00B4B40F2AF321A600C4B1860B3
:1043A0000C4B1C600C4B1F60FFF736FFACE72D6811
:1043B00051F8043C9D4201F10801EBD1083C083062
:1043C000C6E700BF946500200000080800200240F6
:1043D00088650020906500208C650020084908B59C
:1043E0000B7828B11BB9FFF7FDFE01230B7008BD48
:1043F000002BFCD0BDE808400870FFF70DBF00BFE0
:104400009865002008B50649064800F0ABF8BDE8FD
:1044100008404FF400414FF0805000F0A3B800BFB7
:10442000007F010000010020084600F033BA0000C0
:1044300038B5EFF311859DB9EFF30584C4F3080493
:10444000302334B183F31188FFF7A8FE85F3118878
:1044500038BD83F31188FFF7A1FE84F3118838BDBE
:10446000BDE83840FFF79ABE38B5FFF7E1FF114CC1
:10447000114AC00840EA4170A0FB025EC908A0FBD7
:10448000040C1CEB050CA1FB04404FF000035B4146
:10449000A1FB02121CEB040C43EB000011EB0E011C
:1044A00042F10002411842F10000090941EA00709E
:1044B00038BD00BFCFF753E3A59BC4200244D2B25E
:1044C000904200D17047431C800000F1804000F50D
:1044D0001450006841F8040BD8B2F1E7124B10B544
:1044E000D3F89040240409D4D3F89040C3F8904006
:1044F000D3F8904044F40044C3F890400B4C236838
:10450000024443F480732360D2B2904200D110BDC4
:10451000431C800000F1804000F5145051F8044B1A
:104520000460D8B2F1E700BF001002400070004004
:1045300007B5012201A90020FFF7C0FF019803B0D1
:104540005DF804FB13B50446FFF7F2FFA04205D067
:10455000012201A900200194FFF7C0FF02B010BDA5
:10456000704700007047000070470000074B45F29D
:1045700055521A6003225A6040F2FF729A604CF65C
:10458000CC421A60024B01221A7070470030004082
:10459000A0650020034B1B781BB1034B4AF6AA22EF
:1045A0001A607047A065002000300040054B1A6873
:1045B00032B902F1804202F50432D2F894201A6036
:1045C000704700BF9C650020024B4FF40002C3F807
:1045D000942070470010024008B5FFF7E7FF024B38
:1045E0001868C0F3407008BD9C650020704700004B
:1045F000FEE700000A4B0B480B4A90420BD30B4BD3
:10460000DA1C121AC11E22F003028B4238BF0022AC
:104610000021FCF757BD53F8041B40F8041BECE7DE
:104620008C4B0008246600202466002024660020AD
:104630000023054A19460133102BC2E9001102F18B
:104640000802F8D1704700BFA465002008B5124BDE
:104650009A6D42F001029A659A6F42F001029A67E0
:104660000E4A9B6F936843F0010393600620FFF7A7
:1046700047FA0B4BB0FBF3F04FF080434FF0FF32A3
:1046800001389862DA6200229A615A63DA605A60ED
:1046900001225A611A6008BD00100240002004E0A7
:1046A00040420F004FF0804208B51169D3680B40BB
:1046B000D9B2C9439B07116107D5302383F3118811
:1046C000FFF7F6FB002383F3118808BDFFF7BEBF99
:1046D0004FF08043586A70474FF080430022586380
:1046E0001A610222DA6070474FF080430022DA60DC
:1046F000704700004FF0804358637047FEE70000AA
:1047000070B51B4B01630025044686B05860856276
:104710000E46FFF791F804F11003C4E904334FF09B
:10472000FF33C4E90635C4E90044A560E562FFF73C
:10473000CFFF2B460246C4E9082304F134010D4A99
:10474000256580232046FFF7B5FB0123E0600A4A78
:104750000375009272680192B268CDE90223074B9B
:104760006846CDE90435FFF7CDFB06B070BD00BF4C
:1047700080650020144A0008194A0008FD46000818
:10478000024AD36A1843D062704700BF1863002002
:104790004B6843608B688360CB68C3600B6943617F
:1047A0004B6903628B6943620B68036070470000CA
:1047B00008B5204BDA6A42F07F02DA62DA6A22F048
:1047C0007F02DA62DA6ADA6C42F07F02DA64DA6E69
:1047D00042F07F02DA66184ADB6E11464FF09040D5
:1047E000FFF7D6FF02F11C0100F58060FFF7D0FF54
:1047F00002F1380100F58060FFF7CAFF02F15401B1
:1048000000F58060FFF7C4FF02F1700100F58060E1
:10481000FFF7BEFF02F18C0100F58060FFF7B8FFE3
:1048200002F1A80100F58060FFF7B2FFBDE8084083
:10483000FFF7E8B800100240204A000808B500F071
:1048400009F8FFF70FFBBDE80840FFF7AFBE000017
:104850007047000008B5FFF7CDF8FFF7E9FEFFF756
:10486000F7FFBDE80840FFF731BF00000B460146E7
:10487000184600F001B8000010B5054C13462CB1E5
:104880000A4601460220AFF3008010BD2046FCE737
:1048900000000000024B01461868FFF7C5BD00BFCD
:1048A0004023002010B501390244904201D100207C
:1048B00005E0037811F8014FA34201D0181B10BD89
:1048C0000130F2E72DE9F041A3B1C91A177801448C
:1048D000044603F1FF3C8C42204601D9002009E048
:1048E0000578BD4204F10104F5D10CEB0405D6189E
:1048F000A54201D1BDE8F08115F8018D16F801ED52
:10490000F045F5D0E7E70000034611F8012B03F866
:10491000012B002AF9D170476F72672E617264759E
:1049200070696C6F742E4D6174656B473437342D2C
:104930004453686F7400000040A2E4F1646891067B
:104940000041A3E5F265699207000000426164201E
:1049500043414E496661636520696E6465782E0047
:10496000000100000001FF000064004000680040FA
:104970000000000000000000D91E00083D190008DA
:1049800041260008AD190008B9190008051C0008E7
:104990005D1B0008751900087919000851190008F5
:1049A00039190008C11B00085D190008F927000823
:1049B000A927000869190008951B000801040E05C5
:1049C000054B02020E05054B04010E05054B0501C2
:1049D0000B04044B0801060303460000636C6B7371
:1049E00077630000000300000000000000010000E9
:1049F0000000010103000000032831010407040046
:104A00000100000063300000044A000870630020C9
:104A1000806500206D61696E0069646C650000004E
:104A20000000802A00000000AAAAAAAA0000002410
:104A3000FFFF0000000000000090090000280001B6
:104A400000000000AAAAAAAA00000001FFFF0000BF
:104A500000009009000000000000001400000000A9
:104A6000AAAAAAAA00000010FFDF000000000000B0
:104A7000000000000000000000000000AAAAAAAA8E
:104A800000000000FFFF0000000000000000000028
:104A90000000000000000000AAAAAAAA000000006E
:104AA000FFFF000000000000000000000000000008
:104AB00000000000AAAAAAAA00000000FFFF000050
:104AC00000000000000000000000000000000000E6
:104AD000AAAAAAAA00000000FFFF00000000000030
:104AE0000000000000000000920400000000000030
:104AF0000070070000000000FE2A0100D204000040
:104B0000006889096D8BB90200B4C4040068890982
:104B100000688909006889090068890900688909AD
:104B20000068890900000000442300200000000004
:104B30000000000000000000000000000000000075
:104B40000000000000000000000000000000000065
:104B50000000000000000000000000000000000055
:104B60000000000000000000000000000000000045
:104B70000000000000000000000000000000000035
:0C4B800000000000000000000000000029
:00000001FF
