:020000040800F2
:1000000000060024E1020008E3020008E302000801
:10001000E3020008E3020008E3020008E30200082C
:10002000E3020008E3020008E3020008C52D00080F
:10003000E3020008E3020008E3020008E30200080C
:10004000E3020008E3020008E3020008E3020008FC
:10005000E3020008E3020008B5420008E14200089C
:100060000D4300083943000865430008DD1000080F
:1000700005110008311100085D1100088911000800
:10008000B1110008DD110008E3020008E3020008D6
:10009000E3020008E3020008E302000891430008BD
:1000A000E3020008E3020008E3020008E30200089C
:1000B000E3020008E3020008E3020008E30200088C
:1000C000E3020008E3020008E3020008E30200087C
:1000D000E302000869440008E3020008E3020008A4
:1000E000F5430008E3020008E3020008E302000809
:1000F000E3020008E3020008E30200080912000816
:10010000E3020008E30200087D440008E30200085F
:10011000E3020008E3020008E3020008E30200082B
:10012000351200085D12000889120008B512000897
:10013000E1120008E3020008E3020008E3020008FD
:10014000E3020008E3020008E3020008E3020008FB
:10015000091300083513000861130008E3020008C2
:10016000E3020008E3020008E3020008E3020008DB
:10017000E302000821360008E3020008E302000859
:10018000E3020008E3020008E3020008E3020008BB
:10019000E3020008E3020008E3020008E3020008AB
:1001A000E3020008E3020008E3020008E30200089B
:1001B000E3020008E3020008E3020008E30200088B
:1001C000E3020008E3020008E3020008E30200087B
:1001D000E3020008E3020008E3020008E30200086B
:1001E000E3020008E3020008E3020008E30200085B
:1001F000E3020008E3020008E3020008E30200084B
:10020000E3020008E3020008E3020008E30200083A
:10021000E3020008E3020008E3020008E30200082A
:10022000E3020008E3020008E3020008E30200081A
:10023000E3020008E3020008E3020008E30200080A
:10024000E3020008E3020008E3020008E3020008FA
:10025000E3020008E3020008E3020008E3020008EA
:10026000E3020008E3020008E3020008E3020008DA
:10027000E3020008E3020008E3020008E3020008CA
:10028000E3020008E3020008E3020008E3020008BA
:10029000E3020008E3020008E3020008E3020008AA
:1002A000E3020008E3020008E3020008E30200089A
:1002B000E3020008E3020008E3020008E30200088A
:1002C000E3020008E3020008E3020008E30200087A
:1002D000E3020008E3020008E3020008E30200086A
:1002E00002E000F000F8FEE772B6374880F30888B5
:1002F000364880F3098836483649086040F20000E5
:10030000CCF200004EF63471CEF200010860BFF36B
:100310004F8FBFF36F8F40F20000C0F2F0004EF637
:100320008851CEF200010860BFF34F8FBFF36F8F8B
:100330004FF00000E1EE100A4EF63C71CEF20001E3
:100340000860062080F31488BFF36F8F02F09CFDD5
:1003500003F05AFD4FF055301F491B4A91423CBFF4
:1003600041F8040BFAE71D49184A91423CBF41F895
:10037000040BFAE71A491B4A1B4B9A423EBF51F83D
:10038000040B42F8040BF8E700201849184A914280
:100390003CBF41F8040BFAE702F0B4FD03F0C2FDE4
:1003A000144C154DAC4203DA54F8041B8847F9E7A6
:1003B00000F042F8114C124DAC4203DA54F8041B21
:1003C0008847F9E702F09CBD0006002400220024C3
:1003D0000000000808ED00E00000002400060024F2
:1003E0009849000800220024642200246822002486
:1003F000A8470024E0020008E0020008E00200082C
:10040000E00200082DE9F04F2DED108AC1F80CD064
:10041000D0F80CD0BDEC108ABDE8F08F002383F338
:1004200011882846A047002002F0B2F8FEE702F04B
:1004300041F800DFFEE7000008B500F015FC00F011
:10044000E1FD00F07DFD41F2883000F005F900F09B
:1004500067F8F8E708B500F0D3FBA0F12003584295
:10046000584108BD07B541F21203022101A8ADF8B9
:10047000043000F0E3FB03B05DF804FB38B5302333
:1004800083F31188174803680BB102F04DF900237C
:10049000154A4FF47A71134802F03CF9002383F3B4
:1004A0001188124C236813B12368013B23606368F1
:1004B00013B16368013B63600D4D2B7833B96368FA
:1004C0007BB9022000F0A6FC322363602B78032B5B
:1004D00007D163682BB9022000F09CFC4FF47A73BB
:1004E000636038BD682200247D040008882300244E
:1004F00080220024084B187003280CD8DFE800F095
:1005000008050208022000F07BBC022000F06EBC4F
:10051000024B00225A607047802200248823002466
:10052000F8B5484B484A1C461968013100F08980EB
:1005300004339342F8D16268A242C0F08280434BF8
:100540009B6803F1006303F500439A4279D20020CF
:1005500000F0B0FB0220FFF7CDFF3D4B0021D3F8A8
:100560004821C3F84811D3F87021C3F87011D3F8AB
:100570007021D3F84C21C3F84C11D3F87421C3F87F
:100580007411D3F87421D3F85021C3F85011D3F863
:100590007821C3F87811D3F87821D3F8802042F07D
:1005A0000072C3F88020D3F8802022F00072C3F8D4
:1005B0008020D3F8803072B64FF0E023C3F8084DA6
:1005C000D4E90004BFF34F8FBFF36F8F214AC2F805
:1005D0008410BFF34F8F536923F480335361BFF30B
:1005E0004F8FD2F8803043F6E076C3F3C905C3F3EA
:1005F0004E335B0103EA060C29464CEA8177013948
:10060000C2F87472F9D2203B13F1200FF2D1BFF37C
:100610004F8FBFF36F8FBFF34F8FBFF36F8F536950
:1006200023F4003353610023C2F85032BFF34F8FDD
:10063000BFF36F8F302383F31188854680F30888DA
:100640002047F8BD00800008208000080022002418
:100650000044025800ED00E02DE9F04F93B0B44B98
:100660002022FF2100900AA89D6800F013FCB14AE7
:100670001378A3B90121B04811700360302383F3CC
:10068000118803680BB102F04FF80023AB4A4FF416
:100690007A71A94802F03EF8002383F31188009B89
:1006A00013B1A74B009A1A60A64A1378032B03D004
:1006B00000231370A24A53604FF0000A009CD346F7
:1006C0005646D146012000F09BFB24B19C4B1B6891
:1006D000002B00F02682002000F092FA0390039B8A
:1006E000002BF2DB012000F081FB039B213B1F2B41
:1006F000E8D801A252F823F079070008A107000802
:1007000035080008C5060008C5060008C50600082B
:10071000C7080008970A0008B1090008130A000872
:100720003B0A0008610A0008C5060008730A0008B1
:10073000C5060008E50A000819080008C5060008F3
:10074000290B00088507000819080008C5060008DD
:10075000130A0008C5060008C5060008C5060008FB
:10076000C5060008C5060008C5060008C50600083D
:10077000C5060008350800080220FFF76BFE0028B8
:1007800040F0F981009B022105A8BAF1000F08BFD3
:100790001C4641F21233ADF8143000F04FFA91E7E5
:1007A0004FF47A7000F02CFA071EEBDB0220FFF703
:1007B00051FE0028E6D0013F052F00F2DE81DFE880
:1007C00007F0030A0D1013360523042105A805932D
:1007D00000F034FA17E004215548F9E704215A489B
:1007E000F6E704215948F3E74FF01C08404608F1AA
:1007F000040800F061FA0421059005A800F01EFA33
:10080000B8F12C0FF2D101204FF0000900FA07F7E0
:1008100047EA0B0B5FFA8BFB00F088FB26B10BF06D
:100820000B030B2B08BF0024FFF71CFE4AE7042133
:100830004748CDE7002EA5D00BF00B030B2BA1D121
:100840000220FFF707FE074600289BD00120002664
:1008500000F030FA0220FFF74DFE1FFA86F84046FE
:1008600000F038FA0446B0B1039940460136A1F1D0
:1008700040025142514100F03DFA0028EDD1BA4604
:10088000044641F21213022105A83E46ADF8143089
:1008900000F0D4F916E725460120FFF72BFE244B84
:1008A0009B68AB4207D9284600F006FA013040F0B9
:1008B00067810435F3E70025224BBA463E461D709A
:1008C0001F4B5D60A8E7002E3FF45CAF0BF00B03FD
:1008D0000B2B7FF457AF0220FFF70CFE322000F005
:1008E0008FF9B0F10008FFF64DAF18F003077FF461
:1008F00049AF0F4A08EB0503926893423FF642AFB7
:10090000B8F5807F3FF73EAF124BB845019323DD2A
:100910004FF47A7000F074F90390039A002AFFF6FE
:1009200031AF039A0137019B03F8012BEDE700BFBC
:100930000022002484230024682200247D0400086F
:10094000882300248022002404220024082200247A
:100950000C22002484220024C820FFF77BFD0746D8
:1009600000283FF40FAF1F2D11D8C5F120020AABAC
:1009700025F0030084494245184428BF42460192AD
:1009800000F062FA019AFF217F4800F083FA4FEAF3
:10099000A803C8F387027C492846019300F082FA35
:1009A000064600283FF46DAF019B05EB830533E756
:1009B0000220FFF74FFD00283FF4E4AE00F0C6F937
:1009C00000283FF4DFAE0027B846704B9B68BB425F
:1009D00018D91F2F11D80A9B01330ED027F003031B
:1009E00012AA134453F8203C05934046042205A95B
:1009F000043700F05DFB8046E7E7384600F05CF91D
:100A00000590F2E7CDF81480042105A800F016F94E
:100A100002E70023642104A8049300F005F90028EC
:100A20007FF4B0AE0220FFF715FD00283FF4AAAE18
:100A3000049800F073F90590E6E70023642104A808
:100A4000049300F0F1F800287FF49CAE0220FFF739
:100A500001FD00283FF496AE049800F06FF9EAE734
:100A60000220FFF7F7FC00283FF48CAE00F07EF97F
:100A7000E1E70220FFF7EEFC00283FF483AE05A972
:100A8000142000F079F907460421049004A800F02E
:100A9000D5F83946B9E7322000F0B2F8071EFFF664
:100AA00071AEBB077FF46EAE384A07EB090392685C
:100AB00093423FF667AE0220FFF7CCFC00283FF4DC
:100AC00061AE27F003074F44B9453FF4A5AE484651
:100AD00009F1040900F0F0F80421059005A800F0E0
:100AE000ADF8F1E74FF47A70FFF7B4FC00283FF45B
:100AF00049AE00F02BF9002844D00A9B01330BD0FB
:100B000008220AA9002000F0CDF900283AD02022BE
:100B1000FF210AA800F0BEF9FFF7A4FC1C4801F071
:100B20003DFD13B0BDE8F08F002E3FF42BAE0BF06F
:100B30000B030B2B7FF426AE0023642105A805933D
:100B400000F072F8074600287FF41CAE0220FFF781
:100B500081FC804600283FF415AEFFF783FC41F28C
:100B6000883001F01BFD059800F02AFA46463C4605
:100B700000F0DCF9A6E506464EE64FF0000901E676
:100B8000BA467EE637467CE6842200240022002412
:100B9000A08601002DE9F84F4FF47A7306460D4602
:100BA000002402FB03F7DFF85080DFF8509098F93B
:100BB00000305FFA84FA5A1C01D0A34212D159F8CE
:100BC00024002A4631460368D3F820B03B46D84774
:100BD000854207D1074B012083F800A0BDE8F88FBC
:100BE0000124E4E7002CFBD04FF4FA7001F0D6FCAE
:100BF0000020F3E7D4230024102200241422002430
:100C0000002307B5024601210DF107008DF80730DA
:100C1000FFF7C0FF20B19DF8070003B05DF804FBAB
:100C20004FF0FF30F9E700000A46042108B5FFF74E
:100C3000B1FF80F00100C0B2404208BD074B0A4638
:100C400030B41978064B53F82140014623682046FA
:100C5000DD69044BAC4630BC604700BFD4230024A0
:100C600014220024A086010070B5104C0025104EFF
:100C700001F0B2FF20803068238883420CD8002521
:100C80002088013801F0A4FF23880544013BB5F515
:100C9000004F2380F4D370BD01F09AFF3368054400
:100CA0000133B5F5004F3360E5D3E8E7D6230024E0
:100CB0009023002402F060B800F1006000F50040CD
:100CC0000068704700F10060920000F5004001F0FC
:100CD000E1BF0000054B1A68054B1B889B1A834235
:100CE00002D9104401F074BF002070479023002403
:100CF000D623002438B50446074D29B1286820447E
:100D0000BDE8384001F07EBF2868204401F068FF4C
:100D10000028F3D038BD00BF9023002410F0030357
:100D200009D1B0F5806F04D200F10F6000F57F208B
:100D30000368184670470023FBE7000000F10F60CE
:100D400000F57F20D0F8000870470000064991F8B0
:100D5000243033B100230822086A81F82430FFF7D9
:100D6000B1BF0120704700BF94230024014B1868D5
:100D7000704700BF0010005C194B01380322084483
:100D800070B51D68174BC5F30B042D0C1E88A642C9
:100D90000BD15C680A46013C824213460FD214F91B
:100DA000016F4EB102F8016BF6E7013A03F1080357
:100DB000ECD181420B4602D22C2203F8012B0424F1
:100DC000094A1688AE4204D1984284BF967803F847
:100DD000016B013C02F10402F3D1581A70BD00BF4F
:100DE0000010005C1C22002480450008022803D16A
:100DF000024B4FF080429A61704700BF00000258DA
:100E0000022803D1024B4FF480429A61704700BF21
:100E100000000258022804D1024A536983F4804337
:100E2000536170470000025870B504464FF47A765B
:100E30004CB1412C254628BF412506FB05F0641B1B
:100E400001F0ACFBF4E770BD002310B5934203D072
:100E5000CC5CC4540133F9E710BD0000013810B573
:100E600010F9013F3BB191F900409C4203D11AB106
:100E70000131013AF4E71AB191F90020981A10BD36
:100E80001046FCE703460246D01A12F9011B00295E
:100E9000FAD1704702440346934202D003F8011B83
:100EA000FAE770472DE9F8431F4D14460746884678
:100EB00095F8242052BBDFF870909CB395F824304D
:100EC0002BB92022FF2148462F62FFF7E3FF95F858
:100ED00024004146C0F1080205EB8000A24228BF71
:100EE0002246D6B29200FFF7AFFF95F82430A41B3C
:100EF00017441E449044E4B2F6B2082E85F82460EC
:100F0000DBD1FFF723FF0028D7D108E02B6A03EBE2
:100F100082038342CFD0FFF719FF0028CBD10020F6
:100F2000BDE8F8830120FBE794230024024B1A78E4
:100F3000024B1A70704700BFD423002410220024F3
:100F400038B51A4C1A4D204600F07CFE2946204642
:100F500000F0A4FE2D684FF47A70D5F89020D2F8F6
:100F6000043843F00203C2F80438FFF75DFF11496B
:100F7000284600F0A1FFD5F890200F4DD2F8043894
:100F8000286823F002030D49A042C2F804384FF448
:100F9000E1330B6001D000F0B3FD6868A04204D0DB
:100FA0000649BDE8384000F0ABBD38BD382B002401
:100FB0007C4700088447000814220024BC23002436
:100FC0000C4B70B50C4D04461E780C4B55F8262082
:100FD0009A420DD00A4B002118221846FFF75AFFFB
:100FE0000460014655F82600BDE8704000F088BD59
:100FF00070BD00BFD423002414220024382B002409
:10100000BC230024F0B5A1B071B600230120002458
:1010100080261A46194600F04BFA4FF4D067214A51
:101020003D25136923BBD2F810310BBB036804F1D3
:10103000006199600368C3F80CD003685E600368C0
:101040001F6001680B6843F001030B6001680B68C7
:1010500023F01E030B6001680B68DB07FCD4037BE5
:101060008034416805FA03F3B4F5001F0B60D8D152
:1010700000F05EFAB4F5001F11D000240A4E0B4DAB
:10108000012001F079FE3388A34205D92868204465
:10109000013401F0B7FDF6E7002001F06DFE61B606
:1010A00021B0F0BD00200052D6230024902300245C
:1010B00030B50A44084D91420DD011F8013B58401B
:1010C000082340F30004013B2C4013F0FF0384EAA3
:1010D0005000F6D1EFE730BD2083B8ED08B5074BDF
:1010E000074A196801F03D01996053680BB1906897
:1010F0009847BDE8084001F09DBE00BF00000240D7
:10110000D823002408B5084B1968890901F03D016E
:101110008A019A60054AD3680BB110699847BDE807
:10112000084001F087BE00BF00000240D823002421
:1011300008B5084B1968090C01F03D010A049A60D2
:10114000054A53690BB190699847BDE8084001F022
:1011500071BE00BF00000240D823002408B5084B30
:101160001968890D01F03D018A059A60054AD36925
:101170000BB1106A9847BDE8084001F05BBE00BFA4
:1011800000000240D823002408B5074B074A5968DD
:1011900001F03D01D960536A0BB1906A9847BDE8F0
:1011A000084001F047BE00BF00000240D8230024E1
:1011B00008B5084B5968890901F03D018A01DA60D8
:1011C000054AD36A0BB1106B9847BDE8084001F09F
:1011D00031BE00BF00000240D823002408B5084BF0
:1011E0005968090C01F03D010A04DA60054A536BA5
:1011F0000BB1906B9847BDE8084001F01BBE00BFE3
:1012000000000240D823002408B5084B5968890D16
:1012100001F03D018A05DA60054AD36B0BB1106C11
:101220009847BDE8084001F005BE00BF000002403D
:10123000D823002408B5074B074A196801F03D017F
:101240009960536C0BB1906C9847BDE8084001F071
:10125000F1BD00BF00040240D823002408B5084BAC
:101260001968890901F03D018A019A60054AD36C29
:101270000BB1106D9847BDE8084001F0DBBD00BF21
:1012800000040240D823002408B5084B1968090C53
:1012900001F03D010A049A60054A536D0BB1906D4F
:1012A0009847BDE8084001F0C5BD00BF00040240FA
:1012B000D823002408B5084B1968890D01F03D01B9
:1012C0008A059A60054AD36D0BB1106E9847BDE848
:1012D000084001F0AFBD00BF00040240D823002445
:1012E00008B5074B074A596801F03D01D960536EB4
:1012F0000BB1906E9847BDE8084001F09BBD00BF60
:1013000000040240D823002408B5084B5968890915
:1013100001F03D018A01DA60054AD36E0BB1106F0E
:101320009847BDE8084001F085BD00BF00040240B9
:10133000D823002408B5084B5968090C01F03D0179
:101340000A04DA60054A536F0BB1906F9847BDE805
:10135000084001F06FBD00BF00040240D823002404
:1013600008B5084B5968890D01F03D018A05DA601E
:10137000054AD36F13B1D2F880009847BDE8084002
:1013800001F058BD00040240D823002400230C497A
:1013900010B51A460B4C0B6054F82300026001EBA9
:1013A000430004334260402BF6D1074A4FF0FF332D
:1013B0009360D360C2F80834C2F80C3410BD00BF8B
:1013C000D823002490450008000002400F28F8B5FB
:1013D00010D9102810D0112811D0122808D10F24AC
:1013E0000720DFF8C8E00126DEF80050A04208D947
:1013F000002653E00446F4E70F240020F1E7072419
:10140000FBE706FA00F73D424AD1264C4FEA001CA2
:101410003D4304EB00160EEBC000CEF80050C0E9CF
:101420000123FBB273B12048D0F8383143F00103F7
:10143000C0F83831D0F8603143F00103C0F86031B2
:10144000D0F8603117F47F4F0ED01748D0F83831FC
:1014500043F00203C0F83831D0F8603143F00203A2
:10146000C0F86031D0F8603154F80C00036823F004
:101470001F030360056815F00105FBD104EB0C03A5
:101480003D2493F80CC05F6804FA0CF43C602124FE
:101490000560446112B1987B00F066F93046F8BDF2
:1014A0000130A3E79045000800440258D8230024E7
:1014B00010B5302484F31188FFF788FF002383F3ED
:1014C000118810BD10B50446807B00F063F901233C
:1014D0001549627B03FA02F20B6823EA0203DAB2CF
:1014E0000B6072B9114AD2F8381121F00101C2F82B
:1014F0003811D2F8601121F00101C2F86011D2F860
:10150000602113F47F4F0ED1084BD3F8382122F01D
:101510000202C3F83821D3F8602122F00202C3F896
:101520006021D3F8603110BDD82300240044025854
:1015300008B5302383F31188FFF7C4FF002383F33A
:10154000118808BD026843681143016003B1184760
:1015500070470000024A136843F0C00313607047ED
:101560000010014013B50E4C204600F0BDFA04F106
:10157000140000234FF400720A49009400F07AF935
:10158000094B4FF40072094904F13800009400F04F
:10159000F3F9074A074BC4E9172302B010BD00BF97
:1015A0005C240024C824002455150008C826002403
:1015B000001001400076B010037C30B5244C0029A7
:1015C00018BF0C46012B11D1224B98420ED1224B51
:1015D000D3F8502142F01002C3F85021D3F87821FB
:1015E00042F01002C3F87821D3F878312268036EF4
:1015F000C16D03EB52038466B3FBF2F3626815041A
:1016000042BF23F0070503F0070343EA4503CB601D
:10161000A36843F040034B60E36843F001038B6031
:1016200042F4967343F001030B604FF0FF330B62FB
:10163000510505D512F0102205D0B2F1805F04D01B
:1016400080F8643030BD7F23FAE73F23F8E700BF1E
:10165000904600085C240024004402582DE9F0471D
:10166000C66D05463768F469210734621AD014F054
:10167000080118BF4FF48071E20748BF41F0200114
:10168000A3074FF0300348BF41F04001600748BF57
:1016900041F0800183F31188281DFFF753FF0023D9
:1016A00083F31188E2050AD5302383F311884FF4C0
:1016B0008061281DFFF746FF002383F311884FF058
:1016C00030094FF0000A14F0200838D13B0616D537
:1016D0004FF0300905F1380A200610D589F311883A
:1016E000504600F07DF9002836DA0821281DFFF762
:1016F00029FF27F080033360002383F311887906E4
:1017000014D5620612D5302383F31188D5E913234B
:101710009A4208D12B6C33B127F040071021281DC5
:10172000FFF710FF3760002383F31188E30618D515
:10173000AA6E1369ABB15069BDE8F047184789F349
:101740001188736A284695F86410194000F0E6F98C
:101750008AF31188F469B6E7B06288F31188F469F6
:10176000BAE7BDE8F0870000090100F160430122FB
:1017700003F56143C9B283F8001300F01F039A40D8
:1017800043099B0003F1604303F56143C3F88021E3
:101790001A60704700F01F0301229A40430900F1CC
:1017A00060409B0000F5614003F1604303F5614335
:1017B000C3F88020C3F88021002380F800337047ED
:1017C000F8B51546826804460B46AA4200D28568E1
:1017D000A1692669761AB5420BD218462A46FFF748
:1017E00033FBA3692B44A3612846A3685B1BA3605A
:1017F000F8BD0CD9AF1B18463246FFF725FB3A4619
:10180000E1683044FFF720FBE3683B44EBE7184610
:101810002A46FFF719FBE368E5E700008368934277
:10182000F7B50446154600D28568D4E90460361A37
:10183000B5420BD22A46FFF707FB63692B4463616D
:101840002846A3685B1BA36003B0F0BD0DD93246E8
:10185000AF1B0191FFF7F8FA01993A46E06831446D
:10186000FFF7F2FAE3683B44E9E72A46FFF7ECFAB0
:10187000E368E4E710B50A440024C361029B846076
:10188000C16002610362C0E90000C0E9051110BD3A
:1018900008B5D0E90532934201D1826882B98268E5
:1018A000013282605A1C426119700021D0E9043271
:1018B0009A4224BFC368436100F08CFE002008BD3B
:1018C0004FF0FF30FBE7000070B5302304460E46B2
:1018D00083F31188A568A5B1A368A269013BA36041
:1018E000531CA36115782269934224BFE368A36166
:1018F000E3690BB120469847002383F311882846FB
:1019000007E03146204600F055FE0028E2DA85F374
:10191000118870BD2DE9F74F04460E4617469846CC
:10192000D0F81C904FF0300A8AF311884FF0000B6A
:10193000154665B12A4631462046FFF741FF03466A
:1019400060B94146204600F035FE0028F1D0002362
:1019500083F31188781B03B0BDE8F08FB9F1000F55
:1019600003D001902046C847019B8BF31188ED1AE4
:101970001E448AF31188DCE7C160C361009B82606A
:101980000362C0E905111144C0E90000016170471C
:10199000F8B504460D461646302383F31188A76830
:1019A000A7B1A368013BA36063695A1C62611D7003
:1019B000D4E904329A4224BFE3686361E3690BB15E
:1019C00020469847002080F3118807E031462046E2
:1019D00000F0F0FD0028E2DA87F31188F8BD00007E
:1019E000D0E9052310B59A4201D182687AB982689C
:1019F0000021013282605A1C82611C7803699A427C
:101A000024BFC368836100F0E5FD204610BD4FF0A0
:101A1000FF30FBE72DE9F74F04460E461746984680
:101A2000D0F81C904FF0300A8AF311884FF0000B69
:101A3000154665B12A4631462046FFF7EFFE0346BC
:101A400060B94146204600F0B5FD0028F1D00023E2
:101A500083F31188781B03B0BDE8F08FB9F1000F54
:101A600003D001902046C847019B8BF31188ED1AE3
:101A70001E448AF31188DCE7026843681143016061
:101A800003B11847704700001430FFF743BF000050
:101A90004FF0FF331430FFF73DBF00003830FFF741
:101AA000B9BF00004FF0FF333830FFF7B3BF00007D
:101AB0001430FFF709BF00004FF0FF311430FFF77B
:101AC00003BF00003830FFF763BF00004FF0FF3264
:101AD0003830FFF75DBF0000012914BF6FF013001D
:101AE00000207047FFF73EBD044B036000234360B6
:101AF000C0E9023301230374704700BFA846000801
:101B000010B53023044683F31188FFF755FD0223F7
:101B10000020237480F3118810BD000038B5C3691C
:101B200004460D461BB904210844FFF7A5FF2946CA
:101B300004F11400FFF7ACFE002806DA201D4FF474
:101B40000061BDE83840FFF797BF38BD02684368C1
:101B50001143016003B118477047000013B5406B93
:101B600000F58054D4F8A4381A681178042914D1E7
:101B7000017C022911D11979012312898B4013426A
:101B80000BD101A94C3001F0F5FFD4F8A44802466E
:101B9000019B2179206800F0DFF902B010BD000040
:101BA000143001F077BF00004FF0FF33143001F024
:101BB00071BF00004C3002F049B800004FF0FF3315
:101BC0004C3002F043B80000143001F045BF000073
:101BD0004FF0FF31143001F03FBF00004C3002F0F5
:101BE00015B800004FF0FF324C3002F00FB8000083
:101BF0000020704710B500F58054D4F8A4381A6856
:101C00001178042917D1017C022914D159790123B3
:101C100052898B4013420ED1143001F0D7FE024698
:101C200048B1D4F8A4484FF4407361792068BDE806
:101C3000104000F07FB910BD406BFFF7DBBF000024
:101C4000704700007FB5124B01250426044603604F
:101C50000023057400F1840243602946C0E9023381
:101C60000C4B0290143001934FF44073009601F036
:101C700089FE094B04F69442294604F14C00029473
:101C8000CDE900634FF4407301F050FF04B070BD24
:101C9000D0460008391C00085D1B00080A68302384
:101CA00083F311880B790B3342F823004B791333FC
:101CB00042F823008B7913B10B3342F8230000F56F
:101CC0008053C3F8A41802230374002080F3118802
:101CD0007047000038B5037F044613B190F85430C4
:101CE000ABB90125201D0221FFF730FF04F11400DC
:101CF0006FF00101257700F079FC04F14C0084F8C5
:101D000054506FF00101BDE8384000F06FBC38BDA1
:101D100010B5012104460430FFF718FF0023237794
:101D200084F8543010BD000038B504460025143046
:101D300001F040FE04F14C00257701F00FFF201D5B
:101D400084F854500121FFF701FF2046BDE83840D8
:101D5000FFF750BF90F8803003F06003202B06D1CE
:101D600090F881200023212A03D81F2A06D80020BA
:101D70007047222AFBD1C0E91D3303E0034A4267C2
:101D800007228267C3670120704700BF3422002406
:101D900037B500F58055D5F8A4381A6811780429AC
:101DA0001AD1017C022917D11979012312898B409C
:101DB000134211D100F14C04204601F08FFF58B1BD
:101DC00001A9204601F0D6FED5F8A4480246019BA1
:101DD0002179206800F0C0F803B030BD01F10B0399
:101DE000F0B550F8236085B004460D46FEB13023AF
:101DF00083F3118804EB8507301D0821FFF7A6FE49
:101E0000FB6806F14C005B691B681BB1019001F097
:101E1000BFFE019803A901F0ADFE024648B1039B45
:101E20002946204600F098F8002383F3118805B076
:101E3000F0BDFB685A691268002AF5D01B8A013B85
:101E40001340F1D104F18002EAE70000133138B504
:101E500050F82140ECB1302383F3118804F580530E
:101E6000D3F8A4281368527903EB8203DB689B69DB
:101E70005D6845B104216018FFF768FE294604F14A
:101E8000140001F0ADFD2046FFF7B4FE002383F3FC
:101E9000118838BD7047000001F0B8B80123402216
:101EA000002110B5044600F8303BFEF7F3FF002395
:101EB000C4E9013310BD000010B53023044683F39C
:101EC00011882422416000210C30FEF7E3FF2046F8
:101ED00001F0AEF802230020237080F3118810BDBA
:101EE00070B500EB8103054650690E461446DA6072
:101EF00018B110220021FEF7CDFFA06918B1102201
:101F00000021FEF7C7FF31462846BDE8704001F0CA
:101F10007BB9000083682022002103F0011310B573
:101F2000044683601030FEF7B5FF2046BDE8104040
:101F300001F0F6B9F0B4012500EB810447898D402A
:101F4000E4683D43A469458123600023A260636087
:101F5000F0BC01F013BA0000F0B4012500EB8104DD
:101F600007898D40E4683D4364690581236000234F
:101F7000A2606360F0BC01F08DBA000070B502236E
:101F800000250446242203702946C0F888500C30EE
:101F900040F8045CFEF77EFF204684F8705001F0A4
:101FA000C7F863681B6823B129462046BDE8704026
:101FB000184770BD0378052B10B504460AD080F889
:101FC0008C300523037043681B680BB104219847CC
:101FD0000023A36010BD00000178052906D190F808
:101FE0008C20436802701B6803B1184770470000DB
:101FF00070B590F87030044613B1002380F870304B
:1020000004F18002204601F0AFF963689B68B3B920
:1020100094F8803013F0600535D00021204601F09F
:102020008DFC0021204601F07DFC63681B6813B124
:10203000062120469847062384F8703070BD20465C
:1020400098470028E4D0B4F88630A26F9A4288BF3F
:10205000A36794F98030A56F002B4FF0300380F216
:102060000381002D00F0F280092284F8702083F3B0
:10207000118800212046D4E91D23FFF76DFF0023BE
:1020800083F31188DAE794F8812003F07F0343EAB1
:10209000022340F20232934200F0C58021D8B3F50A
:1020A000807F48D00DD8012B3FD0022B00F09380C9
:1020B000002BB2D104F1880262670222A267E367B3
:1020C000C1E7B3F5817F00F09B80B3F5407FA4D1D9
:1020D00094F88230012BA0D1B4F8883043F0020389
:1020E00032E0B3F5006F4DD017D8B3F5A06F31D003
:1020F000A3F5C063012B90D86368204694F8822032
:102100005E6894F88310B4F88430B047002884D017
:10211000436863670368A3671AE0B3F5106F36D0AE
:1021200040F6024293427FF478AF5C4B6367022330
:10213000A3670023C3E794F88230012B7FF46DAFCF
:10214000B4F8883023F00203A4F88830C4E91D55A0
:10215000E56778E7B4F88030B3F5A06F0ED194F856
:102160008230204684F88A3001F040F863681B68AA
:1021700013B1012120469847032323700023C4E9AB
:102180001D339CE704F18B0363670123C3E72378C6
:10219000042B10D1302383F311882046FFF7BAFEB9
:1021A00085F311880321636884F88B5021701B68C4
:1021B0000BB12046984794F88230002BDED084F88B
:1021C0008B300423237063681B68002BD6D0022158
:1021D00020469847D2E794F8843020461D0603F045
:1021E0000F010AD501F0B2F8012804D002287FF4CB
:1021F00014AF2B4B9AE72B4B98E701F099F8F3E7D4
:1022000094F88230002B7FF408AF94F8843013F0F8
:102210000F01B3D01A06204602D501F0A7FBADE7A7
:1022200001F098FBAAE794F88230002B7FF4F5AE1A
:1022300094F8843013F00F01A0D01B06204602D57D
:1022400001F07CFB9AE701F06DFB97E7142284F81C
:10225000702083F311882B462A4629462046FFF733
:1022600069FE85F31188E9E65DB1152284F87020D6
:1022700083F3118800212046D4E91D23FFF75AFE7D
:10228000FDE60B2284F8702083F311882B462A4642
:1022900029462046FFF760FEE3E700BF004700083D
:1022A000F8460008FC46000838B590F8703004463F
:1022B000002B3ED0063BDAB20F2A34D80F2B32D88F
:1022C000DFE803F037313108223231313131313139
:1022D00031313737856FB0F886309D4214D2C368EC
:1022E0001B8AB5FBF3F203FB12556DB9302383F360
:1022F00011882B462A462946FFF72EFE85F31188C2
:102300000A2384F870300EE0142384F870303023F0
:1023100083F31188002320461A461946FFF70AFE68
:10232000002383F3118838BDC36F03B1984700239E
:10233000E7E70021204601F001FB0021204601F0E3
:10234000F1FA63681B6813B10621204698470623FB
:10235000D7E7000010B590F870300446142B29D050
:1023600017D8062B05D001D81BB110BD093B022B95
:10237000FBD80021204601F0E1FA0021204601F0BF
:10238000D1FA63681B6813B10621204698470623DB
:1023900019E0152BE9D10B2380F87030302383F33B
:1023A000118800231A461946FFF7D6FD002383F350
:1023B0001188DAE7C3689B695B68002BD5D1C36FCE
:1023C00003B19847002384F87030CEE70023826879
:1023D000037503691B6899689142FBD25A680360D0
:1023E000426010605860704700238268037503697B
:1023F0001B6899689142FBD85A680360426010607C
:102400005860704708B50846302383F311880B7D68
:10241000032B05D0042B0DD02BB983F3118808BDF5
:102420008B6900221A604FF0FF338361FFF7CEFF04
:102430000023F2E7D1E9003213605A60F3E70000AD
:10244000FFF7C4BF054BD968087518680268536068
:102450001A600122D8600275FDF7D4BFC828002495
:102460000C4B30B5DD684B1C87B004460FD02B46B3
:10247000094A684600F04EF92046FFF7E3FF009B4B
:1024800013B1684600F050F9A86907B030BDFFF7F6
:10249000D9FFF9E7C828002405240008044B1A686E
:1024A000DB6890689B68984294BF002001207047C9
:1024B000C8280024084B10B51C68D86822685360EF
:1024C0001A600122DC602275FFF78EFF014620466C
:1024D000BDE81040FDF796BFC828002438B5074C6A
:1024E00001230025064907482370656001F034FC8C
:1024F0000223237085F3118838BD00BF302B0024E0
:1025000008470008C828002400F044B9034A51686D
:1025100053685B1A9842FBD8704700BF001000E078
:102520008B600223086108468B8270478368A3F1A1
:10253000840243F8142C026943F8442C426943F89E
:10254000402C094A43F8242CC268A3F1200043F828
:10255000182C022203F80C2C002203F80B2C034A3F
:1025600043F8102C704700BF1D040008C828002441
:1025700008B5FFF7DBFFBDE80840FFF761BF0000CB
:10258000024BDB6898610F20FFF75CBFC82800246E
:10259000302383F31188FFF7F3BF000008B501462D
:1025A000302383F311880820FFF75AFF002383F3B9
:1025B000118808BD064BDB6839B1426818605A6063
:1025C000136043600420FFF74BBF4FF0FF307047AC
:1025D000C82800240368984206D01A680260506038
:1025E00018469961FFF72CBF7047000038B50446C4
:1025F0000D462068844200D138BD036823605C60CA
:102600008561FFF71DFFF4E7036810B59C68A242DF
:102610000CD85C688A600B604C60216059609968D6
:102620008A1A9A604FF0FF33836010BD121B1B683B
:10263000ECE700000A2938BF0A2170B504460D46B0
:102640000A26601901F080FB01F068FB041BA5421B
:1026500003D8751C04462E46F3E70A2E04D9012040
:10266000BDE8704001F0B8BB70BD0000F8B5144B78
:102670000D460A2A4FF00A07D96103F11001826062
:1026800038BF0A2241601969144601604860186128
:10269000A81801F049FB01F041FB431B0646A34289
:1026A00006D37C1C28192746354601F04DFBF2E77E
:1026B0000A2F04D90120BDE8F84001F08DBBF8BD18
:1026C000C8280024F8B506460D4601F027FB0F4A3E
:1026D000134653F8107F9F4206D12A4601463046E2
:1026E000BDE8F840FFF7C2BFD169BB68441A2C1996
:1026F00028BF2C46A34202D92946FFF79BFF22465A
:1027000031460348BDE8F840FFF77EBFC8280024E3
:10271000D8280024C0E90323002310B45DF8044B3B
:102720004361FFF7CFBF000010B5194C23699842F1
:102730000DD08168D0E9003213605A609A680A446B
:102740009A60002303604FF0FF33A36110BD02685D
:10275000234643F8102F53600022026022699A42F8
:1027600003D1BDE8104001F0E9BA936881680B44D9
:10277000936001F0D3FA2269E1699268441AA24297
:10278000E4D91144BDE81040091AFFF753BF00BF58
:10279000C82800242DE9F047DFF8BC8008F11007B5
:1027A0002C4ED8F8105001F0B9FAD8F81C40AA689D
:1027B000031B9A423ED814444FF00009D5E9003279
:1027C000C8F81C4013605A60C5F80090D8F8103063
:1027D000B34201D101F0B2FA89F31188D5E903318E
:1027E00028469847302383F311886B69002BD8D093
:1027F00001F094FA6A69A0EB040982464A450DD2B9
:10280000022001F0E9FA0022D8F81030B34208D1D2
:1028100051462846BDE8F047FFF728BF121A224468
:10282000F2E712EB09092946384638BF4A46FFF756
:10283000EBFEB5E7D8F81030B34208D01444C8F81E
:102840001C00211AA960BDE8F047FFF7F3BEBDE800
:10285000F08700BFD8280024C82800240020704733
:10286000FEE70000704700004FF0FF3070470000A7
:1028700002290CD0032904D00129074818BF0020E1
:102880007047032A05D8054800EBC200704704488A
:1028900070470020704700BFE04700084422002432
:1028A0009447000870B59AB005460846144601A939
:1028B00000F0C2F801A8FEF7E5FA431C0022C6B2F8
:1028C0005B001046C5E9003423700323023404F88A
:1028D000013C01ABD1B202348E4201D81AB070BDB6
:1028E00013F8011B013204F8010C04F8021CF1E793
:1028F00008B5302383F311880348FFF749FA002312
:1029000083F3118808BD00BF382B002490F8803075
:1029100003F01F02012A07D190F881200B2A03D16E
:102920000023C0E91D3315E003F06003202B08D11C
:10293000B0F884302BB990F88120212A03D81F2ABF
:1029400004D8FFF707BA222AEBD0FAE7034A426716
:1029500007228267C3670120704700BF3B22002423
:1029600007B5052917D8DFE801F019160319192052
:10297000302383F31188104A01210190FFF7B0FA48
:10298000019802210D4AFFF7ABFA0D48FFF7CCF989
:10299000002383F3118803B05DF804FB302383F335
:1029A00011880748FFF796F9F2E7302383F311887F
:1029B0000348FFF7ADF9EBE7344700085847000834
:1029C000382B002438B50C4D0C4C2A460C4904F128
:1029D0000800FFF767FF05F1CA0204F1100009497A
:1029E000FFF760FF05F5CA7204F118000649BDE85B
:1029F0003840FFF757BF00BF104400244422002492
:102A0000144700081E4700082947000870B504460F
:102A100008460D46FEF736FAC6B220460134037862
:102A20000BB9184670BD32462946FEF717FA002842
:102A3000F3D10120F6E700002DE9F84F05460C46DA
:102A4000FEF720FA2C49C6B22846FFF7DFFF08B18F
:102A50000236F6B229492846FFF7D8FF08B11036EA
:102A6000F6B2632E0DD8DFF89080DFF89090244FF7
:102A7000DFF894A0DFF894B02E7846B92670BDE850
:102A8000F88F29462046BDE8F84F01F05BBD252EA2
:102A90002ED1072241462846FEF7E0F970B9DBF84F
:102AA00000300735093444F8093CDBF8043044F8B9
:102AB000053C9BF8083004F8013CDDE70822494654
:102AC0002846FEF7CBF998B9A21C0E4B19780232B2
:102AD0000909C95D02F8041C13F8011B01F00F017C
:102AE0005345C95D02F8031CF0D118340835C3E71B
:102AF000013504F8016BBFE70048000829470008CA
:102B00001248000800F8FF080CF8FF080848000801
:102B1000BFF34F8F044B1A695107FCD1D3F8102132
:102B20005207F8D1704700BF0020005208B50D4B86
:102B30001B78ABB9FFF7ECFF0B4BDA68D10704D574
:102B40000A4A5A6002F188325A60D3F80C21D2073F
:102B500006D5064AC3F8042102F18832C3F80421DD
:102B600008BD00BF6E4600240020005223016745C7
:102B700008B5114B1B78F3B9104B1A69510703D5EF
:102B8000DA6842F01002DA60D3F81021520705D556
:102B9000D3F80C2142F01002C3F80C21FFF7B8FF64
:102BA000064BDA6842F00102DA60D3F80C2142F0F9
:102BB0000102C3F80C2108BD6E460024002000521B
:102BC000FF289ABF00F580404003002070470000B6
:102BD0004FF40050704700004FF4807070470000C1
:102BE000FF2808B50BD8FFF7EBFF00F5005302688C
:102BF000013204D104308342F9D1012008BD002004
:102C0000FCE70000FF2838B505463FD8FFF780FFF6
:102C10001F4CFFF78BFF4FF0FF337F286361C4F831
:102C200014311DD82361FFF773FF830143F00403C0
:102C3000E360E36843F02003E36023695A07FCD4B0
:102C40002846FFF765FFFFF7BBFF4FF4005100F088
:102C5000A7F82846FFF78CFFBDE83840FFF7C0BF54
:102C6000C4F81031FFF754FFA0F180039B0143F03B
:102C70000403C4F80C31D4F80C3143F02003C4F839
:102C80000C31D4F810315B07FBD4D9E7002038BDF4
:102C9000002000522DE9F84F05460C46104645EA43
:102CA0000203DE0602D00020BDE8F88F20F01F00EE
:102CB000DFF8BCB0DFF8BCA0FFF738FF04EB00087A
:102CC000444503D10120FFF753FFEDE720222946B9
:102CD000204601F027FC10B920352034F0E72B46C0
:102CE00005F120021F68791CDDD104339A42F9D125
:102CF00005F178431B481C4EB3F5801F1B4B38BFB2
:102D0000184603F1F80332BFD946D1461E46FFF7F5
:102D1000FFFE0760A5EB040C336804F11C0143F0CF
:102D200002033360231FD9F8007017F00507FAD1AA
:102D300053F8042F8B424CF80320F4D1BFF34F8F8C
:102D4000FFF7E6FE4FF0FF332022214603602846BE
:102D5000336823F00203336001F0E4FB0028BBD0AA
:102D60003846B0E7142100520C20005214200052C3
:102D7000102000521021005210B5084C237828B1C1
:102D80001BB9FFF7D3FE0123237010BD002BFCD02D
:102D90002070BDE81040FFF7EBBE00BF6E46002478
:102DA0000144BFF34F8F064B884204D3BFF34F8FCC
:102DB000BFF36F8F7047C3F85C022030F4E700BFA9
:102DC00000ED00E0EFF30983054968334A6B22F018
:102DD00001024A6383F30988002383F31188704753
:102DE00000EF00E0302080F3118862B60D4B0E4AF0
:102DF000D96821F4E0610904090C0A430B49DA603F
:102E0000D3F8FC2042F08072C3F8FC20084AC2F8D4
:102E1000B01F116841F0010111602022DA7783F8B8
:102E20002200704700ED00E00003FA0555CEACC566
:102E3000001000E0302310B583F311880E4B5B685F
:102E400013F4006314D0F1EE103AEFF309844FF05D
:102E50008073683CE361094BDB6B236684F309886C
:102E6000FFF71CFB10B1064BA36110BD054BFBE740
:102E700083F31188F9E700BF00ED00E000EF00E008
:102E80002F0400083204000870B5BFF34F8FBFF362
:102E90006F8F1A4A0021C2F85012BFF34F8FBFF351
:102EA0006F8F536943F400335361BFF34F8FBFF308
:102EB0006F8FC2F88410BFF34F8FD2F8803043F683
:102EC000E074C3F3C900C3F34E335B0103EA0406A5
:102ED000014646EA81750139C2F86052F9D2203BB9
:102EE00013F1200FF2D1BFF34F8F536943F48033B6
:102EF0005361BFF34F8FBFF36F8F70BD00ED00E0E4
:102F0000FEE70000214B2248224A70B5904237D399
:102F1000214BC11EDA1C121A22F003028B4238BF69
:102F200000220021FDF7B6FF1C4A0023C2F88430BE
:102F3000BFF34F8FD2F8803043F6E074C3F3C9007B
:102F4000C3F34E335B0103EA0406014646EA81758A
:102F50000139C2F86C52F9D2203B13F1200FF2D1A3
:102F6000BFF34F8FBFF36F8FBFF34F8FBFF36F8FE1
:102F70000023C2F85032BFF34F8FBFF36F8F70BD85
:102F800053F8041B40F8041BC0E700BFFC490008CD
:102F9000A8470024A8470024A847002400ED00E02B
:102FA00070B5D0E9244300224FF0FF359E6804EB52
:102FB00042135101D3F80009002805DAD3F80009BB
:102FC00040F08040C3F80009D3F8000B002805DA70
:102FD000D3F8000B40F08040C3F8000B01326318B7
:102FE0009642C3F80859C3F8085BE0D24FF00113CA
:102FF000C4F81C3870BD0000890141F02001016156
:1030000003699B06FCD41220FFF780BA10B5054C6B
:103010002046FEF743FF044BC4F89030034BC4F83E
:10302000943010BD70460024000004404848000859
:1030300070B503780546012B6AD1374BD0F8904024
:10304000984233D1354B0E214D20D3F8382142F030
:103050000072C3F83821D3F8602142F00072C3F83F
:103060006021D3F86021D3F8802042F00072C3F8C9
:103070008020D3F8802022F00072C3F88020D3F89B
:103080008020D3F8382122F08062C3F83821D3F8A9
:10309000602122F08062C3F86021D3F86031FEF72E
:1030A00063FB1F4BE3601F4BC4F800380023D5F8C7
:1030B0009060C4F8003EC02323604FF40413A36360
:1030C0003369002BFCDA01230C203361FFF71EFA71
:1030D0003369DB07FCD41220FFF718FA3369002BA1
:1030E000FCDA00262846A660FFF75AFF6B68C4F892
:1030F0001068DB68C4F81468C4F81C684BB90A4B44
:10310000A3614FF0FF336361A36843F00103A36041
:1031100070BD064BF4E700BF70460024004402581F
:103120004014004003002002003C30C0083C30C086
:10313000F8B5D0F89040054600214FF000662046D3
:10314000FFF75AFFD5F8941000234FF001128F6853
:103150004FF0FF30C4F83438C4F81C2804EB431295
:1031600001339F42C2F80069C2F8006BC2F8080937
:10317000C2F8080BF2D20B68D5F89020C5F8983049
:10318000636210231361166916F01006FBD112203A
:10319000FFF7BCF9D4F8003823F4FE63C4F8003814
:1031A000A36943F4402343F01003A3610923C4F847
:1031B0001038C4F814380B4BEB604FF0C043C4F820
:1031C000103B094BC4F8003BC4F81069C4F800393F
:1031D000D5F8983003F1100243F48013C5F8982015
:1031E000A362F8BD2448000840800010D0F8902069
:1031F00090F88A10D2F8003823F4FE6343EA0113F2
:10320000C2F80038704700002DE9F84300EB810355
:10321000D0F890500C468046DA680FFA81F94801E0
:10322000166806F00306731E022B05EB41134FF0E0
:10323000000194BFB604384EC3F8101B4FF00101D3
:1032400004F1100398BF06F1805601FA03F3916967
:1032500098BF06F5004600293AD0578A04F1580174
:10326000374349016F50D5F81C180B430021C5F8AE
:103270001C382B180127C3F81019A7405369611E89
:103280009BB3138A928B9B08012A88BF5343D8F8BB
:103290009820981842EA034301F140022146C8F8F9
:1032A0009800284605EB82025360FFF7A5FE08EB65
:1032B0008900C3681B8A43EA845348341E4364016F
:1032C0002E51D5F81C381F43C5F81C78BDE8F8838B
:1032D00005EB4917D7F8001B21F40041C7F8001B84
:1032E000D5F81C1821EA0303C0E704F13F030B4A99
:1032F0002846214605EB83035A60FFF77DFE05EB68
:103300004910D0F8003923F40043C0F80039D5F84B
:103310001C3823EA0707D7E70080001000040002EA
:10332000D0F894201268C0F89820FFF739BE00004A
:103330005831D0F8903049015B5813F4004004D064
:1033400013F4001F0CBF0220012070474831D0F851
:10335000903049015B5813F4004004D013F4001F6F
:103360000CBF02200120704700EB8101CB68196A75
:103370000B6813604B6853607047000000EB8103DB
:1033800030B5DD68AA691368D36019B9402B84BFD2
:10339000402313606B8A1468D0F890201C4402EB21
:1033A0004110013C09B2B4FBF3F46343033323F04F
:1033B000030343EAC44343F0C043C0F8103B2B6807
:1033C00003F00303012B0ED1D2F8083802EB4110B1
:1033D00013F4807FD0F8003B14BF43F0805343F0D8
:1033E0000053C0F8003B02EB4112D2F8003B43F01F
:1033F0000443C2F8003B30BD2DE9F041244D0446A2
:10340000D5F8906006EB4013D3F8087B3807C3F873
:10341000087B0AD5D6F81438190706D505EB8403BE
:1034200021462846DB685B689847FA071FD5D6F81F
:103430001438DB071BD505EB8403D968CCB98B693D
:10344000488A5A68B2FBF0F600FB16228AB918685F
:10345000DA6890420DD2121AC3E90024302383F3B4
:1034600011880B482146FFF789FF84F31188BDE8D6
:10347000F081012303FA04F26B8923EA02036B81D2
:10348000CB68002BF3D021460148BDE8F041184736
:103490007046002400EB81034A0170B5DD68D0F866
:1034A00090306C692668E66056BB1A444FF40020E1
:1034B000C2F810092A6802F00302012A0AB20ED1EA
:1034C000D3F8080803EB421410F4807FD4F8000905
:1034D00014BF40F0805040F00050C4F8000903EBE6
:1034E0004212D2F8000940F00440C2F8000901225B
:1034F000D3F8340802FA01F10143C3F8341870BD5F
:1035000019B9402E84BF4020206020681A442E8ABA
:103510008419013CB4FBF6F440EAC44040F000508A
:10352000C6E700002DE9F8433C4D04464701D5F8B5
:10353000906006EB4013D3F8088918F0010FC3F828
:1035400008891AD0D6F81038DB0716D505EB8003AA
:10355000D9684B691868DA68904231D2121A4FF074
:1035600000091A60C3F80490302383F311882146C0
:103570002846FFF78FFF89F3118818F0800F1DD0C0
:10358000D6F834380126A640334217D005EB840321
:103590000134D5F89050D3F80CC0E4B22F44DCF8D5
:1035A000142005EB0434D2F800E05168714515D3BE
:1035B000D5F8343823EA0606C5F83468BDE8F88340
:1035C000012303FA04F22B8923EA02032B818B687F
:1035D000002BD2D0214628469847CEE7AEEB010318
:1035E000BCF81000834228BF0346D7F8180980B200
:1035F000B3EB800FE2D89068A0F1040959F8048F6A
:10360000C4F80080A0EB09089844B8F1040FF5D87D
:1036100018440B4490605360C7E700BF7046002415
:103620002DE9F74FA94CD4F890506E69AB691E4054
:1036300016F480586E6107D02046FEF79FFC03B059
:10364000BDE8F04FFFF7F6BB002E12DAD5F8003ECA
:103650009B0705D0D5F8003E23F00303C5F8003ED4
:10366000D5F80438994823F00103C5F80438FEF76B
:10367000B3FC370505D59548FFF792FC9348FEF754
:1036800099FCB0040CD5D5F8083813F0060FEB6898
:1036900023F470530CBF43F4105343F4A053EB6076
:1036A00031071BD56368DB681BB9AB6923F00803DE
:1036B000AB612378052B0CD1D5F8003E9A0705D0D5
:1036C000D5F8003E23F00303C5F8003E7F48FEF71F
:1036D00083FC6368DB680BB17C489847F30200F118
:1036E000AA80B70228D5D4F8909000274FF0010A9D
:1036F000DFF8D8B109EB4712D2F8003B03F44023BE
:10370000B3F5802F11D1D2F8003B002B0DDA62897E
:103710000AFA07F322EA0303638104EB8703DB68F9
:10372000DB6813B13946584698470137D4F89430CE
:10373000FFB29B689F42DDD9F00619D5D4F890708E
:103740003A6AC2F30A1002F00F0302F4F012B2F563
:10375000802F00F0BD80B2F5402F09D104EB830328
:10376000002207F58057DB681B6A904240F0A0807A
:103770003303D5F818482CD5E70302D50020FFF70E
:103780003BFEA50302D50120FFF736FE600302D5FC
:103790000220FFF731FE210302D50320FFF72CFEA4
:1037A000E20202D50420FFF727FEA30202D505207E
:1037B000FFF722FE670202D50620FFF71DFE250255
:1037C00002D50720FFF718FEE00102D50820FFF719
:1037D00013FE71037FF533AFE20702D50020FFF738
:1037E000A1FEA30702D50120FFF79CFE670702D5C3
:1037F0000220FFF797FE260702D50320FFF792FE6F
:10380000E50602D50420FFF78DFEA00602D50520AF
:10381000FFF788FE610602D50620FFF783FE220629
:1038200002D50720FFF77EFEE3057FF508AF0820ED
:10383000FFF778FE03E7D4F8903000274FF0010936
:10384000DFF888A00193D4F894305FFA87FB9B6877
:103850009B453FF646AF019B03EB4B13D3F8001992
:1038600001F44021B1F5802F20D1D3F800190029AF
:103870001CDAD3F8001941F09041C3F80019D3F8CD
:1038800000190029FBDB5946D4F89000FFF7B4FB80
:10389000218909FA0BF321EA0303238104EB8B034B
:1038A000DB689B6813B15946504698470137CAE711
:1038B000910701D1D7F80080072A02F101029CBFCD
:1038C00003F8018B4FEA18284FE700BF7046002429
:1038D000023307F5805704EB83025268D2F818C010
:1038E000DCF80820DCE9001CA1EB0C0C002188426C
:1038F0000AD104EB830463689B699A6802449A6066
:103900005A6802445A6033E711F0030F01D1D7F827
:1039100000808C4501F1010184BF02F8018B4FEA60
:103920001828E4E7D0F8903003EB4111D1F8003BC0
:1039300043F40013C1F8003B70470000D0F890300A
:1039400003EB4111D1F8003943F40013C1F80039F9
:1039500070470000D0F8903003EB4111D1F8003BE4
:1039600023F40013C1F8003B70470000D0F89030FA
:1039700003EB4111D1F8003923F40013C1F80039E9
:103980007047000030B50433039C0172002104FB32
:103990000325C160C0E90653049B0363059BC0E98E
:1039A0000000C0E90422C0E90842C0E90A114363EB
:1039B00030BD00000022416AC260C0E90411C0E9C4
:1039C0000A226FF00101FEF711BE0000D0E90432B7
:1039D000934201D1C2680AB9181D70470020704790
:1039E000036919600021C2680132C260C2691344D0
:1039F00082699342036124BF436A0361FEF7EABD13
:103A000038B504460D46E3683BB162690020131DDA
:103A10001268A3621344E36207E0237A33B92946AC
:103A20002046FEF7C7FD0028EDDA38BD6FF0010033
:103A3000FBE70000C368C269013BC36043691344EC
:103A400082699342436124BF436A436100238362D6
:103A5000036B03B11847704770B53023044683F3F6
:103A60001188866A3EB9FFF7CBFF054618B186F389
:103A70001188284670BDA36AE26A13F8015B93427D
:103A8000A36202D32046FFF7D5FF002383F31188FA
:103A9000EFE700002DE9F84F04460E46174698461A
:103AA0004FF0300989F311880025AA46D4F828B0D0
:103AB000BBF1000F09D141462046FFF7A1FF20B11D
:103AC0008BF311882846BDE8F88FD4E90A12A7EBDA
:103AD000050B521A934528BF9346BBF1400F1BD9E3
:103AE000334601F1400251F8040B914243F8040BB4
:103AF000F9D1A36A403640354033A362D4E90A23A2
:103B00009A4202D32046FFF795FF8AF31188BD42FF
:103B1000D8D289F31188C9E730465A46FDF794F99F
:103B2000A36A5E445D445B44A362E7E710B5029C70
:103B30000433017203FB0421C460C0E906130023AF
:103B4000C0E90A33039B0363049BC0E90000C0E99A
:103B50000422C0E90842436310BD0000026A6FF00E
:103B60000101C260426AC0E904220022C0E90A22BF
:103B7000FEF73CBDD0E904239A4201D1C26822B9C4
:103B8000184650F8043B0B60704700231846FAE7CC
:103B9000C3680021C2690133C36043691344826969
:103BA0009342436124BF436A4361FEF713BD0000A3
:103BB00038B504460D46E3683BB1236900201A1D61
:103BC000A262E2691344E36207E0237A33B929462B
:103BD0002046FEF7EFFC0028EDDA38BD6FF001005B
:103BE000FBE7000003691960C268013AC260C2695C
:103BF000134482699342036124BF436A0361002333
:103C00008362036B03B118477047000070B530231F
:103C10000D460446114683F31188866A2EB9FFF7D4
:103C2000C7FF10B186F3118870BDA36A1D70A36A27
:103C3000E26A01339342A36204D3E1692046043966
:103C4000FFF7D0FF002080F31188EDE72DE9F84F52
:103C500004460D46904699464FF0300A8AF3118883
:103C60000026B346A76A4FB949462046FFF7A0FF92
:103C700020B187F311883046BDE8F88FD4E90A07F0
:103C80003A1AA8EB0607974228BF1746402F1BD9C0
:103C900005F1400355F8042B9D4240F8042BF9D15F
:103CA000A36A40364033A362D4E90A239A4204D37C
:103CB000E16920460439FFF795FF8BF311884645EB
:103CC000D9D28AF31188CDE729463A46FDF7BCF8E8
:103CD000A36A3D443E443B44A362E5E7D0E90423A4
:103CE0009A4217D1C3689BB1836A8BB1043B9B1A7C
:103CF0000ED01360C368013BC360C3691A44836973
:103D00009A42026124BF436A036100238362012354
:103D1000184670470023FBE700F03AB9014B586A98
:103D2000704700BF000C0040034B002258631A612B
:103D30000222DA60704700BF000C0040014B0022F5
:103D4000DA607047000C0040014B5863704700BFB9
:103D5000000C0040FEE7000070B51B4B0025044638
:103D600086B058600E4685620163FFF73BF804F1A8
:103D70001003A560E562C4E904334FF0FF33C4E9E2
:103D80000044C4E90635FFF7C9FF2B46024604F19B
:103D900034012046C4E9082380230C4A2565FEF738
:103DA000BFFB01230A4AE06000920375684672680F
:103DB0000192B268CDE90223064BCDE90435FEF746
:103DC000D7FB06B070BD00BF302B0024544800085C
:103DD00059480008553D0008024AD36A1843D0628A
:103DE000704700BFC82800244B6843608B6883601D
:103DF000CB68C3600B6943614B6903628B694362A3
:103E00000B6803607047000008B5404B40F2FF713B
:103E10003F48D3F888200A43C3F88820D3F8882085
:103E200022F4FF6222F00702C3F88820D3F888202A
:103E3000D3F840210A43C3F84021D3F868210A434C
:103E4000C3F86821334AD3F868311146FFF7CCFF35
:103E500000F5806002F11C01FFF7C6FF00F58060ED
:103E600002F13801FFF7C0FF00F5806002F1540154
:103E7000FFF7BAFF00F5806002F17001FFF7B4FFB1
:103E800000F5806002F18C01FFF7AEFF00F5806065
:103E900002F1A801FFF7A8FF00F5806002F1C4015C
:103EA000FFF7A2FF00F5806002F1E001FFF79CFF41
:103EB00000F5806002F1FC01FFF796FF02F58C71BE
:103EC00000F58060FFF790FF00F01EF9124B04210F
:103ED000D3F8902242F00102C3F89022D3F8942242
:103EE00042F00102C3F894220522C3F898204FF053
:103EF0006052C3F89C20094AC3F8A020C3F8981068
:103F00000749C3F89C10C3F8A02008BD004402581C
:103F1000000002586048000800ED00E01B000803A4
:103F20000040042408B500F0DDFAFEF7D7FA0F4B85
:103F3000D3F83C2142F04002C3F83C21D3F864217D
:103F400022F04002C3F86421D3F86431084B1A68A8
:103F500042F008021A601A6842F004021A6000F087
:103F60000BF8BDE80840FEF72DBD00BF0044025825
:103F70000018024870470000034B1A681AB9034A38
:103F8000D2F8D0241A607047244700240040025819
:103F9000114BD3F8482142F00802C3F84821D3F866
:103FA000702142F00802C3F870210C4AD3F8703136
:103FB000D36B43F00803D36340F21712084B9A62A5
:103FC0004FF0FF32DA6200229A615A63DA605A6077
:103FD00001225A611A607047004402580010005CC8
:103FE000000C0040094A08B51169D3680B40D9B2EA
:103FF0009B076FEA0101116107D5302383F3118814
:10400000FEF782FA002383F3118808BD000C0040FC
:1040100008B53C4B4FF0FF31D3F8802062F00042EE
:10402000C3F88020D3F8802002F00042C3F880203B
:10403000D3F88020D3F88420C3F88410D3F88420E8
:104040000022C3F88420D3F88400D86F40F0FF40EA
:1040500040F4FF0040F4DF4040F07F00D867D86FA5
:1040600020F0FF4020F4FF0020F4DF4020F07F002C
:10407000D867D86FD3F888006FEA40506FEA505085
:10408000C3F88800D3F88800C0F30A00C3F888009A
:10409000D3F88800D3F89000C3F89010D3F89000BC
:1040A000C3F89020D3F89000D3F89400C3F894108C
:1040B000D3F89400C3F89420D3F89400D3F8980070
:1040C000C3F89810D3F89800C3F89820D3F8980054
:1040D000D3F88C00C3F88C10D3F88C00C3F88C2074
:1040E000D3F88C00D3F89C00C3F89C10D3F89C1034
:1040F000C3F89C20D3F89C30FDF748F9BDE8084090
:1041000000F0C4B9004402585B4B0122C3F80821F7
:104110005A4BD3F8542142F00202C3F85421D3F889
:104120007C2142F00202C3F87C210222D3F87C31C8
:10413000534BDA605A689104FCD5524A1A60012246
:104140009A60514ADA6000221A614FF440429A6143
:104150004B4B9A699204FCD51A6842F480721A603B
:10416000464B1A6F02F44072B2F5007F04D04FF450
:1041700080321A6700221A671A6842F001021A6038
:104180003E4B1A685007FCD500221A611A6912F0DA
:104190003802FBD1012119604FF0804159605A6704
:1041A0003A4ADA623A4A1A611A6842F480321A606C
:1041B000324B1A689103FCD51A6842F480521A6097
:1041C0001A689204FCD5334A33499A6200225A6332
:1041D000196301F5FF31DA6301F5C47199635A641B
:1041E0002E4A1A642E4ADA621A6842F0A8521A60FD
:1041F000224B1A6802F02852B2F1285FF9D100224E
:104200009A61DA611A62274ADA644FF020221A654D
:10421000254A5A65254A9A653623254A136013684C
:1042200003F00F03062BFAD1144B1A6942F0030274
:104230001A611A6902F03802182AFAD1D3F83C211F
:1042400042F00052C3F83C21D3F8642142F00052FE
:10425000C3F86421D3F86421D3F83C2142F08042B2
:10426000C3F83C21D3F8642142F08042C3F86421B2
:10427000D3F86431704700BF0080005100440258F9
:104280000048025800C000F0020000010000FF01D9
:10429000008284028280800017030101630201030F
:1042A0005505FF01000001200210F000004101202F
:1042B000002000524FF0B04208B5D2F8883003F029
:1042C0000103C2F8883023B1044A13680BB1506867
:1042D0009847BDE80840FEF7ADBD00BF2847002461
:1042E0004FF0B04208B5D2F8883003F00203C2F8AC
:1042F000883023B1044A93680BB1D0689847BDE871
:104300000840FEF797BD00BF284700244FF0B04299
:1043100008B5D2F8883003F00403C2F8883023B11E
:10432000044A13690BB150699847BDE80840FEF78D
:1043300081BD00BF284700244FF0B04208B5D2F835
:10434000883003F00803C2F8883023B1044A936927
:104350000BB1D0699847BDE80840FEF76BBD00BFC0
:10436000284700244FF0B04208B5D2F8883003F057
:104370001003C2F8883023B1044A136A0BB1506AA3
:104380009847BDE80840FEF755BD00BF2847002408
:104390004FF0B04310B5D3F8884004F47872C3F8F6
:1043A0008820A30604D5124A936A0BB1D06A9847B5
:1043B000600604D50E4A136B0BB1506B984721066B
:1043C00004D50B4A936B0BB1D06B9847E20504D52B
:1043D000074A136C0BB1506C9847A30504D5044AE7
:1043E000936C0BB1D06C9847BDE81040FEF722BD2E
:1043F000284700244FF0B04310B5D3F8884004F4A8
:104400007C42C3F88820620504D5164A136D0BB1AF
:10441000506D9847230504D5124A936D0BB1D06DAA
:104420009847E00404D50F4A136E0BB1506E9847BD
:10443000A10404D50B4A936E0BB1D06E9847620469
:1044400004D5084A136F0BB1506F9847230404D565
:10445000044A936F0BB1D06F9847BDE81040FEF748
:10446000E9BC00BF2847002408B50348FDF7F6F86B
:10447000BDE80840FEF7DEBC5C24002408B5FFF769
:10448000B1FDBDE80840FEF7D5BC0000062108B527
:104490000846FDF769F906210720FDF765F90621B1
:1044A0000820FDF761F906210920FDF75DF90621D5
:1044B0000A20FDF759F906211720FDF755F90621C5
:1044C0002820FDF751F909217A20FDF74DF9072140
:1044D0003220FDF749F90C212520BDE80840FDF701
:1044E00043B9000008B5FFF793FD00F00DF8FDF7A4
:1044F000F9FAFDF7D1FCFDF7A3FBFFF73BFDBDE8A3
:104500000840FFF709BC00000023054A19460133A3
:10451000102BC2E9001102F10802F8D1704700BF68
:104520002847002410B501390244904201D10020EF
:1045300005E0037811F8014FA34201D0181B10BD0C
:104540000130F2E7034611F8012B03F8012B002A92
:10455000F9D1704753544D333248373F3F3F0053F2
:10456000544D3332483733782F3732780053544D17
:104570003332483734332F3735332F373530000057
:1045800001105A0003105900012058000320560062
:1045900010000240080002400008024000000B002A
:1045A00028000240080002400408024006010C00F6
:1045B00040000240080002400808024010020D00BE
:1045C00058000240080002400C08024016030E008A
:1045D000700002400C0002401008024000040F006E
:1045E000880002400C00024014080240060510003A
:1045F000A00002400C000240180802401006110002
:10460000B80002400C0002401C08024016072F00B0
:10461000100402400804024020080240000838004C
:104620002804024008040240240802400609390018
:10463000400402400804024028080240100A3A00E0
:1046400058040240080402402C080240160B3B00AC
:10465000700402400C04024030080240000C3C0090
:10466000880402400C04024034080240060D440055
:10467000A00402400C04024038080240100E45001D
:10468000B80402400C0402403C080240160F4600E9
:104690000096000000000000000000000000000084
:1046A000000000000000000000000000A51A000843
:1046B000911A0008CD1A0008B91A0008C51A000896
:1046C000B11A00089D1A0008891A0008D91A0008B2
:1046D00000000000BD1B0008A91B0008E51B000826
:1046E000D11B0008DD1B0008C91B0008B51B000812
:1046F000A11B0008F11B00080000000001000000E1
:104700000000000063300000044700082029002456
:10471000302B00244172647550696C6F740025421F
:104720004F415244252D424C002553455249414C9E
:10473000250000000200000000000000DD1D000850
:104740004D1E000840004000E0430024F0430024D8
:104750000200000000000000030000000000000054
:10476000951E000800000000100000000044002416
:10477000000000000100000000000000704600245E
:104780000101020061290008712800080D290008B4
:10479000F1280008430000009C470008090243007C
:1047A000020100C0320904000001020201000524D8
:1047B0000010010524010001042402020524060062
:1047C00001070582030800FF09040100020A000036
:1047D00000070501024000000705810240000000BB
:1047E00012000000E847000812011001020000401A
:1047F00009124157000201020301000004030904E9
:1048000025424F41524425004D6174656B48374144
:10481000330030313233343536373839414243444E
:104820004546000000000000F11F0008A922000812
:1048300055230008400040000C4700240C4700248A
:10484000010000001C4700240001000000100000CF
:10485000080000006D61696E0069646C650000000D
:104860000000801200000000AAAAAAAA000000000E
:10487000FFBF00000000000000000000100000A0CA
:1048800000000000AAAAAAAA10000050FFFF000022
:10489000000000000000004400010054000000007F
:1048A000AAAAAAAA00010050FFDF00000000000031
:1048B000000000000000000000000000AAAAAAAA50
:1048C00000000000FFFF00000000000000000000EA
:1048D0000000000000000000AAAAAAAA0000000030
:1048E000FFFF0000000000000000000000000000CA
:1048F00000000000AAAAAAAA00000000FFFF000012
:1049000000000000000000000000000000000000A7
:10491000AAAAAAAA00000000FFFF000000000000F1
:10492000000000000000000000000000AAAAAAAADF
:1049300000000000FFFF0000000000000000000079
:104940000000000000000000AAAAAAAA00000000BF
:10495000FFFF000000000000000000000000000059
:1049600000000000AAAAAAAA00000000FFFF0000A1
:104970000000000000000000000000000000000037
:10498000AAAAAAAA00000000FFFF00000000000081
:1049900000000000000000007D0400000000000096
:1049A00000001F0000000000FF000000382B002462
:1049B0005C2400240000000054450008830400002B
:1049C0005F450008500400006D4500080096000097
:1049D000000008009600000000080000040000002D
:1049E000FC4700080000000000000000000000007C
:0C49F000000000000000000000000000BB
:00000001FF
