:020000040800F2
:1000000000090020D1010008D52B00088D2B000825
:10001000B52B00088D2B0008AD2B0008D30100087C
:10002000D3010008D3010008D3010008713C000887
:10003000D3010008D3010008D3010008D301000850
:10004000D3010008D3010008D3010008D301000840
:10005000D3010008D3010008E9670008116800080F
:10006000396800086168000889680008D301000841
:10007000D3010008D3010008D3010008D301000810
:10008000D3010008D3010008D3010008412B000868
:100090006D2B00087D2B0008D3010008B168000813
:1000A000D3010008D3010008D3010008D3010008E0
:1000B00099690008D3010008D3010008D3010008A2
:1000C000D3010008D3010008D3010008D3010008C0
:1000D000D301000885690008D3010008D301000896
:1000E00015690008D3010008D3010008D3010008F6
:1000F000D3010008D3010008D3010008D301000890
:10010000D3010008D3010008D3010008D30100087F
:10011000D3010008D3010008D3010008D30100086F
:10012000D3010008D3010008D3010008D30100085F
:10013000D3010008D3010008D3010008D30100084F
:10014000D3010008D3010008D3010008855D000831
:10015000D3010008D3010008D3010008D30100082F
:10016000D3010008D3010008D3010008D30100081F
:10017000D3010008D3010008D3010008D30100080F
:10018000D3010008D3010008D3010008D3010008FF
:10019000D3010008D3010008D3010008D3010008EF
:1001A000D3010008D3010008D3010008D3010008DF
:1001B000D3010008D3010008D3010008D3010008CF
:1001C000C91400080000000000000000000000004A
:1001D00002E000F000F8FEE772B6374880F30888C6
:1001E000364880F3098836483649086040F20000F6
:1001F000CCF200004EF63471CEF200010860BFF37D
:100200004F8FBFF36F8F40F20000C0F2F0004EF648
:100210008851CEF200010860BFF34F8FBFF36F8F9C
:100220004FF00000E1EE100A4EF63C71CEF20001F4
:100230000860062080F31488BFF36F8F05F06AFA18
:1002400006F062F94FF055301F491B4A91423CBFFE
:1002500041F8040BFAE71D49184A91423CBF41F8A6
:10026000040BFAE71A491B4A1B4B9A423EBF51F84E
:10027000040B42F8040BF8E700201849184A914291
:100280003CBF41F8040BFAE705F048FA06F090F994
:10029000144C154DAC4203DA54F8041B8847F9E7B7
:1002A00000F042F8114C124DAC4203DA54F8041B32
:1002B0008847F9E705F030BA000900200011002056
:1002C0000000000808ED00E0000100200009002007
:1002D000606E000800110020C0110020C011002035
:1002E000D4440020C0010008C4010008C401000873
:1002F000C40100082DE9F04F2DED108AC1F80CD093
:10030000C3689D46BDEC108ABDE8F08F002383F3DF
:1003100011882846A047002004F02CFDFEE704F0D9
:10032000ABFC00DFFEE70000F8B501F049F905F08D
:1003300093F9074605F0E4F90546A8BB1F4B9F4219
:1003400032D001339F4232D01D4B27F0FF029A4238
:1003500030D1F8B200F00EFF2E4642F2107400F0D9
:100360000FFF08B10024264601F0F2FC20B1032063
:1003700000F07AF80024264635B1124B9F4203D094
:1003800005F0B6F900242646002005F06FF90EB1FD
:1003900000F080F801F04AFA00F026FF204600F055
:1003A000DBF800F077F8F9E72E460024D7E704469B
:1003B0000126D4E706464FF47A74D0E7010007B06F
:1003C000000008B0263A09B008B501F0C5F8A0F160
:1003D00020035842584108BD07B541F212030221DB
:1003E00001A8ADF8043001F0D5F803B05DF804FBC6
:1003F00038B5302383F31188174803680BB104F034
:1004000085FD164A144800234FF47A7104F074FDF8
:10041000002383F31188124C236813B12368013B36
:100420002360636813B16368013B63600D4D2B78F3
:1004300033B963687BB9022001F062F9322363604B
:100440002B78032B07D163682BB9022001F058F9F0
:100450004FF47A73636038BDC0110020F1030008C7
:10046000E0120020D8110020084B187003280CD887
:10047000DFE800F008050208022001F037B9022089
:1004800001F02CB9024B00225A607047D8110020AD
:10049000E012002010B501F05BFC30B1284B0322C4
:1004A0001A70284B00225A6010BD274B274A1C4661
:1004B00019680131F8D004339342F9D16268A2423D
:1004C000F2D3234B9B6803F1006303F520439A4268
:1004D000EAD205F0DFF805F0F1F8002001F08AF823
:1004E0000220FFF7C1FF1B4B9A6D00229A65996F9E
:1004F0009A67996FD96DDA65D96FDA67D96F196E16
:100500001A66D3F88010C3F88020D3F88020DA6A06
:1005100042F48052DA62DA6A22F48052DA62DB6AEA
:1005200072B64FF0E0233021C3F8084DD4E9003211
:1005300081F311889D4683F308881047B4E700BF14
:10054000D8110020E012002000A0000820A0000820
:1005500000110020001002402DE9F04F93B0AC4B89
:1005600000902022FF210AA89D6801F009F9A94AFC
:100570001378A3B9A848012103601170302383F3D5
:10058000118803680BB104F0C1FCA44AA2480023FF
:100590004FF47A7104F0B0FC002383F31188009BC0
:1005A00013B19F4B009A1A609E4A009C1378032B4C
:1005B0001EBF002313709A4A4FF0000A18BF536001
:1005C000D3465646D146012001F090F824B1944B11
:1005D0001B68002B00F01582002000F0BDFF039087
:1005E000039B002B01DA00F047FE039B002BEDDBA1
:1005F000012001F073F8039B213B162BE3D801A2E5
:1006000052F823F061060008890600081D0700085B
:10061000C7050008C7050008C7050008A7070008A8
:100620007709000891080008F30800081B09000872
:1006300041090008C705000853090008C70500085C
:10064000C509000801070008C7050008090A0008D5
:100650006D06000801070008C7050008F308000838
:100660000220FFF7B1FE002840F0F581009B022137
:10067000BAF1000F08BF1C4605A841F21233ADF8CD
:10068000143000F087FF9EE74FF47A7000F064FFAB
:10069000071EEBDB0220FFF797FE0028E6D0013FA4
:1006A000052F00F2DA81DFE807F0030A0D10133698
:1006B00005230593042105A800F06CFF17E05448BA
:1006C0000421F9E758480421F6E758480421F3E7E4
:1006D0004FF01C08404600F08FFF08F10408059019
:1006E000042105A800F056FFB8F12C0FF2D101202B
:1006F00000FA07F747EA0B0B5FFA8BFB4FF0000994
:1007000001F08AF826B10BF00B030B2B08BF002475
:10071000FFF762FE57E746480421CDE7002EA5D03B
:100720000BF00B030B2BA1D10220FFF74DFE074668
:1007300000289BD0012000F05DFF0220FFF794FE0F
:1007400000261FFA86F8404600F064FF044690B188
:100750000021404600F076FF01360028F1D1BA466C
:10076000044641F21213022105A8ADF814303E46AA
:1007700000F010FF27E70120FFF776FE2546244B07
:100780009B68AB4207D9284600F036FF013040F0A5
:1007900067810435F3E7234B00251D70204BBA46D3
:1007A0005D603E46ACE7002E3FF460AF0BF00B03FC
:1007B0000B2B7FF45BAF0220FFF756FE322000F0D8
:1007C000CBFEB0F10008FFF651AF18F003077FF43D
:1007D0004DAF0F4A926808EB050393423FF646AFD0
:1007E000B8F5807F3FF742AF124B0193B84523DD48
:1007F0004FF47A7000F0B0FE0390039A002AFFF6DF
:1008000035AF019B039A03F8012B0137EDE700BFD9
:1008100000110020DC120020C0110020F1030008AC
:10082000E0120020D811002004110020081100203F
:100830000C110020DC110020C820FFF7C5FD074681
:1008400000283FF413AF1F2D11D8C5F120024245F7
:100850000AAB25F0030028BF4246834901921844A1
:1008600000F068FF019A8048FF2100F089FF4FEAFD
:10087000A8037D490193C8F38702284600F088FF4A
:10088000064600283FF46DAF019B05EB830537E773
:100890000220FFF799FD00283FF4E8AE00F0E4FEE7
:1008A00000283FF4E3AE0027B846704B9B68BB427C
:1008B00018D91F2F11D80A9B01330ED027F003033C
:1008C00012AA134453F8203C05934046042205A97C
:1008D00001F028FA04378046E7E7384600F08CFE3E
:1008E0000590F2E7CDF81480042105A800F052FE2F
:1008F00006E70023642104A8049300F041FE0028C9
:100900007FF4B4AE0220FFF75FFD00283FF4AEAEE7
:10091000049800F09FFE0590E6E70023642104A8F8
:10092000049300F02DFE00287FF4A0AE0220FFF714
:100930004BFD00283FF49AAE049800F08DFEEAE7E4
:100940000220FFF741FD00283FF490AE00F09CFE2E
:10095000E1E70220FFF738FD00283FF487AE05A944
:10096000142000F097FE04210746049004A800F02C
:1009700011FE3946B9E7322000F0EEFD071EFFF602
:1009800075AEBB077FF472AE384A926807EB090375
:1009900093423FF66BAE0220FFF716FD00283FF4AE
:1009A00065AE27F003074F44B9453FF4A9AE48466A
:1009B00000F022FE0421059005A800F0EBFD09F1EE
:1009C0000409F1E74FF47A70FFF7FEFC00283FF4CA
:1009D0004DAE00F049FE002844D00A9B01330BD0F5
:1009E00008220AA9002000F0D3FE00283AD02022D5
:1009F000FF210AA800F0C4FEFFF7EEFC1C4804F03B
:100A0000BFF913B0BDE8F08F002E3FF42FAE0BF00E
:100A10000B030B2B7FF42AAE0023642105A805935A
:100A200000F0AEFD074600287FF420AE0220FFF75D
:100A3000CBFC804600283FF419AEFFF7CDFC41F215
:100A4000883004F09DF9059800F02EFF464600F02E
:100A5000E3FE3C46B7E5064652E64FF0000905E6E0
:100A6000BA467EE637467CE6DC1100200011002005
:100A7000A0860100094A136849F2690099B21B0C6B
:100A800000FB01331360064B186844F2506182B2D8
:100A9000000C01FB0200186080B2704714110020A6
:100AA0001011002010B500211022044600F068FE4D
:100AB000034B03CB206061601868A06010BD00BFCD
:100AC0009075FF1FF0B5ADF54F7D6CAC4FF4C4725F
:100AD00007460D462046002100F052FE02F082F843
:100AE000244B4FF47A72B0FBF2F0186093E80700E1
:100AF000022384E807000DF5E9702382FFF7D2FF97
:100B000041F204731C49238406A805F0EBFF192366
:100B100084F832310DF2E32206AB0DF1300C1E46A3
:100B200003CE664510605160334602F10802F6D1EB
:100B3000337813700DAE31460122204600F0D6FE08
:100B400000230393AB7E029305F11903019380B256
:100B50000123CDE904600093E97E04A3D3E90023D7
:100B6000384602F055FC0DF54F7DF0BD9E6AC4215C
:100B7000818A46EEE8120020F46A00082DE9F0416F
:100B80002C4C237ADAB080460D465BBB27A9284659
:100B900000F0D2FF0746002842D19DF89D60C82E84
:100BA0003ED801464FF4A662204600F0E9FD4FF41E
:100BB0008073C4F8F8314FF40073C4F80C334FF469
:100BC0004073C4F8203432460DF19E0104F109004F
:100BD00000F0B0FD26449DF89C30777223720BB96B
:100BE000EB7E23728122002106AC27A800F0C8FD0D
:100BF0000122214627A800F0E5FF00230393AB7EE6
:100C0000029305F1190380B201932823CDE9044032
:100C10000093E97E05A3D3E90023404602F0F8FBE8
:100C20005AB0BDE8F08100BFAFF300802641727278
:100C3000DF25D7B730230020F0B5254E4FF48A7555
:100C400005FB0065F1B096F8D83085F8DC3000245B
:100C5000D822214685F8E8403AA800F091FD06F137
:100C6000090000F085FDD5F8E4308DF8F000C2B23F
:100C700006AF06F109010DF1F100CDE93A3400F0BB
:100C800059FD394601223AA800F0D2FF80B2CDE9E1
:100C9000047008230127CDE9023706F1D803019338
:100CA00030230093317A0B4807A3D3E9002302F0E5
:100CB000AFFBA04206DD01F095FFC5F8E000384625
:100CC00071B0F0BD2046FBE778F6339F93CACD8D17
:100CD00030230020002300202DE9F0411D4D1E4E41
:100CE0001E4F86B0284602F0BFFB034658B30024CF
:100CF000CDE90344ADF81440027B8DF814209968C7
:100D00004068029403AA03C21B68DFF8548043F0D2
:100D10000043029301F068FF821941F1000300943F
:100D200002A9384601F0FCF9A04205DD284602F090
:100D30009FFB88F80040D5E798F80030072B05D8CE
:100D4000013388F8003006B0BDE8F081014802F0B8
:100D50008FFBF8E70023002040420F0068280020A6
:100D60006528002070B50D4614461E4602F0ACFA08
:100D700050B9022E10D1012C0ED112A3D3E90023B9
:100D8000C5E90023012007E0282C10D005D8012C4C
:100D900009D0052C0FD0002070BD302CFBD10BA347
:100DA000D3E90023ECE70BA3D3E90023E8E70BA387
:100DB000D3E90023E4E70BA3D3E90023E0E700BF76
:100DC000AFF30080401DA12026812A0B78F6339FC7
:100DD00093CACD8D9E6AC421818A46EE26417272E5
:100DE000DF25D7B7F017304A39059E5638B5054686
:100DF0000E4C0021013500F025FCA4F82C55B4F868
:100E00002C0500F007FC78B1B4F82C0500F012FCBA
:100E1000014648B9B4F82C0500F014FCB4F82C35A0
:100E20000133A4F82C35EAE738BD00BF3023002099
:100E300010B50A4B0A4A1A6003F5805393F87020E4
:100E40003AB9DC6E2CB1204601F000F8204601F0E2
:100E50003DF9BDE81040034800F0F8BF68280020C5
:100E6000586B0008C03800202DE9F04F8FB000AF5C
:100E700005460C4602F028FA00284BD1237E022BAF
:100E80001BD1E38A012B18D101F0ACFE0646FFF717
:100E9000F1FD03464FF4C870DFF8D482B3FBF0F2E3
:100EA00006F5167602FB103316FA83F3C8F8003005
:100EB000E37E33B9A74B00221A703C37BD46BDE82C
:100EC000F08F07F12401204600F0EAFD0028F4D15C
:100ED00007F11400FFF7E6FD97F8264007F114012B
:100EE000224607F1270005F0CBFD0028E2D10F2CA8
:100EF00008D8984B1C70D8F80030A3F51673C8F8C2
:100F00000030DAE797F824100029D6D0284602F0FE
:100F1000D3F9D2E7E38A282B33D010D8012B2BD07A
:100F2000052BCAD1BFF34F8F8B498C4BCA6802F493
:100F3000E0621343CB60BFF34F8F00BFFDE7302B60
:100F4000BBD1874EE17E327A9142B6D1607E314686
:100F5000002291F8DC50854200F0AD800132042A75
:100F600001F58A71F5D1326840F6B831FA328A4219
:100F700094BF32603160A0E721462846FFF7A2FD0A
:100F80009BE721462846FFF7F9FD96E7B2F8EC50BB
:100F90007B6005F103094FEA99094FEA8902D11DE7
:100FA000C908A8EBC1039D46EB460021584600F056
:100FB000E7FB04F1EE012A463144584600F0BAFB43
:100FC0007B6813B9012000F015FB96F8D20000F001
:100FD00021FB044630B9307200F046FB204600F099
:100FE00009FBB0E0D6F8D4203AB996F8D200B6F8AA
:100FF0002C25824201D8FFF7F9FED6F8D4202A44E6
:10100000944208D296F8D200B6F82C2501308242DC
:1010100001D8FFF7EBFE70685FFA89F2594600F0DD
:10102000B7FB08B9C54679E0726896F8D2002A4441
:101030007260D6F8D42005EB0209C6F8D49000F00F
:10104000E9FA814509D396F8D220D6F8D4000132C6
:10105000001B86F8D220C6F8D400FF2D0FD800243C
:10106000347200F001FB204600F0C4FA00F070FE7C
:101070003C4B188108B9FFF70DFAC5461DE7BB6860
:1010800096F8D9000AFB0362FB68D2F8E41082F8F4
:10109000E83001F58061C2F8E030C2F8E410FFF7F3
:1010A000CBFDFFF719FE96F8D920013202F00302BA
:1010B00086F8D920B6E74FF48A7A0AFB02F505F1E3
:1010C000EA013144204600F0E7FDF86000287FF493
:1010D000F4AE3544012285F8E82001F083FDD5F80F
:1010E000E020D6ED007ADFED206A801A192838BF9B
:1010F000192040F6B832904228BF1046B8EE677A01
:1011000007EE900AF8EEE77A67EEA67ADFED176A47
:10111000E7EE267AFCEEE77AC6ED007A96F8D9304B
:101120007168BB600AFB03F4321992F8E8505DB1B4
:10113000D2F8E4308B42E8463FF428AF002182F831
:10114000E810C2F8E010C5467368064A9B0A0133EE
:101150001381B2E6F922002000ED00E00400FA0558
:1011600030230020E8120020CDCCCC3D6666663FDF
:10117000FC220020014B1870704700BFF4120020C1
:1011800038B54FF00054144B22689A4221D1607D4B
:10119000F0B1124B124918701248237D03724FF4BC
:1011A0008073C0F8F8314FF40073C0F80C33002599
:1011B0004FF44073C0F82034C0F8E450C92209301D
:1011C00000F0B8FAE0222946204600F0D9FA0120C2
:1011D00038BD0020FCE700BF9AAD44C5F4120020E2
:1011E000160000203023002037B500F0B1FD194D66
:1011F000194928810223012218486B7101F08CFBE8
:1012000000230193164B174900931748174B4FF4CF
:10121000805202F029F8164B197811B1124802F0E9
:101220004BF801F0DFFC0446FFF724FC4FF4C873D1
:10123000B0FBF3F202FB130304F5167010FA83F00F
:101240000C4B186004F05CFA08B10F232B8103B03B
:1012500030BD00BFE812002040420F006828002087
:10126000650D0008F812002000230020690E000818
:10127000F4120020FC2200202DE9F04F2DED028B0E
:101280000FF23829D9E90089834C93B00BAE9FED5A
:101290007E8BFFF721FD814FDFF828A200230A9300
:1012A000ADF834300B9373604FF0000B5B468DED5F
:1012B000008B01250DF11D0207A938468DF81C5041
:1012C0008DF81DB001F0D6FA9DF81C30002B40F0CF
:1012D000A580204601F0F8FF0646002845D1704F52
:1012E00001F080FC3B6898423FD301F07BFC8246D2
:1012F000FFF7C0FB4FF4C873B0FBF3F202FB13031C
:101300000AF5167010FA83F03860664F97F800B04F
:10131000CBF1100ABBF1000F14BF33462B465FFA26
:101320008AFA0EA88DF82830FFF7BCFBBAF1060F39
:1013300028BF4FF0060A0EAB03EB0B0152460DF12E
:10134000290000F0F7F90AAB0393182302930AF17E
:101350000102554BD2B2CDE90053049220464CA372
:10136000D3E9002301F0F6FF3E7001F03BFC4F4A49
:101370004F4D1368C31AB3F57A7F2ED3106001F076
:1013800033FC02460B46204602F07CF8204601F072
:101390009BFF10B32B7A474E002B14BF032302236D
:1013A000737101F01FFC0EAF4FF47A730122B0FB92
:1013B000F3F039463060304600F04AFB18230293C0
:1013C0003D4B019380B240F25513CDE90370009379
:1013D00042464B46204601F0BDFF2B7A93B101F007
:1013E00001FC002607464FF48A7A95F8D90030446C
:1013F00000F003000AFB005393F8E82092B3013693
:10140000042EF2D1C82003F0BBFC2B7A002B7FF412
:101410003DAF13B0BDEC028BBDE8F08FDAF81430AD
:1014200083F08003CAF81430594610220EA800F049
:10143000A7F90DF11E0308AA0AA9384600F076FFA5
:1014400096E803000FAB83E803009DF834308DF875
:1014500044300A9B0E930EA9DDE90823204602F0D2
:10146000E5F921E7D3F8E02042B12B68FA2B38BF29
:10147000FA23BA1A0533B2EB430FC0D3FFF7DCFBF4
:101480000028BCD1BEE700BF000000000000000043
:10149000401DA12026812A0B00230020682800205F
:1014A000FC220020F9220020F822002060280020E1
:1014B00030230020E812002064280020F1C6A7C1D4
:1014C000D068080F0004004808B5054800F0CCFFBC
:1014D000BDE80840034A0449002005F0ADBA00BF4A
:1014E00068280020A0390020310E00082DE9F84FAF
:1014F0004FF47A73DFF85880DFF8589006460D46AF
:1015000002FB03F7002498F900305A1C5FFA84FAB2
:1015100001D0A34212D159F8240003682A46D3F817
:1015200020B031463B46D847854207D1074B0120C2
:1015300083F800A0BDE8F88F0124E4E7002CFBD07D
:101540004FF4FA7003F01CFC0020F3E794390020FC
:10155000181100201C11002007B5002302460121AC
:101560000DF107008DF80730FFF7C0FF20B19DF89F
:10157000070003B05DF804FB4FF0FF30F9E700000F
:101580000A4608B50421FFF7B1FF80F00100C0B2A0
:10159000404208BD30B4074B0A461978064B53F851
:1015A00021402368DD69054B0146AC46204630BC2E
:1015B000604700BF943900201C110020A086010064
:1015C00070B503F0F1FE094E094D30800024286803
:1015D0003388834208D903F0E3FE2B6804440133C7
:1015E000B4F5204F2B60F2D370BD00BF96390020B8
:1015F0005039002003F08ABF00F1006000F5204060
:101600000068704700F10060920000F5204003F090
:1016100007BF0000054B1A68054B1B889B1A8342C5
:1016200002D9104403F0BCBE00207047503900209E
:1016300096390020024B1B68184403F0B7BE00BF68
:1016400050390020024B1B68184403F0C1BE00BF94
:10165000503900200020704700F10050A0F51040E4
:10166000D0F8900570470000064991F8243033B156
:101670000023086A81F824300822FFF7C3BF012045
:10168000704700BF54390020014B1868704700BFF5
:10169000002004E030B50F4B0F4C1B682288C3F3C9
:1016A0000B030138934208440BD164680A46013C9D
:1016B000824213460BD214F9015F2DB102F8015B8F
:1016C000F6E781420B4602D22C2203F8012B581A6E
:1016D00030BD00BF002004E024110020022802BF1A
:1016E000014B80229A61704700040048022802BF23
:1016F000024B4FF400029A61704700BF000400489B
:10170000022801BF024A536983F080035361704786
:101710000004004870B504464FF47A764CB1412C71
:10172000254628BF412506FB05F003F029FB641B75
:10173000F4E770BD10B50023934203D0CC5CC454D1
:101740000133F9E710BD000010B5013810F9013F71
:101750003BB191F900409C4203D11AB10131013AE9
:10176000F4E71AB191F90020981A10BD1046FCE771
:1017700003460246D01A12F9011B0029FAD170471C
:1017800002440346934202D003F8011BFAE7704774
:101790002DE9F8431F4D144695F824200746884646
:1017A00052BBDFF870909CB395F824302BB92022FF
:1017B000FF2148462F62FFF7E3FF95F82400C0F1B0
:1017C0000802A24228BF2246D6B24146920005EB4B
:1017D0008000FFF7AFFF95F82430A41B1E44F6B23B
:1017E000082E17449044E4B285F82460DBD1FFF75B
:1017F0003BFF0028D7D108E02B6A03EB820383422A
:10180000CFD0FFF731FF0028CBD10020BDE8F8830F
:101810000120FBE754390020024B1A78024B1A7062
:10182000704700BF943900201811002038B5194CBA
:10183000194D204602F0F2FD2946204602F01AFE1C
:101840002D68EA6ED2F8043843F00203C2F8043877
:101850004FF47A70FFF75EFF1049284602F012FF3E
:10186000EA6E0F4DD2F8043828680E4923F00203BF
:10187000C2F80438A0424FF461430B6001D002F07B
:101880002DFD6868A04204D0BDE83840054902F04B
:1018900025BD38BD803C0020886C0008906C000895
:1018A0001C1100207C39002070B50C4B0C4D1E78AB
:1018B0000C4B55F826209A4204460DD00A4B0021C5
:1018C00018221846FFF75CFF0460014655F8260011
:1018D000BDE8704002F002BD70BD00BF9439002029
:1018E0001C110020803C00207C3900202DE9F347AA
:1018F0000D46044600219046284640F27912FFF733
:101900003FFF234620220021284601F031FF231DFE
:1019100002222021284601F02BFF631D03222221F1
:10192000284601F025FFA31D03222521284601F0AA
:101930001FFF04F1080310222821284601F018FF98
:1019400004F1100308223821284601F011FF04F1A8
:10195000110308224021284601F00AFF04F1120376
:1019600008224821284601F003FF04F11403202235
:101970005021284601F0FCFE04F11803402270219A
:10198000284601F0F5FE04F120030822B021284684
:1019900001F0EEFE04F121030822B821284601F0EF
:1019A000E7FE04F12207C0263B46314608222846BE
:1019B000083601F0DDFEB6F5A07F07F10107F3D18F
:1019C00094F832308DF8073031460DF107030822C4
:1019D000284601F0CDFE002604F1330A9DF80730B9
:1019E0004FEAC6099E4209F5A47720D394F8323114
:1019F000502B28BF50238DF80730B8F1000F08D1C5
:101A000039460DF107030722284601F0B1FE09F21D
:101A10004F17002604F233149DF807309E4207EB5F
:101A2000C6010DD30731C80802B0BDE8F0870AEB44
:101A3000060308223946284601F09AFE0136CDE712
:101A4000A3190822284601F093FE0136E4E70000BE
:101A500013B504460846002101602346C0F8031070
:101A60002022019001F084FE0198231D02222021F2
:101A700001F07EFE0198631D0322222101F078FE11
:101A80000198A31D0322252101F072FE019804F1A3
:101A900008031022282101F06BFE072002B010BDC0
:101AA000F7B5047F05460E462CB1838A122B02D966
:101AB000012003B0F0BD00231946072200962846F6
:101AC00001F01AFD731C0093012200230721284610
:101AD00001F012FDD4B9B31C00930522234608215E
:101AE000284601F009FD0D24B378102BE0D83746C5
:101AF000B278BB1B934210D32B7FA88A0734E4082B
:101B0000B3B9844294BF00200120D2E7AB8ADB0046
:101B1000083BDB08B3700824E6E7FB1C0093214672
:101B200000230822284601F0E7FC08340137DFE7EC
:101B3000201A18BF0120BCE7F7B5047F05460E4602
:101B40002CB1838ACA2B02D9012003B0F0BD002337
:101B5000194600960822284601F0CEFC731CD4B921
:101B60000822009311462346284601F0C5FC1024A4
:101B70007378C82BE8D8012372785F1C013B93422D
:101B800010D32B7FA88A0734E408B3B9844294BFEA
:101B900000200120D9E7AB8ADB00083BDB0873702B
:101BA0000824E5E7F319009321460023082228467C
:101BB00001F0A2FC08343B46DEE7201A18BF0120E2
:101BC000C3E70000F7B50D46044600211646284637
:101BD0008122FFF7D5FD234608220021284601F087
:101BE000C7FD94F901206378002AB8BF7F238DF8E0
:101BF00007309EB90DF1070307220821284601F09E
:101C0000B7FD0F27002602349DF807309E4207EBF0
:101C1000C60105D30731C80803B0F0BD0827F1E7B6
:101C2000A3190822284601F0A3FD0136ECE70000C5
:101C3000F7B50E460546002114463046CE22FFF782
:101C40009FFD2B4628220021304601F091FD2B7A82
:101C5000C82B28BFC8238DF807308CB90DF10703B6
:101C600008222821304601F083FD30242F469DF8BC
:101C700007207B1B934205D3E01DC00803B0F0BDD5
:101C80002824F3E707F1090321460822304601F032
:101C90006FFD08340137EAE7F7B5047F05460E46C5
:101CA00034B1838AB3F5827F02D9012003B0F0BD3D
:101CB0000096012310220021284601F01DFCDCB90A
:101CC000B31C0093092223461021284601F014FC7E
:101CD00019247388B3F5807FE7D837467288BB1B19
:101CE000934210D32B7FA88A0734E408B3B9844207
:101CF00094BF00200120D9E7AB8ADB00103BDB0852
:101D000073801024E5E73B1D009321460023082241
:101D1000284601F0F1FB08340137DFE7201A18BF2D
:101D20000120C3E730B5094D0A4491420DD011F8A6
:101D3000013B5840082340F30004013B2C4013F0C2
:101D4000FF0384EA5000F6D1EFE730BD2083B8ED01
:101D5000F7B5384A106851686B4603C36A4636497E
:101D60003648082304F09CFE0446002833D10A2597
:101D7000334A106851686B4603C36A4631492F489D
:101D8000082304F08DFE0446002849D00369B3F50A
:101D9000583F45D8B0F8661040F2174291423FD103
:101DA000294A024402F15C018B4239D35C3B23494E
:101DB00000209E1AFFF7B6FF3246074604F1640181
:101DC0000020FFF7AFFFA3689F4229D1E368984244
:101DD00008BF002524E00369B3F5583F27D8418B9D
:101DE00040F21742914220D1174A024402F11001F9
:101DF0008B4218D3103B114900209D1AFFF792FF28
:101E00002A46064604F118010020FFF78BFFA3685D
:101E10009E4202D1E368984201D00D25A8E7002533
:101E2000284603B0F0BD1025A2E70C25A0E70B253E
:101E30009EE700BF1C6B0008DC5F030000A00008E9
:101E4000256B0008905F03000860FFF710B5037C66
:101E5000044613B9006804F00BFE204610BD0000D4
:101E60000023BFF35B8FC360BFF35B8FBFF35B8F58
:101E70008360BFF35B8F7047BFF35B8F0068BFF376
:101E80005B8F704770B505460C30FFF7F5FF05F125
:101E9000080604463046FFF7EFFFA04206D9304659
:101EA0006D68FFF7E9FF2544281A70BD3046FFF73B
:101EB000E3FF201AF9E7000070B50546406898B1C5
:101EC00005F10800FFF7D8FF05F10C06044630467F
:101ED000FFF7D2FF8442304694BF6D680025FFF7BC
:101EE000CBFF013C2C44201A70BD000038B50C46D5
:101EF0000546FFF7C7FFA04210D305F10800FFF722
:101F0000BBFF04446868B4FBF0F100FB1144BFF36D
:101F10005B8F0120AC60BFF35B8F38BD0020FCE716
:101F20002DE9F041144607460D46FFF7C5FF8442F0
:101F300028BF0446D4B1B84658F80C6B4046FFF7AA
:101F40009BFF3044286040467E68FFF795FF331AB8
:101F50009C4203D86C600120BDE8F0816B60A41B3B
:101F60003B68AB602044E8600220F5E72046F3E7D9
:101F700038B50C460546FFF79FFFA04210D305F188
:101F80000C00FFF779FF04446868B4FBF0F100FB34
:101F90001144BFF35B8F0120EC60BFF35B8F38BD52
:101FA0000020FCE72DE9FF41884669460746FFF718
:101FB000B7FF6C4606B204EBC6060025B44209D052
:101FC0006268206808EB0501FFF7B4FB636808341A
:101FD0001D44F3E729463846FFF7CAFF284604B0F8
:101FE000BDE8F081F8B505460C300F46FFF744FF19
:101FF00005F1080604463046FFF73EFFA042304692
:1020000088BF6C68FFF738FF201A386020B130466F
:102010002C68FFF731FF2044F8BD000073B514466B
:1020200006460D46FFF72EFF844228BF0446019066
:10203000DCB101A93046FFF7D5FF019B33B9326807
:10204000C5E90233C5E9002401200CE09C4238BFF9
:1020500001942860019868608442F5D93368AB60C8
:10206000241AEC60022002B070BD2046FBE700009D
:102070002DE9FF410F466946FFF7D0FF6C4600B2DD
:1020800004EBC0050026AC4209D0D4F8048054F813
:10209000081BB8194246FFF74DFB4644F3E73046AC
:1020A00004B0BDE8F081000038B50546FFF7E0FF59
:1020B000044601462846FFF719FF204638BD0000B8
:1020C0000121884238BF084604F0BCBC08B104F0C6
:1020D000CFBC704710B4026854681A4623465DF8B6
:1020E000044B1847002070470020704770470000DD
:1020F000002070470E20704700F5805090F8D800FF
:10210000C0F340007047000000F5805090F9E000F7
:102110007047000000F58050C0F8DC1001207047C7
:10212000F7B50C68BDF8207014F0005473D10D7B26
:10213000082D70D8302585F31188456AAE68760180
:102140000CD4AC68240108D4AC6814F0805460D17D
:1021500084F31188204603B0F0BD01240E6804F119
:10216000180C002EB8BFF6004FEA0C1CB4BF46F0A6
:102170000406760545F80C600E680FFA84FC16F02C
:10218000804F18BF05EB0C1E05EB0C1C1EBFDEF8C4
:10219000806146F00206CEF880610E7BCCF8846147
:1021A00005EB04158E68C5F88C614E68C5F888612A
:1021B000DCF8805145F00105CCF8805141F27805FA
:1021C00000EB441C660105EB4414AC440444CCE928
:1021D00000230D46083401F10C0C55F804EB44F8CB
:1021E00004EB6545F9D12D882580841904F58054C8
:1021F00007F0030594F8946026F00B06354384F845
:102200009450002484F31188009700F035FD0120DC
:10221000A1E70224A2E74FF0FF309CE713B500F5D9
:1022200080540191E06EFFF747FE1F280AD90199FB
:10223000E06E2022FFF7B6FEA0F12003584258417D
:1022400002B010BD0020FBE708B5302383F31188EE
:1022500000F58050C06EFFF703FE002383F3118862
:1022600008BD0000002202608281426082607047E7
:1022700010B500220023C0E9002300230446038197
:102280000C30FFF7EFFF204610BD0000F0B505460B
:1022900000F580500C4690F8D83013F0040FC3F3CB
:1022A000800108BF114661F3820380F8D83005EB46
:1022B000441303F58453103389B01B79D8074FEAD0
:1022C00044162FD582B319072ED46846FFF7D0FFE6
:1022D00005EB441303F5845303AA03F108071868B8
:1022E0005968144603C40833BB422246F7D1186824
:1022F00020609B88A380DDE90E23CDE90023012324
:10230000ADF808302B6869461B6C28469847354461
:1023100005F5845510352B791A075CBF43F0080387
:102320002B7101E0002AF2D109B0F0BD2DE9F04790
:102330009A4688B0074688469146302383F3118831
:1023400007F580546846FFF793FFE06EFFF79AFDAC
:102350001F282AD9E06E20226946FFF7A5FE202813
:1023600023D103AD444605AB2E4603CE9E422060EA
:102370006160354604F10804F6D130682060B38806
:10238000A380DDE90023C9E90023BDF80830AAF8DD
:102390000030002383F3118853464A4641463846AD
:1023A00008B0BDE8F04700F02BBC002080F3118896
:1023B00008B0BDE8F08700002DE9F84F1822044668
:1023C0000F4604300021FFF7DBF92046234B40F88D
:1023D000283BFFF747FF04F13800FFF749FF04F1FE
:1023E000580804F582554646183530462036FFF722
:1023F0003FFFAE42F9D104F580554FF480534FF0C2
:102400000009C5E91739C5F858800123EE6604F5BF
:10241000875804F58456C5F8649085F8683085F8C7
:102420007030183608F118084FF0000A4FF0000B12
:1024300046E908ABA6F11800FFF714FF203646F86E
:10244000289C4645F4D185F8E07017B1044800F0A7
:10245000C3FB044B63622046BDE8F88F586B00084D
:10246000306B00080064004010B5044B1978044636
:102470004A1C1A70FFF7A0FF204610BD9C390020AF
:102480002DE9F047002950D0294B2A4FB7FBF1F531
:1024900099428CBF0A231123581EB5FBF3FC03FBA2
:1024A0001C53C4B22BB102280346F5D80020BDE866
:1024B000F0870CF1FF36B6F5806FF7D2C4EBC40E8F
:1024C0000EF103034FEAE309C3F3C703A4EB0308C8
:1024D00009F1010A4FF47A755FFA88F009FB055596
:1024E0005AFA88F8B5FBF8F5B5F5617FC1BF0EF172
:1024F000FF33C3F3C703E01AC0B25C1C50FA84F484
:102500000CFB04F4B7FBF4F4A142CFD1013BDBB2E6
:102510000F2BCBD80138C0B20728C7D800211071C3
:1025200016809170D3700120C1E70846BFE700BF55
:102530003F420F0000B4C40470B505460E464FF488
:102540007A746B6A5B6803F00103B34207D04FF4FF
:102550007A7002F015FC013CF3D1204670BD0120D9
:10256000FCE7000070B5426A936913F0700F17D052
:1025700000230C4D936141F2900400EB431222447E
:1025800011794E0709D5890707D5416A55F82360A7
:102590008E60117941F0040111710133032BECD1EC
:1025A00070BD00BF446B000873B51D46436A1646F4
:1025B0009A68D207044609D59A6801219960C2F346
:1025C0004002CDE900650021FFF760FE636A9A686A
:1025D000D1050BD59A684FF480719960C2F34022FF
:1025E000CDE9006501212046FFF750FE636A9A6835
:1025F000D2030BD59A684FF480319960C2F3404200
:10260000CDE9006502212046FFF740FE04F5805326
:10261000D3F8DC0010B103681B699847204602B06C
:10262000BDE87040FFF79EBFF8B50446466A002932
:1026300077D106F10C073868800775D006EB0115D5
:102640003868D5F8B00110F0040FD5F8B0011ABF02
:10265000C00840F00040400DA062D5F8B0C11CF0A9
:10266000020F1CBF40F08040A062D5F8B40106EB19
:10267000011100F00F0084F83400D1F8B80184F89B
:102680002C00D1F8B801000A84F82D00D1F8B80167
:10269000000C84F82E00D1F8B801000E84F82F0049
:1026A000D1F8BC0184F83000D1F8BC01000A84F8EC
:1026B0003100D1F8BC01000C84F83200D1F8BC1113
:1026C000090E84F833103821396004F1440004F114
:1026D000280104F1340551F8046B40F8046BA94259
:1026E000F9D109880180C4E90E2321460023A4F80A
:1026F000403051F8383B20461B6C984704F5805316
:1027000093F8D820D3F8DC0042F0040283F8D820F4
:1027100010B103681B6998472046BDE8F840FFF7F1
:1027200021BF06F1100786E7F8BD000010B504468A
:1027300000F05AFA02460B4652EA030102D0013A6F
:1027400063F100030449086820B12146BDE8104048
:10275000FFF76ABF10BD00BF98390020F0B53021E7
:1027600081F31188DFF848E000F583511831002427
:1027700041F2900C00EB441565442E7977070ED496
:10278000F6060CD5D1E9007697429E4107D2466AFB
:102790005EF82470B7602E7946F004062E7101347D
:1027A000032C01F12001E5D1002383F31188F0BD52
:1027B000446B000808B5302383F31188FFF7D2FE7D
:1027C000002383F3118808BD2DE9F041436A0446D4
:1027D000986800F0E050B0F1E05F0E4622D0F8B10A
:1027E000302383F31188002504F5845741F29008C3
:1027F00004EB451343441B791A0706D50135032D15
:1028000007F12007F4D1012007E05B07F6D4394631
:10281000304600F083FA0028F0D1002383F31188BA
:10282000BDE8F0810120FBE708B5302383F3118870
:1028300000F58050C06EFFF725FB002383F311885D
:1028400043090CBF0120002008BD0000F8B51D465B
:10285000002313700F4606461446FFF7E5FF80F08D
:102860000100387025B129463046FFF7ADFF2070D2
:10287000F8BD00002DE9B8410C4615461F468046BC
:1028800000F0B2F90B462178024609B9287850B118
:102890004046FFF763FFFFF78DFF3B462A46214680
:1028A000FFF7D4FF0120BDE8B881000070B53026E5
:1028B00086F31188174B9A6D42F000729A659A6BF5
:1028C00042F000729A639A6B22F000729A630023BE
:1028D00083F3118800F5805494F8D83013F0010583
:1028E00016D1A9B186F311880321132001F040FB12
:1028F0000321142001F03CFB0321152001F038FBDB
:1029000094F8D83043F0010384F8D83085F3118867
:1029100070BD00BF001002402DE9F04700F5805562
:1029200088B095F8E030012B04468846164600F240
:102930008280824F57F823200AB947F82300D7F83E
:1029400000A0C4F81C8084F82060BAF1000F64D0A5
:1029500095F8E030012B70D001212046FFF7A6FF4B
:10296000302383F31188626A136823F00203136033
:10297000626A136843F001031360636A00275F61B2
:1029800087F3118801212046FFF7D6FD002800F0CB
:102990009580E86EFFF764FA04F58359BA4609F1A9
:1029A0001809202200216846FEF7EAFE02A8FFF778
:1029B00059FCCDF818A06A4609EB07030DF1180E73
:1029C0009446BCE80300F44518605960624603F180
:1029D0000803F5D1DCF80000186020379CF80420CB
:1029E0001A71602FDDD195F8D8306FF3820300277C
:1029F00085F8D8306A4641462046ADF80070ADF8FB
:102A000002708DF80470FFF73BFD636A48BB4FF41A
:102A100000421A6008B0BDE8F08741F2E800FFF715
:102A20004FFB814610B15146FFF7C6FCC7F8009036
:102A3000B9F1000F8CD10020ECE7386803681B6BFC
:102A400098470146002887D13868FFF72FFF38687C
:102A5000036832465B684146984700287FF47CAFA4
:102A6000E9E761221A609DF802309DF803201B06F9
:102A7000120402F4702203F040731343BDF80020E7
:102A8000C2F3090213439DF804201205022E02F43A
:102A9000E0020CBF4FF0004100211343626A0B4378
:102AA000D361636A13225A61626A136823F00103D7
:102AB000136039462046FFF73FFD08B9636AA6E771
:102AC00095F8E03093BB616AD1F8002242F0010230
:102AD000C1F80022616AD1F8002222F47C5222F06F
:102AE0000E02C1F80022616AD1F8002242F460624D
:102AF000C1F80022626AC2F81432626AC2F8043273
:102B0000626A41F6FF71C2F80C12626AC2F8403282
:102B1000626AC2F84432636A0122C3F81C22626A04
:102B2000D2F8003223F00103C2F8003295F8D83011
:102B300043F0020385F8D8306CE700BF98390020D5
:102B400008B500F051F850EA0103024602D0421ED7
:102B500061F10001044B186810B10B46FFF724FD2A
:102B6000BDE8084001F0B8B89839002008B5002049
:102B7000FFF7DCFDBDE8084001F0AEB808B5012064
:102B8000FFF7D4FDBDE8084001F0A6B800B59BB042
:102B9000EFF3098168226846FEF7CCFDEFF3058369
:102BA000014B9B6BFEE700BF00ED00E008B5FFF7AF
:102BB000EDFF000000B59BB0EFF309816822684685
:102BC000FEF7B8FDEFF30583014B5B6BFEE700BF3B
:102BD00000ED00E0FEE700000FB408B5029802F037
:102BE00075F8FEE702F0D2BC02F0B4BC0139C9B2FC
:102BF00002299EBF00EBC1000023C0E901337047EA
:102C0000F8B51B885B0705460E4615D4044600F14F
:102C10001807BC4210D0636853B12B682846DB6BA1
:102C20009847A368C1B23246606898470834F0E715
:102C3000A368002BF1D1F9E70120F8BD73B56C460C
:102C400084E80600014600224E68D5B26EB98E684F
:102C50005EB900EBC200021D94E80300013582E872
:102C600003001D70012002B070BD0132032A01F182
:102C70000801E9D10020F6E72DE9F04F89B00446BC
:102C8000BDF848700E46054600F118084FF00009DF
:102C900007F004074FF0000A4FF0000BA84538D0AA
:102CA0006B680BB9AB684BB157B923682046DB6B37
:102CB0009847AB68C1B23246686898470835EDE777
:102CC000B9F1000FFAD1CDE900ABADF80890334669
:102CD00003AA06F1080E186859689446ACE8030088
:102CE000083373456246F6D11868CCF800009B881B
:102CF000ACF80430FFF778FF0423ADF80830236800
:102D0000CDE900011B6C6946204698474FF0010948
:102D1000D4E7012009B0BDE8F08F000030B50368AA
:102D20000968DD0FB5EBD17F23F0604421F06042EC
:102D30004FEAD1700BD0002BB8BFA40C0029B8BF4C
:102D4000920C944202D034BF0120002030BD944246
:102D500005D1C1F38070C3F380738342F6D19442EE
:102D60002CBF00200120F1E72DE9F041456A15B99B
:102D70004162BDE8F0814B6823F06047C3F38A46A7
:102D80004FEAD37EC3F3807816EA230638BF3E4667
:102D9000AC462B465A68BEEBD27F22F060440AD084
:102DA000002A18DAA40CB44217D19D420FD10D604D
:102DB000DEE71346EEE7A74207D102F08044C2F3F4
:102DC000807242450BD054B1EFE708D2EDE7CCF862
:102DD00000100B60CDE7B44201D0B442E5D81A68C8
:102DE0009C46002AE5D11960C3E700002DE9F047B1
:102DF000089D01F007044FEAD508224405F00705B5
:102E000000EBD1004FF47F49944201D1BDE8F08737
:102E100004F0070705F0070A57453E4638BF5646F7
:102E2000C6F10806111B8E4228BF0E46E10808EBCA
:102E3000D50E415C13F80EC0B94029FA06F721FA05
:102E40000AF1FFB28CEA010147FA0AF739408CEA2D
:102E5000010C03F80EC034443544D5E780EA012064
:102E6000082341F2210201B24000002980B203F19F
:102E7000FF33B8BF504013F0FF03F4D17047000098
:102E800038B50C468D18A54200D138BD14F8011B89
:102E9000FFF7E4FFF7E7000042684AB113684360B8
:102EA0004389818901339BB29942438138BF838131
:102EB0001046704770B588B0202204460D4668461B
:102EC0000021FEF75DFC20460495FFF7E5FF024672
:102ED00058B16B46054608AE1C4603CCB442286088
:102EE0006960234605F10805F6D1104608B070BDAB
:102EF000082817D909280CD00A280CD00B280CD088
:102F00000C280CD00D280CD00E2814BF40203020E7
:102F100070470C207047102070471420704718200D
:102F20007047202070470000082817D90C280CD9BA
:102F300010280CD914280CD918280CD920280CD901
:102F400030288CBF0F200E207047092070470A20C0
:102F500070470B2070470C2070470D207047000011
:102F60002DE9F843078C072F04461ED9D0E90298B3
:102F700000254FF6FF73C5F12006A5F1200029FAC0
:102F800005F108FA06F628FA00F031430143C9B208
:102F90001846FFF763FF0835402D0346EBD1E16982
:102FA0003A46BDE8F843FFF76BBF4FF6FF70BDE848
:102FB000F883000010B54B6823B9CA8A63F309028D
:102FC000CA8210BD04691A681C600361C38A013B90
:102FD000C3824A60EFE700002DE9F84F1D46CB8A17
:102FE0000F46C3F309010529814692460B4630D0AE
:102FF0000020AAB207F11A049EB2042E1FFA80F82C
:103000000FD8904503F1010306D3FB8A0A4462F30B
:103010000903FB8201201AE01AF80060E65401302F
:10302000EAE79045F1D2A1F1050B1C237C68BBFBBC
:10303000F3F203FB12BB1FFA8BF6002C45D1484676
:10304000FFF72AFF044638B978606FF00200BDE848
:10305000F88F4FF00008E6E7002606607860ADB212
:103060004FF0000B454510D90AEB0803221D13F859
:10307000011B9155B1B208F101081B291FFA88F80C
:103080002BD0454506F10106F1D8FB8AC3F30902AE
:10309000154465F30903BCE7013292B21C4623686C
:1030A000002BF9D16B1F0B441C21B3FBF1F301334F
:1030B0009BB29A42D3D2BBF1000FD0D14846FFF762
:1030C000EBFE20B9C4F800B0BFE70122E7E7C0F883
:1030D00000B05E4620600446C1E74545D5D9484664
:1030E000FFF7DAFE08B92060AFE7C0F800B00026AD
:1030F00020600446B6E700002DE9F04F2DED028B6D
:103100001C4683B05B69019207468846002B00F09D
:10311000A780238C2BB1E269002A00F0A180072B45
:1031200035D807F10C00FFF7B7FE054638B96FF048
:103130000205284603B0BDEC028BBDE8F08F1422D7
:103140000021FEF71DFB228CE16905F10800FEF766
:10315000F1FA208C013080B2FFF7E6FEFFF7C8FEDF
:10316000013880B22084013028746369228C1B7876
:103170002A4403F01F0363F03F0348F00041137239
:10318000384669602946FFF7EFFD0125D1E7023394
:103190009BB20722C18A0633B3FBF2F3828A521A2A
:1031A0009BB292B29342C2D800F10C034FF00009D7
:1031B00008EE103A4FF0800A4E464D4618EE100ABF
:1031C000FFF76AFE83460028B1D014220021FEF7E3
:1031D000D7FA002E3AD1019BABF8083002220BF14E
:1031E000080E1FFA82FC0CF10100BCF1060F218CC5
:1031F00080B201D88E422BD3FFF796FEFFF778FE00
:1032000062691278013802F01F028E4208BF4FF047
:10321000400A42EA49121BFA80F14AEA020A0130E6
:1032200048F0004281F808A08BF81000CBF8042089
:1032300059463846FFF798FD238C0135B3422DB22D
:1032400089F001094FF0000AB8D172E70022C6E701
:10325000E169895D0EF802100136B6B20132C0E7AD
:103260006FF0010565E70000F8B515460E463022FF
:10327000002104461F46FEF783FA069B6360B5F5FE
:10328000001F079BA76034BF6A094FF6FF72A36255
:1032900097B2E66104F1100000239A4206D8002399
:1032A0000360A782E3822383E360F8BD06600133F5
:1032B00030462036F1E7000003781BB94BB2002BF3
:1032C000C8BF01707047000000787047F8B50C4621
:1032D000C969074611B9238C002B37D1257E1F2DD4
:1032E00034D8387828BB228C072A2CD8268A36F086
:1032F00003032BD14FF6FF70FFF7C2FD20F0010052
:103300003102400441EA0561400C41EA40254FF694
:10331000FF72234629463846FFF7EEFE002807DDF8
:10332000626913780133DBB21F2B88BF002313704F
:10333000F8BD218A2D0645EA012505432046FFF701
:103340000FFE0246E5E76FF00300F1E76FF00100C2
:10335000EEE7000070B58AB0044616460021282228
:1033600068461D46FEF70CFABDF83830ADF810304F
:103370000F9B05939DF840308DF81830119B0793F3
:103380006946BDF84830ADF820302046CDE90265E9
:10339000FFF79CFF0AB070BD2DE9F041D3690546E7
:1033A0000C4616460BB9138C5BBB377E1F2F28D8F3
:1033B00095F80080B8F1000F26D03046FFF7D0FD19
:1033C0003378210241EAC33141EA0801338A41EAF4
:1033D000076141EA03410246334641F08001284635
:1033E000FFF78AFE00280ADD3378012B07D17269C6
:1033F00013780133DBB21F2B88BF00231370BDE8A5
:10340000F0816FF00100FAE76FF00300F7E70000CA
:10341000F0B58BB004460D461746002128226846B9
:103420001E46FEF7ADF99DF84C305A1E53425341EB
:103430008DF800309DF84030ADF81030119B0593A9
:103440009DF848308DF81830149B07936A46BDF8F4
:103450005430ADF8203029462046CDE90276FFF7FA
:103460009BFF0BB0F0BD0000406A00B10430704714
:10347000436A1A68426202691A600361C38A013BA7
:10348000C38270472DE9F041D0F82080194E1446D0
:103490001D464146002709B9BDE8F081D1E9022364
:1034A000A21A65EB0303964277EB03031ED2036A6D
:1034B0008B420DD1FFF77EFD036A1B68036203692F
:1034C0000B60C38A0161016A013BC3828846E2E75F
:1034D000FFF770FD0B68C8F8003003690B60C38A02
:1034E0000161013BC382D8F80010D4E7884609681F
:1034F000D1E700BF80841E002DE9F04F8BB00D4650
:10350000DDF8509014469B468046002800F0198153
:10351000B9F1000F00F01581531E3F2B00F211810D
:10352000012A03D1BBF1000F40F00B810023CDE94C
:103530000833B8F81430B5EBC30F4FEAC30703D311
:1035400000200BB0BDE8F08F2B199F42D8F80C304B
:103550003ABF7F1BFFB227461BB9D8F81030002BAB
:103560007AD0272D4ED8C5F12806B7424FF0000378
:103570002CBFF6B23E4600932946D8F8080008ABA7
:103580003246FFF733FCA7EB060A35445FFA8AFAA6
:10359000B8F8143003F10053053BDB000493D8F86E
:1035A0000C3003932821039B13B1BAF1000F2CD1E7
:1035B000D8F8100040B1BAF1000F05D0009608AB62
:1035C0005246691AFFF712FC38B2002FB8D06607CE
:1035D0000AD00AAB03EBD401624211F8083C02F0B6
:1035E0000702134101F8083C082C3CD9102C40F28A
:1035F000B580202C40F2B780BBF1000F00F09C801A
:10360000082334E0BA460026C2E7049BE02B28BF1B
:10361000E02306930B44AB42059314D95A1B03983D
:103620000096924534BF5246D2B2691A08AB0430B4
:103630000792FFF7DBFB079A1644AAEB020A154430
:10364000F6B25FFA8AFA049B069A05999B1A0493CC
:10365000039B1B680393A6E70093D8F8080008AB08
:103660003A462946AEE7BBF1000F13D00123B4EB75
:10367000C30F6CD0082C12D89DF82030621E23FA9C
:1036800002F2D50706D54FF0FF3202FA04F42343C5
:103690008DF820309DF8203089F8003051E7102C4B
:1036A00012D8BDF82030621E23FA02F2D10706D5E7
:1036B0004FF0FF3202FA04F42343ADF82030BDF896
:1036C0002030A9F800303CE7202C0FD80899631E61
:1036D00021FA03F3DA0705D54FF0FF3202FA04F4BA
:1036E0000C430894089BC9F800302AE7402C2BD0E3
:1036F000DDE90865611EC4F12102A4F1210326FA67
:1037000001F105FA02F225FA03F311431943CB073D
:1037100012D50122A4F12003C4F1200102FA03F31F
:1037200022FA01F1A240524243EA010363EB430350
:1037300032432B43CDE90823DDE90823C9E90023FF
:10374000FFE66FF00100FCE66FF00800F9E6082CD8
:10375000A0D9102CB3D9202CEED8C3E7BBF1000FB1
:10376000ADD0022383E7BBF1000FBBD004237EE77B
:1037700030B5012A144638BF0124402C85B028BF3B
:1037800040240025012ACDE9025518D81B788DF870
:10379000083063070AD004AB03EBD405624215F886
:1037A000083C02F00702934005F8083C00910346EC
:1037B0002246002102A8FFF719FB05B030BD082AF8
:1037C000E4D9102A03D81B88ADF80830E1E7202A95
:1037D0008DBFD3E900231B680293CDE90223D8E70C
:1037E00010B5CB681BB98B600B618B8210BD04696F
:1037F0001A681C600361C38A013BC382CA60F0E798
:1038000003064CBFC0F3C0300220704708B5024623
:10381000FFF7F6FF022806D15306C2F30F2001D1AD
:1038200000F0030008BDC2F30740FBE72DE9F04FAD
:1038300093B0CDE903230A6804461046FFF7E0FF82
:10384000022814BFC2F306260026002A0D4682462F
:1038500080F2F78112F0C04940F0F381097B002922
:1038600000F0EF81022803D02378B34240F0EC81CE
:10387000C2F304630693104602F07F030593FFF73B
:10388000C5FF059B29444FEA834848EA0A4848EAAD
:103890004668CE7800230022CDE90823F309834649
:1038A00048EA0008029367D0059B009302466768C8
:1038B000534608A92046B847002800F0C881276A67
:1038C0004FB9414604F10C00FFF7F4FA074690B9EE
:1038D0006FF0020054E03B6998450DD03F68002F1F
:1038E000F9D1414604F10C00FFF7E4FA074600283D
:1038F000EED0236A3B60276297F817C006F01F08D6
:10390000CCF3840CACEB08001FFA80FE0028B8BF93
:103910000EF12000A8EB0C031FFA83FED7E9022169
:10392000B8BF00B2002B0793BEBF0EF120031BB23D
:10393000079352EA010338D0039BDFF824E39A1A75
:10394000049B4FF0000C63EB010196457CEB0103F7
:103950002BD36B7B97F81AE0734519D1029B002B90
:1039600078D0012821DC7868F8B9DFF8F0C29445F6
:1039700070EB010316D337E0276A27B96FF00C000C
:1039800013B0BDE8F08F3B699845B5D03F68F4E7C8
:10399000B24890427CEB010301D30020F0E7029B88
:1039A000002BFAD0079B0F2B17DCFA7DB30002F037
:1039B000030203F07C031343FB7539462046FFF7EF
:1039C000F9FA6B7BBB76029B3BB9FB7DC3F38402A8
:1039D000013262F38603FB75D0E76A7BBB7E9A42B5
:1039E000DBD1029B002B35D0B309022B32D0039BD5
:1039F000BB60049BFB60142200210DA8FDF7C0FEF4
:103A0000039B0A93049B0B932B1D0C932B7BADF80C
:103A10003EB0013BDBB2ADF83C30069B8DF8423046
:103A2000059B8DF8433094F82C308DF840A083F03E
:103A300001038DF844308DF84180A3680AA920461F
:103A40009847FB7DC3F38403013303F01F039B02FC
:103A5000FB82A2E7FB7DC6F34012B2EBD31F40F01E
:103A6000F980C3F38403434540F0FC80029A2B7B2A
:103A7000B609002A52D016F0010661D1032B40F29C
:103A8000F480039BBB60049BFB60FB8A66F3090325
:103A9000FB822B7BAE1D033BDBB23246394604F181
:103AA0000C00FFF799FA00280CDA39462046FFF798
:103AB00081FAFB7DC3F38403013303F01F039B02F0
:103AC000FB8205E7DDE90884AB883B834FF6FF7393
:103AD000C9F12000A9F1200228FA09F104FA00F046
:103AE000014324FA02F211431846C9B2FFF7B6F9AE
:103AF00009F10809B9F1400F0346E9D1B8822A7BE0
:103B0000033AD2B23146FFF7BBF9FB7DB882DA4304
:103B1000C2F3C01262F3C713FB753EE786B92E1DD0
:103B2000013BDBB23246394604F10C00FFF754FA90
:103B30000028BADB2A7BB88A013AD2B23146E2E7E2
:103B4000F98AC1F30901013B0429DAB25BD8281DC7
:103B5000002307F11B069A4208D910F801CB06F89A
:103B600001C0013101330529DBB2F4D103990A9177
:103B700004990B91934207F11B010C9138BF043358
:103B800079680D9134BF55FA83F300230E93FB8AB5
:103B9000ADF83EB0C3F309031A44069B8DF84230DA
:103BA000059B8DF8433094F82C30ADF83C2083F021
:103BB00001038DF8443000238DF840A08DF841803A
:103BC0007B602A7BB88A013A291DFFF759F93B8BA4
:103BD000B882834203D1A3680AA9204698472046A9
:103BE0000AA9FFF7FDFDFB7DBA8AC3F38403013305
:103BF00003F01F039B02FB823B8B9A420CBF002009
:103C00006FF01000BCE67B68002BAFD0052001E010
:103C10001C3033461E68002EFAD1091A081D2E1DCD
:103C2000184401EB090CBCF11B0F5FFA89F39DD816
:103C30009A429BD916F8013B00F8013B09F10109B2
:103C4000EFE76FF009009BE66FF00A0098E66FF06F
:103C50000B0095E66FF00D0092E600BF40420F00AA
:103C600080841E006FF00E008AE66FF00F0087E67A
:103C7000EFF3098305494A6B22F001024A63683376
:103C800083F30988002383F31188704700EF00E075
:103C9000302080F3118862B60C4B0D4AD96821F4AC
:103CA000E0610904090C0A43DA60D3F8FC200949F1
:103CB00042F08072C3F8FC200A6842F001020A60F8
:103CC0002022DA7783F82200704700BF00ED00E081
:103CD0000003FA05001000E010B5302383F31188CB
:103CE0000E4B5B6813F4006314D0F1EE103AEFF35F
:103CF0000984683C4FF08073E361094BDB6B2366FA
:103D000084F3098800F0ACFF10B1064BA36110BD2D
:103D1000054BFBE783F31188F9E700BF00ED00E0F6
:103D200000EF00E01F030008220300080268436858
:103D30001143016003B1184770470000024A13683D
:103D400043F0C003136070470038014013B50D4CB9
:103D5000204600F0B7FA04F114000B490094002348
:103D6000202200F075F9094B09490094202204F142
:103D7000380000F0EFF9074A074BC4E9172302B0F7
:103D800010BD00BFA4390020103A00203D3D0008BE
:103D9000303A00200038014000B4C40430B5037C40
:103DA000234C002918BF0C46012B0FD1214B984200
:103DB0000CD1214B1A6E42F480421A66D3F880204F
:103DC00042F48042C3F88020D3F880302268036E2A
:103DD000C16D846603EB5203B3FBF2F36268150412
:103DE00042BF23F0070503F0070343EA4503CB6016
:103DF000A36843F040034B60E36843F001038B602A
:103E000042F4967343F001030B604FF0FF330B62F3
:103E1000510505D512F0102205D0B2F1805F04D013
:103E200080F8643030BD7F23FAE73F23F8E700BF16
:103E30009C6B0008A4390020001002402DE9F047D7
:103E4000C66D3768F46934622107054619D014F04D
:103E5000080118BF4FF48071E20748BF41F020010C
:103E6000A30748BF41F04001600748BF41F080010F
:103E7000302383F31188281DFFF758FF002383F3B5
:103E80001188E2050AD5302383F311884FF480614D
:103E9000281DFFF74BFF002383F311884FF03009F3
:103EA0004FF0000A14F0200838D13B0616D54FF029
:103EB000300905F1380A200610D589F311885046DB
:103EC00000F07CF9002836DA0821281DFFF72EFFC4
:103ED00027F080033360002383F31188790614D51B
:103EE000620612D5302383F31188D5E913239A4251
:103EF00008D12B6C33B11021281D27F04007FFF7A4
:103F000015FF3760002383F31188E30619D5AA6EE5
:103F10001369B3B1BDE8F0475069184789F31188B8
:103F2000B38C95F864102846194000F0E5F98AF33F
:103F30001188F469B6E780B2308588F31188F46996
:103F4000B9E7BDE8F08700004FF0E0230022586891
:103F50004FF0FF31930003F1604303F561430132F9
:103F60009042C3F88010C3F88011F3D2704700006C
:103F700000F1604303F561430901C9B283F80013FE
:103F8000012200F01F039A4043099B0003F16043A4
:103F900003F56143C3F880211A607047F8B51546F0
:103FA00082680669AA420B46816938BF8568761A1D
:103FB000B54204460BD218462A46FDF7BBFBA3695F
:103FC0002B44A361A3685B1BA3602846F8BD0CD9F2
:103FD00018463246FDF7AEFBAF1BE1683A46304467
:103FE000FDF7A8FBE3683B44EBE718462A46FDF7DC
:103FF000A1FBE368E5E7000083689342F7B5154647
:10400000044638BF8568D0E90460361AB5420BD241
:104010002A46FDF78FFB63692B446361A36828463A
:104020005B1BA36003B0F0BD0DD932460191FDF7D3
:1040300081FB0199E068AF1B3A463144FDF77AFBFA
:10404000E3683B44E9E72A46FDF774FBE368E4E7ED
:1040500010B50A440024C361029B8460C0E90000DB
:10406000C0E90511C1600261036210BD08B5D0E965
:104070000532934201D1826882B98268013282603E
:104080005A1C42611970D0E904329A4224BFC368B5
:104090004361002100F090FE002008BD4FF0FF308A
:1040A000FBE7000070B5302304460E4683F3118809
:1040B000A568A5B1A368A269013BA360531CA361D5
:1040C00015782269934224BFE368A361E3690BB1C9
:1040D00020469847002383F31188284607E031469D
:1040E000204600F059FE0028E2DA85F3118870BD01
:1040F0002DE9F74F04460E4617469846D0F81C9017
:104100004FF0300A8AF311884FF0000B154665B165
:104110002A4631462046FFF741FF034660B9414633
:10412000204600F039FE0028F1D0002383F31188E7
:10413000781B03B0BDE8F08FB9F1000F03D00190F8
:104140002046C847019B8BF31188ED1A1E448AF361
:104150001188DCE7C0E90511C160C3611144009B0F
:104160008260C0E90000016103627047F8B504464F
:104170000D461646302383F31188A768A7B1A368BC
:10418000013BA36063695A1C62611D70D4E904326B
:104190009A4224BFE3686361E3690BB12046984704
:1041A000002080F3118807E03146204600F0F4FD3E
:1041B0000028E2DA87F31188F8BD0000D0E9052372
:1041C0009A4210B501D182687AB982680132826060
:1041D0005A1C82611C7803699A4224BFC3688361B8
:1041E000002100F0E9FD204610BD4FF0FF30FBE755
:1041F0002DE9F74F04460E4617469846D0F81C9016
:104200004FF0300A8AF311884FF0000B154665B164
:104210002A4631462046FFF7EFFE034660B9414685
:10422000204600F0B9FD0028F1D0002383F3118867
:10423000781B03B0BDE8F08FB9F1000F03D00190F7
:104240002046C847019B8BF31188ED1A1E448AF360
:104250001188DCE7026843681143016003B1184725
:10426000704700001430FFF743BF00004FF0FF33EA
:104270001430FFF73DBF00003830FFF7B9BF000032
:104280004FF0FF333830FFF7B3BF00001430FFF7B3
:1042900009BF00004FF0FF311430FFF703BF0000EB
:1042A0003830FFF763BF00004FF0FF323830FFF7C0
:1042B0005DBF0000012914BF6FF01300002070479C
:1042C000FFF744BD044B03600023C0E902334360A1
:1042D00001230374704700BFB46B000810B530238E
:1042E000044683F31188FFF759FD0223237400204D
:1042F00080F3118810BD000038B5C36904460D462F
:104300001BB904210844FFF7A5FF294604F1140056
:10431000FFF7ACFE002806DA201D4FF40061BDE86F
:104320003840FFF797BF38BD02684368114301600A
:1043300003B118477047000013B5446BD4F89434A8
:104340001A681178042915D1217C022912D1197912
:10435000128901238B4013420CD101A904F14C00B6
:1043600001F08EFFD4F89444019B21790246206825
:1043700000F0D6F902B010BD143001F011BF0000FA
:104380004FF0FF33143001F00BBF00004C3001F050
:10439000E3BF00004FF0FF334C3001F0DDBF000001
:1043A000143001F0DFBE00004FF0FF31143001F097
:1043B000D9BE00004C3001F0AFBF00004FF0FF321B
:1043C0004C3001F0A9BF00000020704710B5D0F8B4
:1043D00094341A6811780429044617D1017C022903
:1043E00014D15979528901238B4013420ED11430D4
:1043F00001F072FE024648B1D4F894444FF4807341
:1044000061792068BDE8104000F078B910BD000067
:10441000406BFFF7DBBF0000704700007FB5124B19
:10442000036000234360C0E90233012502260F4BDD
:10443000057404460290019300F184022946009617
:104440004FF48073143001F023FE094B0294CDE940
:10445000006304F523724FF48073294604F14C0085
:1044600001F0EAFE04B070BDDC6B000811440008E6
:10447000394300080B68302282F311880A7903EB74
:10448000820210624A790D3243F822008A7912B111
:1044900003EB820318620223C0F894140374002013
:1044A00080F311887047000038B5037F044613B1CC
:1044B00090F85430ABB9201D01250221FFF734FFDD
:1044C00004F1140025776FF0010100F081FC84F8FD
:1044D000545004F14C006FF00101BDE8384000F089
:1044E00077BC38BD10B5012104460430FFF71CFF2E
:1044F0000023237784F8543010BD000038B50446FB
:104500000025143001F0DCFD04F14C00257701F0AA
:10451000ABFE201D84F854500121FFF705FF204613
:10452000BDE83840FFF752BF90F85C3003F06003FD
:10453000202B07D190F85D20212A4FF0000303D8EB
:104540001F2A06D800207047222AFBD1C0E9143365
:1045500003E0034A02650722426583650120704734
:104560002C11002037B5D0F894341A68117804293A
:1045700004461AD1017C022917D119791289012325
:104580008B40134211D100F14C05284601F02CFF5D
:1045900058B101A9284601F073FED4F89444019B58
:1045A00021790246206800F0BBF803B030BD00005E
:1045B000F0B500EB810385B01E6A04460D46FEB1DE
:1045C000302383F3118804EB8507301D0821FFF7A2
:1045D000ABFEFB685B691B6806F14C001BB10190E8
:1045E00001F05CFE019803A901F04AFE024648B1C1
:1045F000039B2946204600F093F8002383F311889B
:1046000005B0F0BDFB685A691268002AF5D01B8A14
:10461000013B1340F1D104F15C02EAE70D3138B5FA
:1046200050F82140DCB1302383F31188D4F894246E
:104630001368527903EB8203DB689B695D6845B1BF
:1046400004216018FFF770FE294604F1140001F000
:104650004DFD2046FFF7BAFE002383F3118838BDD5
:104660007047000001F0AEB810B5012304462822BF
:1046700000F8243B0021FDF783F80023C4E901334F
:1046800010BD000038B50446302383F3118800259F
:10469000C0E90355C0E90555C0E90755416001F07F
:1046A000A1F80223237085F31188284638BD000045
:1046B00070B500EB810305465069DA600E4614467A
:1046C00018B110220021FDF75BF8A06918B1102283
:1046D0000021FDF755F831462846BDE8704001F04D
:1046E0004BB90000826802F0011282600022C0E92A
:1046F0000422C0E90622026201F0CAB9F0B400EB5C
:1047000081044789E4680125A4698D403D434581C2
:1047100023600023A2606360F0BC01F0E5B90000F3
:10472000F0B400EB81040789E468012564698D40D9
:104730003D43058123600023A2606360F0BC01F06B
:104740005FBA000070B50223002504460370C0E97B
:104750000255C0E90455C0E906554566056280F872
:104760004C5001F0A5F863681B6823B12946204628
:10477000BDE87040184770BD0378052B10B504469E
:104780000AD080F868300523037043681B680BB1BA
:10479000042198470023A36010BD0000017805297B
:1047A00006D190F86820436802701B6803B118476F
:1047B0007047000070B590F84C30044613B10023E8
:1047C00080F84C3004F15C02204601F083F9636804
:1047D0009B68B3B994F85C3013F0600535D00021C4
:1047E000204601F037FC0021204601F029FC6368D7
:1047F0001B6813B1062120469847062384F84C30E5
:1048000070BD204698470028E4D0B4F86230626D4D
:104810009A4288BF636594F95C30656D002B4FF058
:10482000300380F20381002D00F0F280092284F829
:104830004C2083F311880021D4E914232046FFF78C
:104840006FFF002383F31188DAE794F85D2003F00B
:104850007F0343EA022340F20232934200F0C58014
:1048600021D8B3F5807F48D00DD8012B3FD0022B43
:1048700000F09380002BB2D104F164022265022281
:104880006265A365C1E7B3F5817F00F09B80B3F556
:10489000407FA4D194F85E30012BA0D1B4F86430ED
:1048A00043F0020332E0B3F5006F4DD017D8B3F5F3
:1048B000A06F31D0A3F5C063012B90D8636894F842
:1048C0005E205E6894F85F10B4F860302046B04710
:1048D000002884D043682365036863651AE0B3F554
:1048E000106F36D040F6024293427FF478AF5C4BB3
:1048F0002365022363650023C3E794F85E30012B30
:104900007FF46DAFB4F8643023F00203C4E91455AA
:10491000A4F86430A56578E7B4F85C30B3F5A06F0F
:104920000ED194F85E3084F86630204601F018F815
:1049300063681B6813B10121204698470323237045
:104940000023C4E914339CE704F1670323650123C2
:10495000C3E72378042B10D1302383F3118820463A
:10496000FFF7C0FE85F311880321636884F8675060
:1049700021701B680BB12046984794F85E30002BDD
:10498000DED084F867300423237063681B68002B33
:10499000D6D0022120469847D2E794F860301D0611
:1049A00003F00F0120460AD501F086F8012804D053
:1049B00002287FF414AF2B4B9AE72B4B98E701F0BA
:1049C0006DF8F3E794F85E30002B7FF408AF94F8AD
:1049D000603013F00F01B3D01A06204602D501F063
:1049E0004DFBADE701F040FBAAE794F85E30002BE9
:1049F0007FF4F5AE94F8603013F00F01A0D01B06E1
:104A0000204602D501F026FB9AE701F019FB97E753
:104A1000142284F84C2083F311882B462A46294619
:104A20002046FFF76BFE85F31188E9E65DB115229C
:104A300084F84C2083F311880021D4E91423204604
:104A4000FFF75CFEFDE60B2284F84C2083F311880F
:104A50002B462A4629462046FFF762FEE3E700BFC1
:104A60000C6C0008046C0008086C000838B590F85D
:104A70004C300446002B3ED0063BDAB20F2A34D825
:104A80000F2B32D8DFE803F03731310822323131D1
:104A90003131313131313737456DB0F862309D42B7
:104AA00014D2C3681B8AB5FBF3F203FB12556DB930
:104AB000302383F311882B462A462946FFF730FE20
:104AC00085F311880A2384F84C300EE0142384F80F
:104AD0004C30302383F3118800231A4619462046B0
:104AE000FFF70CFE002383F3118838BD836D03B1FB
:104AF00098470023E7E70021204601F0ABFA0021A8
:104B0000204601F09DFA63681B6813B10621204618
:104B100098470623D7E7000010B590F84C30142BC7
:104B2000044629D017D8062B05D001D81BB110BDDB
:104B3000093B022BFBD80021204601F08BFA002113
:104B4000204601F07DFA63681B6813B106212046F8
:104B50009847062319E0152BE9D10B2380F84C3038
:104B6000302383F3118800231A461946FFF7D8FD36
:104B7000002383F31188DAE7C3689B695B68002B25
:104B8000D5D1836D03B19847002384F84C30CEE72C
:104B900000230375826803691B6899689142FBD200
:104BA0005A680360426010605860704700230375C4
:104BB000826803691B6899689142FBD85A68036050
:104BC000426010605860704708B50846302383F390
:104BD00011880B7D032B05D0042B0DD02BB983F34B
:104BE000118808BD8B6900221A604FF0FF33836182
:104BF000FFF7CEFF0023F2E7D1E9003213605A60DD
:104C0000F3E70000FFF7C4BF054BD96808751868C3
:104C100002681A60536001220275D860FBF76ABB14
:104C2000503A002030B50C4BDD684B1C87B0044671
:104C30000FD02B46094A684600F05EF92046FFF780
:104C4000E3FF009B13B1684600F060F9A86907B064
:104C500030BDFFF7D9FFF9E7503A0020C94B0008F3
:104C6000044B1A68DB6890689B68984294BF0020E8
:104C700001207047503A0020084B10B51C68D868D6
:104C800022681A60536001222275DC60FFF78EFFF4
:104C900001462046BDE81040FBF72CBB503A0020EF
:104CA00038B5074C07490848012300252370656083
:104CB00001F0D2FB0223237085F3118838BD00BFB9
:104CC000783C0020146C0008503A002008B572B6F9
:104CD000044B186500F02EFC00F0DAFC024B0322B6
:104CE0001A70FEE7503A0020783C002000F044B9EA
:104CF000034A516853685B1A9842FBD8704700BF5B
:104D0000001000E08B60022308618B820846704728
:104D10008368A3F1840243F8142C026943F8442CFD
:104D2000426943F8402C094A43F8242CC26843F8EE
:104D3000182C022203F80C2C002203F80B2C044A36
:104D400043F8102CA3F12000704700BF0D030008AA
:104D5000503A002008B5FFF7DBFFBDE80840FFF739
:104D600051BF0000024BDB6898610F20FFF74CBF7A
:104D7000503A0020302383F31188FFF7F3BF00007F
:104D800008B50146302383F311880820FFF74AFF56
:104D9000002383F3118808BD064BDB6839B14268F4
:104DA00018605A60136043600420FFF73BBF4FF068
:104DB000FF307047503A00200368984206D01A68C6
:104DC0000260506099611846FFF71CBF70470000F1
:104DD00038B504460D462068844200D138BD0368CA
:104DE00023605C608561FFF70DFFF4E710B5036891
:104DF0009C68A2420CD85C688A600B604C602160A1
:104E0000596099688A1A9A604FF0FF33836010BD29
:104E10001B68121BECE700000A2938BF0A2170B595
:104E200004460D460A26601901F010FB01F0FCFA59
:104E3000041BA54203D8751C2E460446F3E70A2E30
:104E400004D9BDE87040012001F046BB70BD0000F0
:104E5000F8B5144B0D46D96103F1100141600A2ADF
:104E60001969826038BF0A22016048601861A81879
:104E7000144601F0DDFA0A2701F0D6FA431BA342DB
:104E8000064606D37C1C281901F0E0FA2746354671
:104E9000F2E70A2F04D9BDE8F840012001F01CBB5D
:104EA000F8BD00BF503A0020F8B506460D4601F0A7
:104EB000BBFA0F4A134653F8107F9F4206D12A4689
:104EC00001463046BDE8F840FFF7C2BFD169BB6874
:104ED000441A2C1928BF2C46A34202D92946FFF7B1
:104EE0009BFF224631460348BDE8F840FFF77EBFEE
:104EF000503A0020603A002010B4C0E90323002398
:104F00005DF8044B4361FFF7CFBF000010B5194CAB
:104F1000236998420DD0D0E90032816813605A604D
:104F20009A680A449A60002303604FF0FF33A3613C
:104F300010BD2346026843F8102F53600022026020
:104F400022699A4203D1BDE8104001F079BA936812
:104F500081680B44936001F067FA2269E169926805
:104F6000441AA242E4D91144BDE81040091AFFF7DF
:104F700053BF00BF503A00202DE9F047DFF8BC8056
:104F800008F110072C4ED8F8105001F04DFAD8F85F
:104F90001C40AA68031B9A423ED81444D5E900324B
:104FA0004FF00009C8F81C4013605A60C5F8009023
:104FB000D8F81030B34201D101F042FA89F31188D8
:104FC000D5E9033128469847302383F311886B696C
:104FD000002BD8D001F028FA6A69A0EB04094A45F1
:104FE00082460DD2022001F077FA0022D8F8103064
:104FF000B34208D151462846BDE8F047FFF728BF25
:10500000121A2244F2E712EB090938BF4A46294630
:105010003846FFF7EBFEB5E7D8F81030B34208D0BA
:105020001444211AC8F81C00A960BDE8F047FFF736
:10503000F3BEBDE8F08700BF603A0020503A002080
:1050400038B501F0F1F9054AD2E90845031B1819F2
:1050500045F10001C2E9080138BD00BF503A002007
:1050600000207047FEE70000704700004FF0FF305F
:105070007047000002290CD0032904D001290748F9
:1050800018BF00207047032A05D8054800EBC2006E
:105090007047044870470020704700BFEC6C000860
:1050A0003C110020A06C000870B59AB00546084677
:1050B00001A9144600F0C2F801A8FCF759FB431CF3
:1050C0005B00C5E900340022237003236370C6B27D
:1050D00001AB02341046D1B28E4204F1020401D871
:1050E0001AB070BD13F8011B04F8021C04F8010C7F
:1050F0000132F0E708B5302383F311880348FFF746
:1051000031FA002383F3118808BD00BF803C0020E2
:1051100090F85C3003F01F02012A07D190F85D205F
:105120000B2A03D10023C0E9143315E003F0600318
:10513000202B08D1B0F860302BB990F85D20212ADF
:1051400003D81F2A04D8FFF7EFB9222AEBD0FAE7D9
:10515000034A02650722426583650120704700BF4C
:105160003311002007B5052917D8DFE801F019161B
:1051700003191920302383F31188104A019001216B
:10518000FFF796FA01980E4A0221FFF791FA0D48AF
:10519000FFF7B4F9002383F3118803B05DF804FB33
:1051A000302383F311880748FFF77EF9F2E73023B5
:1051B00083F311880348FFF795F9EBE7406C00088B
:1051C000646C0008803C002038B50C4D0C4C0D4937
:1051D0002A4604F10800FFF767FF05F1CA0204F14F
:1051E00010000949FFF760FF05F5CA7204F11800C5
:1051F0000649BDE83840FFF757BF00BF48410020CF
:105200003C110020206C00082A6C0008356C000856
:1052100070B5044608460D46FCF7AAFAC6B2204609
:10522000013403780BB9184670BD32462946FCF7A5
:105230008BFA0028F3D10120F6E700002DE9F84FA2
:1052400005460C46FCF794FA2B49C6B22846FFF7F0
:10525000DFFF08B10436F6B228492846FFF7D8FF29
:1052600008B11036F6B2632E0DD8DFF88C90DFF857
:105270008CA0DFF89480DFF894B0214F2E7846B9E7
:105280002670BDE8F88F29462046BDE8F84F01F0AA
:1052900029BC252E2CD1072249462846FCF754FA72
:1052A00050B93B6823607B6863603B892381BB7A8C
:1052B000A37207350B34E1E7082251462846FCF774
:1052C00043FAA8B90F4BA21C19780909023211F848
:1052D000081002F8041C13F8011B01F00F015B45D4
:1052E00011F8081002F8031CEED118340835C5E790
:1052F00004F8016B0135C1E70C6D0008356C00083E
:10530000026B00089075FF1F146D00089C75FF1F4D
:10531000BFF34F8F024A1369DB03FCD4704700BF11
:105320000020024008B5094B1B7873B9FFF7F0FF66
:10533000074B5A69002ABFBF064A9A6002F18832B9
:105340009A601A6822F480621A6008BDB84300208F
:10535000002002402301674508B50B4B1B7893B929
:10536000FFF7D6FF094B5A6942F000425A611A68AA
:1053700042F480521A601A6822F480521A601A6845
:1053800042F480621A6008BDB84300200020024049
:105390007F289ABF00F58030C002002070470000CF
:1053A0004FF4006070470000802070477F2808B5E8
:1053B0000BD8FFF7EDFF00F500630268013204D15E
:1053C00004308342F9D1012008BD0020FCE7000031
:1053D0007F2810B504461FD8FFF79AFFFFF7A2FFFA
:1053E0000E4BF3221A6102225A615A6942EAC00244
:1053F0005A615A6942F480325A61FFF789FF4FF4CB
:105400000061FFF7C5FF00F03FF9FFF7A5FF204659
:10541000BDE81040FFF7CABF002010BD00200240C9
:105420002DE9F84340EA020313F00703144606D0BF
:10543000304B40F282321A600020BDE8F8838518B4
:105440002D4A95420CD92B4A40F287311160F3E77F
:10545000031D1B684A68934208D1083C0830083194
:10546000072C14D902680B689A42F1D0FFF75AFF53
:10547000FFF74EFF214E08314FF001084FF00009B1
:10548000012CA1F1080706D8FFF766FF01E0002C08
:10549000ECD10120D1E7C6F81480054651F8083C4C
:1054A00045F8043B51F8043C4360FFF731FF336992
:1054B00043F001033361C6F81490026851F8083CC8
:1054C0009A420CD00B4B40F2AF321A600C4B186072
:1054D0000C4B1C600C4B1F60FFF73EFFACE72D68C8
:1054E00051F8043C9D4201F10801EBD1083C083021
:1054F000C6E700BFB44300200000040800200240BB
:10550000A8430020B0430020AC430020084908B560
:105510000B7828B11BB9FFF705FF01230B7008BDFD
:10552000002BFCD0BDE808400870FFF715BF00BF96
:10553000B84300200149024800F0A8B800FF040069
:10554000000100200846114601F07CBA084601F02F
:105550008FBA000038B5EFF311859DB9EFF30584DC
:10556000C4F30804302334B183F31188FFF768FDD6
:1055700085F3118838BD83F31188FFF761FD84F34B
:10558000118838BDBDE83840FFF75ABD38B5FFF780
:10559000E1FF114C114AC00840EA4170A0FB025ED5
:1055A000C908A0FB040C1CEB050CA1FB04404FF048
:1055B00000035B41A1FB02121CEB040C43EB000057
:1055C00011EB0E0142F10002411842F100000909FD
:1055D00041EA007038BD00BFCFF753E3A59BC4205C
:1055E00010B50244064BD2B2904200D110BD441C0B
:1055F00000B253F8200041F8040BE0B2F4E700BF1A
:1056000050280040114B30B5D3F89040240409D401
:10561000D3F89040C3F89040D3F8904044F400444D
:10562000C3F890400A4C236843F48073236002441B
:10563000084BD2B2904200D130BD441C00B251F8A8
:10564000045B43F82050E0B2F4E700BF00100240D2
:10565000007000405028004007B5012201A9002039
:10566000FFF7BEFF019803B05DF804FB13B50446D5
:10567000FFF7F2FFA04205D0012201A9002001940A
:10568000FFF7C0FF02B010BD704700007047000078
:1056900070470000074B45F255521A6003225A60CA
:1056A00040F2FF729A604CF6CC421A60024B012223
:1056B0001A70704700300040C0430020034B1B7835
:1056C0001BB1034B4AF6AA221A607047C043002060
:1056D00000300040054B1A6832B902F1804202F5F1
:1056E0000432D2F894201A60704700BFBC430020F7
:1056F000024B4FF40002C3F89420704700100240A0
:1057000008B5FFF7E7FF024B1868C0F3407008BD0B
:10571000BC43002070470000FEE700000A4B0B4826
:105720000B4A90420BD30B4BDA1C121AC11E22F00B
:1057300003028B4238BF00220021FCF721B853F846
:10574000041B40F8041BECE7206F0008D444002041
:10575000D4440020D444002070B5D0E91B439E6897
:1057600000224FF0FF3504EB42135101D3F800093A
:105770000028BEBFD3F8000940F08040C3F80009FC
:10578000D3F8000B0028BEBFD3F8000B40F08040D8
:10579000C3F8000B013263189642C3F80859C3F8E6
:1057A000085BE0D24FF00113C4F81C3870BD000054
:1057B000890141F02001016103699B06FCD412209C
:1057C000FFF796BA10B5054C2046FEF74DFF4FF097
:1057D000A043E366024B236710BD00BFC443002013
:1057E0004C6D000870B50378012B054650D12A4B4B
:1057F000C46E98421BD1294BDA6C42F48052DA64B1
:10580000DA6E42F48052DA66DA6EDA6A42F4805274
:10581000DA62DA6A22F48052DA620E214320DB6A0D
:10582000FEF7A6FB1E4BE3601E4BC4F800380023B6
:10583000C4F8003EC0232360EE6E4FF40413A3634C
:105840003369002BFCDA012333610C20FFF750FA97
:105850003369DB07FCD41220FFF74AFA3369002BC7
:10586000FCDA0026A6602846FFF776FF6B68C4F8CE
:105870001068DB68C4F81468C4F81C684BB90A4B9C
:10588000A3614FF0FF336361A36843F00103A3609A
:1058900070BD064BF4E700BFC44300200010024077
:1058A0004014004003002002003C30C0083C30C0DF
:1058B000F8B5C46E054600212046FFF779FF296F31
:1058C00000234FF001128F68C4F834384FF000669F
:1058D000C4F81C284FF0FF3004EB431201339F4201
:1058E000C2F80069C2F8006BC2F80809C2F8080BD8
:1058F000F2D20B68EA6E6B6763621023136116695C
:1059000016F01006FBD11220FFF7F2F9D4F8003898
:1059100023F4FE63C4F80038A36943F4402343F042
:105920001003A3610923C4F81038C4F814380A4BD3
:10593000EB604FF0C043C4F8103B084BC4F8003B89
:10594000C4F81069C4F800396B6F03F1100243F416
:1059500080136A67A362F8BD286D000840800010BC
:10596000C26E90F86610D2F8003823F4FE6343EA62
:105970000113C2F8003870472DE9F84300EB8103AA
:10598000C56EDA68166806F00306731E022B05EB77
:1059900041130C4680460FFA81F94FEA41104FF04F
:1059A0000001C3F8101B4FF0010104F1100398BF70
:1059B000B60401FA03F391698EBF334E06F18056A7
:1059C00006F5004600293AD0578A04F158014901EA
:1059D00037436F50D5F81C180B43C5F81C382B18EB
:1059E0000021C3F8101953690127611EA7409BB31A
:1059F000138A928B9B08012A88BF5343D8F87420DE
:105A0000981842EA034301F1400205EB8202C8F80C
:105A10007400214653602846FFF7CAFE08EB890050
:105A2000C3681B8A43EA8453483464011E432E51E1
:105A3000D5F81C381F43C5F81C78BDE8F88305EB82
:105A40004917D7F8001B21F40041C7F8001BD5F80F
:105A50001C1821EA0303C0E704F13F0305EB8303AD
:105A60000A4A5A6028462146FFF7A2FE05EB491074
:105A7000D0F8003923F40043C0F80039D5F81C38B9
:105A800023EA0707D7E700BF0080001000040002E8
:105A9000026F12684267FFF75FBE00005831C36EA5
:105AA00049015B5813F4004004D013F4001F0CBFED
:105AB00002200120704700004831C36E49015B5845
:105AC00013F4004004D013F4001F0CBF0220012087
:105AD0007047000000EB8101CB68196A0B68136006
:105AE0004B6853607047000000EB810330B5DD6800
:105AF000AA691368D36019B9402B84BF402313608F
:105B00006B8A1468C26E1C44013CB4FBF3F463431B
:105B1000033323F0030302EB411043EAC44343F091
:105B2000C043C0F8103B2B6803F00303012B09B2FC
:105B30000ED1D2F8083802EB411013F4807FD0F870
:105B4000003B14BF43F0805343F00053C0F8003BC8
:105B500002EB4112D2F8003B43F00443C2F8003B91
:105B600030BD00002DE9F041244DEE6E06EB4013F0
:105B70000446D3F8087BC3F8087B38070AD5D6F863
:105B80001438190706D505EB84032146DB6828463F
:105B90005B689847FA071FD5D6F81438DB071BD582
:105BA00005EB8403D968CCB98B69488A5A68B2FB83
:105BB000F0F600FB16228AB91868DA6890420DD216
:105BC000121AC3E90024302383F311880B482146BD
:105BD000FFF78AFF84F31188BDE8F081012303FAFF
:105BE00004F26B8923EA02036B81CB68002BF3D0AC
:105BF00021460248BDE8F041184700BFC4430020D9
:105C000000EB810370B5DD68C36E6C692668E660E1
:105C10004A0156BB1A444FF40020C2F810092A6802
:105C200002F00302012A0AB20ED1D3F8080803EBEE
:105C3000421410F4807FD4F8000914BF40F0805063
:105C400040F00050C4F8000903EB4212D2F80009FA
:105C500040F00440C2F80009D3F83408012202FAE7
:105C600001F10143C3F8341870BD19B9402E84BF47
:105C70004020206020682E8A8419013CB4FBF6F491
:105C800040EAC44040F000501A44C6E72DE9F8430A
:105C90003B4DEE6E06EB40130446D3F80889C3F87B
:105CA000088918F0010F4FEA40171AD0D6F81038BB
:105CB000DB0716D505EB8003D9684B691868DA68ED
:105CC000904230D2121A4FF000091A60C3F80490C3
:105CD000302383F3118821462846FFF791FF89F38B
:105CE000118818F0800F1CD0D6F834380126A64051
:105CF000334216D005EB8403ED6ED3F80CC0DCF80C
:105D000014200134E4B2D2F800E005EB04342F444F
:105D10005168714515D3D5F8343823EA0606C5F81D
:105D20003468BDE8F883012303FA04F22B8923EADF
:105D300002032B818B68002BD3D02146284698473D
:105D4000CFE7BCF81000AEEB0103834228BF034647
:105D5000D7F8180980B2B3EB800FE2D89068A0F1B1
:105D6000040959F8048FC4F80080A0EB090898448E
:105D7000B8F1040FF5D818440B4490605360C7E79E
:105D8000C44300202DE9F74FAC4CE56E6E69AB695A
:105D90001E4016F480586E6107D02046FEF7D2FCF4
:105DA00003B0BDE8F04FFDF797BF002E12DAD5F82B
:105DB000003EA2489B071EBFD5F8003E23F0030318
:105DC000C5F8003ED5F8043823F00103C5F80438BF
:105DD000FEF7E4FC370505D59848FFF7BDFC97486A
:105DE000FEF7CAFCB0040CD5D5F8083813F0060F3E
:105DF000EB6823F470530CBF43F4105343F4A053E7
:105E0000EB6031071BD56368DB681BB9AB6923F016
:105E10000803AB612378052B0CD1D5F8003E8748E9
:105E20009A071EBFD5F8003E23F00303C5F8003ED5
:105E3000FEF7B4FC6368DB680BB180489847F30257
:105E400000F18980B70227D5D4F86C90DFF8ECB167
:105E500000274FF0010A09EB4712D2F8003B03F488
:105E60004023B3F5802F11D1D2F8003B002B0DDA7F
:105E700062890AFA07F322EA0303638104EB8703CA
:105E8000DB68DB6813B1394658469847236F013702
:105E90009B68FFB29F42DED9F00617D5E76E3A6ADB
:105EA000C2F30A1002F00F0302F4F012B2F5802FD1
:105EB00000F09980B2F5402F08D104EB8303002253
:105EC000DB681B6A07F5805790427ED13303D5F813
:105ED00018481DD5E70302D50020FFF743FEA503B0
:105EE00002D50120FFF73EFE600302D50220FFF736
:105EF00039FE210302D50320FFF734FEE20202D56A
:105F00000420FFF72FFEA30202D50520FFF72AFE8B
:105F100077037FF545AFE60702D50020FFF7B6FE11
:105F2000A50702D50120FFF7B1FE600702D50220C8
:105F3000FFF7ACFE210702D50320FFF7A7FEE2061C
:105F400002D50420FFF7A2FEA3067FF529AF0520A6
:105F5000FFF79CFE24E7E36EDFF8E0A00193002743
:105F60004FF00109236F9B685FFA87FB9B453FF663
:105F700069AF019B03EB4B13D3F8001901F44021E7
:105F8000B1F5802F1FD1D3F8001900291BDAD3F8FF
:105F9000001941F09041C3F80019D3F80019002905
:105FA000FBDB5946E06EFFF703FC218909FA0BF38E
:105FB00021EA0303238104EB8B03DB689B6813B1A5
:105FC0005946504698470137CCE7910708BFD7F8A4
:105FD0000080072A98BF03F8018B02F1010298BFE5
:105FE0004FEA182870E7023304EB830207F5805765
:105FF0005268D2F818C0DCF80820DCE9001CA1EBDC
:106000000C0C002188420AD104EB830463689B696D
:106010009A6802449A605A6802445A6056E711F03E
:10602000030F08BFD7F800808C4588BF02F8018BAA
:1060300001F1010188BF4FEA1828E3E7C4430020BB
:10604000C36E03EB4111D1F8003B43F40013C1F8D8
:10605000003B7047C36E03EB4111D1F8003943F4A4
:106060000013C1F800397047C36E03EB4111D1F83A
:10607000003B23F40013C1F8003B7047C36E03EBF1
:106080004111D1F8003923F40013C1F800397047E9
:1060900030B5039C0172043304FB0325C0E90653A9
:1060A000049B03630021059BC160C0E90000C0E9B7
:1060B0000422C0E90842C0E90A11436330BD000070
:1060C000416A0022C0E90411C0E90A22C2606FF0EF
:1060D0000101FEF77DBE0000D0E90432934201D1F8
:1060E000C2680AB9181D704700207047036919601B
:1060F000C2680132C260C26913448269036193427B
:1061000024BF436A03610021FEF756BE38B504463A
:106110000D46E3683BB16269131D1268A362134424
:10612000E362002007E0237A33B929462046FEF7D0
:1061300033FE0028EDDA38BD6FF00100FBE7000008
:10614000C368C269013BC360436913448269436108
:10615000934224BF436A436100238362036B03B10C
:106160001847704770B53023044683F31188866A58
:106170003EB9FFF7CBFF054618B186F311882846D4
:1061800070BDA36AE26A13F8015BA362934202D373
:106190002046FFF7D5FF002383F31188EFE70000C7
:1061A0002DE9F84F04460E46174698464FF0300941
:1061B00089F311880025AA46D4F828B0BBF1000F56
:1061C00009D141462046FFF7A1FF20B18BF311888A
:1061D0002846BDE8F88FD4E90A12A7EB050B521A3E
:1061E000934528BF9346BBF1400F1BD9334601F1BD
:1061F000400251F8040B43F8040B9142F9D1A36A11
:1062000040334036A3624035D4E90A239A4202D390
:106210002046FFF795FF8AF31188BD42D8D289F353
:106220001188C9E730465A46FBF784FAA36A5B44F3
:106230005E44A3625D44E7E710B5029C017204333B
:1062400003FB0421C0E906130023C0E90A33039BC2
:106250000363049BC460C0E90000C0E90422C0E9F4
:106260000842436310BD0000026AC260426AC0E98E
:1062700004220022C0E90A226FF00101FEF7A8BD46
:10628000D0E904239A4201D1C26822B9184650F8D5
:10629000043B0B60704700231846FAE7C368C269E5
:1062A0000133C3604369134482694361934224BF4D
:1062B000436A43610021FEF77FBD000038B5044604
:1062C0000D46E3683BB123691A1DA262E2691344DB
:1062D000E362002007E0237A33B929462046FEF71F
:1062E0005BFD0028EDDA38BD6FF00100FBE7000030
:1062F00003691960C268013AC260C26913448269C5
:106300000361934224BF436A036100238362036BEA
:1063100003B118477047000070B530230D4604469E
:10632000114683F31188866A2EB9FFF7C7FF10B1B3
:1063300086F3118870BDA36A1D70A36AE26A0133F7
:106340009342A36204D3E16920460439FFF7D0FFEA
:10635000002080F31188EDE72DE9F84F04460D4643
:10636000904699464FF0300A8AF311880026B346CA
:10637000A76A4FB949462046FFF7A0FF20B187F32F
:1063800011883046BDE8F88FD4E90A073A1AA8EB1D
:106390000607974228BF1746402F1BD905F1400337
:1063A00055F8042B40F8042B9D42F9D1A36A4033E1
:1063B000A3624036D4E90A239A4204D3E169204615
:1063C0000439FFF795FF8BF311884645D9D28AF33C
:1063D0001188CDE729463A46FBF7ACF9A36A3B445E
:1063E0003D44A3623E44E5E7D0E904239A4217D135
:1063F000C3689BB1836A8BB1043B9B1A0ED01360B8
:10640000C368013BC360C3691A44836902619A424D
:1064100024BF436A03610023836201231846704747
:106420000023FBE700F0D2B84FF08043586A704772
:106430004FF08043002258631A610222DA607047ED
:106440004FF080430022DA60704700004FF0804335
:1064500058637047FEE7000070B51B4B01630025D1
:10646000044686B0586085620E46FDF711FC04F1C3
:106470001003C4E904334FF0FF33C4E90635C4E91F
:106480000044A560E562FFF7CFFF2B460246C4E952
:10649000082304F134010D4A256580232046FEF7C8
:1064A00031FC0123E0600A4A037500927268019290
:1064B000B268CDE90223074B6846CDE90435FEF703
:1064C00049FC06B070BD00BF783C0020586D000844
:1064D0005D6D000855640008024AD36A1843D06213
:1064E000704700BF503A00204B6843608B68836060
:1064F000CB68C3600B6943614B6903628B6943627C
:106500000B6803607047000008B5274BDA6A40F259
:10651000FF110A43DA62DA6A22F4FF7222F0010202
:10652000DA62DA6ADA6C0A43DA64DA6E0A43DA6645
:106530001E4ADB6E11464FF09040FFF7D5FF02F187
:106540001C0100F58060FFF7CFFF02F1380100F574
:106550008060FFF7C9FF02F1540100F58060FFF78A
:10656000C3FF02F1700100F58060FFF7BDFF02F18B
:106570008C0100F58060FFF7B7FF02F1A80100F57C
:106580008060FFF7B1FF02F1C40100F58060FFF702
:10659000ABFF02F1E00100F58060FFF7A5FFBDE869
:1065A000084000F053B800BF00100240646D0008BE
:1065B00008B500F021FAFEF773FBFFF78BF8BDE892
:1065C0000840FEF701BE0000704700000F4B9A6DB7
:1065D00042F001029A659A6F42F001029A670C4AF2
:1065E0009B6F936843F0010393604FF080434F2209
:1065F0009A624FF0FF32DA6200229A615A63DA60DF
:106600005A6001225A611A60704700BF00100240B0
:10661000002004E04FF0804208B51169D3680B40B8
:10662000D9B2C9439B07116107D5302383F3118881
:10663000FEF75CFB002383F3118808BD08B5FDF766
:1066400083FCBDE8084000F0AFB90000604B4FF09C
:10665000FF319A6A99629A6A00229A62986AD86AA5
:106660006FEAC0506FEAD050D862D86AC0F3080011
:10667000D862D86A186B1963186B1A63186B986B19
:106680009963986B9A63986BD86BD963D86BDA630C
:10669000D86B186C1964196C1A641A6C4D4A4FF453
:1066A000E06111601A6E42F001021A66D3F8802090
:1066B00022F00102C3F88020D3F880209A6D42F0C6
:1066C00080529A659A6F22F080529A679A6F424A76
:1066D0004FF440711160516911F48061FBD1516038
:1066E000516841F480615160516841F4007151601A
:1066F0001A6822F0F00242F060021A601A6842F052
:1067000001021A601A689107FCD500229A609A6803
:1067100012F00C02FBD1D3F8901011F4407F1EBF91
:106720004FF48031C3F89010C3F8902061221A60B2
:106730001A689207FCD500229A609A6812F00C0F32
:10674000FBD169221A60D3F8942022F4706242F4DB
:10675000C062C3F894201A6842F480721A601A6802
:106760005005FCD5D3F8902022F00322C3F89020E6
:106770001A4ADA601A6842F080721A601A68910147
:10678000FCD5174A1A611A6842F080621A601A68CA
:106790001201FCD500229A60124AC3F888200D49E4
:1067A0000122C3F89C200A6822F0070242F004028A
:1067B0000A600A6802F00702042AFAD19A6842F0D5
:1067C00003029A609A6802F00C020C2AFAD1704710
:1067D000001002400020024000700040121400012E
:1067E000100C100055550134074A08B5536903F0E1
:1067F0000103536123B1054A13680BB150689847F0
:10680000BDE80840FDF768BA000401405444002088
:10681000074A08B5536903F00203536123B1054ADF
:1068200093680BB1D0689847BDE80840FDF754BAAB
:106830000004014054440020074A08B5536903F09E
:106840000403536123B1054A13690BB1506998479A
:10685000BDE80840FDF740BA000401405444002060
:10686000074A08B5536903F00803536123B1054A89
:1068700093690BB1D0699847BDE80840FDF72CBA81
:106880000004014054440020074A08B5536903F04E
:106890001003536123B1054A136A0BB1506A98473C
:1068A000BDE80840FDF718BA000401405444002038
:1068B000164B10B55C6904F478725A61A30604D5CE
:1068C000134A936A0BB1D06A9847600604D5104A00
:1068D000136B0BB1506B9847210604D50C4A936B90
:1068E0000BB1D06B9847E20504D5094A136C0BB184
:1068F000506C9847A30504D5054A936C0BB1D06C36
:106900009847BDE81040FDF7E7B900BF000401401B
:1069100054440020194B10B55C6904F47C425A6160
:10692000620504D5164A136D0BB1506D98472305C7
:1069300004D5134A936D0BB1D06D9847E00404D58C
:106940000F4A136E0BB1506E9847A10404D50C4A40
:10695000936E0BB1D06E9847620404D5084A136F4A
:106960000BB1506F9847230404D5054A936F0BB1C0
:10697000D06F9847BDE81040FDF7AEB90004014064
:106980005444002008B50348FDF758FABDE8084014
:10699000FDF7A2B9A439002008B5FFF73BFEBDE81A
:1069A0000840FDF799B90000062108B50846FDF733
:1069B000DFFA06210720FDF7DBFA06210820FDF7A4
:1069C000D7FA06210920FDF7D3FA06210A20FDF7A0
:1069D000CFFA06211720FDF7CBFA06212820FDF774
:1069E000C7FA07211C20FDF7C3FABDE808400C21B7
:1069F0002520FDF7BDBA000008B5FFF71FFE00F027
:106A00000DF8FDF75DFCFDF72DFEFDF705FDFFF729
:106A1000DBFDBDE80840FFF705BD00000023054A87
:106A200019460133102BC2E9001102F10802F8D116
:106A3000704700BF544400200B460146184600F042
:106A400009B80000024B0A4601461868FEF77ABDF5
:106A50005C11002010B5054C13462CB10A460146C6
:106A60000220AFF3008010BD2046FCE700000000CC
:106A7000024B01461868FEF769BD00BF5C1100209B
:106A800010B501390244904201D1002005E003789D
:106A900011F8014FA34201D0181B10BD0130F2E7DD
:106AA0002DE9F041A3B1C91A17780144044603F156
:106AB000FF3C8C42204601D9002009E00578BD4208
:106AC00004F10104F5D10CEB0405D618A54201D15F
:106AD000BDE8F08115F8018D16F801EDF045F5D00F
:106AE000E7E70000034611F8012B03F8012B002A09
:106AF000F9D170476F72672E6172647570696C6F3F
:106B0000742E4E75636C656F2D4C34393600000061
:106B100053544D33324C343F3F00000040A2E4F167
:106B2000646891060041A3E5F265699207000000E0
:106B30004261642043414E496661636520696E6429
:106B400065782E00800000000080000000008000BA
:106B50000000000000000000D520000819290008EE
:106B60007528000815210008212100082D230008A0
:106B7000E5200008F5200008E9200008F1200008C1
:106B8000ED20000849220008F92000083D2C0008EB
:106B9000ED2B0008092100081D22000800960000C6
:106BA00000000000000000000000000000000000E5
:106BB0000000000000000000814200086D42000853
:106BC000A942000895420008A14200088D42000831
:106BD0007942000865420008B54200080000000044
:106BE0009543000881430008BD430008A9430008FD
:106BF000B5430008A14300088D430008794300080D
:106C0000C94300080000000001000000000000006F
:106C100063300000106C0008A83A0020783C002087
:106C20004172647550696C6F740025424F41524443
:106C3000252D424C002553455249414C250000006A
:106C40000200000000000000B14500081D460008D9
:106C500040004000184100202841002002000000B0
:106C60000000000003000000000000006146000872
:106C7000000000001000000038410020000000006B
:106C80000100000000000000C443002001010200D8
:106C9000655100087550000811510008F5500008B2
:106CA00043000000A86C000809024300020100C074
:106CB0003209040000010202010005240010010550
:106CC00024010001042402020524060001070582B4
:106CD000030800FF09040100020A00000007050183
:106CE0000240000007058102400000001200000081
:106CF000F46C000812011001020000400912415713
:106D000000020102030100000403090425424F416F
:106D10005244250030313233343536373839414228
:106D2000434445460000000000000000B54700084D
:106D30006D4A0008194B0008400040003C44002008
:106D40003C440020010000004C4400208000000072
:106D500040010000050000006D61696E0069646C0F
:106D6000650000000000A82A00000000AAAABEAA30
:106D700000001424FFFF00000000000070A70A00BC
:106D80000040001000000000AAAAAAAA000000000B
:106D90007FBF0000000000000000000000000000B5
:106DA00000000000AAAAAAAA00000000FFFF00003D
:106DB00000000000000000000A00000000000000C9
:106DC000AAAAAAAA00000000FFFF00009900000084
:106DD000000000000000000000000000AAAAAAAA0B
:106DE00000000000FFFF00000000000000000000A5
:106DF0000000000000000000AAAAAAAA00000000EB
:106E0000FFFF000000000000000000000000000084
:106E100000000000AAAAAAAA00000000FFFF0000CC
:106E20000000000000000000000000000000000062
:106E3000AAAAAAAA00000000FFFF000000000000AC
:106E40000000000000000000000000000000000042
:106E50000000000000000000000000000000000032
:106E600017040000000000000060030000000000A4
:106E7000FE2A0100D2040000FF000000803C002038
:106E8000A439002000000000106B000800960000EC
:106E90000000080096000000000800000400000048
:106EA000086D000800000000000000000000000065
:106EB0000000000000000000000000006011002041
:106EC00000000000000000000000000000000000C2
:106ED00000000000000000000000000000000000B2
:106EE00000000000000000000000000000000000A2
:106EF0000000000000000000000000000000000092
:106F00000000000000000000000000000000000081
:106F10000000000000000000000000000000000071
:00000001FF
