:020000040800F2
:1000000000070020F10100087D26000835260008C1
:100010005D2600083526000855260008F301000873
:10002000F3010008F3010008F30100080537000898
:10003000F3010008F3010008F3010008F3010008D0
:10004000F3010008F3010008F3010008F3010008C0
:10005000F3010008F3010008F9390008213A00080B
:10006000493A0008713A0008993A0008F30100087B
:10007000F3010008F3010008F3010008F301000890
:10008000F3010008F3010008F3010008F301000880
:10009000F30100081526000825260008C13A0008CB
:1000A000F3010008F3010008F3010008F301000860
:1000B000953B0008F3010008F3010008F301000874
:1000C000F3010008F3010008F3010008F301000840
:1000D000F3010008F3010008F3010008F301000830
:1000E000253B0008F3010008F3010008F3010008B4
:1000F000F3010008F3010008F3010008F301000810
:10010000F3010008F3010008F3010008F3010008FF
:10011000F3010008F3010008F3010008F3010008EF
:10012000F3010008F3010008F3010008F3010008DF
:10013000F3010008F3010008F3010008F3010008CF
:10014000F3010008F3010008F3010008F3010008BF
:10015000F3010008F3010008F3010008F3010008AF
:10016000F3010008F3010008F3010008F30100089F
:10017000F3010008F3010008F3010008F30100088F
:10018000F3010008F3010008F3010008F30100087F
:10019000F3010008F3010008F3010008F30100086F
:1001A000F3010008F3010008F3010008F30100085F
:1001B000F3010008F3010008F3010008F30100084F
:1001C000F3010008F3010008F3010008F30100083F
:1001D000F3010008F3010008F3010008F30100082F
:1001E000550F0008000000000000000000000000A3
:1001F00002E000F000F8FEE772B6374880F30888A6
:10020000364880F3098836483649086040F20000D5
:10021000CCF200004EF63471CEF200010860BFF35C
:100220004F8FBFF36F8F40F20000C0F2F0004EF628
:100230008851CEF200010860BFF34F8FBFF36F8F7C
:100240004FF00000E1EE100A4EF63C71CEF20001D4
:100250000860062080F31488BFF36F8F04F034F930
:1002600004F014FA4FF055301F491B4A91423CBF2D
:1002700041F8040BFAE71D49184A91423CBF41F886
:10028000040BFAE71A491B4A1B4B9A423EBF51F82E
:10029000040B42F8040BF8E700201849184A914271
:1002A0003CBF41F8040BFAE704F012F904F034FA09
:1002B000144C154DAC4203DA54F8041B8847F9E797
:1002C00000F042F8114C124DAC4203DA54F8041B12
:1002D0008847F9E704F0FAB800070020002300205F
:1002E0000000000808ED00E00001002000070020E9
:1002F000B049000800230020A4230020A8230020E8
:1003000014510020E0010008E4010008E4010008A5
:10031000E40100082DE9F04F2DED108AC1F80CD052
:10032000C3689D46BDEC108ABDE8F08F002383F3BF
:1003300011882846A047002003F06AFDFEE703F07D
:10034000F3FC00DFFEE70000F8B500F015FE04F056
:100350005DF8074604F0AEF80646C0BB274B9F4247
:1003600035D001339F4235D0254B27F0FF029A420A
:1003700033D1F8B200F036FC354642F2107400F08A
:1003800037FC08B10024254601F0EAF848B3032001
:1003900000F03AF80024254636B11A4B9F4203D0AC
:1003A00004F080F800242546002004F039F80DB14F
:1003B00000F040F800F050FC02F068F90546ACB9D6
:1003C00000F092FC4FF47A7003F028FDF7E7354611
:1003D0000024D4E704460125D1E705464FF47A749A
:1003E000CDE7B4F57A7F08BF0125D5E702F04EF9D5
:1003F000431BA342E4D900F01DF8DDE7010007B07C
:10040000000008B0263A09B0084B187003280CD831
:10041000DFE800F008050208022000F009BE022013
:1004200000F0FEBD024B00225A607047A823002056
:10043000AC23002010B501F093F830B1234B032218
:100440001A70234B00225A6010BD224B224A1C46D0
:1004500019680131F8D004339342F9D16268A2429D
:10046000F2D31E4B9B6803F1006303F520439A42CD
:10047000EAD203F0E9FF03F0FBFF002000F096FD55
:100480000220FFF7C1FF164B9A6D00229A65996F03
:100490009A67996FD96DDA65D96FDA67D96F196E76
:1004A0001A66D3F88010C3F88020D3F8803072B673
:1004B0004FF0E0233021C3F8084DD4E9003281F336
:1004C00011889D4683F308881047BDE7A8230020C4
:1004D000AC23002000A0000820A00008002300207A
:1004E00000100240094A136849F2690099B21B0CD6
:1004F00000FB01331360064B186844F2506182B26E
:10050000000C01FB0200186080B270471423002029
:100510001023002010B500211022044600F0A2FD97
:10052000034B03CB206061601868A06010BD00BF62
:100530009075FF1FF0B5ADF54F7D6CAC4FF4C472F4
:1005400007460D462046002100F08CFD02F09EF883
:10055000244B4FF47A72B0FBF2F0186093E8070076
:10056000022384E807000DF5E9702382FFF7D2FF2C
:1005700041F204031C49238406A804F033F919232B
:1005800084F832310DF2E32206AB0DF1300C1E4639
:1005900003CE664510605160334602F10802F6D181
:1005A000337813700DAE31460122204600F0A6FDCF
:1005B00000230393AB7E029305F11903019380B2EC
:1005C0000123CDE904600093E97E04A3D3E900236D
:1005D000384602F067FC0DF54F7DF0BD9E6AC421E0
:1005E000818A46EEB4230020F44700082DE9F0414B
:1005F0002C4C237ADAB080460D465BBB27A92846EF
:1006000000F0A2FE0746002842D19DF89D60C82E4A
:100610003ED801464FF4A662204600F023FD4FF479
:100620008073C4F8F8314FF40073C4F80C334FF4FE
:100630004073C4F8203432460DF19E0104F10900E4
:1006400000F0FEFC26449DF89C30777223720BB9B3
:10065000EB7E23728122002106AC27A800F002FD68
:100660000122214627A800F0B5FE00230393AB7EAC
:10067000029305F1190380B201932823CDE90440C8
:100680000093E97E05A3D3E90023404602F00AFC6B
:100690005AB0BDE8F08100BFAFF30080264172720E
:1006A000DF25D7B7FC330020F0B5254E4FF48A750F
:1006B00005FB0065F1B096F8D83085F8DC300024F1
:1006C000D822214685F8E8403AA800F0CBFC06F194
:1006D000090000F0BFFCD5F8E4308DF8F000C2B29C
:1006E00006AF06F109010DF1F100CDE93A3400F051
:1006F000A7FC394601223AA800F0A2FE80B2CDE95B
:10070000047008230127CDE9023706F1D8030193CD
:1007100030230093317A0B4807A3D3E9002302F07A
:10072000C1FBA04206DD01F0B1FFC5F8E00038468C
:1007300071B0F0BD2046FBE778F6339F93CACD8DAC
:10074000FC330020CC3300202DE9F0411D4D1E4E1E
:100750001E4F86B0284602F0D1FB034658B3002452
:10076000CDE90344ADF81440027B8DF8142099685C
:100770004068029403AA03C21B68DFF8548043F068
:100780000043029301F084FF821941F100030094B9
:1007900002A9384601F0DCF8A04205DD284602F047
:1007A000B1FB88F80040D5E798F80030072B05D852
:1007B000013388F8003006B0BDE8F081014802F04E
:1007C000A1FBF8E7CC33002040420F00383900206D
:1007D0003139002070B50D4614461E4602F0BEFAAF
:1007E00050B9022E10D1012C0ED112A3D3E900234F
:1007F000C5E90023012007E0282C10D005D8012CE2
:1008000009D0052C0FD0002070BD302CFBD10BA3DC
:10081000D3E90023ECE70BA3D3E90023E8E70BA31C
:10082000D3E90023E4E70BA3D3E90023E0E700BF0B
:10083000AFF30080401DA12026812A0B78F6339F5C
:1008400093CACD8D9E6AC421818A46EE264172727A
:10085000DF25D7B7F017304A39059E5638B505461B
:100860000E4C0021013500F0C3FBA4F82C55B4F860
:100870002C0500F0A5FB78B1B4F82C0500F0B0FB16
:10088000014648B9B4F82C0500F0B2FBB4F82C3599
:100890000133A4F82C35EAE738BD00BFFC33002053
:1008A00010B50A4B0A4A1A6003F5805393F8582092
:1008B0003AB95C6D2CB1204600F0CCFE204601F028
:1008C00003F8BDE81040034800F0C4BE38390020EA
:1008D00040480008784900202DE9F04F8FB000AF64
:1008E00005460C4602F03AFA00284BD1237E022B33
:1008F0001BD1E38A012B18D101F0C8FE0646FFF791
:10090000F1FD03464FF4C870DFF8D482B3FBF0F278
:1009100006F5167602FB103316FA83F3C8F800309A
:10092000E37E33B9A74B00221A703C37BD46BDE8C1
:10093000F08F07F12401204600F0BAFC0028F4D122
:1009400007F11400FFF7E6FD97F8264007F11401C0
:10095000224607F1270003F013FF0028E2D10F2CF5
:1009600008D8984B1C70D8F80030A3F51673C8F857
:100970000030DAE797F824100029D6D0284602F094
:10098000E5F9D2E7E38A282B33D010D8012B2BD0FE
:10099000052BCAD1BFF34F8F8B498C4BCA6802F429
:1009A000E0621343CB60BFF34F8F00BFFDE7302BF6
:1009B000BBD1874EE17E327A9142B6D1607E31461C
:1009C000002291F8DC50854200F0AD800132042A0B
:1009D00001F58A71F5D1326840F6B831FA328A42AF
:1009E00094BF32603160A0E721462846FFF7A2FDA0
:1009F0009BE721462846FFF7F9FD96E7B2F8EC5051
:100A00007B6005F103094FEA99094FEA8902D11D7C
:100A1000C908A8EBC1039D46EB460021584600F0EB
:100A200021FB04F1EE012A463144584600F008FB50
:100A30007B6813B9012000F0B9FA96F8D20000F0F3
:100A4000BFFA044630B9307200F0DAFA204600F0FE
:100A5000ADFAB0E0D6F8D4203AB996F8D200B6F89C
:100A60002C25824201D8FFF7F9FED6F8D4202A447B
:100A7000944208D296F8D200B6F82C250130824272
:100A800001D8FFF7EBFE70685FFA89F2594600F073
:100A9000F1FA08B9C54679E0726896F8D2002A449E
:100AA0007260D6F8D42005EB0209C6F8D49000F0A5
:100AB00087FA814509D396F8D220D6F8D4000132BE
:100AC000001B86F8D220C6F8D400FF2D0FD80024D2
:100AD000347200F095FA204600F068FA00F040FD0C
:100AE0003C4B188108B9FFF7A5FCC5461DE7BB685C
:100AF00096F8D9000AFB0362FB68D2F8E41082F88A
:100B0000E83001F58061C2F8E030C2F8E410FFF788
:100B1000CBFDFFF719FE96F8D920013202F003024F
:100B200086F8D920B6E74FF48A7A0AFB02F505F178
:100B3000EA013144204600F0B7FCF86000287FF459
:100B4000F4AE3544012285F8E82001F09FFDD5F888
:100B5000E020D6ED007ADFED206A801A192838BF30
:100B6000192040F6B832904228BF1046B8EE677A96
:100B700007EE900AF8EEE77A67EEA67ADFED176ADD
:100B8000E7EE267AFCEEE77AC6ED007A96F8D930E1
:100B90007168BB600AFB03F4321992F8E8505DB14A
:100BA000D2F8E4308B42E8463FF428AF002182F8C7
:100BB000E810C2F8E010C5467368064A9B0A013384
:100BC0001381B2E6C533002000ED00E00400FA0511
:100BD000FC330020B4230020CDCCCC3D6666663FBC
:100BE000C8330020014B1870704700BFC02300209D
:100BF00038B54FF00054144B22689A4221D1607DE1
:100C0000F0B1124B124918701248237D03724FF451
:100C10008073C0F8F8314FF40073C0F80C3300252E
:100C20004FF44073C0F82034C0F8E450C9220930B2
:100C300000F006FAE0222946204600F013FA0120CF
:100C400038BD0020FCE700BF9AAD44C5C02300209A
:100C500016000020FC33002037B500F081FC194D50
:100C60001949288102236B7100220123174801F0E2
:100C7000E9F800230193164B164900931648174BC9
:100C80004FF4805202F03AF8154B197811B112481E
:100C900002F05CF801F0FAFC0446FFF723FC4FF485
:100CA000C873B0FBF3F202FB130304F5167010FADD
:100CB00083F00C4B186003F0FDFB08B10F232B8170
:100CC00003B030BDB423002040420F00383900206B
:100CD000D5070008C4230020CC330020D908000821
:100CE000C0230020C83300202DE9F04F2DED028BEA
:100CF00090A7D7E900670FF24429D9E90089884C09
:100D000095B00DAD9FED848BFFF71EFDDFF834B27B
:100D100000230C93ADF83C300D936B6000230DF174
:100D200025028DED008B4FF0010A09A958468DF878
:100D300025308DF824A001F011FC9DF8242000231B
:100D4000002A40F0AF80204602F008F8054600284F
:100D500047D1DFF8F4B101F099FCDBF8003098429C
:100D60003FD301F093FC0790FFF7BCFB079A4FF4C9
:100D7000C873B0FBF3F101FB130302F5167010FA10
:100D800083F0CBF80000DFF8C4B19BF800100791A6
:100D9000002914BF2B46534610A88DF83030FFF7BA
:100DA000B9FB0799C1F11002D2B2062A10AB28BFD5
:100DB000062219440DF13100079200F041F9079A1B
:100DC0000CAB0393182302930132564BD2B2CDE9F8
:100DD00000A304923B463246204602F005F88BF809
:100DE000005001F053FC504A504D1368C31AB3F53C
:100DF0007A7F32D3106001F04BFC02460B4620464E
:100E000002F08AF8204601F0A9FF30B32B7ADFF810
:100E100040A1002B14BF032302238AF8053001F000
:100E200035FC0DF1400B4FF47A730122B0FBF3F067
:100E30005946CAF80000504600F012FA18230293EF
:100E40003B4B019380B240F25513CDE903B00093C0
:100E500042464B46204601F0C7FF2B7AB3B101F062
:100E600015FC4FF0000A83464FF48A7295F8D900BA
:100E7000504400F0030002FB005393F8E8100029EF
:100E800034D00AF1010ABAF1040FEFD1C82002F000
:100E9000C5FF2B7A002B7FF434AF15B0BDEC028B6D
:100EA000BDE8F08F4FF0904110A84A6982F020020F
:100EB0004A611946102200F0D5F80DF126030AAA5E
:100EC0000CA9584600F06AFE95E8030011AB83E8D0
:100ED00003009DF83C308DF84C300C9B109310A90A
:100EE000DDE90A23204602F0EBF917E7D3F8E0101A
:100EF00049B12B68FA2B38BFFA23ABEB010105335C
:100F0000B1EB430FBDD3FFF7CFFB4FF48A7200283C
:100F1000B7D1BBE7AFF30080000000000000000085
:100F2000CC330020C43300202C390020FC330020B7
:100F300030390020401DA12026812A0BF1C6A7C10F
:100F4000D068080F38390020C8330020C53300208E
:100F5000B423002008B5054800F0C4FEBDE80840F1
:100F6000034A0449002003F0EFBB00BF38390020DA
:100F7000404E0020A108000870B503F0EBF8094EC0
:100F8000094D3080002428683388834208D903F053
:100F9000DDF82B6804440133B4F5204F2B60F2D305
:100FA00070BD00BF344E0020084E002003F084B90D
:100FB00000F10060920000F5204003F007B9000046
:100FC000054B1A68054B1B889B1A834202D91044B3
:100FD00003F0BCB800207047084E0020344E0020BB
:100FE000024B1B68184403F0B7B800BF084E00203E
:100FF000024B1B68184403F0C1B800BF084E002024
:10100000064991F8243033B10023086A81F824306E
:101010000822FFF7CDBF0120704700BF0C4E002013
:10102000022802BF4FF0904320229A6170470000CF
:10103000022802BF4FF090434FF400129A617047AC
:1010400010B50023934203D0CC5CC4540133F9E7BC
:1010500010BD000003460246D01A12F9011B0029F8
:10106000FAD1704702440346934202D003F8011BB1
:10107000FAE770472DE9F8431F4D144695F82420F0
:101080000746884652BBDFF870909CB395F8243031
:101090002BB92022FF2148462F62FFF7E3FF95F886
:1010A0002400C0F10802A24228BF2246D6B241461F
:1010B000920005EB8000FFF7C3FF95F82430A41BD6
:1010C0001E44F6B2082E17449044E4B285F824601A
:1010D000DBD1FFF795FF0028D7D108E02B6A03EB9F
:1010E00082038342CFD0FFF78BFF0028CBD10020B3
:1010F000BDE8F8830120FBE70C4E00202DE9F34703
:101100000D46044600219046284640F27912FFF72A
:10111000A9FF234620220021284602F073F8231D50
:1011200002222021284602F06DF8631D03222221AD
:10113000284602F067F8A31D03222521284602F065
:1011400061F804F1080310222821284602F05AF819
:1011500004F1100308223821284602F053F804F164
:10116000110308224021284602F04CF804F1120332
:1011700008224821284602F045F804F114032022F1
:101180005021284602F03EF804F118034022702155
:10119000284602F037F804F120030822B02128463F
:1011A00002F030F804F121030822B821284602F0A9
:1011B00029F804F12207C0263B463146082228467A
:1011C000083602F01FF8B6F5A07F07F10107F3D14A
:1011D00094F832308DF8073031460DF107030822BC
:1011E000284602F00FF8002604F1330A9DF8073074
:1011F0004FEAC6099E4209F5A47720D394F832310C
:10120000502B28BF50238DF80730B8F1000F08D1BC
:1012100039460DF107030722284601F0F3FF09F2D2
:101220004F17002604F233149DF807309E4207EB57
:10123000C6010DD30731C80802B0BDE8F0870AEB3C
:10124000060308223946284601F0DCFF0136CDE7C7
:10125000A3190822284601F0D5FF0136E4E7000073
:1012600013B504460846002101602346C0F8031068
:101270002022019001F0C6FF0198231D02222021A7
:1012800001F0C0FF0198631D0322222101F0BAFF83
:101290000198A31D0322252101F0B4FF019804F158
:1012A00008031022282101F0ADFF072002B010BD75
:1012B000F7B5047F05460E462CB1838A122B02D95E
:1012C000012003B0F0BD00231946072200962846EE
:1012D00001F05CFE731C00930122002307212846C5
:1012E00001F054FED4B9B31C009305222346082113
:1012F000284601F04BFE0D24B378102BE0D837467A
:10130000B278BB1B934210D32B7FA88A0734E40822
:10131000B3B9844294BF00200120D2E7AB8ADB003E
:10132000083BDB08B3700824E6E7FB1C009321466A
:1013300000230822284601F029FE08340137DFE7A0
:10134000201A18BF0120BCE7F7B5047F05460E46FA
:101350002CB1838ACA2B02D9012003B0F0BD00232F
:10136000194600960822284601F010FE731CD4B9D5
:101370000822009311462346284601F007FE102458
:101380007378C82BE8D8012372785F1C013B934225
:1013900010D32B7FA88A0734E408B3B9844294BFE2
:1013A00000200120D9E7AB8ADB00083BDB08737023
:1013B0000824E5E7F3190093214600230822284674
:1013C00001F0E4FD08343B46DEE7201A18BF012097
:1013D000C3E70000F7B50D4604460021164628462F
:1013E0008122FFF73FFE234608220021284601F014
:1013F00009FF94F901206378002AB8BF7F238DF894
:1014000007309EB90DF1070307220821284601F095
:10141000F9FE0F27002602349DF807309E4207EBA5
:10142000C60105D30731C80803B0F0BD0827F1E7AE
:10143000A3190822284601F0E5FE0136ECE700007A
:10144000F7B50E460546002114463046CE22FFF77A
:1014500009FE2B4628220021304601F0D3FE2B7ACC
:10146000C82B28BFC8238DF807308CB90DF10703AE
:1014700008222821304601F0C5FE30242F469DF871
:1014800007207B1B934205D3E01DC00803B0F0BDCD
:101490002824F3E707F1090321460822304601F02A
:1014A000B1FE08340137EAE7F7B5047F05460E467A
:1014B00034B1838AB3F5827F02D9012003B0F0BD35
:1014C0000096012310220021284601F05FFDDCB9BF
:1014D000B31C0093092223461021284601F056FD33
:1014E00019247388B3F5807FE7D837467288BB1B11
:1014F000934210D32B7FA88A0734E408B3B98442FF
:1015000094BF00200120D9E7AB8ADB00103BDB0849
:1015100073801024E5E73B1D009321460023082239
:10152000284601F033FD08340137DFE7201A18BFE1
:101530000120C3E730B5094D0A4491420DD011F89E
:10154000013B5840082340F30004013B2C4013F0BA
:10155000FF0384EA5000F6D1EFE730BD2083B8EDF9
:10156000F7B5364A106851686B4603C36A4634497A
:101570003448082303F014F9044690BB0A25324A84
:10158000106851686B4603C36A4630492D480823EA
:1015900003F006F90446002847D00369B3F5583F25
:1015A00043D8B0F86620B2F5826F3ED1284A024493
:1015B00002F15C018B4238D35C3B224900209E1A29
:1015C000FFF7B8FF3246074604F164010020FFF739
:1015D000B1FFA3689F4228D1E368984208BF002565
:1015E00023E00369B3F5583F26D8428BB2F5826FEA
:1015F00020D1174A024402F110018B4218D3103B4C
:10160000104900209D1AFFF795FF2A46064604F16F
:1016100018010020FFF78EFFA3689E4202D1E36805
:10162000984201D00D25AAE70025284603B0F0BD59
:101630001025A4E70C25A2E70B25A0E71048000819
:10164000DC5F030000A0000819480008905F030059
:101650000860FFF710B5037C044613B9006803F077
:1016600087F8204610BD00000023BFF35B8FC360E6
:10167000BFF35B8FBFF35B8F8360BFF35B8F7047FC
:10168000BFF35B8F0068BFF35B8F704770B5054693
:101690000C30FFF7F5FF05F1080604463046FFF76A
:1016A000EFFFA04206D930466D68FFF7E9FF2544F9
:1016B000281A70BD3046FFF7E3FF201AF9E7000053
:1016C00070B50546406898B105F10800FFF7D8FFEE
:1016D00005F10C0604463046FFF7D2FF844230463F
:1016E00094BF6D680025FFF7CBFF013C2C44201A06
:1016F00070BD000038B50C460546FFF7C7FFA04295
:1017000010D305F10800FFF7BBFF04446868B4FB81
:10171000F0F100FB1144BFF35B8F0120AC60BFF31D
:101720005B8F38BD0020FCE72DE9F04114460746E9
:101730000D46FFF7C5FF844228BF0446D4B1B84622
:1017400058F80C6B4046FFF79BFF3044286040463A
:101750007E68FFF795FF331A9C4203D86C60012026
:10176000BDE8F0816B60A41B3B68AB602044E8607F
:101770000220F5E72046F3E738B50C460546FFF7AB
:101780009FFFA04210D305F10C00FFF779FF04443E
:101790006868B4FBF0F100FB1144BFF35B8F0120DC
:1017A000EC60BFF35B8F38BD0020FCE72DE9FF4103
:1017B000884669460746FFF7B7FF6C4606B204EB5A
:1017C000C6060025B44209D06268206808EB05010E
:1017D000FFF736FC636808341D44F3E729463846B2
:1017E000FFF7CAFF284604B0BDE8F081F8B505460A
:1017F0000C300F46FFF744FF05F10806044630465B
:10180000FFF73EFFA042304688BF6C68FFF738FF05
:10181000201A386020B130462C68FFF731FF204491
:10182000F8BD000073B5144606460D46FFF72EFFBF
:10183000844228BF04460190DCB101A93046FFF77D
:10184000D5FF019B33B93268C5E90233C5E90024ED
:1018500001200CE09C4238BF019428600198686028
:101860008442F5D93368AB60241AEC60022002B0E0
:1018700070BD2046FBE700002DE9FF410F46694699
:10188000FFF7D0FF6C4600B204EBC0050026AC4267
:1018900009D0D4F8048054F8081BB8194246FFF761
:1018A000CFFB4644F3E7304604B0BDE8F0810000CA
:1018B00038B50546FFF7E0FF044601462846FFF726
:1018C00019FF204638BD000008B102F051BF704733
:1018D0007047000010B41346026814680022A44642
:1018E0005DF8044B6047000000F5805090F86904F3
:1018F0007047000000F5805090F8620470470000C7
:1019000000F5805090F9680470470000502070473F
:10191000302383F3118800F58052D2F8AC34D2F82A
:10192000A8041844D2F8A4341844D2F88C341844CB
:10193000D2F89C341844D2F898341844002383F326
:101940001188704700F58050C0F86414012070477A
:101950002DE9FF470C4600F58051054691F86204D9
:10196000BDF8308098B1D1F888040130C1F88804FE
:101970002068860006D4207B08280BD9667B0EB130
:101980000F2807D9D1F88C340133C1F88C344FF0CB
:10199000FF30AAE0302080F31188E86BD0F8C470E3
:1019A00017F4001713D0D1F890040130C1F8900457
:1019B000D1F89414002940F09B80CDF80080214696
:1019C000284600F0ADFE002383F311888DE0D0F8A7
:1019D000C460686BC6F301464FF0480919FB06095D
:1019E00020680028B4BF40F0804C4FEA804CC9F812
:1019F00000C02068400044BF4CF00050C9F800000F
:101A000094F80CC0300640EA0C40C9F8040094F881
:101A10000DC04FEA461ABCF1000F27D040F4401029
:101A2000C9F80400D1F8C0040130C1F8C00405EBC6
:101A30000A0101F58351087F40F020000877207BE0
:101A4000CDE9022300F0BEFEDDE902230330801061
:101A5000F9B2814207F1010710DA04EB810C09EBBE
:101A60008101DCF804C0C1F808C0F1E705EB0A0108
:101A700001F58351087F6CF34510DFE7E96B012026
:101A8000B040C1F8CC0006F1830105EB4111C1E97A
:101A9000002305EB461101F583512046083104F17E
:101AA0000C0750F804CB41F804CBB842F9D10088B8
:101AB0000880AA4441F278014AF801600AF5805A88
:101AC00008F003019AF87C0041F0100120F01F009B
:101AD00001438AF87C10002181F31188CDF8008041
:101AE0002146284600F01CFE012004B0BDE8F08726
:101AF000002068E738B5C26B936923F00103936156
:101B0000044600F0C3FD0546E36B9B69DB0706D581
:101B100000F0BCFD431BFA2BF6D9002004E004F5CD
:101B20008054012084F8620438BD000013B500F52C
:101B300080540191606DFFF7C3FD1F280AD90199F8
:101B4000606D2022FFF732FEA0F120035842584179
:101B500002B010BD0020FBE708B5302383F31188E5
:101B600000F58050406DFFF77FFD002383F311885F
:101B700008BD0000002202608281426082607047DE
:101B800010B500220023C0E900230023044603818E
:101B90000C30FFF7EFFF204610BD00002DE9F047A5
:101BA0009A4688B0074688469146302383F31188C9
:101BB00007F580546846FFF7E3FF606DFFF766FDA9
:101BC0001F282DD9606D20226946FFF771FE20285D
:101BD00026D194F862341BB303AD444605AB2E46C0
:101BE00003CE9E4220606160354604F10804F6D1C0
:101BF00030682060B388A380DDE90023C9E90023B1
:101C0000BDF80830AAF80030002383F3118853464A
:101C10004A464146384608B0BDE8F04700F044BDAA
:101C2000002080F3118808B0BDE8F0872DE9F84F57
:101C3000064635468846182200210430FFF712FA7E
:101C4000254B45F8403B06F582572C46204620346C
:101C5000FFF796FFA742F9D106F580544FF4805361
:101C600025640025C4E9113501236765E56484F81E
:101C7000503084F8583006F5845706F5A4594FF0D3
:101C8000000A4FF0000B47E908ABA7F11800FFF777
:101C900071FF203747F8285C4F45F4D184F86884F9
:101CA000A4F86A54A4F86C54A4F86E5484F87054E0
:101CB000A4F87254A4F87454A4F8765484F87854B0
:101CC000B8F1000F02D0054800F0DAFC044BF363D2
:101CD0003046BDE8F88F00BF40480008244800089F
:101CE0000064004010B5044B197804464A1C1A7071
:101CF000FFF79CFF204610BD3D4E00202DE9F84324
:101D000015460C4600295CD0022001F06FFE2E49DA
:101D1000B0FBF4F78C428CBF0A2111214B1EB7FB9C
:101D2000F1F601FB1671DAB221B1022B1946F5D892
:101D3000002032E0731EB3F5806FF9D2C2EBC20807
:101D400008F103014FEAE10EC1F3C701A2EB010C58
:101D50000EF101094FF47A735FFA8CF70EFB033E24
:101D600059FA8CFCBEFBFCFCBCF5617F17DC1FFA4A
:101D70008CF34A1C57FA82F27243B0FBF2F08442B1
:101D8000D6D14A1E0F2AD3D87A1E072AD0D80120CE
:101D90002B806E8028716971AF71BDE8F88308F1FE
:101DA000FF314FEAE10CC1F3C701521A0CF1010EE9
:101DB000D7B20CFB03335EFA82F2B3FBF2F39BB2B1
:101DC000D7E70846E9E700BF3F420F0030B50D4BAB
:101DD0000D4D05201C786C438C420ED159785180F2
:101DE00099785171D9789171197911715B7903EBF7
:101DF00083035B001380012030BD013803F106032B
:101E0000E8D1F9E78448000840420F000B4B10B5B9
:101E10004FF45472044600211846FFF723F9084B8B
:101E2000A3624033E362D8332363F0336363E36B2D
:101E300060620022C3F8C02010BD00BF00A40040B3
:101E400070A400402DE9F04700F580551F4695F835
:101E50006834012B88B004468946904604D9002690
:101E6000304608B0BDE8F087994A52F8231009B906
:101E700042F823009748C4F81C90017884F8207039
:101E800099B9302383F31188934B9A6D42F0007215
:101E90009A659A6B42F000729A639A6B22F0007214
:101EA0009A630123037081F3118895F861647EB908
:101EB000302383F311880321152001F0ABFE0321A9
:101EC000162001F0A7FE012385F8613486F31188FE
:101ED000302383F31188E26B936923F0100393613D
:101EE00000F0D4FB8246E36B9E6916F0080609D029
:101EF00000F0CCFBA0EB0A03FA2BF4D9002686F302
:101F00001188ADE79A6942F001029A6100F0BEFBC8
:101F10008246E36B9A69D00706D400F0B7FBA0EBCA
:101F20000A03FA2BF5D9E9E79A6942F002029A61AD
:101F3000E36B4FF0000AC3F854A08AF31188686D70
:101F4000FFF792FB202200216846FFF78BF802A8DA
:101F5000FFF710FE04F58353CDF818A06A4633440A
:101F60000DF1180E9446BCE80300F4451860596062
:101F7000624603F10803F5D1DCF800001860203652
:101F80009CF804201A71B6F5806FDBD1002304F5AC
:101F9000A35285F8603485F863340A3249462046F6
:101FA000FFF7ACFE064690B9E26B936923F001039C
:101FB000936100F06BFB0546E36B9B69D9077FF5E6
:101FC0004EAF00F063FB431BFA2BF5D947E795F8BA
:101FD0006E34C5F87C94591E95F86F34E26B013B62
:101FE0001B0243EA416395F8701401390B43B5F8BD
:101FF0006C14013943EA0143D361B8F1000F36D0C4
:1020000004F5A352123241462046FFF7DFFE90B995
:10201000E26B936923F00103936100F037FB0546FF
:10202000E36B9B69DA077FF51AAF00F02FFB431BC8
:10203000FA2BF5D913E795F87724C5F88084511E5B
:1020400095F87824E36B013A120142EA012295F8EF
:10205000761401390A43B5F87414013942EA014291
:1020600042F40002DA60E36B4FF420629A64204687
:10207000FFF7CCFE002385F86934E36B6FF0404234
:102080001A65E36B154A5A65E36B44229A65E36B64
:102090000722C3F8DC20E36B03229742DA653FF4A2
:1020A000DFAEE26B936923F00103936100F0EEFA77
:1020B0000746E36B9B69DB0705D500F0E7FAC31B16
:1020C000FA2BF6D9CBE6012385F86234C8E600BFC7
:1020D000384E00203C4E0020001002409B000800BB
:1020E0002DE9F04F00F5A5578BB00546904699466F
:1020F0004FF0000B41F2780A1037EB6BD3F8D43075
:1021000023FA0BF3DC0753D505EB4B1151444FEA8F
:102110004B120B7918074BD405F58056D6F894343A
:102120000133C6F89434C7E900890B79990648BF92
:10213000D6F8C43405EB020148BF0133514448BF0F
:10214000C6F8C4340B7943F008030B71DB0724D5C0
:1021500096F863340BB302A8019205F58354FFF798
:102160000FFD019A0834144405AB04F1080C2068F3
:1021700061681A4603C2083464451346F7D12068E3
:102180001060A2889A800123ADF810302B68CDE949
:1021900002891B6C02A928469847D6F8B834D6F8AD
:1021A00064040133C6F8B83410B103681B6998475A
:1021B0000BF1010BBBF1200F9FD10BB0BDE8F08FED
:1021C0002DE9F04F8DB004460F4600F061FA8246CB
:1021D0008946002F56D1E36BD3F89020920141BF7E
:1021E00004F58051D1F8A8240132C1F8A824D3F80D
:1021F0009020160703D100200DB0BDE8F08FD3F872
:102200009050E66AC5F30125482303FB0566E846BE
:102210004046FFF7AFFC326851004ABF22F06043EE
:10222000C2F38A4343F00043920048BF43F0804327
:102230000093736813F400131FBF04F58052012349
:102240008DF80D30D2F8C8340EBF8DF80D30013343
:10225000C2F8C834F38803F00F038DF80C304FF048
:10226000000B9DF80C0000F0ADFA5FFA8BF398427A
:1022700020D9F2180CA90B44127A03F82C2C0BF17C
:10228000010BEEE7012FB6D1E36BD3F8982095014F
:1022900041BF04F58051D1F8A8240132C1F8A82427
:1022A000D3F898201007A6D0D3F89850266BC5F322
:1022B0000125A9E7EFB9E36BC3F8945004A8FFF731
:1022C0005FFC98E80F0007AD07C52B800023ADF831
:1022D000183023682046CDE904A91B6C04A998474F
:1022E00004F5805458B1D4F8A0340133C4F8A034B4
:1022F00082E7012F04BFE36BC3F89C50DEE7D4F8FC
:10230000A4340133C4F8A434012075E72DE9F04169
:1023100005460F4600F58054012639462846FFF74A
:102320004FFF10B184F86364F7E7D4F8B834D4F8F9
:1023300064040133C4F8B83420B10368BDE8F04147
:102340001B691847BDE8F081F0B5C36B1A6C12F435
:102350007F0F2BD000F580541B6CC4F8BC3441F2C5
:102360007805002347194FF0010C00EB43122A4473
:102370005E01117911F0020F15D0490713D4B95934
:10238000C66BD6F8C8E00CFA01F111EA0E0F0AD0BC
:10239000C6F8D010117941F004011171D4F89C24D1
:1023A0000132C4F89C240133202BDED1F0BD0000A3
:1023B00010B5254C254B226802B338B31A6D1206AE
:1023C0000ED580221A6500F063F950EA01020B462F
:1023D00002D0013861F1000302462068FFF780FE59
:1023E0001A4A136D1B032AD523684FF4002103F505
:1023F00080531165012283F8692420E001221A65C7
:1024000008221A654FF480621A6510BD196DC8075D
:1024100002D4196D890705D50321196510460021DD
:10242000FFF774FF094B1A6D100702D41A6DD1061D
:1024300005D518221A6520680121FFF767FF20687B
:10244000BDE81040FFF780BF384E00200064004018
:1024500008B5302383F31188FFF776FF002383F359
:10246000118808BDC36BD3F8C40080F40010C0F31A
:102470004050704708B5302383F3118800F5805031
:10248000406DFFF703F9002383F3118843090CBF64
:102490000120002008BD000000F5805393F8692456
:1024A00062B1C16B8A6922F001028A61D3F8AC245F
:1024B0000132C3F8AC24002283F86924704700007D
:1024C0002DE9F743302181F31188002500F5835170
:1024D00041F2780E4FF0010800F5805C00EB4514E6
:1024E0007444267977071CD4F6061AD5D0F83C90A8
:1024F0008E69D9F8C87008FA06F63E4211D04F68C6
:1025000001970F689742019F9F410AD2C9F8D06096
:10251000267946F004062671DCF898440134CCF89C
:1025200098440135202D01F12001D7D1002383F3F8
:10253000118803B0BDE8F083F8B51E460023137080
:102540000F4605461446FFF795FF80F001003870EE
:102550001EB12846FFF786FF2070F8BD2DE9F04F29
:1025600085B09946DDE90EA30D46029313780193D9
:1025700091F800B08046164600F08AF82B780446A1
:102580000F4613B93378002B41D022463B464046D4
:10259000FFF796FFFFF75CFFFFF77EFF4B463246E3
:1025A0002946FFF7C9FF2B7833B1BBF1000F03D0E9
:1025B000012005B0BDE8F08F337813B1019B002BEB
:1025C000F6D108F580530393029B544577EB030340
:1025D0001DD2039BD3F86404C8B10368AAEB0401BD
:1025E0001B6898474B46324629464046FFF7A4FFF2
:1025F0002B7813B1BBF1000FDAD1337813B1019B03
:10260000002BD5D100F044F804460F46DCE700204B
:10261000CFE7000008B50020FFF7CAFEBDE808407C
:1026200001F0A4B808B50120FFF7C2FEBDE80840DC
:1026300001F09CB800B59BB0EFF3098168226846B1
:10264000FEF7FEFCEFF30583014B9B6BFEE700BF3B
:1026500000ED00E008B5FFF7EDFF000000B59BB00E
:10266000EFF3098168226846FEF7EAFCEFF3058381
:10267000014B5B6BFEE700BF00ED00E0FEE70000F2
:102680000FB408B5029801F079FBFEE701F05ABEDD
:1026900001F03CBE0139C9B202299EBF00EBC10066
:1026A0000023C0E901337047F8B51B885B07054676
:1026B0000E4615D4044600F11807BC4210D06368DA
:1026C00053B12B682846DB6B9847A368C1B23246EA
:1026D000606898470834F0E7A368002BF1D1F9E768
:1026E0000120F8BD73B56C4684E80600014600225F
:1026F0004E68D5B26EB98E685EB900EBC200021D9D
:1027000094E80300013582E803001D70012002B047
:1027100070BD0132032A01F10801E9D10020F6E77A
:102720002DE9F04F89B00446BDF848700E460546C5
:1027300000F118084FF0000907F004074FF0000AF5
:102740004FF0000BA84538D06B680BB9AB684BB1A4
:1027500057B923682046DB6B9847AB68C1B2324655
:10276000686898470835EDE7B9F1000FFAD1CDE96F
:1027700000ABADF80890334603AA06F1080E1868BE
:1027800059689446ACE80300083373456246F6D1B5
:102790001868CCF800009B88ACF80430FFF778FF8D
:1027A0000423ADF808302368CDE900011B6C6946AD
:1027B000204698474FF00109D4E7012009B0BDE851
:1027C000F08F0000082817D909280CD00A280CD04F
:1027D0000B280CD00C280CD00D280CD00E2814BFC0
:1027E0004020302070470C20704710207047142084
:1027F0007047182070472020704700002DE9F041F5
:10280000456A15B94162BDE8F0814B6823F0604725
:10281000C3F38A464FEAD37EC3F3807816EA2306D1
:1028200038BF3E46AC462B465A68BEEBD27F22F0FC
:1028300060440AD0002A18DAA40CB44217D19D4291
:102840000FD10D60DEE71346EEE7A74207D102F095
:102850008044C2F3807242450BD054B1EFE708D2F6
:10286000EDE7CCF800100B60CDE7B44201D0B442E4
:10287000E5D81A689C46002AE5D11960C3E7000034
:102880002DE9F047089D01F007044FEAD5082244DE
:1028900005F0070500EBD1004FF47F49944201D1C8
:1028A000BDE8F08704F0070705F0070A57453E46E4
:1028B00038BF5646C6F10806111B8E4228BF0E4689
:1028C000E10808EBD50E415C13F80EC0B94029FAB7
:1028D00006F721FA0AF1FFB28CEA010147FA0AF77A
:1028E00039408CEA010C03F80EC034443544D5E776
:1028F00080EA0120082341F2210201B240000029B0
:1029000080B203F1FF33B8BF504013F0FF03F4D19E
:102910007047000038B50C468D18A54200D138BD6F
:1029200014F8011BFFF7E4FFF7E7000042684AB123
:10293000136843604389818901339BB29942438183
:1029400038BF83811046704770B588B02022044696
:102950000D4668460021FEF785FB20460495FFF7EB
:10296000E5FF024658B16B46054608AE1C4603CC4F
:10297000B44228606960234605F10805F6D1104687
:1029800008B070BD082817D909280CD00A280CD027
:102990000B280CD00C280CD00D280CD00E2814BFFE
:1029A0004020302070470C207047102070471420C2
:1029B000704718207047202070470000082817D95A
:1029C0000C280CD910280CD914280CD918280CD98B
:1029D00020280CD930288CBF0F200E2070470920EA
:1029E00070470A2070470B2070470C2070470D205D
:1029F000704700002DE9F843078C072F04461ED9C5
:102A0000D0E9029800254FF6FF73C5F12006A5F125
:102A1000200029FA05F108FA06F628FA00F03143F9
:102A20000143C9B21846FFF763FF0835402D03463E
:102A3000EBD1E1693A46BDE8F843FFF76BBF4FF6CB
:102A4000FF70BDE8F883000010B54B6823B9CA8A4F
:102A500063F30902CA8210BD04691A681C6003612D
:102A6000C38A013BC3824A60EFE700002DE9F84FBB
:102A70001D46CB8A0F46C3F30901052981469246BC
:102A80000B4630D00020AAB207F11A049EB2042EE1
:102A90001FFA80F80FD8904503F1010306D3FB8A93
:102AA0000A4462F30903FB8201201AE01AF800606D
:102AB000E6540130EAE79045F1D2A1F1050B1C2361
:102AC0007C68BBFBF3F203FB12BB1FFA8BF6002CF6
:102AD00045D14846FFF72AFF044638B978606FF0C1
:102AE0000200BDE8F88F4FF00008E6E70026066018
:102AF0007860ADB24FF0000B454510D90AEB0803E2
:102B0000221D13F8011B9155B1B208F101081B29D0
:102B10001FFA88F82BD0454506F10106F1D8FB8A4B
:102B2000C3F30902154465F30903BCE7013292B20D
:102B30001C462368002BF9D16B1F0B441C21B3FBEF
:102B4000F1F301339BB29A42D3D2BBF1000FD0D143
:102B50004846FFF7EBFE20B9C4F800B0BFE70122FA
:102B6000E7E7C0F800B05E4620600446C1E745458F
:102B7000D5D94846FFF7DAFE08B92060AFE7C0F8BC
:102B800000B0002620600446B6E700002DE9F04FB3
:102B90002DED028B1C4683B05B6901920746884687
:102BA000002B00F0A780238C2BB1E269002A00F0F3
:102BB000A180072B35D807F10C00FFF7B7FE0546BB
:102BC00038B96FF00205284603B0BDEC028BBDE8B2
:102BD000F08F14220021FEF745FA228CE16905F1FD
:102BE0000800FEF72DFA208C013080B2FFF7E6FED8
:102BF000FFF7C8FE013880B2208401302874636971
:102C0000228C1B782A4403F01F0363F03F0348F033
:102C100000411372384669602946FFF7EFFD012530
:102C2000D1E702339BB20722C18A0633B3FBF2F32A
:102C3000828A521A9BB292B29342C2D800F10C031C
:102C40004FF0000908EE103A4FF0800A4E464D460C
:102C500018EE100AFFF76AFE83460028B1D014224E
:102C60000021FEF7FFF9002E3AD1019BABF80830A6
:102C700002220BF1080E1FFA82FC0CF10100BCF1DC
:102C8000060F218C80B201D88E422BD3FFF796FE1F
:102C9000FFF778FE62691278013802F01F028E4257
:102CA00008BF4FF0400A42EA49121BFA80F14AEA93
:102CB000020A013048F0004281F808A08BF81000A9
:102CC000CBF8042059463846FFF798FD238C013590
:102CD000B3422DB289F001094FF0000AB8D172E772
:102CE0000022C6E7E169895D0EF802100136B6B22E
:102CF0000132C0E76FF0010565E70000F8B5154641
:102D00000E463022002104461F46FEF7ABF9069B13
:102D10006360B5F5001F079BA76034BF6A094FF6D3
:102D2000FF72A36297B2E66104F1100000239A4299
:102D300006D800230360A782E3822383E360F8BD03
:102D40000660013330462036F1E7000003781BB9F6
:102D50004BB2002BC8BF017070470000007870476D
:102D6000F8B50C46C969074611B9238C002B37D139
:102D7000257E1F2D34D8387828BB228C072A2CD8E2
:102D8000268A36F003032BD14FF6FF70FFF7C2FD02
:102D900020F001003102400441EA0561400C41EAA3
:102DA00040254FF6FF72234629463846FFF7EEFED0
:102DB000002807DD626913780133DBB21F2B88BF5F
:102DC00000231370F8BD218A2D0645EA012505432D
:102DD0002046FFF70FFE0246E5E76FF00300F1E73C
:102DE0006FF00100EEE7000070B58AB004461646A9
:102DF0000021282268461D46FEF734F9BDF8383018
:102E0000ADF810300F9B05939DF840308DF81830C9
:102E1000119B07936946BDF84830ADF82030204635
:102E2000CDE90265FFF79CFF0AB070BD2DE9F041C6
:102E3000D36905460C4616460BB9138C5BBB377E2F
:102E40001F2F28D895F80080B8F1000F26D0304603
:102E5000FFF7D0FD3378210241EAC33141EA08018E
:102E6000338A41EA076141EA03410246334641F0B1
:102E700080012846FFF78AFE00280ADD3378012BFF
:102E800007D1726913780133DBB21F2B88BF00238F
:102E90001370BDE8F0816FF00100FAE76FF00300F6
:102EA000F7E70000F0B58BB004460D461746002149
:102EB000282268461E46FEF7D5F89DF84C305A1E6B
:102EC000534253418DF800309DF84030ADF810303A
:102ED000119B05939DF848308DF81830149B07938B
:102EE0006A46BDF85430ADF8203029462046CDE979
:102EF0000276FFF79BFF0BB0F0BD0000406A00B107
:102F000004307047436A1A68426202691A600361BA
:102F1000C38A013BC38270472DE9F041D0F820807D
:102F2000194E14461D464146002709B9BDE8F081F7
:102F3000D1E90223A21A65EB0303964277EB030360
:102F40001ED2036A8B420DD1FFF77EFD036A1B6818
:102F5000036203690B60C38A0161016A013BC3829A
:102F60008846E2E7FFF770FD0B68C8F80030036998
:102F70000B60C38A0161013BC382D8F80010D4E71B
:102F800088460968D1E700BF80841E002DE9F04F14
:102F90008BB00D46DDF8509014469B4680460028C5
:102FA00000F01981B9F1000F00F01581531E3F2B7D
:102FB00000F21181012A03D1BBF1000F40F00B8117
:102FC0000023CDE90833B8F81430B5EBC30F4FEA4E
:102FD000C30703D300200BB0BDE8F08F2B199F422D
:102FE000D8F80C303ABF7F1BFFB227461BB9D8F880
:102FF0001030002B7AD0272D4ED8C5F12806B742C5
:103000004FF000032CBFF6B23E4600932946D8F895
:10301000080008AB3246FFF733FCA7EB060A35443D
:103020005FFA8AFAB8F8143003F10053053BDB006D
:103030000493D8F80C3003932821039B13B1BAF101
:10304000000F2CD1D8F8100040B1BAF1000F05D014
:10305000009608AB5246691AFFF712FC38B2002FEF
:10306000B8D066070AD00AAB03EBD401624211F86C
:10307000083C02F00702134101F8083C082C3CD937
:10308000102C40F2B580202C40F2B780BBF1000F2D
:1030900000F09C80082334E0BA460026C2E7049B77
:1030A000E02B28BFE02306930B44AB42059314D9D1
:1030B0005A1B03980096924534BF5246D2B2691A01
:1030C00008AB04300792FFF7DBFB079A1644AAEB24
:1030D000020A1544F6B25FFA8AFA049B069A059929
:1030E0009B1A0493039B1B680393A6E70093D8F8ED
:1030F000080008AB3A462946AEE7BBF1000F13D0F3
:103100000123B4EBC30F6CD0082C12D89DF82030EB
:10311000621E23FA02F2D50706D54FF0FF3202FAFB
:1031200004F423438DF820309DF8203089F80030D6
:1031300051E7102C12D8BDF82030621E23FA02F29B
:10314000D10706D54FF0FF3202FA04F42343ADF85D
:103150002030BDF82030A9F800303CE7202C0FD8F3
:103160000899631E21FA03F3DA0705D54FF0FF3201
:1031700002FA04F40C430894089BC9F800302AE7CB
:10318000402C2BD0DDE90865611EC4F12102A4F1B9
:10319000210326FA01F105FA02F225FA03F311439D
:1031A0001943CB0712D50122A4F12003C4F1200159
:1031B00002FA03F322FA01F1A240524243EA010368
:1031C00063EB430332432B43CDE90823DDE90823B6
:1031D000C9E90023FFE66FF00100FCE66FF008008C
:1031E000F9E6082CA0D9102CB3D9202CEED8C3E7CF
:1031F000BBF1000FADD0022383E7BBF1000FBBD0C2
:1032000004237EE730B5012A144638BF0124402C40
:1032100085B028BF40240025012ACDE9025518D8E1
:103220001B788DF8083063070AD004AB03EBD40594
:10323000624215F8083C02F00702934005F8083C8A
:10324000009103462246002102A8FFF719FB05B0B2
:1032500030BD082AE4D9102A03D81B88ADF80830FD
:10326000E1E7202A8DBFD3E900231B680293CDE953
:103270000223D8E710B5CB681BB98B600B618B823A
:1032800010BD04691A681C600361C38A013BC382D4
:10329000CA60F0E703064CBFC0F3C030022070479D
:1032A00008B50246FFF7F6FF022806D15306C2F31F
:1032B0000F2001D100F0030008BDC2F30740FBE777
:1032C0002DE9F04F93B0CDE903230A680446104678
:1032D000FFF7E0FF022814BFC2F306260026002AEB
:1032E0000D46824680F2F78112F0C04940F0F3812A
:1032F000097B002900F0EF81022803D02378B34234
:1033000040F0EC81C2F304630693104602F07F03A1
:103310000593FFF7C5FF059B29444FEA834848EA18
:103320000A4848EA4668CE7800230022CDE90823FF
:10333000F309834648EA0008029367D0059B00938F
:1033400002466768534608A92046B847002800F09F
:10335000C881276A4FB9414604F10C00FFF7F4FA1F
:10336000074690B96FF0020054E03B6998450DD0D4
:103370003F68002FF9D1414604F10C00FFF7E4FA51
:1033800007460028EED0236A3B60276297F817C0F3
:1033900006F01F08CCF3840CACEB08001FFA80FE8B
:1033A0000028B8BF0EF12000A8EB0C031FFA83FE23
:1033B000D7E90221B8BF00B2002B0793BEBF0EF1C0
:1033C00020031BB2079352EA010338D0039BDFF8B6
:1033D00024E39A1A049B4FF0000C63EB010196451D
:1033E0007CEB01032BD36B7B97F81AE0734519D163
:1033F000029B002B78D0012821DC7868F8B9DFF82F
:10340000F0C2944570EB010316D337E0276A27B961
:103410006FF00C0013B0BDE8F08F3B699845B5D054
:103420003F68F4E7B24890427CEB010301D30020EF
:10343000F0E7029B002BFAD0079B0F2B17DCFA7DDD
:10344000B30002F0030203F07C031343FB7539461B
:103450002046FFF7F9FA6B7BBB76029B3BB9FB7DFD
:10346000C3F38402013262F38603FB75D0E76A7B03
:10347000BB7E9A42DBD1029B002B35D0B309022BD5
:1034800032D0039BBB60049BFB60142200210DA87B
:10349000FDF7E8FD039B0A93049B0B932B1D0C93F4
:1034A0002B7BADF83EB0013BDBB2ADF83C30069B68
:1034B0008DF84230059B8DF8433094F82C308DF810
:1034C00040A083F001038DF844308DF84180A3685B
:1034D0000AA920469847FB7DC3F38403013303F018
:1034E0001F039B02FB82A2E7FB7DC6F34012B2EBF7
:1034F000D31F40F0F980C3F38403434540F0FC80C0
:10350000029A2B7BB609002A52D016F0010661D12F
:10351000032B40F2F480039BBB60049BFB60FB8A9F
:1035200066F30903FB822B7BAE1D033BDBB2324605
:10353000394604F10C00FFF799FA00280CDA3946F5
:103540002046FFF781FAFB7DC3F38403013303F0C8
:103550001F039B02FB8205E7DDE90884AB883B8300
:103560004FF6FF73C9F12000A9F1200228FA09F1F2
:1035700004FA00F0014324FA02F211431846C9B2DA
:10358000FFF7B6F909F10809B9F1400F0346E9D18F
:10359000B8822A7B033AD2B23146FFF7BBF9FB7DF2
:1035A000B882DA43C2F3C01262F3C713FB753EE779
:1035B00086B92E1D013BDBB23246394604F10C00C0
:1035C000FFF754FA0028BADB2A7BB88A013AD2B254
:1035D0003146E2E7F98AC1F30901013B0429DAB275
:1035E0005BD8281D002307F11B069A4208D910F862
:1035F00001CB06F801C0013101330529DBB2F4D15A
:1036000003990A9104990B91934207F11B010C91C4
:1036100038BF043379680D9134BF55FA83F3002322
:103620000E93FB8AADF83EB0C3F309031A44069B20
:103630008DF84230059B8DF8433094F82C30ADF86E
:103640003C2083F001038DF8443000238DF840A026
:103650008DF841807B602A7BB88A013A291DFFF7EB
:1036600059F93B8BB882834203D1A3680AA920464B
:10367000984720460AA9FFF7FDFDFB7DBA8AC3F3F0
:103680008403013303F01F039B02FB823B8B9A42AE
:103690000CBF00206FF01000BCE67B68002BAFD0A1
:1036A000052001E01C3033461E68002EFAD1091AAD
:1036B000081D2E1D184401EB090CBCF11B0F5FFA0D
:1036C00089F39DD89A429BD916F8013B00F8013B3B
:1036D00009F10109EFE76FF009009BE66FF00A00BE
:1036E00098E66FF00B0095E66FF00D0092E600BFD4
:1036F00040420F0080841E006FF00E008AE66FF0DB
:103700000F0087E6EFF3098305494A6B22F00102B7
:103710004A63683383F30988002383F31188704771
:1037200000EF00E0302080F3118862B60C4B0D4AA8
:10373000D96821F4E0610904090C0A43DA60D3F87E
:10374000FC20094942F08072C3F8FC200A6842F06C
:1037500001020A602022DA7783F82200704700BF56
:1037600000ED00E00003FA05001000E010B5302382
:1037700083F311880E4B5B6813F4006314D0F1EEF1
:10378000103AEFF30984683C4FF08073E361094B12
:10379000DB6B236684F3098800F0BAFA10B1064B9C
:1037A000A36110BD054BFBE783F31188F9E700BF68
:1037B00000ED00E000EF00E03F03000842030008D6
:1037C000434B4FF4007270B51A605A6912F4C06F1F
:1037D000FBD1404B9A6802F00C02042A20D01A68F0
:1037E00042F480721A601A685205FCD501229A6070
:1037F0009A6802F00C02042AFAD13749374A0A6063
:103800000A6812F00F02FBD1C3F8982063221A60F5
:103810001A689603FCD42E4A4FF48071C2F88010C7
:10382000C468E50306D51A6842F480321A601A6843
:103830009103FCD5C269D20709D5D3F8982042F08C
:103840000102C3F89820D3F898209607FBD5426967
:10385000DA6044F480721A6004F0807111B11A6861
:103860009501FBD5996802691B4E22F0030501F012
:10387000030129439960856935603168694009070A
:10388000FBD1134905680D6046684E608068C1F839
:1038900080006E0417D448698505FCD4996802F04D
:1038A000030021F00301014399609200996851409F
:1038B00011F00C0FFAD1E2055EBF1A6822F4807293
:1038C0001A60002070BD48698005FCD5E6E700BF9E
:1038D000007000400010024000200240000604007A
:1038E00008B500F083F9BDE8084000F05BB90000BE
:1038F00010B5394C3948A36A4FF0FF32A262A36A6F
:103900000023A362A16AE16A61F07F01E162E16ADA
:1039100001F07F01E162E16A216B2263216B236385
:10392000216BA16BA263A16BA363A16BE16BE2634B
:10393000E16BE363E16B216C2264226C2364226CF3
:10394000226E42F001022266D4F8802022F00102A9
:10395000C4F88020D4F88020A26D42F08052A26585
:10396000A26F22F08052A267A26F1D4A4FF400415D
:103970009160D360136253629362D36213635363A3
:103980009363D363136453649364D364136553657F
:10399000116841F480711160D4F8902012F4407FD6
:1039A0001EBF4FF48032C4F89020C4F890300D4A06
:1039B0000023A360C4F88820C4F89C30FFF700FF00
:1039C00010B1094800F0DAF9D4F8903023F003235D
:1039D000C4F8903010BD00BF00100240AC48000891
:1039E0000070004055010051A4480008014B53F8F5
:1039F0002000704718230020074A08B5536903F0D8
:103A00000103536123B1054A13680BB1506898470D
:103A1000BDE80840FFF7AABE000401409450002012
:103A2000074A08B5536903F00203536123B1054AFD
:103A300093680BB1D0689847BDE80840FFF796BE81
:103A40000004014094500020074A08B5536903F070
:103A50000403536123B1054A13690BB150699847B8
:103A6000BDE80840FFF782BE0004014094500020EA
:103A7000074A08B5536903F00803536123B1054AA7
:103A800093690BB1D0699847BDE80840FFF76EBE57
:103A90000004014094500020074A08B5536903F020
:103AA0001003536123B1054A136A0BB1506A98475A
:103AB000BDE80840FFF75ABE0004014094500020C2
:103AC000164B10B55C6904F478725A61A30604D5EC
:103AD000134A936A0BB1D06A9847600604D5104A1E
:103AE000136B0BB1506B9847210604D50C4A936BAE
:103AF0000BB1D06B9847E20504D5094A136C0BB1A2
:103B0000506C9847A30504D5054A936C0BB1D06C53
:103B10009847BDE81040FFF729BE00BF00040140F0
:103B200094500020194B10B55C6904F47C425A6132
:103B3000620504D5164A136D0BB1506D98472305E5
:103B400004D5134A936D0BB1D06D9847E00404D5AA
:103B50000F4A136E0BB1506E9847A10404D50C4A5E
:103B6000936E0BB1D06E9847620404D5084A136F68
:103B70000BB1506F9847230404D5054A936F0BB1DE
:103B8000D06F9847BDE81040FFF7F0BD000401403A
:103B90009450002008B500F0F3FCBDE80840FFF7A2
:103BA000E5BD0000062108B5084600F033F80621FF
:103BB000072000F02FF80621082000F02BF806213E
:103BC000092000F027F806210A2000F023F806213A
:103BD000172000F01FF80621282000F01BF8BDE890
:103BE000084007211C2000F015B800004FF0E0232A
:103BF000002258684FF0FF31930003F1604303F552
:103C0000614301329042C3F88010C3F88011F3D2AF
:103C10007047000000F1604303F561430901C9B238
:103C200083F80013012200F01F039A4043099B0010
:103C300003F1604303F56143C3F880211A607047C4
:103C400000230375826803691B6899689142FBD25F
:103C50005A68036042601060586070470023037523
:103C6000826803691B6899689142FBD85A680360AF
:103C7000426010605860704708B50846302383F3EF
:103C800011880B7D032B05D0042B0DD02BB983F3AA
:103C9000118808BD8B6900221A604FF0FF338361E1
:103CA000FFF7CEFF0023F2E7D1E9003213605A603C
:103CB000F3E70000FFF7C4BF054BD9680875186823
:103CC00002681A60536001220275D860FCF722BBBB
:103CD000484E002030B50C4BDD684B1C87B00446C5
:103CE0000FD02B46094A684600F02AF92046FFF714
:103CF000E3FF009B13B1684600F02CF9A86907B0F8
:103D000030BDFFF7D9FFF9E7484E0020793C0008A5
:103D1000044B1A68DB6890689B68984294BF002047
:103D200001207047484E0020084B10B51C68D86829
:103D300022681A60536001222275DC60FFF78EFF53
:103D400001462046BDE81040FCF7E4BA484E00208A
:103D500038B5074C074908480123002523706560E2
:103D600000F03CFC0223237085F3118838BD00BFAE
:103D700070500020D0480008484E002008B572B6A8
:103D8000044B186500F0ACFA00F05CFB024B032218
:103D90001A70FEE7484E00207050002000F010B965
:103DA0008B60022308618B82084670478368A3F109
:103DB000840243F8142C026943F8442C426943F806
:103DC000402C094A43F8242CC26843F8182C0222DC
:103DD00003F80C2C002203F80B2C044A43F8102C97
:103DE000A3F12000704700BF2D030008484E0020BB
:103DF00008B5FFF7DBFFBDE80840FFF75BBF000039
:103E0000024BDB6898610F20FFF756BF484E002039
:103E1000302383F31188FFF7F3BF000008B5014694
:103E2000302383F311880820FFF754FF002383F326
:103E3000118808BD10B503689C68A2420CD85C6864
:103E40008A600B604C602160596099688A1A9A6098
:103E50004FF0FF33836010BD1B68121BECE70000BE
:103E60000A2938BF0A2170B504460D460A26601992
:103E700000F0AEFB00F09AFB041BA54203D8751CB2
:103E80002E460446F3E70A2E04D9BDE8704001200F
:103E900000F0E4BB70BD0000F8B5144B0D46D961CD
:103EA00003F1100141600A2A1969826038BF0A22B1
:103EB000016048601861A818144600F07BFB0A27CF
:103EC00000F074FB431BA342064606D37C1C281952
:103ED00000F07EFB27463546F2E70A2F04D9BDE8FD
:103EE000F840012000F0BABBF8BD00BF484E0020EA
:103EF000F8B506460D4600F059FB0F4A134653F835
:103F0000107F9F4206D12A4601463046BDE8F84060
:103F1000FFF7C2BFD169BB68441A2C1928BF2C46D1
:103F2000A34202D92946FFF79BFF224631460348A8
:103F3000BDE8F840FFF77EBF484E0020584E0020F5
:103F400010B4C0E9032300235DF8044B4361FFF77D
:103F5000CFBF000010B5194C236998420DD0D0E9AD
:103F60000032816813605A609A680A449A6000239C
:103F700003604FF0FF33A36110BD2346026843F88E
:103F8000102F53600022026022699A4203D1BDE8DB
:103F9000104000F017BB936881680B44936000F0F9
:103FA00005FB2269E1699268441AA242E4D91144EE
:103FB000BDE81040091AFFF753BF00BF484E00206C
:103FC0002DE9F047DFF8BC8008F110072C4ED8F837
:103FD000105000F0EBFAD8F81C40AA68031B9A4274
:103FE0003ED81444D5E900324FF00009C8F81C400F
:103FF00013605A60C5F80090D8F81030B34201D170
:1040000000F0E0FA89F31188D5E903312846984792
:10401000302383F311886B69002BD8D000F0C6FAE7
:104020006A69A0EB04094A4582460DD2022000F0DD
:1040300015FB0022D8F81030B34208D1514628466B
:10404000BDE8F047FFF728BF121A2244F2E712EB4F
:10405000090938BF4A4629463846FFF7EBFEB5E75F
:10406000D8F81030B34208D01444211AC8F81C0004
:10407000A960BDE8F047FFF7F3BEBDE8F08700BFD9
:10408000584E0020484E002038B500F08FFA054AFF
:10409000D2E90845031B181945F10001C2E90801DE
:1040A00038BD00BF484E002000207047FEE70000EA
:1040B000704700004FF0FF3070470000BFF34F8F94
:1040C000024A1369DB03FCD4704700BF00200240A2
:1040D00008B5094B1B7873B9FFF7F0FF074B5A6916
:1040E000002ABFBF064A9A6002F188329A601A68B5
:1040F00022F480621A6008BD88500020002002402F
:104100002301674508B50B4B1B7893B9FFF7D6FF22
:10411000094B5A6942F000425A611A6842F48052CF
:104120001A601A6822F480521A601A6842F4806297
:104130001A6008BD88500020002002407F289ABFE6
:1041400000F58030C0020020704700004FF400608E
:1041500070470000802070477F2808B50BD8FFF714
:10416000EDFF00F500630268013204D104308342A0
:10417000F9D1012008BD0020FCE700007F2810B520
:1041800004461FD8FFF79AFFFFF7A2FF0E4BF3225A
:104190001A6102225A615A6942EAC0025A615A6996
:1041A00042F480325A61FFF789FF4FF40061FFF754
:1041B000C5FF00F043F9FFF7A5FF2046BDE810401A
:1041C000FFF7CABF002010BD002002402DE9F843D0
:1041D00040EA020313F00703144606D0304B40F2C6
:1041E00082321A600020BDE8F88385182D4A954276
:1041F0000CD92B4A40F287311160F3E7031D1B688D
:104200004A68934208D1083C08300831072C14D979
:1042100002680B689A42F1D0FFF75AFFFFF74EFF92
:10422000214E08314FF001084FF00009012CA1F197
:10423000080706D8FFF766FF01E0002CECD101204B
:10424000D1E7C6F81480054651F8083C45F8043B10
:1042500051F8043C4360FFF731FF336943F0010339
:104260003361C6F81490026851F8083C9A420CD0A9
:104270000B4B40F2AF321A600C4B18600C4B1C60B9
:104280000C4B1F60FFF73EFFACE72D6851F8043C74
:104290009D4201F10801EBD1083C0830C6E700BFA0
:1042A00084500020000004080020024078500020C4
:1042B000805000207C500020084908B50B7828B1B8
:1042C0001BB9FFF705FF01230B7008BD002BFCD0C5
:1042D000BDE808400870FFF715BF00BF88500020F8
:1042E00008B50649064800F0ABF8BDE808404FF4B1
:1042F00080414FF0805000F0A3B800BF007F010064
:1043000000010020084600F033BA000038B5EFF392
:1043100011859DB9EFF30584C4F30804302334B14B
:1043200083F31188FFF7B0FE85F3118838BD83F35E
:104330001188FFF7A9FE84F3118838BDBDE8384025
:10434000FFF7A2BE38B5FFF7E1FF114C114AC008D4
:1043500040EA4170A0FB025EC908A0FB040C1CEB04
:10436000050CA1FB04404FF000035B41A1FB0212CE
:104370001CEB040C43EB000011EB0E0142F10002B8
:10438000411842F10000090941EA007038BD00BF40
:10439000CFF753E3A59BC4200244D2B2904200D190
:1043A0007047431C800000F1804000F51450006805
:1043B00041F8040BD8B2F1E7124B10B5D3F8904096
:1043C000240409D4D3F89040C3F89040D3F8904027
:1043D00044F40044C3F890400B4C2368024443F477
:1043E00080732360D2B2904200D110BD431C800084
:1043F00000F1804000F5145051F8044B0460D8B22D
:10440000F1E700BF001002400070004007B5012234
:1044100001A90020FFF7C0FF019803B05DF804FB7D
:1044200013B50446FFF7F2FFA04205D0012201A90F
:1044300000200194FFF7C0FF02B010BD70470000DC
:104440007047000070470000074B45F255521A6054
:1044500003225A6040F2FF729A604CF6CC421A6016
:10446000024B01221A70704700300040905000202B
:10447000034B1B781BB1034B4AF6AA221A60704704
:104480009050002000300040054B1A6832B902F10C
:10449000804202F50432D2F894201A60704700BFBF
:1044A0008C500020024B4FF40002C3F89420704758
:1044B0000010024008B5FFF7E7FF024B1868C0F391
:1044C000407008BD8C50002070470000FEE70000DF
:1044D0000A4B0B480B4A90420BD30B4BDA1C121AB7
:1044E000C11E22F003028B4238BF00220021FCF7DC
:1044F000B9BD53F8041B40F8041BECE7544A00080C
:104500001451002014510020145100200023054AAA
:1045100019460133102BC2E9001102F10802F8D14B
:10452000704700BF9450002008B5124B9A6D42F0BE
:1045300001029A659A6F42F001029A670E4A9B6FD8
:10454000936843F0010393600620FFF74FFA0B4B8B
:10455000B0FBF3F04FF080434FF0FF320138986228
:10456000DA6200229A615A63DA605A6001225A6163
:104570001A6008BD00100240002004E040420F0015
:104580004FF0804208B51169D3680B40D9B2C943D6
:104590009B07116107D5302383F31188FFF7FEFBDA
:1045A000002383F3118808BDFFF7BEBF4FF080439F
:1045B000586A70474FF08043002258631A61022204
:1045C000DA6070474FF080430022DA6070470000E5
:1045D0004FF0804358637047FEE7000070B51B4BF7
:1045E00001630025044686B0586085620E46FFF7D9
:1045F00099F804F11003C4E904334FF0FF33C4E920
:104600000635C4E90044A560E562FFF7CFFF2B46FD
:104610000246C4E9082304F134010D4A25658023CC
:104620002046FFF7BDFB0123E0600A4A03750092B4
:1046300072680192B268CDE90223074B6846CDE962
:104640000435FFF7D5FB06B070BD00BF70500020E9
:10465000DC480008E1480008D9450008024AD36A4E
:104660001843D062704700BF484E00204B6843603B
:104670008B688360CB68C3600B6943614B690362DD
:104680008B6943620B6803607047000008B5204BDC
:10469000DA6A42F07F02DA62DA6A22F07F02DA62D4
:1046A000DA6ADA6C42F07F02DA64DA6E42F07F0294
:1046B000DA66184ADB6E11464FF09040FFF7D6FFDE
:1046C00002F11C0100F58060FFF7D0FF02F1380114
:1046D00000F58060FFF7CAFF02F1540100F5806029
:1046E000FFF7C4FF02F1700100F58060FFF7BEFF25
:1046F00002F18C0100F58060FFF7B8FF02F1A8011C
:1047000000F58060FFF7B2FFBDE80840FFF7F0B8A2
:1047100000100240E848000808B500F009F8FFF76B
:1047200017FBBDE80840FFF7AFBE00007047000070
:1047300008B5FFF7D5F8FFF7E9FEFFF7F7FFBDE88B
:104740000840FFF731BF00000B460146184600F055
:1047500001B8000010B5054C13462CB10A460146BD
:104760000220AFF3008010BD2046FCE700000000EF
:10477000024B01461868FFF7C5BD00BF402300206B
:1047800010B501390244904201D1002005E00378C0
:1047900011F8014FA34201D0181B10BD0130F2E700
:1047A0002DE9F041A3B1C91A17780144044603F179
:1047B000FF3C8C42204601D9002009E00578BD422B
:1047C00004F10104F5D10CEB0405D618A54201D182
:1047D000BDE8F08115F8018D16F801EDF045F5D032
:1047E000E7E70000034611F8012B03F8012B002A2C
:1047F000F9D170476F72672E6172647570696C6F62
:10480000742E4E75636C656F2D473439310000008E
:1048100040A2E4F1646891060041A3E5F265699263
:10482000070000004261642043414E4966616365B0
:1048300020696E6465782E00000000000000000012
:10484000451E0008D51800085D2500084519000818
:10485000511900089D1B0008F51A00080D190008E1
:1048600011190008E9180008D1180008591B0008A0
:10487000F5180008E526000895260008011900082B
:104880002D1B000801040E05054B02020E05054B09
:1048900004010E05054B05010B04044B080106033A
:1048A00003460000636C6B73776300000003000035
:1048B00000000000000100000000010103000000F2
:1048C00023283101040704000100000063300000C8
:1048D000CC480008A04E0020705000206D61696E29
:1048E0000069646C650000000004002800000000FE
:1048F000AAAAAAAA00000024DFFF0000000000000E
:104900000000000000000A0000000000AAAAAAAAF5
:1049100000000000FFFF0000000000009900000000
:104920000000000000000000AAAAAAAA00000000DF
:10493000FFFF000000000000000000000000000079
:1049400000000000AAAAAAAA00000000FFFF0000C1
:104950000000000000000000000000000000000057
:10496000AAAAAAAA00000000FFFF000000000000A1
:10497000000000000000000000000000AAAAAAAA8F
:1049800000000000FFFF0000000000000000000029
:104990000000000000000000AAAAAAAA000000006F
:1049A000FFFF000000000000000000000000000009
:1049B0001004000000000000006003000000000080
:1049C000FE2A0100D2040000006889096D8BB9023B
:1049D00000B4C4040068890900688909006889096D
:1049E00000688909006889090068890900000000D9
:1049F0004423002000000000000000000000000030
:104A000000000000000000000000000000000000A6
:104A10000000000000000000000000000000000096
:104A20000000000000000000000000000000000086
:104A30000000000000000000000000000000000076
:104A40000000000000000000000000000000000066
:044A50000000000062
:00000001FF
