:020000040800F2
:1000000000070020F1010008B1240008692400085D
:10001000912400086924000889240008F3010008DD
:10002000F3010008F3010008F30100084D35000852
:10003000F3010008F3010008F3010008F3010008D0
:10004000F3010008F3010008F3010008F3010008C0
:10005000F3010008F3010008D94200080143000839
:10006000294300085143000879430008F3010008C0
:10007000F3010008F3010008F3010008F301000890
:10008000F3010008F3010008F30100081D24000833
:100090004924000859240008F3010008A14300087E
:1000A000F3010008F3010008F3010008F301000860
:1000B00075440008F3010008F3010008F30100088B
:1000C000F3010008F3010008F3010008F301000840
:1000D000F3010008F3010008F3010008F301000830
:1000E00005440008F3010008F3010008F3010008CB
:1000F000F3010008F3010008F3010008F301000810
:10010000F3010008F3010008F3010008F3010008FF
:10011000F3010008F3010008F3010008F3010008EF
:10012000F3010008F3010008F3010008F3010008DF
:10013000F3010008F3010008F3010008F3010008CF
:10014000F3010008F3010008F3010008F3010008BF
:10015000F3010008F3010008F3010008F3010008AF
:10016000F3010008F3010008F3010008F30100089F
:10017000F3010008F3010008F3010008F30100088F
:10018000F3010008F3010008F3010008F30100087F
:10019000F3010008F3010008F3010008F30100086F
:1001A000F3010008F3010008F3010008F30100085F
:1001B000F3010008F3010008F3010008F30100084F
:1001C000F3010008F3010008F3010008F30100083F
:1001D000F3010008F3010008F3010008F30100082F
:1001E000B50F000800000000000000000000000043
:1001F00002E000F000F8FEE772B6374880F30888A6
:10020000364880F3098836483649086040F20000D5
:10021000CCF200004EF63471CEF200010860BFF35C
:100220004F8FBFF36F8F40F20000C0F2F0004EF628
:100230008851CEF200010860BFF34F8FBFF36F8F7C
:100240004FF00000E1EE100A4EF63C71CEF20001D4
:100250000860062080F31488BFF36F8F03F052FE0E
:1002600003F0E4FE4FF055301F491B4A91423CBF5A
:1002700041F8040BFAE71D49184A91423CBF41F886
:10028000040BFAE71A491B4A1B4B9A423EBF51F82E
:10029000040B42F8040BF8E700201849184A914271
:1002A0003CBF41F8040BFAE703F030FE03F012FF05
:1002B000144C154DAC4203DA54F8041B8847F9E797
:1002C00000F042F8114C124DAC4203DA54F8041B12
:1002D0008847F9E703F018BE00070020002300203C
:1002E0000000000808ED00E00001002000070020E9
:1002F000884700080023002080230020802300205E
:10030000584D0020E0010008E4010008E401000865
:10031000E40100082DE9F04F2DED108AC1F80CD052
:10032000C3689D46BDEC108ABDE8F08F002383F3BF
:1003300011882846A047002003F064FAFEE703F086
:10034000EDF900DFFEE70000F8B500F045FE03F030
:1003500073FD074603F0C2FD0546C0BB294B9F4213
:1003600035D001339F4235D0274B27F0FF029A4208
:1003700033D1F8B200F03AFC2E4642F2107400F08D
:100380003BFC08B10024264601F050F948B3032095
:1003900000F03EF80024264635B11C4B9F4203D0A6
:1003A00003F094FD00242646002003F04FFD0EB11B
:1003B00000F044F800F08EFC02F082F80546C4B963
:1003C00000F0D0FC4FF47A7003F022FAF7E72E46E3
:1003D0000024D4E704460126D1E7064641F28834DA
:1003E000CDE741F288339C4204BF4FF47A74012672
:1003F000D2E702F065F8431BA342E1D900F01EF8F2
:10040000DAE700BF010007B0000008B0263A09B0E3
:10041000084B187003280CD8DFE800F00805020824
:10042000022000F037BE022000F02ABE024B00225C
:100430005A607047802300208423002010B501F00B
:10044000F5F830B1204B03221A70204B00225A607D
:1004500010BD1F4B1F4A1C4619680131F8D00433E8
:100460009342F9D162681C4B9A42F1D91B4B9B68AD
:1004700003F1006303F580339A42E9D203F0FAFCFA
:1004800003F00CFD002000F0C1FD0220FFF7C0FFCB
:10049000134B1A6C00221A64196E1A66196E596C85
:1004A0005A64596E5A665B6E72B64FF0E023302183
:1004B000C3F8084DD4E9003281F311889D4683F3D7
:1004C00008881047C4E700BF802300208423002051
:1004D0000000010820000108FFFF000800230020A1
:1004E00000380240094A136849F2690099B21B0CAE
:1004F00000FB01331360064B186844F2506182B26E
:10050000000C01FB0200186080B270471823002025
:100510001423002010B500211022044600F0D6FD5F
:10052000034B03CB206061601868A06010BD00BF62
:10053000107AFF1FF0B5ADF54D7D6AAC4FF4C47273
:1005400007460D462046002100F0C0FD01F0B8FF2F
:10055000264B4FF47A72B0FBF2F0186093E8070074
:10056000022384E807000DF5E5702382FFF7D2FF30
:1005700047F217131E49238407A804F017F80F2326
:1005800084F832310DF2DB2207AB0DF1240C1E464C
:1005900003CE664510605160334602F10802F6D181
:1005A00030681060B188B37993710BAE91802046AA
:1005B0003146012200F0D6FD00230393AB7E029367
:1005C00005F11903019380B20123CDE90460009382
:1005D000E97E04A3D3E90023384602F087FB0DF53A
:1005E0004D7DF0BD9E6AC421818A46EE8C23002099
:1005F000BC4500082DE9F0412C4C237ADAB0804646
:100600000D465BBB27A9284600F0D2FE074600280E
:1006100042D19DF89D60C82E3ED801464FF4A66297
:10062000204600F053FD4FF48073C4F8F8314FF4C6
:100630000073C4F80C334FF44073C4F820343246CE
:100640000DF19E0104F1090000F02EFD26449DF8F5
:100650009C30777223720BB9EB7E237281220021CA
:1006600006AC27A800F032FD0122214627A800F0A1
:10067000E5FE00230393AB7E029305F1190380B2DC
:1006800001932823CDE904400093E97E05A3D3E933
:100690000023404602F02AFB5AB0BDE8F08100BFBB
:1006A000AFF3008026417272DF25D7B7D433002024
:1006B000F0B5254E4FF48A7505FB0065F1B096F84C
:1006C000D83085F8DC300024D822214685F8E8406F
:1006D0003AA800F0FBFC06F1090000F0EFFCD5F8A9
:1006E000E4308DF8F000C2B206AF06F109010DF159
:1006F000F100CDE93A3400F0D7FC394601223AA89E
:1007000000F0D2FE80B2CDE9047008230127CDE9C4
:10071000023706F1D803019330230093317A0B4856
:1007200007A3D3E9002302F0E1FAA04206DD01F0BD
:10073000C7FEC5F8E000384671B0F0BD2046FBE7C3
:1007400078F6339F93CACD8DD4330020A433002094
:100750002DE9F0411D4D1E4E1E4F86B0284602F079
:10076000F1FA034658B30024CDE90344ADF8144030
:10077000027B8DF8142099684068029403AA03C292
:100780001B68DFF8548043F00043029301F09AFEA7
:10079000821941F10003009402A9384601F02EF9B4
:1007A000A04205DD284602F0D1FA88F80040D5E7DE
:1007B00098F80030072B05D8013388F8003006B0D0
:1007C000BDE8F081014802F0C1FAF8E7A433002047
:1007D00040420F00103900200939002070B50D4645
:1007E00014461E4602F0DEF950B9022E10D1012C3B
:1007F0000ED112A3D3E90023C5E90023012007E0AD
:10080000282C10D005D8012C09D0052C0FD00020A1
:1008100070BD302CFBD10BA3D3E90023ECE70BA375
:10082000D3E90023E8E70BA3D3E90023E4E70BA314
:10083000D3E90023E0E700BFAFF30080401DA12013
:1008400026812A0B78F6339F93CACD8D9E6AC421E8
:10085000818A46EE26417272DF25D7B7F017304AFB
:1008600039059E5638B505460E4C0021013500F07D
:10087000EFFBA4F82C55B4F82C0500F0D1FB78B1AF
:10088000B4F82C0500F0DCFB014648B9B4F82C059F
:1008900000F0DEFBB4F82C350133A4F82C35EAE780
:1008A00038BD00BFD433002010B50A4B0A4A1A6085
:1008B00003F5805393F870203AB9DC6E2CB12046D2
:1008C00000F032FF204601F06FF8BDE81040034809
:1008D00000F02ABF103900200846000868490020AF
:1008E0002DE9F04F8FB000AF05460C4602F05AF9E3
:1008F00000284BD1237E022B1BD1E38A012B18D178
:1009000001F0DEFD0646FFF7EDFD03464FF4C8702B
:10091000DFF8D482B3FBF0F206F5167602FB103353
:1009200016FA83F3C8F80030E37E33B9A74B0022F0
:100930001A703C37BD46BDE8F08F07F12401204610
:1009400000F0EAFC0028F4D107F11400FFF7E2FD03
:1009500097F8264007F11401224607F1270003F01B
:10096000F3FD0028E2D10F2C08D8984B1C70D8F862
:100970000030A3F51673C8F80030DAE797F82410B2
:100980000029D6D0284602F005F9D2E7E38A282BC1
:1009900033D010D8012B2BD0052BCAD1BFF34F8FEA
:1009A0008B498C4BCA6802F4E0621343CB60BFF3FF
:1009B0004F8F00BFFDE7302BBBD1874EE17E327AEF
:1009C0009142B6D1607E3146002291F8DC508542DA
:1009D00000F0AD800132042A01F58A71F5D1326848
:1009E00040F6B831FA328A4294BF32603160A0E7F3
:1009F00021462846FFF79EFD9BE721462846FFF744
:100A0000F9FD96E7B2F8EC507B6005F103094FEA77
:100A100099094FEA8902D11DC908A8EBC1039D4677
:100A2000EB460021584600F051FB04F1EE012A4646
:100A30003144584600F038FB7B6813B9012000F0C0
:100A4000E5FA96F8D20000F0EBFA044630B93072BD
:100A500000F006FB204600F0D9FAB0E0D6F8D4202A
:100A60003AB996F8D200B6F82C25824201D8FFF7A1
:100A7000F9FED6F8D4202A44944208D296F8D2003F
:100A8000B6F82C250130824201D8FFF7EBFE7068E2
:100A90005FFA89F2594600F021FB08B9C54679E0B2
:100AA000726896F8D2002A447260D6F8D42005EB1A
:100AB0000209C6F8D49000F0B3FA814509D396F83C
:100AC000D220D6F8D4000132001B86F8D220C6F816
:100AD000D400FF2D0FD80024347200F0C1FA204654
:100AE00000F094FA00F0A2FD3C4B188108B9FFF722
:100AF000A5FCC5461DE7BB6896F8D9000AFB036252
:100B0000FB68D2F8E41082F8E83001F58061C2F8A1
:100B1000E030C2F8E410FFF7CBFDFFF719FE96F8BE
:100B2000D920013202F0030286F8D920B6E74FF44B
:100B30008A7A0AFB02F505F1EA013144204600F009
:100B4000E7FCF86000287FF4F4AE3544012285F814
:100B5000E82001F0B5FCD5F8E020D6ED007ADFED15
:100B6000206A801A192838BF192040F6B8329042FE
:100B700028BF1046B8EE677A07EE900AF8EEE77ADB
:100B800067EEA67ADFED176AE7EE267AFCEEE77AE3
:100B9000C6ED007A96F8D9307168BB600AFB03F4A1
:100BA000321992F8E8505DB1D2F8E4308B42E84651
:100BB0003FF428AF002182F8E810C2F8E010C546E3
:100BC0007368064A9B0A01331381B2E69D33002005
:100BD00000ED00E00400FA05D43300208C2300204F
:100BE000CDCCCC3D6666663FA0330020014B18702B
:100BF000704700BF9823002030B54FF000542C4BB5
:100C000022689A4285B023D1637D0BB3294A2A48D2
:100C10001370237D03724FF48073C0F8F8314FF4E2
:100C20000073C0F80C3300254FF44073C0F8203433
:100C30002249C0F8E450C922093000F035FA2046B4
:100C4000E022294600F042FA0124204605B030BDDA
:100C500003F04EF9044608B90024F6E7184A194D86
:100C6000136C43F000731364AA6D174B9A42F3D1CF
:100C70002B6E013B7E2BEFD8144A07CA01AB83E8E9
:100C800007001846032100F09FFC6B6D83424FF074
:100C90000003E1D12A6D8A4201BFAB65054B2A6E84
:100CA0001A7003BF0A4BEA6D1A601C46CDE700BFFD
:100CB0009AAD44C598230020D433002016000020AC
:100CC00000380240006600405041A0B05866004025
:100CD0001023002037B51A4D00F0A8FC02236B71D9
:100CE000184B288119681848012201F083FA002363
:100CF0000193164B164900931648174B4FF4805238
:100D000001F020FF154B197811B1124801F042FF94
:100D100001F0D6FB0446FFF7E5FB4FF4C873B0FBC8
:100D2000F3F202FB130304F5167010FA83F00C4B78
:100D3000186003F0D3F808B10F232B8103B030BD46
:100D40008C2300201023002010390020DD0700082C
:100D50009C230020A4330020E108000898230020F1
:100D6000A03300202DE9F04F2DED028B0FF2382932
:100D7000D9E90089834C93B00BAE9FED7E8BFFF7D2
:100D8000E7FC814FDFF828A200230A93ADF8343046
:100D90000B9373604FF0000B5B468DED008B0125CC
:100DA0000DF11D0207A938468DF81C508DF81DB0B5
:100DB00001F0CEF99DF81C30002B40F0A5802046B4
:100DC00001F0F0FE0646002845D1704F01F078FB97
:100DD0003B6898423FD301F073FB8246FFF782FBEA
:100DE0004FF4C873B0FBF3F202FB13030AF516705D
:100DF00010FA83F03860664F97F800B0CBF1100A14
:100E0000BBF1000F14BF33462B465FFA8AFA0EA8D7
:100E10008DF82830FFF77EFBBAF1060F28BF4FF0A0
:100E2000060A0EAB03EB0B0152460DF1290000F050
:100E30003BF90AAB0393182302930AF10102554BC5
:100E4000D2B2CDE90053049220464CA3D3E900234B
:100E500001F0EEFE3E7001F033FB4F4A4F4D136838
:100E6000C31AB3F57A7F2ED3106001F02BFB024634
:100E70000B46204601F074FF204601F093FE10B3AC
:100E80002B7A474E002B14BF03230223737101F00A
:100E900017FB0EAF4FF47A730122B0FBF3F0394623
:100EA0003060304600F010FA182302933D4B019356
:100EB00080B240F25513CDE90370009342464B4691
:100EC000204601F0B5FE2B7A93B101F0F9FA002625
:100ED00007464FF48A7A95F8D900304400F00300B1
:100EE0000AFB005393F8E82092B30136042EF2D1A6
:100EF000C82002F08DFC2B7A002B7FF43DAF13B09D
:100F0000BDEC028BBDE8F08FDAF8143083F4807307
:100F1000CAF81430594610220EA800F0D7F80DF187
:100F20001E0308AA0AA9384600F06EFE96E80300E0
:100F30000FAB83E803009DF834308DF844300A9BF2
:100F40000E930EA9DDE90823204602F0DDF821E723
:100F5000D3F8E02042B12B68FA2B38BFFA23BA1A33
:100F60000533B2EB430FC0D3FFF7A2FB0028BCD17F
:100F7000BEE700BF0000000000000000401DA120EF
:100F800026812A0BA433002010390020A033002032
:100F90009D3300209C33002004390020D4330020EE
:100FA0008C23002008390020F1C6A7C1D068080FA3
:100FB0000008024008B5054800F0C4FEBDE808403E
:100FC000034A0449002003F09BBA00BF10390020F7
:100FD000304A0020A908000870B502F0D1FD094E82
:100FE000094D3080002428683388834208D902F0F4
:100FF000C1FD2B6804440133B4F5803F2B60F2D36C
:1010000070BD00BF244A0020F849002002F068BEED
:1010100000F10060920000F5803002F0F7BD0000A2
:10102000054B1A68054B1B889B1A834202D9104452
:1010300002F0A0BD00207047F8490020244A00209B
:10104000024B1B68184402F09DBD00BFF849002008
:10105000024B1B68184402F0ADBD00BFF8490020E8
:10106000064991F8243033B10023086A81F824300E
:101070000822FFF7CDBF0120704700BFFC490020C8
:10108000022802BF024B4FF480729A61704700BF82
:1010900000080240022802BF024B4FF080729A61A2
:1010A000704700BF0008024010B50023934203D0F0
:1010B000CC5CC4540133F9E710BD0000034602467E
:1010C000D01A12F9011B0029FAD1704702440346D5
:1010D000934202D003F8011BFAE770472DE9F84369
:1010E0001F4D144695F824200746884652BBDFF86A
:1010F00070909CB395F824302BB92022FF214846EC
:101100002F62FFF7E3FF95F82400C0F10802A24226
:1011100028BF2246D6B24146920005EB8000FFF779
:10112000C3FF95F82430A41B1E44F6B2082E1744C2
:101130009044E4B285F82460DBD1FFF791FF0028EA
:10114000D7D108E02B6A03EB82038342CFD0FFF7AD
:1011500087FF0028CBD10020BDE8F8830120FBE702
:10116000FC4900202DE9F3470D4604460021904636
:10117000284640F27912FFF7A9FF234620220021DA
:10118000284601F063FF231D02222021284601F09A
:101190005DFF631D03222221284601F057FFA31D96
:1011A00003222521284601F051FF04F108031022F3
:1011B0002821284601F04AFF04F1100308223821B3
:1011C000284601F043FF04F111030822402128467C
:1011D00001F03CFF04F1120308224821284601F0E7
:1011E00035FF04F1140320225021284601F02EFF80
:1011F00004F1180340227021284601F027FF04F172
:1012000020030822B021284601F020FF04F1210329
:101210000822B821284601F019FF04F12207C02650
:101220003B46314608222846083601F00FFFB6F546
:10123000A07F07F10107F3D194F832308DF8073021
:1012400031460DF107030822284601F0FFFE002673
:1012500004F1330A9DF807304FEAC6099E4209F5AA
:10126000A47720D394F83231502B28BF50238DF827
:101270000730B8F1000F08D139460DF107030722F6
:10128000284601F0E3FE09F24F17002604F233145A
:101290009DF807309E4207EBC6010DD30731C80801
:1012A00002B0BDE8F0870AEB06030822394628465B
:1012B00001F0CCFE0136CDE7A3190822284601F043
:1012C000C5FE0136E4E7000013B5044608460021D8
:1012D00001602346C0F803102022019001F0B6FE01
:1012E0000198231D0222202101F0B0FE0198631D08
:1012F0000322222101F0AAFE0198A31D0322252129
:1013000001F0A4FE019804F108031022282101F045
:101310009DFE072002B010BDF7B5047F05460E46BE
:101320002CB1838A122B02D9012003B0F0BD002317
:10133000194607220096284601F04CFD731C0093C5
:10134000012200230721284601F044FDD4B9B31C33
:101350000093052223460821284601F03BFD0D2479
:10136000B378102BE0D83746B278BB1B934210D32A
:101370002B7FA88A0734E408B3B9844294BF0020C5
:101380000120D2E7AB8ADB00083BDB08B3700824FE
:10139000E6E7FB1C0093214600230822284601F0C3
:1013A00019FD08340137DFE7201A18BF0120BCE718
:1013B000F7B5047F05460E462CB1838ACA2B02D9A5
:1013C000012003B0F0BD00231946009608222846EC
:1013D00001F000FD731CD4B9082200931146234686
:1013E000284601F0F7FC10247378C82BE8D80123B5
:1013F00072785F1C013B934210D32B7FA88A07347D
:10140000E408B3B9844294BF00200120D9E7AB8A35
:10141000DB00083BDB0873700824E5E7F319009351
:10142000214600230822284601F0D4FC08343B461C
:10143000DEE7201A18BF0120C3E70000F7B50D460C
:1014400004460021164628468122FFF73FFE234628
:1014500008220021284601F0F9FD94F90120637863
:10146000002AB8BF7F238DF807309EB90DF107031E
:1014700007220821284601F0E9FD0F270026023443
:101480009DF807309E4207EBC60105D30731C80817
:1014900003B0F0BD0827F1E7A3190822284601F0A0
:1014A000D5FD0136ECE70000F7B50E4605460021F4
:1014B00014463046CE22FFF709FE2B462822002193
:1014C000304601F0C3FD2B7AC82B28BFC8238DF806
:1014D00007308CB90DF1070308222821304601F0AE
:1014E000B5FD30242F469DF807207B1B934205D382
:1014F000E01DC00803B0F0BD2824F3E707F109039D
:1015000021460822304601F0A1FD08340137EAE700
:10151000F7B5047F05460E4634B1838AB3F5827F62
:1015200002D9012003B0F0BD009601231022002152
:10153000284601F04FFCDCB9B31C00930922234676
:101540001021284601F046FC19247388B3F5807FEA
:10155000E7D837467288BB1B934210D32B7FA88AEB
:101560000734E408B3B9844294BF00200120D9E7CE
:10157000AB8ADB00103BDB0873801024E5E73B1DE2
:101580000093214600230822284601F023FC08345A
:101590000137DFE7201A18BF0120C3E730B5094D36
:1015A0000A4491420DD011F8013B5840082340F302
:1015B0000004013B2C4013F0FF0384EA5000F6D1F5
:1015C000EFE730BD2083B8EDF7B54FF0FF33DFF81C
:1015D00054C0DFF854E000EB81011A4688421CD069
:1015E00050F8044B019401AF042417F8015B82EA20
:1015F00005620825DB18164605F1FF355241002E1D
:10160000BCBF83EA0C0382EA0E0215F0FF05F1D19C
:10161000013C14F0FF04E8D1E0E7D843D14303B024
:10162000F0BD00BF9336EAA9EBE1F042F7B5384AC6
:10163000106851686B4603C36A463649364808232A
:1016400002F092FF0446002833D10A25334A10687D
:1016500051686B4603C36A4631492F48082302F09C
:1016600083FF0446002849D00369B3F5E02F45D82D
:10167000B0F8661041F2717291423FD1294A02449A
:1016800002F15C018B4239D35C3B234900209E1A56
:10169000FFF784FF3246074604F164010020FFF79C
:1016A0007DFFA3689F4229D1E368984208BF0025C7
:1016B00024E00369B3F5E02F27D8418B41F2717222
:1016C000914220D1174A024402F110018B4218D3F3
:1016D000103B114900209D1AFFF760FF2A4606467D
:1016E00004F118010020FFF759FFA3689E4202D1C0
:1016F000E368984201D00D25A8E70025284603B0ED
:10170000F0BD1025A2E70C25A0E70B259EE700BF42
:10171000CC450008DCFF060000000108D5450008A4
:1017200090FF06000800FFF710B5037C044613B9CC
:10173000006802F001FF204610BD00000023BFF347
:101740005B8FC360BFF35B8FBFF35B8F8360BFF3BF
:101750005B8F7047BFF35B8F0068BFF35B8F704791
:1017600070B505460C30FFF7F5FF05F10806044695
:101770003046FFF7EFFFA04206D930466D68FFF70D
:10178000E9FF2544281A70BD3046FFF7E3FF201A11
:10179000F9E7000070B50546406898B105F108000A
:1017A000FFF7D8FF05F10C0604463046FFF7D2FFDD
:1017B0008442304694BF6D680025FFF7CBFF013CA3
:1017C0002C44201A70BD000038B50C460546FFF7C2
:1017D000C7FFA04210D305F10800FFF7BBFF044488
:1017E0006868B4FBF0F100FB1144BFF35B8F01208C
:1017F000AC60BFF35B8F38BD0020FCE72DE9F04102
:10180000144607460D46FFF7C5FF844228BF04462D
:10181000D4B1B84658F80C6B4046FFF79BFF3044F4
:10182000286040467E68FFF795FF331A9C4203D834
:101830006C600120BDE8F0816B60A41B3B68AB606D
:101840002044E8600220F5E72046F3E738B50C466F
:101850000546FFF79FFFA04210D305F10C00FFF7EC
:1018600079FF04446868B4FBF0F100FB1144BFF356
:101870005B8F0120EC60BFF35B8F38BD0020FCE77D
:101880002DE9FF41884669460746FFF7B7FF6C46DA
:1018900006B204EBC6060025B44209D0626820688F
:1018A00008EB0501FFF700FC636808341D44F3E70B
:1018B00029463846FFF7CAFF284604B0BDE8F08144
:1018C000F8B505460C300F46FFF744FF05F1080652
:1018D00004463046FFF73EFFA042304688BF6C68A2
:1018E000FFF738FF201A386020B130462C68FFF728
:1018F00031FF2044F8BD000073B5144606460D467E
:10190000FFF72EFF844228BF04460190DCB101A9F5
:101910003046FFF7D5FF019B33B93268C5E9023382
:10192000C5E9002401200CE09C4238BF01942860E6
:10193000019868608442F5D93368AB60241AEC6082
:10194000022002B070BD2046FBE700002DE9FF41F8
:101950000F466946FFF7D0FF6C4600B204EBC005A6
:101960000026AC4209D0D4F8048054F8081BB819FA
:101970004246FFF799FB4644F3E7304604B0BDE822
:10198000F081000038B50546FFF7E0FF0446014648
:101990002846FFF719FF204638BD00000121884284
:1019A00038BF084602F0B2BD08B102F0C5BD7047AD
:1019B00010B4026854681A4623465DF8044B184771
:1019C00000207047002070477047000000207047DB
:1019D0000E20704700F5805090F8D800C0F340000A
:1019E0007047000000F5805090F9E000704700005B
:1019F00000F58050C0F8DC1001207047F7B50C6886
:101A0000BDF8207014F0005473D10D7B082D70D8F0
:101A1000302585F31188456AAE6876010CD4AC6830
:101A2000240108D4AC6814F0805460D184F3118888
:101A3000204603B0F0BD01240E6804F1180C002EFE
:101A4000B8BFF6004FEA0C1CB4BF46F0040676059A
:101A500045F80C600E680FFA84FC16F0804F18BF32
:101A600005EB0C1E05EB0C1C1EBFDEF8806146F07A
:101A70000206CEF880610E7BCCF8846105EB04157C
:101A80008E68C5F88C614E68C5F88861DCF88051B5
:101A900045F00105CCF8805141F2780500EB441C7B
:101AA000660105EB4414AC440444CCE900230D4624
:101AB000083401F10C0C55F804EB44F804EB6545CF
:101AC000F9D12D882580841904F5805407F0030589
:101AD00094F8946026F00B06354384F89450002463
:101AE00084F31188009700F035FD0120A1E702245E
:101AF000A2E74FF0FF309CE713B500F58054019149
:101B0000E06EFFF747FE1F280AD90199E06E2022F8
:101B1000FFF7B6FEA0F120035842584102B010BDB5
:101B20000020FBE708B5302383F3118800F58050CF
:101B3000C06EFFF703FE002383F3118808BD000089
:101B400000220260828142608260704710B50022EC
:101B50000023C0E900230023044603810C30FFF773
:101B6000EFFF204610BD0000F0B5054600F580509F
:101B70000C4690F8D83013F0040FC3F3800108BF6F
:101B8000114661F3820380F8D83005EB441303F566
:101B90008453103389B01B79D8074FEA44162FD5E8
:101BA00082B319072ED46846FFF7D0FF05EB441324
:101BB00003F5845303AA03F108071868596814460B
:101BC00003C40833BB422246F7D1186820609B88C3
:101BD000A380DDE90E23CDE900230123ADF8083011
:101BE0002B6869461B6C28469847354405F5845593
:101BF00010352B791A075CBF43F008032B7101E005
:101C0000002AF2D109B0F0BD2DE9F0479A4688B01C
:101C1000074688469146302383F3118807F58054A0
:101C20006846FFF793FFE06EFFF79AFD1F282AD959
:101C3000E06E20226946FFF7A5FE202823D103ADE0
:101C4000444605AB2E4603CE9E4220606160354679
:101C500004F10804F6D130682060B388A380DDE980
:101C60000023C9E90023BDF80830AAF8003000239A
:101C700083F3118853464A464146384608B0BDE8CA
:101C8000F04700F02BBC002080F3118808B0BDE8BD
:101C9000F08700002DE9F84F182204460F46043063
:101CA0000021FFF713FA2046234B40F8283BFFF7AB
:101CB00047FF04F13800FFF749FF04F1580804F525
:101CC00082554646183530462036FFF73FFFAE4274
:101CD000F9D104F580554FF480534FF00009C5E960
:101CE0001739C5F858800123EE6604F5875804F5C6
:101CF0008456C5F8649085F8683085F870301836D9
:101D000008F118084FF0000A4FF0000B46E908AB45
:101D1000A6F11800FFF714FF203646F8289C464528
:101D2000F4D185F8E07017B1044800F0C3FB044B10
:101D300063622046BDE8F88F08460008E0450008C9
:101D40000064004010B5044B197804464A1C1A7010
:101D5000FFF7A0FF204610BD2C4A00202DE9F047D8
:101D6000002950D0294B2A4FB7FBF1F599428CBF7F
:101D70000A231123581EB5FBF3FC03FB1C53C4B20A
:101D80002BB102280346F5D80020BDE8F0870CF1FE
:101D9000FF36B6F5806FF7D2C4EBC40E0EF1030325
:101DA0004FEAE309C3F3C703A4EB030809F1010AEF
:101DB0004FF47A755FFA88F009FB05555AFA88F8EE
:101DC000B5FBF8F5B5F5617FC1BF0EF1FF33C3F385
:101DD000C703E01AC0B25C1C50FA84F40CFB04F494
:101DE000B7FBF4F4A142CFD1013BDBB20F2BCBD830
:101DF0000138C0B20728C7D8002110711680917031
:101E0000D3700120C1E70846BFE700BF3F420F0083
:101E100080DE800270B505460E464FF47A746B6A18
:101E20005B6803F00103B34207D04FF47A7001F00E
:101E3000EFFC013CF3D1204670BD0120FCE700001F
:101E400070B5426A936913F0700F17D000230C4DE0
:101E5000936141F2900400EB4312224411794E0742
:101E600009D5890707D5416A55F823608E60117935
:101E700041F0040111710133032BECD170BD00BF9F
:101E8000F445000873B51D46436A16469A68D207A2
:101E9000044609D59A6801219960C2F34002CDE950
:101EA00000650021FFF760FE636A9A68D1050BD5D3
:101EB0009A684FF480719960C2F34022CDE90065C1
:101EC00001212046FFF750FE636A9A68D2030BD5C2
:101ED0009A684FF480319960C2F34042CDE90065C1
:101EE00002212046FFF740FE04F58053D3F8DC00C2
:101EF00010B103681B699847204602B0BDE87040E6
:101F0000FFF79EBFF8B50446466A002977D106F16F
:101F10000C073868800775D006EB01153868D5F8CE
:101F2000B00110F0040FD5F8B0011ABFC00840F09E
:101F30000040400DA062D5F8B0C11CF0020F1CBFDC
:101F400040F08040A062D5F8B40106EB011100F02A
:101F50000F0084F83400D1F8B80184F82C00D1F8CF
:101F6000B801000A84F82D00D1F8B801000C84F8FB
:101F70002E00D1F8B801000E84F82F00D1F8BC0172
:101F800084F83000D1F8BC01000A84F83100D1F89F
:101F9000BC01000C84F83200D1F8BC11090E84F8A1
:101FA00033103821396004F1440004F1280104F1B0
:101FB000340551F8046B40F8046BA942F9D1098843
:101FC0000180C4E90E2321460023A4F8403051F8D3
:101FD000383B20461B6C984704F5805393F8D82073
:101FE000D3F8DC0042F0040283F8D82010B1036873
:101FF0001B6998472046BDE8F840FFF721BF06F16E
:10200000100786E7F8BD000010B5044600F05AFA44
:1020100002460B4652EA030102D0013A63F1000383
:102020000449086820B12146BDE81040FFF76ABFA7
:1020300010BD00BF284A0020F0B5302181F311887F
:10204000DFF848E000F583511831002441F2900C8C
:1020500000EB441565442E7977070ED4F6060CD5AF
:10206000D1E9007697429E4107D2466A5EF8247015
:10207000B7602E7946F004062E710134032C01F16D
:102080002001E5D1002383F31188F0BDF445000859
:1020900008B5302383F31188FFF7D2FE002383F3C2
:1020A000118808BD2DE9F041436A0446986800F0A4
:1020B000E050B0F1E05F0E4622D0F8B1302383F358
:1020C0001188002504F5845741F2900804EB45136C
:1020D00043441B791A0706D50135032D07F1200764
:1020E000F4D1012007E05B07F6D43946304600F012
:1020F00083FA0028F0D1002383F31188BDE8F08132
:102100000120FBE708B5302383F3118800F58050E8
:10211000C06EFFF725FB002383F3118843090CBF32
:102120000120002008BD0000F8B51D4600231370F3
:102130000F4606461446FFF7E5FF80F001003870B1
:1021400025B129463046FFF7ADFF2070F8BD0000ED
:102150002DE9B8410C4615461F46804600F0B2F9FD
:102160000B462178024609B9287850B14046FFF75E
:1021700063FFFFF78DFF3B462A462146FFF7D4FF5A
:102180000120BDE8B881000070B5302686F31188C3
:10219000174B1A6C42F000721A641A6A42F000720D
:1021A0001A621A6A22F000721A62002383F31188FD
:1021B00000F5805494F8D83013F0010516D1A9B178
:1021C00086F311880321132001F01EFA0321142045
:1021D00001F01AFA0321152001F016FA94F8D8300C
:1021E00043F0010384F8D83085F3118870BD00BF37
:1021F000003802402DE9F04700F5805588B095F889
:10220000E030012B04468846164600F28280824F59
:1022100057F823200AB947F82300D7F800A0C4F8DC
:102220001C8084F82060BAF1000F64D095F8E0308B
:10223000012B70D001212046FFF7A6FF302383F346
:102240001188626A136823F002031360626A1368DC
:1022500043F001031360636A00275F6187F311880D
:1022600001212046FFF7D6FD002800F09580E86E9A
:10227000FFF764FA04F58359BA4609F118092022D8
:1022800000216846FEF722FF02A8FFF759FCCDF8AF
:1022900018A06A4609EB07030DF1180E9446BCE836
:1022A0000300F44518605960624603F10803F5D154
:1022B000DCF80000186020379CF804201A71602FA9
:1022C000DDD195F8D8306FF38203002785F8D83038
:1022D0006A4641462046ADF80070ADF802708DF8B0
:1022E0000470FFF73BFD636A48BB4FF400421A607D
:1022F00008B0BDE8F08741F2E800FFF74FFB8146E8
:1023000010B15146FFF7C6FCC7F80090B9F1000FB5
:102310008CD10020ECE7386803681B6B98470146B6
:10232000002887D13868FFF72FFF386803683246E6
:102330005B684146984700287FF47CAFE9E761225B
:102340001A609DF802309DF803201B06120402F467
:10235000702203F040731343BDF80020C2F309025A
:1023600013439DF804201205022E02F4E0020CBF74
:102370004FF0004100211343626A0B43D361636A4B
:1023800013225A61626A136823F00103136039460D
:102390002046FFF73FFD08B9636AA6E795F8E030ED
:1023A00093BB616AD1F8002242F00102C1F8002219
:1023B000616AD1F8002222F47C5222F00E02C1F8A8
:1023C0000022616AD1F8002242F46062C1F8002262
:1023D000626AC2F81432626AC2F80432626A41F672
:1023E000FF71C2F80C12626AC2F84032626AC2F827
:1023F0004432636A0122C3F81C22626AD2F80032B6
:1024000023F00103C2F8003295F8D83043F00203FC
:1024100085F8D8306CE700BF284A002008B500F0E6
:1024200051F850EA0103024602D0421E61F1000158
:10243000044B186810B10B46FFF724FDBDE80840B7
:1024400001F0B8B8284A002008B50020FFF7DCFDED
:10245000BDE8084001F0AEB808B50120FFF7D4FD93
:10246000BDE8084001F0A6B800B59BB0EFF30981C4
:1024700068226846FEF718FEEFF30583014B9B6B5D
:10248000FEE700BF00ED00E008B5FFF7EDFF00003C
:1024900000B59BB0EFF3098168226846FEF704FEA1
:1024A000EFF30583014B5B6BFEE700BF00ED00E03F
:1024B000FEE700000FB408B5029801F059F9FEE7F5
:1024C00001F058BC01F03ABC0139C9B202299EBFE3
:1024D00000EBC1000023C0E901337047F8B51B8849
:1024E0005B0705460E4615D4044600F11807BC42AA
:1024F00010D0636853B12B682846DB6B9847A368FC
:10250000C1B23246606898470834F0E7A368002BF0
:10251000F1D1F9E70120F8BD73B56C4684E80600F7
:10252000014600224E68D5B26EB98E685EB900EBE6
:10253000C200021D94E80300013582E803001D700B
:10254000012002B070BD0132032A01F10801E9D176
:102550000020F6E72DE9F04F89B00446BDF8487039
:102560000E46054600F118084FF0000907F0040771
:102570004FF0000A4FF0000BA84538D06B680BB93C
:10258000AB684BB157B923682046DB6B9847AB6803
:10259000C1B23246686898470835EDE7B9F1000FD7
:1025A000FAD1CDE900ABADF80890334603AA06F1A5
:1025B000080E186859689446ACE803000833734560
:1025C0006246F6D11868CCF800009B88ACF804305D
:1025D000FFF778FF0423ADF808302368CDE9000148
:1025E0001B6C6946204698474FF00109D4E701204B
:1025F00009B0BDE8F08F000030B503680968DD0F51
:10260000B5EBD17F23F0604421F060424FEAD170F6
:102610000BD0002BB8BFA40C0029B8BF920C944279
:1026200002D034BF0120002030BD944205D1C1F357
:102630008070C3F380738342F6D194422CBF002094
:102640000120F1E72DE9F041456A15B94162BDE885
:10265000F0814B6823F06047C3F38A464FEAD37E8C
:10266000C3F3807816EA230638BF3E46AC462B46B5
:102670005A68BEEBD27F22F060440AD0002A18DAF2
:10268000A40CB44217D19D420FD10D60DEE7134672
:10269000EEE7A74207D102F08044C2F380724245C0
:1026A0000BD054B1EFE708D2EDE7CCF800100B6087
:1026B000CDE7B44201D0B442E5D81A689C46002A5E
:1026C000E5D11960C3E700002DE9F047089D01F04E
:1026D00007044FEAD508224405F0070500EBD100B6
:1026E0004FF47F49944201D1BDE8F08704F0070719
:1026F00005F0070A57453E4638BF5646C6F108065C
:10270000111B8E4228BF0E46E10808EBD50E415C36
:1027100013F80EC0B94029FA06F721FA0AF1FFB200
:102720008CEA010147FA0AF739408CEA010C03F8F8
:102730000EC034443544D5E780EA0120082341F235
:10274000210201B24000002980B203F1FF33B8BF7B
:10275000504013F0FF03F4D17047000038B50C4629
:102760008D18A54200D138BD14F8011BFFF7E4FF16
:10277000F7E7000042684AB11368436043898189E2
:1027800001339BB29942438138BF83811046704721
:1027900070B588B0202204460D4668460021FEF739
:1027A00095FC20460495FFF7E5FF024658B16B46BD
:1027B000054608AE1C4603CCB44228606960234637
:1027C00005F10805F6D1104608B070BD082817D9E4
:1027D00009280CD00A280CD00B280CD00C280CD0BF
:1027E0000D280CD00E2814BF4020302070470C203C
:1027F0007047102070471420704718207047202021
:1028000070470000082817D90C280CD910280CD9BB
:1028100014280CD918280CD920280CD930288CBFA2
:102820000F200E207047092070470A2070470B20A8
:1028300070470C2070470D20704700002DE9F843C9
:10284000078C072F04461ED9D0E9029800254FF6C1
:10285000FF73C5F12006A5F1200029FA05F108FA59
:1028600006F628FA00F031430143C9B21846FFF7D3
:1028700063FF0835402D0346EBD1E1693A46BDE8D8
:10288000F843FFF76BBF4FF6FF70BDE8F883000019
:1028900010B54B6823B9CA8A63F30902CA8210BD16
:1028A00004691A681C600361C38A013BC3824A60E1
:1028B000EFE700002DE9F84F1D46CB8A0F46C3F322
:1028C00009010529814692460B4630D00020AAB264
:1028D00007F11A049EB2042E1FFA80F80FD8904513
:1028E00003F1010306D3FB8A0A4462F30903FB8266
:1028F00001201AE01AF80060E6540130EAE790453A
:10290000F1D2A1F1050B1C237C68BBFBF3F203FBA6
:1029100012BB1FFA8BF6002C45D14846FFF72AFF61
:10292000044638B978606FF00200BDE8F88F4FF0C8
:102930000008E6E7002606607860ADB24FF0000BB5
:10294000454510D90AEB0803221D13F8011B9155C8
:10295000B1B208F101081B291FFA88F82BD04545B0
:1029600006F10106F1D8FB8AC3F30902154465F3A9
:102970000903BCE7013292B21C462368002BF9D14F
:102980006B1F0B441C21B3FBF1F301339BB29A4242
:10299000D3D2BBF1000FD0D14846FFF7EBFE20B9F0
:1029A000C4F800B0BFE70122E7E7C0F800B05E4618
:1029B00020600446C1E74545D5D94846FFF7DAFE11
:1029C00008B92060AFE7C0F800B0002620600446D8
:1029D000B6E700002DE9F04F2DED028B1C4683B0C9
:1029E0005B69019207468846002B00F0A780238C84
:1029F0002BB1E269002A00F0A180072B35D807F13E
:102A00000C00FFF7B7FE054638B96FF002052846FF
:102A100003B0BDEC028BBDE8F08F14220021FEF75D
:102A200055FB228CE16905F10800FEF73DFB208C87
:102A3000013080B2FFF7E6FEFFF7C8FE013880B232
:102A40002084013028746369228C1B782A4403F0A7
:102A50001F0363F03F0348F000411372384669607A
:102A60002946FFF7EFFD0125D1E702339BB207228C
:102A7000C18A0633B3FBF2F3828A521A9BB292B236
:102A80009342C2D800F10C034FF0000908EE103A4F
:102A90004FF0800A4E464D4618EE100AFFF76AFEC8
:102AA00083460028B1D014220021FEF70FFB002E30
:102AB0003AD1019BABF8083002220BF1080E1FFA45
:102AC00082FC0CF10100BCF1060F218C80B201D810
:102AD0008E422BD3FFF796FEFFF778FE62691278DD
:102AE000013802F01F028E4208BF4FF0400A42EA4E
:102AF00049121BFA80F14AEA020A013048F000420A
:102B000081F808A08BF81000CBF80420594638460D
:102B1000FFF798FD238C0135B3422DB289F00109EE
:102B20004FF0000AB8D172E70022C6E7E169895D7B
:102B30000EF802100136B6B20132C0E76FF001059F
:102B400065E70000F8B515460E4630220021044620
:102B50001F46FEF7BBFA069B6360B5F5001F079B97
:102B6000A76034BF6A094FF6FF72A36297B2E661AD
:102B700004F1100000239A4206D800230360A782C4
:102B8000E3822383E360F8BD0660013330462036DC
:102B9000F1E7000003781BB94BB2002BC8BF0170EE
:102BA0007047000000787047F8B50C46C9690746C1
:102BB00011B9238C002B37D1257E1F2D34D83878BE
:102BC00028BB228C072A2CD8268A36F003032BD167
:102BD0004FF6FF70FFF7C2FD20F001003102400404
:102BE00041EA0561400C41EA40254FF6FF72234659
:102BF00029463846FFF7EEFE002807DD62691378A4
:102C00000133DBB21F2B88BF00231370F8BD218A6C
:102C10002D0645EA012505432046FFF70FFE024633
:102C2000E5E76FF00300F1E76FF00100EEE7000069
:102C300070B58AB0044616460021282268461D4613
:102C4000FEF744FABDF83830ADF810300F9B05930D
:102C50009DF840308DF81830119B07936946BDF8F8
:102C60004830ADF820302046CDE90265FFF79CFFE3
:102C70000AB070BD2DE9F041D36905460C461646F1
:102C80000BB9138C5BBB377E1F2F28D895F80080BB
:102C9000B8F1000F26D03046FFF7D0FD337821027F
:102CA00041EAC33141EA0801338A41EA076141EA56
:102CB00003410246334641F080012846FFF78AFE71
:102CC00000280ADD3378012B07D1726913780133AC
:102CD000DBB21F2B88BF00231370BDE8F0816FF0BB
:102CE0000100FAE76FF00300F7E70000F0B58BB0E2
:102CF00004460D4617460021282268461E46FEF768
:102D0000E5F99DF84C305A1E534253418DF800307E
:102D10009DF84030ADF81030119B05939DF8483078
:102D20008DF81830149B07936A46BDF85430ADF8FF
:102D3000203029462046CDE90276FFF79BFF0BB0F5
:102D4000F0BD0000406A00B104307047436A1A6861
:102D5000426202691A600361C38A013BC382704701
:102D60002DE9F041D0F82080194E14461D46414609
:102D7000002709B9BDE8F081D1E90223A21A65EB69
:102D80000303964277EB03031ED2036A8B420DD1F5
:102D9000FFF77EFD036A1B68036203690B60C38A49
:102DA0000161016A013BC3828846E2E7FFF770FDDB
:102DB0000B68C8F8003003690B60C38A0161013BEE
:102DC000C382D8F80010D4E788460968D1E700BF6D
:102DD00080841E002DE9F04F8BB00D46DDF8509039
:102DE00014469B468046002800F01981B9F1000F77
:102DF00000F01581531E3F2B00F21181012A03D1EF
:102E0000BBF1000F40F00B810023CDE90833B8F887
:102E10001430B5EBC30F4FEAC30703D300200BB048
:102E2000BDE8F08F2B199F42D8F80C303ABF7F1BBA
:102E3000FFB227461BB9D8F81030002B7AD0272DC7
:102E40004ED8C5F12806B7424FF000032CBFF6B2AA
:102E50003E4600932946D8F8080008AB3246FFF7F3
:102E600033FCA7EB060A35445FFA8AFAB8F8143047
:102E700003F10053053BDB000493D8F80C300393B7
:102E80002821039B13B1BAF1000F2CD1D8F8100000
:102E900040B1BAF1000F05D0009608AB5246691A4E
:102EA000FFF712FC38B2002FB8D066070AD00AAB81
:102EB00003EBD401624211F8083C02F0070213410F
:102EC00001F8083C082C3CD9102C40F2B580202C8D
:102ED00040F2B780BBF1000F00F09C80082334E083
:102EE000BA460026C2E7049BE02B28BFE0230693E6
:102EF0000B44AB42059314D95A1B03980096924594
:102F000034BF5246D2B2691A08AB04300792FFF7B9
:102F1000DBFB079A1644AAEB020A1544F6B25FFAE5
:102F20008AFA049B069A05999B1A0493039B1B68D3
:102F30000393A6E70093D8F8080008AB3A46294661
:102F4000AEE7BBF1000F13D00123B4EBC30F6CD07D
:102F5000082C12D89DF82030621E23FA02F2D50701
:102F600006D54FF0FF3202FA04F423438DF82030E7
:102F70009DF8203089F8003051E7102C12D8BDF8A8
:102F80002030621E23FA02F2D10706D54FF0FF323D
:102F900002FA04F42343ADF82030BDF82030A9F83C
:102FA00000303CE7202C0FD80899631E21FA03F368
:102FB000DA0705D54FF0FF3202FA04F40C43089407
:102FC000089BC9F800302AE7402C2BD0DDE90865C2
:102FD000611EC4F12102A4F1210326FA01F105FAD0
:102FE00002F225FA03F311431943CB0712D501224C
:102FF000A4F12003C4F1200102FA03F322FA01F143
:10300000A240524243EA010363EB430332432B43A2
:10301000CDE90823DDE90823C9E90023FFE66FF0C5
:103020000100FCE66FF00800F9E6082CA0D9102C8E
:10303000B3D9202CEED8C3E7BBF1000FADD00223EB
:1030400083E7BBF1000FBBD004237EE730B5012A34
:10305000144638BF0124402C85B028BF40240025E9
:10306000012ACDE9025518D81B788DF8083063077E
:103070000AD004AB03EBD405624215F8083C02F019
:103080000702934005F8083C0091034622460021C0
:1030900002A8FFF719FB05B030BD082AE4D9102AB1
:1030A00003D81B88ADF80830E1E7202A8DBFD3E9AB
:1030B00000231B680293CDE90223D8E710B5CB6843
:1030C0001BB98B600B618B8210BD04691A681C6090
:1030D0000361C38A013BC382CA60F0E703064CBFA9
:1030E000C0F3C0300220704708B50246FFF7F6FF74
:1030F000022806D15306C2F30F2001D100F00300CD
:1031000008BDC2F30740FBE72DE9F04F93B0CDE9CE
:1031100003230A6804461046FFF7E0FF022814BFA5
:10312000C2F306260026002A0D46824680F2F78169
:1031300012F0C04940F0F381097B002900F0EF81D3
:10314000022803D02378B34240F0EC81C2F3046339
:103150000693104602F07F030593FFF7C5FF059B1A
:1031600029444FEA834848EA0A4848EA4668CE7844
:1031700000230022CDE90823F309834648EA00082A
:10318000029367D0059B009302466768534608A9DF
:103190002046B847002800F0C881276A4FB9414649
:1031A00004F10C00FFF7F4FA074690B96FF0020043
:1031B00054E03B6998450DD03F68002FF9D1414656
:1031C00004F10C00FFF7E4FA07460028EED0236A6A
:1031D0003B60276297F817C006F01F08CCF3840CF9
:1031E000ACEB08001FFA80FE0028B8BF0EF12000EB
:1031F000A8EB0C031FFA83FED7E90221B8BF00B287
:10320000002B0793BEBF0EF120031BB2079352EAB7
:10321000010338D0039BDFF824E39A1A049B4FF094
:10322000000C63EB010196457CEB01032BD36B7B18
:1032300097F81AE0734519D1029B002B78D001282A
:1032400021DC7868F8B9DFF8F0C2944570EB01032F
:1032500016D337E0276A27B96FF00C0013B0BDE82A
:10326000F08F3B699845B5D03F68F4E7B24890428B
:103270007CEB010301D30020F0E7029B002BFAD086
:10328000079B0F2B17DCFA7DB30002F0030203F05B
:103290007C031343FB7539462046FFF7F9FA6B7B35
:1032A000BB76029B3BB9FB7DC3F38402013262F320
:1032B0008603FB75D0E76A7BBB7E9A42DBD1029B1B
:1032C000002B35D0B309022B32D0039BBB60049B8B
:1032D000FB60142200210DA8FDF7F8FE039B0A9362
:1032E000049B0B932B1D0C932B7BADF83EB0013B45
:1032F000DBB2ADF83C30069B8DF84230059B8DF873
:10330000433094F82C308DF840A083F001038DF801
:1033100044308DF84180A3680AA920469847FB7D78
:10332000C3F38403013303F01F039B02FB82A2E774
:10333000FB7DC6F34012B2EBD31F40F0F980C3F31C
:103340008403434540F0FC80029A2B7BB609002A97
:1033500052D016F0010661D1032B40F2F480039B9A
:10336000BB60049BFB60FB8A66F30903FB822B7B3B
:10337000AE1D033BDBB23246394604F10C00FFF7C9
:1033800099FA00280CDA39462046FFF781FAFB7DCE
:10339000C3F38403013303F01F039B02FB8205E7A1
:1033A000DDE90884AB883B834FF6FF73C9F1200049
:1033B000A9F1200228FA09F104FA00F0014324FAE5
:1033C00002F211431846C9B2FFF7B6F909F108092C
:1033D000B9F1400F0346E9D1B8822A7B033AD2B251
:1033E0003146FFF7BBF9FB7DB882DA43C2F3C01266
:1033F00062F3C713FB753EE786B92E1D013BDBB2B6
:103400003246394604F10C00FFF754FA0028BADBC3
:103410002A7BB88A013AD2B23146E2E7F98AC1F38F
:103420000901013B0429DAB25BD8281D002307F10A
:103430001B069A4208D910F801CB06F801C00131E9
:1034400001330529DBB2F4D103990A9104990B9158
:10345000934207F11B010C9138BF043379680D9139
:1034600034BF55FA83F300230E93FB8AADF83EB0C8
:10347000C3F309031A44069B8DF84230059B8DF86F
:10348000433094F82C30ADF83C2083F001038DF8E4
:10349000443000238DF840A08DF841807B602A7B6A
:1034A000B88A013A291DFFF759F93B8BB88283424C
:1034B00003D1A3680AA92046984720460AA9FFF726
:1034C000FDFDFB7DBA8AC3F38403013303F01F03C0
:1034D0009B02FB823B8B9A420CBF00206FF01000D6
:1034E000BCE67B68002BAFD0052001E01C303346E2
:1034F0001E68002EFAD1091A081D2E1D184401EB72
:10350000090CBCF11B0F5FFA89F39DD89A429BD935
:1035100016F8013B00F8013B09F10109EFE76FF0F4
:1035200009009BE66FF00A0098E66FF00B0095E645
:103530006FF00D0092E600BF40420F0080841E0035
:103540006FF00E008AE66FF00F0087E6EFF3098355
:1035500005494A6B22F001024A63683383F3098804
:10356000002383F31188704700EF00E0302080F3E0
:10357000118862B60C4B0D4AD96821F4E061090448
:10358000090C0A43DA60D3F8FC20094942F0807242
:10359000C3F8FC200A6842F001020A602022DA77B0
:1035A00083F82200704700BF00ED00E00003FA0539
:1035B000001000E010B5302383F311880E4B5B68D8
:1035C00013F4006314D0F1EE103AEFF30984683C71
:1035D0004FF08073E361094BDB6B236684F309884A
:1035E00000F090F810B1064BA36110BD054BFBE74E
:1035F00083F31188F9E700BF00ED00E000EF00E081
:103600003F0300084203000800F1604303F56143F3
:103610000901C9B283F80013012200F01F039A4088
:1036200043099B0003F1604303F56143C3F8802124
:103630001A60704700230375826803691B689968E4
:103640009142FBD25A680360426010605860704734
:1036500000230375826803691B6899689142FBD84F
:103660005A680360426010605860704708B50846A9
:10367000302383F311880B7D032B05D0042B0DD051
:103680002BB983F3118808BD8B6900221A604FF0B3
:10369000FF338361FFF7CEFF0023F2E7D1E9003269
:1036A00013605A60F3E70000FFF7C4BF054BD96809
:1036B0000875186802681A60536001220275D860A4
:1036C000FCF728BE384A002030B50C4BDD684B1C97
:1036D00087B004460FD02B46094A684600F02AF905
:1036E0002046FFF7E3FF009B13B1684600F02CF97A
:1036F000A86907B030BDFFF7D9FFF9E7384A0020C5
:103700006D360008044B1A68DB6890689B68984225
:1037100094BF002001207047384A0020084B10B5A4
:103720001C68D86822681A60536001222275DC6028
:10373000FFF78EFF01462046BDE81040FCF7EABDCA
:10374000384A002038B5074C0749084801230025AE
:103750002370656000F012FC0223237085F311884A
:1037600038BD00BFA04C002050460008384A002059
:1037700008B572B6044B186500F0C6FA00F078FB85
:10378000024B03221A70FEE7384A0020A04C0020AA
:1037900000F010B98B60022308618B8208467047E5
:1037A0008368A3F1840243F8142C026943F8442C83
:1037B000426943F8402C094A43F8242CC26843F874
:1037C000182C022203F80C2C002203F80B2C044ABC
:1037D00043F8102CA3F12000704700BF2D03000810
:1037E000384A002008B5FFF7DBFFBDE80840FFF7C7
:1037F0005BBF0000024BDB6898610F20FFF756BFEC
:10380000384A0020302383F31188FFF7F3BF00000C
:1038100008B50146302383F311880820FFF754FFD1
:10382000002383F3118808BD10B503689C68A24289
:103830000CD85C688A600B604C60216059609968A4
:103840008A1A9A604FF0FF33836010BD1B68121B09
:10385000ECE700000A2938BF0A2170B504460D467E
:103860000A26601900F084FB00F070FB041BA542DF
:1038700003D8751C2E460446F3E70A2E04D9BDE88A
:103880007040012000F0BABB70BD0000F8B5144BC9
:103890000D46D96103F1100141600A2A196982605D
:1038A00038BF0A22016048601861A818144600F069
:1038B00051FB0A2700F04AFB431BA342064606D3EE
:1038C0007C1C281900F054FB27463546F2E70A2FE6
:1038D00004D9BDE8F840012000F090BBF8BD00BF5E
:1038E000384A0020F8B506460D4600F02FFB0F4A77
:1038F000134653F8107F9F4206D12A4601463046B0
:10390000BDE8F840FFF7C2BFD169BB68441A2C1963
:1039100028BF2C46A34202D92946FFF79BFF224627
:1039200031460348BDE8F840FFF77EBF384A002023
:10393000484A002010B4C0E9032300235DF8044B7B
:103940004361FFF7CFBF000010B5194C23699842BF
:103950000DD0D0E90032816813605A609A680A4439
:103960009A60002303604FF0FF33A36110BD23462C
:10397000026843F8102F53600022026022699A42C5
:1039800003D1BDE8104000F0EDBA936881680B44A4
:10399000936000F0DBFA2269E1699268441AA2425E
:1039A000E4D91144BDE81040091AFFF753BF00BF26
:1039B000384A00202DE9F047DFF8BC8008F11007F5
:1039C0002C4ED8F8105000F0C1FAD8F81C40AA6864
:1039D000031B9A423ED81444D5E900324FF0000947
:1039E000C8F81C4013605A60C5F80090D8F8103031
:1039F000B34201D100F0B6FA89F31188D5E9033159
:103A000028469847302383F311886B69002BD8D060
:103A100000F09CFA6A69A0EB04094A4582460DD27F
:103A2000022000F0EBFA0022D8F81030B34208D19F
:103A300051462846BDE8F047FFF728BF121A224436
:103A4000F2E712EB090938BF4A4629463846FFF724
:103A5000EBFEB5E7D8F81030B34208D01444211A71
:103A6000C8F81C00A960BDE8F047FFF7F3BEBDE849
:103A7000F08700BF484A0020384A002038B500F0DF
:103A800065FA054AD2E90845031B181945F10001FA
:103A9000C2E9080138BD00BF384A00200020704745
:103AA000FEE70000704700004FF0FF307047000055
:103AB000BFF34F8F024AD368DB03FCD4704700BFCB
:103AC000003C024008B5094B1B7873B9FFF7F0FFC3
:103AD000074B1A69002ABFBF064A5A6002F18832B2
:103AE0005A601A6822F480621A6008BDA84C00204F
:103AF000003C02402301674508B50B4B1B7893B986
:103B0000FFF7D6FF094B1A6942F000421A611A68A2
:103B100042F480521A601A6822F480521A601A68BD
:103B200042F480621A6008BDA84C0020003C0240AC
:103B30000728F0B516D80C4C0C4923787BB90C4DEE
:103B40000E4608234FF0006255F8047B46F8042B1C
:103B5000013B13F0FF033A44F6D10123237051F8DF
:103B60002000F0BD0020FCE7CC4C0020AC4C002035
:103B70005C460008014B53F8200070475C46000883
:103B800008207047072810B5044601D9002010BD51
:103B9000FFF7CEFF064B53F824301844C21A0BB976
:103BA0000120F4E712680132F0D1043BF6E700BFD0
:103BB0005C460008072810B5044621D8FFF778FFB7
:103BC000FFF780FF0F4AF323D360C300DBB243F457
:103BD000007343F002031361136943F480331361EC
:103BE000FFF766FFFFF7A4FF074B53F8241000F020
:103BF0003BF9FFF781FF2046BDE81040FFF7C2BF49
:103C0000002010BD003C02405C460008F8B512F0F0
:103C10000103144642D185182E4A954257D82E4B9F
:103C20001B6813F0010352D02C4DFFF74BFFF32319
:103C3000EB60FFF73DFF40F20127032C15D824F07D
:103C400001046618254C401A40F20117B14223695D
:103C500000EB010524D123F001032361FFF74CFFA2
:103C60000120F8BD043C0430E7E78307E7D12B6966
:103C700023F440732B612B693B432B6151F8046B98
:103C80000660BFF34F8FFFF713FF03689E42E9D032
:103C90002B6923F001032B61FFF72EFF0020E0E7E3
:103CA00023F44073236123693B4323610B882B80FA
:103CB000BFF34F8FFFF7FCFE2D8831F8023BADB20A
:103CC000AB42C3D0236923F001032361E4E7184624
:103CD000C7E700BF0000080800380240003C02406F
:103CE000084908B50B7828B11BB9FFF7EBFE012393
:103CF0000B7008BD002BFCD0BDE808400870FFF732
:103D0000FBBE00BFA84C002008B50649064800F0DD
:103D1000ADF8BDE808404FF480314FF0805000F01E
:103D2000A5B800BF00FF01000001002008461146B1
:103D300000F0ECBB084600F0FFBB000038B5EFF325
:103D400011859DB9EFF30584C4F30804302334B121
:103D500083F31188FFF792FE85F3118838BD83F352
:103D60001188FFF78BFE84F3118838BDBDE8384019
:103D7000FFF784BE38B5FFF7E1FF114C114AC008C8
:103D800040EA4170A0FB025EC908A0FB040C1CEBDA
:103D9000050CA1FB04404FF000035B41A1FB0212A4
:103DA0001CEB040C43EB000011EB0E0142F100028E
:103DB000411842F10000090941EA007038BD00BF16
:103DC000CFF753E3A59BC42010B50244064BD2B2F3
:103DD000904200D110BD441C00B253F8200041F8BD
:103DE000040BE0B2F4E700BF502800400F4B30B5A1
:103DF0001C6F240407D41C6F44F400741C671C6FF0
:103E000044F400441C670A4C236843F48073236025
:103E10000244084BD2B2904200D130BD441C00B2E3
:103E200051F8045B43F82050E0B2F4E70038024058
:103E3000007000405028004007B5012201A9002071
:103E4000FFF7C2FF019803B05DF804FB13B5044609
:103E5000FFF7F2FFA04205D0012201A90020019442
:103E6000FFF7C4FF02B010BD7047000070470000AC
:103E700070470000074B45F255521A6003225A6002
:103E800040F2FF729A604CF6CC421A60024B01225B
:103E90001A70704700300040D44C0020034B1B7850
:103EA0001BB1034B4AF6AA221A607047D44C00207B
:103EB00000300040034B1A681AB9034AD2F874283C
:103EC0001A607047D04C002000300240024B4FF087
:103ED0008072C3F8742870470030024008B5FFF7BD
:103EE000E9FF024B1868C0F3407008BDD04C0020B9
:103EF00008B5FFF7DFFF024B1868C0F3007008BD7C
:103F0000D04C002070470000FEE700000A4B0B4831
:103F10000B4A90420BD30B4BDA1C121AC11E22F033
:103F200003028B4238BF00220021FDF7CFB853F8BF
:103F3000041B40F8041BECE708480008584D00201B
:103F4000584D0020584D002000F0D0B84FF080436D
:103F5000586A70474FF08043002258631A6102226A
:103F6000DA6070474FF080430022DA60704700004B
:103F70004FF0804358637047FEE7000070B51B4B5D
:103F800001630025044686B0586085620E46FFF73F
:103F9000EDFA04F11003C4E904334FF0FF33C4E930
:103FA0000635C4E90044A560E562FFF7CFFF2B4664
:103FB0000246C4E9082304F134010D4A2565802333
:103FC0002046FFF7E7FB0123E0600A4A03750092F1
:103FD00072680192B268CDE90223074B6846CDE9C9
:103FE0000435FFF7FFFB06B070BD00BFA04C0020FA
:103FF0007C46000881460008793F0008024AD36ADF
:104000001843D062704700BF384A00204B684360B5
:104010008B688360CB68C3600B6943614B69036243
:104020008B6943620B6803607047000008B5264B3C
:1040300026481A6940F2FF110A431A611A6922F4EC
:10404000FF7222F001021A611A691A6B0A431A639D
:104050001A6D0A431A651E4A1B6D1146FFF7D6FFFB
:1040600002F11C0100F58060FFF7D0FF02F138017A
:1040700000F58060FFF7CAFF02F1540100F580608F
:10408000FFF7C4FF02F1700100F58060FFF7BEFF8B
:1040900002F18C0100F58060FFF7B8FF02F1A80182
:1040A00000F58060FFF7B2FF02F1C40100F5806007
:1040B000FFF7ACFF02F1E00100F58060FFF7A6FF1B
:1040C000BDE8084000F08EB8003802400000024011
:1040D0008846000808B500F0F9F9FFF733FBBDE8A2
:1040E0000840FFF7E7BE0000704700000F4B1A6C56
:1040F00042F001021A641A6E42F001021A660C4A7A
:104100001B6E936843F0010393604FF0804353228A
:104110009A624FF0FF32DA6200229A615A63DA60E3
:104120005A6001225A611A60704700BF003802408D
:10413000002004E04FF0804208B51169D3680B40BD
:10414000D9B2C9439B07116107D5302383F3118886
:10415000FFF71EFB002383F3118808BD1F4B1A696C
:104160006FEAC2526FEAD2521A611A69C2F30802A8
:104170001A614FF0FF301A695A69586100215A6973
:1041800059615A691A6A62F080521A621A6A02F018
:1041900080521A621A6A5A6A58625A6A59625A6A8C
:1041A0001A6C42F080521A641A6E42F080521A66FB
:1041B0001A6E0B4A106840F480701060186F00F49B
:1041C0004070B0F5007F1EBF4FF48030186719674C
:1041D000536823F40073536000F054B90038024070
:1041E00000700040334B4FF080521A64324A4FF453
:1041F000404111601A6842F001021A601A68910782
:10420000FCD59A6822F003029A602A4B9A6812F051
:104210000C02FBD1196801F0F90119609A601A6863
:1042200042F480321A601A689203FCD55A6F42F049
:1042300001025A671F4B5A6F9007FCD51F4A5A60FC
:104240001A6842F080721A601B4A53685904FCD500
:10425000184B1A689201FCD5194A9A60194B1A68D2
:10426000194B9A42194B21D1194A1168194A9142A6
:104270001CD140F205121A60144A136803F00F03B0
:10428000052BFAD10B4B9A6842F002029A609A68A9
:1042900002F00C02082AFAD15A6C42F480425A64A5
:1042A0005A6E42F480425A665B6E704740F2057265
:1042B000E1E700BF003802400070004008544007AA
:1042C00000948838002004E011640020003C024083
:1042D00000ED00E041C20F41074A08B5536903F001
:1042E0000103536123B1054A13680BB15068984725
:1042F000BDE80840FFF75EB9003C0140D84C002003
:10430000074A08B5536903F00203536123B1054A14
:1043100093680BB1D0689847BDE80840FFF74AB9E9
:10432000003C0140D84C0020074A08B5536903F00F
:104330000403536123B1054A13690BB150699847CF
:10434000BDE80840FFF736B9003C0140D84C0020DA
:10435000074A08B5536903F00803536123B1054ABE
:1043600093690BB1D0699847BDE80840FFF722B9BF
:10437000003C0140D84C0020074A08B5536903F0BF
:104380001003536123B1054A136A0BB1506A984771
:10439000BDE80840FFF70EB9003C0140D84C0020B2
:1043A000164B10B55C6904F478725A61A30604D503
:1043B000134A936A0BB1D06A9847600604D5104A35
:1043C000136B0BB1506B9847210604D50C4A936BC5
:1043D0000BB1D06B9847E20504D5094A136C0BB1B9
:1043E000506C9847A30504D5054A936C0BB1D06C6B
:1043F0009847BDE81040FFF7DDB800BF003C014022
:10440000D84C0020194B10B55C6904F47C425A6109
:10441000620504D5164A136D0BB1506D98472305FC
:1044200004D5134A936D0BB1D06D9847E00404D5C1
:104430000F4A136E0BB1506E9847A10404D50C4A75
:10444000936E0BB1D06E9847620404D5084A136F7F
:104450000BB1506F9847230404D5054A936F0BB1F5
:10446000D06F9847BDE81040FFF7A4B8003C01406A
:10447000D84C002008B5FFF75DFEBDE80840FFF707
:1044800099B80000062108B50846FFF7BDF80621D7
:104490000720FFF7B9F806210820FFF7B5F8062135
:1044A0000920FFF7B1F806210A20FFF7ADF8062131
:1044B0001720FFF7A9F806212820FFF7A5F8BDE887
:1044C000084007211C20FFF79FB8000008B5FFF740
:1044D00045FE00F007F8FFF707FEBDE80840FFF7CC
:1044E00033BD00000023054A19460133102BC2E9F1
:1044F000001102F10802F8D1704700BFD84C00202B
:104500000B460146184600F009B80000024B0A4667
:1045100001461868FFF70ABC1C23002010B5054CA3
:1045200013462CB10A4601460220AFF3008010BDAD
:104530002046FCE700000000024B01461868FFF728
:10454000F9BB00BF1C23002010B501390244904282
:1045500001D1002005E0037811F8014FA34201D0FA
:10456000181B10BD0130F2E72DE9F041A3B1C91AC3
:1045700017780144044603F1FF3C8C42204601D9E0
:10458000002009E00578BD4204F10104F5D10CEBEF
:104590000405D618A54201D1BDE8F08115F8018DBA
:1045A00016F801EDF045F5D0E7E70000034611F8F5
:1045B000012B03F8012B002AF9D1704773772D6284
:1045C0006F6F6D2D663430372D626C0040A2E4F1C0
:1045D000646891060041A3E5F26569920700000056
:1045E0004261642043414E496661636520696E649F
:1045F00065782E0080000000008000000000800030
:104600000000000000000000B1190008F5210008BA
:1046100051210008F1190008FD190008091C0008C3
:10462000C1190008D1190008C5190008CD190008E2
:10463000C9190008251B0008D5190008192500080C
:10464000C9240008E5190008F91A000863300000C1
:104650004C460008904A0020A04C0020004000007A
:104660000040000000400000004000000000010089
:104670000000020000000200000002006D61696E8F
:104680000069646C65000000000400280000000060
:10469000AAAAAAAA00000024FFFF00000000000050
:1046A000000000000000100000000000AAAA9AAA62
:1046B00000000000FFFB0000000000000000000000
:1046C0000000011000000000AAAAAA9A0000000041
:1046D000FFFE000000000000000000000A0400408F
:1046E00000000000AAA6AAAA00000000DF7F0000C8
:1046F0009900000000000000000000000000000021
:10470000AAAAAAAA00000000FFFF00000000000003
:10471000000000000000000000000000AAAAAAAAF1
:1047200000000000FFFF000000000000000000008B
:104730000000000000000000AAAAAAAA00000000D1
:10474000FFFF00000000000000000000000000006B
:10475000000000000A00000000000000030000004C
:104760000000000000000000000000000000000049
:104770000000000000000000000000000000000039
:1047800000000000000000007117000000000000A1
:10479000000007000000000040420F00FE2A010058
:1047A000D2040000202300200000000000000000D0
:1047B00000000000000000000000000000000000F9
:1047C00000000000000000000000000000000000E9
:1047D00000000000000000000000000000000000D9
:1047E00000000000000000000000000000000000C9
:1047F00000000000000000000000000000000000B9
:084800000000000000000000B0
:00000001FF
