:020000040800F2
:1000000000070020F1010008C52E00087D2E000821
:10001000A52E00087D2E00089D2E0008F301000883
:10002000F3010008F3010008F30100085D3F000838
:10003000F3010008F3010008F3010008F3010008D0
:10004000F3010008F3010008F3010008F3010008C0
:10005000F3010008F3010008E94400081145000815
:10006000394500086145000889450008F30100088A
:10007000F3010008F3010008F3010008F301000890
:10008000F3010008F3010008F3010008F301000880
:10009000F30100082D2E0008412E0008B14500088C
:1000A000F3010008F3010008F3010008F301000860
:1000B000AD460008F3010008F3010008F301000851
:1000C000F3010008F3010008F3010008F301000840
:1000D000F30100088546000899460008F30100086E
:1000E00015460008F3010008F3010008F3010008B9
:1000F000F3010008F3010008F3010008F301000810
:10010000F3010008F3010008F3010008F3010008FF
:10011000F3010008F3010008F3010008F3010008EF
:10012000F3010008F3010008F3010008F3010008DF
:10013000F3010008F3010008F3010008F3010008CF
:10014000F3010008F3010008F3010008F3010008BF
:10015000F3010008F3010008F3010008F3010008AF
:10016000F3010008F3010008F3010008F30100089F
:10017000F3010008F3010008F3010008F30100088F
:10018000F3010008F3010008F3010008F30100087F
:10019000F3010008F3010008552E0008692E00083D
:1001A000F3010008F3010008F3010008F30100085F
:1001B000F3010008F3010008F3010008F30100084F
:1001C000F3010008F3010008F3010008F30100083F
:1001D000F3010008F3010008F3010008F30100082F
:1001E00039150008000000000000000000000000B9
:1001F00002E000F000F8FEE772B6374880F30888A6
:10020000364880F3098836483649086040F20000D5
:10021000CCF200004EF63471CEF200010860BFF35C
:100220004F8FBFF36F8F40F20000C0F2F0004EF628
:100230008851CEF200010860BFF34F8FBFF36F8F7C
:100240004FF00000E1EE100A4EF63C71CEF20001D4
:100250000860062080F31488BFF36F8F05F0B2F8B2
:1002600005F092F94FF055301F491B4A91423CBFAF
:1002700041F8040BFAE71D49184A91423CBF41F886
:10028000040BFAE71A491B4A1B4B9A423EBF51F82E
:10029000040B42F8040BF8E700201849184A914271
:1002A0003CBF41F8040BFAE705F090F805F0B2F90D
:1002B000144C154DAC4203DA54F8041B8847F9E797
:1002C00000F042F8114C124DAC4203DA54F8041B12
:1002D0008847F9E705F078B80007002000230020E0
:1002E0000000000808ED00E00001002000070020E9
:1002F0000859000800230020B4230020B823002060
:100300003C6C0020E0010008E4010008E401000862
:10031000E40100082DE9F04F2DED108AC1F80CD052
:10032000C3689D46BDEC108ABDE8F08F002383F3BF
:1003300011882846A047002004F0C4FCFEE704F022
:100340004DFC00DFFEE70000F8B501F067F904F0AE
:10035000DBFF074605F02CF80546A8BB1F4B9F4264
:1003600032D001339F4232D01D4B27F0FF029A4218
:1003700030D1F8B200F022FF2E4642F2107400F0A5
:1003800023FF08B10024264601F0B4FC20B103206D
:1003900000F07AF80024264635B1124B9F4203D074
:1003A00004F0FEFF00242646002004F0B7FF0EB143
:1003B00000F080F801F046FA00F03AFF204600F025
:1003C000D1F800F077F8F9E72E460024D7E7044685
:1003D0000126D4E7064640F6C414D0E7010007B072
:1003E000000008B0263A09B008B501F0E3F8A0F122
:1003F00020035842584108BD07B541F212030221BB
:1004000001A8ADF8043001F0F3F803B05DF804FB87
:1004100038B5302383F31188174803680BB104F013
:100420000FFD164A144800234FF47A7104F0FEFCC5
:10043000002383F31188124C236813B12368013B16
:100440002360636813B16368013B63600D4D2B78D3
:1004500033B963687BB9022001F082F9322363600B
:100460002B78032B07D163682BB9022001F078F9B0
:100470004FF47A73636038BDB8230020110400087C
:10048000D8240020D0230020084B187003280CD853
:10049000DFE800F008050208022001F057B9022049
:1004A00001F04AB9024B00225A607047D023002065
:1004B000D824002010B501F01DFC30B1234B0322DD
:1004C0001A70234B00225A6010BD224B224A1C4650
:1004D00019680131F8D004339342F9D16268A2421D
:1004E000F2D31E4B9B6803F1006303F510439A425D
:1004F000EAD204F027FF04F039FF002001F0A8F849
:100500000220FFF7C1FF164B9A6D00229A65996F82
:100510009A67996FD96DDA65D96FDA67D96F196EF5
:100520001A66D3F88010C3F88020D3F8803072B6F2
:100530004FF0E0233021C3F8084DD4E9003281F3B5
:1005400011889D4683F308881047BDE7D02300201B
:10055000D8240020009000082090000800230020EC
:10056000001002402DE9F04F93B0AC4B00902022D8
:10057000FF210AA89D6801F00FF9A94A1378A3B9D1
:10058000A848012103601170302383F311880368A8
:100590000BB104F055FCA44AA24800234FF47A7131
:1005A00004F044FC002383F31188009B13B19F4B9C
:1005B000009A1A609E4A009C1378032B1EBF0023EA
:1005C00013709A4A4FF0000A18BF5360D34656463C
:1005D000D146012001F0BAF824B1944B1B68002BDE
:1005E00000F01582002000F0E5FF0390039B002B34
:1005F00001DA00F071FE039B002BEDDB012001F01E
:100600009BF8039B213B162BE3D801A252F823F061
:100610006D0600089506000829070008D3050008A4
:10062000D3050008D3050008B307000883090008B4
:100630009D080008FF080008270900084D09000868
:10064000D30500085F090008D3050008D109000898
:100650000D070008D3050008150A000879060008F0
:100660000D070008D3050008FF0800080220FFF767
:10067000BBFE002840F0F581009B0221BAF1000F7B
:1006800008BF1C4605A841F21233ADF8143000F043
:10069000AFFF9EE74FF47A7000F08CFF071EEBDB94
:1006A0000220FFF7A1FE0028E6D0013F052F00F24F
:1006B000DA81DFE807F0030A0D10133605230593EE
:1006C000042105A800F094FF17E054480421F9E73D
:1006D00058480421F6E758480421F3E74FF01C0876
:1006E000404600F0B7FF08F104080590042105A872
:1006F00000F07EFFB8F12C0FF2D1012000FA07F7CD
:1007000047EA0B0B5FFA8BFB4FF0000901F090F802
:1007100026B10BF00B030B2B08BF0024FFF76CFE78
:1007200057E746480421CDE7002EA5D00BF00B0378
:100730000B2BA1D10220FFF757FE074600289BD0C4
:10074000012000F085FF0220FFF79EFE00261FFA21
:1007500086F8404600F08CFF044690B100214046E8
:1007600000F09EFF01360028F1D1BA46044641F25E
:100770001213022105A8ADF814303E4600F038FFF0
:1007800027E70120FFF780FE2546244B9B68AB42FC
:1007900007D9284600F05EFF013040F0678104353C
:1007A000F3E7234B00251D70204BBA465D603E46A3
:1007B000ACE7002E3FF460AF0BF00B030B2B7FF484
:1007C0005BAF0220FFF760FE322000F0F3FEB0F1D5
:1007D0000008FFF651AF18F003077FF44DAF0F4A42
:1007E000926808EB050393423FF646AFB8F5807F69
:1007F0003FF742AF124B0193B84523DD4FF47A70B7
:1008000000F0D8FE0390039A002AFFF635AF019B53
:10081000039A03F8012B0137EDE700BF0023002006
:10082000D4240020B823002011040008D82400207C
:10083000D023002004230020082300200C230020C4
:10084000D4230020C820FFF7CFFD074600283FF43F
:1008500013AF1F2D11D8C5F1200242450AAB25F078
:10086000030028BF424683490192184400F082FFEA
:10087000019A8048FF2100F08FFF4FEAA8037D49CD
:100880000193C8F38702284600F08EFF0646002831
:100890003FF46DAF019B05EB830537E70220FFF7BF
:1008A000A3FD00283FF4E8AE00F00CFF00283FF461
:1008B000E3AE0027B846704B9B68BB4218D91F2F88
:1008C00011D80A9B01330ED027F0030312AA134458
:1008D00053F8203C05934046042205A901F0F4F9A1
:1008E00004378046E7E7384600F0B4FE0590F2E7AB
:1008F000CDF81480042105A800F07AFE06E7002355
:10090000642104A8049300F069FE00287FF4B4AECB
:100910000220FFF769FD00283FF4AEAE049800F016
:10092000C7FE0590E6E70023642104A8049300F0C5
:1009300055FE00287FF4A0AE0220FFF755FD0028E9
:100940003FF49AAE049800F0B5FEEAE70220FFF704
:100950004BFD00283FF490AE00F0C4FEE1E702201A
:10096000FFF742FD00283FF487AE05A9142000F0F0
:10097000BFFE04210746049004A800F039FE394662
:10098000B9E7322000F016FE071EFFF675AEBB0772
:100990007FF472AE384A926807EB090393423FF640
:1009A0006BAE0220FFF720FD00283FF465AE27F074
:1009B00003074F44B9453FF4A9AE484600F04AFE4C
:1009C0000421059005A800F013FE09F10409F1E7E0
:1009D0004FF47A70FFF708FD00283FF44DAE00F0A9
:1009E00071FE002844D00A9B01330BD008220AA9CB
:1009F000002000F0D9FE00283AD02022FF210AA8CA
:100A000000F0CAFEFFF7F8FC1C4804F061F913B0CF
:100A1000BDE8F08F002E3FF42FAE0BF00B030B2B35
:100A20007FF42AAE0023642105A8059300F0D6FDCB
:100A3000074600287FF420AE0220FFF7D5FC804651
:100A400000283FF419AEFFF7D7FC41F2883004F0DC
:100A50003FF9059800F002FF464600F0E9FE3C46EB
:100A6000B7E5064652E64FF0000905E6BA467EE6CF
:100A700037467CE6D423002000230020A086010016
:100A8000094A136849F2690099B21B0C00FB013353
:100A90001360064B186844F2506182B2000C01FBEF
:100AA0000200186080B27047142300201023002039
:100AB00010B500211022044600F06EFE034B03CB5C
:100AC000206061601868A06010BD00BF9075FF1FB6
:100AD000F0B5ADF54F7D6CAC4FF4C47207460D46D2
:100AE0002046002100F058FE02F0F4F9264B4FF4A6
:100AF0007A72B0FBF2F0186093E80700022384E8F2
:100B000007000DF5E9702382FFF7D2FF47F21413B7
:100B10001E49238407A804F0E5FD172384F8323129
:100B20000DF2E32207AB0DF12C0C1E4603CE6645F9
:100B300010605160334602F10802F6D1306810604F
:100B4000B188B37993710DAE918020463146012270
:100B500000F09EFE00230393AB7E029305F1190380
:100B6000019380B20123CDE904600093E97E04A3E0
:100B7000D3E90023384602F0C1FD0DF54F7DF0BDED
:100B80009E6AC421818A46EEE0240020F4560008C3
:100B90002DE9F0412C4C237ADAB080460D465BBB40
:100BA00027A9284600F09AFF0746002842D19DF861
:100BB0009D60C82E3ED801464FF4A662204600F044
:100BC000EBFD4FF48073C4F8F8314FF40073C4F8B0
:100BD0000C334FF44073C4F8203432460DF19E01BB
:100BE00004F1090000F0C6FD26449DF89C307772A0
:100BF00023720BB9EB7E23728122002106AC27A859
:100C000000F0CAFD0122214627A800F0ADFF002315
:100C10000393AB7E029305F1190380B2019328235D
:100C2000CDE904400093E97E05A3D3E900234046C3
:100C300002F064FD5AB0BDE8F08100BFAFF3008060
:100C400026417272DF25D7B728350020F0B5254E32
:100C50004FF48A7505FB0065F1B096F8D83085F839
:100C6000DC300024D822214685F8E8403AA800F07C
:100C700093FD06F1090000F087FDD5F8E4308DF80A
:100C8000F000C2B206AF06F109010DF1F100CDE9A5
:100C90003A3400F06FFD394601223AA800F09AFF7D
:100CA00080B2CDE9047008230127CDE9023706F1AF
:100CB000D803019330230093317A0B4807A3D3E97B
:100CC000002302F01BFDA04206DD02F003F9C5F887
:100CD000E000384671B0F0BD2046FBE778F6339F60
:100CE00093CACD8D28350020F83400202DE9F04F2F
:100CF000274FDFF8A880274E87B0384602F02AFD3C
:100D0000034600283DD00024CDE90344ADF814404B
:100D1000027B8DF8142099684068029403AA03C2EC
:100D20001B681D4D43F000430293A146A2462B6869
:100D3000D3F810B002F0D0F810EB080241F1000334
:100D40002846CDF800A002A9D84704F2345440F652
:100D500068230028C8BF49F0010905F5A6559C4243
:100D600005F11005E3D1B9F1000F05D0384602F0C6
:100D7000F5FC86F800A0C0E73378072B04D80133D0
:100D8000337007B0BDE8F08F014802F0E7FCF8E7E8
:100D9000F83400205D3A0020603A002040420F0005
:100DA00070B50D4614461E4602F004FC50B9022EE2
:100DB00010D1012C0ED112A3D3E90023C5E90023E1
:100DC000012007E0282C10D005D8012C09D0052CD3
:100DD0000FD0002070BD302CFBD10BA3D3E9002332
:100DE000ECE70BA3D3E90023E8E70BA3D3E9002347
:100DF000E4E70BA3D3E90023E0E700BFAFF30080F3
:100E0000401DA12026812A0B78F6339F93CACD8DF1
:100E10009E6AC421818A46EE26417272DF25D7B7C9
:100E2000F017304A39059E5638B505460E4C00215C
:100E3000013500F035FCA4F82C55B4F82C0500F071
:100E400017FC78B1B4F82C0500F022FC014648B933
:100E5000B4F82C0500F024FCB4F82C350133A4F8C8
:100E60002C35EAE738BD00BF28350020F8B50E4C18
:100E70000E4F0226A4F5805343F8407C237E3BB9F5
:100E800065692DB1284600F0B3FF284601F0EAF865
:100E9000204600F0ADFFA4F5A654012EA4F11004E5
:100EA00000D1F8BD0126E5E7705F00205857000823
:100EB0002DE9F04F8FB000AF05460C4602F07AFBEB
:100EC00000284BD1237E022B1BD1E38A012B18D1A2
:100ED00002F000F80646FFF7D3FD03464FF4C87052
:100EE000DFF8D482B3FBF0F206F5167602FB10337E
:100EF00016FA83F3C8F80030E37E33B9A74B00221B
:100F00001A703C37BD46BDE8F08F07F1240120463A
:100F100000F098FD0028F4D107F11400FFF7C8FD98
:100F200097F8264007F11401224607F1270004F044
:100F3000A7FB0028E2D10F2C08D8984B1C70D8F8DA
:100F40000030A3F51673C8F80030DAE797F82410DC
:100F50000029D6D0284602F025FBD2E7E38A282BC9
:100F600033D010D8012B2BD0052BCAD1BFF34F8F14
:100F70008B498C4BCA6802F4E0621343CB60BFF329
:100F80004F8F00BFFDE7302BBBD1874EE17E327A19
:100F90009142B6D1607E3146002291F8DC50854204
:100FA00000F0AD800132042A01F58A71F5D1326872
:100FB00040F6B831FA328A4294BF32603160A0E71D
:100FC00021462846FFF784FD9BE721462846FFF788
:100FD000DFFD96E7B2F8EC507B6005F103094FEABC
:100FE00099094FEA8902D11DC908A8EBC1039D46A2
:100FF000EB460021584600F0CFFB04F1EE012A46F3
:101000003144584600F0B6FB7B6813B9012000F06C
:101010001FFB96F8D20000F02BFB044630B930726B
:1010200000F050FB204600F013FBB0E0D6F8D420CF
:101030003AB996F8D200B6F82C25824201D8FFF7CB
:10104000F3FED6F8D4202A44944208D296F8D2006F
:10105000B6F82C250130824201D8FFF7E5FE706812
:101060005FFA89F2594600F09FFB08B9C54679E05E
:10107000726896F8D2002A447260D6F8D42005EB44
:101080000209C6F8D49000F0F3FA814509D396F826
:10109000D220D6F8D4000132001B86F8D220C6F840
:1010A000D400FF2D0FD80024347200F00BFB204633
:1010B00000F0CEFA00F01EFE3C4B188108B9FFF795
:1010C000F9F9C5461DE7BB6896F8D9000AFB03622B
:1010D000FB68D2F8E41082F8E83001F58061C2F8CC
:1010E000E030C2F8E410FFF7B1FDFFF7FFFD96F81E
:1010F000D920013202F0030286F8D920B6E74FF476
:101100008A7A0AFB02F505F1EA013144204600F033
:1011100095FDF86000287FF4F4AE3544012285F88F
:10112000E82001F0D7FED5F8E020D6ED007ADFED1B
:10113000206A801A192838BF192040F6B832904228
:1011400028BF1046B8EE677A07EE900AF8EEE77A05
:1011500067EEA67ADFED176AE7EE267AFCEEE77A0D
:10116000C6ED007A96F8D9307168BB600AFB03F4CB
:10117000321992F8E8505DB1D2F8E4308B42E8467B
:101180003FF428AF002182F8E810C2F8E010C5460D
:101190007368064A9B0A01331381B2E6F1340020DA
:1011A00000ED00E00400FA0528350020E0240020CE
:1011B000CDCCCC3D6666663FF4340020014B187000
:1011C000704700BFEC24002038B54FF00054144B9A
:1011D00022689A4221D1607DF0B1124B12491870F9
:1011E0001248237D03724FF48073C0F8F8314FF436
:1011F0000073C0F80C3300254FF44073C0F820345E
:10120000C0F8E450C922093000F0B4FAE0222946BF
:10121000204600F0C1FA012038BD0020FCE700BFE5
:101220009AAD44C5EC24002016000020283500208B
:1012300037B500F05FFD1F4C1F4D20492881022368
:101240006B712368204604F580545B68012298473F
:10125000D4F8D03419495B68012204F59A609847A4
:1012600000230193164B174900931748174B4FF46F
:10127000805202F06FF9164B197811B1124802F042
:1012800091F901F027FE0446FFF7FAFB4FF4C8730B
:10129000B0FBF3F202FB130304F5167010FA83F0AF
:1012A0000C4B186004F084F808B10F232B8103B0B5
:1012B00030BD00BF603A0020E024002040420F0013
:1012C000A10D0008F0240020F8340020B10E000821
:1012D000EC240020F43400202DE9F04F2DED028B9A
:1012E000002593B00DF12C089FED838BDFF844921D
:1012F000FFF7FCFC0A95ADF834500B95C8F8045084
:101300000026834CDFF80CB2374601238DF81C30E1
:1013100023688DF81D508DED008B0DF11D02D3F863
:1013200008A007A900232046D0479DF81CA0BAF1C9
:10133000000F24D0D9F8143083F40043C9F81430D6
:10134000102200210EA800F027FA236808AA5F697E
:101350000AA90DF11E032046B84798E803000FAB19
:1013600083E803009DF834308DF844300A9B0E93D7
:101370000EA9DDE90823584602F0CEFB574606F2D7
:10138000345640F6682304F5A6549E4204F1100436
:10139000BBD1002FB4D15F4802F00CF900283FD137
:1013A0005D4E01F097FD3368984239D301F092FD0C
:1013B0000446FFF765FB4FF4C873B0FBF3F202FB82
:1013C000130304F5167010FA83F03060534E8DF855
:1013D0002870377817B901238DF82830C7F1100429
:1013E000E4B20EA8FFF764FB062C28BF06240EAB60
:1013F0002246D9190DF1290000F0BCF90AAB03937C
:10140000182302930134464B0193E4B20123009365
:10141000404804943AA3D3E9002302F011F935704F
:1014200001F058FD3F4A404C1368C31AB3F57A7F68
:101430002FD3106001F050FD02460B46354802F0F4
:1014400097F9344802F0B6F818B3237A374E002BD8
:1014500014BF03230223737101F03CFD0EAF4FF460
:101460007A730122B0FBF3F039463060304600F069
:10147000C1FA182302932E4B019380B240F2551308
:10148000CDE90370009323481FA3D3E9002302F0A2
:10149000D7F8237A93B101F01DFD002607464FF4DB
:1014A0008A7894F8D900304400F0030008FB004328
:1014B00093F8E82072B10136042EF2D1C82003F06F
:1014C00007FC237A002B7FF40DAF13B0BDEC028B29
:1014D000BDE8F08FD3F8E02042B12368FA2B38BF83
:1014E000FA23BA1A0533B2EB430FE4D3FFF7AEFB8E
:1014F0000028E0D1E2E700BF00000000000000008B
:10150000401DA12026812A0BF1C6A7C1D068080F73
:10151000603A0020F8340020F4340020F134002038
:10152000F0340020583A002028350020E024002024
:101530005C3A00200008004808B5064800F0A2FF09
:10154000054800F09FFFBDE80840044A0449002018
:1015500004F07AB8603A0020304F00205464002034
:101560006D0E000870B5104B1B780133DBB2012BF8
:101570000C4612D80D4B1D6829684FF47A730E6A19
:10158000A2FB0332014622462846B047844204D1DA
:10159000074B00221A70012070BD4FF4FA7003F05F
:1015A00097FB0020F8E700BF182300201C23002031
:1015B0004464002007B50023024601210DF1070015
:1015C0008DF80730FFF7CEFF20B19DF8070003B07C
:1015D0005DF804FB4FF0FF30F9E700000A4608B55C
:1015E0000421FFF7BFFF80F00100C0B2404208BDF8
:1015F00030B4074B0A461978064B53F8214023684C
:10160000DD69054B0146AC46204630BC604700BF53
:10161000446400201C230020A086010070B503F064
:101620000FFD094E094D308000242868338883421D
:1016300008D903F001FD2B6804440133B4F5104FC1
:101640002B60F2D370BD00BF466400200064002010
:1016500003F0B0BD00F1006000F510400068704775
:1016600000F10060920000F5104003F02DBD000075
:10167000054B1A68054B1B889B1A834202D91044FC
:1016800003F0DABC002070470064002046640020AC
:10169000024B1B68184403F0D7BC00BF0064002055
:1016A000024B1B68184403F0E1BC00BF006400203B
:1016B0000020704700F10050A0F51040D0F89005D0
:1016C00070470000064991F8243033B10023086ABE
:1016D00081F824300822FFF7C3BF0120704700BF04
:1016E00004640020014B1868704700BF002004E02C
:1016F00030B50F4B0F4C1B682288C3F30B03013826
:10170000934208440BD164680A46013C8242134666
:101710000BD214F9015F2DB102F8015BF6E78142AB
:101720000B4602D22C2203F8012B581A30BD00BF01
:10173000002004E020230020022802BF024B4FF0CB
:1017400000429A61704700BF00080048022802BFAB
:10175000024B4FF400429A61704700BF00080048F6
:10176000022801BF024A536983F400435361704762
:101770000008004810B50023934203D0CC5CC45449
:101780000133F9E710BD000003460246D01A12F9F2
:10179000011B0029FAD1704702440346934202D04C
:1017A00003F8011BFAE770472DE9F8431F4D144673
:1017B00095F824200746884652BBDFF870909CB30A
:1017C00095F824302BB92022FF2148462F62FFF7DD
:1017D000E3FF95F82400C0F10802A24228BF224688
:1017E000D6B24146920005EB8000FFF7C3FF95F8A3
:1017F0002430A41B1E44F6B2082E17449044E4B2D1
:1018000085F82460DBD1FFF75DFF0028D7D108E021
:101810002B6A03EB82038342CFD0FFF753FF0028EC
:10182000CBD10020BDE8F8830120FBE70464002051
:10183000024B1A78024B1A70704700BF44640020B4
:101840001823002003494FF461430B60024B1868D2
:1018500003F02AB92C6400201C230020094B10B58A
:101860001822044600211846FFF796FF064A074B48
:10187000127804600146BDE8104053F8220003F0DE
:1018800013B900BF2C640020446400201C230020F6
:101890002DE9F3470D46044600219046284640F2C4
:1018A0007912FFF779FF234620220021284602F013
:1018B000D5F8231D02222021284602F0CFF8631D0F
:1018C00003222221284602F0C9F8A31D0322252164
:1018D000284602F0C3F804F1080310222821284604
:1018E00002F0BCF804F1100308223821284602F067
:1018F000B5F804F1110308224021284602F0AEF8A1
:1019000004F1120308224821284602F0A7F804F146
:10191000140320225021284602F0A0F804F11803F5
:1019200040227021284602F099F804F12003082291
:10193000B021284602F092F804F121030822B821D0
:10194000284602F08BF804F12207C0263B463146B8
:1019500008222846083602F081F8B6F5A07F07F184
:101960000107F3D194F832308DF8073031460DF18C
:1019700007030822284602F071F8002604F1330A12
:101980009DF807304FEAC6099E4209F5A47720D397
:1019900094F83231502B28BF50238DF80730B8F11E
:1019A000000F08D139460DF107030722284602F03F
:1019B00055F809F24F17002604F233149DF807304A
:1019C0009E4207EBC6010DD30731C80802B0BDE83F
:1019D000F0870AEB060308223946284602F03EF853
:1019E0000136CDE7A3190822284602F037F8013660
:1019F000E4E7000013B504460846002101602346D1
:101A0000C0F803102022019002F028F80198231D4D
:101A10000222202102F022F80198631D03222221D4
:101A200002F01CF80198A31D0322252102F016F8EC
:101A3000019804F108031022282102F00FF8072072
:101A400002B010BDF7B5047F05460E462CB1838A5F
:101A5000122B02D9012003B0F0BD00231946072242
:101A60000096284601F0BEFE731C0093012200235D
:101A70000721284601F0B6FED4B9B31C0093052215
:101A800023460821284601F0ADFE0D24B378102B23
:101A9000E0D83746B278BB1B934210D32B7FA88A7D
:101AA0000734E408B3B9844294BF00200120D2E790
:101AB000AB8ADB00083BDB08B3700824E6E7FB1CBD
:101AC0000093214600230822284601F08BFE0834AB
:101AD0000137DFE7201A18BF0120BCE7F7B5047F04
:101AE00005460E462CB1838ACA2B02D9012003B0C9
:101AF000F0BD0023194600960822284601F072FE28
:101B0000731CD4B90822009311462346284601F0DD
:101B100069FE10247378C82BE8D8012372785F1C03
:101B2000013B934210D32B7FA88A0734E408B3B952
:101B3000844294BF00200120D9E7AB8ADB00083B38
:101B4000DB0873700824E5E7F319009321460023AE
:101B50000822284601F046FE08343B46DEE7201AFC
:101B600018BF0120C3E70000F7B50D460446002169
:101B7000164628468122FFF70FFE23460822002141
:101B8000284601F06BFF94F901206378002AB8BF62
:101B90007F238DF807309EB90DF107030722082136
:101BA000284601F05BFF0F27002602349DF807301E
:101BB0009E4207EBC60105D30731C80803B0F0BD4C
:101BC0000827F1E7A3190822284601F047FF01364C
:101BD000ECE70000F7B50E460546002114463046F6
:101BE000CE22FFF7D9FD2B4628220021304601F0F6
:101BF00035FF2B7AC82B28BFC8238DF807308CB946
:101C00000DF1070308222821304601F027FF302478
:101C10002F469DF807207B1B934205D3E01DC0088B
:101C200003B0F0BD2824F3E707F109032146082299
:101C3000304601F013FF08340137EAE7F7B5047FB7
:101C400005460E4634B1838AB3F5827F02D901205E
:101C500003B0F0BD0096012310220021284601F0B8
:101C6000C1FDDCB9B31C009309222346102128468C
:101C700001F0B8FD19247388B3F5807FE7D83746A3
:101C80007288BB1B934210D32B7FA88A0734E408C9
:101C9000B3B9844294BF00200120D9E7AB8ADB00AE
:101CA000103BDB0873801024E5E73B1D00932146C1
:101CB00000230822284601F095FD08340137DFE7AC
:101CC000201A18BF0120C3E730B5094D0A449142DC
:101CD0000DD011F8013B5840082340F30004013BAC
:101CE0002C4013F0FF0384EA5000F6D1EFE730BD3B
:101CF0002083B8EDF7B5384A106851686B4603C3C6
:101D00006A4636493648082303F0CAFC04460028D0
:101D100033D10A25334A106851686B4603C36A46BB
:101D200031492F48082303F0BBFC0446002849D062
:101D30000369B3F5EE2F45D8B0F8661041F2714251
:101D400091423FD1294A024402F15C018B4239D3CE
:101D50005C3B234900209E1AFFF7B6FF3246074638
:101D600004F164010020FFF7AFFFA3689F4229D16F
:101D7000E368984208BF002524E00369B3F5EE2F1D
:101D800027D8418B41F27142914220D1174A024437
:101D900002F110018B4218D3103B114900209D1A0B
:101DA000FFF792FF2A46064604F118010020FFF7CC
:101DB0008BFFA3689E4202D1E368984201D00D25B3
:101DC000A8E70025284603B0F0BD1025A2E70C25A2
:101DD000A0E70B259EE700BF18570008DC6F07003F
:101DE0000090000821570008906F07000870FFF767
:101DF00010B5037C044613B9006803F039FC204693
:101E000010BD00000023BFF35B8FC360BFF35B8F87
:101E1000BFF35B8F8360BFF35B8F7047BFF35B8F54
:101E20000068BFF35B8F704770B505460C30FFF755
:101E3000F5FF05F1080604463046FFF7EFFFA04224
:101E400006D930466D68FFF7E9FF2544281A70BDB2
:101E50003046FFF7E3FF201AF9E7000070B50546AA
:101E6000406898B105F10800FFF7D8FF05F10C06AE
:101E700004463046FFF7D2FF8442304694BF6D6877
:101E80000025FFF7CBFF013C2C44201A70BD000059
:101E900038B50C460546FFF7C7FFA04210D305F141
:101EA0000800FFF7BBFF04446868B4FBF0F100FBD7
:101EB0001144BFF35B8F0120AC60BFF35B8F38BD73
:101EC0000020FCE72DE9F041144607460D46FFF7D8
:101ED000C5FF844228BF0446D4B1B84658F80C6BFD
:101EE0004046FFF79BFF3044286040467E68FFF77E
:101EF00095FF331A9C4203D86C600120BDE8F08145
:101F00006B60A41B3B68AB602044E8600220F5E7EF
:101F10002046F3E738B50C460546FFF79FFFA04281
:101F200010D305F10C00FFF779FF04446868B4FB97
:101F3000F0F100FB1144BFF35B8F0120EC60BFF3B5
:101F40005B8F38BD0020FCE72DE9FF4188466946DC
:101F50000746FFF7B7FF6C4606B204EBC60600253E
:101F6000B44209D06268206808EB0501FFF702FC63
:101F7000636808341D44F3E729463846FFF7CAFF73
:101F8000284604B0BDE8F081F8B505460C300F4690
:101F9000FFF744FF05F1080604463046FFF73EFF11
:101FA000A042304688BF6C68FFF738FF201A3860BF
:101FB00020B130462C68FFF731FF2044F8BD000007
:101FC00073B5144606460D46FFF72EFF844228BF20
:101FD00004460190DCB101A93046FFF7D5FF019B13
:101FE00033B93268C5E90233C5E9002401200CE0A9
:101FF0009C4238BF01942860019868608442F5D9FA
:102000003368AB60241AEC60022002B070BD204639
:10201000FBE700002DE9FF410F466946FFF7D0FFBF
:102020006C4600B204EBC0050026AC4209D0D4F8DF
:10203000048054F8081BB8194246FFF79BFB46443E
:10204000F3E7304604B0BDE8F081000038B505463E
:10205000FFF7E0FF044601462846FFF719FF204638
:1020600038BD000008B103F003BB704770470000A3
:1020700010B41346026814680022A4465DF8044BAD
:102080006047000000F5805090F869047047000038
:1020900000F5805090F862047047000000F5805011
:1020A00090F968047047000050207047302383F394
:1020B000118800F58052D2F8AC34D2F8A804184444
:1020C000D2F8A4341844D2F88C341844D2F89C3492
:1020D0001844D2F898341844002383F311887047C9
:1020E00000F58050C0F86414012070472DE9FF47C7
:1020F0000C4600F58051054691F86204BDF8308029
:1021000098B1D1F888040130C1F8880420688600AD
:1021100006D4207B08280BD9667B0EB10F2807D97F
:10212000D1F88C340133C1F88C344FF0FF30AAE081
:10213000302080F31188E86BD0F8C47017F40017D2
:1021400013D0D1F890040130C1F89004D1F8941460
:10215000002940F09B80CDF800802146284600F001
:1021600009FF002383F311888DE0D0F8C460686B09
:10217000C6F301464FF0480919FB060920680028FC
:10218000B4BF40F0804C4FEA804CC9F800C02068D2
:10219000400044BF4CF00050C9F8000094F80CC057
:1021A000300640EA0C40C9F8040094F80DC04FEA2C
:1021B000461ABCF1000F27D040F44010C9F80400C3
:1021C000D1F8C0040130C1F8C00405EB0A0101F5E3
:1021D0008351087F40F020000877207BCDE902235F
:1021E00000F01CFFDDE9022303308010F9B28142C8
:1021F00007F1010710DA04EB810C09EB8101DCF82F
:1022000004C0C1F808C0F1E705EB0A0101F58351EC
:10221000087F6CF34510DFE7E96B0120B040C1F89F
:10222000CC0006F1830105EB4111C1E9002305EB68
:10223000461101F583512046083104F10C0750F88E
:1022400004CB41F804CBB842F9D100880880AA44F5
:1022500041F278014AF801600AF5805A08F003015A
:102260009AF87C0041F0100120F01F0001438AF829
:102270007C10002181F31188CDF80080214628468A
:1022800000F078FE012004B0BDE8F087002068E788
:1022900038B5C26B936923F001039361044600F0E3
:1022A00019FE0546E36B9B69DB0706D500F012FEBD
:1022B000431BFA2BF6D9002004E004F580540120DA
:1022C00084F8620438BD000013B500F58054019114
:1022D000606DFFF7C3FD1F280AD90199606D2022A8
:1022E000FFF732FEA0F120035842584102B010BD62
:1022F0000020FBE708B5302383F3118800F58050F8
:10230000406DFFF77FFD002383F3118808BD0000B7
:1023100000220260828142608260704710B5002214
:102320000023C0E900230023044603810C30FFF79B
:10233000EFFF204610BD00002DE9F0479A4688B017
:10234000074688469146302383F3118807F5805469
:102350006846FFF7E3FF606DFFF766FD1F282DD984
:10236000606D20226946FFF771FE202826D194F87F
:1023700062341BB303AD444605AB2E4603CE9E42EA
:1023800020606160354604F10804F6D130682060B1
:10239000B388A380DDE90023C9E90023BDF8083034
:1023A000AAF80030002383F3118853464A46414679
:1023B000384608B0BDE8F04700F09ABD002080F331
:1023C000118808B0BDE8F0872DE9F84F064635467C
:1023D0008846182200210430FFF7DEF9264B45F825
:1023E000403B06F582572C4620462034FFF796FFE7
:1023F000A742F9D106F580544FF480532564002597
:10240000C4E9113501236765E56484F8503084F828
:10241000583006F5845706F5A4594FF0000A4FF0DE
:10242000000B47E908ABA7F11800FFF771FF203751
:1024300047F8285C4F45F4D1B8F1010F84F868845F
:10244000A4F86A54A4F86C54A4F86E5484F8705438
:10245000A4F87254A4F87454A4F8765484F8785408
:1024600002D9064800F030FD054B53F82830F363DD
:102470003046BDE8F88F00BF585700082C570008B9
:102480004857000810B5044B197804464A1C1A70C6
:10249000FFF79AFF204610BD516400202DE9F84354
:1024A00015460C4600295CD0022002F017F82E4990
:1024B000B0FBF4F78C428CBF0A2111214B1EB7FBF5
:1024C000F1F601FB1671DAB221B1022B1946F5D8EB
:1024D000002032E0731EB3F5806FF9D2C2EBC20860
:1024E00008F103014FEAE10EC1F3C701A2EB010CB1
:1024F0000EF101094FF47A735FFA8CF70EFB033E7D
:1025000059FA8CFCBEFBFCFCBCF5617F17DC1FFAA2
:102510008CF34A1C57FA82F27243B0FBF2F0844209
:10252000D6D14A1E0F2AD3D87A1E072AD0D8012026
:102530002B806E8028716971AF71BDE8F88308F156
:10254000FF314FEAE10CC1F3C701521A0CF1010E41
:10255000D7B20CFB03335EFA82F2B3FBF2F39BB209
:10256000D7E70846E9E700BF3F420F0030B50D4B03
:102570000D4D05201C786C438C420ED1597851804A
:1025800099785171D9789171197911715B7903EB4F
:1025900083035B001380012030BD013803F1060383
:1025A000E8D1F9E79C57000840420F0038B500F524
:1025B0008053114A93F86834D55C4FF454725543F4
:1025C00005F1804303F52443044600211846FFF734
:1025D000E3F80A4B60622B44A362094B2B44E3628D
:1025E000084B2B442363084B2B446363E36B0022AB
:1025F000C3F8C02038BD00BF4057000870A4004099
:10260000B0A4004088A5004078A600402DE9F0471E
:1026100000F580551F4695F86834022B88B00446B3
:102620008946904604D90026304608B0BDE8F087B8
:10263000A54A52F8231009B942F82300A348C4F868
:102640001C90017884F8207099B9302383F31188A5
:102650009F4B9A6D42F000729A659A6B42F000723D
:102660009A639A6B22F000729A630123037081F3DC
:10267000118895F86134CBB9302383F31188954ADA
:1026800095F86834D35C012B2AD0022B2FD03BB9AC
:102690000321152002F052F80321162002F04EF813
:1026A000012385F86134002383F31188302383F3F9
:1026B0001188E26B936923F01003936100F00AFC28
:1026C0008246E36B9E6916F0080617D000F002FC04
:1026D000A0EB0A03FA2BF4D9002686F31188A3E7AE
:1026E0000321562002F02AF803215720D6E70321C0
:1026F000582002F023F803215920CFE79A6942F0CD
:1027000001029A6100F0E6FB8246E36B9A69D0070A
:1027100006D400F0DFFBA0EB0A03FA2BF5D9DBE7C8
:102720009A6942F002029A61E36B4FF0000AC3F823
:1027300054A08AF31188686DFFF764FB2022002102
:102740006846FFF729F802A8FFF7E2FD04F5835376
:10275000CDF818A06A4633440DF1180E9446BCE833
:102760000300F44518605960624603F10803F5D18F
:10277000DCF80000186020369CF804201A71B6F5C9
:10278000806FDBD1002304F5A35285F8603485F80F
:1027900063340A3249462046FFF780FE064690B968
:1027A000E26B936923F00103936100F093FB05460C
:1027B000E36B9B69D9077FF536AF00F08BFB431BBA
:1027C000FA2BF5D92FE795F86E34C5F87C94591E8D
:1027D00095F86F34E26B013B1B0243EA416395F8C5
:1027E000701401390B43B5F86C14013943EA014305
:1027F000D361B8F1000F36D004F5A352123241462E
:102800002046FFF7B3FE90B9E26B936923F0010312
:10281000936100F05FFB0546E36B9B69DA077FF588
:1028200002AF00F057FB431BFA2BF5D9FBE695F8F6
:102830007724C5F88084511E95F87824E36B013A1B
:10284000120142EA012295F8761401390A43B5F8DB
:102850007414013942EA014242F40002DA60E36B87
:102860004FF420629A642046FFF7A0FE002385F80B
:102870006934E36B6FF040421A65E36B164A5A65A0
:10288000E36B44229A65E36B0722C3F8DC20E36B19
:1028900003229742DA653FF4C7AEE26B936923F0F7
:1028A0000103936100F016FB0746E36B9B69DB07AE
:1028B00005D500F00FFBC31BFA2BF6D9B3E60123B5
:1028C00085F86234B0E600BF486400205064002000
:1028D00000100240405700089B0008002DE9F04F0F
:1028E00000F5A5578BB00546904699464FF0000B72
:1028F00041F2780A1037EB6BD3F8D43023FA0BF39C
:10290000DC0753D505EB4B1151444FEA4B120B79C1
:1029100018074BD405F58056D6F894340133C6F821
:102920009434C7E900890B79990648BFD6F8C434B6
:1029300005EB020148BF0133514448BFC6F8C43417
:102940000B7943F008030B71DB0724D596F8633449
:102950000BB302A8019205F58354FFF7DFFC019A3F
:102960000834144405AB04F1080C206861681A4669
:1029700003C2083464451346F7D120681060A2886A
:102980009A800123ADF810302B68CDE902891B6CC9
:1029900002A928469847D6F8B834D6F8640401331B
:1029A000C6F8B83410B103681B6998470BF1010BE6
:1029B000BBF1200F9FD10BB0BDE8F08F2DE9F04F98
:1029C0008DB004460F4600F087FA82468946002FF4
:1029D00056D1E36BD3F89020920141BF04F58051AA
:1029E000D1F8A8240132C1F8A824D3F89020160702
:1029F00003D100200DB0BDE8F08FD3F89050E66A07
:102A0000C5F30125482303FB0566E8464046FFF76A
:102A10007FFC326851004ABF22F06043C2F38A4310
:102A200043F00043920048BF43F080430093736833
:102A300013F400131FBF04F5805201238DF80D30ED
:102A4000D2F8C8340EBF8DF80D300133C2F8C83447
:102A5000F38803F00F038DF80C304FF0000B9DF856
:102A60000C0000F0DBFA5FFA8BF3984220D9F218E1
:102A70000CA90B44127A03F82C2C0BF1010BEEE796
:102A8000012FB6D1E36BD3F89820950141BF04F52F
:102A90008051D1F8A8240132C1F8A824D3F8982095
:102AA0001007A6D0D3F89850266BC5F30125A9E7E7
:102AB000EFB9E36BC3F8945004A8FFF72FFC98E834
:102AC0000F0007AD07C52B800023ADF81830236831
:102AD0002046CDE904A91B6C04A9984704F580544D
:102AE00058B1D4F8A0340133C4F8A03482E7012FE0
:102AF00004BFE36BC3F89C50DEE7D4F8A434013381
:102B0000C4F8A434012075E72DE9F04105460F46CD
:102B100000F58054012639462846FFF74FFF10B1D3
:102B200084F86364F7E7D4F8B834D4F86404013364
:102B3000C4F8B83420B10368BDE8F0411B691847F8
:102B4000BDE8F081F0B5C36B1A6C12F47F0F2BD087
:102B500000F580541B6CC4F8BC3441F278050023A6
:102B600047194FF0010C00EB43122A445E01117922
:102B700011F0020F15D0490713D4B959C66BD6F816
:102B8000C8E00CFA01F111EA0E0F0AD0C6F8D01015
:102B9000117941F004011171D4F89C240132C4F878
:102BA0009C240133202BDED1F0BD00002B4B70B5EF
:102BB0001E561B5C012B2FD8294D2A4A55F823306D
:102BC00052F826400BB341B3236D1A060FD580236C
:102BD000236500F081F950EA01020B4602D001386A
:102BE00061F10003024655F82600FFF777FE236DDA
:102BF0001B032CD555F826304FF4002203F58053E3
:102C00002265012283F8692421E00123236508233A
:102C100023654FF48063236570BD236DDA0702D40A
:102C2000236D9B0706D5032355F826002365002155
:102C3000FFF76AFF236D180702D4236DD90606D566
:102C4000182355F8260023650121FFF75DFF55F88D
:102C50002600BDE87040FFF775BF00BF445700086D
:102C6000486400204857000808B5302383F31188D2
:102C7000FFF768FF002383F3118808BDC36BD3F807
:102C8000C40080F40010C0F34050704708B53023F2
:102C900083F3118800F58050406DFFF7C5F80023DD
:102CA00083F3118843090CBF0120002008BD0000F8
:102CB00000F5805393F8692462B1C16B8A6922F0F0
:102CC00001028A61D3F8AC240132C3F8AC2400229B
:102CD00083F86924704700002DE9F743302181F320
:102CE0001188002500F5835141F2780E4FF001085C
:102CF00000F5805C00EB45147444267977071CD4FA
:102D0000F6061AD5D0F83C908E69D9F8C87008FA42
:102D100006F63E4211D04F6801970F689742019F17
:102D20009F410AD2C9F8D060267946F00406267180
:102D3000DCF898440134CCF898440135202D01F199
:102D40002001D7D1002383F3118803B0BDE8F083BD
:102D5000F8B51E46002313700F4605461446FFF7CC
:102D600095FF80F0010038701EB12846FFF786FFFE
:102D70002070F8BD2DE9F04F85B09946DDE90EA32E
:102D80000D4602931378019391F800B080461646E1
:102D900000F0A2F82B7804460F4613B93378002BC5
:102DA00041D022463B464046FFF796FFFFF75CFFC7
:102DB000FFF77EFF4B4632462946FFF7C9FF2B78C7
:102DC00033B1BBF1000F03D0012005B0BDE8F08F97
:102DD000337813B1019B002BF6D108F58053039390
:102DE000029B544577EB03031DD2039BD3F8640485
:102DF000C8B10368AAEB04011B6898474B463246EA
:102E000029464046FFF7A4FF2B7813B1BBF1000F12
:102E1000DAD1337813B1019B002BD5D100F05CF8E7
:102E200004460F46DCE70020CFE7000008B500218C
:102E30000846FFF7BBFEBDE8084001F0C3B800003C
:102E400008B501210020FFF7B1FEBDE8084001F000
:102E5000B9B8000008B500210120FFF7A7FEBDE8C2
:102E6000084001F0AFB8000008B501210846FFF79F
:102E70009DFEBDE8084001F0A5B8000000B59BB07C
:102E8000EFF3098168226846FEF774FCEFF30583CF
:102E9000014B9B6BFEE700BF00ED00E008B5FFF7BC
:102EA000EDFF000000B59BB0EFF309816822684692
:102EB000FEF760FCEFF30583014B5B6BFEE700BFA1
:102EC00000ED00E0FEE700000FB408B5029801F045
:102ED000AFFEFEE702F0B4B902F096B90139C9B20B
:102EE00002299EBF00EBC1000023C0E901337047F7
:102EF0002DE9F8431E461B885B070546884618D413
:102F0000044600F118094C4513D063686BB12B6877
:102F10002846DB6B98473388A768C1B243F00403A7
:102F200060684246B8470834EDE7A368002BEED14D
:102F3000F9E70120BDE8F88373B56C4684E8060024
:102F4000014600224E68D5B26EB98E685EB900EBBC
:102F5000C200021D94E80300013582E803001D70E1
:102F6000012002B070BD0132032A01F10801E9D14C
:102F70000020F6E72DE9F04F2DED028B89B09FED93
:102F8000258BBDF8508004468B46054600F1180994
:102F9000002708F0040AA94536D06B680BB9AB6866
:102FA00063B1BAF1000F0BD123682046DB6B984761
:102FB0004346C1B25A46D5E90106B0470835EAE7AB
:102FC000002FFBD18DED008BADF808705B4603AA96
:102FD0000BF1080C18685968174603C70833634596
:102FE0003A46F7D1186838609B88BB80FFF774FFBA
:102FF0000423ADF808302368CDE900011B6C694655
:10300000204698470127D9E7012009B0BDEC028B83
:10301000BDE8F08F0000000000000000082817D96C
:1030200009280CD00A280CD00B280CD00C280CD066
:103030000D280CD00E2814BF4020302070470C20E3
:1030400070471020704714207047182070472020C8
:10305000704700002DE9F041456A15B94162BDE8AD
:10306000F0814B6823F06047C3F38A464FEAD37E72
:10307000C3F3807816EA230638BF3E46AC462B469B
:103080005A68BEEBD27F22F060440AD0002A18DAD8
:10309000A40CB44217D19D420FD10D60DEE7134658
:1030A000EEE7A74207D102F08044C2F380724245A6
:1030B0000BD054B1EFE708D2EDE7CCF800100B606D
:1030C000CDE7B44201D0B442E5D81A689C46002A44
:1030D000E5D11960C3E700002DE9F047089D01F034
:1030E00007044FEAD508224405F0070500EBD1009C
:1030F0004FF47F49944201D1BDE8F08704F00707FF
:1031000005F0070A57453E4638BF5646C6F1080641
:10311000111B8E4228BF0E46E10808EBD50E415C1C
:1031200013F80EC0B94029FA06F721FA0AF1FFB2E6
:103130008CEA010147FA0AF739408CEA010C03F8DE
:103140000EC034443544D5E780EA0120082341F21B
:10315000210201B24000002980B203F1FF33B8BF61
:10316000504013F0FF03F4D17047000038B50C460F
:103170008D18A54200D138BD14F8011BFFF7E4FFFC
:10318000F7E7000042684AB11368436043898189C8
:1031900001339BB29942438138BF83811046704707
:1031A00070B588B0202204460D4668460021FEF71F
:1031B000F3FA20460495FFF7E5FF024658B16B4647
:1031C000054608AE1C4603CCB4422860696023461D
:1031D00005F10805F6D1104608B070BD082817D9CA
:1031E00009280CD00A280CD00B280CD00C280CD0A5
:1031F0000D280CD00E2814BF4020302070470C2022
:103200007047102070471420704718207047202006
:1032100070470000082817D90C280CD910280CD9A1
:1032200014280CD918280CD920280CD930288CBF88
:103230000F200E207047092070470A2070470B208E
:1032400070470C2070470D20704700002DE9F843AF
:10325000078C072F04461ED9D0E9029800254FF6A7
:10326000FF73C5F12006A5F1200029FA05F108FA3F
:1032700006F628FA00F031430143C9B21846FFF7B9
:1032800063FF0835402D0346EBD1E1693A46BDE8BE
:10329000F843FFF76BBF4FF6FF70BDE8F8830000FF
:1032A00010B54B6823B9CA8A63F30902CA8210BDFC
:1032B00004691A681C600361C38A013BC3824A60C7
:1032C000EFE700002DE9F84F1D46CB8A0F46C3F308
:1032D00009010529814692460B4630D00020AAB24A
:1032E00007F11A049EB2042E1FFA80F80FD89045F9
:1032F00003F1010306D3FB8A0A4462F30903FB824C
:1033000001201AE01AF80060E6540130EAE790451F
:10331000F1D2A1F1050B1C237C68BBFBF3F203FB8C
:1033200012BB1FFA8BF6002C45D14846FFF72AFF47
:10333000044638B978606FF00200BDE8F88F4FF0AE
:103340000008E6E7002606607860ADB24FF0000B9B
:10335000454510D90AEB0803221D13F8011B9155AE
:10336000B1B208F101081B291FFA88F82BD0454596
:1033700006F10106F1D8FB8AC3F30902154465F38F
:103380000903BCE7013292B21C462368002BF9D135
:103390006B1F0B441C21B3FBF1F301339BB29A4228
:1033A000D3D2BBF1000FD0D14846FFF7EBFE20B9D6
:1033B000C4F800B0BFE70122E7E7C0F800B05E46FE
:1033C00020600446C1E74545D5D94846FFF7DAFEF7
:1033D00008B92060AFE7C0F800B0002620600446BE
:1033E000B6E700002DE9F04F2DED028B1C4683B0AF
:1033F0005B69019207468846002B00F0A780238C6A
:103400002BB1E269002A00F0A180072B35D807F123
:103410000C00FFF7B7FE054638B96FF002052846E5
:1034200003B0BDEC028BBDE8F08F14220021FEF743
:10343000B3F9228CE16905F10800FEF79BF9208CB5
:10344000013080B2FFF7E6FEFFF7C8FE013880B218
:103450002084013028746369228C1B782A4403F08D
:103460001F0363F03F0348F0004113723846696060
:103470002946FFF7EFFD0125D1E702339BB2072272
:10348000C18A0633B3FBF2F3828A521A9BB292B21C
:103490009342C2D800F10C034FF0000908EE103A35
:1034A0004FF0800A4E464D4618EE100AFFF76AFEAE
:1034B00083460028B1D014220021FEF76DF9002EBA
:1034C0003AD1019BABF8083002220BF1080E1FFA2B
:1034D00082FC0CF10100BCF1060F218C80B201D8F6
:1034E0008E422BD3FFF796FEFFF778FE62691278C3
:1034F000013802F01F028E4208BF4FF0400A42EA34
:1035000049121BFA80F14AEA020A013048F00042EF
:1035100081F808A08BF81000CBF8042059463846F3
:10352000FFF798FD238C0135B3422DB289F00109D4
:103530004FF0000AB8D172E70022C6E7E169895D61
:103540000EF802100136B6B20132C0E76FF0010585
:1035500065E70000F8B515460E4630220021044606
:103560001F46FEF719F9069B6360B5F5001F079B20
:10357000A76034BF6A094FF6FF72A36297B2E66193
:1035800004F1100000239A4206D800230360A782AA
:10359000E3822383E360F8BD0660013330462036C2
:1035A000F1E7000003781BB94BB2002BC8BF0170D4
:1035B0007047000000787047F8B50C46C9690746A7
:1035C00011B9238C002B37D1257E1F2D34D83878A4
:1035D00028BB228C072A2CD8268A36F003032BD14D
:1035E0004FF6FF70FFF7C2FD20F0010031024004EA
:1035F00041EA0561400C41EA40254FF6FF7223463F
:1036000029463846FFF7EEFE002807DD6269137889
:103610000133DBB21F2B88BF00231370F8BD218A52
:103620002D0645EA012505432046FFF70FFE024619
:10363000E5E76FF00300F1E76FF00100EEE700004F
:1036400070B58AB0044616460021282268461D46F9
:10365000FEF7A2F8BDF83830ADF810300F9B059397
:103660009DF840308DF81830119B07936946BDF8DE
:103670004830ADF820302046CDE90265FFF79CFFC9
:103680000AB070BD2DE9F041D36905460C461646D7
:103690000BB9138C5BBB377E1F2F28D895F80080A1
:1036A000B8F1000F26D03046FFF7D0FD3378210265
:1036B00041EAC33141EA0801338A41EA076141EA3C
:1036C00003410246334641F080012846FFF78AFE57
:1036D00000280ADD3378012B07D172691378013392
:1036E000DBB21F2B88BF00231370BDE8F0816FF0A1
:1036F0000100FAE76FF00300F7E70000F0B58BB0C8
:1037000004460D4617460021282268461E46FEF74D
:1037100043F89DF84C305A1E534253418DF8003007
:103720009DF84030ADF81030119B05939DF848305E
:103730008DF81830149B07936A46BDF85430ADF8E5
:10374000203029462046CDE90276FFF79BFF0BB0DB
:10375000F0BD0000406A00B104307047436A1A6847
:10376000426202691A600361C38A013BC3827047E7
:103770002DE9F041D0F82080194E14461D464146EF
:10378000002709B9BDE8F081D1E90223A21A65EB4F
:103790000303964277EB03031ED2036A8B420DD1DB
:1037A000FFF77EFD036A1B68036203690B60C38A2F
:1037B0000161016A013BC3828846E2E7FFF770FDC1
:1037C0000B68C8F8003003690B60C38A0161013BD4
:1037D000C382D8F80010D4E788460968D1E700BF53
:1037E00080841E002DE9F04F8BB00D46DDF850901F
:1037F00014469B468046002800F01981B9F1000F5D
:1038000000F01581531E3F2B00F21181012A03D1D4
:10381000BBF1000F40F00B810023CDE90833B8F86D
:103820001430B5EBC30F4FEAC30703D300200BB02E
:10383000BDE8F08F2B199F42D8F80C303ABF7F1BA0
:10384000FFB227461BB9D8F81030002B7AD0272DAD
:103850004ED8C5F12806B7424FF000032CBFF6B290
:103860003E4600932946D8F8080008AB3246FFF7D9
:1038700033FCA7EB060A35445FFA8AFAB8F814302D
:1038800003F10053053BDB000493D8F80C3003939D
:103890002821039B13B1BAF1000F2CD1D8F81000E6
:1038A00040B1BAF1000F05D0009608AB5246691A34
:1038B000FFF712FC38B2002FB8D066070AD00AAB67
:1038C00003EBD401624211F8083C02F007021341F5
:1038D00001F8083C082C3CD9102C40F2B580202C73
:1038E00040F2B780BBF1000F00F09C80082334E069
:1038F000BA460026C2E7049BE02B28BFE0230693CC
:103900000B44AB42059314D95A1B03980096924579
:1039100034BF5246D2B2691A08AB04300792FFF79F
:10392000DBFB079A1644AAEB020A1544F6B25FFACB
:103930008AFA049B069A05999B1A0493039B1B68B9
:103940000393A6E70093D8F8080008AB3A46294647
:10395000AEE7BBF1000F13D00123B4EBC30F6CD063
:10396000082C12D89DF82030621E23FA02F2D507E7
:1039700006D54FF0FF3202FA04F423438DF82030CD
:103980009DF8203089F8003051E7102C12D8BDF88E
:103990002030621E23FA02F2D10706D54FF0FF3223
:1039A00002FA04F42343ADF82030BDF82030A9F822
:1039B00000303CE7202C0FD80899631E21FA03F34E
:1039C000DA0705D54FF0FF3202FA04F40C430894ED
:1039D000089BC9F800302AE7402C2BD0DDE90865A8
:1039E000611EC4F12102A4F1210326FA01F105FAB6
:1039F00002F225FA03F311431943CB0712D5012232
:103A0000A4F12003C4F1200102FA03F322FA01F128
:103A1000A240524243EA010363EB430332432B4388
:103A2000CDE90823DDE90823C9E90023FFE66FF0AB
:103A30000100FCE66FF00800F9E6082CA0D9102C74
:103A4000B3D9202CEED8C3E7BBF1000FADD00223D1
:103A500083E7BBF1000FBBD004237EE730B5012A1A
:103A6000144638BF0124402C85B028BF40240025CF
:103A7000012ACDE9025518D81B788DF80830630764
:103A80000AD004AB03EBD405624215F8083C02F0FF
:103A90000702934005F8083C0091034622460021A6
:103AA00002A8FFF719FB05B030BD082AE4D9102A97
:103AB00003D81B88ADF80830E1E7202A8DBFD3E991
:103AC00000231B680293CDE90223D8E710B5CB6829
:103AD0001BB98B600B618B8210BD04691A681C6076
:103AE0000361C38A013BC382CA60F0E703064CBF8F
:103AF000C0F3C0300220704708B50246FFF7F6FF5A
:103B0000022806D15306C2F30F2001D100F00300B2
:103B100008BDC2F30740FBE72DE9F04F93B0CDE9B4
:103B200003230A6804461046FFF7E0FF022814BF8B
:103B3000C2F306260026002A0D46824680F2F7814F
:103B400012F0C04940F0F381097B002900F0EF81B9
:103B5000022803D02378B34240F0EC81C2F304631F
:103B60000693104602F07F030593FFF7C5FF059B00
:103B700029444FEA834848EA0A4848EA4668CE782A
:103B800000230022CDE90823F309834648EA000810
:103B9000029367D0059B009302466768534608A9C5
:103BA0002046B847002800F0C881276A4FB941462F
:103BB00004F10C00FFF7F4FA074690B96FF0020029
:103BC00054E03B6998450DD03F68002FF9D141463C
:103BD00004F10C00FFF7E4FA07460028EED0236A50
:103BE0003B60276297F817C006F01F08CCF3840CDF
:103BF000ACEB08001FFA80FE0028B8BF0EF12000D1
:103C0000A8EB0C031FFA83FED7E90221B8BF00B26C
:103C1000002B0793BEBF0EF120031BB2079352EA9D
:103C2000010338D0039BDFF824E39A1A049B4FF07A
:103C3000000C63EB010196457CEB01032BD36B7BFE
:103C400097F81AE0734519D1029B002B78D0012810
:103C500021DC7868F8B9DFF8F0C2944570EB010315
:103C600016D337E0276A27B96FF00C0013B0BDE810
:103C7000F08F3B699845B5D03F68F4E7B248904271
:103C80007CEB010301D30020F0E7029B002BFAD06C
:103C9000079B0F2B17DCFA7DB30002F0030203F041
:103CA0007C031343FB7539462046FFF7F9FA6B7B1B
:103CB000BB76029B3BB9FB7DC3F38402013262F306
:103CC0008603FB75D0E76A7BBB7E9A42DBD1029B01
:103CD000002B35D0B309022B32D0039BBB60049B71
:103CE000FB60142200210DA8FDF756FD039B0A93EB
:103CF000049B0B932B1D0C932B7BADF83EB0013B2B
:103D0000DBB2ADF83C30069B8DF84230059B8DF858
:103D1000433094F82C308DF840A083F001038DF8E7
:103D200044308DF84180A3680AA920469847FB7D5E
:103D3000C3F38403013303F01F039B02FB82A2E75A
:103D4000FB7DC6F34012B2EBD31F40F0F980C3F302
:103D50008403434540F0FC80029A2B7BB609002A7D
:103D600052D016F0010661D1032B40F2F480039B80
:103D7000BB60049BFB60FB8A66F30903FB822B7B21
:103D8000AE1D033BDBB23246394604F10C00FFF7AF
:103D900099FA00280CDA39462046FFF781FAFB7DB4
:103DA000C3F38403013303F01F039B02FB8205E787
:103DB000DDE90884AB883B834FF6FF73C9F120002F
:103DC000A9F1200228FA09F104FA00F0014324FACB
:103DD00002F211431846C9B2FFF7B6F909F1080912
:103DE000B9F1400F0346E9D1B8822A7B033AD2B237
:103DF0003146FFF7BBF9FB7DB882DA43C2F3C0124C
:103E000062F3C713FB753EE786B92E1D013BDBB29B
:103E10003246394604F10C00FFF754FA0028BADBA9
:103E20002A7BB88A013AD2B23146E2E7F98AC1F375
:103E30000901013B0429DAB25BD8281D002307F1F0
:103E40001B069A4208D910F801CB06F801C00131CF
:103E500001330529DBB2F4D103990A9104990B913E
:103E6000934207F11B010C9138BF043379680D911F
:103E700034BF55FA83F300230E93FB8AADF83EB0AE
:103E8000C3F309031A44069B8DF84230059B8DF855
:103E9000433094F82C30ADF83C2083F001038DF8CA
:103EA000443000238DF840A08DF841807B602A7B50
:103EB000B88A013A291DFFF759F93B8BB882834232
:103EC00003D1A3680AA92046984720460AA9FFF70C
:103ED000FDFDFB7DBA8AC3F38403013303F01F03A6
:103EE0009B02FB823B8B9A420CBF00206FF01000BC
:103EF000BCE67B68002BAFD0052001E01C303346C8
:103F00001E68002EFAD1091A081D2E1D184401EB57
:103F1000090CBCF11B0F5FFA89F39DD89A429BD91B
:103F200016F8013B00F8013B09F10109EFE76FF0DA
:103F300009009BE66FF00A0098E66FF00B0095E62B
:103F40006FF00D0092E600BF40420F0080841E001B
:103F50006FF00E008AE66FF00F0087E6EFF309833B
:103F600005494A6B22F001024A63683383F30988EA
:103F7000002383F31188704700EF00E0302080F3C6
:103F8000118862B60C4B0D4AD96821F4E06109042E
:103F9000090C0A43DA60D3F8FC20094942F0807228
:103FA000C3F8FC200A6842F001020A602022DA7796
:103FB00083F82200704700BF00ED00E00003FA051F
:103FC000001000E010B5302383F311880E4B5B68BE
:103FD00013F4006314D0F1EE103AEFF30984683C57
:103FE0004FF08073E361094BDB6B236684F3098830
:103FF00000F0E8FD10B1064BA36110BD054BFBE7D7
:1040000083F31188F9E700BF00ED00E000EF00E066
:104010003F0300084203000802684368114301603F
:1040200003B1184770470000024A136843F0C00309
:104030001360704700380140024A136843F0C00320
:10404000136070470044004013B51D4C204600F03B
:104050001FFD009404F114001A4900234FF48072EC
:1040600000F0DCFB184900944FF4807204F1380032
:10407000164B00F055FC164BE365002000F02EFABD
:104080002066144C204600F003FD04F11400124990
:10409000009400234FF4807200F0C0FB0F49104BD6
:1040A00000944FF4807204F1380000F039FC0D4B9D
:1040B000E365002000F012FA206602B010BD00BFD8
:1040C0005864002030650020306700202940000837
:1040D00000380140C46400203066002030680020B1
:1040E000394000080044004030B5037C2A4C0029C8
:1040F00018BF0C46012B0FD1284B984239D1284BC1
:104100001A6E42F480421A66D3F8802042F480424C
:10411000C3F88020D3F880302268036EC16D8466B6
:1041200003EB5203B3FBF2F36268150442BF23F0C2
:10413000070503F0070343EA4503CB60A36843F098
:1041400040034B60E36843F001038B6042F49673D5
:1041500043F001030B604FF0FF330B62510505D5AF
:1041600012F0102213D0B2F1805F12D080F86430C8
:1041700030BD0C4B9842CFD1094B9A6D42F40032BE
:104180009A659A6F42F400329A679B6FC4E77F2367
:10419000ECE73F23EAE700BFBC5700085864002063
:1041A00000100240C46400202DE9F047C66D376856
:1041B000F46934622107054619D014F0080118BFCC
:1041C0004FF48071E20748BF41F02001A30748BFC8
:1041D00041F04001600748BF41F08001302383F384
:1041E0001188281DFFF718FF002383F31188E205CB
:1041F0000AD5302383F311884FF48061281DFFF71F
:104200000BFF002383F311884FF030094FF0000AB1
:1042100014F0200838D13B0616D54FF0300905F1CF
:10422000380A200610D589F31188504600F0ACFBFF
:10423000002836DA0821281DFFF7EEFE27F080035C
:104240003360002383F31188790614D5620612D5F2
:10425000302383F31188D5E913239A4208D12B6CBC
:1042600033B11021281D27F04007FFF7D5FE376036
:10427000002383F31188E30618D5AA6E1369ABB146
:10428000BDE8F0475069184789F31188736A95F8BB
:1042900064102846194000F015FC8AF31188F4696F
:1042A000B6E7B06288F31188F469BAE7BDE8F08731
:1042B000434B4FF4007270B51A605A6912F4C06F24
:1042C000FBD1404B9A6802F00C02042A20D01A68F5
:1042D00042F480721A601A685205FCD501229A6075
:1042E0009A6802F00C02042AFAD13749374A0A6068
:1042F0000A6812F00F02FBD1C3F8982063221A60FB
:104300001A689603FCD42E4A4FF48071C2F88010CC
:10431000C468E50306D51A6842F480321A601A6848
:104320009103FCD5C269D20709D5D3F8982042F091
:104330000102C3F89820D3F898209607FBD542696C
:10434000DA6044F480721A6004F0807111B11A6866
:104350009501FBD5996802691B4E22F0030501F017
:10436000030129439960856935603168694009070F
:10437000FBD1134905680D6046684E608068C1F83E
:1043800080006E0417D448698505FCD4996802F052
:10439000030021F0030101439960920099685140A4
:1043A00011F00C0FFAD1E2055EBF1A6822F4807298
:1043B0001A60002070BD48698005FCD5E6E700BFA3
:1043C000007000400010024000200240000604007F
:1043D00008B500F09FF9BDE8084000F06FB9000093
:1043E00010B5394C3948A36A4FF0FF32A262A36A74
:1043F0000023A362A16AE16A61F07F01E162E16AE0
:1044000001F07F01E162E16A216B2263216B23638A
:10441000216BA16BA263A16BA363A16BE16BE26350
:10442000E16BE363E16B216C2264226C2364226CF8
:10443000226E42F001022266D4F8802022F00102AE
:10444000C4F88020D4F88020A26D42F08052A2658A
:10445000A26F22F08052A267A26F1D4A4FF4004162
:104460009160D360136253629362D36213635363A8
:104470009363D363136453649364D3641365536584
:10448000116841F480711160D4F8902012F4407FDB
:104490001EBF4FF48032C4F89020C4F890300D4A0B
:1044A0000023A360C4F88820C4F89C30FFF700FF05
:1044B00010B1094800F0BCFBD4F8903023F003237E
:1044C000C4F8903010BD00BF00100240DC57000857
:1044D0000070004055010051D4570008014B53F8BB
:1044E0002000704728230020074A08B5536903F0CD
:1044F0000103536123B1054A13680BB15068984713
:10450000BDE80840FFF75EBD00040140BC6B002021
:10451000074A08B5536903F00203536123B1054A02
:1045200093680BB1D0689847BDE80840FFF74ABDD3
:1045300000040140BC6B0020074A08B5536903F032
:104540000403536123B1054A13690BB150699847BD
:10455000BDE80840FFF736BD00040140BC6B0020F9
:10456000074A08B5536903F00803536123B1054AAC
:1045700093690BB1D0699847BDE80840FFF722BDA9
:1045800000040140BC6B0020074A08B5536903F0E2
:104590001003536123B1054A136A0BB1506A98475F
:1045A000BDE80840FFF70EBD00040140BC6B0020D1
:1045B000164B10B55C6904F478725A61A30604D5F1
:1045C000134A936A0BB1D06A9847600604D5104A23
:1045D000136B0BB1506B9847210604D50C4A936BB3
:1045E0000BB1D06B9847E20504D5094A136C0BB1A7
:1045F000506C9847A30504D5054A936C0BB1D06C59
:104600009847BDE81040FFF7DDBC00BF0004014043
:10461000BC6B0020194B10B55C6904F47C425A61F4
:10462000620504D5164A136D0BB1506D98472305EA
:1046300004D5134A936D0BB1D06D9847E00404D5AF
:104640000F4A136E0BB1506E9847A10404D50C4A63
:10465000936E0BB1D06E9847620404D5084A136F6D
:104660000BB1506F9847230404D5054A936F0BB1E3
:10467000D06F9847BDE81040FFF7A4BC000401408C
:10468000BC6B002008B50348FFF78EFDBDE808406D
:10469000FFF798BC5864002008B50348FFF784FD75
:1046A000BDE80840FFF78EBCC464002008B500F0E8
:1046B000E5FEBDE80840FFF785BC0000062108B50F
:1046C000084600F03BF80621072000F037F80621E5
:1046D000082000F033F80621092000F02FF8062109
:1046E0000A2000F02BF80621172000F027F80621F9
:1046F000282000F023F807211C2000F01FF80C21CF
:10470000252000F01BF8BDE808400C21262000F011
:1047100015B800004FF0E023002258684FF0FF3139
:10472000930003F1604303F5614301329042C3F803
:104730008010C3F88011F3D27047000000F160438D
:1047400003F561430901C9B283F80013012200F0A7
:104750001F039A4043099B0003F1604303F5614343
:10476000C3F880211A607047F8B51546826806695B
:10477000AA420B46816938BF8568761AB54204465D
:104780000BD218462A46FCF7F5FFA3692B44A36118
:10479000A3685B1BA3602846F8BD0CD918463246B7
:1047A000FCF7E8FFAF1BE1683A463044FCF7E2FF54
:1047B000E3683B44EBE718462A46FCF7DBFFE36877
:1047C000E5E7000083689342F7B51546044638BF15
:1047D0008568D0E90460361AB5420BD22A46FCF748
:1047E000C9FF63692B446361A36828465B1BA36010
:1047F00003B0F0BD0DD932460191FCF7BBFF019922
:10480000E068AF1B3A463144FCF7B4FFE3683B4431
:10481000E9E72A46FCF7AEFFE368E4E710B50A448F
:104820000024C361029B8460C0E90000C0E9051157
:10483000C1600261036210BD08B5D0E90532934240
:1048400001D1826882B98268013282605A1C426159
:104850001970D0E904329A4224BFC3684361002131
:1048600000F052FA002008BD4FF0FF30FBE70000D7
:1048700070B5302304460E4683F31188A568A5B1B0
:10488000A368A269013BA360531CA3611578226948
:10489000934224BFE368A361E3690BB120469847C4
:1048A000002383F31188284607E03146204600F0B4
:1048B0001BFA0028E2DA85F3118870BD2DE9F74F65
:1048C00004460E4617469846D0F81C904FF0300A22
:1048D0008AF311884FF0000B154665B12A46314620
:1048E0002046FFF741FF034660B94146204600F0ED
:1048F000FBF90028F1D0002383F31188781B03B063
:10490000BDE8F08FB9F1000F03D001902046C847F1
:10491000019B8BF31188ED1A1E448AF31188DCE7A2
:10492000C0E90511C160C3611144009B8260C0E908
:104930000000016103627047F8B504460D46164653
:10494000302383F31188A768A7B1A368013BA36054
:1049500063695A1C62611D70D4E904329A4224BF13
:10496000E3686361E3690BB120469847002080F358
:10497000118807E03146204600F0B6F90028E2DA57
:1049800087F31188F8BD0000D0E905239A4210B5DD
:1049900001D182687AB98268013282605A1C8261D0
:1049A0001C7803699A4224BFC3688361002100F028
:1049B000ABF9204610BD4FF0FF30FBE72DE9F74F74
:1049C00004460E4617469846D0F81C904FF0300A21
:1049D0008AF311884FF0000B154665B12A4631461F
:1049E0002046FFF7EFFE034660B94146204600F03F
:1049F0007BF90028F1D0002383F31188781B03B0E2
:104A0000BDE8F08FB9F1000F03D001902046C847F0
:104A1000019B8BF31188ED1A1E448AF31188DCE7A1
:104A2000026843681143016003B1184770470000F2
:104A30001430FFF743BF00004FF0FF331430FFF78F
:104A40003DBF00003830FFF7B9BF00004FF0FF3323
:104A50003830FFF7B3BF00001430FFF709BF000084
:104A60004FF0FF311430FFF703BF00003830FFF77D
:104A700063BF00004FF0FF323830FFF75DBF00002A
:104A8000012914BF6FF0130000207047FFF7DCBA54
:104A9000044B03600023C0E9023343600123037425
:104AA000704700BFFC57000810B53023044683F35D
:104AB0001188FFF719FB02232374002080F311886B
:104AC00010BD000038B5C36904460D461BB904216A
:104AD0000844FFF7A5FF294604F11400FFF7ACFED8
:104AE000002806DA201D4FF40061BDE83840FFF7CA
:104AF00097BF38BD00230375826803691B689968F6
:104B00009142FBD25A68036042601060586070475F
:104B100000230375826803691B6899689142FBD87A
:104B20005A680360426010605860704708B50846D4
:104B3000302383F311880B7D032B05D0042B0DD07C
:104B40002BB983F3118808BD8B6900221A604FF0DE
:104B5000FF338361FFF7CEFF0023F2E7D1E9003294
:104B600013605A60F3E70000FFF7C4BF054BD96834
:104B70000875186802681A60536001220275D860CF
:104B8000FBF7C8BB3069002030B50C4BDD684B1C0F
:104B900087B004460FD02B46094A684600F046F914
:104BA0002046FFF7E3FF009B13B1684600F048F989
:104BB000A86907B030BDFFF7D9FFF9E730690020D9
:104BC0002D4B0008044B1A68DB6890689B6898427C
:104BD00094BF00200120704730690020084B10B5B9
:104BE0001C68D86822681A60536001222275DC6054
:104BF000FFF78EFF01462046BDE81040FBF78ABB59
:104C00003069002038B5074C0749084801230025C2
:104C10002370656000F060FC0223237085F3118827
:104C200038BD00BF986B002028580008306900206C
:104C300008B572B6044B186500F0D0FA00F080FB9E
:104C4000024B03221A70FEE730690020986B0020A7
:104C500000F02CB98B60022308618B8208467047F4
:104C60008368A3F1840243F8142C026943F8442CAE
:104C7000426943F8402C094A43F8242CC26843F89F
:104C8000182C022203F80C2C002203F80B2C044AE7
:104C900043F8102CA3F12000704700BF2D0300083B
:104CA0003069002008B5FFF7DBFFBDE80840FFF7DB
:104CB0005BBF0000024BDB6898610F20FFF756BF17
:104CC00030690020302383F31188FFF7F3BF000021
:104CD00008B50146302383F311880820FFF754FFFD
:104CE000002383F3118808BD064BDB6839B14268A5
:104CF00018605A60136043600420FFF745BF4FF00F
:104D0000FF307047306900200368984206D01A6867
:104D10000260506099611846FFF726BF7047000097
:104D200010B503689C68A2420CD85C688A600B606E
:104D30004C602160596099688A1A9A604FF0FF337D
:104D4000836010BD1B68121BECE700000A2938BF06
:104D50000A2170B504460D460A26601900F0B6FB1C
:104D600000F0A2FB041BA54203D8751C2E46044686
:104D7000F3E70A2E04D9BDE87040012000F0ECBB37
:104D800070BD0000F8B5144B0D46D96103F1100158
:104D900041600A2A1969826038BF0A2201604860AE
:104DA0001861A818144600F083FB0A2700F07CFB6A
:104DB000431BA342064606D37C1C281900F086FB41
:104DC00027463546F2E70A2F04D9BDE8F84001200E
:104DD00000F0C2BBF8BD00BF30690020F8B5064640
:104DE0000D4600F061FB0F4A134653F8107F9F42B7
:104DF00006D12A4601463046BDE8F840FFF7C2BF5B
:104E0000D169BB68441A2C1928BF2C46A34202D989
:104E10002946FFF79BFF224631460348BDE8F8408C
:104E2000FFF77EBF306900204069002010B4C0E960
:104E3000032300235DF8044B4361FFF7CFBF00005D
:104E400010B5194C236998420DD0D0E90032816821
:104E500013605A609A680A449A60002303604FF016
:104E6000FF33A36110BD2346026843F8102F53603F
:104E70000022026022699A4203D1BDE8104000F08E
:104E80001FBB936881680B44936000F00DFB22699F
:104E9000E1699268441AA242E4D91144BDE8104085
:104EA000091AFFF753BF00BF306900202DE9F04712
:104EB000DFF8BC8008F110072C4ED8F8105000F035
:104EC000F3FAD8F81C40AA68031B9A423ED814444F
:104ED000D5E900324FF00009C8F81C4013605A6051
:104EE000C5F80090D8F81030B34201D100F0E8FACC
:104EF00089F31188D5E9033128469847302383F395
:104F000011886B69002BD8D000F0CEFA6A69A0EB4B
:104F100004094A4582460DD2022000F01DFB002202
:104F2000D8F81030B34208D151462846BDE8F047C2
:104F3000FFF728BF121A2244F2E712EB090938BF23
:104F40004A4629463846FFF7EBFEB5E7D8F8103059
:104F5000B34208D01444211AC8F81C00A960BDE867
:104F6000F047FFF7F3BEBDE8F08700BF40690020BF
:104F70003069002038B500F097FA054AD2E90845B3
:104F8000031B181945F10001C2E9080138BD00BF33
:104F90003069002000207047FEE7000070470000E5
:104FA0004FF0FF3070470000BFF34F8F024A136984
:104FB000DB03FCD4704700BF0020024008B5094B5A
:104FC0001B7873B9FFF7F0FF074B5A69002ABFBF80
:104FD000064A9A6002F188329A601A6822F4806266
:104FE0001A6008BDB06B0020002002402301674515
:104FF00008B50B4B1B7893B9FFF7D6FF094B5A69DD
:1050000042F000425A611A6842F480521A601A68EB
:1050100022F480521A601A6842F480621A6008BD55
:10502000B06B002000200240FF289ABF00F58030BE
:10503000C0020020704700004FF40060704700007D
:105040004FF4807070470000FF2808B50BD8FFF7B9
:10505000EBFF00F500630268013204D104308342A3
:10506000F9D1012008BD0020FCE70000FF2838B579
:10507000044624D8FFF798FFFFF7A0FF114AF32357
:10508000136102235361C3005169C50903F47E73A0
:1050900043EAC5230B435361536943F4803353619F
:1050A000FFF782FF4FF40061FFF7BEFF00F044F905
:1050B000FFF79EFF2046BDE83840FFF7C5BF002040
:1050C00038BD00BF002002402DE9F84340EA02034A
:1050D00013F00703144606D0304B40F282321A60B8
:1050E0000020BDE8F88385182D4A95420CD92B4A3B
:1050F00040F287311160F3E7031D1B684A68934251
:1051000008D1083C08300831072C14D902680B6814
:105110009A42F1D0FFF752FFFFF746FF214E0831C8
:105120004FF001084FF00009012CA1F1080706D843
:10513000FFF75EFF01E0002CECD10120D1E7C6F8BB
:105140001480054651F8083C45F8043B51F8043CEE
:105150004360FFF729FF336943F001033361C6F869
:105160001490026851F8083C9A420CD00B4B40F264
:10517000AF321A600C4B18600C4B1C600C4B1F605C
:10518000FFF736FFACE72D6851F8043C9D4201F172
:105190000801EBD1083C0830C6E700BFAC6B00202B
:1051A0000000080800200240A06B0020A86B00202F
:1051B000A46B0020084908B50B7828B11BB9FFF78C
:1051C000FDFE01230B7008BD002BFCD0BDE808409C
:1051D0000870FFF70DBF00BFB06B002008B506498F
:1051E000064800F0ABF8BDE808404FF400414FF02E
:1051F000805000F0A3B800BF007F01000001002034
:10520000084600F035BA000038B5EFF311859DB9B6
:10521000EFF30584C4F30804302334B183F3118819
:10522000FFF7A8FE85F3118838BD83F31188FFF7D7
:10523000A1FE84F3118838BDBDE83840FFF79ABE5F
:1052400038B5FFF7E1FF114C114AC00840EA417040
:10525000A0FB025EC908A0FB040C1CEB050CA1FB23
:1052600004404FF000035B41A1FB02121CEB040C55
:1052700043EB000011EB0E0142F10002411842F134
:105280000000090941EA007038BD00BFCFF753E3C1
:10529000A59BC4200244D2B2904200D17047431C67
:1052A000800000F1804000F51450006841F8040BC4
:1052B000D8B2F1E7124B10B5D3F89040240409D4CA
:1052C000D3F89040C3F89040D3F8904044F40044A1
:1052D000C3F890400B4C2368024443F4807323606E
:1052E000D2B2904200D110BD431C800000F180403A
:1052F00000F5145051F8044B0460D8B2F1E700BF38
:10530000001002400070004007B5012201A90020F2
:10531000FFF7C0FF019803B05DF804FB13B5044626
:10532000FFF7F2FFA04205D0012201A9002001945D
:10533000FFF7C0FF02B010BD7047000070470000CB
:1053400070470000074B45F255521A6003225A601D
:1053500040F2FF729A604CF6CC421A60024B012276
:105360001A70704700300040B86B0020034B1B7868
:105370001BB1034B4AF6AA221A607047B86B002093
:1053800000300040054B1A6832B902F1804202F544
:105390000432D2F894201A60704700BFB46B00202A
:1053A000024B4FF40002C3F89420704700100240F3
:1053B00008B5FFF7E7FF024B1868C0F3407008BD5F
:1053C000B46B002070470000FEE700000A4B0B485A
:1053D0000B4A90420BD30B4BDA1C121AC11E22F05F
:1053E00003028B4238BF00220021FCF7D5B953F8E5
:1053F000041B40F8041BECE7BC5900083C6C00207F
:105400003C6C00203C6C00200023054A1946013307
:10541000102BC2E9001102F10802F8D1704700BF59
:10542000BC6B002008B5124B9A6D42F001029A65E0
:105430009A6F42F001029A670E4A9B6F936843F09D
:10544000010393600620FFF749F80B4BB0FBF3F024
:105450004FF080434FF0FF3201389862DA62002249
:105460009A615A63DA605A6001225A611A6008BD73
:1054700000100240002004E040420F004FF0804244
:1054800008B51169D3680B40D9B2C9439B071161B4
:1054900007D5302383F31188FFF7DAFB002383F36A
:1054A000118808BDFFF7BEBF4FF08043586A7047B0
:1054B0004FF08043002258631A610222DA6070477D
:1054C0004FF080430022DA60704700004FF08043C5
:1054D00058637047FEE7000070B51B4B0163002561
:1054E000044686B0586085620E46FEF747FD04F11B
:1054F0001003C4E904334FF0FF33C4E90635C4E9AF
:105500000044A560E562FFF7CFFF2B460246C4E9E1
:10551000082304F134010D4A256580232046FFF756
:1055200099FB0123E0600A4A0375009272680192B8
:10553000B268CDE90223074B6846CDE90435FFF791
:10554000B1FB06B070BD00BF986B00203458000856
:1055500039580008D5540008024AD36A1843D0626B
:10556000704700BF306900204B6843608B688360E0
:10557000CB68C3600B6943614B6903628B6943620B
:105580000B6803607047000008B5204BDA6A42F0F0
:105590007F02DA62DA6A22F07F02DA62DA6ADA6CB1
:1055A00042F07F02DA64DA6E42F07F02DA66184A6D
:1055B000DB6E11464FF09040FFF7D6FF02F11C0161
:1055C00000F58060FFF7D0FF02F1380100F5806040
:1055D000FFF7CAFF02F1540100F58060FFF7C4FF36
:1055E00002F1700100F58060FFF7BEFF02F18C014F
:1055F00000F58060FFF7B8FF02F1A80100F58060B8
:10560000FFF7B2FFBDE80840FEF7EABE0010024017
:105610004058000808B500F009F8FFF7F3FABDE8B4
:105620000840FFF7AFBE00007047000008B5FEF766
:10563000CFFEFFF7E9FEFFF729FAFFF7F5FFBDE818
:105640000840FFF72FBF00000B460146184600F048
:1056500001B8000010B5054C13462CB10A460146AE
:105660000220AFF3008010BD2046FCE700000000E0
:10567000024B01461868FFF7C3BD00BF502300204E
:1056800010B501390244904201D1002005E00378B1
:1056900011F8014FA34201D0181B10BD0130F2E7F1
:1056A0002DE9F041A3B1C91A17780144044603F16A
:1056B000FF3C8C42204601D9002009E00578BD421C
:1056C00004F10104F5D10CEB0405D618A54201D173
:1056D000BDE8F08115F8018D16F801EDF045F5D023
:1056E000E7E70000034611F8012B03F8012B002A1D
:1056F000F9D17047636F6D2E7561762D6465762ED6
:10570000706F7765726D6F64756C650053544D33BF
:105710003247343F3F00000040A2E4F16468910644
:105720000041A3E5F2656992070000004261642030
:1057300043414E496661636520696E6465782E0059
:10574000000100000001FF0000640040006800400C
:1057500000000000000000000D2600087120000875
:10576000752D0008E1200008ED200008392300080D
:1057700091220008A9200008AD200008852000081B
:105780006D200008F522000891200008392F00083C
:10579000DD2E00089D200008C922000801040E0526
:1057A000054B02020E05054B04010E05054B0501D4
:1057B0000B04044B0801060303460000009600009A
:1057C00000000000000000000000000000000000D9
:1057D00000000000636C6B7377630000000300003F
:1057E00000000000000100000000010103000000B3
:1057F000232831010407040001000000000000001C
:105800004D4A0008394A0008754A0008614A0008F4
:105810006D4A0008594A0008454A0008314A000804
:10582000814A00086330000024580008886900207D
:10583000986B00206D61696E0069646C6500000002
:105840000000812A00000000AAAAA9AA00000024E2
:10585000FFFE0000000000000090090000A0004AC8
:1058600000000000AAAAAA6A00500000FF7F000002
:1058700000000077000099000000005400E00000E4
:10588000AAAAAAAA00000000FFFF00000000000072
:10589000000000000000000000000000AAAAAAAA60
:1058A00000000000FFFF00000000000000000000FA
:1058B0000000000000000000AAAAAAAA0000000040
:1058C000FFFF0000000000000000000000000000DA
:1058D00000000000AAAAAAAA00000000FFFF000022
:1058E00000000000000000000000000000000000B8
:1058F000AAAAAAAA00000000FFFF00000000000002
:105900000000000000000000711400000000000012
:105910000070070000000000FE2A0100D204000011
:10592000FF00000058640020000000000C57000831
:10593000006889096D8BB90200B4C4040068890944
:10594000006889090068890900688909006889096F
:1059500000688909000000005423002000000000B6
:105960000000000000000000000000000000000037
:105970000000000000000000000000000000000027
:105980000000000000000000000000000000000017
:105990000000000000000000000000000000000007
:1059A00000000000000000000000000000000000F7
:0C59B000000000000000000000000000EB
:00000001FF
