:020000040800F2
:10000000000200203505000821270008F12600081D
:100010000D270008F126000805270008370500080D
:10002000370500083705000837050008BD37000808
:10003000370500083705000837050008E1430008C8
:1000400037050008370500083705000837050008A0
:100050003705000837050008154100084141000830
:100060006D41000899410008C541000837050008A6
:100070003705000837050008370500083705000870
:10008000370500083705000837050008A5260008D1
:10009000D1260008E126000837050008F1410008D4
:1000A0003705000837050008370500083705000840
:1000B0003705000837050008370500083705000830
:1000C0003705000837050008370500083705000820
:1000D0003705000837050008370500083705000810
:1000E00059420008370500083705000837050008A1
:1000F00037050008370500083705000837050008F0
:1001000037050008370500083705000837050008DF
:1001100037050008370500083705000837050008CF
:1001200037050008370500083705000837050008BF
:1001300037050008370500083705000837050008AF
:10014000370500083705000837050008370500089F
:10015000370500083705000837050008370500088F
:10016000A1120008000000000000000000000000D4
:100170004FF0FF0C1CEAD0521EBF1CEAD15392EA8A
:100180000C0F93EA0C0F6FD01A4480EA010C400266
:1001900018BF5FEA41211ED04FF0006343EA5010C0
:1001A00043EA5111A0FB01310CF00040B1F5000F02
:1001B0003EBF490041EAD3715B0040EA010062F1B1
:1001C0007F02FD2A1DD8B3F1004F40EBC25008BF9B
:1001D00020F00100704790F0000F0CF0004C08BFB9
:1001E00049024CEA502040EA51207F3AC2BFD2F186
:1001F000FF0340EAC250704740F400004FF0000394
:10020000013A5DDC12F1190FDCBF00F000407047CD
:10021000C2F10002410021FA02F1C2F1200200FA0B
:1002200002FC5FEA310040F1000053EA4C0308BFD2
:1002300020EADC70704792F0000F00F0004C02BF23
:10024000400010F4000F013AF9D040EA0C0093F09E
:10025000000F01F0004C02BF490011F4000F013BF8
:10026000F9D041EA0C018FE70CEAD15392EA0C0F66
:1002700018BF93EA0C0F0AD030F0004C18BF31F0D1
:10028000004CD8D180EA010000F00040704790F0A7
:10029000000F17BF90F0004F084691F0000F91F04B
:1002A000004F14D092EA0C0F01D142020FD193EA11
:1002B0000C0F03D14B0218BF084608D180EA010099
:1002C00000F0004040F0FE4040F40000704740F075
:1002D000FE4040F44000704780F0004002E000BF64
:1002E00081F0004142001FBF5FEA410392EA030F21
:1002F0007FEA226C7FEA236C6AD04FEA1262D2EB6B
:100300001363C1BFD218414048404140B8BF5B426F
:10031000192B88BF704710F0004F40F4000020F008
:100320007F4018BF404211F0004F41F4000121F01E
:100330007F4118BF494292EA030F3FD0A2F1010268
:1003400041FA03FC10EB0C00C3F1200301FA03F1A6
:1003500000F0004302D5494260EB4000B0F5000FC9
:1003600013D3B0F1807F06D340084FEA310102F188
:100370000102FE2A51D2B1F1004F40EBC25008BF3A
:1003800020F0010040EA03007047490040EB000004
:10039000013A28BFB0F5000FEDD2B0FA80FCACF105
:1003A000080CB2EB0C0200FA0CF0AABF00EBC25032
:1003B00052421843BCBFD0401843704792F0000F20
:1003C00081F4000106BF80F400000132013BB5E773
:1003D0004FEA41037FEA226C18BF7FEA236C21D0E9
:1003E00092EA030F04D092F0000F08BF084670474E
:1003F00090EA010F1CBF0020704712F07F4F04D11C
:10040000400028BF40F00040704712F100723CBF2E
:1004100000F50000704700F0004343F0FE4040F458
:10042000000070477FEA226216BF08467FEA236316
:100430000146420206BF5FEA412390EA010F40F401
:10044000800070474FF0000304E000BF10F000434D
:1004500048BF40425FEA000C08BF704743F0964334
:1004600001464FF000001CE050EA010208BF70474F
:100470004FF000030AE000BF50EA010208BF7047D6
:1004800011F0004302D5404261EB41015FEA010CEB
:1004900002BF84460146002043F0B64308BFA3F1E3
:1004A0008053A3F50003BCFA8CF2083AA3EBC253C5
:1004B00010DB01FA02FC634400FA02FCC2F12002E4
:1004C000BCF1004F20FA02F243EB020008BF20F01B
:1004D0000100704702F1200201FA02FCC2F1200281
:1004E00050EA4C0021FA02F243EB020008BF20EA76
:1004F000DC70704742000ED2B2F1FE4F0BD34FF0CA
:100500009E03B3EB126209D44FEA002343F0004389
:1005100023FA02F070474FF00000704712F1610FAC
:1005200001D1420202D14FF0FF3070474FF000007E
:10053000704700BF02E000F000F8FEE772B6264800
:1005400080F30888254880F30988254825490860F4
:10055000022080F31488BFF36F8F03F0FFFC03F0D9
:1005600063FD4FF0553020491B4A91423CBF41F892
:10057000040BFAE71D49194A91423CBF41F8040BAC
:10058000FAE71B491B4A1C4B9A423EBF51F8040B29
:1005900042F8040BF8E700201849194A91423CBF81
:1005A00041F8040BFAE703F0DDFC03F03FFD154CC6
:1005B000154DAC4203DA54F8041B8847F9E700F004
:1005C0003FF8124C124DAC4203DA54F8041B884732
:1005D000F9E703F0C5BC000000020020000800207D
:1005E0000000000808ED00E00001002000020020EB
:1005F000984500080008002080080020800800209E
:10060000342500206001000864010008640100082E
:10061000640100082DE9F04FC1F80CD0C3689D4675
:10062000BDE8F08F002383F311882846A0470020FF
:1006300003F01AFAFEE703F0A3F900DFFEE700007B
:10064000F8B500F03FFE314A536823F0E06343F011
:10065000905343F48043536003F01AFC074603F0C1
:1006600069FC0546B8BB2A4B9F4234D001339F42F8
:1006700034D0284B27F0FF029A4232D1F8B200F072
:1006800037FC2E4642F2107400F038FC08B100240A
:10069000264601F049F940B30024032000F03EF85B
:1006A000264635B11C4B9F4203D0002403F03AFC90
:1006B0002646002003F0F6FB0EB100F045F800F0EE
:1006C0008BFC02F035F80546BCB900F0CDFC0120EA
:1006D00003F0D0F9F8E72E460024D5E704460126BA
:1006E000D2E7064641F28834CEE741F288339C4295
:1006F00004BF4FF47A740126D3E702F019F8431BC4
:10070000A342E2D900F020F8DBE700BF000001407F
:10071000010007B0000008B0263A09B0084B187075
:1007200003280CD8DFE800F008050208022000F0DA
:1007300031BE022000F026BE0022024B5A607047F4
:10074000800800208408002038B501F0EDF830B1B1
:1007500003221F4B1A7000221E4B5A6038BD1E4BDD
:100760001E4A19680131F9D004339342F9D11C4C67
:10077000194DD4F80428AA42F0D31A4B9B6803F110
:10078000006303F508439A42E8D203F09FFB03F0AD
:10079000B1FB002000F0BCFD0220FFF7BFFF124BB1
:1007A000DA690022DA61D96999699A619B6972B63E
:1007B0004FF0E023C3F8085D3021D4F80038D4F8B6
:1007C000042881F311889D4683F308881047C5E704
:1007D0008008002084080020008800082088000885
:1007E00000800008000800200010024049F2690063
:1007F000084A136899B21B0C00FB013344F25061A4
:100800001360054B186882B2000C01FB02001860EF
:1008100080B27047180800201408002010B5044664
:100820000021102200F0D2FD034B03CB2060616059
:100830001868A06010BD00BFE8F7FF1FF0B5ADF568
:100840004F7D6CAC4FF4C47207460D462046002124
:1008500000F0BCFD01F06CFF4FF47A72B0FBF2F0D7
:10086000244B186093E80700022384E807000DF585
:10087000E9702382FFF7D2FF4EF603531E4907A803
:10088000238403F009FE17230DF2E32284F83231AA
:100890000DF12C0C07AB1E4603CE6645106051606F
:1008A000334602F10802F6D130681060B188B3799E
:1008B0000DAE9180937131460122204600F0D2FDA9
:1008C00000230393AB7E80B2029305F119030193D9
:1008D0000123CDE904600093384604A3D3E9002343
:1008E000E97E02F037FB0DF54F7DF0BD9E6AC42115
:1008F000818A46EE8C080020A84400082DE9F041CA
:100900002C4C8046237A0D46DAB05BBB284627A9DB
:1009100000F0CEFE0746002842D19DF89D60C82E0B
:100920003ED801464FF4A662204600F04FFD4FF43A
:100930008073C4F8F8314FF40073C4F80C334FF4EB
:1009400040733246C4F820340DF19E0104F10900D1
:1009500000F02AFD9DF89C302644777223720BB973
:10096000EB7E23728122002106AC27A800F02EFD29
:100970000122214627A800F0E1FE00230393AB7E6D
:1009800080B2029305F1190301932823CDE90440B5
:100990000093404605A3D3E90023E97E02F0DAFA8A
:1009A0005AB0BDE8F08100BFAFF3008026417272FB
:1009B000DF25D7B7D4180020F0B54FF48A7500248E
:1009C000234EF1B005FB006596F8D830D8222146B9
:1009D00085F8DC3085F8E8403AA800F0F7FC06F12D
:1009E000090000F0EBFCD5F8E430C2B206AF8DF898
:1009F000F00006F109010DF1F100CDE93A3400F003
:100A0000D3FC394601223AA800F0CEFE80B2CDE9EF
:100A1000047008230127CDE9023706F1D8030193BA
:100A20003023317A00930B4807A3D3E9002302F067
:100A300091FAA04206DD01F07BFEC5F8E0003846E1
:100A400071B0F0BD2046FBE778F6339F93CACD8D99
:100A5000D4180020A41800202DE9F0411D4D1E4E91
:100A60001E4F86B0284602F0A1FA034658B3002470
:100A7000CDE90344ADF81440027B02948DF81420B4
:100A80009968406803AA03C21B68DFF8548043F0EA
:100A90000043029301F04EFE821941F100033846F3
:100AA000009402A901F01CF9A04205DD284602F0DD
:100AB00081FA88F80040D5E798F80030072B05D870
:100AC000013388F8003006B0BDE8F081014802F03B
:100AD00071FAF8E7A418002040420F00101E002011
:100AE000091E002070B50D4614461E4602F08EF910
:100AF00050B9022E10D1012C0ED112A3D3E900233C
:100B00000120C5E9002307E0282C10D005D8012CCE
:100B100009D0052C0FD0002070BD302CFBD10BA3C9
:100B2000D3E90023ECE70BA3D3E90023E8E70BA309
:100B3000D3E90023E4E70BA3D3E90023E0E700BFF8
:100B4000AFF30080401DA12026812A0B78F6339F49
:100B500093CACD8D9E6AC421818A46EE2641727267
:100B6000DF25D7B7F017304A39059E5638B5054608
:100B70000E4C0021013500F0EDFBA4F82C55B4F823
:100B80002C0500F0CFFB78B1B4F82C0500F0DAFBAF
:100B9000014648B9B4F82C0500F0DCFBB4F82C355C
:100BA0000133A4F82C35EAE738BD00BFD418002083
:100BB00010B50A4B0A4A1A6093F8702442B9D3F868
:100BC0006C442CB1204600F02DFF204601F064F863
:100BD000BDE81040034800F025BF00BF101E0020F4
:100BE000FC440008682200202DE9F04F8FB000AFD0
:100BF00005460C4602F00AF900284AD1237E022B52
:100C00001AD1E38A012B17D101F092FD0646FFF7B6
:100C1000EDFD4FF4C873B0FBF3F202FB1303DFF8F2
:100C2000B0829BB206F516763344C8F80030E37EF6
:100C300033B90022A74B1A703C37BD46BDE8F08F90
:100C4000204607F1240100F0E7FC0028F4D107F169
:100C50001400FFF7E3FD97F8264007F11401224640
:100C600007F1270003F0E8FB0028E2D10F2C08D899
:100C7000984B1C70D8F80030A3F51673C8F80030F4
:100C8000DAE797F824100029D6D0284602F0B6F803
:100C9000D2E7E38A282B33D010D8012B2BD0052B99
:100CA000CAD1BFF34F8F8C498C4BCA6802F4E06203
:100CB0001343CB60BFF34F8F00BFFDE7302BBBD199
:100CC000874EE17E327A9142B6D131460022607E73
:100CD00091F8DC50854200F0AD800132042A01F524
:100CE0008A71F5D140F6B8313268FA328A4294BF3F
:100CF00032603160A0E721462846FFF79FFD9BE761
:100D000021462846FFF7FAFD96E7B2F8EC507B60E3
:100D100005F103094FEA99094FEA8902D11DC90873
:100D2000A8EBC1039D46EB460021584600F04EFB60
:100D300004F1EE012A465846314400F035FB7B6849
:100D400013B9012000F0E4FA96F8D20000F0EAFAB4
:100D5000044630B9307200F005FB204600F0D8FAA6
:100D6000AFE0D6F8D4203AB996F8D200B6F82C25E0
:100D7000824201D8FFF7FAFED6F8D4202A449442E2
:100D800008D296F8D200B6F82C250130824201D85C
:100D9000FFF7ECFE594670685FFA89F200F01EFB1F
:100DA00008B9C54678E0726896F8D2002A447260A5
:100DB000D6F8D42005EB0209C6F8D49000F0B2FAB8
:100DC000814509D396F8D220D6F8D4000132001B11
:100DD00086F8D220C6F8D400FF2D0FD80024347234
:100DE00000F0C0FA204600F093FA00F09DFD3D4B64
:100DF000188108B9FFF7A8FCC5461DE7BB6896F83F
:100E0000D9000AFB0362D2F8E410FB6801F58061A7
:100E100082F8E830C2F8E030C2F8E410FFF7CCFD09
:100E2000FFF71AFE96F8D920013202F0030286F885
:100E3000D920B6E74FF48A7A0AFB02F505F1EA01F8
:100E40002046314400F0E4FCF86000287FF4F4AE62
:100E50000122354485F8E82001F06AFCD5F8E0204D
:100E6000801A192840F6B83238BF1920904228BF9E
:100E70001046FFF7E7FA1C49FFF77AF90446306895
:100E8000FFF7E0FA1949FFF773F901462046FFF72B
:100E900029FAFFF72FFB306096F8D93071680AFB0A
:100EA00003F4321992F8E850BB605DB1D2F8E43037
:100EB000E8468B423FF429AF002182F8E810C2F8DF
:100EC000E010C5467368074A9B0A01331381B3E6F5
:100ED000A01800209D18002000ED00E00400FA0595
:100EE000D41800208C080020CDCCCC3D6666663F2F
:100EF000014B1870704700BF9808002030B54FF0C4
:100F000000542C4B226885B09A4223D1637D0BB3E9
:100F1000294A2A481370237D002503724FF48073F9
:100F2000C0F8F8314FF40073C0F80C334FF440733D
:100F3000C922C0F820342249C0F8E450093000F03A
:100F400033FA2046E022294600F040FA01242046E8
:100F500005B030BD02F0F8FF044608B90024F6E7FA
:100F6000184A194DD36943F00073D361AA6D174B2A
:100F70009A42F3D12B6E013B7E2BEFD8144A01AB82
:100F800007CA83E807001846032100F09DFC6B6D3B
:100F900083424FF00003E1D12A6D8A4203BFAB6563
:100FA0002A6E054B1C4601BF1A70EA6D094B1A6088
:100FB000CDE700BF9AAD44C598080020D4180020A2
:100FC0001600002000100240006600405041A0B012
:100FD000586600401008002037B500F0A5FC022339
:100FE000184D01226B71184B28811968174801F0C0
:100FF0004BFA00230193164B164900934FF480528D
:10100000154B164801F0D0FE154B197811B1134855
:1010100001F0F4FE01F08CFB0446FFF7E7FB4FF410
:10102000C873B0FBF3F202FB130304F516709BB216
:1010300018440C4B186002F07DFF08B10F232B8180
:1010400003B030BD8C08002010080020101E0020C6
:10105000E50A00089C080020E90B0008A4180020FD
:1010600098080020A01800202DE9F04F0FF2282941
:10107000D9E900897E4C93B0FFF7EEFC00230BAE5C
:101080007C4FDFF8F4A10A93ADF834300B93736012
:101090004FF0000B002200230125CDE90023384644
:1010A0005B460DF11D0207A98DF81C508DF81DB08F
:1010B00001F09CF99DF81C30002B40F0A0802046E8
:1010C00001F0A4FE0646002845D101F031FB6B4F2C
:1010D0003B6898423FD301F02BFB8246FFF786FB2B
:1010E0004FF4C873B0FBF3F202FB130083B20AF5AE
:1010F000167018443860624F0EA897F800B0BBF124
:10110000000F14BF33462B46CBF1100A5FFA8AFA60
:101110008DF82830FFF782FBBAF1060F28BF4FF099
:10112000060A0EAB03EB0B0152460DF1290000F04D
:101130003BF90AAB039318230AF101020293514BC6
:10114000D2B2CDE900530492204647A3D3E900234D
:1011500001F0A2FE3E7001F0EBFA4B4A4B4D1368D2
:10116000C31AB3F57A7F2ED3106001F0E3FA02467A
:101170000B46204601F028FF204601F047FE10B341
:101180002B7A434E002B14BF03230223737101F00B
:10119000CFFA4FF47A73B0FBF3F00EAF0122306058
:1011A0003946304600F010FA18230293394B80B2CA
:1011B000019340F25513CDE90370009342464B462C
:1011C000204601F069FE2B7AB3B101F0B1FA002696
:1011D00007464FF48A7A95F8D900304400F00300AE
:1011E0000AFB005393F8E8206AB30136042EF2D1CB
:1011F0002B7A002B7FF440AF13B0BDE8F08FDAF804
:101200000C30594683F00803CAF80C3010220EA89F
:1012100000F0DCF80DF11E0308AA0AA9384600F018
:1012200055FE96E803000FAB83E803009DF83430C9
:1012300020468DF844300A9B0EA90E93DDE9082361
:1012400002F098F824E7D3F8E02042B12B68BA1AEC
:10125000FA2B38BFFA230533B2EB430FC5D3FFF7A0
:10126000ABFB0028C1D1C3E7401DA12026812A0B7A
:10127000A4180020101E0020000C0140A01800201F
:101280009D1800209C180020041E0020D418002067
:101290008C080020081E0020F1C6A7C1D068080FE6
:1012A00008B5054800F0ACFEBDE808400020034A40
:1012B000034903F09DB800BF101E0020302300201A
:1012C000B10B000870B502F08FFC00250E4C0F4EDC
:1012D00020803068238883420CD80025208801387C
:1012E00002F07EFC23880544013BB5F5805F238036
:1012F000F4D370BD02F074FC336805440133B5F5D6
:10130000084F3360E5D3E8E724230020F8220020CB
:1013100002F0F8BC00F10060920000F5084002F015
:101320009DBC0000054B1A68054B1B889B1A834225
:1013300002D9104402F054BC00207047F82200206B
:1013400024230020024B1B68184402F04FBC00BF4E
:10135000F8220020024B1B68184402F059BC00BF61
:10136000F8220020064991F8243033B100230822E6
:10137000086A81F82430FFF7CDBF0120704700BF15
:10138000FC220020022802BF0822014B1A6170478C
:10139000000C0140022802BF4FF40022014B1A61E9
:1013A000704700BF000C0140002310B5934203D0EA
:1013B000CC5CC4540133F9E710BD0000034602467B
:1013C000D01A12F9011B0029FAD1704703460244D2
:1013D000934202D003F8011BFAE770472DE9F84366
:1013E0001F4D144695F824200746884652BBDFF867
:1013F00070909CB395F824302BB92022FF214846E9
:101400002F62FFF7E3FF95F824004146C0F1080280
:10141000A24228BF224605EB8000D6B29200FFF719
:10142000C3FF95F82430A41B1E44F6B2082E1744BF
:101430009044E4B285F82460DBD1FFF793FF0028E5
:10144000D7D108E02B6A03EB82038342CFD0FFF7AA
:1014500089FF0028CBD10020BDE8F8830120FBE7FD
:10146000FC2200202DE9F3470D460446002190465A
:10147000284640F27912FFF7A9FF234620220021D7
:10148000284601F019FF022220212846231D01F0E1
:1014900013FF032222212846631D01F00DFF0322C2
:1014A00025212846A31D01F007FF102228212846E8
:1014B00004F1080301F000FF08223821284604F156
:1014C000100301F0F9FE08224021284604F111031F
:1014D00001F0F2FE08224821284604F1120301F02F
:1014E000EBFE20225021284604F1140301F0E4FE13
:1014F00040227021284604F1180301F0DDFE082285
:10150000B021284604F1200301F0D6FE0822B821BC
:10151000284604F1210301F0CFFEC02604F1220782
:101520003B46314608222846083601F0C5FEB6F58E
:10153000A07F07F10107F3D194F8323031468DF8DE
:101540000730082228460DF1070301F0B5FE0026FA
:1015500004F1330A9DF807304FEAC6099E4209F5A7
:10156000A47720D394F83231502B28BF50238DF824
:101570000730B8F1000F08D13946072228460DF18F
:10158000070301F099FE09F24F17002604F2331405
:101590009DF8073007EBC6019E420DD30731C808FE
:1015A00002B0BDE8F0870AEB060308223946284658
:1015B00001F082FE0136CDE7A3190822284601F08A
:1015C0007BFE0136E4E7000038B50C4600210546F5
:1015D00021600346C4F803102046202201F06CFE6F
:1015E00020462B1D0222202101F066FE20466B1DA5
:1015F0000322222101F060FE2046AB1D032225219B
:1016000001F05AFE20461022282105F1080301F0BE
:1016100053FE072038BD0000F7B5047F05460E468F
:101620002CB1838A122B02D9012003B0F0BD002314
:10163000072219462846009601F000FD731C00930E
:10164000012200230721284601F0F8FCD4B9B31C7D
:101650000093052223460821284601F0EFFC0D24C3
:10166000B378102BE0D83746B278BB1B934210D327
:101670002B7F0734A88AE408B3B9844294BF0020C2
:101680000120D2E7AB8A0824DB00083BDB08B370FB
:10169000E6E7FB1C2146009308220023284601F0C0
:1016A000CDFC08340137DFE7201A18BF0120BCE762
:1016B000F7B5047F05460E462CB1838ACA2B02D9A2
:1016C000012003B0F0BD00230822194628460096E9
:1016D00001F0B4FC731CD4B90822009311462346D0
:1016E000284601F0ABFC10247378C82BE8D80123FE
:1016F00072785F1C013B934210D32B7F0734A88A7A
:10170000E408B3B9844294BF00200120D9E7AB8A32
:101710000824DB00083BDB087370E5E7F31921467A
:10172000009308220023284601F088FC08343B4639
:10173000DEE7201A18BF0120C3E70000F7B50D4609
:1017400004460021164628468122FFF73FFE234625
:1017500008220021284601F0AFFD94F901206378AA
:10176000002AB8BF7F238DF807309EB907220821D1
:1017700028460DF1070301F09FFD0F2700260234D4
:101780009DF8073007EBC6019E4205D30731C80814
:1017900003B0F0BD0827F1E7A3190822284601F09D
:1017A0008BFD0136ECE70000F7B50E46054600213B
:1017B00014463046CE22FFF709FE2B462822002190
:1017C000304601F079FD2B7AC82B28BFC8238DF84D
:1017D00007308CB90822282130460DF1070301F0AB
:1017E0006BFD30242F469DF807207B1B934205D3C9
:1017F000E01DC00803B0F0BD2824F3E7214607F13F
:1018000009030822304601F057FD08340137EAE7A2
:10181000F7B5047F05460E4634B1838AB3F5827F5F
:1018200002D9012003B0F0BD012310220021284677
:10183000009601F003FCDCB9B31C00930922234697
:101840001021284601F0FAFB19247388B3F5807F34
:10185000E7D837467288BB1B934210D32B7F0734DF
:10186000A88AE408B3B9844294BF00200120D9E7D4
:10187000AB8A1024DB00103BDB087380E5E73B1DDF
:101880002146009308220023284601F0D7FB0834A4
:101890000137DFE7201A18BF0120C3E730B5094D33
:1018A0000A4491420DD011F8013B5840082340F3FF
:1018B0000004013B2C4013F0FF0384EA5000F6D1F2
:1018C000EFE730BD2083B8ED4FF0FF33F7B500EB05
:1018D00081061946DFF848C0DFF848E0B0421BD067
:1018E00050F8042B01AF0192042217F8014B81EA52
:1018F000046108240D46DB184941013C002DBCBFA2
:1019000083EA0C0381EA0E0114F0FF04F2D1013ADC
:1019100012F0FF02E9D1E1E7D843C94303B0F0BDBB
:101920009336EAA9EBE1F042F7B56B46374A106807
:1019300051686A4603C308233549364802F08CFDD6
:101940000446002833D10A256B46334A1068516893
:101950006A4603C3082331492E4802F07DFD044640
:10196000002849D00369B3F55E3F45D840F2ED3217
:10197000B0F8661091423FD1294A024402F15C015D
:101980008B4239D35C3B234900209E1AFFF786FF28
:1019900007463246002004F16401FFF77FFFA36889
:1019A0009F4229D1E368984208BF002524E00369DB
:1019B000B3F55E3F27D840F2ED32418B914220D102
:1019C000174A024402F110018B4218D3103B11490F
:1019D00000209D1AFFF762FF06462A46002004F108
:1019E0001801FFF75BFFA3689E4202D1E3689842AB
:1019F00001D00D25A8E70025284603B0F0BD10252D
:101A0000A2E70C25A0E70B259EE700BFC044000815
:101A1000DC77030000880008C944000890770300C1
:101A20000878FFF710B5037C044613B9006802F08C
:101A3000FBFC204610BD00000023BFF35B8FC3609A
:101A4000BFF35B8FBFF35B8F8360BFF35B8F704728
:101A5000BFF35B8F0068BFF35B8F704770B50546BF
:101A60000C30FFF7F5FF05F1080604463046FFF796
:101A7000EFFFA04206D930466D68FFF7E9FF2C441E
:101A8000201A70BD3046FFF7E3FFF9E770B5054651
:101A90004068A0B105F10800FFF7DAFF05F10C0678
:101AA00004463046FFF7D4FF844288BF0025304605
:101AB00098BF6D68FFF7CCFF013C2C44201A70BD25
:101AC00038B50C460546FFF7C9FFA04210D305F113
:101AD0000800FFF7BDFF04446868BFF35B8FB4FBE9
:101AE000F0F100FB1144AC60BFF35B8F012038BD07
:101AF0000020FCE72DE9F041144607460D46FFF7AC
:101B0000C5FF844228BF0446D4B1B84658F80C6BD0
:101B10004046FFF79DFF06442E6040467E68FFF773
:101B200097FF331A9C4203D801206C60BDE8F08116
:101B30006B603B68A61B0644AB600220EE60F5E7D5
:101B40002046F3E738B50C460546FFF79FFFA04255
:101B500010D305F10C00FFF77BFF04446868BFF366
:101B60005B8FB4FBF0F100FB1144EC60BFF35B8FC3
:101B7000012038BD0020FCE72DE9FF410F466946F2
:101B800006466C46FFF7B6FF002504EBC008444547
:101B900008D0626820687919FFF706FC636808348A
:101BA0001D44F4E729463046FFF7CCFF284604B031
:101BB000BDE8F081F8B505460C300F46FFF748FF49
:101BC00005F1080604463046FFF742FFA0423046C2
:101BD00088BF6C68FFF73CFF201A386020B13046A0
:101BE0002C68FFF735FF2044F8BD0000F7B5174615
:101BF00006460D46FFF732FFB842044628BF3C4672
:101C00000190DCB1304601A9FFF7D4FF019B33B945
:101C10003268C5E90233C5E9002401200CE09C428A
:101C200038BF01942860019884426860F5D9241A6D
:101C300002203368EC60AB6003B0F0BD2046FBE7E8
:101C40002DE9FF410E466946FFF7D0FF6C4600259F
:101C500004EBC007BC4209D0D4F804807019424696
:101C600054F8081BFFF7A0FB4544F3E7284604B0EF
:101C7000BDE8F08138B50546FFF7E2FF04460146AE
:101C80002846FFF71DFF204638BD0000012188428D
:101C900038BF084602F0B2BB08B102F0C5BB7047BE
:101CA00010B4026854681A46234610BC1847000056
:101CB00000207047002070477047000000207047E8
:101CC0000E20704790F8D804C0F340007047000021
:101CD00090F9E00470470000C0F8DC140120704760
:101CE000F7B50C68BDF8207014F000546CD10D7B72
:101CF000082D69D8302585F31188456AAE687601CC
:101D00000CD4AC68240108D4AC6814F0805459D1C8
:101D100084F31188204603B0F0BD01240E6804F15D
:101D2000180C002EBABFF60046F0040676054FEAFE
:101D30000C1C45F80C600E684FEA041C16F0804F2E
:101D40001CBF05EB0C0EDEF88061AC441CBF46F0F6
:101D50000206CEF880610E7B05EB0415CCF8846199
:101D60008E68C5F88C614E68C5F888610E46DCF84F
:101D7000805145F00105CCF88051650100EB441419
:101D8000C4F87824C4F87C3401F10C0C04F5906498
:101D900056F804EB664544F804EBF9D13688268002
:101DA000441994F8946407F0030526F00B063543B4
:101DB00084F89454002484F31188009700F002FD05
:101DC0000120A8E70224A9E74FF0FF30A3E70000B5
:101DD00038B50446D0F86C040D46FFF757FE1F28AF
:101DE0000AD920222946D4F86C04FFF7C5FEA0F1D9
:101DF00020035842584138BD0020FCE708B5302385
:101E000083F31188D0F86C04FFF716FE002383F3E8
:101E1000118808BD002202608281426082607047A2
:101E20000022002310B5C0E90023002304460381EB
:101E30000C30FFF7EFFF204610BD0000F0B590F822
:101E4000D834044613F0040FC3F3800008BF1046D3
:101E500060F3820384F8D83404EB411595F8943488
:101E600089B0D8074FEA41162CD56AB319072BD48D
:101E70006846FFF7D5FF05F5906303AA05F5916560
:101E8000174618685968083303C7AB423A46F7D17A
:101E90001868694638609B882046BB80DDE90E23C0
:101EA000CDE900230123ADF8083023681B6C984767
:101EB000344494F894341A075CBF43F0080384F860
:101EC000943401E0002AF3D109B0F0BD2DE9F047C8
:101ED0009A46054688469146302388B083F3118898
:101EE0006846FFF79DFFD5F86C04FFF7B7FD1F2884
:101EF0002BD920226946D5F86C04FFF7BBFE2028B9
:101F000023D1444603AE05AB374603CF9F42206042
:101F100061603E4604F10804F6D138682060BB8851
:101F2000A380DDE90023C9E90023BDF80830AAF841
:101F30000030002383F3118853464A464146284621
:101F400008B0BDE8F04700F001BC002080F3118824
:101F500008B0BDE8F08700002DE9F04704461822DC
:101F60000E4604300021FFF731FA2046214B04F1E0
:101F7000580740F8283BFFF74DFF04F13800FFF702
:101F80004FFF3D4604F58B6828462035FFF748FF94
:101F90004545F9D14FF48063C4F85874C4F85C34F3
:101FA000002701234FF000084FF00009C4F86C54DB
:101FB000C4F86074C4F8647484F8683484F87034C5
:101FC00004F5936504F59F6A45E90889A5F11800B1
:101FD000FFF720FF203545F8287C5545F4D184F8DB
:101FE000E06416B1044800F09DFB044B2046636298
:101FF000BDE8F087FC440008D444000800640040B9
:1020000010B50446034B19784A1C1A70FFF7A4FF59
:10201000204610BD2C2300202DE9F04300294FD08D
:10202000284F294BB7FBF1F499428CBF0A231123A7
:10203000B4FBF3FC581E03FB1C43C5B22BB10228B2
:102040000346F5D80020BDE8F0830CF1FF36B6F565
:10205000806FF7D24FF47A74C5EBC50E0EF103030F
:102060004FEAE30909FB0444C3F3C703E81AC0B20B
:1020700009F101088044B4FBF8F4B4F5617FC2BFF4
:102080000EF1FF33C3F3C703E81A03F10104C8BF1D
:10209000C0B2E4B204440CFB04F4B7FBF4F4A14274
:1020A000D0D1013BDBB20F2BCCD80138C0B207280E
:1020B000C8D800211071168001209170D370C2E73A
:1020C0000846C0E7005125023F420F0070B50546A3
:1020D0000E464FF47A746B6A01205B6803F00103CB
:1020E000B34204D001F0C6FC013CF4D1204670BDDF
:1020F00030B5426A936913F0700F17D000230C4C6F
:10210000936100EB431202F5926192F89424550713
:1021100009D5920707D5426A54F8235095600A7989
:1021200042F004020A710133032BEAD130BD00BF33
:10213000E844000873B51D46436A16469A6804468B
:10214000D20709D501219A689960C2F340020021A3
:10215000CDE90065FFF772FE636A9A68D1050BD579
:102160004FF480719A6820469960C2F340220121A1
:10217000CDE90065FFF762FE636A9A68D2030BD56A
:102180004FF480319A6820469960C2F340420221A0
:10219000CDE90065FFF752FED4F8DC0410B1036806
:1021A0001B699847204602B0BDE87040FFF7A0BF0A
:1021B000F8B50446466A002975D106F10C0738685F
:1021C000800773D0386806EB01104FEA011CD0F885
:1021D000B011D0F8B051490746BFED0845F00045B1
:1021E0006D0DA562D0F8B011890744BF45F0804558
:1021F000A562D0F8B40106EB0C0100F00F0084F8E2
:102200003400D1F8B80104F1340584F82C00D1F879
:10221000B801000A84F82D00D1F8B801000C84F848
:102220002E00D1F8B801000E84F82F00D1F8BC01BF
:1022300084F83000D1F8BC01000A84F83100D1F8EC
:10224000BC01000C84F83200D1F8BC1104F1440048
:10225000090E84F833103821396004F1280151F84F
:10226000046BA94240F8046BF9D109880180C4E9E4
:102270000E2300232146A4F8403051F8383B204675
:102280001B6C984794F8D834D4F8DC0443F004036A
:1022900084F8D83410B103681B6998472046BDE81C
:1022A000F840FFF725BF06F1100788E7F8BD0000EA
:1022B00010B5044600F03EFA02460B4652EA03010E
:1022C00002D0013A63F100030449086820B12146B5
:1022D000BDE81040FFF76CBF10BD00BF28230020F1
:1022E000F0B5302181F311880021124F00F58F6481
:1022F00000EB411505F5926695F8945415F0040F1E
:102300000FD1ED060DD5D4E900C594459D4108D205
:10231000456A57F821C0C5F808C0357945F004056D
:1023200035710131032904F12004E1D1002383F345
:102330001188F0BDE844000808B5302383F3118804
:10234000FFF7D6FE002383F3118808BDF8B5436A72
:10235000044698680E4600F0E050B0F1E05F1FD0F0
:10236000E8B1302383F31188002504F5906704EB6E
:10237000451393F894341A0706D50135032D07F158
:102380002007F4D1012007E05B07F6D43946304638
:1023900000F06AFA0028F0D1002383F31188F8BD19
:1023A0000120FCE708B5302383F31188D0F86C04D2
:1023B000FFF754FB002383F3118843090CBF01206E
:1023C000002008BDF8B51D46002313700F460646D1
:1023D0001446FFF7E7FF80F00100387025B1294669
:1023E0003046FFF7B3FF2070F8BD0000F8B50C468B
:1023F00015461E46074600F09DF90B462178024619
:1024000009B9287850B13846FFF76AFFFFF794FF03
:1024100033462A462146FFF7D5FF0120F8BD0000CC
:1024200038B50446302080F31188164BDA6942F043
:102430000072DA611A6942F000721A611A6922F0B8
:1024400000721A61002383F3118894F8D83413F0D2
:10245000010516D1A9B180F311880321132001F0E1
:10246000FDF90321142001F0F9F90321152001F0F1
:10247000F5F994F8D83443F0010384F8D83485F39F
:10248000118838BD001002402DE9F04790F8E03483
:102490000446012B0F46154688B07FD8804E56F86B
:1024A00023200AB946F82300D6F80090E76184F8A3
:1024B0002050B9F1000F63D094F8E034012B6FD0B5
:1024C00001212046FFF7ACFF302383F311884FF042
:1024D0000008626A136823F002031360626A1368DB
:1024E00043F001031360636AC3F8148088F3118812
:1024F00001212046FFF7EAFD002800F09280D4F881
:102500006C04FFF799FAA14604F1600A2022002129
:102510006846FEF75BFF02A8FFF77CFC6A46CDF831
:10252000188009F58F630DF1180C164603CE664529
:1025300018605960324603F10803F6D1306809F19A
:10254000200918603279CA451A71DFD1002694F843
:10255000D8346A466FF3820384F8D834394620466B
:10256000ADF80060ADF802608DF80460FFF754FD2F
:10257000636A48BB4FF400421A6008B0BDE8F087B8
:102580004FF49D60FFF782FB804610B14946FFF78C
:10259000E3FCC6F80080B8F1000F8DD10020ECE715
:1025A000306803681B6B98470146002888D1306863
:1025B000FFF736FF30682A46036839465B6898475C
:1025C00000287FF47DAFE9E76122022D0CBF4FF0B8
:1025D000004100211A609DF802309DF803201B067F
:1025E000120402F4702203F040731343BDF800207C
:1025F0002046C2F3090213439DF80420120502F499
:10260000E0021343626A0B43D3611322636A3146CB
:102610005A61626A136823F001031360FFF756FDE5
:1026200008B9636AA6E794F8E03493BB616AD1F80D
:10263000002242F00102C1F80022616AD1F80022B2
:1026400022F47C5222F00E02C1F80022616AD1F815
:10265000002242F46062C1F8002241F6FF71626A12
:10266000C2F81432626AC2F80432626AC2F80C120A
:10267000626AC2F84032626AC2F844320122636A76
:10268000C3F81C22626AD2F8003223F00103C2F8B8
:10269000003294F8D83443F0020384F8D8346CE75D
:1026A0002823002008B500F045F802460B4652EA00
:1026B000030102D0013A63F100030449086808B13C
:1026C000FFF738FDBDE8084001F0A6B82823002038
:1026D00008B50020FFF7ECFDBDE8084001F09CB80C
:1026E00008B50120FFF7E4FDBDE8084001F094B80B
:1026F000EFF30983EFF30583014B9B6BFEE700BF0C
:1027000000ED00E008B5FFF7F3FF0000EFF30983E9
:10271000EFF30583014B5B6BFEE700BF00ED00E0CC
:10272000FEE700000FB408B5029801F053F9FEE788
:1027300001F05EBB01F00ABB0139C9B202299EBF9C
:10274000002300EBC100C0E901337047F8B51B88D6
:1027500005465B070E4615D4044600F11807BC4237
:1027600010D0636853B12B682846DB6B984732461C
:10277000C1B2A368606898470834F0E7A368002BEB
:10278000F1D1F9E70120F8BD73B56C4684E8060085
:10279000014600224E68D5B26EB98E685EB900EB74
:1027A000C200021D94E8030082E803000120013505
:1027B0001D7002B070BD0132032A01F10801E9D198
:1027C0000020F6E72DE9F04F0446884605464FF015
:1027D000000B0026002789B0BDF8489000F1180AC8
:1027E00009F00409AA453AD06B680BB9AB685BB134
:1027F000B9F1000F0AD123682046DB6B98474246A7
:10280000C1B2AB68686898470835EBE7BBF1000FC9
:10281000FAD14346CDE90067ADF808B003AA08F144
:10282000080E9446186859680833ACE803007345ED
:102830006246F6D118684FF0010BCCF800009B8877
:10284000ACF80430FFF776FF0423ADF808302368B6
:10285000CDE900011B6C694620469847D4E701206A
:1028600009B0BDE8F08F000030B503680968DD0FDE
:10287000B5EBD17F23F0604421F060424FEAD17084
:102880000BD0002BB8BFA40C0029B8BF920C944207
:1028900002D034BF0120002030BD944205D1C1F3E5
:1028A0008070C3F380738342F6D194422CBF002022
:1028B0000120F1E72DE9F041456A15B94162BDE813
:1028C000F0814B68AC4623F06047C3F38A4616EAB2
:1028D000230638BF3E464FEAD37EC3F380782B46AB
:1028E0005A68BEEBD27F22F060440AD0002A18DA80
:1028F000A40CB44217D19D420FD10D60DEE7134600
:10290000EEE7A74207D102F08044C2F3807242454D
:102910000BD054B1EFE708D2EDE7CCF800100B6014
:10292000CDE7B44201D0B442E5D81A689C46002AEB
:10293000E5D11960C3E700002DE9F0474FF47F4966
:10294000089D01F007044FEAD508224405F0070569
:1029500000EBD100944201D1BDE8F08704F00707F5
:1029600005F0070A57453E4638BF5646111BC6F1CB
:1029700008068E4228BF0E46E108415C08EBD50EE2
:1029800013F80EC0B94029FA06F721FA0AF1FFB28E
:102990008CEA010147FA0AF739408CEA010C03F886
:1029A0000EC034443544D5E7082341F2210280EAC1
:1029B000012001B24000002980B203F1FF33B8BF0B
:1029C000504013F0FF03F4D17047000038B50C46B7
:1029D0008D18A54200D138BD14F8011BFFF7E4FFA4
:1029E000F7E700000346406848B1026899895A60D9
:1029F0005A89013292B291425A8138BF9A81704706
:102A000070B504460D4688B0202200216846FEF7C6
:102A1000DDFC20460495FFF7E5FF024658B16B4602
:102A2000054608AE1C4603CCB442286069602346C4
:102A300005F10805F6D1104608B070BD082817D971
:102A400009280CD00A280CD00B280CD00C280CD04C
:102A50000D280CD00E2814BF4020302070470C20C9
:102A600070471020704714207047182070472020AE
:102A700070470000082817D90C280CD910280CD949
:102A800014280CD918280CD920280CD930288CBF30
:102A90000F200E207047092070470A2070470B2036
:102AA00070470C2070470D20704700002DE9F84357
:102AB000078C0446072F1ED9D0E9029800254FF64F
:102AC000FF73C5F12006A5F1200029FA05F108FAE7
:102AD00006F628FA00F031430143C9B21846FFF761
:102AE00063FF0835402D0346EBD13A46E169BDE866
:102AF000F843FFF76BBF4FF6FF70BDE8F8830000A7
:102B000010B54B6823B9CA8A63F30902CA8210BDA3
:102B100004691A681C600361C38A013BC3824A606E
:102B2000EFE700002DE9F84F1D46CB8A0F46C3F3AF
:102B300009010529814692460B4630D00020AAB2F1
:102B400007F11A049EB2042E1FFA80F80FD89045A0
:102B500003F1010306D3FB8A0A4462F3090301204F
:102B6000FB821AE01AF800600130E654EAE790456B
:102B7000F1D21C23A1F1050BBBFBF3F203FB12BB4B
:102B80007C681FFA8BF6002C45D14846FFF72AFFD8
:102B9000044638B978606FF00200BDE8F88F4FF056
:102BA0000008E6E70026066078604FF0000BADB243
:102BB000454510D90AEB0803221D13F8011B08F143
:102BC00001089155B1B21B291FFA88F82BD0454551
:102BD00006F10106F1D8FB8AC3F30902154465F337
:102BE0000903BCE71C46013292B22368002BF9D1DD
:102BF0006B1F0B441C21B3FBF1F301339BB29A42D0
:102C0000D3D2BBF1000FD0D14846FFF7EBFE20B97D
:102C1000C4F800B0BFE70122E7E7C0F800B05E46A5
:102C200020600446C1E74545D5D94846FFF7DAFE9E
:102C300008B92060AFE7C0F800B000262060044665
:102C4000B6E700002DE9F74F1C465B69074688464A
:102C50000092002B00F0A480238C2BB1E269002AA3
:102C600000F09E80072B33D807F10C00FFF7BAFE67
:102C7000054628B96FF00205284603B0BDE8F08F7D
:102C800014220021FEF7A2FB228CE16905F1080065
:102C9000FEF78AFB208C48F00041013080B2FFF73C
:102CA000E9FEFFF7CBFE013880B2208401302874A2
:102CB0006369228C1B782A4403F01F0363F03F03EF
:102CC0001372384669602946FFF7F4FD0125D3E702
:102CD000072202339BB20633B3FBF2F3C18A828A26
:102CE0009BB2521A92B29342C4D84FF000094FF0EF
:102CF000800A4E464D4600F10C0301930198FFF700
:102D000071FE83460028B5D014220021FEF75EFB39
:102D1000002E3BD10222009BABF808300BF1080ECD
:102D20001FFA82FC0CF10100BCF1060F218C80B26D
:102D300001D88E422CD3FFF79DFEFFF77FFE8E4217
:102D400008BF4FF0400A62690138127880B202F081
:102D50001F0242EA49120BEB00014AEA020A013063
:102D600048F0004281F808A08BF810005946384618
:102D7000CBF80420FFF79EFD238C0135B3424FF0C2
:102D8000000A2DB289F00109B8D175E70022C5E724
:102D9000E169895D01360EF80210B6B20132BFE773
:102DA0006FF0010568E70000F8B5044615460E46C9
:102DB000302200211F46FEF709FB069BB5F5001FD8
:102DC0006360079B28BF4FF6FF72A3624FF00003BA
:102DD00038BF6A09A760E66197B204F110009A4211
:102DE00006D800230360A782E3822383E360F8BD53
:102DF0000660013330462036F1E7000003781BB946
:102E00004BB2002BC8BF01707047000000787047BC
:102E1000F8B50C46C969074611B9238C002B37D188
:102E2000257E1F2D34D8387828BB228C072A2CD831
:102E3000268A36F003032BD14FF6FF70FFF7C6FD4D
:102E40004FF6FF7220F001003602400446EA0565A5
:102E5000400C45EA4025234629463846FFF7F2FE56
:102E6000002807DD626913780133DBB21F2B88BFAE
:102E700000231370F8BD218A2D0645EA012505437C
:102E80002046FFF713FE0246E5E76FF00300F1E787
:102E90006FF00100EEE7000070B504461D461646CF
:102EA0008AB0282200216846FEF790FABDF8383033
:102EB0006946ADF810300F9B204605939DF84030D1
:102EC000CDE902658DF81830119B0793BDF84830A5
:102ED000ADF82030FFF79CFF0AB070BD2DE9F0413E
:102EE000D36905460C4616460BB9138C5BBB377E7F
:102EF0001F2F28D895F80080B8F1000F26D0304653
:102F0000FFF7D4FD3378210241EAC33141EA0801D9
:102F1000338A41EA076141EA0341024633462846C3
:102F200041F08001FFF78EFE00280ADD3378012B87
:102F300007D1726913780133DBB21F2B88BF0023DE
:102F40001370BDE8F0816FF00100FAE76FF0030045
:102F5000F7E70000F0B504460D461E4617468BB055
:102F6000282200216846FEF731FA9DF84C302946A8
:102F70005A1E534253418DF800309DF840306A4646
:102F8000ADF81030119B204605939DF84830CDE9EF
:102F900002768DF81830149B0793BDF85430ADF8C5
:102FA0002030FFF79BFF0BB0F0BD0000406A00B17E
:102FB00004307047436A1A68426202691A6003610A
:102FC000C38A013BC38270472DE9F041D0F82080CD
:102FD00014461D4641460027174E09B9BDE8F08149
:102FE000D1E90223A21A65EB0303964277EB0303B0
:102FF0001ED2036A8B420DD1FFF782FD036A1B6864
:10300000036203690B60C38A0161016A013B884660
:10301000C382E2E7FFF774FD0B68C8F8003003696C
:103020000B60C38A0161013BC382D8F80010D4E76A
:1030300088460968D1E700BF80841E002DE9F04F63
:103040008BB00D4614469B468046DDF85090002814
:1030500000F01A81B9F1000F00F01681531E3F2BCA
:1030600000F21281012A03D1BBF1000F40F00C8164
:103070000023CDE90833B8F81430B5EBC30F4FEA9D
:10308000C30703D300200BB0BDE8F08F2B199F427C
:10309000D8F80C3036BF7F1B2746FFB21BB9D8F8D3
:1030A0001030002B7BD0272D4ED8C5F12806B74213
:1030B0004FF0000334BF3E46F6B200932946324635
:1030C000D8F8080008ABFFF737FCA7EB060A354431
:1030D0005FFA8AFA2821B8F8143003F10053053B4F
:1030E000DB000493D8F80C300393039B13B1BAF1BF
:1030F000000F2CD1D8F8100040B1BAF1000F05D064
:103100005246009608AB691AFFF716FC38B2002F3A
:10311000B8D066070AD00AAB03EBD40111F8083C1B
:10312000624202F00702134101F8083C082C3DD925
:10313000102C40F2B680202C40F2B880BBF1000F7A
:1031400000F09D80082335E0BA460026C2E7049BC4
:10315000E02B28BFE02306930B44AB42059315D91F
:103160005A1B924538BF5246039828BFD2B20096E8
:10317000691A08AB04300792FFF7DEFB079A164482
:10318000AAEB020A1544F6B25FFA8AFA049B069A81
:1031900005999B1A0493039B1B680393A5E700936F
:1031A0003A462946D8F8080008ABADE7BBF1000F56
:1031B00013D00123B4EBC30F6CD0082C12D89DF8A8
:1031C0002030621E23FA02F2D50706D54FF0FF32F7
:1031D00002FA04F423438DF820309DF8203089F85A
:1031E000003050E7102C12D8BDF82030621E23FAB0
:1031F00002F2D10706D54FF0FF3202FA04F423435E
:10320000ADF82030BDF82030A9F800303BE7202C85
:103210000FD80899631E21FA03F3DA0705D54FF09A
:10322000FF3202FA04F40C430894089BC9F80030FA
:1032300029E7402C2BD0DDE90865611EC4F121028D
:10324000A4F1210326FA01F105FA02F225FA03F3AB
:1032500011431943CB0712D50122A4F12003C4F175
:10326000200102FA03F322FA01F1A240524243EA9A
:10327000010363EB430332432B43CDE90823DDE92C
:103280000823C9E90023FEE66FF00100FBE66FF0BA
:103290000800F8E6082CA0D9102CB3D9202CEED8C1
:1032A000C3E7BBF1000FADD0022383E7BBF1000FF2
:1032B000BBD004237EE70000012A30B5144638BF96
:1032C00001220025402A28BF402285B0012CCDE9EB
:1032D000025517D81B788DF8083053070AD004AB75
:1032E00003EBD20515F8083C544204F00704A34050
:1032F00005F8083C0346009102A80021FFF71CFBDB
:1033000005B030BD082CE5D9102C03D81B88ADF8CA
:103310000830E2E7202C02D81B680293DDE7D3E9EE
:103320000045CDE90245D8E710B5CB681BB98B60E5
:103330000B618B8210BD04691A681C600361C38A2B
:10334000013BC382CA60F0E703064CBFC0F3C03044
:103350000220704708B50246FFF7F6FF022806D1A3
:103360005306C2F30F2001D100F0030008BDC2F3E1
:103370000740FBE72DE9F04F93B0CDE903230A683E
:1033800004461046FFF7E0FF02280CBF0026C2F3F8
:103390000626002A0D46824680F2FD8112F0C049C1
:1033A00040F0F981097B002900F0F581022803D063
:1033B0002378B34240F0F281C2F3046310460693CF
:1033C00002F07F030593FFF7C5FF059B00224FEA3C
:1033D0008348002348EA0A48294448EA4668CE78E8
:1033E000CDE90823F309834648EA0008029367D031
:1033F000059B0246009320465346676808A9B847D4
:10340000002800F0CE81276A4FB9414604F10C0034
:10341000FFF7F6FA074690B96FF0020054E03B69F7
:1034200098450DD03F68002FF9D1414604F10C00BA
:10343000FFF7E6FA07460028EED0236A3B602762D2
:1034400097F817C006F01F08CCF3840CACEB08000B
:103450001FFA80FE0028B8BF0EF12000A8EB0C0375
:103460001FFA83FEB8BF00B2002B0793BEBF0EF158
:1034700020031BB20793D7E9022152EA010338D097
:103480004FF0000C039BDFF800E29A1A049B63EBF9
:10349000010196457CEB01032BD36B7B97F81AE077
:1034A000734519D1029B002B78D0012821DC786864
:1034B000F8B9DFF8D8C1944570EB010316D337E0B3
:1034C000276A27B96FF00C0013B0BDE8F08F3B6995
:1034D0009845B5D03F68F4E76C4890427CEB010317
:1034E00001D30020F0E7029B002BFAD0079B0F2BA3
:1034F00017DCFA7DB30002F0030203F07C031343F0
:10350000FB7539462046FFF7FBFA6B7BBB76029BC7
:103510003BB9FB7DC3F38402013262F38603FB7582
:10352000D0E76A7BBB7E9A42DBD1029B002B35D071
:10353000B309022B32D0039B1422BB60049B0021F1
:10354000FB600DA8FDF742FF039B20460A93049BF6
:10355000ADF83EB00B932B1D0C932B7B8DF840A048
:10356000013BDBB2ADF83C30069B8DF841808DF815
:103570004230059B0AA98DF8433094F82C3083F033
:1035800001038DF84430A3689847FB7DC3F384039F
:10359000013303F01F039B02FB82A2E7FB7DC6F30E
:1035A0004012B2EBD31F40F0FF80C3F384034345C6
:1035B00040F0FD80029A2B7BB609002A52D016F00B
:1035C000010665D1032B40F2F580039B3946BB60B1
:1035D000049B04F10C00FB60FB8A66F30903FB8289
:1035E0002B7BAE1D033B3246DBB2FFF79BFA002874
:1035F0000CDA39462046FFF783FAFB7DC3F38403D8
:10360000013303F01F039B02FB8205E7AB88DDE972
:1036100008843B834FF6FF73C9F12000A9F1200213
:1036200028FA09F104FA00F0014324FA02F21143E6
:103630001846C9B2FFF7B8F909F10809B9F1400F06
:103640000346E9D13146B8822A7B033AD2B2FFF76A
:10365000BDF9FB7DB882DA43C2F3C01262F3C7132F
:10366000FB753EE7A6B92E1D013B32463946DBB25B
:1036700004F10C00FFF756FA0028BADB2A7B31462A
:10368000013AB88AD2B2E2E780841E0040420F00BD
:10369000F98A013BC1F309010429DAB25DD800239C
:1036A000281D07F11B069A4208D910F801CB0133F7
:1036B00006F801C001310529DBB2F4D1934228BFDD
:1036C0000023039938BF04330A91049938BFDBB251
:1036D0000B9107F11B010C91796838BF5B190D91B3
:1036E0000E93FB8AADF83EB0C3F309031A44069B60
:1036F000ADF83C208DF84230059B8DF840A08DF848
:10370000433094F82C308DF8418083F001038DF81C
:10371000443000237B602A7BB88A013A291DFFF7D9
:1037200055F93B8BB882834203D12046A3680AA98E
:10373000984720460AA9FFF7F7FDFB7DBA8AC3F335
:103740008403013303F01F039B02FB823B8B9A42ED
:103750000CBF00206FF01000B6E67B68002BADD0E8
:10376000052001E033461C301E68002EFAD1091AEC
:10377000081D2E1D184401EB090CBCF11B0F5FFA4C
:1037800089F39BD89A4299D916F8013B09F10109AE
:1037900000F8013BEFE76FF0090095E66FF00A00D3
:1037A00092E66FF00B008FE66FF00D008CE66FF085
:1037B0000E0089E66FF00F0086E600BFEFF3098385
:1037C000203383F30988002383F3118870470000B6
:1037D000302080F3118862B60C4B0D4AD96821F471
:1037E000E0610904090C0A43DA60D3F8FC200949B6
:1037F00042F08072C3F8FC200A6842F001020A60BD
:103800002022DA7783F82200704700BF00ED00E045
:103810000003FA05001000E0302310B583F311888F
:103820000B4B5B6813F400630FD0EFF309844FF088
:103830008073203CE36184F3098800F095F810B1AF
:10384000044BA36110BD044BFBE783F31188F9E738
:1038500000ED00E0370600083A06000801220901E1
:1038600000F1604303F56143C9B283F8001300F02F
:103870001F039A4043099B0003F1604303F5614332
:10388000C3F880211A607047090100F16040C9B295
:1038900000F56D4001767047002382680375036967
:1038A0001B6899689142FBD25A68036042601060BD
:1038B0005860704700238268037503691B68996824
:1038C0009142FBD85A6803604260106058607047AC
:1038D00008B50846302383F311880B7D032B05D0F0
:1038E000042B0DD02BB983F3118808BD00228B69FE
:1038F0001A604FF0FF338361FFF7CEFF0023F2E73A
:10390000D1E9003213605A60F3E70000FFF7C4BF4B
:10391000054BD96808751868026853601A6001225F
:103920000275D860FCF776BE3823002030B50C4B0A
:103930000446DD684B1C87B00FD02B466846094A09
:1039400000F0BCF82046FFF7E3FF009B13B1684688
:1039500000F0BCF8A86907B030BDFFF7D9FFF9E760
:1039600038230020D1380008044B1A68DB689068BF
:103970009B68984294BF00200120704738230020A4
:10398000084B10B51C68D868226853601A60012281
:103990002275DC60FFF78EFF01462046BDE810402F
:1039A000FCF738BE3823002038B501230025064C2B
:1039B000064907482370656000F0F4FA022323707B
:1039C00085F3118838BD00BF9024002044450008CD
:1039D0003823002008B572B6044B186500F0A6F92C
:1039E00000F072FA0322024B1A70FEE7382300201F
:1039F0009024002000F07CB88B60022308618B8249
:103A0000084670478368A3F1440243F8142C026906
:103A100043F8442C426943F8402C094A43F8242CCB
:103A2000C268A3F1200043F8182C022203F80C2CE2
:103A3000002203F80B2C034A43F8102C704700BFF8
:103A4000250600083823002008B5FFF7DBFFBDE896
:103A50000840FFF75BBF0000024BDB6898610F2056
:103A6000FFF756BF38230020302383F31188FFF778
:103A7000F3BF000008B50146302383F31188082006
:103A8000FFF754FF002383F3118808BD10B50A4CDB
:103A900023699A6891420CD85A6881600360426039
:103AA00010609A685860511A99604FF0FF33A36113
:103AB00010BD1B68891AECE738230020C0E90323F6
:103AC000002310B410BC4361FFF7E0BF03688168B6
:103AD0009A680A449A60426813605A6000234FF063
:103AE000FF320360014B9A61704700BF382300200A
:103AF00070B5124D2A46EB690133EB6152F8103F65
:103B0000934206D030269A68013A9A602C69A368DD
:103B100003B170BDD4E900210A605160236083F3D2
:103B200011882046D4E90331984786F311886169EA
:103B30000029EBD02046FFF7A9FFE7E73823002054
:103B4000054A30B5D369D2E908451B1B181945F160
:103B50000001C2E9080130BD382300200020704771
:103B6000FEE70000704700004FF0FF307047000094
:103B7000BFF34F8F024AD368DB07FCD4704700BF06
:103B80000020024008B5074B1B7853B9FFF7F0FF40
:103B9000054B1A69120641BF044A5A6002F1883285
:103BA0005A6008BDA8240020002002402301674578
:103BB00008B5054B1B7833B9FFF7DAFF034A1369E1
:103BC00043F08003136108BDA824002000200240B8
:103BD0007F289ABF00F58030C002002070470000A7
:103BE0004FF4006070470000802070477F2808B5C0
:103BF0000BD8FFF7EDFF00F500630268013204D136
:103C000004308342F9D1012008BD0020FCE7000008
:103C10007F2810B504461CD8FFF7AAFFFFF7B2FFB4
:103C2000F3220D4B4FF40061DA6002221A61FFF7B4
:103C3000CFFF58611A6942F040021A61FFF798FFFE
:103C400000F03EF9FFF7B4FF2046BDE81040FFF753
:103C5000CDBF002010BD00BF002002402DE9F84379
:103C6000054612F00100144606D04FF451720020B0
:103C70001E4B1A60BDE8F8831D4BAA189A4204D95E
:103C800040F24932194B1A60F4E7FFF77BFF4FF01F
:103C90000109FFF76DFFDFF85C806D1A012C0F46FC
:103CA00005EB010603D8FFF783FF0120E2E73B881D
:103CB000C8F8109033800020FFF75AFFC8F81000B2
:103CC000338831F8022B9BB29A420CD04FF45872D1
:103CD000064B1A60084B1E60084B1C60084B1F60A7
:103CE000FFF766FFC6E7023CD8E700BFA424002028
:103CF000000004080020024098240020A024002096
:103D00009C240020084908B50B7828B11BB9FFF79F
:103D100039FF01230B7008BD002BFCD0BDE8084023
:103D20000870FFF745BF00BFA82400204FF47F4173
:103D3000014800F0C7B800BF000100200846114646
:103D400000F05CBB084600F06FBB000038B5EFF335
:103D50001185BDBBEFF30584C4F308043023C4B15F
:103D600083F31188FFF7ECFE44014B01241A43EA68
:103D7000D06363EB0103A2009B00121843EA947323
:103D800041EB0301C900D00041EA527185F311886B
:103D900038BD83F31188FFF7D3FE45014B012D1A7F
:103DA00043EAD06363EB0103AA009B00121843EAC5
:103DB000957341EB0301C900D00041EA527184F3CD
:103DC000118838BDFFF7BCFE44014B01241A43EAB9
:103DD000D06363EB0103A2009B00121843EA9473C3
:103DE00041EB0301C900D00041EA527138BD00BF68
:103DF00038B5FFF7ABFF00230F4A104CC00840EA6C
:103E00004170A0FB025EC908A0FB040CA1FB0440AA
:103E1000A1FB02121CEB050C5B411CEB040C43EBF9
:103E2000000011EB0E0142F10002411842F10000C6
:103E3000090941EA007038BDA59BC420CFF753E3C0
:103E400010B5094C013AD2B2FF2A00D110BD50087A
:103E500054F82030013054F820009BB243EA00436C
:103E600041F8043BEEE700BF046C004010B5074882
:103E7000013AD2B2FF2A00D110BD0C88530840F895
:103E800023404C88013340F82340F1E7046C0040A4
:103E900007B50122002001A9FFF7D2FF019803B066
:103EA0005DF804FB13B50446FFF7F2FFA04205D00E
:103EB0000122002001A90194FFF7D8FF02B010BD34
:103EC00070470000704700007047000045F25552EF
:103ED000064B1A6003225A6040F2FF729A604CF659
:103EE000CC421A600122024B1A7070470030004029
:103EF000B0240020034B1B781BB14AF6AA22024BC8
:103F00001A607047B024002000300040044B1A684B
:103F10002AB902F1804202F50432526A1A607047EF
:103F2000AC2400204FF08072014B5A62704700BFF2
:103F30000010024008B5FFF7E9FF024B1868C0F314
:103F4000407008BDAC24002008B5FFF7DFFF024B2E
:103F50001868C0F3007008BDAC2400207047000052
:103F6000FEE700000A4B0B480B4A90420BD30B4B69
:103F7000C11EDA1C121A22F003028B4238BF002243
:103F80000021FDF723BA53F8041B40F8041BECE7AB
:103F90001846000834250020342500203425002050
:103FA000FEE7000070B5002504461A4B86B0586045
:103FB000856201630E46FFF70BFC04F11003C4E9B0
:103FC00004334FF0FF33A361134BE561D9692B46EE
:103FD0000A462046C4E9082304F134018023C4E9D9
:103FE00000440E4AA560E5622565FFF705FD012343
:103FF0000B4AE06003750092726868460192B268ED
:10400000CDE90223074BCDE90435FFF71DFD06B0CE
:1040100070BD00BF902400203823002050450008C8
:1040200055450008A13F000800F030B808B500F081
:104030006DF9FFF7B9FCBDE80840FFF767BF000066
:10404000704700004FF0FF310E4B1A6919611A6971
:1040500000221A611869D868D960D968DA60DA680C
:10406000DA6942F08052DA61DA69DA6942F00062B4
:10407000DA61054ADB69136843F48073136000F06A
:1040800025B900BF00100240007000401E4B1A68A6
:1040900042F001021A601A689007FCD55A6822F0B3
:1040A00003025A605A6812F00C02FBD1196801F041
:1040B000F90119605A601A6842F480321A601A686D
:1040C0009103FCD54EF63162DA625A6842F4E81286
:1040D0005A601A6842F080721A601A689201FCD520
:1040E0000A4A0B495A6012220A600A6802F0070263
:1040F000022AFAD15A6842F002025A605A6802F063
:104100000C02082AFAD170470010024000641D001A
:1041100000200240084A08B5516913680B4003F0BB
:104120000103536123B1054A13680BB150689847E6
:10413000BDE80840FFF770BB00040140B424002034
:10414000084A08B5516913680B4003F00203536134
:1041500023B1054A93680BB1D0689847BDE8084081
:10416000FFF75ABB00040140B4240020084A08B5F8
:10417000516913680B4003F00403536123B1054AEE
:1041800013690BB150699847BDE80840FFF744BB7D
:1041900000040140B4240020084A08B5516913689E
:1041A0000B4003F00803536123B1054A93690BB137
:1041B000D0699847BDE80840FFF72EBB00040140D6
:1041C000B4240020084A08B5516913680B4003F075
:1041D0001003536123B1054A136A0BB1506A984723
:1041E000BDE80840FFF718BB00040140B4240020DC
:1041F000174B10B55A691C68144004F478725A6160
:10420000A30604D5134A936A0BB1D06A9847600697
:1042100004D5104A136B0BB1506B9847210604D597
:104220000C4A936B0BB1D06B9847E20504D5094A51
:10423000136C0BB1506C9847A30504D5054A936CD9
:104240000BB1D06C9847BDE81040FFF7E5BA00BF4E
:1042500000040140B42400201A4B10B55A691C68B0
:10426000144004F47C425A61620504D5164A136D69
:104270000BB1506D9847230504D5134A936D0BB1CC
:10428000D06D9847E00404D50F4A136E0BB1506E01
:104290009847A10404D50C4A936E0BB1D06E984791
:1042A000620404D5084A136F0BB1506F984723047A
:1042B00004D5054A936F0BB1D06F9847BDE8104005
:1042C000FFF7AABA00040140B4240020062108B573
:1042D0000846FFF7C3FA06210720FFF7BFFA0621B9
:1042E0000820FFF7BBFA06210920FFF7B7FA0621DD
:1042F0000A20FFF7B3FA06211720FFF7AFFABDE84F
:10430000084006212820FFF7A9BA000008B5FFF7EA
:1043100099FE044800F00AF8FFF792FEBDE8084055
:1043200000F002B85C45000800F042B800231946CE
:104330001C4A0133102BC2E9001102F10802F8D126
:10434000194B9A6942F07D029A619B690268174B8A
:10435000DA6082685A6042681A60C26803F5806356
:10436000DA6042695A6002691A608269C3F80C24F3
:10437000026AC3F80424C269C3F80024426AC3F87D
:104380000C28C26AC3F80428826AC3F80028026BAA
:10439000C3F80C2C826BC3F8042C426BC3F8002CBE
:1043A000704700BFB4240020001002400008014004
:1043B0004FF0E023044A08215A6100229A61072243
:1043C0000B201A61FFF760BA3F19010008B53023CE
:1043D00083F31188FFF70EFB002383F3118808BDD8
:1043E00008B5FFF7F3FFBDE80840FFF715BA000076
:1043F0000B460146184600F009B80000024B0A4679
:1044000001461868FFF79ABC1C08002010B5044646
:104410000448134620B10A4602202146AFF300802B
:1044200010BD00BF00000000024B01461868FFF7F6
:1044300089BC00BF1C08002010B50139024490421D
:1044400001D1002005E0037811F8014FA34201D00B
:10445000181B10BD0130F2E72DE9F0419BB1044675
:10446000C91A1778014403F1FF3C8C42204601D958
:10447000002008E005780134BD42F6D10CEB0405BC
:10448000D618A54201D1BDE8F08115F8018D16F8C6
:1044900001EDF045F5D0E8E7034611F8012B03F8EC
:1044A000012B002AF9D170476F72672E6172647513
:1044B00070696C6F742E5A75626178474E53530061
:1044C00040A2E4F1646891060041A3E5F2656992B7
:1044D000070000004261642043414E496661636504
:1044E00020696E6465782E00800000000080000066
:1044F000000080000000000000000000A11C000877
:1045000089240008ED230008D91C0008E11C0008DC
:10451000CD1E0008B11C0008C11C0008B51C000815
:10452000BD1C0008B91C0008FD1D0008C51C0008C2
:104530008927000839270008D11C0008D11D000870
:1045400063300000404500089023002090240020A4
:104550006D61696E0069646C650000000C88000084
:10456000447B444444544424800E000044141114F9
:10457000947B444400000000444444444444444484
:104580000400000044424444444444440000000009
:104590004444444444444444ED030000000000000B
:1045A000006803000000000040420F00FE2A0100E6
:1045B000D2040000200800200000000000000000DD
:1045C00000000000000000000000000000000000EB
:1045D00000000000000000000000000000000000DB
:1045E00000000000000000000000000000000000CB
:1045F00000000000000000000000000000000000BB
:1046000000000000000000000000000000000000AA
:084610000000000000000000A2
:00000001FF
